{
	"src/AttestationVerifier.sol": {
		"AttestationVerifier": {
			"abi": [
				{
					"inputs": [
						{
							"internalType": "bytes",
							"name": "_caCertPubKey",
							"type": "bytes"
						},
						{
							"internalType": "bytes",
							"name": "_rootCert",
							"type": "bytes"
						},
						{
							"internalType": "contract Algorithm",
							"name": "_algo",
							"type": "address"
						}
					],
					"stateMutability": "nonpayable",
					"type": "constructor"
				},
				{
					"inputs": [
						{
							"internalType": "address",
							"name": "owner",
							"type": "address"
						}
					],
					"name": "OwnableInvalidOwner",
					"type": "error"
				},
				{
					"inputs": [
						{
							"internalType": "address",
							"name": "account",
							"type": "address"
						}
					],
					"name": "OwnableUnauthorizedAccount",
					"type": "error"
				},
				{
					"anonymous": false,
					"inputs": [
						{
							"indexed": true,
							"internalType": "address",
							"name": "previousOwner",
							"type": "address"
						},
						{
							"indexed": true,
							"internalType": "address",
							"name": "newOwner",
							"type": "address"
						}
					],
					"name": "OwnershipTransferred",
					"type": "event"
				},
				{
					"inputs": [],
					"name": "EXPECTED_MRENCLAVE",
					"outputs": [
						{
							"internalType": "bytes32",
							"name": "",
							"type": "bytes32"
						}
					],
					"stateMutability": "view",
					"type": "function"
				},
				{
					"inputs": [],
					"name": "caCertPubKey",
					"outputs": [
						{
							"internalType": "bytes",
							"name": "",
							"type": "bytes"
						}
					],
					"stateMutability": "view",
					"type": "function"
				},
				{
					"inputs": [
						{
							"internalType": "bytes",
							"name": "attBody",
							"type": "bytes"
						}
					],
					"name": "getMrEnclave",
					"outputs": [
						{
							"internalType": "bytes32",
							"name": "",
							"type": "bytes32"
						}
					],
					"stateMutability": "view",
					"type": "function"
				},
				{
					"inputs": [],
					"name": "isvEnclaveQuoteBodyStart",
					"outputs": [
						{
							"internalType": "bytes23",
							"name": "",
							"type": "bytes23"
						}
					],
					"stateMutability": "view",
					"type": "function"
				},
				{
					"inputs": [],
					"name": "owner",
					"outputs": [
						{
							"internalType": "address",
							"name": "",
							"type": "address"
						}
					],
					"stateMutability": "view",
					"type": "function"
				},
				{
					"inputs": [],
					"name": "renounceOwnership",
					"outputs": [],
					"stateMutability": "nonpayable",
					"type": "function"
				},
				{
					"inputs": [],
					"name": "rootCert",
					"outputs": [
						{
							"internalType": "bytes",
							"name": "",
							"type": "bytes"
						}
					],
					"stateMutability": "view",
					"type": "function"
				},
				{
					"inputs": [
						{
							"internalType": "bytes32",
							"name": "_expectedMrEnclave",
							"type": "bytes32"
						}
					],
					"name": "setExpectedMrEnclave",
					"outputs": [],
					"stateMutability": "nonpayable",
					"type": "function"
				},
				{
					"inputs": [],
					"name": "sha256WithRSAEncryption",
					"outputs": [
						{
							"internalType": "contract Algorithm",
							"name": "",
							"type": "address"
						}
					],
					"stateMutability": "view",
					"type": "function"
				},
				{
					"inputs": [
						{
							"internalType": "address",
							"name": "newOwner",
							"type": "address"
						}
					],
					"name": "transferOwnership",
					"outputs": [],
					"stateMutability": "nonpayable",
					"type": "function"
				},
				{
					"inputs": [
						{
							"internalType": "bytes",
							"name": "attCert",
							"type": "bytes"
						},
						{
							"internalType": "bytes",
							"name": "attBody",
							"type": "bytes"
						},
						{
							"internalType": "bytes",
							"name": "attSig",
							"type": "bytes"
						}
					],
					"name": "verifyAttestation",
					"outputs": [
						{
							"internalType": "bool",
							"name": "",
							"type": "bool"
						}
					],
					"stateMutability": "view",
					"type": "function"
				},
				{
					"inputs": [
						{
							"internalType": "bytes",
							"name": "cert",
							"type": "bytes"
						},
						{
							"internalType": "bytes",
							"name": "pubKey",
							"type": "bytes"
						}
					],
					"name": "verifyCert",
					"outputs": [
						{
							"internalType": "bytes",
							"name": "certPubKey",
							"type": "bytes"
						}
					],
					"stateMutability": "view",
					"type": "function"
				}
			],
			"devdoc": {
				"author": "Lajos Deme, Mercury Labs",
				"errors": {
					"OwnableInvalidOwner(address)": [
						{
							"details": "The owner is not a valid owner account. (eg. `address(0)`)"
						}
					],
					"OwnableUnauthorizedAccount(address)": [
						{
							"details": "The caller account is not authorized to perform an operation."
						}
					]
				},
				"kind": "dev",
				"methods": {
					"owner()": {
						"details": "Returns the address of the current owner."
					},
					"renounceOwnership()": {
						"details": "Leaves the contract without owner. It will not be possible to call `onlyOwner` functions. Can only be called by the current owner. NOTE: Renouncing ownership will leave the contract without an owner, thereby disabling any functionality that is only available to the owner."
					},
					"transferOwnership(address)": {
						"details": "Transfers ownership of the contract to a new account (`newOwner`). Can only be called by the current owner."
					},
					"verifyAttestation(bytes,bytes,bytes)": {
						"details": "See IAttestationVerifier - verifyAttestation "
					},
					"verifyCert(bytes,bytes)": {
						"details": "Parses and verifies a X.509 certificate.",
						"params": {
							"cert": "The X.509 certificate to verify.",
							"pubKey": "The public key of the certificate that signed this certificate."
						}
					}
				},
				"stateVariables": {
					"caCertPubKey": {
						"details": "The public key of the Attestation Report Signing CA Certificate. All Attestation Report Signing certificates must be traced back to this root to be considered valid. To verify that the key is valid, first verify the rootCert using the official certificate downloaded from Intel, then verify this key against that certificate."
					},
					"okBytes": {
						"details": "A succesfully verified enclave attestation report always contains the same bytes at the same position. These bytes stand for \"isvEnclaveQuoteStatus\":\"OK\" which is always part of the report.  "
					},
					"rootCert": {
						"details": "The Attestation Report Signing CA Certificate. This certificate can be downloaded from Intel. To verify that this certificate is correct check that it is identical to the one retrieved from Intel."
					},
					"sha256WithRSAEncryption": {
						"details": "The algorithm used for signing & verifying. "
					}
				},
				"title": "Attestation Verifier",
				"version": 1
			},
			"evm": {
				"assembly": "    /* \"src/AttestationVerifier.sol\":448:7655  contract AttestationVerifier is IAttestationVerifier, Ownable {... */\n  mstore(0x40, 0x80)\n    /* \"src/AttestationVerifier.sol\":617:683  0x3de47aea313c51d32b98c39a135f6c7fdc4999d05991585fa378bc8d22aef842 */\n  0x3de47aea313c51d32b98c39a135f6c7fdc4999d05991585fa378bc8d22aef842\n    /* \"src/AttestationVerifier.sol\":581:683  bytes32 public EXPECTED_MRENCLAVE = 0x3de47aea313c51d32b98c39a135f6c7fdc4999d05991585fa378bc8d22aef842 */\n  0x01\n  sstore\n    /* \"src/AttestationVerifier.sol\":946:1012  0x22697376456e636c61766551756f7465537461747573223a224f4b2200000000 */\n  0x22697376456e636c61766551756f7465537461747573223a224f4b2200000000\n    /* \"src/AttestationVerifier.sol\":920:1012  bytes32 okBytes =... */\n  0x02\n  sstore\n    /* \"src/AttestationVerifier.sol\":1807:1897  bytes23 public isvEnclaveQuoteBodyStart = 0x22697376456e636c61766551756f7465426f6479223a22 */\n  0x06\n  dup1\n  sload\n  not(sub(shl(0xb8, 0x01), 0x01))\n  and\n    /* \"src/AttestationVerifier.sol\":1849:1897  0x22697376456e636c61766551756f7465426f6479223a22 */\n  0x22697376456e636c61766551756f7465426f6479223a22\n    /* \"src/AttestationVerifier.sol\":1807:1897  bytes23 public isvEnclaveQuoteBodyStart = 0x22697376456e636c61766551756f7465426f6479223a22 */\n  or\n  swap1\n  sstore\n    /* \"src/AttestationVerifier.sol\":1931:2178  constructor(... */\n  callvalue\n  dup1\n  iszero\n  tag_1\n  jumpi\n  0x00\n  dup1\n  revert\ntag_1:\n  pop\n  mload(0x40)\n  sub(codesize, bytecodeSize)\n  dup1\n  bytecodeSize\n  dup4\n  codecopy\n  dup2\n  add\n  0x40\n  dup2\n  swap1\n  mstore\n  tag_2\n  swap2\n  tag_3\n  jump\t// in\ntag_2:\n    /* \"src/AttestationVerifier.sol\":2050:2060  msg.sender */\n  caller\n  dup1\n    /* \"lib/openzeppelin-contracts/contracts/access/Ownable.sol\":1269:1364  if (initialOwner == address(0)) {... */\n  tag_7\n  jumpi\n    /* \"lib/openzeppelin-contracts/contracts/access/Ownable.sol\":1322:1353  OwnableInvalidOwner(address(0)) */\n  mload(0x40)\n  shl(0xe0, 0x1e4fbdf7)\n  dup2\n  mstore\n    /* \"lib/openzeppelin-contracts/contracts/access/Ownable.sol\":1350:1351  0 */\n  0x00\n    /* \"lib/openzeppelin-contracts/contracts/access/Ownable.sol\":1322:1353  OwnableInvalidOwner(address(0)) */\n  0x04\n  dup3\n  add\n    /* \"#utility.yul\":1887:1938   */\n  mstore\n    /* \"#utility.yul\":1860:1878   */\n  0x24\n  add\n    /* \"lib/openzeppelin-contracts/contracts/access/Ownable.sol\":1322:1353  OwnableInvalidOwner(address(0)) */\n  mload(0x40)\n  dup1\n  swap2\n  sub\n  swap1\n  revert\n    /* \"lib/openzeppelin-contracts/contracts/access/Ownable.sol\":1269:1364  if (initialOwner == address(0)) {... */\ntag_7:\n    /* \"lib/openzeppelin-contracts/contracts/access/Ownable.sol\":1373:1405  _transferOwnership(initialOwner) */\n  tag_10\n    /* \"lib/openzeppelin-contracts/contracts/access/Ownable.sol\":1392:1404  initialOwner */\n  dup2\n    /* \"lib/openzeppelin-contracts/contracts/access/Ownable.sol\":1373:1391  _transferOwnership */\n  tag_11\n    /* \"lib/openzeppelin-contracts/contracts/access/Ownable.sol\":1373:1405  _transferOwnership(initialOwner) */\n  jump\t// in\ntag_10:\n  pop\n    /* \"src/AttestationVerifier.sol\":2072:2084  caCertPubKey */\n  0x03\n    /* \"src/AttestationVerifier.sol\":2072:2100  caCertPubKey = _caCertPubKey */\n  tag_13\n    /* \"src/AttestationVerifier.sol\":2087:2100  _caCertPubKey */\n  dup5\n    /* \"src/AttestationVerifier.sol\":2072:2084  caCertPubKey */\n  dup3\n    /* \"src/AttestationVerifier.sol\":2072:2100  caCertPubKey = _caCertPubKey */\n  tag_14\n  jump\t// in\ntag_13:\n  pop\n    /* \"src/AttestationVerifier.sol\":2110:2118  rootCert */\n  0x04\n    /* \"src/AttestationVerifier.sol\":2110:2130  rootCert = _rootCert */\n  tag_15\n    /* \"src/AttestationVerifier.sol\":2121:2130  _rootCert */\n  dup4\n    /* \"src/AttestationVerifier.sol\":2110:2118  rootCert */\n  dup3\n    /* \"src/AttestationVerifier.sol\":2110:2130  rootCert = _rootCert */\n  tag_14\n  jump\t// in\ntag_15:\n  pop\n    /* \"src/AttestationVerifier.sol\":2140:2163  sha256WithRSAEncryption */\n  0x05\n    /* \"src/AttestationVerifier.sol\":2140:2171  sha256WithRSAEncryption = _algo */\n  dup1\n  sload\n  not(sub(shl(0xa0, 0x01), 0x01))\n  and\n  sub(shl(0xa0, 0x01), 0x01)\n  swap3\n  swap1\n  swap3\n  and\n  swap2\n  swap1\n  swap2\n  or\n  swap1\n  sstore\n  pop\n    /* \"src/AttestationVerifier.sol\":448:7655  contract AttestationVerifier is IAttestationVerifier, Ownable {... */\n  tag_24\n  swap1\n  pop\n  jump\n    /* \"lib/openzeppelin-contracts/contracts/access/Ownable.sol\":2912:3099  function _transferOwnership(address newOwner) internal virtual {... */\ntag_11:\n    /* \"lib/openzeppelin-contracts/contracts/access/Ownable.sol\":2985:3001  address oldOwner */\n  0x00\n    /* \"lib/openzeppelin-contracts/contracts/access/Ownable.sol\":3004:3010  _owner */\n  dup1\n  sload\n  sub(shl(0xa0, 0x01), 0x01)\n    /* \"lib/openzeppelin-contracts/contracts/access/Ownable.sol\":3020:3037  _owner = newOwner */\n  dup4\n  dup2\n  and\n  not(sub(shl(0xa0, 0x01), 0x01))\n  dup4\n  and\n  dup2\n  or\n  dup5\n  sstore\n    /* \"lib/openzeppelin-contracts/contracts/access/Ownable.sol\":3052:3092  OwnershipTransferred(oldOwner, newOwner) */\n  mload(0x40)\n    /* \"lib/openzeppelin-contracts/contracts/access/Ownable.sol\":3004:3010  _owner */\n  swap2\n  swap1\n  swap3\n  and\n  swap3\n  dup4\n  swap2\n    /* \"lib/openzeppelin-contracts/contracts/access/Ownable.sol\":3052:3092  OwnershipTransferred(oldOwner, newOwner) */\n  0x8be0079c531659141344cd1fd0a4f28419497f9722a3daafe3b4186f6b6457e0\n  swap2\n    /* \"lib/openzeppelin-contracts/contracts/access/Ownable.sol\":2985:3001  address oldOwner */\n  swap1\n    /* \"lib/openzeppelin-contracts/contracts/access/Ownable.sol\":3052:3092  OwnershipTransferred(oldOwner, newOwner) */\n  log3\n    /* \"lib/openzeppelin-contracts/contracts/access/Ownable.sol\":2975:3099  {... */\n  pop\n    /* \"lib/openzeppelin-contracts/contracts/access/Ownable.sol\":2912:3099  function _transferOwnership(address newOwner) internal virtual {... */\n  pop\n  jump\t// out\n    /* \"#utility.yul\":14:141   */\ntag_18:\n    /* \"#utility.yul\":75:85   */\n  0x4e487b71\n    /* \"#utility.yul\":70:73   */\n  0xe0\n    /* \"#utility.yul\":66:86   */\n  shl\n    /* \"#utility.yul\":63:64   */\n  0x00\n    /* \"#utility.yul\":56:87   */\n  mstore\n    /* \"#utility.yul\":106:110   */\n  0x41\n    /* \"#utility.yul\":103:104   */\n  0x04\n    /* \"#utility.yul\":96:111   */\n  mstore\n    /* \"#utility.yul\":130:134   */\n  0x24\n    /* \"#utility.yul\":127:128   */\n  0x00\n    /* \"#utility.yul\":120:135   */\n  revert\n    /* \"#utility.yul\":146:989   */\ntag_19:\n    /* \"#utility.yul\":199:204   */\n  0x00\n    /* \"#utility.yul\":252:255   */\n  dup3\n    /* \"#utility.yul\":245:249   */\n  0x1f\n    /* \"#utility.yul\":237:243   */\n  dup4\n    /* \"#utility.yul\":233:250   */\n  add\n    /* \"#utility.yul\":229:256   */\n  slt\n    /* \"#utility.yul\":219:274   */\n  tag_27\n  jumpi\n    /* \"#utility.yul\":270:271   */\n  0x00\n    /* \"#utility.yul\":267:268   */\n  dup1\n    /* \"#utility.yul\":260:272   */\n  revert\n    /* \"#utility.yul\":219:274   */\ntag_27:\n    /* \"#utility.yul\":293:306   */\n  dup2\n  mload\n  sub(shl(0x40, 0x01), 0x01)\n    /* \"#utility.yul\":355:365   */\n  dup1\n  dup3\n  gt\n    /* \"#utility.yul\":352:388   */\n  iszero\n  tag_29\n  jumpi\n    /* \"#utility.yul\":368:386   */\n  tag_29\n  tag_18\n  jump\t// in\ntag_29:\n    /* \"#utility.yul\":443:445   */\n  0x40\n    /* \"#utility.yul\":437:446   */\n  mload\n    /* \"#utility.yul\":411:413   */\n  0x1f\n    /* \"#utility.yul\":497:510   */\n  dup4\n  add\n  not(0x1f)\n    /* \"#utility.yul\":493:515   */\n  swap1\n  dup2\n  and\n    /* \"#utility.yul\":517:519   */\n  0x3f\n    /* \"#utility.yul\":489:520   */\n  add\n    /* \"#utility.yul\":485:525   */\n  and\n    /* \"#utility.yul\":473:526   */\n  dup2\n  add\n  swap1\n    /* \"#utility.yul\":541:559   */\n  dup3\n  dup3\n  gt\n    /* \"#utility.yul\":561:583   */\n  dup2\n  dup4\n  lt\n    /* \"#utility.yul\":538:584   */\n  or\n    /* \"#utility.yul\":535:607   */\n  iszero\n  tag_31\n  jumpi\n    /* \"#utility.yul\":587:605   */\n  tag_31\n  tag_18\n  jump\t// in\ntag_31:\n    /* \"#utility.yul\":627:637   */\n  dup2\n    /* \"#utility.yul\":623:625   */\n  0x40\n    /* \"#utility.yul\":616:638   */\n  mstore\n    /* \"#utility.yul\":662:664   */\n  dup4\n    /* \"#utility.yul\":654:660   */\n  dup2\n    /* \"#utility.yul\":647:665   */\n  mstore\n    /* \"#utility.yul\":684:688   */\n  0x20\n    /* \"#utility.yul\":674:688   */\n  swap3\n  pop\n    /* \"#utility.yul\":731:734   */\n  dup7\n    /* \"#utility.yul\":724:728   */\n  0x20\n    /* \"#utility.yul\":719:721   */\n  dup6\n    /* \"#utility.yul\":711:717   */\n  dup9\n    /* \"#utility.yul\":707:722   */\n  add\n    /* \"#utility.yul\":703:729   */\n  add\n    /* \"#utility.yul\":700:735   */\n  gt\n    /* \"#utility.yul\":697:752   */\n  iszero\n  tag_32\n  jumpi\n    /* \"#utility.yul\":748:749   */\n  0x00\n    /* \"#utility.yul\":745:746   */\n  dup1\n    /* \"#utility.yul\":738:750   */\n  revert\n    /* \"#utility.yul\":697:752   */\ntag_32:\n    /* \"#utility.yul\":770:771   */\n  0x00\n    /* \"#utility.yul\":761:771   */\n  swap2\n  pop\n    /* \"#utility.yul\":780:913   */\ntag_33:\n    /* \"#utility.yul\":794:796   */\n  dup4\n    /* \"#utility.yul\":791:792   */\n  dup3\n    /* \"#utility.yul\":788:797   */\n  lt\n    /* \"#utility.yul\":780:913   */\n  iszero\n  tag_35\n  jumpi\n    /* \"#utility.yul\":882:896   */\n  dup6\n  dup3\n  add\n    /* \"#utility.yul\":878:901   */\n  dup4\n  add\n    /* \"#utility.yul\":872:902   */\n  mload\n    /* \"#utility.yul\":851:865   */\n  dup2\n  dup4\n  add\n    /* \"#utility.yul\":847:870   */\n  dup5\n  add\n    /* \"#utility.yul\":840:903   */\n  mstore\n    /* \"#utility.yul\":805:815   */\n  swap1\n  dup3\n  add\n  swap1\n    /* \"#utility.yul\":780:913   */\n  jump(tag_33)\ntag_35:\n    /* \"#utility.yul\":957:958   */\n  0x00\n    /* \"#utility.yul\":950:954   */\n  0x20\n    /* \"#utility.yul\":945:947   */\n  dup6\n    /* \"#utility.yul\":937:943   */\n  dup4\n    /* \"#utility.yul\":933:948   */\n  add\n    /* \"#utility.yul\":929:955   */\n  add\n    /* \"#utility.yul\":922:959   */\n  mstore\n    /* \"#utility.yul\":977:983   */\n  dup1\n    /* \"#utility.yul\":968:983   */\n  swap5\n  pop\n  pop\n  pop\n  pop\n  pop\n    /* \"#utility.yul\":146:989   */\n  swap3\n  swap2\n  pop\n  pop\n  jump\t// out\n    /* \"#utility.yul\":994:1736   */\ntag_3:\n    /* \"#utility.yul\":1117:1123   */\n  0x00\n    /* \"#utility.yul\":1125:1131   */\n  dup1\n    /* \"#utility.yul\":1133:1139   */\n  0x00\n    /* \"#utility.yul\":1186:1188   */\n  0x60\n    /* \"#utility.yul\":1174:1183   */\n  dup5\n    /* \"#utility.yul\":1165:1172   */\n  dup7\n    /* \"#utility.yul\":1161:1184   */\n  sub\n    /* \"#utility.yul\":1157:1189   */\n  slt\n    /* \"#utility.yul\":1154:1206   */\n  iszero\n  tag_37\n  jumpi\n    /* \"#utility.yul\":1202:1203   */\n  0x00\n    /* \"#utility.yul\":1199:1200   */\n  dup1\n    /* \"#utility.yul\":1192:1204   */\n  revert\n    /* \"#utility.yul\":1154:1206   */\ntag_37:\n    /* \"#utility.yul\":1229:1245   */\n  dup4\n  mload\n  sub(shl(0x40, 0x01), 0x01)\n    /* \"#utility.yul\":1294:1308   */\n  dup1\n  dup3\n  gt\n    /* \"#utility.yul\":1291:1325   */\n  iszero\n  tag_38\n  jumpi\n    /* \"#utility.yul\":1321:1322   */\n  0x00\n    /* \"#utility.yul\":1318:1319   */\n  dup1\n    /* \"#utility.yul\":1311:1323   */\n  revert\n    /* \"#utility.yul\":1291:1325   */\ntag_38:\n    /* \"#utility.yul\":1344:1404   */\n  tag_39\n    /* \"#utility.yul\":1396:1403   */\n  dup8\n    /* \"#utility.yul\":1387:1393   */\n  dup4\n    /* \"#utility.yul\":1376:1385   */\n  dup9\n    /* \"#utility.yul\":1372:1394   */\n  add\n    /* \"#utility.yul\":1344:1404   */\n  tag_19\n  jump\t// in\ntag_39:\n    /* \"#utility.yul\":1334:1404   */\n  swap5\n  pop\n    /* \"#utility.yul\":1450:1452   */\n  0x20\n    /* \"#utility.yul\":1439:1448   */\n  dup7\n    /* \"#utility.yul\":1435:1453   */\n  add\n    /* \"#utility.yul\":1429:1454   */\n  mload\n    /* \"#utility.yul\":1413:1454   */\n  swap2\n  pop\n    /* \"#utility.yul\":1479:1481   */\n  dup1\n    /* \"#utility.yul\":1469:1477   */\n  dup3\n    /* \"#utility.yul\":1466:1482   */\n  gt\n    /* \"#utility.yul\":1463:1499   */\n  iszero\n  tag_40\n  jumpi\n    /* \"#utility.yul\":1495:1496   */\n  0x00\n    /* \"#utility.yul\":1492:1493   */\n  dup1\n    /* \"#utility.yul\":1485:1497   */\n  revert\n    /* \"#utility.yul\":1463:1499   */\ntag_40:\n  pop\n    /* \"#utility.yul\":1518:1580   */\n  tag_41\n    /* \"#utility.yul\":1572:1579   */\n  dup7\n    /* \"#utility.yul\":1561:1569   */\n  dup3\n    /* \"#utility.yul\":1550:1559   */\n  dup8\n    /* \"#utility.yul\":1546:1570   */\n  add\n    /* \"#utility.yul\":1518:1580   */\n  tag_19\n  jump\t// in\ntag_41:\n    /* \"#utility.yul\":1623:1625   */\n  0x40\n    /* \"#utility.yul\":1608:1626   */\n  dup7\n  add\n    /* \"#utility.yul\":1602:1627   */\n  mload\n    /* \"#utility.yul\":1508:1580   */\n  swap1\n  swap4\n  pop\n    /* \"#utility.yul\":1602:1627   */\n  swap1\n  pop\n  sub(shl(0xa0, 0x01), 0x01)\n    /* \"#utility.yul\":1656:1687   */\n  dup2\n  and\n    /* \"#utility.yul\":1646:1688   */\n  dup2\n  eq\n    /* \"#utility.yul\":1636:1706   */\n  tag_42\n  jumpi\n    /* \"#utility.yul\":1702:1703   */\n  0x00\n    /* \"#utility.yul\":1699:1700   */\n  dup1\n    /* \"#utility.yul\":1692:1704   */\n  revert\n    /* \"#utility.yul\":1636:1706   */\ntag_42:\n    /* \"#utility.yul\":1725:1730   */\n  dup1\n    /* \"#utility.yul\":1715:1730   */\n  swap2\n  pop\n  pop\n    /* \"#utility.yul\":994:1736   */\n  swap3\n  pop\n  swap3\n  pop\n  swap3\n  jump\t// out\n    /* \"#utility.yul\":1949:2329   */\ntag_20:\n    /* \"#utility.yul\":2028:2029   */\n  0x01\n    /* \"#utility.yul\":2024:2036   */\n  dup2\n  dup2\n  shr\n  swap1\n    /* \"#utility.yul\":2071:2083   */\n  dup3\n  and\n  dup1\n    /* \"#utility.yul\":2092:2153   */\n  tag_45\n  jumpi\n    /* \"#utility.yul\":2146:2150   */\n  0x7f\n    /* \"#utility.yul\":2138:2144   */\n  dup3\n    /* \"#utility.yul\":2134:2151   */\n  and\n    /* \"#utility.yul\":2124:2151   */\n  swap2\n  pop\n    /* \"#utility.yul\":2092:2153   */\ntag_45:\n    /* \"#utility.yul\":2199:2201   */\n  0x20\n    /* \"#utility.yul\":2191:2197   */\n  dup3\n    /* \"#utility.yul\":2188:2202   */\n  lt\n    /* \"#utility.yul\":2168:2186   */\n  dup2\n    /* \"#utility.yul\":2165:2203   */\n  sub\n    /* \"#utility.yul\":2162:2323   */\n  tag_46\n  jumpi\n    /* \"#utility.yul\":2245:2255   */\n  0x4e487b71\n    /* \"#utility.yul\":2240:2243   */\n  0xe0\n    /* \"#utility.yul\":2236:2256   */\n  shl\n    /* \"#utility.yul\":2233:2234   */\n  0x00\n    /* \"#utility.yul\":2226:2257   */\n  mstore\n    /* \"#utility.yul\":2280:2284   */\n  0x22\n    /* \"#utility.yul\":2277:2278   */\n  0x04\n    /* \"#utility.yul\":2270:2285   */\n  mstore\n    /* \"#utility.yul\":2308:2312   */\n  0x24\n    /* \"#utility.yul\":2305:2306   */\n  0x00\n    /* \"#utility.yul\":2298:2313   */\n  revert\n    /* \"#utility.yul\":2162:2323   */\ntag_46:\n  pop\n    /* \"#utility.yul\":1949:2329   */\n  swap2\n  swap1\n  pop\n  jump\t// out\n    /* \"#utility.yul\":2459:2976   */\ntag_22:\n    /* \"#utility.yul\":2560:2562   */\n  0x1f\n    /* \"#utility.yul\":2555:2558   */\n  dup3\n    /* \"#utility.yul\":2552:2563   */\n  gt\n    /* \"#utility.yul\":2549:2970   */\n  iszero\n  tag_49\n  jumpi\n    /* \"#utility.yul\":2596:2601   */\n  dup1\n    /* \"#utility.yul\":2593:2594   */\n  0x00\n    /* \"#utility.yul\":2586:2602   */\n  mstore\n    /* \"#utility.yul\":2640:2644   */\n  0x20\n    /* \"#utility.yul\":2637:2638   */\n  0x00\n    /* \"#utility.yul\":2627:2645   */\n  keccak256\n    /* \"#utility.yul\":2710:2712   */\n  0x1f\n    /* \"#utility.yul\":2698:2708   */\n  dup5\n    /* \"#utility.yul\":2694:2713   */\n  add\n    /* \"#utility.yul\":2691:2692   */\n  0x05\n    /* \"#utility.yul\":2687:2714   */\n  shr\n    /* \"#utility.yul\":2681:2685   */\n  dup2\n    /* \"#utility.yul\":2677:2715   */\n  add\n    /* \"#utility.yul\":2746:2750   */\n  0x20\n    /* \"#utility.yul\":2734:2744   */\n  dup6\n    /* \"#utility.yul\":2731:2751   */\n  lt\n    /* \"#utility.yul\":2728:2775   */\n  iszero\n  tag_50\n  jumpi\n  pop\n    /* \"#utility.yul\":2769:2773   */\n  dup1\n    /* \"#utility.yul\":2728:2775   */\ntag_50:\n    /* \"#utility.yul\":2824:2826   */\n  0x1f\n    /* \"#utility.yul\":2819:2822   */\n  dup5\n    /* \"#utility.yul\":2815:2827   */\n  add\n    /* \"#utility.yul\":2812:2813   */\n  0x05\n    /* \"#utility.yul\":2808:2828   */\n  shr\n    /* \"#utility.yul\":2802:2806   */\n  dup3\n    /* \"#utility.yul\":2798:2829   */\n  add\n    /* \"#utility.yul\":2788:2829   */\n  swap2\n  pop\n    /* \"#utility.yul\":2879:2960   */\ntag_51:\n    /* \"#utility.yul\":2897:2899   */\n  dup2\n    /* \"#utility.yul\":2890:2895   */\n  dup2\n    /* \"#utility.yul\":2887:2900   */\n  lt\n    /* \"#utility.yul\":2879:2960   */\n  iszero\n  tag_53\n  jumpi\n    /* \"#utility.yul\":2956:2957   */\n  0x00\n    /* \"#utility.yul\":2942:2958   */\n  dup2\n  sstore\n    /* \"#utility.yul\":2923:2924   */\n  0x01\n    /* \"#utility.yul\":2912:2925   */\n  add\n    /* \"#utility.yul\":2879:2960   */\n  jump(tag_51)\ntag_53:\n    /* \"#utility.yul\":2883:2886   */\n  pop\n  pop\n    /* \"#utility.yul\":2549:2970   */\ntag_49:\n    /* \"#utility.yul\":2459:2976   */\n  pop\n  pop\n  pop\n  jump\t// out\n    /* \"#utility.yul\":3152:4493   */\ntag_14:\n    /* \"#utility.yul\":3270:3280   */\n  dup2\n  mload\n  sub(shl(0x40, 0x01), 0x01)\n    /* \"#utility.yul\":3292:3322   */\n  dup2\n  gt\n    /* \"#utility.yul\":3289:3345   */\n  iszero\n  tag_57\n  jumpi\n    /* \"#utility.yul\":3325:3343   */\n  tag_57\n  tag_18\n  jump\t// in\ntag_57:\n    /* \"#utility.yul\":3354:3450   */\n  tag_58\n    /* \"#utility.yul\":3443:3449   */\n  dup2\n    /* \"#utility.yul\":3403:3441   */\n  tag_59\n    /* \"#utility.yul\":3435:3439   */\n  dup5\n    /* \"#utility.yul\":3429:3440   */\n  sload\n    /* \"#utility.yul\":3403:3441   */\n  tag_20\n  jump\t// in\ntag_59:\n    /* \"#utility.yul\":3397:3401   */\n  dup5\n    /* \"#utility.yul\":3354:3450   */\n  tag_22\n  jump\t// in\ntag_58:\n    /* \"#utility.yul\":3505:3509   */\n  0x20\n  dup1\n    /* \"#utility.yul\":3562:3564   */\n  0x1f\n    /* \"#utility.yul\":3551:3565   */\n  dup4\n  gt\n    /* \"#utility.yul\":3579:3580   */\n  0x01\n    /* \"#utility.yul\":3574:4236   */\n  dup2\n  eq\n  tag_61\n  jumpi\n    /* \"#utility.yul\":4280:4281   */\n  0x00\n    /* \"#utility.yul\":4297:4303   */\n  dup5\n    /* \"#utility.yul\":4294:4383   */\n  iszero\n  tag_62\n  jumpi\n  pop\n    /* \"#utility.yul\":4349:4368   */\n  dup6\n  dup4\n  add\n    /* \"#utility.yul\":4343:4369   */\n  mload\n    /* \"#utility.yul\":4294:4383   */\ntag_62:\n  not(0x00)\n    /* \"#utility.yul\":3109:3110   */\n  0x03\n    /* \"#utility.yul\":3105:3116   */\n  dup7\n  swap1\n  shl\n    /* \"#utility.yul\":3101:3125   */\n  shr\n    /* \"#utility.yul\":3097:3126   */\n  not\n    /* \"#utility.yul\":3087:3127   */\n  and\n    /* \"#utility.yul\":3133:3134   */\n  0x01\n    /* \"#utility.yul\":3129:3140   */\n  dup6\n  swap1\n  shl\n    /* \"#utility.yul\":3084:3141   */\n  or\n    /* \"#utility.yul\":4396:4477   */\n  dup6\n  sstore\n    /* \"#utility.yul\":3544:4487   */\n  jump(tag_60)\n    /* \"#utility.yul\":3574:4236   */\ntag_61:\n    /* \"#utility.yul\":2406:2407   */\n  0x00\n    /* \"#utility.yul\":2399:2413   */\n  dup6\n  dup2\n  mstore\n    /* \"#utility.yul\":2443:2447   */\n  0x20\n    /* \"#utility.yul\":2430:2448   */\n  dup2\n  keccak256\n  not(0x1f)\n    /* \"#utility.yul\":3610:3630   */\n  dup7\n  and\n  swap2\n    /* \"#utility.yul\":3727:3963   */\ntag_65:\n    /* \"#utility.yul\":3741:3748   */\n  dup3\n    /* \"#utility.yul\":3738:3739   */\n  dup2\n    /* \"#utility.yul\":3735:3749   */\n  lt\n    /* \"#utility.yul\":3727:3963   */\n  iszero\n  tag_67\n  jumpi\n    /* \"#utility.yul\":3830:3849   */\n  dup9\n  dup7\n  add\n    /* \"#utility.yul\":3824:3850   */\n  mload\n    /* \"#utility.yul\":3809:3851   */\n  dup3\n  sstore\n    /* \"#utility.yul\":3922:3949   */\n  swap5\n  dup5\n  add\n  swap5\n    /* \"#utility.yul\":3890:3891   */\n  0x01\n    /* \"#utility.yul\":3878:3892   */\n  swap1\n  swap2\n  add\n  swap1\n    /* \"#utility.yul\":3757:3776   */\n  dup5\n  add\n    /* \"#utility.yul\":3727:3963   */\n  jump(tag_65)\ntag_67:\n    /* \"#utility.yul\":3731:3734   */\n  pop\n    /* \"#utility.yul\":3991:3997   */\n  dup6\n    /* \"#utility.yul\":3982:3989   */\n  dup3\n    /* \"#utility.yul\":3979:3998   */\n  lt\n    /* \"#utility.yul\":3976:4177   */\n  iszero\n  tag_68\n  jumpi\n    /* \"#utility.yul\":4052:4071   */\n  dup8\n  dup6\n  add\n    /* \"#utility.yul\":4046:4072   */\n  mload\n  not(0x00)\n    /* \"#utility.yul\":4135:4136   */\n  0x03\n    /* \"#utility.yul\":4131:4145   */\n  dup9\n  swap1\n  shl\n    /* \"#utility.yul\":4147:4150   */\n  0xf8\n    /* \"#utility.yul\":4127:4151   */\n  and\n    /* \"#utility.yul\":4123:4160   */\n  shr\n    /* \"#utility.yul\":4119:4161   */\n  not\n    /* \"#utility.yul\":4104:4162   */\n  and\n    /* \"#utility.yul\":4089:4163   */\n  dup2\n  sstore\n    /* \"#utility.yul\":3976:4177   */\ntag_68:\n  pop\n  pop\n    /* \"#utility.yul\":4223:4224   */\n  0x01\n    /* \"#utility.yul\":4214:4220   */\n  dup5\n    /* \"#utility.yul\":4211:4212   */\n  0x01\n    /* \"#utility.yul\":4207:4221   */\n  shl\n    /* \"#utility.yul\":4203:4225   */\n  add\n    /* \"#utility.yul\":4197:4201   */\n  dup6\n    /* \"#utility.yul\":4190:4226   */\n  sstore\n    /* \"#utility.yul\":3544:4487   */\ntag_60:\n  pop\n  pop\n  pop\n  pop\n    /* \"#utility.yul\":3152:4493   */\n  pop\n  pop\n  jump\t// out\ntag_24:\n    /* \"src/AttestationVerifier.sol\":448:7655  contract AttestationVerifier is IAttestationVerifier, Ownable {... */\n  dataSize(sub_0)\n  dup1\n  dataOffset(sub_0)\n  0x00\n  codecopy\n  0x00\n  return\nstop\n\nsub_0: assembly {\n        /* \"src/AttestationVerifier.sol\":448:7655  contract AttestationVerifier is IAttestationVerifier, Ownable {... */\n      mstore(0x40, 0x80)\n      callvalue\n      dup1\n      iszero\n      tag_1\n      jumpi\n      0x00\n      dup1\n      revert\n    tag_1:\n      pop\n      jumpi(tag_2, lt(calldatasize, 0x04))\n      shr(0xe0, calldataload(0x00))\n      dup1\n      0x721d9bc4\n      gt\n      tag_15\n      jumpi\n      dup1\n      0x721d9bc4\n      eq\n      tag_9\n      jumpi\n      dup1\n      0x7221e6fc\n      eq\n      tag_10\n      jumpi\n      dup1\n      0x89cccf61\n      eq\n      tag_11\n      jumpi\n      dup1\n      0x8da5cb5b\n      eq\n      tag_12\n      jumpi\n      dup1\n      0xe35f1a83\n      eq\n      tag_13\n      jumpi\n      dup1\n      0xf2fde38b\n      eq\n      tag_14\n      jumpi\n      0x00\n      dup1\n      revert\n    tag_15:\n      dup1\n      0x3553d6ee\n      eq\n      tag_3\n      jumpi\n      dup1\n      0x3e1c075a\n      eq\n      tag_4\n      jumpi\n      dup1\n      0x44a73684\n      eq\n      tag_5\n      jumpi\n      dup1\n      0x462b2653\n      eq\n      tag_6\n      jumpi\n      dup1\n      0x58d1c11b\n      eq\n      tag_7\n      jumpi\n      dup1\n      0x715018a6\n      eq\n      tag_8\n      jumpi\n    tag_2:\n      0x00\n      dup1\n      revert\n        /* \"src/AttestationVerifier.sol\":1398:1423  bytes public caCertPubKey */\n    tag_3:\n      tag_16\n      tag_17\n      jump\t// in\n    tag_16:\n      mload(0x40)\n      tag_18\n      swap2\n      swap1\n      tag_19\n      jump\t// in\n    tag_18:\n      mload(0x40)\n      dup1\n      swap2\n      sub\n      swap1\n      return\n        /* \"src/AttestationVerifier.sol\":2245:2919  function verifyAttestation(... */\n    tag_4:\n      tag_20\n      tag_21\n      calldatasize\n      0x04\n      tag_22\n      jump\t// in\n    tag_21:\n      tag_23\n      jump\t// in\n    tag_20:\n      mload(0x40)\n        /* \"#utility.yul\":2189:2203   */\n      swap1\n      iszero\n        /* \"#utility.yul\":2182:2204   */\n      iszero\n        /* \"#utility.yul\":2164:2205   */\n      dup2\n      mstore\n        /* \"#utility.yul\":2152:2154   */\n      0x20\n        /* \"#utility.yul\":2137:2155   */\n      add\n        /* \"src/AttestationVerifier.sol\":2245:2919  function verifyAttestation(... */\n      tag_18\n        /* \"#utility.yul\":2024:2211   */\n      jump\n        /* \"src/AttestationVerifier.sol\":1807:1897  bytes23 public isvEnclaveQuoteBodyStart = 0x22697376456e636c61766551756f7465426f6479223a22 */\n    tag_5:\n      sload(0x06)\n      tag_26\n      swap1\n      0x48\n      shl\n      dup2\n      jump\n    tag_26:\n      mload(0x40)\n      not(0xffffffffffffffffff)\n        /* \"#utility.yul\":2380:2418   */\n      swap1\n      swap2\n      and\n        /* \"#utility.yul\":2362:2419   */\n      dup2\n      mstore\n        /* \"#utility.yul\":2350:2352   */\n      0x20\n        /* \"#utility.yul\":2335:2353   */\n      add\n        /* \"src/AttestationVerifier.sol\":1807:1897  bytes23 public isvEnclaveQuoteBodyStart = 0x22697376456e636c61766551756f7465426f6479223a22 */\n      tag_18\n        /* \"#utility.yul\":2216:2425   */\n      jump\n        /* \"src/AttestationVerifier.sol\":1760:1800  Algorithm public sha256WithRSAEncryption */\n    tag_6:\n      sload(0x05)\n      tag_30\n      swap1\n      sub(shl(0xa0, 0x01), 0x01)\n      and\n      dup2\n      jump\n    tag_30:\n      mload(0x40)\n      sub(shl(0xa0, 0x01), 0x01)\n        /* \"#utility.yul\":2611:2643   */\n      swap1\n      swap2\n      and\n        /* \"#utility.yul\":2593:2644   */\n      dup2\n      mstore\n        /* \"#utility.yul\":2581:2583   */\n      0x20\n        /* \"#utility.yul\":2566:2584   */\n      add\n        /* \"src/AttestationVerifier.sol\":1760:1800  Algorithm public sha256WithRSAEncryption */\n      tag_18\n        /* \"#utility.yul\":2430:2650   */\n      jump\n        /* \"src/AttestationVerifier.sol\":581:683  bytes32 public EXPECTED_MRENCLAVE = 0x3de47aea313c51d32b98c39a135f6c7fdc4999d05991585fa378bc8d22aef842 */\n    tag_7:\n      tag_34\n      sload(0x01)\n      dup2\n      jump\n    tag_34:\n      mload(0x40)\n        /* \"#utility.yul\":2801:2826   */\n      swap1\n      dup2\n      mstore\n        /* \"#utility.yul\":2789:2791   */\n      0x20\n        /* \"#utility.yul\":2774:2792   */\n      add\n        /* \"src/AttestationVerifier.sol\":581:683  bytes32 public EXPECTED_MRENCLAVE = 0x3de47aea313c51d32b98c39a135f6c7fdc4999d05991585fa378bc8d22aef842 */\n      tag_18\n        /* \"#utility.yul\":2655:2832   */\n      jump\n        /* \"lib/openzeppelin-contracts/contracts/access/Ownable.sol\":2293:2394  function renounceOwnership() public virtual onlyOwner {... */\n    tag_8:\n      tag_38\n      tag_39\n      jump\t// in\n    tag_38:\n      stop\n        /* \"src/AttestationVerifier.sol\":3122:5004  function verifyCert(bytes memory cert, bytes memory pubKey)... */\n    tag_9:\n      tag_16\n      tag_41\n      calldatasize\n      0x04\n      tag_42\n      jump\t// in\n    tag_41:\n      tag_43\n      jump\t// in\n        /* \"src/AttestationVerifier.sol\":1672:1693  bytes public rootCert */\n    tag_10:\n      tag_16\n      tag_46\n      jump\t// in\n        /* \"src/AttestationVerifier.sol\":7420:7653  function setExpectedMrEnclave(bytes32 _expectedMrEnclave) external onlyOwner {... */\n    tag_11:\n      tag_38\n      tag_49\n      calldatasize\n      0x04\n      tag_50\n      jump\t// in\n    tag_49:\n      tag_51\n      jump\t// in\n        /* \"lib/openzeppelin-contracts/contracts/access/Ownable.sol\":1638:1723  function owner() public view virtual returns (address) {... */\n    tag_12:\n        /* \"lib/openzeppelin-contracts/contracts/access/Ownable.sol\":1684:1691  address */\n      0x00\n        /* \"lib/openzeppelin-contracts/contracts/access/Ownable.sol\":1710:1716  _owner */\n      sload\n      sub(shl(0xa0, 0x01), 0x01)\n      and\n        /* \"lib/openzeppelin-contracts/contracts/access/Ownable.sol\":1638:1723  function owner() public view virtual returns (address) {... */\n      jump(tag_30)\n        /* \"src/AttestationVerifier.sol\":5497:5790  function getMrEnclave(bytes calldata attBody) public view returns (bytes32) {... */\n    tag_13:\n      tag_34\n      tag_57\n      calldatasize\n      0x04\n      tag_58\n      jump\t// in\n    tag_57:\n      tag_59\n      jump\t// in\n        /* \"lib/openzeppelin-contracts/contracts/access/Ownable.sol\":2543:2758  function transferOwnership(address newOwner) public virtual onlyOwner {... */\n    tag_14:\n      tag_38\n      tag_62\n      calldatasize\n      0x04\n      tag_63\n      jump\t// in\n    tag_62:\n      tag_64\n      jump\t// in\n        /* \"src/AttestationVerifier.sol\":1398:1423  bytes public caCertPubKey */\n    tag_17:\n      0x03\n      dup1\n      sload\n      tag_65\n      swap1\n      tag_66\n      jump\t// in\n    tag_65:\n      dup1\n      0x1f\n      add\n      0x20\n      dup1\n      swap2\n      div\n      mul\n      0x20\n      add\n      mload(0x40)\n      swap1\n      dup2\n      add\n      0x40\n      mstore\n      dup1\n      swap3\n      swap2\n      swap1\n      dup2\n      dup2\n      mstore\n      0x20\n      add\n      dup3\n      dup1\n      sload\n      tag_67\n      swap1\n      tag_66\n      jump\t// in\n    tag_67:\n      dup1\n      iszero\n      tag_68\n      jumpi\n      dup1\n      0x1f\n      lt\n      tag_69\n      jumpi\n      0x0100\n      dup1\n      dup4\n      sload\n      div\n      mul\n      dup4\n      mstore\n      swap2\n      0x20\n      add\n      swap2\n      jump(tag_68)\n    tag_69:\n      dup3\n      add\n      swap2\n      swap1\n      0x00\n      mstore\n      keccak256(0x00, 0x20)\n      swap1\n    tag_70:\n      dup2\n      sload\n      dup2\n      mstore\n      swap1\n      0x01\n      add\n      swap1\n      0x20\n      add\n      dup1\n      dup4\n      gt\n      tag_70\n      jumpi\n      dup3\n      swap1\n      sub\n      0x1f\n      and\n      dup3\n      add\n      swap2\n    tag_68:\n      pop\n      pop\n      pop\n      pop\n      pop\n      dup2\n      jump\t// out\n        /* \"src/AttestationVerifier.sol\":2245:2919  function verifyAttestation(... */\n    tag_23:\n        /* \"src/AttestationVerifier.sol\":2394:2398  bool */\n      0x00\n        /* \"src/AttestationVerifier.sol\":2410:2441  bytes memory intermediatePubKey */\n      dup1\n        /* \"src/AttestationVerifier.sol\":2444:2477  verifyCert(attCert, caCertPubKey) */\n      tag_72\n        /* \"src/AttestationVerifier.sol\":2455:2462  attCert */\n      dup9\n      dup9\n        /* \"src/AttestationVerifier.sol\":2444:2477  verifyCert(attCert, caCertPubKey) */\n      dup1\n      dup1\n      0x1f\n      add\n      0x20\n      dup1\n      swap2\n      div\n      mul\n      0x20\n      add\n      mload(0x40)\n      swap1\n      dup2\n      add\n      0x40\n      mstore\n      dup1\n      swap4\n      swap3\n      swap2\n      swap1\n      dup2\n      dup2\n      mstore\n      0x20\n      add\n      dup4\n      dup4\n      dup1\n      dup3\n      dup5\n      calldatacopy\n      0x00\n      swap3\n      add\n      swap2\n      swap1\n      swap2\n      mstore\n      pop\n      pop\n        /* \"src/AttestationVerifier.sol\":2464:2476  caCertPubKey */\n      0x03\n        /* \"src/AttestationVerifier.sol\":2444:2477  verifyCert(attCert, caCertPubKey) */\n      dup1\n      sload\n        /* \"src/AttestationVerifier.sol\":2464:2476  caCertPubKey */\n      swap1\n      swap3\n      pop\n        /* \"src/AttestationVerifier.sol\":2444:2477  verifyCert(attCert, caCertPubKey) */\n      tag_73\n      swap2\n      pop\n      tag_66\n      jump\t// in\n    tag_73:\n      dup1\n      0x1f\n      add\n      0x20\n      dup1\n      swap2\n      div\n      mul\n      0x20\n      add\n      mload(0x40)\n      swap1\n      dup2\n      add\n      0x40\n      mstore\n      dup1\n      swap3\n      swap2\n      swap1\n      dup2\n      dup2\n      mstore\n      0x20\n      add\n      dup3\n      dup1\n      sload\n      tag_74\n      swap1\n      tag_66\n      jump\t// in\n    tag_74:\n      dup1\n      iszero\n      tag_75\n      jumpi\n      dup1\n      0x1f\n      lt\n      tag_76\n      jumpi\n      0x0100\n      dup1\n      dup4\n      sload\n      div\n      mul\n      dup4\n      mstore\n      swap2\n      0x20\n      add\n      swap2\n      jump(tag_75)\n    tag_76:\n      dup3\n      add\n      swap2\n      swap1\n      0x00\n      mstore\n      keccak256(0x00, 0x20)\n      swap1\n    tag_77:\n      dup2\n      sload\n      dup2\n      mstore\n      swap1\n      0x01\n      add\n      swap1\n      0x20\n      add\n      dup1\n      dup4\n      gt\n      tag_77\n      jumpi\n      dup3\n      swap1\n      sub\n      0x1f\n      and\n      dup3\n      add\n      swap2\n    tag_75:\n      pop\n      pop\n      pop\n      pop\n      pop\n        /* \"src/AttestationVerifier.sol\":2444:2454  verifyCert */\n      tag_43\n        /* \"src/AttestationVerifier.sol\":2444:2477  verifyCert(attCert, caCertPubKey) */\n      jump\t// in\n    tag_72:\n        /* \"src/AttestationVerifier.sol\":2555:2578  sha256WithRSAEncryption */\n      sload(0x05)\n        /* \"src/AttestationVerifier.sol\":2555:2622  sha256WithRSAEncryption.verify(intermediatePubKey, attBody, attSig) */\n      mload(0x40)\n      shl(0xe0, 0xde8f50a1)\n      dup2\n      mstore\n        /* \"src/AttestationVerifier.sol\":2410:2477  bytes memory intermediatePubKey = verifyCert(attCert, caCertPubKey) */\n      swap2\n      swap3\n      pop\n      sub(shl(0xa0, 0x01), 0x01)\n        /* \"src/AttestationVerifier.sol\":2555:2578  sha256WithRSAEncryption */\n      and\n      swap1\n        /* \"src/AttestationVerifier.sol\":2555:2585  sha256WithRSAEncryption.verify */\n      0xde8f50a1\n      swap1\n        /* \"src/AttestationVerifier.sol\":2555:2622  sha256WithRSAEncryption.verify(intermediatePubKey, attBody, attSig) */\n      tag_78\n      swap1\n        /* \"src/AttestationVerifier.sol\":2410:2477  bytes memory intermediatePubKey = verifyCert(attCert, caCertPubKey) */\n      dup5\n      swap1\n        /* \"src/AttestationVerifier.sol\":2606:2613  attBody */\n      dup11\n      swap1\n      dup11\n      swap1\n        /* \"src/AttestationVerifier.sol\":2615:2621  attSig */\n      dup11\n      swap1\n      dup11\n      swap1\n        /* \"src/AttestationVerifier.sol\":2555:2622  sha256WithRSAEncryption.verify(intermediatePubKey, attBody, attSig) */\n      0x04\n      add\n      tag_79\n      jump\t// in\n    tag_78:\n      0x20\n      mload(0x40)\n      dup1\n      dup4\n      sub\n      dup2\n      dup7\n      gas\n      staticcall\n      iszero\n      dup1\n      iszero\n      tag_81\n      jumpi\n      returndatasize\n      0x00\n      dup1\n      returndatacopy\n      revert(0x00, returndatasize)\n    tag_81:\n      pop\n      pop\n      pop\n      pop\n      mload(0x40)\n      returndatasize\n      not(0x1f)\n      0x1f\n      dup3\n      add\n      and\n      dup3\n      add\n      dup1\n      0x40\n      mstore\n      pop\n      dup2\n      add\n      swap1\n      tag_82\n      swap2\n      swap1\n      tag_83\n      jump\t// in\n    tag_82:\n        /* \"src/AttestationVerifier.sol\":2555:2631  sha256WithRSAEncryption.verify(intermediatePubKey, attBody, attSig) == false */\n      iszero\n      iszero\n        /* \"src/AttestationVerifier.sol\":2626:2631  false */\n      0x00\n        /* \"src/AttestationVerifier.sol\":2555:2631  sha256WithRSAEncryption.verify(intermediatePubKey, attBody, attSig) == false */\n      sub\n        /* \"src/AttestationVerifier.sol\":2551:2670  if (sha256WithRSAEncryption.verify(intermediatePubKey, attBody, attSig) == false) {... */\n      tag_84\n      jumpi\n        /* \"src/AttestationVerifier.sol\":2654:2659  false */\n      0x00\n        /* \"src/AttestationVerifier.sol\":2647:2659  return false */\n      swap2\n      pop\n      pop\n      jump(tag_71)\n        /* \"src/AttestationVerifier.sol\":2551:2670  if (sha256WithRSAEncryption.verify(intermediatePubKey, attBody, attSig) == false) {... */\n    tag_84:\n        /* \"src/AttestationVerifier.sol\":2814:2831  bytes32 mrenclave */\n      0x00\n        /* \"src/AttestationVerifier.sol\":2834:2855  getMrEnclave(attBody) */\n      tag_85\n        /* \"src/AttestationVerifier.sol\":2847:2854  attBody */\n      dup8\n      dup8\n        /* \"src/AttestationVerifier.sol\":2834:2846  getMrEnclave */\n      tag_59\n        /* \"src/AttestationVerifier.sol\":2834:2855  getMrEnclave(attBody) */\n      jump\t// in\n    tag_85:\n        /* \"src/AttestationVerifier.sol\":2881:2899  EXPECTED_MRENCLAVE */\n      sload(0x01)\n        /* \"src/AttestationVerifier.sol\":2881:2912  EXPECTED_MRENCLAVE == mrenclave */\n      eq\n      swap3\n      pop\n      pop\n      pop\n        /* \"src/AttestationVerifier.sol\":2245:2919  function verifyAttestation(... */\n    tag_71:\n      swap7\n      swap6\n      pop\n      pop\n      pop\n      pop\n      pop\n      pop\n      jump\t// out\n        /* \"lib/openzeppelin-contracts/contracts/access/Ownable.sol\":2293:2394  function renounceOwnership() public virtual onlyOwner {... */\n    tag_39:\n        /* \"lib/openzeppelin-contracts/contracts/access/Ownable.sol\":1531:1544  _checkOwner() */\n      tag_87\n        /* \"lib/openzeppelin-contracts/contracts/access/Ownable.sol\":1531:1542  _checkOwner */\n      tag_88\n        /* \"lib/openzeppelin-contracts/contracts/access/Ownable.sol\":1531:1544  _checkOwner() */\n      jump\t// in\n    tag_87:\n        /* \"lib/openzeppelin-contracts/contracts/access/Ownable.sol\":2357:2387  _transferOwnership(address(0)) */\n      tag_90\n        /* \"lib/openzeppelin-contracts/contracts/access/Ownable.sol\":2384:2385  0 */\n      0x00\n        /* \"lib/openzeppelin-contracts/contracts/access/Ownable.sol\":2357:2375  _transferOwnership */\n      tag_91\n        /* \"lib/openzeppelin-contracts/contracts/access/Ownable.sol\":2357:2387  _transferOwnership(address(0)) */\n      jump\t// in\n    tag_90:\n        /* \"lib/openzeppelin-contracts/contracts/access/Ownable.sol\":2293:2394  function renounceOwnership() public virtual onlyOwner {... */\n      jump\t// out\n        /* \"src/AttestationVerifier.sol\":3122:5004  function verifyCert(bytes memory cert, bytes memory pubKey)... */\n    tag_43:\n        /* \"src/AttestationVerifier.sol\":3227:3250  bytes memory certPubKey */\n      0x60\n        /* \"src/AttestationVerifier.sol\":3266:3279  uint256 node1 */\n      0x00\n        /* \"src/AttestationVerifier.sol\":3289:3302  uint256 node2 */\n      dup1\n        /* \"src/AttestationVerifier.sol\":3312:3325  uint256 node3 */\n      0x00\n        /* \"src/AttestationVerifier.sol\":3344:3355  cert.root() */\n      tag_93\n        /* \"src/AttestationVerifier.sol\":3344:3348  cert */\n      dup7\n        /* \"src/AttestationVerifier.sol\":3344:3353  cert.root */\n      tag_94\n        /* \"src/AttestationVerifier.sol\":3344:3355  cert.root() */\n      jump\t// in\n    tag_93:\n        /* \"src/AttestationVerifier.sol\":3336:3355  node1 = cert.root() */\n      swap3\n      pop\n        /* \"src/AttestationVerifier.sol\":3373:3397  cert.firstChildOf(node1) */\n      tag_95\n        /* \"src/AttestationVerifier.sol\":3373:3377  cert */\n      dup7\n        /* \"src/AttestationVerifier.sol\":3336:3355  node1 = cert.root() */\n      dup5\n        /* \"src/AttestationVerifier.sol\":3373:3390  cert.firstChildOf */\n      tag_96\n        /* \"src/AttestationVerifier.sol\":3373:3397  cert.firstChildOf(node1) */\n      jump\t// in\n    tag_95:\n        /* \"src/AttestationVerifier.sol\":3365:3397  node1 = cert.firstChildOf(node1) */\n      swap3\n      pop\n        /* \"src/AttestationVerifier.sol\":3415:3439  cert.firstChildOf(node1) */\n      tag_97\n        /* \"src/AttestationVerifier.sol\":3415:3419  cert */\n      dup7\n        /* \"src/AttestationVerifier.sol\":3365:3397  node1 = cert.firstChildOf(node1) */\n      dup5\n        /* \"src/AttestationVerifier.sol\":3415:3432  cert.firstChildOf */\n      tag_96\n        /* \"src/AttestationVerifier.sol\":3415:3439  cert.firstChildOf(node1) */\n      jump\t// in\n    tag_97:\n        /* \"src/AttestationVerifier.sol\":3407:3439  node2 = cert.firstChildOf(node1) */\n      swap2\n      pop\n        /* \"src/AttestationVerifier.sol\":3453:3457  cert */\n      dup6\n      sub(shl(0x50, 0x01), 0x01)\n        /* \"src/utils/Asn1Decode.sol\":245:264  return uint80(self) */\n      dup4\n      and\n        /* \"src/AttestationVerifier.sol\":3453:3477  cert[NodePtr.ixs(node2)] */\n      dup2\n      mload\n      dup2\n      lt\n      tag_101\n      jumpi\n      tag_101\n      tag_102\n      jump\t// in\n    tag_101:\n      add\n      0x20\n      add\n      mload\n      not(sub(shl(0xf8, 0x01), 0x01))\n      and\n      shl(0xfd, 0x05)\n        /* \"src/AttestationVerifier.sol\":3453:3485  cert[NodePtr.ixs(node2)] == 0xa0 */\n      sub\n        /* \"src/AttestationVerifier.sol\":3449:3545  if (cert[NodePtr.ixs(node2)] == 0xa0) {... */\n      tag_103\n      jumpi\n        /* \"src/AttestationVerifier.sol\":3509:3534  cert.nextSiblingOf(node2) */\n      tag_104\n        /* \"src/AttestationVerifier.sol\":3509:3513  cert */\n      dup7\n        /* \"src/AttestationVerifier.sol\":3528:3533  node2 */\n      dup4\n        /* \"src/AttestationVerifier.sol\":3509:3527  cert.nextSiblingOf */\n      tag_105\n        /* \"src/AttestationVerifier.sol\":3509:3534  cert.nextSiblingOf(node2) */\n      jump\t// in\n    tag_104:\n        /* \"src/AttestationVerifier.sol\":3501:3534  node2 = cert.nextSiblingOf(node2) */\n      swap2\n      pop\n        /* \"src/AttestationVerifier.sol\":3449:3545  if (cert[NodePtr.ixs(node2)] == 0xa0) {... */\n    tag_103:\n        /* \"src/AttestationVerifier.sol\":3563:3588  cert.nextSiblingOf(node2) */\n      tag_106\n        /* \"src/AttestationVerifier.sol\":3563:3567  cert */\n      dup7\n        /* \"src/AttestationVerifier.sol\":3582:3587  node2 */\n      dup4\n        /* \"src/AttestationVerifier.sol\":3563:3581  cert.nextSiblingOf */\n      tag_105\n        /* \"src/AttestationVerifier.sol\":3563:3588  cert.nextSiblingOf(node2) */\n      jump\t// in\n    tag_106:\n        /* \"src/AttestationVerifier.sol\":3555:3588  node2 = cert.nextSiblingOf(node2) */\n      swap2\n      pop\n        /* \"src/AttestationVerifier.sol\":3606:3630  cert.firstChildOf(node2) */\n      tag_107\n        /* \"src/AttestationVerifier.sol\":3606:3610  cert */\n      dup7\n        /* \"src/AttestationVerifier.sol\":3555:3588  node2 = cert.nextSiblingOf(node2) */\n      dup4\n        /* \"src/AttestationVerifier.sol\":3606:3623  cert.firstChildOf */\n      tag_96\n        /* \"src/AttestationVerifier.sol\":3606:3630  cert.firstChildOf(node2) */\n      jump\t// in\n    tag_107:\n        /* \"src/AttestationVerifier.sol\":3598:3630  node2 = cert.firstChildOf(node2) */\n      swap2\n      pop\n        /* \"src/AttestationVerifier.sol\":3648:3673  cert.nextSiblingOf(node1) */\n      tag_108\n        /* \"src/AttestationVerifier.sol\":3648:3652  cert */\n      dup7\n        /* \"src/AttestationVerifier.sol\":3667:3672  node1 */\n      dup5\n        /* \"src/AttestationVerifier.sol\":3648:3666  cert.nextSiblingOf */\n      tag_105\n        /* \"src/AttestationVerifier.sol\":3648:3673  cert.nextSiblingOf(node1) */\n      jump\t// in\n    tag_108:\n        /* \"src/AttestationVerifier.sol\":3640:3673  node3 = cert.nextSiblingOf(node1) */\n      swap1\n      pop\n        /* \"src/AttestationVerifier.sol\":3691:3716  cert.nextSiblingOf(node3) */\n      tag_109\n        /* \"src/AttestationVerifier.sol\":3691:3695  cert */\n      dup7\n        /* \"src/AttestationVerifier.sol\":3640:3673  node3 = cert.nextSiblingOf(node1) */\n      dup3\n        /* \"src/AttestationVerifier.sol\":3691:3709  cert.nextSiblingOf */\n      tag_105\n        /* \"src/AttestationVerifier.sol\":3691:3716  cert.nextSiblingOf(node3) */\n      jump\t// in\n    tag_109:\n        /* \"src/AttestationVerifier.sol\":3775:3798  sha256WithRSAEncryption */\n      sload(0x05)\n        /* \"src/AttestationVerifier.sol\":3683:3716  node3 = cert.nextSiblingOf(node3) */\n      swap1\n      swap2\n      pop\n      sub(shl(0xa0, 0x01), 0x01)\n        /* \"src/AttestationVerifier.sol\":3775:3798  sha256WithRSAEncryption */\n      and\n        /* \"src/AttestationVerifier.sol\":3775:3805  sha256WithRSAEncryption.verify */\n      0xde8f50a1\n        /* \"src/AttestationVerifier.sol\":3823:3829  pubKey */\n      dup7\n        /* \"src/AttestationVerifier.sol\":3847:3869  cert.allBytesAt(node1) */\n      tag_110\n        /* \"src/AttestationVerifier.sol\":3847:3851  cert */\n      dup10\n        /* \"src/AttestationVerifier.sol\":3863:3868  node1 */\n      dup8\n        /* \"src/AttestationVerifier.sol\":3847:3862  cert.allBytesAt */\n      tag_111\n        /* \"src/AttestationVerifier.sol\":3847:3869  cert.allBytesAt(node1) */\n      jump\t// in\n    tag_110:\n        /* \"src/AttestationVerifier.sol\":3887:3906  cert.bytesAt(node3) */\n      tag_112\n        /* \"src/AttestationVerifier.sol\":3887:3891  cert */\n      dup11\n        /* \"src/AttestationVerifier.sol\":3900:3905  node3 */\n      dup7\n        /* \"src/AttestationVerifier.sol\":3887:3899  cert.bytesAt */\n      tag_113\n        /* \"src/AttestationVerifier.sol\":3887:3906  cert.bytesAt(node3) */\n      jump\t// in\n    tag_112:\n        /* \"src/AttestationVerifier.sol\":3775:3920  sha256WithRSAEncryption.verify(... */\n      mload(0x40)\n      dup5\n      0xffffffff\n      and\n      0xe0\n      shl\n      dup2\n      mstore\n      0x04\n      add\n      tag_114\n      swap4\n      swap3\n      swap2\n      swap1\n      tag_115\n      jump\t// in\n    tag_114:\n      0x20\n      mload(0x40)\n      dup1\n      dup4\n      sub\n      dup2\n      dup7\n      gas\n      staticcall\n      iszero\n      dup1\n      iszero\n      tag_117\n      jumpi\n      returndatasize\n      0x00\n      dup1\n      returndatacopy\n      revert(0x00, returndatasize)\n    tag_117:\n      pop\n      pop\n      pop\n      pop\n      mload(0x40)\n      returndatasize\n      not(0x1f)\n      0x1f\n      dup3\n      add\n      and\n      dup3\n      add\n      dup1\n      0x40\n      mstore\n      pop\n      dup2\n      add\n      swap1\n      tag_118\n      swap2\n      swap1\n      tag_83\n      jump\t// in\n    tag_118:\n        /* \"src/AttestationVerifier.sol\":3754:3989  require(... */\n      tag_119\n      jumpi\n      mload(0x40)\n      shl(0xe5, 0x461bcd)\n      dup2\n      mstore\n        /* \"#utility.yul\":7744:7746   */\n      0x20\n        /* \"src/AttestationVerifier.sol\":3754:3989  require(... */\n      0x04\n      dup3\n      add\n        /* \"#utility.yul\":7726:7747   */\n      mstore\n        /* \"#utility.yul\":7783:7785   */\n      0x2b\n        /* \"#utility.yul\":7763:7781   */\n      0x24\n      dup3\n      add\n        /* \"#utility.yul\":7756:7786   */\n      mstore\n        /* \"#utility.yul\":7822:7856   */\n      0x4174746573746174696f6e56657269666965723a205369676e61747572652064\n        /* \"#utility.yul\":7802:7820   */\n      0x44\n      dup3\n      add\n        /* \"#utility.yul\":7795:7857   */\n      mstore\n      shl(0xab, 0x0decae6dce840dac2e8c6d)\n        /* \"#utility.yul\":7873:7891   */\n      0x64\n      dup3\n      add\n        /* \"#utility.yul\":7866:7907   */\n      mstore\n        /* \"#utility.yul\":7924:7943   */\n      0x84\n      add\n        /* \"src/AttestationVerifier.sol\":3754:3989  require(... */\n    tag_120:\n      mload(0x40)\n      dup1\n      swap2\n      sub\n      swap1\n      revert\n    tag_119:\n        /* \"src/AttestationVerifier.sol\":4041:4065  cert.firstChildOf(node1) */\n      tag_122\n        /* \"src/AttestationVerifier.sol\":4041:4045  cert */\n      dup7\n        /* \"src/AttestationVerifier.sol\":4059:4064  node1 */\n      dup5\n        /* \"src/AttestationVerifier.sol\":4041:4058  cert.firstChildOf */\n      tag_96\n        /* \"src/AttestationVerifier.sol\":4041:4065  cert.firstChildOf(node1) */\n      jump\t// in\n    tag_122:\n        /* \"src/AttestationVerifier.sol\":4033:4065  node1 = cert.firstChildOf(node1) */\n      swap3\n      pop\n        /* \"src/AttestationVerifier.sol\":4083:4108  cert.nextSiblingOf(node1) */\n      tag_123\n        /* \"src/AttestationVerifier.sol\":4083:4087  cert */\n      dup7\n        /* \"src/AttestationVerifier.sol\":4033:4065  node1 = cert.firstChildOf(node1) */\n      dup5\n        /* \"src/AttestationVerifier.sol\":4083:4101  cert.nextSiblingOf */\n      tag_105\n        /* \"src/AttestationVerifier.sol\":4083:4108  cert.nextSiblingOf(node1) */\n      jump\t// in\n    tag_123:\n        /* \"src/AttestationVerifier.sol\":4075:4108  node1 = cert.nextSiblingOf(node1) */\n      swap3\n      pop\n        /* \"src/AttestationVerifier.sol\":4126:4151  cert.nextSiblingOf(node1) */\n      tag_124\n        /* \"src/AttestationVerifier.sol\":4126:4130  cert */\n      dup7\n        /* \"src/AttestationVerifier.sol\":4075:4108  node1 = cert.nextSiblingOf(node1) */\n      dup5\n        /* \"src/AttestationVerifier.sol\":4126:4144  cert.nextSiblingOf */\n      tag_105\n        /* \"src/AttestationVerifier.sol\":4126:4151  cert.nextSiblingOf(node1) */\n      jump\t// in\n    tag_124:\n        /* \"src/AttestationVerifier.sol\":4118:4151  node1 = cert.nextSiblingOf(node1) */\n      swap3\n      pop\n        /* \"src/AttestationVerifier.sol\":4169:4194  cert.nextSiblingOf(node1) */\n      tag_125\n        /* \"src/AttestationVerifier.sol\":4169:4173  cert */\n      dup7\n        /* \"src/AttestationVerifier.sol\":4118:4151  node1 = cert.nextSiblingOf(node1) */\n      dup5\n        /* \"src/AttestationVerifier.sol\":4169:4187  cert.nextSiblingOf */\n      tag_105\n        /* \"src/AttestationVerifier.sol\":4169:4194  cert.nextSiblingOf(node1) */\n      jump\t// in\n    tag_125:\n        /* \"src/AttestationVerifier.sol\":4161:4194  node1 = cert.nextSiblingOf(node1) */\n      swap3\n      pop\n        /* \"src/AttestationVerifier.sol\":4212:4237  cert.nextSiblingOf(node1) */\n      tag_126\n        /* \"src/AttestationVerifier.sol\":4212:4216  cert */\n      dup7\n        /* \"src/AttestationVerifier.sol\":4161:4194  node1 = cert.nextSiblingOf(node1) */\n      dup5\n        /* \"src/AttestationVerifier.sol\":4212:4230  cert.nextSiblingOf */\n      tag_105\n        /* \"src/AttestationVerifier.sol\":4212:4237  cert.nextSiblingOf(node1) */\n      jump\t// in\n    tag_126:\n        /* \"src/AttestationVerifier.sol\":4204:4237  node1 = cert.nextSiblingOf(node1) */\n      swap3\n      pop\n        /* \"src/AttestationVerifier.sol\":4256:4280  cert.firstChildOf(node1) */\n      tag_127\n        /* \"src/AttestationVerifier.sol\":4256:4260  cert */\n      dup7\n        /* \"src/AttestationVerifier.sol\":4204:4237  node1 = cert.nextSiblingOf(node1) */\n      dup5\n        /* \"src/AttestationVerifier.sol\":4256:4273  cert.firstChildOf */\n      tag_96\n        /* \"src/AttestationVerifier.sol\":4256:4280  cert.firstChildOf(node1) */\n      jump\t// in\n    tag_127:\n        /* \"src/AttestationVerifier.sol\":4248:4280  node2 = cert.firstChildOf(node1) */\n      swap2\n      pop\n        /* \"src/AttestationVerifier.sol\":4291:4312  uint40 validNotBefore */\n      0x00\n        /* \"src/AttestationVerifier.sol\":4335:4343  DateTime */\n      linkerSymbol(\"3121b8144e26f5a8fcc440b7b32d4f2d0ed140736fb5fbab054cbc2f29508f89\")\n        /* \"src/AttestationVerifier.sol\":4335:4355  DateTime.toTimestamp */\n      0x095385c6\n        /* \"src/AttestationVerifier.sol\":4356:4375  cert.bytesAt(node2) */\n      tag_128\n        /* \"src/AttestationVerifier.sol\":4356:4360  cert */\n      dup10\n        /* \"src/AttestationVerifier.sol\":4248:4280  node2 = cert.firstChildOf(node1) */\n      dup7\n        /* \"src/AttestationVerifier.sol\":4356:4368  cert.bytesAt */\n      tag_113\n        /* \"src/AttestationVerifier.sol\":4356:4375  cert.bytesAt(node2) */\n      jump\t// in\n    tag_128:\n        /* \"src/AttestationVerifier.sol\":4335:4376  DateTime.toTimestamp(cert.bytesAt(node2)) */\n      mload(0x40)\n      dup3\n      0xffffffff\n      and\n      0xe0\n      shl\n      dup2\n      mstore\n      0x04\n      add\n      tag_129\n      swap2\n      swap1\n      tag_19\n      jump\t// in\n    tag_129:\n      0x20\n      mload(0x40)\n      dup1\n      dup4\n      sub\n      dup2\n      dup7\n      gas\n      delegatecall\n      iszero\n      dup1\n      iszero\n      tag_132\n      jumpi\n      returndatasize\n      0x00\n      dup1\n      returndatacopy\n      revert(0x00, returndatasize)\n    tag_132:\n      pop\n      pop\n      pop\n      pop\n      mload(0x40)\n      returndatasize\n      not(0x1f)\n      0x1f\n      dup3\n      add\n      and\n      dup3\n      add\n      dup1\n      0x40\n      mstore\n      pop\n      dup2\n      add\n      swap1\n      tag_133\n      swap2\n      swap1\n      tag_134\n      jump\t// in\n    tag_133:\n        /* \"src/AttestationVerifier.sol\":4291:4386  uint40 validNotBefore = uint40(... */\n      swap1\n      pop\n        /* \"src/AttestationVerifier.sol\":4435:4450  block.timestamp */\n      timestamp\n        /* \"src/AttestationVerifier.sol\":4417:4431  validNotBefore */\n      dup2\n        /* \"src/AttestationVerifier.sol\":4417:4450  validNotBefore <= block.timestamp */\n      0xffffffffff\n      and\n      gt\n      iszero\n        /* \"src/AttestationVerifier.sol\":4396:4524  require(... */\n      tag_135\n      jumpi\n      mload(0x40)\n      shl(0xe5, 0x461bcd)\n      dup2\n      mstore\n        /* \"#utility.yul\":8575:8577   */\n      0x20\n        /* \"src/AttestationVerifier.sol\":4396:4524  require(... */\n      0x04\n      dup3\n      add\n        /* \"#utility.yul\":8557:8578   */\n      mstore\n        /* \"#utility.yul\":8614:8616   */\n      0x30\n        /* \"#utility.yul\":8594:8612   */\n      0x24\n      dup3\n      add\n        /* \"#utility.yul\":8587:8617   */\n      mstore\n        /* \"#utility.yul\":8653:8687   */\n      0x4174746573746174696f6e5665726966793a2043657274696669636174652069\n        /* \"#utility.yul\":8633:8651   */\n      0x44\n      dup3\n      add\n        /* \"#utility.yul\":8626:8688   */\n      mstore\n      shl(0x81, 0x39903737ba103cb2ba103b30b634b217)\n        /* \"#utility.yul\":8704:8722   */\n      0x64\n      dup3\n      add\n        /* \"#utility.yul\":8697:8743   */\n      mstore\n        /* \"#utility.yul\":8760:8779   */\n      0x84\n      add\n        /* \"src/AttestationVerifier.sol\":4396:4524  require(... */\n      tag_120\n        /* \"#utility.yul\":8373:8785   */\n      jump\n        /* \"src/AttestationVerifier.sol\":4396:4524  require(... */\n    tag_135:\n        /* \"src/AttestationVerifier.sol\":4575:4600  cert.nextSiblingOf(node2) */\n      tag_138\n        /* \"src/AttestationVerifier.sol\":4575:4579  cert */\n      dup8\n        /* \"src/AttestationVerifier.sol\":4594:4599  node2 */\n      dup5\n        /* \"src/AttestationVerifier.sol\":4575:4593  cert.nextSiblingOf */\n      tag_105\n        /* \"src/AttestationVerifier.sol\":4575:4600  cert.nextSiblingOf(node2) */\n      jump\t// in\n    tag_138:\n        /* \"src/AttestationVerifier.sol\":4567:4600  node2 = cert.nextSiblingOf(node2) */\n      swap3\n      pop\n        /* \"src/AttestationVerifier.sol\":4610:4630  uint40 validNotAfter */\n      0x00\n        /* \"src/AttestationVerifier.sol\":4653:4661  DateTime */\n      linkerSymbol(\"3121b8144e26f5a8fcc440b7b32d4f2d0ed140736fb5fbab054cbc2f29508f89\")\n        /* \"src/AttestationVerifier.sol\":4653:4673  DateTime.toTimestamp */\n      0x095385c6\n        /* \"src/AttestationVerifier.sol\":4674:4693  cert.bytesAt(node2) */\n      tag_139\n        /* \"src/AttestationVerifier.sol\":4674:4678  cert */\n      dup11\n        /* \"src/AttestationVerifier.sol\":4567:4600  node2 = cert.nextSiblingOf(node2) */\n      dup8\n        /* \"src/AttestationVerifier.sol\":4674:4686  cert.bytesAt */\n      tag_113\n        /* \"src/AttestationVerifier.sol\":4674:4693  cert.bytesAt(node2) */\n      jump\t// in\n    tag_139:\n        /* \"src/AttestationVerifier.sol\":4653:4694  DateTime.toTimestamp(cert.bytesAt(node2)) */\n      mload(0x40)\n      dup3\n      0xffffffff\n      and\n      0xe0\n      shl\n      dup2\n      mstore\n      0x04\n      add\n      tag_140\n      swap2\n      swap1\n      tag_19\n      jump\t// in\n    tag_140:\n      0x20\n      mload(0x40)\n      dup1\n      dup4\n      sub\n      dup2\n      dup7\n      gas\n      delegatecall\n      iszero\n      dup1\n      iszero\n      tag_142\n      jumpi\n      returndatasize\n      0x00\n      dup1\n      returndatacopy\n      revert(0x00, returndatasize)\n    tag_142:\n      pop\n      pop\n      pop\n      pop\n      mload(0x40)\n      returndatasize\n      not(0x1f)\n      0x1f\n      dup3\n      add\n      and\n      dup3\n      add\n      dup1\n      0x40\n      mstore\n      pop\n      dup2\n      add\n      swap1\n      tag_143\n      swap2\n      swap1\n      tag_134\n      jump\t// in\n    tag_143:\n        /* \"src/AttestationVerifier.sol\":4610:4704  uint40 validNotAfter = uint40(... */\n      swap1\n      pop\n        /* \"src/AttestationVerifier.sol\":4752:4767  block.timestamp */\n      timestamp\n        /* \"src/AttestationVerifier.sol\":4735:4748  validNotAfter */\n      dup2\n        /* \"src/AttestationVerifier.sol\":4735:4767  validNotAfter >= block.timestamp */\n      0xffffffffff\n      and\n      lt\n      iszero\n        /* \"src/AttestationVerifier.sol\":4714:4832  require(... */\n      tag_144\n      jumpi\n      mload(0x40)\n      shl(0xe5, 0x461bcd)\n      dup2\n      mstore\n        /* \"#utility.yul\":8992:8994   */\n      0x20\n        /* \"src/AttestationVerifier.sol\":4714:4832  require(... */\n      0x04\n      dup3\n      add\n        /* \"#utility.yul\":8974:8995   */\n      mstore\n        /* \"#utility.yul\":9031:9033   */\n      0x27\n        /* \"#utility.yul\":9011:9029   */\n      0x24\n      dup3\n      add\n        /* \"#utility.yul\":9004:9034   */\n      mstore\n        /* \"#utility.yul\":9070:9104   */\n      0x4174746573746174696f6e5665726966793a2043657274696669636174652065\n        /* \"#utility.yul\":9050:9068   */\n      0x44\n      dup3\n      add\n        /* \"#utility.yul\":9043:9105   */\n      mstore\n      shl(0xc9, 0x3c3834b932b217)\n        /* \"#utility.yul\":9121:9139   */\n      0x64\n      dup3\n      add\n        /* \"#utility.yul\":9114:9151   */\n      mstore\n        /* \"#utility.yul\":9168:9187   */\n      0x84\n      add\n        /* \"src/AttestationVerifier.sol\":4714:4832  require(... */\n      tag_120\n        /* \"#utility.yul\":8790:9193   */\n      jump\n        /* \"src/AttestationVerifier.sol\":4714:4832  require(... */\n    tag_144:\n        /* \"src/AttestationVerifier.sol\":4883:4908  cert.nextSiblingOf(node1) */\n      tag_147\n        /* \"src/AttestationVerifier.sol\":4883:4887  cert */\n      dup9\n        /* \"src/AttestationVerifier.sol\":4902:4907  node1 */\n      dup7\n        /* \"src/AttestationVerifier.sol\":4883:4901  cert.nextSiblingOf */\n      tag_105\n        /* \"src/AttestationVerifier.sol\":4883:4908  cert.nextSiblingOf(node1) */\n      jump\t// in\n    tag_147:\n        /* \"src/AttestationVerifier.sol\":4875:4908  node1 = cert.nextSiblingOf(node1) */\n      swap5\n      pop\n        /* \"src/AttestationVerifier.sol\":4926:4951  cert.nextSiblingOf(node1) */\n      tag_148\n        /* \"src/AttestationVerifier.sol\":4926:4930  cert */\n      dup9\n        /* \"src/AttestationVerifier.sol\":4875:4908  node1 = cert.nextSiblingOf(node1) */\n      dup7\n        /* \"src/AttestationVerifier.sol\":4926:4944  cert.nextSiblingOf */\n      tag_105\n        /* \"src/AttestationVerifier.sol\":4926:4951  cert.nextSiblingOf(node1) */\n      jump\t// in\n    tag_148:\n        /* \"src/AttestationVerifier.sol\":4918:4951  node1 = cert.nextSiblingOf(node1) */\n      swap5\n      pop\n        /* \"src/AttestationVerifier.sol\":4975:4997  cert.allBytesAt(node1) */\n      tag_149\n        /* \"src/AttestationVerifier.sol\":4975:4979  cert */\n      dup9\n        /* \"src/AttestationVerifier.sol\":4918:4951  node1 = cert.nextSiblingOf(node1) */\n      dup7\n        /* \"src/AttestationVerifier.sol\":4975:4990  cert.allBytesAt */\n      tag_111\n        /* \"src/AttestationVerifier.sol\":4975:4997  cert.allBytesAt(node1) */\n      jump\t// in\n    tag_149:\n        /* \"src/AttestationVerifier.sol\":4962:4997  certPubKey = cert.allBytesAt(node1) */\n      swap9\n        /* \"src/AttestationVerifier.sol\":3122:5004  function verifyCert(bytes memory cert, bytes memory pubKey)... */\n      swap8\n      pop\n      pop\n      pop\n      pop\n      pop\n      pop\n      pop\n      pop\n      jump\t// out\n        /* \"src/AttestationVerifier.sol\":1672:1693  bytes public rootCert */\n    tag_46:\n      0x04\n      dup1\n      sload\n      tag_65\n      swap1\n      tag_66\n      jump\t// in\n        /* \"src/AttestationVerifier.sol\":7420:7653  function setExpectedMrEnclave(bytes32 _expectedMrEnclave) external onlyOwner {... */\n    tag_51:\n        /* \"lib/openzeppelin-contracts/contracts/access/Ownable.sol\":1531:1544  _checkOwner() */\n      tag_156\n        /* \"lib/openzeppelin-contracts/contracts/access/Ownable.sol\":1531:1542  _checkOwner */\n      tag_88\n        /* \"lib/openzeppelin-contracts/contracts/access/Ownable.sol\":1531:1544  _checkOwner() */\n      jump\t// in\n    tag_156:\n        /* \"src/AttestationVerifier.sol\":7515:7533  _expectedMrEnclave */\n      dup1\n        /* \"src/AttestationVerifier.sol\":7507:7597  require(_expectedMrEnclave != bytes32(0), \"Expected MRENCLAVE can't be set to zero bytes\") */\n      tag_158\n      jumpi\n      mload(0x40)\n      shl(0xe5, 0x461bcd)\n      dup2\n      mstore\n        /* \"#utility.yul\":9400:9402   */\n      0x20\n        /* \"src/AttestationVerifier.sol\":7507:7597  require(_expectedMrEnclave != bytes32(0), \"Expected MRENCLAVE can't be set to zero bytes\") */\n      0x04\n      dup3\n      add\n        /* \"#utility.yul\":9382:9403   */\n      mstore\n        /* \"#utility.yul\":9439:9441   */\n      0x2d\n        /* \"#utility.yul\":9419:9437   */\n      0x24\n      dup3\n      add\n        /* \"#utility.yul\":9412:9442   */\n      mstore\n        /* \"#utility.yul\":9478:9512   */\n      0x4578706563746564204d52454e434c4156452063616e27742062652073657420\n        /* \"#utility.yul\":9458:9476   */\n      0x44\n      dup3\n      add\n        /* \"#utility.yul\":9451:9513   */\n      mstore\n      shl(0x98, 0x746f207a65726f206279746573)\n        /* \"#utility.yul\":9529:9547   */\n      0x64\n      dup3\n      add\n        /* \"#utility.yul\":9522:9565   */\n      mstore\n        /* \"#utility.yul\":9582:9601   */\n      0x84\n      add\n        /* \"src/AttestationVerifier.sol\":7507:7597  require(_expectedMrEnclave != bytes32(0), \"Expected MRENCLAVE can't be set to zero bytes\") */\n      tag_120\n        /* \"#utility.yul\":9198:9607   */\n      jump\n        /* \"src/AttestationVerifier.sol\":7507:7597  require(_expectedMrEnclave != bytes32(0), \"Expected MRENCLAVE can't be set to zero bytes\") */\n    tag_158:\n        /* \"src/AttestationVerifier.sol\":7607:7625  EXPECTED_MRENCLAVE */\n      0x01\n        /* \"src/AttestationVerifier.sol\":7607:7646  EXPECTED_MRENCLAVE = _expectedMrEnclave */\n      sstore\n        /* \"src/AttestationVerifier.sol\":7420:7653  function setExpectedMrEnclave(bytes32 _expectedMrEnclave) external onlyOwner {... */\n      jump\t// out\n        /* \"src/AttestationVerifier.sol\":5497:5790  function getMrEnclave(bytes calldata attBody) public view returns (bytes32) {... */\n    tag_59:\n        /* \"src/AttestationVerifier.sol\":5564:5571  bytes32 */\n      0x00\n        /* \"src/AttestationVerifier.sol\":5583:5622  bytes memory decodedIsvEnclaveQuoteBody */\n      dup1\n        /* \"src/AttestationVerifier.sol\":5625:5681  getBytesAfterSequence(attBody, isvEnclaveQuoteBodyStart) */\n      tag_163\n        /* \"src/AttestationVerifier.sol\":5647:5654  attBody */\n      dup5\n      dup5\n        /* \"src/AttestationVerifier.sol\":5625:5681  getBytesAfterSequence(attBody, isvEnclaveQuoteBodyStart) */\n      dup1\n      dup1\n      0x1f\n      add\n      0x20\n      dup1\n      swap2\n      div\n      mul\n      0x20\n      add\n      mload(0x40)\n      swap1\n      dup2\n      add\n      0x40\n      mstore\n      dup1\n      swap4\n      swap3\n      swap2\n      swap1\n      dup2\n      dup2\n      mstore\n      0x20\n      add\n      dup4\n      dup4\n      dup1\n      dup3\n      dup5\n      calldatacopy\n      0x00\n      swap3\n      add\n      swap2\n      swap1\n      swap2\n      mstore\n      pop\n      pop\n        /* \"src/AttestationVerifier.sol\":5656:5680  isvEnclaveQuoteBodyStart */\n      shl(0x48, sload(0x06))\n      swap2\n      pop\n        /* \"src/AttestationVerifier.sol\":5625:5646  getBytesAfterSequence */\n      tag_164\n      swap1\n      pop\n        /* \"src/AttestationVerifier.sol\":5625:5681  getBytesAfterSequence(attBody, isvEnclaveQuoteBodyStart) */\n      jump\t// in\n    tag_163:\n        /* \"src/AttestationVerifier.sol\":5583:5681  bytes memory decodedIsvEnclaveQuoteBody = getBytesAfterSequence(attBody, isvEnclaveQuoteBodyStart) */\n      swap1\n      pop\n        /* \"src/AttestationVerifier.sol\":5691:5708  bytes32 mrenclave */\n      0x00\n        /* \"src/AttestationVerifier.sol\":5711:5757  decodedIsvEnclaveQuoteBody.readBytesN(112, 32) */\n      tag_165\n        /* \"src/AttestationVerifier.sol\":5583:5681  bytes memory decodedIsvEnclaveQuoteBody = getBytesAfterSequence(attBody, isvEnclaveQuoteBodyStart) */\n      dup3\n        /* \"src/AttestationVerifier.sol\":5749:5752  112 */\n      0x70\n        /* \"src/AttestationVerifier.sol\":5754:5756  32 */\n      0x20\n        /* \"src/AttestationVerifier.sol\":5711:5748  decodedIsvEnclaveQuoteBody.readBytesN */\n      tag_166\n        /* \"src/AttestationVerifier.sol\":5711:5757  decodedIsvEnclaveQuoteBody.readBytesN(112, 32) */\n      jump\t// in\n    tag_165:\n        /* \"src/AttestationVerifier.sol\":5691:5757  bytes32 mrenclave = decodedIsvEnclaveQuoteBody.readBytesN(112, 32) */\n      swap3\n      pop\n      pop\n      pop\n        /* \"src/AttestationVerifier.sol\":5497:5790  function getMrEnclave(bytes calldata attBody) public view returns (bytes32) {... */\n    tag_162:\n      swap3\n      swap2\n      pop\n      pop\n      jump\t// out\n        /* \"lib/openzeppelin-contracts/contracts/access/Ownable.sol\":2543:2758  function transferOwnership(address newOwner) public virtual onlyOwner {... */\n    tag_64:\n        /* \"lib/openzeppelin-contracts/contracts/access/Ownable.sol\":1531:1544  _checkOwner() */\n      tag_168\n        /* \"lib/openzeppelin-contracts/contracts/access/Ownable.sol\":1531:1542  _checkOwner */\n      tag_88\n        /* \"lib/openzeppelin-contracts/contracts/access/Ownable.sol\":1531:1544  _checkOwner() */\n      jump\t// in\n    tag_168:\n      sub(shl(0xa0, 0x01), 0x01)\n        /* \"lib/openzeppelin-contracts/contracts/access/Ownable.sol\":2627:2649  newOwner == address(0) */\n      dup2\n      and\n        /* \"lib/openzeppelin-contracts/contracts/access/Ownable.sol\":2623:2714  if (newOwner == address(0)) {... */\n      tag_170\n      jumpi\n        /* \"lib/openzeppelin-contracts/contracts/access/Ownable.sol\":2672:2703  OwnableInvalidOwner(address(0)) */\n      mload(0x40)\n      shl(0xe0, 0x1e4fbdf7)\n      dup2\n      mstore\n        /* \"lib/openzeppelin-contracts/contracts/access/Ownable.sol\":2700:2701  0 */\n      0x00\n        /* \"lib/openzeppelin-contracts/contracts/access/Ownable.sol\":2672:2703  OwnableInvalidOwner(address(0)) */\n      0x04\n      dup3\n      add\n        /* \"#utility.yul\":2593:2644   */\n      mstore\n        /* \"#utility.yul\":2566:2584   */\n      0x24\n      add\n        /* \"lib/openzeppelin-contracts/contracts/access/Ownable.sol\":2672:2703  OwnableInvalidOwner(address(0)) */\n      tag_120\n        /* \"#utility.yul\":2430:2650   */\n      jump\n        /* \"lib/openzeppelin-contracts/contracts/access/Ownable.sol\":2623:2714  if (newOwner == address(0)) {... */\n    tag_170:\n        /* \"lib/openzeppelin-contracts/contracts/access/Ownable.sol\":2723:2751  _transferOwnership(newOwner) */\n      tag_172\n        /* \"lib/openzeppelin-contracts/contracts/access/Ownable.sol\":2742:2750  newOwner */\n      dup2\n        /* \"lib/openzeppelin-contracts/contracts/access/Ownable.sol\":2723:2741  _transferOwnership */\n      tag_91\n        /* \"lib/openzeppelin-contracts/contracts/access/Ownable.sol\":2723:2751  _transferOwnership(newOwner) */\n      jump\t// in\n    tag_172:\n        /* \"lib/openzeppelin-contracts/contracts/access/Ownable.sol\":2543:2758  function transferOwnership(address newOwner) public virtual onlyOwner {... */\n      pop\n      jump\t// out\n        /* \"lib/openzeppelin-contracts/contracts/access/Ownable.sol\":1796:1958  function _checkOwner() internal view virtual {... */\n    tag_88:\n        /* \"lib/openzeppelin-contracts/contracts/access/Ownable.sol\":1684:1691  address */\n      0x00\n        /* \"lib/openzeppelin-contracts/contracts/access/Ownable.sol\":1710:1716  _owner */\n      sload\n      sub(shl(0xa0, 0x01), 0x01)\n      and\n        /* \"lib/openzeppelin-contracts/contracts/utils/Context.sol\":735:745  msg.sender */\n      caller\n        /* \"lib/openzeppelin-contracts/contracts/access/Ownable.sol\":1855:1878  owner() != _msgSender() */\n      eq\n        /* \"lib/openzeppelin-contracts/contracts/access/Ownable.sol\":1851:1952  if (owner() != _msgSender()) {... */\n      tag_90\n      jumpi\n        /* \"lib/openzeppelin-contracts/contracts/access/Ownable.sol\":1901:1941  OwnableUnauthorizedAccount(_msgSender()) */\n      mload(0x40)\n      shl(0xe0, 0x118cdaa7)\n      dup2\n      mstore\n        /* \"lib/openzeppelin-contracts/contracts/utils/Context.sol\":735:745  msg.sender */\n      caller\n        /* \"lib/openzeppelin-contracts/contracts/access/Ownable.sol\":1901:1941  OwnableUnauthorizedAccount(_msgSender()) */\n      0x04\n      dup3\n      add\n        /* \"#utility.yul\":2593:2644   */\n      mstore\n        /* \"#utility.yul\":2566:2584   */\n      0x24\n      add\n        /* \"lib/openzeppelin-contracts/contracts/access/Ownable.sol\":1901:1941  OwnableUnauthorizedAccount(_msgSender()) */\n      tag_120\n        /* \"#utility.yul\":2430:2650   */\n      jump\n        /* \"lib/openzeppelin-contracts/contracts/access/Ownable.sol\":2912:3099  function _transferOwnership(address newOwner) internal virtual {... */\n    tag_91:\n        /* \"lib/openzeppelin-contracts/contracts/access/Ownable.sol\":2985:3001  address oldOwner */\n      0x00\n        /* \"lib/openzeppelin-contracts/contracts/access/Ownable.sol\":3004:3010  _owner */\n      dup1\n      sload\n      sub(shl(0xa0, 0x01), 0x01)\n        /* \"lib/openzeppelin-contracts/contracts/access/Ownable.sol\":3020:3037  _owner = newOwner */\n      dup4\n      dup2\n      and\n      not(sub(shl(0xa0, 0x01), 0x01))\n      dup4\n      and\n      dup2\n      or\n      dup5\n      sstore\n        /* \"lib/openzeppelin-contracts/contracts/access/Ownable.sol\":3052:3092  OwnershipTransferred(oldOwner, newOwner) */\n      mload(0x40)\n        /* \"lib/openzeppelin-contracts/contracts/access/Ownable.sol\":3004:3010  _owner */\n      swap2\n      swap1\n      swap3\n      and\n      swap3\n      dup4\n      swap2\n        /* \"lib/openzeppelin-contracts/contracts/access/Ownable.sol\":3052:3092  OwnershipTransferred(oldOwner, newOwner) */\n      0x8be0079c531659141344cd1fd0a4f28419497f9722a3daafe3b4186f6b6457e0\n      swap2\n        /* \"lib/openzeppelin-contracts/contracts/access/Ownable.sol\":2985:3001  address oldOwner */\n      swap1\n        /* \"lib/openzeppelin-contracts/contracts/access/Ownable.sol\":3052:3092  OwnershipTransferred(oldOwner, newOwner) */\n      log3\n        /* \"lib/openzeppelin-contracts/contracts/access/Ownable.sol\":2975:3099  {... */\n      pop\n        /* \"lib/openzeppelin-contracts/contracts/access/Ownable.sol\":2912:3099  function _transferOwnership(address newOwner) internal virtual {... */\n      pop\n      jump\t// out\n        /* \"src/utils/Asn1Decode.sol\":965:1065  function root(bytes memory der) internal pure returns (uint) {... */\n    tag_94:\n        /* \"src/utils/Asn1Decode.sol\":1020:1024  uint */\n      0x00\n        /* \"src/utils/Asn1Decode.sol\":1038:1060  readNodeLength(der, 0) */\n      tag_162\n        /* \"src/utils/Asn1Decode.sol\":1053:1056  der */\n      dup3\n        /* \"src/utils/Asn1Decode.sol\":1058:1059  0 */\n      0x00\n        /* \"src/utils/Asn1Decode.sol\":1038:1052  readNodeLength */\n      tag_183\n        /* \"src/utils/Asn1Decode.sol\":1038:1060  readNodeLength(der, 0) */\n      jump\t// in\n        /* \"src/utils/Asn1Decode.sol\":2391:2598  function firstChildOf(bytes memory der, uint ptr) internal pure returns (uint) {... */\n    tag_96:\n        /* \"src/utils/Asn1Decode.sol\":2464:2468  uint */\n      0x00\n        /* \"src/utils/Asn1Decode.sol\":2483:2486  der */\n      dup3\n      sub(shl(0x50, 0x01), 0x01)\n        /* \"src/utils/Asn1Decode.sol\":245:264  return uint80(self) */\n      dup4\n      and\n        /* \"src/utils/Asn1Decode.sol\":2483:2497  der[ptr.ixs()] */\n      dup2\n      mload\n      dup2\n      lt\n      tag_187\n      jumpi\n      tag_187\n      tag_102\n      jump\t// in\n    tag_187:\n      add\n      0x20\n      add\n      mload\n      shl(0xfd, 0x01)\n        /* \"src/utils/Asn1Decode.sol\":2483:2504  der[ptr.ixs()] & 0x20 */\n      swap1\n      dup2\n      and\n        /* \"src/utils/Asn1Decode.sol\":2483:2512  der[ptr.ixs()] & 0x20 == 0x20 */\n      eq\n        /* \"src/utils/Asn1Decode.sol\":2475:2551  require(der[ptr.ixs()] & 0x20 == 0x20, \"Asn1decode: Not a constructed type\") */\n      tag_188\n      jumpi\n      mload(0x40)\n      shl(0xe5, 0x461bcd)\n      dup2\n      mstore\n        /* \"#utility.yul\":9814:9816   */\n      0x20\n        /* \"src/utils/Asn1Decode.sol\":2475:2551  require(der[ptr.ixs()] & 0x20 == 0x20, \"Asn1decode: Not a constructed type\") */\n      0x04\n      dup3\n      add\n        /* \"#utility.yul\":9796:9817   */\n      mstore\n        /* \"#utility.yul\":9853:9855   */\n      0x22\n        /* \"#utility.yul\":9833:9851   */\n      0x24\n      dup3\n      add\n        /* \"#utility.yul\":9826:9856   */\n      mstore\n        /* \"#utility.yul\":9892:9926   */\n      0x41736e316465636f64653a204e6f74206120636f6e7374727563746564207479\n        /* \"#utility.yul\":9872:9890   */\n      0x44\n      dup3\n      add\n        /* \"#utility.yul\":9865:9927   */\n      mstore\n      shl(0xf0, 0x7065)\n        /* \"#utility.yul\":9943:9961   */\n      0x64\n      dup3\n      add\n        /* \"#utility.yul\":9936:9968   */\n      mstore\n        /* \"#utility.yul\":9985:10004   */\n      0x84\n      add\n        /* \"src/utils/Asn1Decode.sol\":2475:2551  require(der[ptr.ixs()] & 0x20 == 0x20, \"Asn1decode: Not a constructed type\") */\n      tag_120\n        /* \"#utility.yul\":9612:10010   */\n      jump\n        /* \"src/utils/Asn1Decode.sol\":2475:2551  require(der[ptr.ixs()] & 0x20 == 0x20, \"Asn1decode: Not a constructed type\") */\n    tag_188:\n        /* \"src/utils/Asn1Decode.sol\":2563:2593  readNodeLength(der, ptr.ixf()) */\n      tag_191\n        /* \"src/utils/Asn1Decode.sol\":2578:2581  der */\n      dup4\n        /* \"src/utils/Asn1Decode.sol\":388:390  80 */\n      0x50\n        /* \"src/utils/Asn1Decode.sol\":382:390  self>>80 */\n      dup5\n      swap1\n      shr\n      sub(shl(0x50, 0x01), 0x01)\n        /* \"src/utils/Asn1Decode.sol\":368:391  return uint80(self>>80) */\n      and\n        /* \"src/utils/Asn1Decode.sol\":2563:2577  readNodeLength */\n      tag_183\n        /* \"src/utils/Asn1Decode.sol\":2563:2593  readNodeLength(der, ptr.ixf()) */\n      jump\t// in\n        /* \"src/utils/Asn1Decode.sol\":2583:2592  ptr.ixf() */\n    tag_192:\n        /* \"src/utils/Asn1Decode.sol\":2563:2577  readNodeLength */\n      tag_183\n        /* \"src/utils/Asn1Decode.sol\":2563:2593  readNodeLength(der, ptr.ixf()) */\n      jump\t// in\n    tag_191:\n        /* \"src/utils/Asn1Decode.sol\":2556:2593  return readNodeLength(der, ptr.ixf()) */\n      swap4\n        /* \"src/utils/Asn1Decode.sol\":2391:2598  function firstChildOf(bytes memory der, uint ptr) internal pure returns (uint) {... */\n      swap3\n      pop\n      pop\n      pop\n      jump\t// out\n        /* \"src/utils/Asn1Decode.sol\":2040:2169  function nextSiblingOf(bytes memory der, uint ptr) internal pure returns (uint) {... */\n    tag_105:\n        /* \"src/utils/Asn1Decode.sol\":2114:2118  uint */\n      0x00\n        /* \"src/utils/Asn1Decode.sol\":2132:2164  readNodeLength(der, ptr.ixl()+1) */\n      tag_191\n        /* \"src/utils/Asn1Decode.sol\":2147:2150  der */\n      dup4\n        /* \"src/utils/Asn1Decode.sol\":2152:2163  ptr.ixl()+1 */\n      tag_192\n      sub(shl(0x50, 0x01), 0x01)\n        /* \"src/utils/Asn1Decode.sol\":514:517  160 */\n      0xa0\n        /* \"src/utils/Asn1Decode.sol\":508:517  self>>160 */\n      dup7\n      swap1\n      shr\n        /* \"src/utils/Asn1Decode.sol\":494:518  return uint80(self>>160) */\n      and\n        /* \"src/utils/Asn1Decode.sol\":2162:2163  1 */\n      0x01\n        /* \"src/utils/Asn1Decode.sol\":2152:2163  ptr.ixl()+1 */\n      tag_200\n      jump\t// in\n        /* \"src/utils/Asn1Decode.sol\":3612:3764  function allBytesAt(bytes memory der, uint ptr) internal pure returns (bytes memory) {... */\n    tag_111:\n        /* \"src/utils/Asn1Decode.sol\":3683:3695  bytes memory */\n      0x60\n        /* \"src/utils/Asn1Decode.sol\":3710:3759  der.substring(ptr.ixs(), ptr.ixl()+1 - ptr.ixs()) */\n      tag_191\n      sub(shl(0x50, 0x01), 0x01)\n        /* \"src/utils/Asn1Decode.sol\":245:264  return uint80(self) */\n      dup4\n      and\n      dup1\n        /* \"src/utils/Asn1Decode.sol\":3749:3758  ptr.ixs() */\n    tag_204:\n        /* \"src/utils/Asn1Decode.sol\":3735:3746  ptr.ixl()+1 */\n      tag_206\n      sub(shl(0x50, 0x01), 0x01)\n        /* \"src/utils/Asn1Decode.sol\":514:517  160 */\n      0xa0\n        /* \"src/utils/Asn1Decode.sol\":508:517  self>>160 */\n      dup8\n      swap1\n      shr\n        /* \"src/utils/Asn1Decode.sol\":494:518  return uint80(self>>160) */\n      and\n        /* \"src/utils/Asn1Decode.sol\":3745:3746  1 */\n      0x01\n        /* \"src/utils/Asn1Decode.sol\":3735:3746  ptr.ixl()+1 */\n      tag_200\n      jump\t// in\n    tag_206:\n        /* \"src/utils/Asn1Decode.sol\":3735:3758  ptr.ixl()+1 - ptr.ixs() */\n      tag_207\n      swap2\n      swap1\n      tag_208\n      jump\t// in\n    tag_207:\n        /* \"src/utils/Asn1Decode.sol\":3710:3713  der */\n      dup6\n      swap2\n        /* \"src/utils/Asn1Decode.sol\":3710:3759  der.substring(ptr.ixs(), ptr.ixl()+1 - ptr.ixs()) */\n      swap1\n        /* \"src/utils/Asn1Decode.sol\":3710:3723  der.substring */\n      tag_209\n        /* \"src/utils/Asn1Decode.sol\":3710:3759  der.substring(ptr.ixs(), ptr.ixl()+1 - ptr.ixs()) */\n      jump\t// in\n        /* \"src/utils/Asn1Decode.sol\":3255:3404  function bytesAt(bytes memory der, uint ptr) internal pure returns (bytes memory) {... */\n    tag_113:\n        /* \"src/utils/Asn1Decode.sol\":3323:3335  bytes memory */\n      0x60\n        /* \"src/utils/Asn1Decode.sol\":3350:3399  der.substring(ptr.ixf(), ptr.ixl()+1 - ptr.ixf()) */\n      tag_191\n      sub(shl(0x50, 0x01), 0x01)\n        /* \"src/utils/Asn1Decode.sol\":388:390  80 */\n      0x50\n        /* \"src/utils/Asn1Decode.sol\":382:390  self>>80 */\n      dup5\n      swap1\n      shr\n        /* \"src/utils/Asn1Decode.sol\":368:391  return uint80(self>>80) */\n      and\n      dup1\n        /* \"src/utils/Asn1Decode.sol\":3389:3398  ptr.ixf() */\n      tag_204\n        /* \"src/utils/Asn1Decode.sol\":309:396  function ixf(uint self) internal pure returns (uint) {... */\n      jump\n        /* \"src/AttestationVerifier.sol\":5796:6634  function getBytesAfterSequence(bytes memory data, bytes23 sequence) internal pure returns (bytes memory) {... */\n    tag_164:\n        /* \"src/AttestationVerifier.sol\":5887:5899  bytes memory */\n      0x60\n        /* \"src/AttestationVerifier.sol\":5911:5929  uint256 startIndex */\n      0x00\n        /* \"src/AttestationVerifier.sol\":5958:5973  sequence.length */\n      0x17\n        /* \"src/AttestationVerifier.sol\":5932:5955  indexOf(data, sequence) */\n      tag_218\n        /* \"src/AttestationVerifier.sol\":5940:5944  data */\n      dup6\n        /* \"src/AttestationVerifier.sol\":5946:5954  sequence */\n      dup6\n        /* \"src/AttestationVerifier.sol\":5932:5939  indexOf */\n      tag_219\n        /* \"src/AttestationVerifier.sol\":5932:5955  indexOf(data, sequence) */\n      jump\t// in\n    tag_218:\n        /* \"src/AttestationVerifier.sol\":5932:5973  indexOf(data, sequence) + sequence.length */\n      tag_220\n      swap2\n      swap1\n      tag_200\n      jump\t// in\n    tag_220:\n        /* \"src/AttestationVerifier.sol\":5911:5973  uint256 startIndex = indexOf(data, sequence) + sequence.length */\n      swap1\n      pop\n        /* \"src/AttestationVerifier.sol\":5984:5998  uint256 length */\n      0x00\n        /* \"src/AttestationVerifier.sol\":6015:6025  startIndex */\n      dup2\n        /* \"src/AttestationVerifier.sol\":6001:6005  data */\n      dup6\n        /* \"src/AttestationVerifier.sol\":6001:6012  data.length */\n      mload\n        /* \"src/AttestationVerifier.sol\":6001:6025  data.length - startIndex */\n      tag_221\n      swap2\n      swap1\n      tag_208\n      jump\t// in\n    tag_221:\n        /* \"src/AttestationVerifier.sol\":5984:6025  uint256 length = data.length - startIndex */\n      swap1\n      pop\n        /* \"src/AttestationVerifier.sol\":6035:6052  uint256 newLength */\n      0x00\n        /* \"src/AttestationVerifier.sol\":6067:6086  bytes memory result */\n      dup1\n        /* \"src/AttestationVerifier.sol\":6099:6105  length */\n      dup3\n        /* \"src/AttestationVerifier.sol\":6089:6106  new bytes(length) */\n      0xffffffffffffffff\n      dup2\n      gt\n      iszero\n      tag_223\n      jumpi\n      tag_223\n      tag_224\n      jump\t// in\n    tag_223:\n      mload(0x40)\n      swap1\n      dup1\n      dup3\n      mstore\n      dup1\n      0x1f\n      add\n      not(0x1f)\n      and\n      0x20\n      add\n      dup3\n      add\n      0x40\n      mstore\n      dup1\n      iszero\n      tag_225\n      jumpi\n      0x20\n      dup3\n      add\n      dup2\n      dup1\n      calldatasize\n      dup4\n      calldatacopy\n      add\n      swap1\n      pop\n    tag_225:\n      pop\n        /* \"src/AttestationVerifier.sol\":6067:6106  bytes memory result = new bytes(length) */\n      swap1\n      pop\n        /* \"src/AttestationVerifier.sol\":6122:6131  uint256 i */\n      0x00\n        /* \"src/AttestationVerifier.sol\":6117:6321  for (uint256 i = 0; i < length; i++) {... */\n    tag_226:\n        /* \"src/AttestationVerifier.sol\":6141:6147  length */\n      dup4\n        /* \"src/AttestationVerifier.sol\":6137:6138  i */\n      dup2\n        /* \"src/AttestationVerifier.sol\":6137:6147  i < length */\n      lt\n        /* \"src/AttestationVerifier.sol\":6117:6321  for (uint256 i = 0; i < length; i++) {... */\n      iszero\n      tag_227\n      jumpi\n        /* \"src/AttestationVerifier.sol\":6172:6176  data */\n      dup8\n        /* \"src/AttestationVerifier.sol\":6177:6191  startIndex + i */\n      tag_229\n        /* \"src/AttestationVerifier.sol\":6190:6191  i */\n      dup3\n        /* \"src/AttestationVerifier.sol\":6177:6187  startIndex */\n      dup8\n        /* \"src/AttestationVerifier.sol\":6177:6191  startIndex + i */\n      tag_200\n      jump\t// in\n    tag_229:\n        /* \"src/AttestationVerifier.sol\":6172:6192  data[startIndex + i] */\n      dup2\n      mload\n      dup2\n      lt\n      tag_231\n      jumpi\n      tag_231\n      tag_102\n      jump\t// in\n    tag_231:\n      0x20\n      swap2\n      add\n      add\n      mload\n      not(sub(shl(0xf8, 0x01), 0x01))\n      and\n      shl(0xf9, 0x11)\n        /* \"src/AttestationVerifier.sol\":6168:6240  if (data[startIndex + i] == 0x22) {... */\n      eq\n        /* \"src/AttestationVerifier.sol\":6220:6225  break */\n      tag_227\n        /* \"src/AttestationVerifier.sol\":6168:6240  if (data[startIndex + i] == 0x22) {... */\n      jumpi\n        /* \"src/AttestationVerifier.sol\":6265:6269  data */\n      dup8\n        /* \"src/AttestationVerifier.sol\":6270:6284  startIndex + i */\n      tag_233\n        /* \"src/AttestationVerifier.sol\":6283:6284  i */\n      dup3\n        /* \"src/AttestationVerifier.sol\":6270:6280  startIndex */\n      dup8\n        /* \"src/AttestationVerifier.sol\":6270:6284  startIndex + i */\n      tag_200\n      jump\t// in\n    tag_233:\n        /* \"src/AttestationVerifier.sol\":6265:6285  data[startIndex + i] */\n      dup2\n      mload\n      dup2\n      lt\n      tag_235\n      jumpi\n      tag_235\n      tag_102\n      jump\t// in\n    tag_235:\n      0x20\n      add\n      add\n      mload\n      0xf8\n      shr\n      0xf8\n      shl\n        /* \"src/AttestationVerifier.sol\":6253:6259  result */\n      dup3\n        /* \"src/AttestationVerifier.sol\":6260:6261  i */\n      dup3\n        /* \"src/AttestationVerifier.sol\":6253:6262  result[i] */\n      dup2\n      mload\n      dup2\n      lt\n      tag_237\n      jumpi\n      tag_237\n      tag_102\n      jump\t// in\n    tag_237:\n      0x20\n      add\n      add\n        /* \"src/AttestationVerifier.sol\":6253:6285  result[i] = data[startIndex + i] */\n      swap1\n      not(sub(shl(0xf8, 0x01), 0x01))\n      and\n      swap1\n      dup2\n      0x00\n      byte\n      swap1\n      mstore8\n      pop\n        /* \"src/AttestationVerifier.sol\":6299:6310  newLength++ */\n      dup3\n      tag_238\n      dup2\n      tag_239\n      jump\t// in\n    tag_238:\n      swap4\n      pop\n      pop\n        /* \"src/AttestationVerifier.sol\":6149:6152  i++ */\n      0x01\n      add\n        /* \"src/AttestationVerifier.sol\":6117:6321  for (uint256 i = 0; i < length; i++) {... */\n      jump(tag_226)\n    tag_227:\n      pop\n        /* \"src/AttestationVerifier.sol\":6331:6353  bytes memory newResult */\n      0x00\n        /* \"src/AttestationVerifier.sol\":6366:6375  newLength */\n      dup3\n        /* \"src/AttestationVerifier.sol\":6356:6376  new bytes(newLength) */\n      0xffffffffffffffff\n      dup2\n      gt\n      iszero\n      tag_241\n      jumpi\n      tag_241\n      tag_224\n      jump\t// in\n    tag_241:\n      mload(0x40)\n      swap1\n      dup1\n      dup3\n      mstore\n      dup1\n      0x1f\n      add\n      not(0x1f)\n      and\n      0x20\n      add\n      dup3\n      add\n      0x40\n      mstore\n      dup1\n      iszero\n      tag_242\n      jumpi\n      0x20\n      dup3\n      add\n      dup2\n      dup1\n      calldatasize\n      dup4\n      calldatacopy\n      add\n      swap1\n      pop\n    tag_242:\n      pop\n        /* \"src/AttestationVerifier.sol\":6331:6376  bytes memory newResult = new bytes(newLength) */\n      swap1\n      pop\n        /* \"src/AttestationVerifier.sol\":6391:6400  uint256 i */\n      0x00\n        /* \"src/AttestationVerifier.sol\":6386:6475  for (uint256 i = 0; i < newLength; i++) {... */\n    tag_243:\n        /* \"src/AttestationVerifier.sol\":6410:6419  newLength */\n      dup4\n        /* \"src/AttestationVerifier.sol\":6406:6407  i */\n      dup2\n        /* \"src/AttestationVerifier.sol\":6406:6419  i < newLength */\n      lt\n        /* \"src/AttestationVerifier.sol\":6386:6475  for (uint256 i = 0; i < newLength; i++) {... */\n      iszero\n      tag_244\n      jumpi\n        /* \"src/AttestationVerifier.sol\":6455:6461  result */\n      dup3\n        /* \"src/AttestationVerifier.sol\":6462:6463  i */\n      dup2\n        /* \"src/AttestationVerifier.sol\":6455:6464  result[i] */\n      dup2\n      mload\n      dup2\n      lt\n      tag_247\n      jumpi\n      tag_247\n      tag_102\n      jump\t// in\n    tag_247:\n      0x20\n      add\n      add\n      mload\n      0xf8\n      shr\n      0xf8\n      shl\n        /* \"src/AttestationVerifier.sol\":6440:6449  newResult */\n      dup3\n        /* \"src/AttestationVerifier.sol\":6450:6451  i */\n      dup3\n        /* \"src/AttestationVerifier.sol\":6440:6452  newResult[i] */\n      dup2\n      mload\n      dup2\n      lt\n      tag_249\n      jumpi\n      tag_249\n      tag_102\n      jump\t// in\n    tag_249:\n      0x20\n      add\n      add\n        /* \"src/AttestationVerifier.sol\":6440:6464  newResult[i] = result[i] */\n      swap1\n      not(sub(shl(0xf8, 0x01), 0x01))\n      and\n      swap1\n      dup2\n      0x00\n      byte\n      swap1\n      mstore8\n      pop\n        /* \"src/AttestationVerifier.sol\":6421:6424  i++ */\n      0x01\n      add\n        /* \"src/AttestationVerifier.sol\":6386:6475  for (uint256 i = 0; i < newLength; i++) {... */\n      jump(tag_243)\n    tag_244:\n      pop\n        /* \"src/AttestationVerifier.sol\":6521:6530  newResult */\n      dup1\n        /* \"src/AttestationVerifier.sol\":6485:6511  string memory resultString */\n      0x00\n        /* \"src/AttestationVerifier.sol\":6570:6597  Base64.decode(resultString) */\n      tag_250\n        /* \"src/AttestationVerifier.sol\":6521:6530  newResult */\n      dup3\n        /* \"src/AttestationVerifier.sol\":6570:6583  Base64.decode */\n      tag_251\n        /* \"src/AttestationVerifier.sol\":6570:6597  Base64.decode(resultString) */\n      jump\t// in\n    tag_250:\n        /* \"src/AttestationVerifier.sol\":6541:6597  bytes memory decodedResult = Base64.decode(resultString) */\n      swap11\n        /* \"src/AttestationVerifier.sol\":5796:6634  function getBytesAfterSequence(bytes memory data, bytes23 sequence) internal pure returns (bytes memory) {... */\n      swap10\n      pop\n      pop\n      pop\n      pop\n      pop\n      pop\n      pop\n      pop\n      pop\n      pop\n      jump\t// out\n        /* \"src/utils/BytesUtils.sol\":8293:8652  function readBytesN(... */\n    tag_166:\n        /* \"src/utils/BytesUtils.sol\":8411:8422  bytes32 ret */\n      0x00\n        /* \"src/utils/BytesUtils.sol\":8449:8451  32 */\n      0x20\n        /* \"src/utils/BytesUtils.sol\":8442:8445  len */\n      dup3\n        /* \"src/utils/BytesUtils.sol\":8442:8451  len <= 32 */\n      gt\n      iszero\n        /* \"src/utils/BytesUtils.sol\":8434:8452  require(len <= 32) */\n      tag_253\n      jumpi\n      0x00\n      dup1\n      revert\n    tag_253:\n        /* \"src/utils/BytesUtils.sol\":8483:8494  self.length */\n      dup4\n      mload\n        /* \"src/utils/BytesUtils.sol\":8470:8479  idx + len */\n      tag_254\n        /* \"src/utils/BytesUtils.sol\":8476:8479  len */\n      dup4\n        /* \"src/utils/BytesUtils.sol\":8470:8473  idx */\n      dup6\n        /* \"src/utils/BytesUtils.sol\":8470:8479  idx + len */\n      tag_200\n      jump\t// in\n    tag_254:\n        /* \"src/utils/BytesUtils.sol\":8470:8494  idx + len <= self.length */\n      gt\n      iszero\n        /* \"src/utils/BytesUtils.sol\":8462:8495  require(idx + len <= self.length) */\n      tag_255\n      jumpi\n      0x00\n      dup1\n      revert\n    tag_255:\n      pop\n        /* \"src/utils/BytesUtils.sol\":8561:8563  32 */\n      0x20\n        /* \"src/utils/BytesUtils.sol\":8605:8628  add(add(self, 32), idx) */\n      swap2\n      swap1\n      swap3\n      add\n      dup2\n      add\n        /* \"src/utils/BytesUtils.sol\":8599:8629  mload(add(add(self, 32), idx)) */\n      mload\n        /* \"src/utils/BytesUtils.sol\":8557:8569  sub(32, len) */\n      swap2\n      swap1\n      sub\n        /* \"src/utils/BytesUtils.sol\":8552:8555  256 */\n      0x0100\n        /* \"src/utils/BytesUtils.sol\":8548:8570  exp(256, sub(32, len)) */\n      exp\n      not(0x00)\n        /* \"src/utils/BytesUtils.sol\":8544:8574  sub(exp(256, sub(32, len)), 1) */\n      add\n        /* \"src/utils/BytesUtils.sol\":8540:8575  not(sub(exp(256, sub(32, len)), 1)) */\n      not\n        /* \"src/utils/BytesUtils.sol\":8595:8636  and(mload(add(add(self, 32), idx)), mask) */\n      and\n      swap1\n        /* \"src/utils/BytesUtils.sol\":8293:8652  function readBytesN(... */\n      jump\t// out\n        /* \"src/utils/Asn1Decode.sol\":6190:7040  function readNodeLength(bytes memory der, uint ix) private pure returns (uint) {... */\n    tag_183:\n        /* \"src/utils/Asn1Decode.sol\":6263:6267  uint */\n      0x00\n      dup1\n      dup1\n      dup1\n        /* \"src/utils/Asn1Decode.sol\":6357:6360  der */\n      dup6\n        /* \"src/utils/Asn1Decode.sol\":6361:6365  ix+1 */\n      tag_258\n        /* \"src/utils/Asn1Decode.sol\":6361:6363  ix */\n      dup7\n        /* \"src/utils/Asn1Decode.sol\":6364:6365  1 */\n      0x01\n        /* \"src/utils/Asn1Decode.sol\":6361:6365  ix+1 */\n      tag_200\n      jump\t// in\n    tag_258:\n        /* \"src/utils/Asn1Decode.sol\":6357:6366  der[ix+1] */\n      dup2\n      mload\n      dup2\n      lt\n      tag_260\n      jumpi\n      tag_260\n      tag_102\n      jump\t// in\n    tag_260:\n      add\n      0x20\n      add\n      mload\n      shl(0xff, 0x01)\n        /* \"src/utils/Asn1Decode.sol\":6357:6373  der[ix+1] & 0x80 */\n      and\n        /* \"src/utils/Asn1Decode.sol\":6378:6379  0 */\n      0x00\n        /* \"src/utils/Asn1Decode.sol\":6356:6379  (der[ix+1] & 0x80) == 0 */\n      sub\n        /* \"src/utils/Asn1Decode.sol\":6352:6966  if ((der[ix+1] & 0x80) == 0) {... */\n      tag_261\n      jumpi\n        /* \"src/utils/Asn1Decode.sol\":6402:6405  der */\n      dup6\n        /* \"src/utils/Asn1Decode.sol\":6406:6410  ix+1 */\n      tag_262\n        /* \"src/utils/Asn1Decode.sol\":6406:6408  ix */\n      dup7\n        /* \"src/utils/Asn1Decode.sol\":6409:6410  1 */\n      0x01\n        /* \"src/utils/Asn1Decode.sol\":6406:6410  ix+1 */\n      tag_200\n      jump\t// in\n    tag_262:\n        /* \"src/utils/Asn1Decode.sol\":6402:6411  der[ix+1] */\n      dup2\n      mload\n      dup2\n      lt\n      tag_264\n      jumpi\n      tag_264\n      tag_102\n      jump\t// in\n    tag_264:\n      add\n      0x20\n      add\n      mload\n      0xf8\n      shr\n      swap3\n      pop\n        /* \"src/utils/Asn1Decode.sol\":6446:6450  ix+2 */\n      tag_265\n        /* \"src/utils/Asn1Decode.sol\":6446:6448  ix */\n      dup6\n        /* \"src/utils/Asn1Decode.sol\":6449:6450  2 */\n      0x02\n        /* \"src/utils/Asn1Decode.sol\":6446:6450  ix+2 */\n      tag_200\n      jump\t// in\n    tag_265:\n        /* \"src/utils/Asn1Decode.sol\":6418:6451  ixFirstContentByte = uint80(ix+2) */\n      swap2\n      pop\n        /* \"src/utils/Asn1Decode.sol\":6513:6514  1 */\n      0x01\n        /* \"src/utils/Asn1Decode.sol\":6484:6511  ixFirstContentByte + length */\n      tag_266\n        /* \"src/utils/Asn1Decode.sol\":6505:6511  length */\n      dup5\n      sub(shl(0x50, 0x01), 0x01)\n        /* \"src/utils/Asn1Decode.sol\":6484:6511  ixFirstContentByte + length */\n      dup6\n      and\n      tag_200\n      jump\t// in\n    tag_266:\n        /* \"src/utils/Asn1Decode.sol\":6484:6514  ixFirstContentByte + length -1 */\n      tag_267\n      swap2\n      swap1\n      tag_208\n      jump\t// in\n    tag_267:\n        /* \"src/utils/Asn1Decode.sol\":6457:6515  ixLastContentByte = uint80(ixFirstContentByte + length -1) */\n      swap1\n      pop\n        /* \"src/utils/Asn1Decode.sol\":6352:6966  if ((der[ix+1] & 0x80) == 0) {... */\n      jump(tag_268)\n    tag_261:\n        /* \"src/utils/Asn1Decode.sol\":6536:6559  uint8 lengthbytesLength */\n      0x00\n        /* \"src/utils/Asn1Decode.sol\":6568:6571  der */\n      dup7\n        /* \"src/utils/Asn1Decode.sol\":6572:6576  ix+1 */\n      tag_269\n        /* \"src/utils/Asn1Decode.sol\":6572:6574  ix */\n      dup8\n        /* \"src/utils/Asn1Decode.sol\":6575:6576  1 */\n      0x01\n        /* \"src/utils/Asn1Decode.sol\":6572:6576  ix+1 */\n      tag_200\n      jump\t// in\n    tag_269:\n        /* \"src/utils/Asn1Decode.sol\":6568:6577  der[ix+1] */\n      dup2\n      mload\n      dup2\n      lt\n      tag_271\n      jumpi\n      tag_271\n      tag_102\n      jump\t// in\n    tag_271:\n      0x20\n      swap2\n      add\n      add\n      mload\n      0xf8\n      shr\n        /* \"src/utils/Asn1Decode.sol\":6580:6584  0x7F */\n      0x7f\n        /* \"src/utils/Asn1Decode.sol\":6562:6585  uint8(der[ix+1] & 0x7F) */\n      and\n      swap1\n      pop\n        /* \"src/utils/Asn1Decode.sol\":6618:6619  1 */\n      0x01\n        /* \"src/utils/Asn1Decode.sol\":6597:6619  lengthbytesLength == 1 */\n      dup2\n      swap1\n      sub\n        /* \"src/utils/Asn1Decode.sol\":6593:6838  if (lengthbytesLength == 1)... */\n      tag_272\n      jumpi\n        /* \"src/utils/Asn1Decode.sol\":6638:6657  der.readUint8(ix+2) */\n      tag_273\n        /* \"src/utils/Asn1Decode.sol\":6652:6656  ix+2 */\n      tag_274\n        /* \"src/utils/Asn1Decode.sol\":6652:6654  ix */\n      dup8\n        /* \"src/utils/Asn1Decode.sol\":6655:6656  2 */\n      0x02\n        /* \"src/utils/Asn1Decode.sol\":6652:6656  ix+2 */\n      tag_200\n      jump\t// in\n    tag_274:\n        /* \"src/utils/Asn1Decode.sol\":6638:6641  der */\n      dup9\n      swap1\n        /* \"src/utils/Asn1Decode.sol\":6638:6651  der.readUint8 */\n      tag_275\n        /* \"src/utils/Asn1Decode.sol\":6638:6657  der.readUint8(ix+2) */\n      jump\t// in\n    tag_273:\n        /* \"src/utils/Asn1Decode.sol\":6629:6657  length = der.readUint8(ix+2) */\n      0xff\n      and\n      swap4\n      pop\n        /* \"src/utils/Asn1Decode.sol\":6593:6838  if (lengthbytesLength == 1)... */\n      jump(tag_281)\n    tag_272:\n        /* \"src/utils/Asn1Decode.sol\":6674:6691  lengthbytesLength */\n      dup1\n        /* \"src/utils/Asn1Decode.sol\":6674:6696  lengthbytesLength == 2 */\n      0xff\n      and\n        /* \"src/utils/Asn1Decode.sol\":6695:6696  2 */\n      0x02\n        /* \"src/utils/Asn1Decode.sol\":6674:6696  lengthbytesLength == 2 */\n      sub\n        /* \"src/utils/Asn1Decode.sol\":6670:6838  if (lengthbytesLength == 2)... */\n      tag_277\n      jumpi\n        /* \"src/utils/Asn1Decode.sol\":6715:6735  der.readUint16(ix+2) */\n      tag_278\n        /* \"src/utils/Asn1Decode.sol\":6730:6734  ix+2 */\n      tag_279\n        /* \"src/utils/Asn1Decode.sol\":6730:6732  ix */\n      dup8\n        /* \"src/utils/Asn1Decode.sol\":6733:6734  2 */\n      0x02\n        /* \"src/utils/Asn1Decode.sol\":6730:6734  ix+2 */\n      tag_200\n      jump\t// in\n    tag_279:\n        /* \"src/utils/Asn1Decode.sol\":6715:6718  der */\n      dup9\n      swap1\n        /* \"src/utils/Asn1Decode.sol\":6715:6729  der.readUint16 */\n      tag_280\n        /* \"src/utils/Asn1Decode.sol\":6715:6735  der.readUint16(ix+2) */\n      jump\t// in\n    tag_278:\n        /* \"src/utils/Asn1Decode.sol\":6706:6735  length = der.readUint16(ix+2) */\n      0xffff\n      and\n      swap4\n      pop\n        /* \"src/utils/Asn1Decode.sol\":6670:6838  if (lengthbytesLength == 2)... */\n      jump(tag_281)\n    tag_277:\n        /* \"src/utils/Asn1Decode.sol\":6814:6834  32-lengthbytesLength */\n      tag_282\n        /* \"src/utils/Asn1Decode.sol\":6817:6834  lengthbytesLength */\n      dup2\n        /* \"src/utils/Asn1Decode.sol\":6814:6816  32 */\n      0x20\n        /* \"src/utils/Asn1Decode.sol\":6814:6834  32-lengthbytesLength */\n      tag_283\n      jump\t// in\n    tag_282:\n        /* \"src/utils/Asn1Decode.sol\":6813:6837  (32-lengthbytesLength)*8 */\n      tag_284\n      swap1\n        /* \"src/utils/Asn1Decode.sol\":6836:6837  8 */\n      0x08\n        /* \"src/utils/Asn1Decode.sol\":6813:6837  (32-lengthbytesLength)*8 */\n      tag_285\n      jump\t// in\n    tag_284:\n        /* \"src/utils/Asn1Decode.sol\":6770:6837  der.readBytesN(ix+2, lengthbytesLength) >> (32-lengthbytesLength)*8 */\n      0xff\n      and\n        /* \"src/utils/Asn1Decode.sol\":6770:6809  der.readBytesN(ix+2, lengthbytesLength) */\n      tag_286\n        /* \"src/utils/Asn1Decode.sol\":6785:6789  ix+2 */\n      tag_287\n        /* \"src/utils/Asn1Decode.sol\":6785:6787  ix */\n      dup9\n        /* \"src/utils/Asn1Decode.sol\":6788:6789  2 */\n      0x02\n        /* \"src/utils/Asn1Decode.sol\":6785:6789  ix+2 */\n      tag_200\n      jump\t// in\n    tag_287:\n        /* \"src/utils/Asn1Decode.sol\":6770:6773  der */\n      dup10\n      swap1\n        /* \"src/utils/Asn1Decode.sol\":6770:6809  der.readBytesN(ix+2, lengthbytesLength) */\n      0xff\n      dup6\n      and\n        /* \"src/utils/Asn1Decode.sol\":6770:6784  der.readBytesN */\n      tag_166\n        /* \"src/utils/Asn1Decode.sol\":6770:6809  der.readBytesN(ix+2, lengthbytesLength) */\n      jump\t// in\n    tag_286:\n        /* \"src/utils/Asn1Decode.sol\":6770:6837  der.readBytesN(ix+2, lengthbytesLength) >> (32-lengthbytesLength)*8 */\n      swap1\n      shr\n      swap4\n      pop\n        /* \"src/utils/Asn1Decode.sol\":6670:6838  if (lengthbytesLength == 2)... */\n    tag_281:\n        /* \"src/utils/Asn1Decode.sol\":6872:6894  ix+2+lengthbytesLength */\n      0xff\n      dup2\n      and\n        /* \"src/utils/Asn1Decode.sol\":6872:6876  ix+2 */\n      tag_288\n        /* \"src/utils/Asn1Decode.sol\":6872:6874  ix */\n      dup8\n        /* \"src/utils/Asn1Decode.sol\":6875:6876  2 */\n      0x02\n        /* \"src/utils/Asn1Decode.sol\":6872:6876  ix+2 */\n      tag_200\n      jump\t// in\n    tag_288:\n        /* \"src/utils/Asn1Decode.sol\":6872:6894  ix+2+lengthbytesLength */\n      tag_289\n      swap2\n      swap1\n      tag_200\n      jump\t// in\n    tag_289:\n        /* \"src/utils/Asn1Decode.sol\":6844:6895  ixFirstContentByte = uint80(ix+2+lengthbytesLength) */\n      swap3\n      pop\n        /* \"src/utils/Asn1Decode.sol\":6957:6958  1 */\n      0x01\n        /* \"src/utils/Asn1Decode.sol\":6928:6955  ixFirstContentByte + length */\n      tag_290\n        /* \"src/utils/Asn1Decode.sol\":6949:6955  length */\n      dup6\n      sub(shl(0x50, 0x01), 0x01)\n        /* \"src/utils/Asn1Decode.sol\":6928:6955  ixFirstContentByte + length */\n      dup7\n      and\n      tag_200\n      jump\t// in\n    tag_290:\n        /* \"src/utils/Asn1Decode.sol\":6928:6958  ixFirstContentByte + length -1 */\n      tag_291\n      swap2\n      swap1\n      tag_208\n      jump\t// in\n    tag_291:\n        /* \"src/utils/Asn1Decode.sol\":6901:6959  ixLastContentByte = uint80(ixFirstContentByte + length -1) */\n      swap2\n      pop\n        /* \"src/utils/Asn1Decode.sol\":6528:6966  {... */\n      pop\n        /* \"src/utils/Asn1Decode.sol\":6352:6966  if ((der[ix+1] & 0x80) == 0) {... */\n    tag_268:\n      shl(0xa0, 0xffffffffffffffffffff)\n        /* \"src/utils/Asn1Decode.sol\":681:684  160 */\n      0xa0\n        /* \"src/utils/Asn1Decode.sol\":675:684  _ixl<<160 */\n      dup3\n      swap1\n      shl\n      and\n      shl(0x50, 0xffffffffffffffffffff)\n        /* \"src/utils/Asn1Decode.sol\":659:661  80 */\n      0x50\n        /* \"src/utils/Asn1Decode.sol\":653:661  _ixf<<80 */\n      dup5\n      swap1\n      shl\n      and\n        /* \"src/utils/Asn1Decode.sol\":645:661  _ixs |= _ixf<<80 */\n      dup7\n      or\n        /* \"src/utils/Asn1Decode.sol\":667:684  _ixs |= _ixl<<160 */\n      or\n        /* \"src/utils/Asn1Decode.sol\":6978:7035  NodePtr.getPtr(ix, ixFirstContentByte, ixLastContentByte) */\n      tag_71\n        /* \"src/utils/Asn1Decode.sol\":561:706  function getPtr(uint _ixs, uint _ixf, uint _ixl) internal pure returns (uint) {... */\n      jump\n        /* \"src/utils/BytesUtils.sol\":9528:9964  function substring(... */\n    tag_209:\n        /* \"src/utils/BytesUtils.sol\":9696:9707  self.length */\n      dup3\n      mload\n        /* \"src/utils/BytesUtils.sol\":9648:9660  bytes memory */\n      0x60\n      swap1\n        /* \"src/utils/BytesUtils.sol\":9680:9692  offset + len */\n      tag_297\n        /* \"src/utils/BytesUtils.sol\":9689:9692  len */\n      dup4\n        /* \"src/utils/BytesUtils.sol\":9680:9686  offset */\n      dup6\n        /* \"src/utils/BytesUtils.sol\":9680:9692  offset + len */\n      tag_200\n      jump\t// in\n    tag_297:\n        /* \"src/utils/BytesUtils.sol\":9680:9707  offset + len <= self.length */\n      gt\n      iszero\n        /* \"src/utils/BytesUtils.sol\":9672:9708  require(offset + len <= self.length) */\n      tag_298\n      jumpi\n      0x00\n      dup1\n      revert\n    tag_298:\n        /* \"src/utils/BytesUtils.sol\":9719:9735  bytes memory ret */\n      0x00\n        /* \"src/utils/BytesUtils.sol\":9748:9751  len */\n      dup3\n        /* \"src/utils/BytesUtils.sol\":9738:9752  new bytes(len) */\n      0xffffffffffffffff\n      dup2\n      gt\n      iszero\n      tag_300\n      jumpi\n      tag_300\n      tag_224\n      jump\t// in\n    tag_300:\n      mload(0x40)\n      swap1\n      dup1\n      dup3\n      mstore\n      dup1\n      0x1f\n      add\n      not(0x1f)\n      and\n      0x20\n      add\n      dup3\n      add\n      0x40\n      mstore\n      dup1\n      iszero\n      tag_301\n      jumpi\n      0x20\n      dup3\n      add\n      dup2\n      dup1\n      calldatasize\n      dup4\n      calldatacopy\n      add\n      swap1\n      pop\n    tag_301:\n      pop\n        /* \"src/utils/BytesUtils.sol\":9719:9752  bytes memory ret = new bytes(len) */\n      swap1\n      pop\n        /* \"src/utils/BytesUtils.sol\":9846:9848  32 */\n      0x20\n        /* \"src/utils/BytesUtils.sol\":9837:9849  add(ret, 32) */\n      dup1\n      dup3\n      add\n      swap1\n        /* \"src/utils/BytesUtils.sol\":9869:9895  add(add(self, 32), offset) */\n      dup7\n      dup7\n      add\n      add\n        /* \"src/utils/BytesUtils.sol\":9914:9936  memcpy(dest, src, len) */\n      tag_302\n        /* \"src/utils/BytesUtils.sol\":9837:9849  add(ret, 32) */\n      dup3\n        /* \"src/utils/BytesUtils.sol\":9869:9895  add(add(self, 32), offset) */\n      dup3\n        /* \"src/utils/BytesUtils.sol\":9932:9935  len */\n      dup8\n        /* \"src/utils/BytesUtils.sol\":9914:9920  memcpy */\n      tag_303\n        /* \"src/utils/BytesUtils.sol\":9914:9936  memcpy(dest, src, len) */\n      jump\t// in\n    tag_302:\n      pop\n        /* \"src/utils/BytesUtils.sol\":9954:9957  ret */\n      swap1\n      swap6\n        /* \"src/utils/BytesUtils.sol\":9528:9964  function substring(... */\n      swap5\n      pop\n      pop\n      pop\n      pop\n      pop\n      jump\t// out\n        /* \"src/AttestationVerifier.sol\":6640:7414  function indexOf(bytes memory haystack, bytes23 needle) internal pure returns (uint256) {... */\n    tag_219:\n        /* \"src/AttestationVerifier.sol\":6817:6832  haystack.length */\n      dup2\n      mload\n        /* \"src/AttestationVerifier.sol\":6719:6726  uint256 */\n      0x00\n      swap1\n        /* \"src/AttestationVerifier.sol\":6765:6778  needle.length */\n      0x17\n      swap1\n        /* \"src/AttestationVerifier.sol\":6851:6880  needleLength > haystackLength */\n      dup1\n      dup3\n      gt\n        /* \"src/AttestationVerifier.sol\":6847:6939  if (needleLength > haystackLength) {... */\n      iszero\n      tag_305\n      jumpi\n      not(0x00)\n        /* \"src/AttestationVerifier.sol\":6900:6924  return type(uint256).max */\n      swap3\n      pop\n      pop\n      pop\n      jump(tag_162)\n        /* \"src/AttestationVerifier.sol\":6847:6939  if (needleLength > haystackLength) {... */\n    tag_305:\n        /* \"src/AttestationVerifier.sol\":6958:6967  uint256 i */\n      0x00\n        /* \"src/AttestationVerifier.sol\":6953:7369  for (uint256 i = 0; i <= haystackLength - needleLength; i++) {... */\n    tag_306:\n        /* \"src/AttestationVerifier.sol\":6978:7007  haystackLength - needleLength */\n      tag_309\n        /* \"src/AttestationVerifier.sol\":6995:7007  needleLength */\n      dup4\n        /* \"src/AttestationVerifier.sol\":6978:6992  haystackLength */\n      dup4\n        /* \"src/AttestationVerifier.sol\":6978:7007  haystackLength - needleLength */\n      tag_208\n      jump\t// in\n    tag_309:\n        /* \"src/AttestationVerifier.sol\":6973:6974  i */\n      dup2\n        /* \"src/AttestationVerifier.sol\":6973:7007  i <= haystackLength - needleLength */\n      gt\n        /* \"src/AttestationVerifier.sol\":6953:7369  for (uint256 i = 0; i <= haystackLength - needleLength; i++) {... */\n      tag_307\n      jumpi\n        /* \"src/AttestationVerifier.sol\":7045:7049  true */\n      0x01\n        /* \"src/AttestationVerifier.sol\":7032:7042  bool found */\n      0x00\n        /* \"src/AttestationVerifier.sol\":7067:7277  for (uint256 j = 0; j < needleLength; j++) {... */\n    tag_310:\n        /* \"src/AttestationVerifier.sol\":7091:7103  needleLength */\n      dup5\n        /* \"src/AttestationVerifier.sol\":7087:7088  j */\n      dup2\n        /* \"src/AttestationVerifier.sol\":7087:7103  j < needleLength */\n      lt\n        /* \"src/AttestationVerifier.sol\":7067:7277  for (uint256 j = 0; j < needleLength; j++) {... */\n      iszero\n      tag_311\n      jumpi\n        /* \"src/AttestationVerifier.sol\":7155:7161  needle */\n      dup7\n        /* \"src/AttestationVerifier.sol\":7162:7163  j */\n      dup2\n        /* \"src/AttestationVerifier.sol\":7155:7164  needle[j] */\n      0x17\n      dup2\n      lt\n      tag_314\n      jumpi\n      tag_314\n      tag_102\n      jump\t// in\n    tag_314:\n      byte\n      0xf8\n      shl\n      not(sub(shl(0xf8, 0x01), 0x01))\n        /* \"src/AttestationVerifier.sol\":7136:7164  haystack[i + j] != needle[j] */\n      and\n        /* \"src/AttestationVerifier.sol\":7136:7144  haystack */\n      dup9\n        /* \"src/AttestationVerifier.sol\":7145:7150  i + j */\n      tag_315\n        /* \"src/AttestationVerifier.sol\":7149:7150  j */\n      dup4\n        /* \"src/AttestationVerifier.sol\":7145:7146  i */\n      dup7\n        /* \"src/AttestationVerifier.sol\":7145:7150  i + j */\n      tag_200\n      jump\t// in\n    tag_315:\n        /* \"src/AttestationVerifier.sol\":7136:7151  haystack[i + j] */\n      dup2\n      mload\n      dup2\n      lt\n      tag_317\n      jumpi\n      tag_317\n      tag_102\n      jump\t// in\n    tag_317:\n      add\n      0x20\n      add\n      mload\n      not(sub(shl(0xf8, 0x01), 0x01))\n      and\n        /* \"src/AttestationVerifier.sol\":7136:7164  haystack[i + j] != needle[j] */\n      eq\n        /* \"src/AttestationVerifier.sol\":7132:7259  if (haystack[i + j] != needle[j]) {... */\n      tag_318\n      jumpi\n        /* \"src/AttestationVerifier.sol\":7200:7205  false */\n      0x00\n        /* \"src/AttestationVerifier.sol\":7192:7205  found = false */\n      swap2\n      pop\n        /* \"src/AttestationVerifier.sol\":7231:7236  break */\n      jump(tag_311)\n        /* \"src/AttestationVerifier.sol\":7132:7259  if (haystack[i + j] != needle[j]) {... */\n    tag_318:\n        /* \"src/AttestationVerifier.sol\":7105:7108  j++ */\n      0x01\n      add\n        /* \"src/AttestationVerifier.sol\":7067:7277  for (uint256 j = 0; j < needleLength; j++) {... */\n      jump(tag_310)\n    tag_311:\n      pop\n        /* \"src/AttestationVerifier.sol\":7299:7304  found */\n      dup1\n        /* \"src/AttestationVerifier.sol\":7295:7355  if (found) {... */\n      iszero\n      tag_319\n      jumpi\n      pop\n        /* \"src/AttestationVerifier.sol\":7335:7336  i */\n      swap3\n      pop\n        /* \"src/AttestationVerifier.sol\":7328:7336  return i */\n      tag_162\n      swap2\n      pop\n      pop\n      jump\n        /* \"src/AttestationVerifier.sol\":7295:7355  if (found) {... */\n    tag_319:\n      pop\n        /* \"src/AttestationVerifier.sol\":7009:7012  i++ */\n      dup1\n      tag_320\n      dup2\n      tag_239\n      jump\t// in\n    tag_320:\n      swap2\n      pop\n      pop\n        /* \"src/AttestationVerifier.sol\":6953:7369  for (uint256 i = 0; i <= haystackLength - needleLength; i++) {... */\n      jump(tag_306)\n    tag_307:\n      pop\n      not(0x00)\n        /* \"src/AttestationVerifier.sol\":7390:7407  type(uint256).max */\n      swap6\n        /* \"src/AttestationVerifier.sol\":6640:7414  function indexOf(bytes memory haystack, bytes23 needle) internal pure returns (uint256) {... */\n      swap5\n      pop\n      pop\n      pop\n      pop\n      pop\n      jump\t// out\n        /* \"src/utils/Base64.sol\":2643:4821  function decode(string memory _data) internal pure returns (bytes memory) {... */\n    tag_251:\n        /* \"src/utils/Base64.sol\":2774:2785  data.length */\n      dup1\n      mload\n        /* \"src/utils/Base64.sol\":2703:2715  bytes memory */\n      0x60\n      swap1\n        /* \"src/utils/Base64.sol\":2753:2758  _data */\n      dup3\n      swap1\n        /* \"src/utils/Base64.sol\":2727:2744  bytes memory data */\n      0x00\n        /* \"src/utils/Base64.sol\":2774:2790  data.length == 0 */\n      sub\n        /* \"src/utils/Base64.sol\":2770:2811  if (data.length == 0) return new bytes(0) */\n      tag_322\n      jumpi\n      pop\n      pop\n        /* \"src/utils/Base64.sol\":2799:2811  new bytes(0) */\n      0x40\n      dup1\n      mload\n        /* \"src/utils/Base64.sol\":2809:2810  0 */\n      0x00\n        /* \"src/utils/Base64.sol\":2799:2811  new bytes(0) */\n      dup2\n      mstore\n      0x20\n      dup2\n      add\n      swap1\n      swap2\n      mstore\n      swap2\n        /* \"src/utils/Base64.sol\":2792:2811  return new bytes(0) */\n      swap1\n      pop\n        /* \"src/utils/Base64.sol\":2643:4821  function decode(string memory _data) internal pure returns (bytes memory) {... */\n      jump\t// out\n        /* \"src/utils/Base64.sol\":2770:2811  if (data.length == 0) return new bytes(0) */\n    tag_322:\n        /* \"src/utils/Base64.sol\":2843:2844  4 */\n      0x04\n        /* \"src/utils/Base64.sol\":2829:2833  data */\n      dup2\n        /* \"src/utils/Base64.sol\":2829:2840  data.length */\n      mload\n        /* \"src/utils/Base64.sol\":2829:2844  data.length % 4 */\n      tag_326\n      swap2\n      swap1\n      tag_327\n      jump\t// in\n    tag_326:\n        /* \"src/utils/Base64.sol\":2829:2849  data.length % 4 == 0 */\n      iszero\n        /* \"src/utils/Base64.sol\":2821:2882  require(data.length % 4 == 0, \"invalid base64 decoder input\") */\n      tag_328\n      jumpi\n      mload(0x40)\n      shl(0xe5, 0x461bcd)\n      dup2\n      mstore\n        /* \"#utility.yul\":11387:11389   */\n      0x20\n        /* \"src/utils/Base64.sol\":2821:2882  require(data.length % 4 == 0, \"invalid base64 decoder input\") */\n      0x04\n      dup3\n      add\n        /* \"#utility.yul\":11369:11390   */\n      mstore\n        /* \"#utility.yul\":11426:11428   */\n      0x1c\n        /* \"#utility.yul\":11406:11424   */\n      0x24\n      dup3\n      add\n        /* \"#utility.yul\":11399:11429   */\n      mstore\n        /* \"#utility.yul\":11465:11495   */\n      0x696e76616c696420626173653634206465636f64657220696e70757400000000\n        /* \"#utility.yul\":11445:11463   */\n      0x44\n      dup3\n      add\n        /* \"#utility.yul\":11438:11496   */\n      mstore\n        /* \"#utility.yul\":11513:11531   */\n      0x64\n      add\n        /* \"src/utils/Base64.sol\":2821:2882  require(data.length % 4 == 0, \"invalid base64 decoder input\") */\n      tag_120\n        /* \"#utility.yul\":11185:11537   */\n      jump\n        /* \"src/utils/Base64.sol\":2821:2882  require(data.length % 4 == 0, \"invalid base64 decoder input\") */\n    tag_328:\n        /* \"src/utils/Base64.sol\":2931:2949  bytes memory table */\n      0x00\n        /* \"src/utils/Base64.sol\":2952:2964  TABLE_DECODE */\n      mload(0x40)\n      dup1\n      0xa0\n      add\n      0x40\n      mstore\n      dup1\n      0x80\n      dup2\n      mstore\n      0x20\n      add\n      data_cbed483d4f9f83dd52b06773fd58dd8723113252a85374752ef109e22dfa50f9\n      0x80\n      swap2\n      codecopy\n        /* \"src/utils/Base64.sol\":2931:2964  bytes memory table = TABLE_DECODE */\n      swap1\n      pop\n        /* \"src/utils/Base64.sol\":3023:3041  uint256 decodedLen */\n      0x00\n        /* \"src/utils/Base64.sol\":3059:3060  4 */\n      0x04\n        /* \"src/utils/Base64.sol\":3045:3049  data */\n      dup4\n        /* \"src/utils/Base64.sol\":3045:3056  data.length */\n      mload\n        /* \"src/utils/Base64.sol\":3045:3060  data.length / 4 */\n      tag_331\n      swap2\n      swap1\n      tag_332\n      jump\t// in\n    tag_331:\n        /* \"src/utils/Base64.sol\":3044:3065  (data.length / 4) * 3 */\n      tag_333\n      swap1\n        /* \"src/utils/Base64.sol\":3064:3065  3 */\n      0x03\n        /* \"src/utils/Base64.sol\":3044:3065  (data.length / 4) * 3 */\n      tag_334\n      jump\t// in\n    tag_333:\n        /* \"src/utils/Base64.sol\":3023:3065  uint256 decodedLen = (data.length / 4) * 3 */\n      swap1\n      pop\n        /* \"src/utils/Base64.sol\":3145:3164  bytes memory result */\n      0x00\n        /* \"src/utils/Base64.sol\":3177:3192  decodedLen + 32 */\n      tag_335\n        /* \"src/utils/Base64.sol\":3023:3065  uint256 decodedLen = (data.length / 4) * 3 */\n      dup3\n        /* \"src/utils/Base64.sol\":3190:3192  32 */\n      0x20\n        /* \"src/utils/Base64.sol\":3177:3192  decodedLen + 32 */\n      tag_200\n      jump\t// in\n    tag_335:\n        /* \"src/utils/Base64.sol\":3167:3193  new bytes(decodedLen + 32) */\n      0xffffffffffffffff\n      dup2\n      gt\n      iszero\n      tag_337\n      jumpi\n      tag_337\n      tag_224\n      jump\t// in\n    tag_337:\n      mload(0x40)\n      swap1\n      dup1\n      dup3\n      mstore\n      dup1\n      0x1f\n      add\n      not(0x1f)\n      and\n      0x20\n      add\n      dup3\n      add\n      0x40\n      mstore\n      dup1\n      iszero\n      tag_338\n      jumpi\n      0x20\n      dup3\n      add\n      dup2\n      dup1\n      calldatasize\n      dup4\n      calldatacopy\n      add\n      swap1\n      pop\n    tag_338:\n      pop\n        /* \"src/utils/Base64.sol\":3145:3193  bytes memory result = new bytes(decodedLen + 32) */\n      swap1\n      pop\n        /* \"src/utils/Base64.sol\":3298:3302  data */\n      dup4\n        /* \"src/utils/Base64.sol\":3292:3303  mload(data) */\n      mload\n        /* \"src/utils/Base64.sol\":3286:3290  data */\n      dup5\n        /* \"src/utils/Base64.sol\":3282:3304  add(data, mload(data)) */\n      add\n        /* \"src/utils/Base64.sol\":3276:3305  mload(add(data, mload(data))) */\n      mload\n        /* \"src/utils/Base64.sol\":3346:3350  0x3d */\n      0x3d\n        /* \"src/utils/Base64.sol\":3339:3343  0xFF */\n      0xff\n        /* \"src/utils/Base64.sol\":3328:3337  lastBytes */\n      dup3\n        /* \"src/utils/Base64.sol\":3324:3344  and(lastBytes, 0xFF) */\n      and\n        /* \"src/utils/Base64.sol\":3321:3351  eq(and(lastBytes, 0xFF), 0x3d) */\n      sub\n        /* \"src/utils/Base64.sol\":3318:3543  if eq(and(lastBytes, 0xFF), 0x3d) {... */\n      tag_340\n      jumpi\n        /* \"src/utils/Base64.sol\":3400:3401  1 */\n      0x01\n        /* \"src/utils/Base64.sol\":3388:3398  decodedLen */\n      dup4\n        /* \"src/utils/Base64.sol\":3384:3402  sub(decodedLen, 1) */\n      sub\n        /* \"src/utils/Base64.sol\":3370:3402  decodedLen := sub(decodedLen, 1) */\n      swap3\n      pop\n        /* \"src/utils/Base64.sol\":3449:3455  0x3d3d */\n      0x3d3d\n        /* \"src/utils/Base64.sol\":3440:3446  0xFFFF */\n      0xffff\n        /* \"src/utils/Base64.sol\":3429:3438  lastBytes */\n      dup3\n        /* \"src/utils/Base64.sol\":3425:3447  and(lastBytes, 0xFFFF) */\n      and\n        /* \"src/utils/Base64.sol\":3422:3456  eq(and(lastBytes, 0xFFFF), 0x3d3d) */\n      sub\n        /* \"src/utils/Base64.sol\":3419:3529  if eq(and(lastBytes, 0xFFFF), 0x3d3d) {... */\n      tag_340\n      jumpi\n        /* \"src/utils/Base64.sol\":3509:3510  1 */\n      0x01\n        /* \"src/utils/Base64.sol\":3497:3507  decodedLen */\n      dup4\n        /* \"src/utils/Base64.sol\":3493:3511  sub(decodedLen, 1) */\n      sub\n        /* \"src/utils/Base64.sol\":3479:3511  decodedLen := sub(decodedLen, 1) */\n      swap3\n      pop\n        /* \"src/utils/Base64.sol\":3419:3529  if eq(and(lastBytes, 0xFFFF), 0x3d3d) {... */\n    tag_340:\n        /* \"src/utils/Base64.sol\":3318:3543  if eq(and(lastBytes, 0xFF), 0x3d) {... */\n      pop\n        /* \"src/utils/Base64.sol\":3616:3626  decodedLen */\n      dup2\n        /* \"src/utils/Base64.sol\":3608:3614  result */\n      dup2\n        /* \"src/utils/Base64.sol\":3601:3627  mstore(result, decodedLen) */\n      mstore\n        /* \"src/utils/Base64.sol\":3708:3709  1 */\n      0x01\n        /* \"src/utils/Base64.sol\":3701:3706  table */\n      dup4\n        /* \"src/utils/Base64.sol\":3697:3710  add(table, 1) */\n      add\n        /* \"src/utils/Base64.sol\":3764:3768  data */\n      dup5\n        /* \"src/utils/Base64.sol\":3814:3818  data */\n      dup6\n        /* \"src/utils/Base64.sol\":3808:3819  mload(data) */\n      mload\n        /* \"src/utils/Base64.sol\":3799:3806  dataPtr */\n      dup2\n        /* \"src/utils/Base64.sol\":3795:3820  add(dataPtr, mload(data)) */\n      add\n        /* \"src/utils/Base64.sol\":3907:3909  32 */\n      0x20\n        /* \"src/utils/Base64.sol\":3899:3905  result */\n      dup5\n        /* \"src/utils/Base64.sol\":3895:3910  add(result, 32) */\n      add\n        /* \"src/utils/Base64.sol\":3982:4781  for {} lt(dataPtr, endPtr) {}... */\n    tag_341:\n        /* \"src/utils/Base64.sol\":4001:4007  endPtr */\n      dup2\n        /* \"src/utils/Base64.sol\":3992:3999  dataPtr */\n      dup4\n        /* \"src/utils/Base64.sol\":3989:4008  lt(dataPtr, endPtr) */\n      lt\n        /* \"src/utils/Base64.sol\":3982:4781  for {} lt(dataPtr, endPtr) {}... */\n      iszero\n      tag_343\n      jumpi\n        /* \"src/utils/Base64.sol\":4101:4102  4 */\n      0x04\n        /* \"src/utils/Base64.sol\":4092:4099  dataPtr */\n      dup4\n        /* \"src/utils/Base64.sol\":4088:4103  add(dataPtr, 4) */\n      add\n        /* \"src/utils/Base64.sol\":4077:4103  dataPtr := add(dataPtr, 4) */\n      swap3\n      pop\n        /* \"src/utils/Base64.sol\":4138:4145  dataPtr */\n      dup3\n        /* \"src/utils/Base64.sol\":4132:4146  mload(dataPtr) */\n      mload\n        /* \"src/utils/Base64.sol\":4623:4627  0xFF */\n      0xff\n        /* \"src/utils/Base64.sol\":4614:4618  0xFF */\n      dup1\n        /* \"src/utils/Base64.sol\":4606:4611  input */\n      dup3\n        /* \"src/utils/Base64.sol\":4594:4619  and(        input , 0xFF) */\n      and\n        /* \"src/utils/Base64.sol\":4584:4592  tablePtr */\n      dup7\n        /* \"src/utils/Base64.sol\":4580:4620  add(tablePtr, and(        input , 0xFF)) */\n      add\n        /* \"src/utils/Base64.sol\":4574:4621  mload(add(tablePtr, and(        input , 0xFF))) */\n      mload\n        /* \"src/utils/Base64.sol\":4570:4628  and(mload(add(tablePtr, and(        input , 0xFF))), 0xFF) */\n      and\n        /* \"src/utils/Base64.sol\":4531:4535  0xFF */\n      0xff\n        /* \"src/utils/Base64.sol\":4522:4526  0xFF */\n      dup1\n        /* \"src/utils/Base64.sol\":4514:4519  input */\n      dup4\n        /* \"src/utils/Base64.sol\":4511:4512  8 */\n      0x08\n        /* \"src/utils/Base64.sol\":4506:4520  shr( 8, input) */\n      shr\n        /* \"src/utils/Base64.sol\":4502:4527  and(shr( 8, input), 0xFF) */\n      and\n        /* \"src/utils/Base64.sol\":4492:4500  tablePtr */\n      dup8\n        /* \"src/utils/Base64.sol\":4488:4528  add(tablePtr, and(shr( 8, input), 0xFF)) */\n      add\n        /* \"src/utils/Base64.sol\":4482:4529  mload(add(tablePtr, and(shr( 8, input), 0xFF))) */\n      mload\n        /* \"src/utils/Base64.sol\":4478:4536  and(mload(add(tablePtr, and(shr( 8, input), 0xFF))), 0xFF) */\n      and\n        /* \"src/utils/Base64.sol\":4475:4476  6 */\n      0x06\n        /* \"src/utils/Base64.sol\":4470:4537  shl( 6, and(mload(add(tablePtr, and(shr( 8, input), 0xFF))), 0xFF)) */\n      shl\n        /* \"src/utils/Base64.sol\":4442:4650  add(... */\n      add\n        /* \"src/utils/Base64.sol\":4414:4418  0xFF */\n      0xff\n        /* \"src/utils/Base64.sol\":4405:4409  0xFF */\n      dup1\n        /* \"src/utils/Base64.sol\":4397:4402  input */\n      dup4\n        /* \"src/utils/Base64.sol\":4393:4395  16 */\n      0x10\n        /* \"src/utils/Base64.sol\":4389:4403  shr(16, input) */\n      shr\n        /* \"src/utils/Base64.sol\":4385:4410  and(shr(16, input), 0xFF) */\n      and\n        /* \"src/utils/Base64.sol\":4375:4383  tablePtr */\n      dup8\n        /* \"src/utils/Base64.sol\":4371:4411  add(tablePtr, and(shr(16, input), 0xFF)) */\n      add\n        /* \"src/utils/Base64.sol\":4365:4412  mload(add(tablePtr, and(shr(16, input), 0xFF))) */\n      mload\n        /* \"src/utils/Base64.sol\":4361:4419  and(mload(add(tablePtr, and(shr(16, input), 0xFF))), 0xFF) */\n      and\n        /* \"src/utils/Base64.sol\":4357:4359  12 */\n      0x0c\n        /* \"src/utils/Base64.sol\":4353:4420  shl(12, and(mload(add(tablePtr, and(shr(16, input), 0xFF))), 0xFF)) */\n      shl\n        /* \"src/utils/Base64.sol\":4322:4326  0xFF */\n      0xff\n        /* \"src/utils/Base64.sol\":4313:4317  0xFF */\n      dup1\n        /* \"src/utils/Base64.sol\":4305:4310  input */\n      dup5\n        /* \"src/utils/Base64.sol\":4301:4303  24 */\n      0x18\n        /* \"src/utils/Base64.sol\":4297:4311  shr(24, input) */\n      shr\n        /* \"src/utils/Base64.sol\":4293:4318  and(shr(24, input), 0xFF) */\n      and\n        /* \"src/utils/Base64.sol\":4283:4291  tablePtr */\n      dup9\n        /* \"src/utils/Base64.sol\":4279:4319  add(tablePtr, and(shr(24, input), 0xFF)) */\n      add\n        /* \"src/utils/Base64.sol\":4273:4320  mload(add(tablePtr, and(shr(24, input), 0xFF))) */\n      mload\n        /* \"src/utils/Base64.sol\":4269:4327  and(mload(add(tablePtr, and(shr(24, input), 0xFF))), 0xFF) */\n      and\n        /* \"src/utils/Base64.sol\":4265:4267  18 */\n      0x12\n        /* \"src/utils/Base64.sol\":4261:4328  shl(18, and(mload(add(tablePtr, and(shr(24, input), 0xFF))), 0xFF)) */\n      shl\n        /* \"src/utils/Base64.sol\":4233:4421  add(... */\n      add\n        /* \"src/utils/Base64.sol\":4209:4668  add(... */\n      add\n        /* \"src/utils/Base64.sol\":4195:4668  let output := add(... */\n      swap1\n      pop\n        /* \"src/utils/Base64.sol\":4712:4718  output */\n      dup1\n        /* \"src/utils/Base64.sol\":4707:4710  232 */\n      0xe8\n        /* \"src/utils/Base64.sol\":4703:4719  shl(232, output) */\n      shl\n        /* \"src/utils/Base64.sol\":4692:4701  resultPtr */\n      dup3\n        /* \"src/utils/Base64.sol\":4685:4720  mstore(resultPtr, shl(232, output)) */\n      mstore\n      pop\n        /* \"src/utils/Base64.sol\":4765:4766  3 */\n      0x03\n        /* \"src/utils/Base64.sol\":4754:4763  resultPtr */\n      dup2\n        /* \"src/utils/Base64.sol\":4750:4767  add(resultPtr, 3) */\n      add\n        /* \"src/utils/Base64.sol\":4737:4767  resultPtr := add(resultPtr, 3) */\n      swap1\n      pop\n        /* \"src/utils/Base64.sol\":3982:4781  for {} lt(dataPtr, endPtr) {}... */\n      jump(tag_341)\n    tag_343:\n      pop\n        /* \"src/utils/Base64.sol\":4808:4814  result */\n      swap3\n      swap9\n        /* \"src/utils/Base64.sol\":2643:4821  function decode(string memory _data) internal pure returns (bytes memory) {... */\n      swap8\n      pop\n      pop\n      pop\n      pop\n      pop\n      pop\n      pop\n      pop\n      jump\t// out\n        /* \"src/utils/BytesUtils.sol\":5813:5966  function readUint8(bytes memory self, uint256 idx)... */\n    tag_275:\n        /* \"src/utils/BytesUtils.sol\":5911:5920  uint8 ret */\n      0x00\n        /* \"src/utils/BytesUtils.sol\":5949:5953  self */\n      dup3\n        /* \"src/utils/BytesUtils.sol\":5954:5957  idx */\n      dup3\n        /* \"src/utils/BytesUtils.sol\":5949:5958  self[idx] */\n      dup2\n      mload\n      dup2\n      lt\n      tag_346\n      jumpi\n      tag_346\n      tag_102\n      jump\t// in\n    tag_346:\n      add\n      0x20\n      add\n      mload\n      0xf8\n      shr\n      swap1\n      pop\n        /* \"src/utils/BytesUtils.sol\":5813:5966  function readUint8(bytes memory self, uint256 idx)... */\n      swap3\n      swap2\n      pop\n      pop\n      jump\t// out\n        /* \"src/utils/BytesUtils.sol\":6215:6469  function readUint16(bytes memory self, uint256 idx)... */\n    tag_280:\n        /* \"src/utils/BytesUtils.sol\":6359:6370  self.length */\n      dup2\n      mload\n        /* \"src/utils/BytesUtils.sol\":6314:6324  uint16 ret */\n      0x00\n      swap1\n        /* \"src/utils/BytesUtils.sol\":6348:6355  idx + 2 */\n      tag_348\n        /* \"src/utils/BytesUtils.sol\":6348:6351  idx */\n      dup4\n        /* \"src/utils/BytesUtils.sol\":6354:6355  2 */\n      0x02\n        /* \"src/utils/BytesUtils.sol\":6348:6355  idx + 2 */\n      tag_200\n      jump\t// in\n    tag_348:\n        /* \"src/utils/BytesUtils.sol\":6348:6370  idx + 2 <= self.length */\n      gt\n      iszero\n        /* \"src/utils/BytesUtils.sol\":6340:6371  require(idx + 2 <= self.length) */\n      tag_349\n      jumpi\n      0x00\n      dup1\n      revert\n    tag_349:\n      pop\n        /* \"src/utils/BytesUtils.sol\":6421:6443  add(add(self, 2), idx) */\n      add\n        /* \"src/utils/BytesUtils.sol\":6435:6436  2 */\n      0x02\n        /* \"src/utils/BytesUtils.sol\":6421:6443  add(add(self, 2), idx) */\n      add\n        /* \"src/utils/BytesUtils.sol\":6415:6444  mload(add(add(self, 2), idx)) */\n      mload\n        /* \"src/utils/BytesUtils.sol\":6446:6452  0xFFFF */\n      0xffff\n        /* \"src/utils/BytesUtils.sol\":6411:6453  and(mload(add(add(self, 2), idx)), 0xFFFF) */\n      and\n      swap1\n        /* \"src/utils/BytesUtils.sol\":6215:6469  function readUint16(bytes memory self, uint256 idx)... */\n      jump\t// out\n        /* \"src/utils/BytesUtils.sol\":8658:9303  function memcpy(... */\n    tag_303:\n        /* \"src/utils/BytesUtils.sol\":8831:8833  32 */\n      0x20\n        /* \"src/utils/BytesUtils.sol\":8824:8827  len */\n      dup2\n        /* \"src/utils/BytesUtils.sol\":8824:8833  len >= 32 */\n      lt\n        /* \"src/utils/BytesUtils.sol\":8817:8982  for (; len >= 32; len -= 32) {... */\n      tag_353\n      jumpi\n        /* \"src/utils/BytesUtils.sol\":8900:8910  mload(src) */\n      dup2\n      mload\n        /* \"src/utils/BytesUtils.sol\":8887:8911  mstore(dest, mload(src)) */\n      dup4\n      mstore\n        /* \"src/utils/BytesUtils.sol\":8938:8948  dest += 32 */\n      tag_355\n        /* \"src/utils/BytesUtils.sol\":8946:8948  32 */\n      0x20\n        /* \"src/utils/BytesUtils.sol\":8894:8898  dest */\n      dup5\n        /* \"src/utils/BytesUtils.sol\":8938:8948  dest += 32 */\n      tag_200\n      jump\t// in\n    tag_355:\n      swap3\n      pop\n        /* \"src/utils/BytesUtils.sol\":8962:8971  src += 32 */\n      tag_356\n        /* \"src/utils/BytesUtils.sol\":8969:8971  32 */\n      0x20\n        /* \"src/utils/BytesUtils.sol\":8962:8971  src += 32 */\n      dup4\n      tag_200\n      jump\t// in\n    tag_356:\n      swap2\n      pop\n        /* \"src/utils/BytesUtils.sol\":8835:8844  len -= 32 */\n      tag_357\n        /* \"src/utils/BytesUtils.sol\":8842:8844  32 */\n      0x20\n        /* \"src/utils/BytesUtils.sol\":8835:8844  len -= 32 */\n      dup3\n      tag_208\n      jump\t// in\n    tag_357:\n      swap1\n      pop\n        /* \"src/utils/BytesUtils.sol\":8817:8982  for (; len >= 32; len -= 32) {... */\n      jump(tag_303)\n    tag_353:\n        /* \"src/utils/BytesUtils.sol\":9144:9154  mload(src) */\n      swap1\n      mload\n        /* \"src/utils/BytesUtils.sol\":9203:9214  mload(dest) */\n      dup3\n      mload\n        /* \"src/utils/BytesUtils.sol\":9070:9072  32 */\n      0x20\n        /* \"src/utils/BytesUtils.sol\":9070:9078  32 - len */\n      swap3\n      swap1\n      swap3\n      sub\n        /* \"src/utils/BytesUtils.sol\":9064:9067  256 */\n      0x0100\n        /* \"src/utils/BytesUtils.sol\":9064:9079  256**(32 - len) */\n      exp\n      not(0x00)\n        /* \"src/utils/BytesUtils.sol\":9063:9084  (256**(32 - len)) - 1 */\n      add\n        /* \"src/utils/BytesUtils.sol\":9156:9165  not(mask) */\n      dup1\n      not\n        /* \"src/utils/BytesUtils.sol\":9140:9166  and(mload(src), not(mask)) */\n      swap1\n      swap2\n      and\n        /* \"src/utils/BytesUtils.sol\":9199:9221  and(mload(dest), mask) */\n      swap2\n      and\n        /* \"src/utils/BytesUtils.sol\":9251:9272  or(destpart, srcpart) */\n      or\n        /* \"src/utils/BytesUtils.sol\":9238:9273  mstore(dest, or(destpart, srcpart)) */\n      swap1\n      mstore\n        /* \"src/utils/BytesUtils.sol\":8658:9303  function memcpy(... */\n      jump\t// out\n        /* \"#utility.yul\":14:436   */\n    tag_358:\n        /* \"#utility.yul\":55:58   */\n      0x00\n        /* \"#utility.yul\":93:98   */\n      dup2\n        /* \"#utility.yul\":87:99   */\n      mload\n        /* \"#utility.yul\":120:126   */\n      dup1\n        /* \"#utility.yul\":115:118   */\n      dup5\n        /* \"#utility.yul\":108:127   */\n      mstore\n        /* \"#utility.yul\":145:146   */\n      0x00\n        /* \"#utility.yul\":155:317   */\n    tag_366:\n        /* \"#utility.yul\":169:175   */\n      dup2\n        /* \"#utility.yul\":166:167   */\n      dup2\n        /* \"#utility.yul\":163:176   */\n      lt\n        /* \"#utility.yul\":155:317   */\n      iszero\n      tag_368\n      jumpi\n        /* \"#utility.yul\":231:235   */\n      0x20\n        /* \"#utility.yul\":287:300   */\n      dup2\n      dup6\n      add\n        /* \"#utility.yul\":283:305   */\n      dup2\n      add\n        /* \"#utility.yul\":277:306   */\n      mload\n        /* \"#utility.yul\":259:270   */\n      dup7\n      dup4\n      add\n        /* \"#utility.yul\":255:275   */\n      dup3\n      add\n        /* \"#utility.yul\":248:307   */\n      mstore\n        /* \"#utility.yul\":184:196   */\n      add\n        /* \"#utility.yul\":155:317   */\n      jump(tag_366)\n    tag_368:\n        /* \"#utility.yul\":159:162   */\n      pop\n        /* \"#utility.yul\":362:363   */\n      0x00\n        /* \"#utility.yul\":355:359   */\n      0x20\n        /* \"#utility.yul\":346:352   */\n      dup3\n        /* \"#utility.yul\":341:344   */\n      dup7\n        /* \"#utility.yul\":337:353   */\n      add\n        /* \"#utility.yul\":333:360   */\n      add\n        /* \"#utility.yul\":326:364   */\n      mstore\n        /* \"#utility.yul\":425:429   */\n      0x20\n        /* \"#utility.yul\":418:420   */\n      0x1f\n        /* \"#utility.yul\":414:421   */\n      not\n        /* \"#utility.yul\":409:411   */\n      0x1f\n        /* \"#utility.yul\":401:407   */\n      dup4\n        /* \"#utility.yul\":397:412   */\n      add\n        /* \"#utility.yul\":393:422   */\n      and\n        /* \"#utility.yul\":388:391   */\n      dup6\n        /* \"#utility.yul\":384:423   */\n      add\n        /* \"#utility.yul\":380:430   */\n      add\n        /* \"#utility.yul\":373:430   */\n      swap2\n      pop\n      pop\n        /* \"#utility.yul\":14:436   */\n      swap3\n      swap2\n      pop\n      pop\n      jump\t// out\n        /* \"#utility.yul\":441:658   */\n    tag_19:\n        /* \"#utility.yul\":588:590   */\n      0x20\n        /* \"#utility.yul\":577:586   */\n      dup2\n        /* \"#utility.yul\":570:591   */\n      mstore\n        /* \"#utility.yul\":551:555   */\n      0x00\n        /* \"#utility.yul\":608:652   */\n      tag_191\n        /* \"#utility.yul\":648:650   */\n      0x20\n        /* \"#utility.yul\":637:646   */\n      dup4\n        /* \"#utility.yul\":633:651   */\n      add\n        /* \"#utility.yul\":625:631   */\n      dup5\n        /* \"#utility.yul\":608:652   */\n      tag_358\n      jump\t// in\n        /* \"#utility.yul\":663:1010   */\n    tag_359:\n        /* \"#utility.yul\":714:722   */\n      0x00\n        /* \"#utility.yul\":724:730   */\n      dup1\n        /* \"#utility.yul\":778:781   */\n      dup4\n        /* \"#utility.yul\":771:775   */\n      0x1f\n        /* \"#utility.yul\":763:769   */\n      dup5\n        /* \"#utility.yul\":759:776   */\n      add\n        /* \"#utility.yul\":755:782   */\n      slt\n        /* \"#utility.yul\":745:800   */\n      tag_372\n      jumpi\n        /* \"#utility.yul\":796:797   */\n      0x00\n        /* \"#utility.yul\":793:794   */\n      dup1\n        /* \"#utility.yul\":786:798   */\n      revert\n        /* \"#utility.yul\":745:800   */\n    tag_372:\n      pop\n        /* \"#utility.yul\":819:839   */\n      dup2\n      calldataload\n        /* \"#utility.yul\":862:880   */\n      0xffffffffffffffff\n        /* \"#utility.yul\":851:881   */\n      dup2\n      gt\n        /* \"#utility.yul\":848:898   */\n      iszero\n      tag_373\n      jumpi\n        /* \"#utility.yul\":894:895   */\n      0x00\n        /* \"#utility.yul\":891:892   */\n      dup1\n        /* \"#utility.yul\":884:896   */\n      revert\n        /* \"#utility.yul\":848:898   */\n    tag_373:\n        /* \"#utility.yul\":931:935   */\n      0x20\n        /* \"#utility.yul\":923:929   */\n      dup4\n        /* \"#utility.yul\":919:936   */\n      add\n        /* \"#utility.yul\":907:936   */\n      swap2\n      pop\n        /* \"#utility.yul\":983:986   */\n      dup4\n        /* \"#utility.yul\":976:980   */\n      0x20\n        /* \"#utility.yul\":967:973   */\n      dup3\n        /* \"#utility.yul\":959:965   */\n      dup6\n        /* \"#utility.yul\":955:974   */\n      add\n        /* \"#utility.yul\":951:981   */\n      add\n        /* \"#utility.yul\":948:987   */\n      gt\n        /* \"#utility.yul\":945:1004   */\n      iszero\n      tag_374\n      jumpi\n        /* \"#utility.yul\":1000:1001   */\n      0x00\n        /* \"#utility.yul\":997:998   */\n      dup1\n        /* \"#utility.yul\":990:1002   */\n      revert\n        /* \"#utility.yul\":945:1004   */\n    tag_374:\n        /* \"#utility.yul\":663:1010   */\n      swap3\n      pop\n      swap3\n      swap1\n      pop\n      jump\t// out\n        /* \"#utility.yul\":1015:2019   */\n    tag_22:\n        /* \"#utility.yul\":1125:1131   */\n      0x00\n        /* \"#utility.yul\":1133:1139   */\n      dup1\n        /* \"#utility.yul\":1141:1147   */\n      0x00\n        /* \"#utility.yul\":1149:1155   */\n      dup1\n        /* \"#utility.yul\":1157:1163   */\n      0x00\n        /* \"#utility.yul\":1165:1171   */\n      dup1\n        /* \"#utility.yul\":1218:1220   */\n      0x60\n        /* \"#utility.yul\":1206:1215   */\n      dup8\n        /* \"#utility.yul\":1197:1204   */\n      dup10\n        /* \"#utility.yul\":1193:1216   */\n      sub\n        /* \"#utility.yul\":1189:1221   */\n      slt\n        /* \"#utility.yul\":1186:1238   */\n      iszero\n      tag_376\n      jumpi\n        /* \"#utility.yul\":1234:1235   */\n      0x00\n        /* \"#utility.yul\":1231:1232   */\n      dup1\n        /* \"#utility.yul\":1224:1236   */\n      revert\n        /* \"#utility.yul\":1186:1238   */\n    tag_376:\n        /* \"#utility.yul\":1274:1283   */\n      dup7\n        /* \"#utility.yul\":1261:1284   */\n      calldataload\n        /* \"#utility.yul\":1303:1321   */\n      0xffffffffffffffff\n        /* \"#utility.yul\":1344:1346   */\n      dup1\n        /* \"#utility.yul\":1336:1342   */\n      dup3\n        /* \"#utility.yul\":1333:1347   */\n      gt\n        /* \"#utility.yul\":1330:1364   */\n      iszero\n      tag_377\n      jumpi\n        /* \"#utility.yul\":1360:1361   */\n      0x00\n        /* \"#utility.yul\":1357:1358   */\n      dup1\n        /* \"#utility.yul\":1350:1362   */\n      revert\n        /* \"#utility.yul\":1330:1364   */\n    tag_377:\n        /* \"#utility.yul\":1399:1457   */\n      tag_378\n        /* \"#utility.yul\":1449:1456   */\n      dup11\n        /* \"#utility.yul\":1440:1446   */\n      dup4\n        /* \"#utility.yul\":1429:1438   */\n      dup12\n        /* \"#utility.yul\":1425:1447   */\n      add\n        /* \"#utility.yul\":1399:1457   */\n      tag_359\n      jump\t// in\n    tag_378:\n        /* \"#utility.yul\":1476:1484   */\n      swap1\n      swap9\n      pop\n        /* \"#utility.yul\":1373:1457   */\n      swap7\n      pop\n        /* \"#utility.yul\":1564:1566   */\n      0x20\n        /* \"#utility.yul\":1549:1567   */\n      dup10\n      add\n        /* \"#utility.yul\":1536:1568   */\n      calldataload\n      swap2\n      pop\n        /* \"#utility.yul\":1580:1596   */\n      dup1\n      dup3\n      gt\n        /* \"#utility.yul\":1577:1613   */\n      iszero\n      tag_379\n      jumpi\n        /* \"#utility.yul\":1609:1610   */\n      0x00\n        /* \"#utility.yul\":1606:1607   */\n      dup1\n        /* \"#utility.yul\":1599:1611   */\n      revert\n        /* \"#utility.yul\":1577:1613   */\n    tag_379:\n        /* \"#utility.yul\":1648:1708   */\n      tag_380\n        /* \"#utility.yul\":1700:1707   */\n      dup11\n        /* \"#utility.yul\":1689:1697   */\n      dup4\n        /* \"#utility.yul\":1678:1687   */\n      dup12\n        /* \"#utility.yul\":1674:1698   */\n      add\n        /* \"#utility.yul\":1648:1708   */\n      tag_359\n      jump\t// in\n    tag_380:\n        /* \"#utility.yul\":1727:1735   */\n      swap1\n      swap7\n      pop\n        /* \"#utility.yul\":1622:1708   */\n      swap5\n      pop\n        /* \"#utility.yul\":1815:1817   */\n      0x40\n        /* \"#utility.yul\":1800:1818   */\n      dup10\n      add\n        /* \"#utility.yul\":1787:1819   */\n      calldataload\n      swap2\n      pop\n        /* \"#utility.yul\":1831:1847   */\n      dup1\n      dup3\n      gt\n        /* \"#utility.yul\":1828:1864   */\n      iszero\n      tag_381\n      jumpi\n        /* \"#utility.yul\":1860:1861   */\n      0x00\n        /* \"#utility.yul\":1857:1858   */\n      dup1\n        /* \"#utility.yul\":1850:1862   */\n      revert\n        /* \"#utility.yul\":1828:1864   */\n    tag_381:\n      pop\n        /* \"#utility.yul\":1899:1959   */\n      tag_382\n        /* \"#utility.yul\":1951:1958   */\n      dup10\n        /* \"#utility.yul\":1940:1948   */\n      dup3\n        /* \"#utility.yul\":1929:1938   */\n      dup11\n        /* \"#utility.yul\":1925:1949   */\n      add\n        /* \"#utility.yul\":1899:1959   */\n      tag_359\n      jump\t// in\n    tag_382:\n        /* \"#utility.yul\":1015:2019   */\n      swap8\n      swap11\n      swap7\n      swap10\n      pop\n      swap5\n      swap8\n      pop\n      swap3\n      swap6\n        /* \"#utility.yul\":1978:1986   */\n      swap4\n      swap5\n        /* \"#utility.yul\":1015:2019   */\n      swap3\n      pop\n      pop\n      pop\n      jump\t// out\n        /* \"#utility.yul\":2837:2964   */\n    tag_224:\n        /* \"#utility.yul\":2898:2908   */\n      0x4e487b71\n        /* \"#utility.yul\":2893:2896   */\n      0xe0\n        /* \"#utility.yul\":2889:2909   */\n      shl\n        /* \"#utility.yul\":2886:2887   */\n      0x00\n        /* \"#utility.yul\":2879:2910   */\n      mstore\n        /* \"#utility.yul\":2929:2933   */\n      0x41\n        /* \"#utility.yul\":2926:2927   */\n      0x04\n        /* \"#utility.yul\":2919:2934   */\n      mstore\n        /* \"#utility.yul\":2953:2957   */\n      0x24\n        /* \"#utility.yul\":2950:2951   */\n      0x00\n        /* \"#utility.yul\":2943:2958   */\n      revert\n        /* \"#utility.yul\":2969:3687   */\n    tag_360:\n        /* \"#utility.yul\":3011:3016   */\n      0x00\n        /* \"#utility.yul\":3064:3067   */\n      dup3\n        /* \"#utility.yul\":3057:3061   */\n      0x1f\n        /* \"#utility.yul\":3049:3055   */\n      dup4\n        /* \"#utility.yul\":3045:3062   */\n      add\n        /* \"#utility.yul\":3041:3068   */\n      slt\n        /* \"#utility.yul\":3031:3086   */\n      tag_389\n      jumpi\n        /* \"#utility.yul\":3082:3083   */\n      0x00\n        /* \"#utility.yul\":3079:3080   */\n      dup1\n        /* \"#utility.yul\":3072:3084   */\n      revert\n        /* \"#utility.yul\":3031:3086   */\n    tag_389:\n        /* \"#utility.yul\":3118:3124   */\n      dup2\n        /* \"#utility.yul\":3105:3125   */\n      calldataload\n        /* \"#utility.yul\":3144:3162   */\n      0xffffffffffffffff\n        /* \"#utility.yul\":3181:3183   */\n      dup1\n        /* \"#utility.yul\":3177:3179   */\n      dup3\n        /* \"#utility.yul\":3174:3184   */\n      gt\n        /* \"#utility.yul\":3171:3207   */\n      iszero\n      tag_391\n      jumpi\n        /* \"#utility.yul\":3187:3205   */\n      tag_391\n      tag_224\n      jump\t// in\n    tag_391:\n        /* \"#utility.yul\":3262:3264   */\n      0x40\n        /* \"#utility.yul\":3256:3265   */\n      mload\n        /* \"#utility.yul\":3230:3232   */\n      0x1f\n        /* \"#utility.yul\":3316:3329   */\n      dup4\n      add\n      not(0x1f)\n        /* \"#utility.yul\":3312:3334   */\n      swap1\n      dup2\n      and\n        /* \"#utility.yul\":3336:3338   */\n      0x3f\n        /* \"#utility.yul\":3308:3339   */\n      add\n        /* \"#utility.yul\":3304:3344   */\n      and\n        /* \"#utility.yul\":3292:3345   */\n      dup2\n      add\n      swap1\n        /* \"#utility.yul\":3360:3378   */\n      dup3\n      dup3\n      gt\n        /* \"#utility.yul\":3380:3402   */\n      dup2\n      dup4\n      lt\n        /* \"#utility.yul\":3357:3403   */\n      or\n        /* \"#utility.yul\":3354:3426   */\n      iszero\n      tag_393\n      jumpi\n        /* \"#utility.yul\":3406:3424   */\n      tag_393\n      tag_224\n      jump\t// in\n    tag_393:\n        /* \"#utility.yul\":3446:3456   */\n      dup2\n        /* \"#utility.yul\":3442:3444   */\n      0x40\n        /* \"#utility.yul\":3435:3457   */\n      mstore\n        /* \"#utility.yul\":3481:3483   */\n      dup4\n        /* \"#utility.yul\":3473:3479   */\n      dup2\n        /* \"#utility.yul\":3466:3484   */\n      mstore\n        /* \"#utility.yul\":3527:3530   */\n      dup7\n        /* \"#utility.yul\":3520:3524   */\n      0x20\n        /* \"#utility.yul\":3515:3517   */\n      dup6\n        /* \"#utility.yul\":3507:3513   */\n      dup9\n        /* \"#utility.yul\":3503:3518   */\n      add\n        /* \"#utility.yul\":3499:3525   */\n      add\n        /* \"#utility.yul\":3496:3531   */\n      gt\n        /* \"#utility.yul\":3493:3548   */\n      iszero\n      tag_394\n      jumpi\n        /* \"#utility.yul\":3544:3545   */\n      0x00\n        /* \"#utility.yul\":3541:3542   */\n      dup1\n        /* \"#utility.yul\":3534:3546   */\n      revert\n        /* \"#utility.yul\":3493:3548   */\n    tag_394:\n        /* \"#utility.yul\":3608:3610   */\n      dup4\n        /* \"#utility.yul\":3601:3605   */\n      0x20\n        /* \"#utility.yul\":3593:3599   */\n      dup8\n        /* \"#utility.yul\":3589:3606   */\n      add\n        /* \"#utility.yul\":3582:3586   */\n      0x20\n        /* \"#utility.yul\":3574:3580   */\n      dup4\n        /* \"#utility.yul\":3570:3587   */\n      add\n        /* \"#utility.yul\":3557:3611   */\n      calldatacopy\n        /* \"#utility.yul\":3655:3656   */\n      0x00\n        /* \"#utility.yul\":3648:3652   */\n      0x20\n        /* \"#utility.yul\":3643:3645   */\n      dup6\n        /* \"#utility.yul\":3635:3641   */\n      dup4\n        /* \"#utility.yul\":3631:3646   */\n      add\n        /* \"#utility.yul\":3627:3653   */\n      add\n        /* \"#utility.yul\":3620:3657   */\n      mstore\n        /* \"#utility.yul\":3675:3681   */\n      dup1\n        /* \"#utility.yul\":3666:3681   */\n      swap5\n      pop\n      pop\n      pop\n      pop\n      pop\n        /* \"#utility.yul\":2969:3687   */\n      swap3\n      swap2\n      pop\n      pop\n      jump\t// out\n        /* \"#utility.yul\":3692:4231   */\n    tag_42:\n        /* \"#utility.yul\":3778:3784   */\n      0x00\n        /* \"#utility.yul\":3786:3792   */\n      dup1\n        /* \"#utility.yul\":3839:3841   */\n      0x40\n        /* \"#utility.yul\":3827:3836   */\n      dup4\n        /* \"#utility.yul\":3818:3825   */\n      dup6\n        /* \"#utility.yul\":3814:3837   */\n      sub\n        /* \"#utility.yul\":3810:3842   */\n      slt\n        /* \"#utility.yul\":3807:3859   */\n      iszero\n      tag_396\n      jumpi\n        /* \"#utility.yul\":3855:3856   */\n      0x00\n        /* \"#utility.yul\":3852:3853   */\n      dup1\n        /* \"#utility.yul\":3845:3857   */\n      revert\n        /* \"#utility.yul\":3807:3859   */\n    tag_396:\n        /* \"#utility.yul\":3895:3904   */\n      dup3\n        /* \"#utility.yul\":3882:3905   */\n      calldataload\n        /* \"#utility.yul\":3924:3942   */\n      0xffffffffffffffff\n        /* \"#utility.yul\":3965:3967   */\n      dup1\n        /* \"#utility.yul\":3957:3963   */\n      dup3\n        /* \"#utility.yul\":3954:3968   */\n      gt\n        /* \"#utility.yul\":3951:3985   */\n      iszero\n      tag_397\n      jumpi\n        /* \"#utility.yul\":3981:3982   */\n      0x00\n        /* \"#utility.yul\":3978:3979   */\n      dup1\n        /* \"#utility.yul\":3971:3983   */\n      revert\n        /* \"#utility.yul\":3951:3985   */\n    tag_397:\n        /* \"#utility.yul\":4004:4053   */\n      tag_398\n        /* \"#utility.yul\":4045:4052   */\n      dup7\n        /* \"#utility.yul\":4036:4042   */\n      dup4\n        /* \"#utility.yul\":4025:4034   */\n      dup8\n        /* \"#utility.yul\":4021:4043   */\n      add\n        /* \"#utility.yul\":4004:4053   */\n      tag_360\n      jump\t// in\n    tag_398:\n        /* \"#utility.yul\":3994:4053   */\n      swap4\n      pop\n        /* \"#utility.yul\":4106:4108   */\n      0x20\n        /* \"#utility.yul\":4095:4104   */\n      dup6\n        /* \"#utility.yul\":4091:4109   */\n      add\n        /* \"#utility.yul\":4078:4110   */\n      calldataload\n        /* \"#utility.yul\":4062:4110   */\n      swap2\n      pop\n        /* \"#utility.yul\":4135:4137   */\n      dup1\n        /* \"#utility.yul\":4125:4133   */\n      dup3\n        /* \"#utility.yul\":4122:4138   */\n      gt\n        /* \"#utility.yul\":4119:4155   */\n      iszero\n      tag_399\n      jumpi\n        /* \"#utility.yul\":4151:4152   */\n      0x00\n        /* \"#utility.yul\":4148:4149   */\n      dup1\n        /* \"#utility.yul\":4141:4153   */\n      revert\n        /* \"#utility.yul\":4119:4155   */\n    tag_399:\n      pop\n        /* \"#utility.yul\":4174:4225   */\n      tag_400\n        /* \"#utility.yul\":4217:4224   */\n      dup6\n        /* \"#utility.yul\":4206:4214   */\n      dup3\n        /* \"#utility.yul\":4195:4204   */\n      dup7\n        /* \"#utility.yul\":4191:4215   */\n      add\n        /* \"#utility.yul\":4174:4225   */\n      tag_360\n      jump\t// in\n    tag_400:\n        /* \"#utility.yul\":4164:4225   */\n      swap2\n      pop\n      pop\n        /* \"#utility.yul\":3692:4231   */\n      swap3\n      pop\n      swap3\n      swap1\n      pop\n      jump\t// out\n        /* \"#utility.yul\":4236:4416   */\n    tag_50:\n        /* \"#utility.yul\":4295:4301   */\n      0x00\n        /* \"#utility.yul\":4348:4350   */\n      0x20\n        /* \"#utility.yul\":4336:4345   */\n      dup3\n        /* \"#utility.yul\":4327:4334   */\n      dup5\n        /* \"#utility.yul\":4323:4346   */\n      sub\n        /* \"#utility.yul\":4319:4351   */\n      slt\n        /* \"#utility.yul\":4316:4368   */\n      iszero\n      tag_402\n      jumpi\n        /* \"#utility.yul\":4364:4365   */\n      0x00\n        /* \"#utility.yul\":4361:4362   */\n      dup1\n        /* \"#utility.yul\":4354:4366   */\n      revert\n        /* \"#utility.yul\":4316:4368   */\n    tag_402:\n      pop\n        /* \"#utility.yul\":4387:4410   */\n      calldataload\n      swap2\n        /* \"#utility.yul\":4236:4416   */\n      swap1\n      pop\n      jump\t// out\n        /* \"#utility.yul\":4629:5038   */\n    tag_58:\n        /* \"#utility.yul\":4699:4705   */\n      0x00\n        /* \"#utility.yul\":4707:4713   */\n      dup1\n        /* \"#utility.yul\":4760:4762   */\n      0x20\n        /* \"#utility.yul\":4748:4757   */\n      dup4\n        /* \"#utility.yul\":4739:4746   */\n      dup6\n        /* \"#utility.yul\":4735:4758   */\n      sub\n        /* \"#utility.yul\":4731:4763   */\n      slt\n        /* \"#utility.yul\":4728:4780   */\n      iszero\n      tag_405\n      jumpi\n        /* \"#utility.yul\":4776:4777   */\n      0x00\n        /* \"#utility.yul\":4773:4774   */\n      dup1\n        /* \"#utility.yul\":4766:4778   */\n      revert\n        /* \"#utility.yul\":4728:4780   */\n    tag_405:\n        /* \"#utility.yul\":4816:4825   */\n      dup3\n        /* \"#utility.yul\":4803:4826   */\n      calldataload\n        /* \"#utility.yul\":4849:4867   */\n      0xffffffffffffffff\n        /* \"#utility.yul\":4841:4847   */\n      dup2\n        /* \"#utility.yul\":4838:4868   */\n      gt\n        /* \"#utility.yul\":4835:4885   */\n      iszero\n      tag_406\n      jumpi\n        /* \"#utility.yul\":4881:4882   */\n      0x00\n        /* \"#utility.yul\":4878:4879   */\n      dup1\n        /* \"#utility.yul\":4871:4883   */\n      revert\n        /* \"#utility.yul\":4835:4885   */\n    tag_406:\n        /* \"#utility.yul\":4920:4978   */\n      tag_407\n        /* \"#utility.yul\":4970:4977   */\n      dup6\n        /* \"#utility.yul\":4961:4967   */\n      dup3\n        /* \"#utility.yul\":4950:4959   */\n      dup7\n        /* \"#utility.yul\":4946:4968   */\n      add\n        /* \"#utility.yul\":4920:4978   */\n      tag_359\n      jump\t// in\n    tag_407:\n        /* \"#utility.yul\":4997:5005   */\n      swap1\n      swap7\n        /* \"#utility.yul\":4894:4978   */\n      swap1\n      swap6\n      pop\n        /* \"#utility.yul\":4629:5038   */\n      swap4\n      pop\n      pop\n      pop\n      pop\n      jump\t// out\n        /* \"#utility.yul\":5043:5329   */\n    tag_63:\n        /* \"#utility.yul\":5102:5108   */\n      0x00\n        /* \"#utility.yul\":5155:5157   */\n      0x20\n        /* \"#utility.yul\":5143:5152   */\n      dup3\n        /* \"#utility.yul\":5134:5141   */\n      dup5\n        /* \"#utility.yul\":5130:5153   */\n      sub\n        /* \"#utility.yul\":5126:5158   */\n      slt\n        /* \"#utility.yul\":5123:5175   */\n      iszero\n      tag_409\n      jumpi\n        /* \"#utility.yul\":5171:5172   */\n      0x00\n        /* \"#utility.yul\":5168:5169   */\n      dup1\n        /* \"#utility.yul\":5161:5173   */\n      revert\n        /* \"#utility.yul\":5123:5175   */\n    tag_409:\n        /* \"#utility.yul\":5197:5220   */\n      dup2\n      calldataload\n      sub(shl(0xa0, 0x01), 0x01)\n        /* \"#utility.yul\":5249:5280   */\n      dup2\n      and\n        /* \"#utility.yul\":5239:5281   */\n      dup2\n      eq\n        /* \"#utility.yul\":5229:5299   */\n      tag_191\n      jumpi\n        /* \"#utility.yul\":5295:5296   */\n      0x00\n        /* \"#utility.yul\":5292:5293   */\n      dup1\n        /* \"#utility.yul\":5285:5297   */\n      revert\n        /* \"#utility.yul\":5334:5714   */\n    tag_66:\n        /* \"#utility.yul\":5413:5414   */\n      0x01\n        /* \"#utility.yul\":5409:5421   */\n      dup2\n      dup2\n      shr\n      swap1\n        /* \"#utility.yul\":5456:5468   */\n      dup3\n      and\n      dup1\n        /* \"#utility.yul\":5477:5538   */\n      tag_412\n      jumpi\n        /* \"#utility.yul\":5531:5535   */\n      0x7f\n        /* \"#utility.yul\":5523:5529   */\n      dup3\n        /* \"#utility.yul\":5519:5536   */\n      and\n        /* \"#utility.yul\":5509:5536   */\n      swap2\n      pop\n        /* \"#utility.yul\":5477:5538   */\n    tag_412:\n        /* \"#utility.yul\":5584:5586   */\n      0x20\n        /* \"#utility.yul\":5576:5582   */\n      dup3\n        /* \"#utility.yul\":5573:5587   */\n      lt\n        /* \"#utility.yul\":5553:5571   */\n      dup2\n        /* \"#utility.yul\":5550:5588   */\n      sub\n        /* \"#utility.yul\":5547:5708   */\n      tag_413\n      jumpi\n        /* \"#utility.yul\":5630:5640   */\n      0x4e487b71\n        /* \"#utility.yul\":5625:5628   */\n      0xe0\n        /* \"#utility.yul\":5621:5641   */\n      shl\n        /* \"#utility.yul\":5618:5619   */\n      0x00\n        /* \"#utility.yul\":5611:5642   */\n      mstore\n        /* \"#utility.yul\":5665:5669   */\n      0x22\n        /* \"#utility.yul\":5662:5663   */\n      0x04\n        /* \"#utility.yul\":5655:5670   */\n      mstore\n        /* \"#utility.yul\":5693:5697   */\n      0x24\n        /* \"#utility.yul\":5690:5691   */\n      0x00\n        /* \"#utility.yul\":5683:5698   */\n      revert\n        /* \"#utility.yul\":5547:5708   */\n    tag_413:\n      pop\n        /* \"#utility.yul\":5334:5714   */\n      swap2\n      swap1\n      pop\n      jump\t// out\n        /* \"#utility.yul\":5719:5985   */\n    tag_361:\n        /* \"#utility.yul\":5807:5813   */\n      dup2\n        /* \"#utility.yul\":5802:5805   */\n      dup4\n        /* \"#utility.yul\":5795:5814   */\n      mstore\n        /* \"#utility.yul\":5859:5865   */\n      dup2\n        /* \"#utility.yul\":5852:5857   */\n      dup2\n        /* \"#utility.yul\":5845:5849   */\n      0x20\n        /* \"#utility.yul\":5840:5843   */\n      dup6\n        /* \"#utility.yul\":5836:5850   */\n      add\n        /* \"#utility.yul\":5823:5866   */\n      calldatacopy\n      pop\n        /* \"#utility.yul\":5911:5912   */\n      0x00\n        /* \"#utility.yul\":5886:5902   */\n      dup3\n      dup3\n      add\n        /* \"#utility.yul\":5904:5908   */\n      0x20\n        /* \"#utility.yul\":5882:5909   */\n      swap1\n      dup2\n      add\n        /* \"#utility.yul\":5875:5913   */\n      swap2\n      swap1\n      swap2\n      mstore\n        /* \"#utility.yul\":5967:5969   */\n      0x1f\n        /* \"#utility.yul\":5946:5961   */\n      swap1\n      swap2\n      add\n      not(0x1f)\n        /* \"#utility.yul\":5942:5971   */\n      and\n        /* \"#utility.yul\":5933:5972   */\n      swap1\n      swap2\n      add\n        /* \"#utility.yul\":5929:5979   */\n      add\n      swap1\n        /* \"#utility.yul\":5719:5985   */\n      jump\t// out\n        /* \"#utility.yul\":5990:6581   */\n    tag_79:\n        /* \"#utility.yul\":6249:6251   */\n      0x60\n        /* \"#utility.yul\":6238:6247   */\n      dup2\n        /* \"#utility.yul\":6231:6252   */\n      mstore\n        /* \"#utility.yul\":6212:6216   */\n      0x00\n        /* \"#utility.yul\":6275:6319   */\n      tag_416\n        /* \"#utility.yul\":6315:6317   */\n      0x60\n        /* \"#utility.yul\":6304:6313   */\n      dup4\n        /* \"#utility.yul\":6300:6318   */\n      add\n        /* \"#utility.yul\":6292:6298   */\n      dup9\n        /* \"#utility.yul\":6275:6319   */\n      tag_358\n      jump\t// in\n    tag_416:\n        /* \"#utility.yul\":6367:6376   */\n      dup3\n        /* \"#utility.yul\":6359:6365   */\n      dup2\n        /* \"#utility.yul\":6355:6377   */\n      sub\n        /* \"#utility.yul\":6350:6352   */\n      0x20\n        /* \"#utility.yul\":6339:6348   */\n      dup5\n        /* \"#utility.yul\":6335:6353   */\n      add\n        /* \"#utility.yul\":6328:6378   */\n      mstore\n        /* \"#utility.yul\":6401:6450   */\n      tag_417\n        /* \"#utility.yul\":6443:6449   */\n      dup2\n        /* \"#utility.yul\":6435:6441   */\n      dup8\n        /* \"#utility.yul\":6427:6433   */\n      dup10\n        /* \"#utility.yul\":6401:6450   */\n      tag_361\n      jump\t// in\n    tag_417:\n        /* \"#utility.yul\":6387:6450   */\n      swap1\n      pop\n        /* \"#utility.yul\":6498:6507   */\n      dup3\n        /* \"#utility.yul\":6490:6496   */\n      dup2\n        /* \"#utility.yul\":6486:6508   */\n      sub\n        /* \"#utility.yul\":6481:6483   */\n      0x40\n        /* \"#utility.yul\":6470:6479   */\n      dup5\n        /* \"#utility.yul\":6466:6484   */\n      add\n        /* \"#utility.yul\":6459:6509   */\n      mstore\n        /* \"#utility.yul\":6526:6575   */\n      tag_149\n        /* \"#utility.yul\":6568:6574   */\n      dup2\n        /* \"#utility.yul\":6560:6566   */\n      dup6\n        /* \"#utility.yul\":6552:6558   */\n      dup8\n        /* \"#utility.yul\":6526:6575   */\n      tag_361\n      jump\t// in\n        /* \"#utility.yul\":6586:6863   */\n    tag_83:\n        /* \"#utility.yul\":6653:6659   */\n      0x00\n        /* \"#utility.yul\":6706:6708   */\n      0x20\n        /* \"#utility.yul\":6694:6703   */\n      dup3\n        /* \"#utility.yul\":6685:6692   */\n      dup5\n        /* \"#utility.yul\":6681:6704   */\n      sub\n        /* \"#utility.yul\":6677:6709   */\n      slt\n        /* \"#utility.yul\":6674:6726   */\n      iszero\n      tag_420\n      jumpi\n        /* \"#utility.yul\":6722:6723   */\n      0x00\n        /* \"#utility.yul\":6719:6720   */\n      dup1\n        /* \"#utility.yul\":6712:6724   */\n      revert\n        /* \"#utility.yul\":6674:6726   */\n    tag_420:\n        /* \"#utility.yul\":6754:6763   */\n      dup2\n        /* \"#utility.yul\":6748:6764   */\n      mload\n        /* \"#utility.yul\":6807:6812   */\n      dup1\n        /* \"#utility.yul\":6800:6813   */\n      iszero\n        /* \"#utility.yul\":6793:6814   */\n      iszero\n        /* \"#utility.yul\":6786:6791   */\n      dup2\n        /* \"#utility.yul\":6783:6815   */\n      eq\n        /* \"#utility.yul\":6773:6833   */\n      tag_191\n      jumpi\n        /* \"#utility.yul\":6829:6830   */\n      0x00\n        /* \"#utility.yul\":6826:6827   */\n      dup1\n        /* \"#utility.yul\":6819:6831   */\n      revert\n        /* \"#utility.yul\":6868:6995   */\n    tag_102:\n        /* \"#utility.yul\":6929:6939   */\n      0x4e487b71\n        /* \"#utility.yul\":6924:6927   */\n      0xe0\n        /* \"#utility.yul\":6920:6940   */\n      shl\n        /* \"#utility.yul\":6917:6918   */\n      0x00\n        /* \"#utility.yul\":6910:6941   */\n      mstore\n        /* \"#utility.yul\":6960:6964   */\n      0x32\n        /* \"#utility.yul\":6957:6958   */\n      0x04\n        /* \"#utility.yul\":6950:6965   */\n      mstore\n        /* \"#utility.yul\":6984:6988   */\n      0x24\n        /* \"#utility.yul\":6981:6982   */\n      0x00\n        /* \"#utility.yul\":6974:6989   */\n      revert\n        /* \"#utility.yul\":7000:7537   */\n    tag_115:\n        /* \"#utility.yul\":7239:7241   */\n      0x60\n        /* \"#utility.yul\":7228:7237   */\n      dup2\n        /* \"#utility.yul\":7221:7242   */\n      mstore\n        /* \"#utility.yul\":7202:7206   */\n      0x00\n        /* \"#utility.yul\":7265:7309   */\n      tag_424\n        /* \"#utility.yul\":7305:7307   */\n      0x60\n        /* \"#utility.yul\":7294:7303   */\n      dup4\n        /* \"#utility.yul\":7290:7308   */\n      add\n        /* \"#utility.yul\":7282:7288   */\n      dup7\n        /* \"#utility.yul\":7265:7309   */\n      tag_358\n      jump\t// in\n    tag_424:\n        /* \"#utility.yul\":7357:7366   */\n      dup3\n        /* \"#utility.yul\":7349:7355   */\n      dup2\n        /* \"#utility.yul\":7345:7367   */\n      sub\n        /* \"#utility.yul\":7340:7342   */\n      0x20\n        /* \"#utility.yul\":7329:7338   */\n      dup5\n        /* \"#utility.yul\":7325:7343   */\n      add\n        /* \"#utility.yul\":7318:7368   */\n      mstore\n        /* \"#utility.yul\":7391:7423   */\n      tag_425\n        /* \"#utility.yul\":7416:7422   */\n      dup2\n        /* \"#utility.yul\":7408:7414   */\n      dup7\n        /* \"#utility.yul\":7391:7423   */\n      tag_358\n      jump\t// in\n    tag_425:\n        /* \"#utility.yul\":7377:7423   */\n      swap1\n      pop\n        /* \"#utility.yul\":7471:7480   */\n      dup3\n        /* \"#utility.yul\":7463:7469   */\n      dup2\n        /* \"#utility.yul\":7459:7481   */\n      sub\n        /* \"#utility.yul\":7454:7456   */\n      0x40\n        /* \"#utility.yul\":7443:7452   */\n      dup5\n        /* \"#utility.yul\":7439:7457   */\n      add\n        /* \"#utility.yul\":7432:7482   */\n      mstore\n        /* \"#utility.yul\":7499:7531   */\n      tag_71\n        /* \"#utility.yul\":7524:7530   */\n      dup2\n        /* \"#utility.yul\":7516:7522   */\n      dup6\n        /* \"#utility.yul\":7499:7531   */\n      tag_358\n      jump\t// in\n        /* \"#utility.yul\":8184:8368   */\n    tag_134:\n        /* \"#utility.yul\":8254:8260   */\n      0x00\n        /* \"#utility.yul\":8307:8309   */\n      0x20\n        /* \"#utility.yul\":8295:8304   */\n      dup3\n        /* \"#utility.yul\":8286:8293   */\n      dup5\n        /* \"#utility.yul\":8282:8305   */\n      sub\n        /* \"#utility.yul\":8278:8310   */\n      slt\n        /* \"#utility.yul\":8275:8327   */\n      iszero\n      tag_431\n      jumpi\n        /* \"#utility.yul\":8323:8324   */\n      0x00\n        /* \"#utility.yul\":8320:8321   */\n      dup1\n        /* \"#utility.yul\":8313:8325   */\n      revert\n        /* \"#utility.yul\":8275:8327   */\n    tag_431:\n      pop\n        /* \"#utility.yul\":8346:8362   */\n      mload\n      swap2\n        /* \"#utility.yul\":8184:8368   */\n      swap1\n      pop\n      jump\t// out\n        /* \"#utility.yul\":10015:10142   */\n    tag_362:\n        /* \"#utility.yul\":10076:10086   */\n      0x4e487b71\n        /* \"#utility.yul\":10071:10074   */\n      0xe0\n        /* \"#utility.yul\":10067:10087   */\n      shl\n        /* \"#utility.yul\":10064:10065   */\n      0x00\n        /* \"#utility.yul\":10057:10088   */\n      mstore\n        /* \"#utility.yul\":10107:10111   */\n      0x11\n        /* \"#utility.yul\":10104:10105   */\n      0x04\n        /* \"#utility.yul\":10097:10112   */\n      mstore\n        /* \"#utility.yul\":10131:10135   */\n      0x24\n        /* \"#utility.yul\":10128:10129   */\n      0x00\n        /* \"#utility.yul\":10121:10136   */\n      revert\n        /* \"#utility.yul\":10147:10272   */\n    tag_200:\n        /* \"#utility.yul\":10212:10221   */\n      dup1\n      dup3\n      add\n        /* \"#utility.yul\":10233:10243   */\n      dup1\n      dup3\n      gt\n        /* \"#utility.yul\":10230:10266   */\n      iszero\n      tag_162\n      jumpi\n        /* \"#utility.yul\":10246:10264   */\n      tag_162\n      tag_362\n      jump\t// in\n        /* \"#utility.yul\":10277:10405   */\n    tag_208:\n        /* \"#utility.yul\":10344:10353   */\n      dup2\n      dup2\n      sub\n        /* \"#utility.yul\":10365:10376   */\n      dup2\n      dup2\n      gt\n        /* \"#utility.yul\":10362:10399   */\n      iszero\n      tag_162\n      jumpi\n        /* \"#utility.yul\":10379:10397   */\n      tag_162\n      tag_362\n      jump\t// in\n        /* \"#utility.yul\":10410:10545   */\n    tag_239:\n        /* \"#utility.yul\":10449:10452   */\n      0x00\n        /* \"#utility.yul\":10470:10487   */\n      0x01\n      dup3\n      add\n        /* \"#utility.yul\":10467:10510   */\n      tag_445\n      jumpi\n        /* \"#utility.yul\":10490:10508   */\n      tag_445\n      tag_362\n      jump\t// in\n    tag_445:\n      pop\n        /* \"#utility.yul\":10537:10538   */\n      0x01\n        /* \"#utility.yul\":10526:10539   */\n      add\n      swap1\n        /* \"#utility.yul\":10410:10545   */\n      jump\t// out\n        /* \"#utility.yul\":10550:10701   */\n    tag_283:\n        /* \"#utility.yul\":10640:10644   */\n      0xff\n        /* \"#utility.yul\":10633:10645   */\n      dup3\n      dup2\n      and\n        /* \"#utility.yul\":10619:10631   */\n      dup3\n      dup3\n      and\n        /* \"#utility.yul\":10615:10646   */\n      sub\n      swap1\n        /* \"#utility.yul\":10658:10672   */\n      dup2\n      gt\n        /* \"#utility.yul\":10655:10695   */\n      iszero\n      tag_162\n      jumpi\n        /* \"#utility.yul\":10675:10693   */\n      tag_162\n      tag_362\n      jump\t// in\n        /* \"#utility.yul\":10706:10931   */\n    tag_285:\n        /* \"#utility.yul\":10810:10814   */\n      0xff\n        /* \"#utility.yul\":10789:10801   */\n      dup2\n      dup2\n      and\n        /* \"#utility.yul\":10803:10815   */\n      dup4\n      dup3\n      and\n        /* \"#utility.yul\":10785:10816   */\n      mul\n        /* \"#utility.yul\":10836:10858   */\n      swap1\n      dup2\n      and\n      swap1\n        /* \"#utility.yul\":10877:10901   */\n      dup2\n      dup2\n      eq\n        /* \"#utility.yul\":10867:10925   */\n      tag_451\n      jumpi\n        /* \"#utility.yul\":10905:10923   */\n      tag_451\n      tag_362\n      jump\t// in\n    tag_451:\n        /* \"#utility.yul\":10867:10925   */\n      pop\n        /* \"#utility.yul\":10706:10931   */\n      swap3\n      swap2\n      pop\n      pop\n      jump\t// out\n        /* \"#utility.yul\":10936:11063   */\n    tag_363:\n        /* \"#utility.yul\":10997:11007   */\n      0x4e487b71\n        /* \"#utility.yul\":10992:10995   */\n      0xe0\n        /* \"#utility.yul\":10988:11008   */\n      shl\n        /* \"#utility.yul\":10985:10986   */\n      0x00\n        /* \"#utility.yul\":10978:11009   */\n      mstore\n        /* \"#utility.yul\":11028:11032   */\n      0x12\n        /* \"#utility.yul\":11025:11026   */\n      0x04\n        /* \"#utility.yul\":11018:11033   */\n      mstore\n        /* \"#utility.yul\":11052:11056   */\n      0x24\n        /* \"#utility.yul\":11049:11050   */\n      0x00\n        /* \"#utility.yul\":11042:11057   */\n      revert\n        /* \"#utility.yul\":11068:11180   */\n    tag_327:\n        /* \"#utility.yul\":11100:11101   */\n      0x00\n        /* \"#utility.yul\":11126:11127   */\n      dup3\n        /* \"#utility.yul\":11116:11151   */\n      tag_455\n      jumpi\n        /* \"#utility.yul\":11131:11149   */\n      tag_455\n      tag_363\n      jump\t// in\n    tag_455:\n      pop\n        /* \"#utility.yul\":11165:11174   */\n      mod\n      swap1\n        /* \"#utility.yul\":11068:11180   */\n      jump\t// out\n        /* \"#utility.yul\":11542:11662   */\n    tag_332:\n        /* \"#utility.yul\":11582:11583   */\n      0x00\n        /* \"#utility.yul\":11608:11609   */\n      dup3\n        /* \"#utility.yul\":11598:11633   */\n      tag_459\n      jumpi\n        /* \"#utility.yul\":11613:11631   */\n      tag_459\n      tag_363\n      jump\t// in\n    tag_459:\n      pop\n        /* \"#utility.yul\":11647:11656   */\n      div\n      swap1\n        /* \"#utility.yul\":11542:11662   */\n      jump\t// out\n        /* \"#utility.yul\":11667:11835   */\n    tag_334:\n        /* \"#utility.yul\":11740:11749   */\n      dup1\n      dup3\n      mul\n        /* \"#utility.yul\":11771:11780   */\n      dup2\n      iszero\n        /* \"#utility.yul\":11788:11803   */\n      dup3\n      dup3\n      div\n        /* \"#utility.yul\":11782:11804   */\n      dup5\n      eq\n        /* \"#utility.yul\":11768:11805   */\n      or\n        /* \"#utility.yul\":11758:11829   */\n      tag_162\n      jumpi\n        /* \"#utility.yul\":11809:11827   */\n      tag_162\n      tag_362\n      jump\t// in\n    stop\n    data_cbed483d4f9f83dd52b06773fd58dd8723113252a85374752ef109e22dfa50f9 000000000000000000000000000000000000000000000000000000000000000000000000000000000000003e0000003f3435363738393a3b3c3d00000000000000000102030405060708090a0b0c0d0e0f101112131415161718190000000000001a1b1c1d1e1f202122232425262728292a2b2c2d2e2f303132330000000000\n\n    auxdata: 0xa2646970667358221220055ca4e0a02250a38c814758aeb863d67a5304a4f2dfcd172075ba2ca5bd730f64736f6c63430008160033\n}\n",
				"bytecode": {
					"linkReferences": {
						"src/utils/DateTime.sol": {
							"DateTime": [
								{
									"length": 20,
									"start": 2499
								},
								{
									"length": 20,
									"start": 2753
								}
							]
						}
					},
					"object": "60806040527f3de47aea313c51d32b98c39a135f6c7fdc4999d05991585fa378bc8d22aef8426001557f22697376456e636c61766551756f7465537461747573223a224f4b2200000000600255600680546001600160b81b0319167622697376456e636c61766551756f7465426f6479223a2217905534801562000081575f80fd5b5060405162001b2e38038062001b2e833981016040819052620000a4916200022d565b3380620000ca57604051631e4fbdf760e01b81525f600482015260240160405180910390fd5b620000d5816200011d565b506003620000e484826200033e565b506004620000f383826200033e565b50600580546001600160a01b0319166001600160a01b0392909216919091179055506200040a9050565b5f80546001600160a01b038381166001600160a01b0319831681178455604051919092169283917f8be0079c531659141344cd1fd0a4f28419497f9722a3daafe3b4186f6b6457e09190a35050565b634e487b7160e01b5f52604160045260245ffd5b5f82601f83011262000190575f80fd5b81516001600160401b0380821115620001ad57620001ad6200016c565b604051601f8301601f19908116603f01168101908282118183101715620001d857620001d86200016c565b8160405283815260209250866020858801011115620001f5575f80fd5b5f91505b83821015620002185785820183015181830184015290820190620001f9565b5f602085830101528094505050505092915050565b5f805f6060848603121562000240575f80fd5b83516001600160401b038082111562000257575f80fd5b620002658783880162000180565b945060208601519150808211156200027b575f80fd5b506200028a8682870162000180565b604086015190935090506001600160a01b0381168114620002a9575f80fd5b809150509250925092565b600181811c90821680620002c957607f821691505b602082108103620002e857634e487b7160e01b5f52602260045260245ffd5b50919050565b601f8211156200033957805f5260205f20601f840160051c81016020851015620003155750805b601f840160051c820191505b8181101562000336575f815560010162000321565b50505b505050565b81516001600160401b038111156200035a576200035a6200016c565b62000372816200036b8454620002b4565b84620002ee565b602080601f831160018114620003a8575f8415620003905750858301515b5f19600386901b1c1916600185901b17855562000402565b5f85815260208120601f198616915b82811015620003d857888601518255948401946001909101908401620003b7565b5085821015620003f657878501515f19600388901b60f8161c191681555b505060018460011b0185555b505050505050565b61171680620004185f395ff3fe608060405234801561000f575f80fd5b50600436106100b1575f3560e01c8063721d9bc41161006e578063721d9bc41461016a5780637221e6fc1461017d57806389cccf61146101855780638da5cb5b14610198578063e35f1a83146101a8578063f2fde38b146101bb575f80fd5b80633553d6ee146100b55780633e1c075a146100d357806344a73684146100f6578063462b26531461011e57806358d1c11b14610149578063715018a614610160575b5f80fd5b6100bd6101ce565b6040516100ca9190611202565b60405180910390f35b6100e66100e1366004611259565b61025a565b60405190151581526020016100ca565b6006546101039060481b81565b60405168ffffffffffffffffff1990911681526020016100ca565b600554610131906001600160a01b031681565b6040516001600160a01b0390911681526020016100ca565b61015260015481565b6040519081526020016100ca565b6101686103cb565b005b6100bd610178366004611389565b6103de565b6100bd6107bd565b6101686101933660046113e9565b6107ca565b5f546001600160a01b0316610131565b6101526101b6366004611400565b61083a565b6101686101c936600461143f565b61089c565b600380546101db90611465565b80601f016020809104026020016040519081016040528092919081815260200182805461020790611465565b80156102525780601f1061022957610100808354040283529160200191610252565b820191905f5260205f20905b81548152906001019060200180831161023557829003601f168201915b505050505081565b5f8061032488888080601f0160208091040260200160405190810160405280939291908181526020018383808284375f9201919091525050600380549092506102a39150611465565b80601f01602080910402602001604051908101604052809291908181526020018280546102cf90611465565b801561031a5780601f106102f15761010080835404028352916020019161031a565b820191905f5260205f20905b8154815290600101906020018083116102fd57829003601f168201915b50505050506103de565b60055460405163de8f50a160e01b81529192506001600160a01b03169063de8f50a19061035d9084908a908a908a908a906004016114c5565b602060405180830381865afa158015610378573d5f803e3d5ffd5b505050506040513d601f19601f8201168201806040525081019061039c91906114ff565b15155f036103ad575f9150506103c1565b5f6103b8878761083a565b60015414925050505b9695505050505050565b6103d36108d9565b6103dc5f610905565b565b60605f805f6103ec86610954565b92506103f8868461095f565b9250610404868461095f565b9150856001600160501b038316815181106104215761042161151e565b01602001516001600160f81b031916600560fd1b03610447576104448683610a03565b91505b6104518683610a03565b915061045d868361095f565b91506104698684610a03565b90506104758682610a03565b6005549091506001600160a01b031663de8f50a1866104948987610a20565b61049e8a86610a5b565b6040518463ffffffff1660e01b81526004016104bc93929190611532565b602060405180830381865afa1580156104d7573d5f803e3d5ffd5b505050506040513d601f19601f820116820180604052508101906104fb91906114ff565b6105605760405162461bcd60e51b815260206004820152602b60248201527f4174746573746174696f6e56657269666965723a205369676e6174757265206460448201526a0decae6dce840dac2e8c6d60ab1b60648201526084015b60405180910390fd5b61056a868461095f565b92506105768684610a03565b92506105828684610a03565b925061058e8684610a03565b925061059a8684610a03565b92506105a6868461095f565b91505f73__$3121b8144e26f5a8fcc440b7b32d4f2d0e$__63095385c66105cd8986610a5b565b6040518263ffffffff1660e01b81526004016105e99190611202565b602060405180830381865af4158015610604573d5f803e3d5ffd5b505050506040513d601f19601f82011682018060405250810190610628919061156a565b9050428164ffffffffff16111561069a5760405162461bcd60e51b815260206004820152603060248201527f4174746573746174696f6e5665726966793a204365727469666963617465206960448201526f39903737ba103cb2ba103b30b634b21760811b6064820152608401610557565b6106a48784610a03565b92505f73__$3121b8144e26f5a8fcc440b7b32d4f2d0e$__63095385c66106cb8a87610a5b565b6040518263ffffffff1660e01b81526004016106e79190611202565b602060405180830381865af4158015610702573d5f803e3d5ffd5b505050506040513d601f19601f82011682018060405250810190610726919061156a565b9050428164ffffffffff16101561078f5760405162461bcd60e51b815260206004820152602760248201527f4174746573746174696f6e5665726966793a20436572746966696361746520656044820152663c3834b932b21760c91b6064820152608401610557565b6107998886610a03565b94506107a58886610a03565b94506107b18886610a20565b98975050505050505050565b600480546101db90611465565b6107d26108d9565b806108355760405162461bcd60e51b815260206004820152602d60248201527f4578706563746564204d52454e434c4156452063616e2774206265207365742060448201526c746f207a65726f20627974657360981b6064820152608401610557565b600155565b5f8061088184848080601f0160208091040260200160405190810160405280939291908181526020018383808284375f920191909152505060065460481b9150610a749050565b90505f6108918260706020610c42565b925050505b92915050565b6108a46108d9565b6001600160a01b0381166108cd57604051631e4fbdf760e01b81525f6004820152602401610557565b6108d681610905565b50565b5f546001600160a01b031633146103dc5760405163118cdaa760e01b8152336004820152602401610557565b5f80546001600160a01b038381166001600160a01b0319831681178455604051919092169283917f8be0079c531659141344cd1fd0a4f28419497f9722a3daafe3b4186f6b6457e09190a35050565b5f610896825f610c7f565b5f826001600160501b0383168151811061097b5761097b61151e565b0160200151600160fd1b908116146109e05760405162461bcd60e51b815260206004820152602260248201527f41736e316465636f64653a204e6f74206120636f6e7374727563746564207479604482015261706560f01b6064820152608401610557565b6109fc83605084901c6001600160501b0316610c7f565b610c7f565b9392505050565b5f6109fc836109f76001600160501b0360a086901c166001611595565b60606109fc6001600160501b038316805b610a496001600160501b0360a087901c166001611595565b610a5391906115a8565b859190610e2c565b60606109fc6001600160501b03605084901c1680610a31565b60605f6017610a838585610eac565b610a8d9190611595565b90505f818551610a9d91906115a8565b90505f808267ffffffffffffffff811115610aba57610aba6112ec565b6040519080825280601f01601f191660200182016040528015610ae4576020820181803683370190505b5090505f5b83811015610b895787610afc8287611595565b81518110610b0c57610b0c61151e565b6020910101516001600160f81b031916601160f91b14610b895787610b318287611595565b81518110610b4157610b4161151e565b602001015160f81c60f81b828281518110610b5e57610b5e61151e565b60200101906001600160f81b03191690815f1a90535082610b7e816115bb565b935050600101610ae9565b505f8267ffffffffffffffff811115610ba457610ba46112ec565b6040519080825280601f01601f191660200182016040528015610bce576020820181803683370190505b5090505f5b83811015610c2857828181518110610bed57610bed61151e565b602001015160f81c60f81b828281518110610c0a57610c0a61151e565b60200101906001600160f81b03191690815f1a905350600101610bd3565b50805f610c3482610f74565b9a9950505050505050505050565b5f6020821115610c50575f80fd5b8351610c5c8385611595565b1115610c66575f80fd5b506020919092018101519190036101000a5f1901191690565b5f80808085610c8f866001611595565b81518110610c9f57610c9f61151e565b0160200151600160ff1b165f03610d095785610cbc866001611595565b81518110610ccc57610ccc61151e565b016020015160f81c9250610ce1856002611595565b91506001610cf8846001600160501b038516611595565b610d0291906115a8565b9050610dfc565b5f86610d16876001611595565b81518110610d2657610d2661151e565b60209101015160f81c607f1690506001819003610d5c57610d52610d4b876002611595565b8890611121565b60ff169350610dbe565b8060ff16600203610d8757610d7c610d75876002611595565b8890611144565b61ffff169350610dbe565b610d928160206115d3565b610d9d9060086115ec565b60ff16610db9610dae886002611595565b899060ff8516610c42565b901c93505b60ff8116610dcd876002611595565b610dd79190611595565b92506001610dee856001600160501b038616611595565b610df891906115a8565b9150505b69ffffffffffffffffffff60a01b60a082901b1669ffffffffffffffffffff60501b605084901b168617176103c1565b8251606090610e3b8385611595565b1115610e45575f80fd5b5f8267ffffffffffffffff811115610e5f57610e5f6112ec565b6040519080825280601f01601f191660200182016040528015610e89576020820181803683370190505b50905060208082019086860101610ea182828761116a565b509095945050505050565b81515f9060179080821115610ec6575f1992505050610896565b5f5b610ed283836115a8565b8111610f685760015f5b84811015610f4357868160178110610ef657610ef661151e565b1a60f81b6001600160f81b03191688610f0f8386611595565b81518110610f1f57610f1f61151e565b01602001516001600160f81b03191614610f3b575f9150610f43565b600101610edc565b508015610f5557509250610896915050565b5080610f60816115bb565b915050610ec8565b505f1995945050505050565b805160609082905f03610f96575050604080515f815260208101909152919050565b60048151610fa49190611623565b15610ff15760405162461bcd60e51b815260206004820152601c60248201527f696e76616c696420626173653634206465636f64657220696e707574000000006044820152606401610557565b5f6040518060a00160405280608081526020016116616080913990505f6004835161101c9190611636565b611027906003611649565b90505f611035826020611595565b67ffffffffffffffff81111561104d5761104d6112ec565b6040519080825280601f01601f191660200182016040528015611077576020820181803683370190505b5090508351840151603d60ff8216036110a457600183039250613d3d61ffff8216036110a4576001830392505b50818152600183018485518101602084015b8183101561111357600483019250825160ff8082168601511660ff808360081c168701511660061b0160ff808360101c1687015116600c1b60ff808460181c168801511660121b010190508060e81b8252506003810190506110b6565b509298975050505050505050565b5f8282815181106111345761113461151e565b016020015160f81c905092915050565b81515f90611153836002611595565b111561115d575f80fd5b50016002015161ffff1690565b602081106111a25781518352611181602084611595565b925061118e602083611595565b915061119b6020826115a8565b905061116a565b905182516020929092036101000a5f190180199091169116179052565b5f81518084525f5b818110156111e3576020818501810151868301820152016111c7565b505f602082860101526020601f19601f83011685010191505092915050565b602081525f6109fc60208301846111bf565b5f8083601f840112611224575f80fd5b50813567ffffffffffffffff81111561123b575f80fd5b602083019150836020828501011115611252575f80fd5b9250929050565b5f805f805f806060878903121561126e575f80fd5b863567ffffffffffffffff80821115611285575f80fd5b6112918a838b01611214565b909850965060208901359150808211156112a9575f80fd5b6112b58a838b01611214565b909650945060408901359150808211156112cd575f80fd5b506112da89828a01611214565b979a9699509497509295939492505050565b634e487b7160e01b5f52604160045260245ffd5b5f82601f83011261130f575f80fd5b813567ffffffffffffffff8082111561132a5761132a6112ec565b604051601f8301601f19908116603f01168101908282118183101715611352576113526112ec565b8160405283815286602085880101111561136a575f80fd5b836020870160208301375f602085830101528094505050505092915050565b5f806040838503121561139a575f80fd5b823567ffffffffffffffff808211156113b1575f80fd5b6113bd86838701611300565b935060208501359150808211156113d2575f80fd5b506113df85828601611300565b9150509250929050565b5f602082840312156113f9575f80fd5b5035919050565b5f8060208385031215611411575f80fd5b823567ffffffffffffffff811115611427575f80fd5b61143385828601611214565b90969095509350505050565b5f6020828403121561144f575f80fd5b81356001600160a01b03811681146109fc575f80fd5b600181811c9082168061147957607f821691505b60208210810361149757634e487b7160e01b5f52602260045260245ffd5b50919050565b81835281816020850137505f828201602090810191909152601f909101601f19169091010190565b606081525f6114d760608301886111bf565b82810360208401526114ea81878961149d565b905082810360408401526107b181858761149d565b5f6020828403121561150f575f80fd5b815180151581146109fc575f80fd5b634e487b7160e01b5f52603260045260245ffd5b606081525f61154460608301866111bf565b828103602084015261155681866111bf565b905082810360408401526103c181856111bf565b5f6020828403121561157a575f80fd5b5051919050565b634e487b7160e01b5f52601160045260245ffd5b8082018082111561089657610896611581565b8181038181111561089657610896611581565b5f600182016115cc576115cc611581565b5060010190565b60ff828116828216039081111561089657610896611581565b60ff818116838216029081169081811461160857611608611581565b5092915050565b634e487b7160e01b5f52601260045260245ffd5b5f826116315761163161160f565b500690565b5f826116445761164461160f565b500490565b80820281158282048414176108965761089661158156fe000000000000000000000000000000000000000000000000000000000000000000000000000000000000003e0000003f3435363738393a3b3c3d00000000000000000102030405060708090a0b0c0d0e0f101112131415161718190000000000001a1b1c1d1e1f202122232425262728292a2b2c2d2e2f303132330000000000a2646970667358221220055ca4e0a02250a38c814758aeb863d67a5304a4f2dfcd172075ba2ca5bd730f64736f6c63430008160033",
					"opcodes": "PUSH1 0x80 PUSH1 0x40 MSTORE PUSH32 0x3DE47AEA313C51D32B98C39A135F6C7FDC4999D05991585FA378BC8D22AEF842 PUSH1 0x1 SSTORE PUSH32 0x22697376456E636C61766551756F7465537461747573223A224F4B2200000000 PUSH1 0x2 SSTORE PUSH1 0x6 DUP1 SLOAD PUSH1 0x1 PUSH1 0x1 PUSH1 0xB8 SHL SUB NOT AND PUSH23 0x22697376456E636C61766551756F7465426F6479223A22 OR SWAP1 SSTORE CALLVALUE DUP1 ISZERO PUSH3 0x81 JUMPI PUSH0 DUP1 REVERT JUMPDEST POP PUSH1 0x40 MLOAD PUSH3 0x1B2E CODESIZE SUB DUP1 PUSH3 0x1B2E DUP4 CODECOPY DUP2 ADD PUSH1 0x40 DUP2 SWAP1 MSTORE PUSH3 0xA4 SWAP2 PUSH3 0x22D JUMP JUMPDEST CALLER DUP1 PUSH3 0xCA JUMPI PUSH1 0x40 MLOAD PUSH4 0x1E4FBDF7 PUSH1 0xE0 SHL DUP2 MSTORE PUSH0 PUSH1 0x4 DUP3 ADD MSTORE PUSH1 0x24 ADD PUSH1 0x40 MLOAD DUP1 SWAP2 SUB SWAP1 REVERT JUMPDEST PUSH3 0xD5 DUP2 PUSH3 0x11D JUMP JUMPDEST POP PUSH1 0x3 PUSH3 0xE4 DUP5 DUP3 PUSH3 0x33E JUMP JUMPDEST POP PUSH1 0x4 PUSH3 0xF3 DUP4 DUP3 PUSH3 0x33E JUMP JUMPDEST POP PUSH1 0x5 DUP1 SLOAD PUSH1 0x1 PUSH1 0x1 PUSH1 0xA0 SHL SUB NOT AND PUSH1 0x1 PUSH1 0x1 PUSH1 0xA0 SHL SUB SWAP3 SWAP1 SWAP3 AND SWAP2 SWAP1 SWAP2 OR SWAP1 SSTORE POP PUSH3 0x40A SWAP1 POP JUMP JUMPDEST PUSH0 DUP1 SLOAD PUSH1 0x1 PUSH1 0x1 PUSH1 0xA0 SHL SUB DUP4 DUP2 AND PUSH1 0x1 PUSH1 0x1 PUSH1 0xA0 SHL SUB NOT DUP4 AND DUP2 OR DUP5 SSTORE PUSH1 0x40 MLOAD SWAP2 SWAP1 SWAP3 AND SWAP3 DUP4 SWAP2 PUSH32 0x8BE0079C531659141344CD1FD0A4F28419497F9722A3DAAFE3B4186F6B6457E0 SWAP2 SWAP1 LOG3 POP POP JUMP JUMPDEST PUSH4 0x4E487B71 PUSH1 0xE0 SHL PUSH0 MSTORE PUSH1 0x41 PUSH1 0x4 MSTORE PUSH1 0x24 PUSH0 REVERT JUMPDEST PUSH0 DUP3 PUSH1 0x1F DUP4 ADD SLT PUSH3 0x190 JUMPI PUSH0 DUP1 REVERT JUMPDEST DUP2 MLOAD PUSH1 0x1 PUSH1 0x1 PUSH1 0x40 SHL SUB DUP1 DUP3 GT ISZERO PUSH3 0x1AD JUMPI PUSH3 0x1AD PUSH3 0x16C JUMP JUMPDEST PUSH1 0x40 MLOAD PUSH1 0x1F DUP4 ADD PUSH1 0x1F NOT SWAP1 DUP2 AND PUSH1 0x3F ADD AND DUP2 ADD SWAP1 DUP3 DUP3 GT DUP2 DUP4 LT OR ISZERO PUSH3 0x1D8 JUMPI PUSH3 0x1D8 PUSH3 0x16C JUMP JUMPDEST DUP2 PUSH1 0x40 MSTORE DUP4 DUP2 MSTORE PUSH1 0x20 SWAP3 POP DUP7 PUSH1 0x20 DUP6 DUP9 ADD ADD GT ISZERO PUSH3 0x1F5 JUMPI PUSH0 DUP1 REVERT JUMPDEST PUSH0 SWAP2 POP JUMPDEST DUP4 DUP3 LT ISZERO PUSH3 0x218 JUMPI DUP6 DUP3 ADD DUP4 ADD MLOAD DUP2 DUP4 ADD DUP5 ADD MSTORE SWAP1 DUP3 ADD SWAP1 PUSH3 0x1F9 JUMP JUMPDEST PUSH0 PUSH1 0x20 DUP6 DUP4 ADD ADD MSTORE DUP1 SWAP5 POP POP POP POP POP SWAP3 SWAP2 POP POP JUMP JUMPDEST PUSH0 DUP1 PUSH0 PUSH1 0x60 DUP5 DUP7 SUB SLT ISZERO PUSH3 0x240 JUMPI PUSH0 DUP1 REVERT JUMPDEST DUP4 MLOAD PUSH1 0x1 PUSH1 0x1 PUSH1 0x40 SHL SUB DUP1 DUP3 GT ISZERO PUSH3 0x257 JUMPI PUSH0 DUP1 REVERT JUMPDEST PUSH3 0x265 DUP8 DUP4 DUP9 ADD PUSH3 0x180 JUMP JUMPDEST SWAP5 POP PUSH1 0x20 DUP7 ADD MLOAD SWAP2 POP DUP1 DUP3 GT ISZERO PUSH3 0x27B JUMPI PUSH0 DUP1 REVERT JUMPDEST POP PUSH3 0x28A DUP7 DUP3 DUP8 ADD PUSH3 0x180 JUMP JUMPDEST PUSH1 0x40 DUP7 ADD MLOAD SWAP1 SWAP4 POP SWAP1 POP PUSH1 0x1 PUSH1 0x1 PUSH1 0xA0 SHL SUB DUP2 AND DUP2 EQ PUSH3 0x2A9 JUMPI PUSH0 DUP1 REVERT JUMPDEST DUP1 SWAP2 POP POP SWAP3 POP SWAP3 POP SWAP3 JUMP JUMPDEST PUSH1 0x1 DUP2 DUP2 SHR SWAP1 DUP3 AND DUP1 PUSH3 0x2C9 JUMPI PUSH1 0x7F DUP3 AND SWAP2 POP JUMPDEST PUSH1 0x20 DUP3 LT DUP2 SUB PUSH3 0x2E8 JUMPI PUSH4 0x4E487B71 PUSH1 0xE0 SHL PUSH0 MSTORE PUSH1 0x22 PUSH1 0x4 MSTORE PUSH1 0x24 PUSH0 REVERT JUMPDEST POP SWAP2 SWAP1 POP JUMP JUMPDEST PUSH1 0x1F DUP3 GT ISZERO PUSH3 0x339 JUMPI DUP1 PUSH0 MSTORE PUSH1 0x20 PUSH0 KECCAK256 PUSH1 0x1F DUP5 ADD PUSH1 0x5 SHR DUP2 ADD PUSH1 0x20 DUP6 LT ISZERO PUSH3 0x315 JUMPI POP DUP1 JUMPDEST PUSH1 0x1F DUP5 ADD PUSH1 0x5 SHR DUP3 ADD SWAP2 POP JUMPDEST DUP2 DUP2 LT ISZERO PUSH3 0x336 JUMPI PUSH0 DUP2 SSTORE PUSH1 0x1 ADD PUSH3 0x321 JUMP JUMPDEST POP POP JUMPDEST POP POP POP JUMP JUMPDEST DUP2 MLOAD PUSH1 0x1 PUSH1 0x1 PUSH1 0x40 SHL SUB DUP2 GT ISZERO PUSH3 0x35A JUMPI PUSH3 0x35A PUSH3 0x16C JUMP JUMPDEST PUSH3 0x372 DUP2 PUSH3 0x36B DUP5 SLOAD PUSH3 0x2B4 JUMP JUMPDEST DUP5 PUSH3 0x2EE JUMP JUMPDEST PUSH1 0x20 DUP1 PUSH1 0x1F DUP4 GT PUSH1 0x1 DUP2 EQ PUSH3 0x3A8 JUMPI PUSH0 DUP5 ISZERO PUSH3 0x390 JUMPI POP DUP6 DUP4 ADD MLOAD JUMPDEST PUSH0 NOT PUSH1 0x3 DUP7 SWAP1 SHL SHR NOT AND PUSH1 0x1 DUP6 SWAP1 SHL OR DUP6 SSTORE PUSH3 0x402 JUMP JUMPDEST PUSH0 DUP6 DUP2 MSTORE PUSH1 0x20 DUP2 KECCAK256 PUSH1 0x1F NOT DUP7 AND SWAP2 JUMPDEST DUP3 DUP2 LT ISZERO PUSH3 0x3D8 JUMPI DUP9 DUP7 ADD MLOAD DUP3 SSTORE SWAP5 DUP5 ADD SWAP5 PUSH1 0x1 SWAP1 SWAP2 ADD SWAP1 DUP5 ADD PUSH3 0x3B7 JUMP JUMPDEST POP DUP6 DUP3 LT ISZERO PUSH3 0x3F6 JUMPI DUP8 DUP6 ADD MLOAD PUSH0 NOT PUSH1 0x3 DUP9 SWAP1 SHL PUSH1 0xF8 AND SHR NOT AND DUP2 SSTORE JUMPDEST POP POP PUSH1 0x1 DUP5 PUSH1 0x1 SHL ADD DUP6 SSTORE JUMPDEST POP POP POP POP POP POP JUMP JUMPDEST PUSH2 0x1716 DUP1 PUSH3 0x418 PUSH0 CODECOPY PUSH0 RETURN INVALID PUSH1 0x80 PUSH1 0x40 MSTORE CALLVALUE DUP1 ISZERO PUSH2 0xF JUMPI PUSH0 DUP1 REVERT JUMPDEST POP PUSH1 0x4 CALLDATASIZE LT PUSH2 0xB1 JUMPI PUSH0 CALLDATALOAD PUSH1 0xE0 SHR DUP1 PUSH4 0x721D9BC4 GT PUSH2 0x6E JUMPI DUP1 PUSH4 0x721D9BC4 EQ PUSH2 0x16A JUMPI DUP1 PUSH4 0x7221E6FC EQ PUSH2 0x17D JUMPI DUP1 PUSH4 0x89CCCF61 EQ PUSH2 0x185 JUMPI DUP1 PUSH4 0x8DA5CB5B EQ PUSH2 0x198 JUMPI DUP1 PUSH4 0xE35F1A83 EQ PUSH2 0x1A8 JUMPI DUP1 PUSH4 0xF2FDE38B EQ PUSH2 0x1BB JUMPI PUSH0 DUP1 REVERT JUMPDEST DUP1 PUSH4 0x3553D6EE EQ PUSH2 0xB5 JUMPI DUP1 PUSH4 0x3E1C075A EQ PUSH2 0xD3 JUMPI DUP1 PUSH4 0x44A73684 EQ PUSH2 0xF6 JUMPI DUP1 PUSH4 0x462B2653 EQ PUSH2 0x11E JUMPI DUP1 PUSH4 0x58D1C11B EQ PUSH2 0x149 JUMPI DUP1 PUSH4 0x715018A6 EQ PUSH2 0x160 JUMPI JUMPDEST PUSH0 DUP1 REVERT JUMPDEST PUSH2 0xBD PUSH2 0x1CE JUMP JUMPDEST PUSH1 0x40 MLOAD PUSH2 0xCA SWAP2 SWAP1 PUSH2 0x1202 JUMP JUMPDEST PUSH1 0x40 MLOAD DUP1 SWAP2 SUB SWAP1 RETURN JUMPDEST PUSH2 0xE6 PUSH2 0xE1 CALLDATASIZE PUSH1 0x4 PUSH2 0x1259 JUMP JUMPDEST PUSH2 0x25A JUMP JUMPDEST PUSH1 0x40 MLOAD SWAP1 ISZERO ISZERO DUP2 MSTORE PUSH1 0x20 ADD PUSH2 0xCA JUMP JUMPDEST PUSH1 0x6 SLOAD PUSH2 0x103 SWAP1 PUSH1 0x48 SHL DUP2 JUMP JUMPDEST PUSH1 0x40 MLOAD PUSH9 0xFFFFFFFFFFFFFFFFFF NOT SWAP1 SWAP2 AND DUP2 MSTORE PUSH1 0x20 ADD PUSH2 0xCA JUMP JUMPDEST PUSH1 0x5 SLOAD PUSH2 0x131 SWAP1 PUSH1 0x1 PUSH1 0x1 PUSH1 0xA0 SHL SUB AND DUP2 JUMP JUMPDEST PUSH1 0x40 MLOAD PUSH1 0x1 PUSH1 0x1 PUSH1 0xA0 SHL SUB SWAP1 SWAP2 AND DUP2 MSTORE PUSH1 0x20 ADD PUSH2 0xCA JUMP JUMPDEST PUSH2 0x152 PUSH1 0x1 SLOAD DUP2 JUMP JUMPDEST PUSH1 0x40 MLOAD SWAP1 DUP2 MSTORE PUSH1 0x20 ADD PUSH2 0xCA JUMP JUMPDEST PUSH2 0x168 PUSH2 0x3CB JUMP JUMPDEST STOP JUMPDEST PUSH2 0xBD PUSH2 0x178 CALLDATASIZE PUSH1 0x4 PUSH2 0x1389 JUMP JUMPDEST PUSH2 0x3DE JUMP JUMPDEST PUSH2 0xBD PUSH2 0x7BD JUMP JUMPDEST PUSH2 0x168 PUSH2 0x193 CALLDATASIZE PUSH1 0x4 PUSH2 0x13E9 JUMP JUMPDEST PUSH2 0x7CA JUMP JUMPDEST PUSH0 SLOAD PUSH1 0x1 PUSH1 0x1 PUSH1 0xA0 SHL SUB AND PUSH2 0x131 JUMP JUMPDEST PUSH2 0x152 PUSH2 0x1B6 CALLDATASIZE PUSH1 0x4 PUSH2 0x1400 JUMP JUMPDEST PUSH2 0x83A JUMP JUMPDEST PUSH2 0x168 PUSH2 0x1C9 CALLDATASIZE PUSH1 0x4 PUSH2 0x143F JUMP JUMPDEST PUSH2 0x89C JUMP JUMPDEST PUSH1 0x3 DUP1 SLOAD PUSH2 0x1DB SWAP1 PUSH2 0x1465 JUMP JUMPDEST DUP1 PUSH1 0x1F ADD PUSH1 0x20 DUP1 SWAP2 DIV MUL PUSH1 0x20 ADD PUSH1 0x40 MLOAD SWAP1 DUP2 ADD PUSH1 0x40 MSTORE DUP1 SWAP3 SWAP2 SWAP1 DUP2 DUP2 MSTORE PUSH1 0x20 ADD DUP3 DUP1 SLOAD PUSH2 0x207 SWAP1 PUSH2 0x1465 JUMP JUMPDEST DUP1 ISZERO PUSH2 0x252 JUMPI DUP1 PUSH1 0x1F LT PUSH2 0x229 JUMPI PUSH2 0x100 DUP1 DUP4 SLOAD DIV MUL DUP4 MSTORE SWAP2 PUSH1 0x20 ADD SWAP2 PUSH2 0x252 JUMP JUMPDEST DUP3 ADD SWAP2 SWAP1 PUSH0 MSTORE PUSH1 0x20 PUSH0 KECCAK256 SWAP1 JUMPDEST DUP2 SLOAD DUP2 MSTORE SWAP1 PUSH1 0x1 ADD SWAP1 PUSH1 0x20 ADD DUP1 DUP4 GT PUSH2 0x235 JUMPI DUP3 SWAP1 SUB PUSH1 0x1F AND DUP3 ADD SWAP2 JUMPDEST POP POP POP POP POP DUP2 JUMP JUMPDEST PUSH0 DUP1 PUSH2 0x324 DUP9 DUP9 DUP1 DUP1 PUSH1 0x1F ADD PUSH1 0x20 DUP1 SWAP2 DIV MUL PUSH1 0x20 ADD PUSH1 0x40 MLOAD SWAP1 DUP2 ADD PUSH1 0x40 MSTORE DUP1 SWAP4 SWAP3 SWAP2 SWAP1 DUP2 DUP2 MSTORE PUSH1 0x20 ADD DUP4 DUP4 DUP1 DUP3 DUP5 CALLDATACOPY PUSH0 SWAP3 ADD SWAP2 SWAP1 SWAP2 MSTORE POP POP PUSH1 0x3 DUP1 SLOAD SWAP1 SWAP3 POP PUSH2 0x2A3 SWAP2 POP PUSH2 0x1465 JUMP JUMPDEST DUP1 PUSH1 0x1F ADD PUSH1 0x20 DUP1 SWAP2 DIV MUL PUSH1 0x20 ADD PUSH1 0x40 MLOAD SWAP1 DUP2 ADD PUSH1 0x40 MSTORE DUP1 SWAP3 SWAP2 SWAP1 DUP2 DUP2 MSTORE PUSH1 0x20 ADD DUP3 DUP1 SLOAD PUSH2 0x2CF SWAP1 PUSH2 0x1465 JUMP JUMPDEST DUP1 ISZERO PUSH2 0x31A JUMPI DUP1 PUSH1 0x1F LT PUSH2 0x2F1 JUMPI PUSH2 0x100 DUP1 DUP4 SLOAD DIV MUL DUP4 MSTORE SWAP2 PUSH1 0x20 ADD SWAP2 PUSH2 0x31A JUMP JUMPDEST DUP3 ADD SWAP2 SWAP1 PUSH0 MSTORE PUSH1 0x20 PUSH0 KECCAK256 SWAP1 JUMPDEST DUP2 SLOAD DUP2 MSTORE SWAP1 PUSH1 0x1 ADD SWAP1 PUSH1 0x20 ADD DUP1 DUP4 GT PUSH2 0x2FD JUMPI DUP3 SWAP1 SUB PUSH1 0x1F AND DUP3 ADD SWAP2 JUMPDEST POP POP POP POP POP PUSH2 0x3DE JUMP JUMPDEST PUSH1 0x5 SLOAD PUSH1 0x40 MLOAD PUSH4 0xDE8F50A1 PUSH1 0xE0 SHL DUP2 MSTORE SWAP2 SWAP3 POP PUSH1 0x1 PUSH1 0x1 PUSH1 0xA0 SHL SUB AND SWAP1 PUSH4 0xDE8F50A1 SWAP1 PUSH2 0x35D SWAP1 DUP5 SWAP1 DUP11 SWAP1 DUP11 SWAP1 DUP11 SWAP1 DUP11 SWAP1 PUSH1 0x4 ADD PUSH2 0x14C5 JUMP JUMPDEST PUSH1 0x20 PUSH1 0x40 MLOAD DUP1 DUP4 SUB DUP2 DUP7 GAS STATICCALL ISZERO DUP1 ISZERO PUSH2 0x378 JUMPI RETURNDATASIZE PUSH0 DUP1 RETURNDATACOPY RETURNDATASIZE PUSH0 REVERT JUMPDEST POP POP POP POP PUSH1 0x40 MLOAD RETURNDATASIZE PUSH1 0x1F NOT PUSH1 0x1F DUP3 ADD AND DUP3 ADD DUP1 PUSH1 0x40 MSTORE POP DUP2 ADD SWAP1 PUSH2 0x39C SWAP2 SWAP1 PUSH2 0x14FF JUMP JUMPDEST ISZERO ISZERO PUSH0 SUB PUSH2 0x3AD JUMPI PUSH0 SWAP2 POP POP PUSH2 0x3C1 JUMP JUMPDEST PUSH0 PUSH2 0x3B8 DUP8 DUP8 PUSH2 0x83A JUMP JUMPDEST PUSH1 0x1 SLOAD EQ SWAP3 POP POP POP JUMPDEST SWAP7 SWAP6 POP POP POP POP POP POP JUMP JUMPDEST PUSH2 0x3D3 PUSH2 0x8D9 JUMP JUMPDEST PUSH2 0x3DC PUSH0 PUSH2 0x905 JUMP JUMPDEST JUMP JUMPDEST PUSH1 0x60 PUSH0 DUP1 PUSH0 PUSH2 0x3EC DUP7 PUSH2 0x954 JUMP JUMPDEST SWAP3 POP PUSH2 0x3F8 DUP7 DUP5 PUSH2 0x95F JUMP JUMPDEST SWAP3 POP PUSH2 0x404 DUP7 DUP5 PUSH2 0x95F JUMP JUMPDEST SWAP2 POP DUP6 PUSH1 0x1 PUSH1 0x1 PUSH1 0x50 SHL SUB DUP4 AND DUP2 MLOAD DUP2 LT PUSH2 0x421 JUMPI PUSH2 0x421 PUSH2 0x151E JUMP JUMPDEST ADD PUSH1 0x20 ADD MLOAD PUSH1 0x1 PUSH1 0x1 PUSH1 0xF8 SHL SUB NOT AND PUSH1 0x5 PUSH1 0xFD SHL SUB PUSH2 0x447 JUMPI PUSH2 0x444 DUP7 DUP4 PUSH2 0xA03 JUMP JUMPDEST SWAP2 POP JUMPDEST PUSH2 0x451 DUP7 DUP4 PUSH2 0xA03 JUMP JUMPDEST SWAP2 POP PUSH2 0x45D DUP7 DUP4 PUSH2 0x95F JUMP JUMPDEST SWAP2 POP PUSH2 0x469 DUP7 DUP5 PUSH2 0xA03 JUMP JUMPDEST SWAP1 POP PUSH2 0x475 DUP7 DUP3 PUSH2 0xA03 JUMP JUMPDEST PUSH1 0x5 SLOAD SWAP1 SWAP2 POP PUSH1 0x1 PUSH1 0x1 PUSH1 0xA0 SHL SUB AND PUSH4 0xDE8F50A1 DUP7 PUSH2 0x494 DUP10 DUP8 PUSH2 0xA20 JUMP JUMPDEST PUSH2 0x49E DUP11 DUP7 PUSH2 0xA5B JUMP JUMPDEST PUSH1 0x40 MLOAD DUP5 PUSH4 0xFFFFFFFF AND PUSH1 0xE0 SHL DUP2 MSTORE PUSH1 0x4 ADD PUSH2 0x4BC SWAP4 SWAP3 SWAP2 SWAP1 PUSH2 0x1532 JUMP JUMPDEST PUSH1 0x20 PUSH1 0x40 MLOAD DUP1 DUP4 SUB DUP2 DUP7 GAS STATICCALL ISZERO DUP1 ISZERO PUSH2 0x4D7 JUMPI RETURNDATASIZE PUSH0 DUP1 RETURNDATACOPY RETURNDATASIZE PUSH0 REVERT JUMPDEST POP POP POP POP PUSH1 0x40 MLOAD RETURNDATASIZE PUSH1 0x1F NOT PUSH1 0x1F DUP3 ADD AND DUP3 ADD DUP1 PUSH1 0x40 MSTORE POP DUP2 ADD SWAP1 PUSH2 0x4FB SWAP2 SWAP1 PUSH2 0x14FF JUMP JUMPDEST PUSH2 0x560 JUMPI PUSH1 0x40 MLOAD PUSH3 0x461BCD PUSH1 0xE5 SHL DUP2 MSTORE PUSH1 0x20 PUSH1 0x4 DUP3 ADD MSTORE PUSH1 0x2B PUSH1 0x24 DUP3 ADD MSTORE PUSH32 0x4174746573746174696F6E56657269666965723A205369676E61747572652064 PUSH1 0x44 DUP3 ADD MSTORE PUSH11 0xDECAE6DCE840DAC2E8C6D PUSH1 0xAB SHL PUSH1 0x64 DUP3 ADD MSTORE PUSH1 0x84 ADD JUMPDEST PUSH1 0x40 MLOAD DUP1 SWAP2 SUB SWAP1 REVERT JUMPDEST PUSH2 0x56A DUP7 DUP5 PUSH2 0x95F JUMP JUMPDEST SWAP3 POP PUSH2 0x576 DUP7 DUP5 PUSH2 0xA03 JUMP JUMPDEST SWAP3 POP PUSH2 0x582 DUP7 DUP5 PUSH2 0xA03 JUMP JUMPDEST SWAP3 POP PUSH2 0x58E DUP7 DUP5 PUSH2 0xA03 JUMP JUMPDEST SWAP3 POP PUSH2 0x59A DUP7 DUP5 PUSH2 0xA03 JUMP JUMPDEST SWAP3 POP PUSH2 0x5A6 DUP7 DUP5 PUSH2 0x95F JUMP JUMPDEST SWAP2 POP PUSH0 PUSH20 0x0 PUSH4 0x95385C6 PUSH2 0x5CD DUP10 DUP7 PUSH2 0xA5B JUMP JUMPDEST PUSH1 0x40 MLOAD DUP3 PUSH4 0xFFFFFFFF AND PUSH1 0xE0 SHL DUP2 MSTORE PUSH1 0x4 ADD PUSH2 0x5E9 SWAP2 SWAP1 PUSH2 0x1202 JUMP JUMPDEST PUSH1 0x20 PUSH1 0x40 MLOAD DUP1 DUP4 SUB DUP2 DUP7 GAS DELEGATECALL ISZERO DUP1 ISZERO PUSH2 0x604 JUMPI RETURNDATASIZE PUSH0 DUP1 RETURNDATACOPY RETURNDATASIZE PUSH0 REVERT JUMPDEST POP POP POP POP PUSH1 0x40 MLOAD RETURNDATASIZE PUSH1 0x1F NOT PUSH1 0x1F DUP3 ADD AND DUP3 ADD DUP1 PUSH1 0x40 MSTORE POP DUP2 ADD SWAP1 PUSH2 0x628 SWAP2 SWAP1 PUSH2 0x156A JUMP JUMPDEST SWAP1 POP TIMESTAMP DUP2 PUSH5 0xFFFFFFFFFF AND GT ISZERO PUSH2 0x69A JUMPI PUSH1 0x40 MLOAD PUSH3 0x461BCD PUSH1 0xE5 SHL DUP2 MSTORE PUSH1 0x20 PUSH1 0x4 DUP3 ADD MSTORE PUSH1 0x30 PUSH1 0x24 DUP3 ADD MSTORE PUSH32 0x4174746573746174696F6E5665726966793A2043657274696669636174652069 PUSH1 0x44 DUP3 ADD MSTORE PUSH16 0x39903737BA103CB2BA103B30B634B217 PUSH1 0x81 SHL PUSH1 0x64 DUP3 ADD MSTORE PUSH1 0x84 ADD PUSH2 0x557 JUMP JUMPDEST PUSH2 0x6A4 DUP8 DUP5 PUSH2 0xA03 JUMP JUMPDEST SWAP3 POP PUSH0 PUSH20 0x0 PUSH4 0x95385C6 PUSH2 0x6CB DUP11 DUP8 PUSH2 0xA5B JUMP JUMPDEST PUSH1 0x40 MLOAD DUP3 PUSH4 0xFFFFFFFF AND PUSH1 0xE0 SHL DUP2 MSTORE PUSH1 0x4 ADD PUSH2 0x6E7 SWAP2 SWAP1 PUSH2 0x1202 JUMP JUMPDEST PUSH1 0x20 PUSH1 0x40 MLOAD DUP1 DUP4 SUB DUP2 DUP7 GAS DELEGATECALL ISZERO DUP1 ISZERO PUSH2 0x702 JUMPI RETURNDATASIZE PUSH0 DUP1 RETURNDATACOPY RETURNDATASIZE PUSH0 REVERT JUMPDEST POP POP POP POP PUSH1 0x40 MLOAD RETURNDATASIZE PUSH1 0x1F NOT PUSH1 0x1F DUP3 ADD AND DUP3 ADD DUP1 PUSH1 0x40 MSTORE POP DUP2 ADD SWAP1 PUSH2 0x726 SWAP2 SWAP1 PUSH2 0x156A JUMP JUMPDEST SWAP1 POP TIMESTAMP DUP2 PUSH5 0xFFFFFFFFFF AND LT ISZERO PUSH2 0x78F JUMPI PUSH1 0x40 MLOAD PUSH3 0x461BCD PUSH1 0xE5 SHL DUP2 MSTORE PUSH1 0x20 PUSH1 0x4 DUP3 ADD MSTORE PUSH1 0x27 PUSH1 0x24 DUP3 ADD MSTORE PUSH32 0x4174746573746174696F6E5665726966793A2043657274696669636174652065 PUSH1 0x44 DUP3 ADD MSTORE PUSH7 0x3C3834B932B217 PUSH1 0xC9 SHL PUSH1 0x64 DUP3 ADD MSTORE PUSH1 0x84 ADD PUSH2 0x557 JUMP JUMPDEST PUSH2 0x799 DUP9 DUP7 PUSH2 0xA03 JUMP JUMPDEST SWAP5 POP PUSH2 0x7A5 DUP9 DUP7 PUSH2 0xA03 JUMP JUMPDEST SWAP5 POP PUSH2 0x7B1 DUP9 DUP7 PUSH2 0xA20 JUMP JUMPDEST SWAP9 SWAP8 POP POP POP POP POP POP POP POP JUMP JUMPDEST PUSH1 0x4 DUP1 SLOAD PUSH2 0x1DB SWAP1 PUSH2 0x1465 JUMP JUMPDEST PUSH2 0x7D2 PUSH2 0x8D9 JUMP JUMPDEST DUP1 PUSH2 0x835 JUMPI PUSH1 0x40 MLOAD PUSH3 0x461BCD PUSH1 0xE5 SHL DUP2 MSTORE PUSH1 0x20 PUSH1 0x4 DUP3 ADD MSTORE PUSH1 0x2D PUSH1 0x24 DUP3 ADD MSTORE PUSH32 0x4578706563746564204D52454E434C4156452063616E27742062652073657420 PUSH1 0x44 DUP3 ADD MSTORE PUSH13 0x746F207A65726F206279746573 PUSH1 0x98 SHL PUSH1 0x64 DUP3 ADD MSTORE PUSH1 0x84 ADD PUSH2 0x557 JUMP JUMPDEST PUSH1 0x1 SSTORE JUMP JUMPDEST PUSH0 DUP1 PUSH2 0x881 DUP5 DUP5 DUP1 DUP1 PUSH1 0x1F ADD PUSH1 0x20 DUP1 SWAP2 DIV MUL PUSH1 0x20 ADD PUSH1 0x40 MLOAD SWAP1 DUP2 ADD PUSH1 0x40 MSTORE DUP1 SWAP4 SWAP3 SWAP2 SWAP1 DUP2 DUP2 MSTORE PUSH1 0x20 ADD DUP4 DUP4 DUP1 DUP3 DUP5 CALLDATACOPY PUSH0 SWAP3 ADD SWAP2 SWAP1 SWAP2 MSTORE POP POP PUSH1 0x6 SLOAD PUSH1 0x48 SHL SWAP2 POP PUSH2 0xA74 SWAP1 POP JUMP JUMPDEST SWAP1 POP PUSH0 PUSH2 0x891 DUP3 PUSH1 0x70 PUSH1 0x20 PUSH2 0xC42 JUMP JUMPDEST SWAP3 POP POP POP JUMPDEST SWAP3 SWAP2 POP POP JUMP JUMPDEST PUSH2 0x8A4 PUSH2 0x8D9 JUMP JUMPDEST PUSH1 0x1 PUSH1 0x1 PUSH1 0xA0 SHL SUB DUP2 AND PUSH2 0x8CD JUMPI PUSH1 0x40 MLOAD PUSH4 0x1E4FBDF7 PUSH1 0xE0 SHL DUP2 MSTORE PUSH0 PUSH1 0x4 DUP3 ADD MSTORE PUSH1 0x24 ADD PUSH2 0x557 JUMP JUMPDEST PUSH2 0x8D6 DUP2 PUSH2 0x905 JUMP JUMPDEST POP JUMP JUMPDEST PUSH0 SLOAD PUSH1 0x1 PUSH1 0x1 PUSH1 0xA0 SHL SUB AND CALLER EQ PUSH2 0x3DC JUMPI PUSH1 0x40 MLOAD PUSH4 0x118CDAA7 PUSH1 0xE0 SHL DUP2 MSTORE CALLER PUSH1 0x4 DUP3 ADD MSTORE PUSH1 0x24 ADD PUSH2 0x557 JUMP JUMPDEST PUSH0 DUP1 SLOAD PUSH1 0x1 PUSH1 0x1 PUSH1 0xA0 SHL SUB DUP4 DUP2 AND PUSH1 0x1 PUSH1 0x1 PUSH1 0xA0 SHL SUB NOT DUP4 AND DUP2 OR DUP5 SSTORE PUSH1 0x40 MLOAD SWAP2 SWAP1 SWAP3 AND SWAP3 DUP4 SWAP2 PUSH32 0x8BE0079C531659141344CD1FD0A4F28419497F9722A3DAAFE3B4186F6B6457E0 SWAP2 SWAP1 LOG3 POP POP JUMP JUMPDEST PUSH0 PUSH2 0x896 DUP3 PUSH0 PUSH2 0xC7F JUMP JUMPDEST PUSH0 DUP3 PUSH1 0x1 PUSH1 0x1 PUSH1 0x50 SHL SUB DUP4 AND DUP2 MLOAD DUP2 LT PUSH2 0x97B JUMPI PUSH2 0x97B PUSH2 0x151E JUMP JUMPDEST ADD PUSH1 0x20 ADD MLOAD PUSH1 0x1 PUSH1 0xFD SHL SWAP1 DUP2 AND EQ PUSH2 0x9E0 JUMPI PUSH1 0x40 MLOAD PUSH3 0x461BCD PUSH1 0xE5 SHL DUP2 MSTORE PUSH1 0x20 PUSH1 0x4 DUP3 ADD MSTORE PUSH1 0x22 PUSH1 0x24 DUP3 ADD MSTORE PUSH32 0x41736E316465636F64653A204E6F74206120636F6E7374727563746564207479 PUSH1 0x44 DUP3 ADD MSTORE PUSH2 0x7065 PUSH1 0xF0 SHL PUSH1 0x64 DUP3 ADD MSTORE PUSH1 0x84 ADD PUSH2 0x557 JUMP JUMPDEST PUSH2 0x9FC DUP4 PUSH1 0x50 DUP5 SWAP1 SHR PUSH1 0x1 PUSH1 0x1 PUSH1 0x50 SHL SUB AND PUSH2 0xC7F JUMP JUMPDEST PUSH2 0xC7F JUMP JUMPDEST SWAP4 SWAP3 POP POP POP JUMP JUMPDEST PUSH0 PUSH2 0x9FC DUP4 PUSH2 0x9F7 PUSH1 0x1 PUSH1 0x1 PUSH1 0x50 SHL SUB PUSH1 0xA0 DUP7 SWAP1 SHR AND PUSH1 0x1 PUSH2 0x1595 JUMP JUMPDEST PUSH1 0x60 PUSH2 0x9FC PUSH1 0x1 PUSH1 0x1 PUSH1 0x50 SHL SUB DUP4 AND DUP1 JUMPDEST PUSH2 0xA49 PUSH1 0x1 PUSH1 0x1 PUSH1 0x50 SHL SUB PUSH1 0xA0 DUP8 SWAP1 SHR AND PUSH1 0x1 PUSH2 0x1595 JUMP JUMPDEST PUSH2 0xA53 SWAP2 SWAP1 PUSH2 0x15A8 JUMP JUMPDEST DUP6 SWAP2 SWAP1 PUSH2 0xE2C JUMP JUMPDEST PUSH1 0x60 PUSH2 0x9FC PUSH1 0x1 PUSH1 0x1 PUSH1 0x50 SHL SUB PUSH1 0x50 DUP5 SWAP1 SHR AND DUP1 PUSH2 0xA31 JUMP JUMPDEST PUSH1 0x60 PUSH0 PUSH1 0x17 PUSH2 0xA83 DUP6 DUP6 PUSH2 0xEAC JUMP JUMPDEST PUSH2 0xA8D SWAP2 SWAP1 PUSH2 0x1595 JUMP JUMPDEST SWAP1 POP PUSH0 DUP2 DUP6 MLOAD PUSH2 0xA9D SWAP2 SWAP1 PUSH2 0x15A8 JUMP JUMPDEST SWAP1 POP PUSH0 DUP1 DUP3 PUSH8 0xFFFFFFFFFFFFFFFF DUP2 GT ISZERO PUSH2 0xABA JUMPI PUSH2 0xABA PUSH2 0x12EC JUMP JUMPDEST PUSH1 0x40 MLOAD SWAP1 DUP1 DUP3 MSTORE DUP1 PUSH1 0x1F ADD PUSH1 0x1F NOT AND PUSH1 0x20 ADD DUP3 ADD PUSH1 0x40 MSTORE DUP1 ISZERO PUSH2 0xAE4 JUMPI PUSH1 0x20 DUP3 ADD DUP2 DUP1 CALLDATASIZE DUP4 CALLDATACOPY ADD SWAP1 POP JUMPDEST POP SWAP1 POP PUSH0 JUMPDEST DUP4 DUP2 LT ISZERO PUSH2 0xB89 JUMPI DUP8 PUSH2 0xAFC DUP3 DUP8 PUSH2 0x1595 JUMP JUMPDEST DUP2 MLOAD DUP2 LT PUSH2 0xB0C JUMPI PUSH2 0xB0C PUSH2 0x151E JUMP JUMPDEST PUSH1 0x20 SWAP2 ADD ADD MLOAD PUSH1 0x1 PUSH1 0x1 PUSH1 0xF8 SHL SUB NOT AND PUSH1 0x11 PUSH1 0xF9 SHL EQ PUSH2 0xB89 JUMPI DUP8 PUSH2 0xB31 DUP3 DUP8 PUSH2 0x1595 JUMP JUMPDEST DUP2 MLOAD DUP2 LT PUSH2 0xB41 JUMPI PUSH2 0xB41 PUSH2 0x151E JUMP JUMPDEST PUSH1 0x20 ADD ADD MLOAD PUSH1 0xF8 SHR PUSH1 0xF8 SHL DUP3 DUP3 DUP2 MLOAD DUP2 LT PUSH2 0xB5E JUMPI PUSH2 0xB5E PUSH2 0x151E JUMP JUMPDEST PUSH1 0x20 ADD ADD SWAP1 PUSH1 0x1 PUSH1 0x1 PUSH1 0xF8 SHL SUB NOT AND SWAP1 DUP2 PUSH0 BYTE SWAP1 MSTORE8 POP DUP3 PUSH2 0xB7E DUP2 PUSH2 0x15BB JUMP JUMPDEST SWAP4 POP POP PUSH1 0x1 ADD PUSH2 0xAE9 JUMP JUMPDEST POP PUSH0 DUP3 PUSH8 0xFFFFFFFFFFFFFFFF DUP2 GT ISZERO PUSH2 0xBA4 JUMPI PUSH2 0xBA4 PUSH2 0x12EC JUMP JUMPDEST PUSH1 0x40 MLOAD SWAP1 DUP1 DUP3 MSTORE DUP1 PUSH1 0x1F ADD PUSH1 0x1F NOT AND PUSH1 0x20 ADD DUP3 ADD PUSH1 0x40 MSTORE DUP1 ISZERO PUSH2 0xBCE JUMPI PUSH1 0x20 DUP3 ADD DUP2 DUP1 CALLDATASIZE DUP4 CALLDATACOPY ADD SWAP1 POP JUMPDEST POP SWAP1 POP PUSH0 JUMPDEST DUP4 DUP2 LT ISZERO PUSH2 0xC28 JUMPI DUP3 DUP2 DUP2 MLOAD DUP2 LT PUSH2 0xBED JUMPI PUSH2 0xBED PUSH2 0x151E JUMP JUMPDEST PUSH1 0x20 ADD ADD MLOAD PUSH1 0xF8 SHR PUSH1 0xF8 SHL DUP3 DUP3 DUP2 MLOAD DUP2 LT PUSH2 0xC0A JUMPI PUSH2 0xC0A PUSH2 0x151E JUMP JUMPDEST PUSH1 0x20 ADD ADD SWAP1 PUSH1 0x1 PUSH1 0x1 PUSH1 0xF8 SHL SUB NOT AND SWAP1 DUP2 PUSH0 BYTE SWAP1 MSTORE8 POP PUSH1 0x1 ADD PUSH2 0xBD3 JUMP JUMPDEST POP DUP1 PUSH0 PUSH2 0xC34 DUP3 PUSH2 0xF74 JUMP JUMPDEST SWAP11 SWAP10 POP POP POP POP POP POP POP POP POP POP JUMP JUMPDEST PUSH0 PUSH1 0x20 DUP3 GT ISZERO PUSH2 0xC50 JUMPI PUSH0 DUP1 REVERT JUMPDEST DUP4 MLOAD PUSH2 0xC5C DUP4 DUP6 PUSH2 0x1595 JUMP JUMPDEST GT ISZERO PUSH2 0xC66 JUMPI PUSH0 DUP1 REVERT JUMPDEST POP PUSH1 0x20 SWAP2 SWAP1 SWAP3 ADD DUP2 ADD MLOAD SWAP2 SWAP1 SUB PUSH2 0x100 EXP PUSH0 NOT ADD NOT AND SWAP1 JUMP JUMPDEST PUSH0 DUP1 DUP1 DUP1 DUP6 PUSH2 0xC8F DUP7 PUSH1 0x1 PUSH2 0x1595 JUMP JUMPDEST DUP2 MLOAD DUP2 LT PUSH2 0xC9F JUMPI PUSH2 0xC9F PUSH2 0x151E JUMP JUMPDEST ADD PUSH1 0x20 ADD MLOAD PUSH1 0x1 PUSH1 0xFF SHL AND PUSH0 SUB PUSH2 0xD09 JUMPI DUP6 PUSH2 0xCBC DUP7 PUSH1 0x1 PUSH2 0x1595 JUMP JUMPDEST DUP2 MLOAD DUP2 LT PUSH2 0xCCC JUMPI PUSH2 0xCCC PUSH2 0x151E JUMP JUMPDEST ADD PUSH1 0x20 ADD MLOAD PUSH1 0xF8 SHR SWAP3 POP PUSH2 0xCE1 DUP6 PUSH1 0x2 PUSH2 0x1595 JUMP JUMPDEST SWAP2 POP PUSH1 0x1 PUSH2 0xCF8 DUP5 PUSH1 0x1 PUSH1 0x1 PUSH1 0x50 SHL SUB DUP6 AND PUSH2 0x1595 JUMP JUMPDEST PUSH2 0xD02 SWAP2 SWAP1 PUSH2 0x15A8 JUMP JUMPDEST SWAP1 POP PUSH2 0xDFC JUMP JUMPDEST PUSH0 DUP7 PUSH2 0xD16 DUP8 PUSH1 0x1 PUSH2 0x1595 JUMP JUMPDEST DUP2 MLOAD DUP2 LT PUSH2 0xD26 JUMPI PUSH2 0xD26 PUSH2 0x151E JUMP JUMPDEST PUSH1 0x20 SWAP2 ADD ADD MLOAD PUSH1 0xF8 SHR PUSH1 0x7F AND SWAP1 POP PUSH1 0x1 DUP2 SWAP1 SUB PUSH2 0xD5C JUMPI PUSH2 0xD52 PUSH2 0xD4B DUP8 PUSH1 0x2 PUSH2 0x1595 JUMP JUMPDEST DUP9 SWAP1 PUSH2 0x1121 JUMP JUMPDEST PUSH1 0xFF AND SWAP4 POP PUSH2 0xDBE JUMP JUMPDEST DUP1 PUSH1 0xFF AND PUSH1 0x2 SUB PUSH2 0xD87 JUMPI PUSH2 0xD7C PUSH2 0xD75 DUP8 PUSH1 0x2 PUSH2 0x1595 JUMP JUMPDEST DUP9 SWAP1 PUSH2 0x1144 JUMP JUMPDEST PUSH2 0xFFFF AND SWAP4 POP PUSH2 0xDBE JUMP JUMPDEST PUSH2 0xD92 DUP2 PUSH1 0x20 PUSH2 0x15D3 JUMP JUMPDEST PUSH2 0xD9D SWAP1 PUSH1 0x8 PUSH2 0x15EC JUMP JUMPDEST PUSH1 0xFF AND PUSH2 0xDB9 PUSH2 0xDAE DUP9 PUSH1 0x2 PUSH2 0x1595 JUMP JUMPDEST DUP10 SWAP1 PUSH1 0xFF DUP6 AND PUSH2 0xC42 JUMP JUMPDEST SWAP1 SHR SWAP4 POP JUMPDEST PUSH1 0xFF DUP2 AND PUSH2 0xDCD DUP8 PUSH1 0x2 PUSH2 0x1595 JUMP JUMPDEST PUSH2 0xDD7 SWAP2 SWAP1 PUSH2 0x1595 JUMP JUMPDEST SWAP3 POP PUSH1 0x1 PUSH2 0xDEE DUP6 PUSH1 0x1 PUSH1 0x1 PUSH1 0x50 SHL SUB DUP7 AND PUSH2 0x1595 JUMP JUMPDEST PUSH2 0xDF8 SWAP2 SWAP1 PUSH2 0x15A8 JUMP JUMPDEST SWAP2 POP POP JUMPDEST PUSH10 0xFFFFFFFFFFFFFFFFFFFF PUSH1 0xA0 SHL PUSH1 0xA0 DUP3 SWAP1 SHL AND PUSH10 0xFFFFFFFFFFFFFFFFFFFF PUSH1 0x50 SHL PUSH1 0x50 DUP5 SWAP1 SHL AND DUP7 OR OR PUSH2 0x3C1 JUMP JUMPDEST DUP3 MLOAD PUSH1 0x60 SWAP1 PUSH2 0xE3B DUP4 DUP6 PUSH2 0x1595 JUMP JUMPDEST GT ISZERO PUSH2 0xE45 JUMPI PUSH0 DUP1 REVERT JUMPDEST PUSH0 DUP3 PUSH8 0xFFFFFFFFFFFFFFFF DUP2 GT ISZERO PUSH2 0xE5F JUMPI PUSH2 0xE5F PUSH2 0x12EC JUMP JUMPDEST PUSH1 0x40 MLOAD SWAP1 DUP1 DUP3 MSTORE DUP1 PUSH1 0x1F ADD PUSH1 0x1F NOT AND PUSH1 0x20 ADD DUP3 ADD PUSH1 0x40 MSTORE DUP1 ISZERO PUSH2 0xE89 JUMPI PUSH1 0x20 DUP3 ADD DUP2 DUP1 CALLDATASIZE DUP4 CALLDATACOPY ADD SWAP1 POP JUMPDEST POP SWAP1 POP PUSH1 0x20 DUP1 DUP3 ADD SWAP1 DUP7 DUP7 ADD ADD PUSH2 0xEA1 DUP3 DUP3 DUP8 PUSH2 0x116A JUMP JUMPDEST POP SWAP1 SWAP6 SWAP5 POP POP POP POP POP JUMP JUMPDEST DUP2 MLOAD PUSH0 SWAP1 PUSH1 0x17 SWAP1 DUP1 DUP3 GT ISZERO PUSH2 0xEC6 JUMPI PUSH0 NOT SWAP3 POP POP POP PUSH2 0x896 JUMP JUMPDEST PUSH0 JUMPDEST PUSH2 0xED2 DUP4 DUP4 PUSH2 0x15A8 JUMP JUMPDEST DUP2 GT PUSH2 0xF68 JUMPI PUSH1 0x1 PUSH0 JUMPDEST DUP5 DUP2 LT ISZERO PUSH2 0xF43 JUMPI DUP7 DUP2 PUSH1 0x17 DUP2 LT PUSH2 0xEF6 JUMPI PUSH2 0xEF6 PUSH2 0x151E JUMP JUMPDEST BYTE PUSH1 0xF8 SHL PUSH1 0x1 PUSH1 0x1 PUSH1 0xF8 SHL SUB NOT AND DUP9 PUSH2 0xF0F DUP4 DUP7 PUSH2 0x1595 JUMP JUMPDEST DUP2 MLOAD DUP2 LT PUSH2 0xF1F JUMPI PUSH2 0xF1F PUSH2 0x151E JUMP JUMPDEST ADD PUSH1 0x20 ADD MLOAD PUSH1 0x1 PUSH1 0x1 PUSH1 0xF8 SHL SUB NOT AND EQ PUSH2 0xF3B JUMPI PUSH0 SWAP2 POP PUSH2 0xF43 JUMP JUMPDEST PUSH1 0x1 ADD PUSH2 0xEDC JUMP JUMPDEST POP DUP1 ISZERO PUSH2 0xF55 JUMPI POP SWAP3 POP PUSH2 0x896 SWAP2 POP POP JUMP JUMPDEST POP DUP1 PUSH2 0xF60 DUP2 PUSH2 0x15BB JUMP JUMPDEST SWAP2 POP POP PUSH2 0xEC8 JUMP JUMPDEST POP PUSH0 NOT SWAP6 SWAP5 POP POP POP POP POP JUMP JUMPDEST DUP1 MLOAD PUSH1 0x60 SWAP1 DUP3 SWAP1 PUSH0 SUB PUSH2 0xF96 JUMPI POP POP PUSH1 0x40 DUP1 MLOAD PUSH0 DUP2 MSTORE PUSH1 0x20 DUP2 ADD SWAP1 SWAP2 MSTORE SWAP2 SWAP1 POP JUMP JUMPDEST PUSH1 0x4 DUP2 MLOAD PUSH2 0xFA4 SWAP2 SWAP1 PUSH2 0x1623 JUMP JUMPDEST ISZERO PUSH2 0xFF1 JUMPI PUSH1 0x40 MLOAD PUSH3 0x461BCD PUSH1 0xE5 SHL DUP2 MSTORE PUSH1 0x20 PUSH1 0x4 DUP3 ADD MSTORE PUSH1 0x1C PUSH1 0x24 DUP3 ADD MSTORE PUSH32 0x696E76616C696420626173653634206465636F64657220696E70757400000000 PUSH1 0x44 DUP3 ADD MSTORE PUSH1 0x64 ADD PUSH2 0x557 JUMP JUMPDEST PUSH0 PUSH1 0x40 MLOAD DUP1 PUSH1 0xA0 ADD PUSH1 0x40 MSTORE DUP1 PUSH1 0x80 DUP2 MSTORE PUSH1 0x20 ADD PUSH2 0x1661 PUSH1 0x80 SWAP2 CODECOPY SWAP1 POP PUSH0 PUSH1 0x4 DUP4 MLOAD PUSH2 0x101C SWAP2 SWAP1 PUSH2 0x1636 JUMP JUMPDEST PUSH2 0x1027 SWAP1 PUSH1 0x3 PUSH2 0x1649 JUMP JUMPDEST SWAP1 POP PUSH0 PUSH2 0x1035 DUP3 PUSH1 0x20 PUSH2 0x1595 JUMP JUMPDEST PUSH8 0xFFFFFFFFFFFFFFFF DUP2 GT ISZERO PUSH2 0x104D JUMPI PUSH2 0x104D PUSH2 0x12EC JUMP JUMPDEST PUSH1 0x40 MLOAD SWAP1 DUP1 DUP3 MSTORE DUP1 PUSH1 0x1F ADD PUSH1 0x1F NOT AND PUSH1 0x20 ADD DUP3 ADD PUSH1 0x40 MSTORE DUP1 ISZERO PUSH2 0x1077 JUMPI PUSH1 0x20 DUP3 ADD DUP2 DUP1 CALLDATASIZE DUP4 CALLDATACOPY ADD SWAP1 POP JUMPDEST POP SWAP1 POP DUP4 MLOAD DUP5 ADD MLOAD PUSH1 0x3D PUSH1 0xFF DUP3 AND SUB PUSH2 0x10A4 JUMPI PUSH1 0x1 DUP4 SUB SWAP3 POP PUSH2 0x3D3D PUSH2 0xFFFF DUP3 AND SUB PUSH2 0x10A4 JUMPI PUSH1 0x1 DUP4 SUB SWAP3 POP JUMPDEST POP DUP2 DUP2 MSTORE PUSH1 0x1 DUP4 ADD DUP5 DUP6 MLOAD DUP2 ADD PUSH1 0x20 DUP5 ADD JUMPDEST DUP2 DUP4 LT ISZERO PUSH2 0x1113 JUMPI PUSH1 0x4 DUP4 ADD SWAP3 POP DUP3 MLOAD PUSH1 0xFF DUP1 DUP3 AND DUP7 ADD MLOAD AND PUSH1 0xFF DUP1 DUP4 PUSH1 0x8 SHR AND DUP8 ADD MLOAD AND PUSH1 0x6 SHL ADD PUSH1 0xFF DUP1 DUP4 PUSH1 0x10 SHR AND DUP8 ADD MLOAD AND PUSH1 0xC SHL PUSH1 0xFF DUP1 DUP5 PUSH1 0x18 SHR AND DUP9 ADD MLOAD AND PUSH1 0x12 SHL ADD ADD SWAP1 POP DUP1 PUSH1 0xE8 SHL DUP3 MSTORE POP PUSH1 0x3 DUP2 ADD SWAP1 POP PUSH2 0x10B6 JUMP JUMPDEST POP SWAP3 SWAP9 SWAP8 POP POP POP POP POP POP POP POP JUMP JUMPDEST PUSH0 DUP3 DUP3 DUP2 MLOAD DUP2 LT PUSH2 0x1134 JUMPI PUSH2 0x1134 PUSH2 0x151E JUMP JUMPDEST ADD PUSH1 0x20 ADD MLOAD PUSH1 0xF8 SHR SWAP1 POP SWAP3 SWAP2 POP POP JUMP JUMPDEST DUP2 MLOAD PUSH0 SWAP1 PUSH2 0x1153 DUP4 PUSH1 0x2 PUSH2 0x1595 JUMP JUMPDEST GT ISZERO PUSH2 0x115D JUMPI PUSH0 DUP1 REVERT JUMPDEST POP ADD PUSH1 0x2 ADD MLOAD PUSH2 0xFFFF AND SWAP1 JUMP JUMPDEST PUSH1 0x20 DUP2 LT PUSH2 0x11A2 JUMPI DUP2 MLOAD DUP4 MSTORE PUSH2 0x1181 PUSH1 0x20 DUP5 PUSH2 0x1595 JUMP JUMPDEST SWAP3 POP PUSH2 0x118E PUSH1 0x20 DUP4 PUSH2 0x1595 JUMP JUMPDEST SWAP2 POP PUSH2 0x119B PUSH1 0x20 DUP3 PUSH2 0x15A8 JUMP JUMPDEST SWAP1 POP PUSH2 0x116A JUMP JUMPDEST SWAP1 MLOAD DUP3 MLOAD PUSH1 0x20 SWAP3 SWAP1 SWAP3 SUB PUSH2 0x100 EXP PUSH0 NOT ADD DUP1 NOT SWAP1 SWAP2 AND SWAP2 AND OR SWAP1 MSTORE JUMP JUMPDEST PUSH0 DUP2 MLOAD DUP1 DUP5 MSTORE PUSH0 JUMPDEST DUP2 DUP2 LT ISZERO PUSH2 0x11E3 JUMPI PUSH1 0x20 DUP2 DUP6 ADD DUP2 ADD MLOAD DUP7 DUP4 ADD DUP3 ADD MSTORE ADD PUSH2 0x11C7 JUMP JUMPDEST POP PUSH0 PUSH1 0x20 DUP3 DUP7 ADD ADD MSTORE PUSH1 0x20 PUSH1 0x1F NOT PUSH1 0x1F DUP4 ADD AND DUP6 ADD ADD SWAP2 POP POP SWAP3 SWAP2 POP POP JUMP JUMPDEST PUSH1 0x20 DUP2 MSTORE PUSH0 PUSH2 0x9FC PUSH1 0x20 DUP4 ADD DUP5 PUSH2 0x11BF JUMP JUMPDEST PUSH0 DUP1 DUP4 PUSH1 0x1F DUP5 ADD SLT PUSH2 0x1224 JUMPI PUSH0 DUP1 REVERT JUMPDEST POP DUP2 CALLDATALOAD PUSH8 0xFFFFFFFFFFFFFFFF DUP2 GT ISZERO PUSH2 0x123B JUMPI PUSH0 DUP1 REVERT JUMPDEST PUSH1 0x20 DUP4 ADD SWAP2 POP DUP4 PUSH1 0x20 DUP3 DUP6 ADD ADD GT ISZERO PUSH2 0x1252 JUMPI PUSH0 DUP1 REVERT JUMPDEST SWAP3 POP SWAP3 SWAP1 POP JUMP JUMPDEST PUSH0 DUP1 PUSH0 DUP1 PUSH0 DUP1 PUSH1 0x60 DUP8 DUP10 SUB SLT ISZERO PUSH2 0x126E JUMPI PUSH0 DUP1 REVERT JUMPDEST DUP7 CALLDATALOAD PUSH8 0xFFFFFFFFFFFFFFFF DUP1 DUP3 GT ISZERO PUSH2 0x1285 JUMPI PUSH0 DUP1 REVERT JUMPDEST PUSH2 0x1291 DUP11 DUP4 DUP12 ADD PUSH2 0x1214 JUMP JUMPDEST SWAP1 SWAP9 POP SWAP7 POP PUSH1 0x20 DUP10 ADD CALLDATALOAD SWAP2 POP DUP1 DUP3 GT ISZERO PUSH2 0x12A9 JUMPI PUSH0 DUP1 REVERT JUMPDEST PUSH2 0x12B5 DUP11 DUP4 DUP12 ADD PUSH2 0x1214 JUMP JUMPDEST SWAP1 SWAP7 POP SWAP5 POP PUSH1 0x40 DUP10 ADD CALLDATALOAD SWAP2 POP DUP1 DUP3 GT ISZERO PUSH2 0x12CD JUMPI PUSH0 DUP1 REVERT JUMPDEST POP PUSH2 0x12DA DUP10 DUP3 DUP11 ADD PUSH2 0x1214 JUMP JUMPDEST SWAP8 SWAP11 SWAP7 SWAP10 POP SWAP5 SWAP8 POP SWAP3 SWAP6 SWAP4 SWAP5 SWAP3 POP POP POP JUMP JUMPDEST PUSH4 0x4E487B71 PUSH1 0xE0 SHL PUSH0 MSTORE PUSH1 0x41 PUSH1 0x4 MSTORE PUSH1 0x24 PUSH0 REVERT JUMPDEST PUSH0 DUP3 PUSH1 0x1F DUP4 ADD SLT PUSH2 0x130F JUMPI PUSH0 DUP1 REVERT JUMPDEST DUP2 CALLDATALOAD PUSH8 0xFFFFFFFFFFFFFFFF DUP1 DUP3 GT ISZERO PUSH2 0x132A JUMPI PUSH2 0x132A PUSH2 0x12EC JUMP JUMPDEST PUSH1 0x40 MLOAD PUSH1 0x1F DUP4 ADD PUSH1 0x1F NOT SWAP1 DUP2 AND PUSH1 0x3F ADD AND DUP2 ADD SWAP1 DUP3 DUP3 GT DUP2 DUP4 LT OR ISZERO PUSH2 0x1352 JUMPI PUSH2 0x1352 PUSH2 0x12EC JUMP JUMPDEST DUP2 PUSH1 0x40 MSTORE DUP4 DUP2 MSTORE DUP7 PUSH1 0x20 DUP6 DUP9 ADD ADD GT ISZERO PUSH2 0x136A JUMPI PUSH0 DUP1 REVERT JUMPDEST DUP4 PUSH1 0x20 DUP8 ADD PUSH1 0x20 DUP4 ADD CALLDATACOPY PUSH0 PUSH1 0x20 DUP6 DUP4 ADD ADD MSTORE DUP1 SWAP5 POP POP POP POP POP SWAP3 SWAP2 POP POP JUMP JUMPDEST PUSH0 DUP1 PUSH1 0x40 DUP4 DUP6 SUB SLT ISZERO PUSH2 0x139A JUMPI PUSH0 DUP1 REVERT JUMPDEST DUP3 CALLDATALOAD PUSH8 0xFFFFFFFFFFFFFFFF DUP1 DUP3 GT ISZERO PUSH2 0x13B1 JUMPI PUSH0 DUP1 REVERT JUMPDEST PUSH2 0x13BD DUP7 DUP4 DUP8 ADD PUSH2 0x1300 JUMP JUMPDEST SWAP4 POP PUSH1 0x20 DUP6 ADD CALLDATALOAD SWAP2 POP DUP1 DUP3 GT ISZERO PUSH2 0x13D2 JUMPI PUSH0 DUP1 REVERT JUMPDEST POP PUSH2 0x13DF DUP6 DUP3 DUP7 ADD PUSH2 0x1300 JUMP JUMPDEST SWAP2 POP POP SWAP3 POP SWAP3 SWAP1 POP JUMP JUMPDEST PUSH0 PUSH1 0x20 DUP3 DUP5 SUB SLT ISZERO PUSH2 0x13F9 JUMPI PUSH0 DUP1 REVERT JUMPDEST POP CALLDATALOAD SWAP2 SWAP1 POP JUMP JUMPDEST PUSH0 DUP1 PUSH1 0x20 DUP4 DUP6 SUB SLT ISZERO PUSH2 0x1411 JUMPI PUSH0 DUP1 REVERT JUMPDEST DUP3 CALLDATALOAD PUSH8 0xFFFFFFFFFFFFFFFF DUP2 GT ISZERO PUSH2 0x1427 JUMPI PUSH0 DUP1 REVERT JUMPDEST PUSH2 0x1433 DUP6 DUP3 DUP7 ADD PUSH2 0x1214 JUMP JUMPDEST SWAP1 SWAP7 SWAP1 SWAP6 POP SWAP4 POP POP POP POP JUMP JUMPDEST PUSH0 PUSH1 0x20 DUP3 DUP5 SUB SLT ISZERO PUSH2 0x144F JUMPI PUSH0 DUP1 REVERT JUMPDEST DUP2 CALLDATALOAD PUSH1 0x1 PUSH1 0x1 PUSH1 0xA0 SHL SUB DUP2 AND DUP2 EQ PUSH2 0x9FC JUMPI PUSH0 DUP1 REVERT JUMPDEST PUSH1 0x1 DUP2 DUP2 SHR SWAP1 DUP3 AND DUP1 PUSH2 0x1479 JUMPI PUSH1 0x7F DUP3 AND SWAP2 POP JUMPDEST PUSH1 0x20 DUP3 LT DUP2 SUB PUSH2 0x1497 JUMPI PUSH4 0x4E487B71 PUSH1 0xE0 SHL PUSH0 MSTORE PUSH1 0x22 PUSH1 0x4 MSTORE PUSH1 0x24 PUSH0 REVERT JUMPDEST POP SWAP2 SWAP1 POP JUMP JUMPDEST DUP2 DUP4 MSTORE DUP2 DUP2 PUSH1 0x20 DUP6 ADD CALLDATACOPY POP PUSH0 DUP3 DUP3 ADD PUSH1 0x20 SWAP1 DUP2 ADD SWAP2 SWAP1 SWAP2 MSTORE PUSH1 0x1F SWAP1 SWAP2 ADD PUSH1 0x1F NOT AND SWAP1 SWAP2 ADD ADD SWAP1 JUMP JUMPDEST PUSH1 0x60 DUP2 MSTORE PUSH0 PUSH2 0x14D7 PUSH1 0x60 DUP4 ADD DUP9 PUSH2 0x11BF JUMP JUMPDEST DUP3 DUP2 SUB PUSH1 0x20 DUP5 ADD MSTORE PUSH2 0x14EA DUP2 DUP8 DUP10 PUSH2 0x149D JUMP JUMPDEST SWAP1 POP DUP3 DUP2 SUB PUSH1 0x40 DUP5 ADD MSTORE PUSH2 0x7B1 DUP2 DUP6 DUP8 PUSH2 0x149D JUMP JUMPDEST PUSH0 PUSH1 0x20 DUP3 DUP5 SUB SLT ISZERO PUSH2 0x150F JUMPI PUSH0 DUP1 REVERT JUMPDEST DUP2 MLOAD DUP1 ISZERO ISZERO DUP2 EQ PUSH2 0x9FC JUMPI PUSH0 DUP1 REVERT JUMPDEST PUSH4 0x4E487B71 PUSH1 0xE0 SHL PUSH0 MSTORE PUSH1 0x32 PUSH1 0x4 MSTORE PUSH1 0x24 PUSH0 REVERT JUMPDEST PUSH1 0x60 DUP2 MSTORE PUSH0 PUSH2 0x1544 PUSH1 0x60 DUP4 ADD DUP7 PUSH2 0x11BF JUMP JUMPDEST DUP3 DUP2 SUB PUSH1 0x20 DUP5 ADD MSTORE PUSH2 0x1556 DUP2 DUP7 PUSH2 0x11BF JUMP JUMPDEST SWAP1 POP DUP3 DUP2 SUB PUSH1 0x40 DUP5 ADD MSTORE PUSH2 0x3C1 DUP2 DUP6 PUSH2 0x11BF JUMP JUMPDEST PUSH0 PUSH1 0x20 DUP3 DUP5 SUB SLT ISZERO PUSH2 0x157A JUMPI PUSH0 DUP1 REVERT JUMPDEST POP MLOAD SWAP2 SWAP1 POP JUMP JUMPDEST PUSH4 0x4E487B71 PUSH1 0xE0 SHL PUSH0 MSTORE PUSH1 0x11 PUSH1 0x4 MSTORE PUSH1 0x24 PUSH0 REVERT JUMPDEST DUP1 DUP3 ADD DUP1 DUP3 GT ISZERO PUSH2 0x896 JUMPI PUSH2 0x896 PUSH2 0x1581 JUMP JUMPDEST DUP2 DUP2 SUB DUP2 DUP2 GT ISZERO PUSH2 0x896 JUMPI PUSH2 0x896 PUSH2 0x1581 JUMP JUMPDEST PUSH0 PUSH1 0x1 DUP3 ADD PUSH2 0x15CC JUMPI PUSH2 0x15CC PUSH2 0x1581 JUMP JUMPDEST POP PUSH1 0x1 ADD SWAP1 JUMP JUMPDEST PUSH1 0xFF DUP3 DUP2 AND DUP3 DUP3 AND SUB SWAP1 DUP2 GT ISZERO PUSH2 0x896 JUMPI PUSH2 0x896 PUSH2 0x1581 JUMP JUMPDEST PUSH1 0xFF DUP2 DUP2 AND DUP4 DUP3 AND MUL SWAP1 DUP2 AND SWAP1 DUP2 DUP2 EQ PUSH2 0x1608 JUMPI PUSH2 0x1608 PUSH2 0x1581 JUMP JUMPDEST POP SWAP3 SWAP2 POP POP JUMP JUMPDEST PUSH4 0x4E487B71 PUSH1 0xE0 SHL PUSH0 MSTORE PUSH1 0x12 PUSH1 0x4 MSTORE PUSH1 0x24 PUSH0 REVERT JUMPDEST PUSH0 DUP3 PUSH2 0x1631 JUMPI PUSH2 0x1631 PUSH2 0x160F JUMP JUMPDEST POP MOD SWAP1 JUMP JUMPDEST PUSH0 DUP3 PUSH2 0x1644 JUMPI PUSH2 0x1644 PUSH2 0x160F JUMP JUMPDEST POP DIV SWAP1 JUMP JUMPDEST DUP1 DUP3 MUL DUP2 ISZERO DUP3 DUP3 DIV DUP5 EQ OR PUSH2 0x896 JUMPI PUSH2 0x896 PUSH2 0x1581 JUMP INVALID STOP STOP STOP STOP STOP STOP STOP STOP STOP STOP STOP STOP STOP STOP STOP STOP STOP STOP STOP STOP STOP STOP STOP STOP STOP STOP STOP STOP STOP STOP STOP STOP STOP STOP STOP STOP STOP STOP STOP STOP STOP STOP STOP RETURNDATACOPY STOP STOP STOP EXTCODEHASH CALLVALUE CALLDATALOAD CALLDATASIZE CALLDATACOPY CODESIZE CODECOPY GASPRICE EXTCODESIZE EXTCODECOPY RETURNDATASIZE STOP STOP STOP STOP STOP STOP STOP STOP ADD MUL SUB DIV SDIV MOD SMOD ADDMOD MULMOD EXP SIGNEXTEND 0xC 0xD 0xE 0xF LT GT SLT SGT EQ ISZERO AND OR XOR NOT STOP STOP STOP STOP STOP STOP BYTE SHL SHR SAR 0x1E 0x1F KECCAK256 0x21 0x22 0x23 0x24 0x25 0x26 0x27 0x28 0x29 0x2A 0x2B 0x2C 0x2D 0x2E 0x2F ADDRESS BALANCE ORIGIN CALLER STOP STOP STOP STOP STOP LOG2 PUSH5 0x6970667358 0x22 SLT KECCAK256 SDIV 0x5C LOG4 0xE0 LOG0 0x22 POP LOG3 DUP13 DUP2 SELFBALANCE PC 0xAE 0xB8 PUSH4 0xD67A5304 LOG4 CALLCODE 0xDF 0xCD OR KECCAK256 PUSH22 0xBA2CA5BD730F64736F6C634300081600330000000000 "
				},
				"gasEstimates": {
					"creation": {
						"codeDepositCost": "1182000",
						"executionCost": "infinite",
						"totalCost": "infinite"
					},
					"external": {
						"EXPECTED_MRENCLAVE()": "2383",
						"caCertPubKey()": "infinite",
						"getMrEnclave(bytes)": "infinite",
						"isvEnclaveQuoteBodyStart()": "2360",
						"owner()": "2395",
						"renounceOwnership()": "infinite",
						"rootCert()": "infinite",
						"setExpectedMrEnclave(bytes32)": "24546",
						"sha256WithRSAEncryption()": "2403",
						"transferOwnership(address)": "28404",
						"verifyAttestation(bytes,bytes,bytes)": "infinite",
						"verifyCert(bytes,bytes)": "infinite"
					},
					"internal": {
						"getBytesAfterSequence(bytes memory,bytes23)": "infinite",
						"indexOf(bytes memory,bytes23)": "infinite",
						"verifyAttBodyOk(bytes calldata)": "infinite"
					}
				},
				"methodIdentifiers": {
					"EXPECTED_MRENCLAVE()": "58d1c11b",
					"caCertPubKey()": "3553d6ee",
					"getMrEnclave(bytes)": "e35f1a83",
					"isvEnclaveQuoteBodyStart()": "44a73684",
					"owner()": "8da5cb5b",
					"renounceOwnership()": "715018a6",
					"rootCert()": "7221e6fc",
					"setExpectedMrEnclave(bytes32)": "89cccf61",
					"sha256WithRSAEncryption()": "462b2653",
					"transferOwnership(address)": "f2fde38b",
					"verifyAttestation(bytes,bytes,bytes)": "3e1c075a",
					"verifyCert(bytes,bytes)": "721d9bc4"
				}
			},
			"storageLayout": {
				"storage": [
					{
						"astId": 8,
						"contract": "src/AttestationVerifier.sol:AttestationVerifier",
						"label": "_owner",
						"offset": 0,
						"slot": "0",
						"type": "t_address"
					},
					{
						"astId": 192,
						"contract": "src/AttestationVerifier.sol:AttestationVerifier",
						"label": "EXPECTED_MRENCLAVE",
						"offset": 0,
						"slot": "1",
						"type": "t_bytes32"
					},
					{
						"astId": 196,
						"contract": "src/AttestationVerifier.sol:AttestationVerifier",
						"label": "okBytes",
						"offset": 0,
						"slot": "2",
						"type": "t_bytes32"
					},
					{
						"astId": 199,
						"contract": "src/AttestationVerifier.sol:AttestationVerifier",
						"label": "caCertPubKey",
						"offset": 0,
						"slot": "3",
						"type": "t_bytes_storage"
					},
					{
						"astId": 202,
						"contract": "src/AttestationVerifier.sol:AttestationVerifier",
						"label": "rootCert",
						"offset": 0,
						"slot": "4",
						"type": "t_bytes_storage"
					},
					{
						"astId": 206,
						"contract": "src/AttestationVerifier.sol:AttestationVerifier",
						"label": "sha256WithRSAEncryption",
						"offset": 0,
						"slot": "5",
						"type": "t_contract(Algorithm)810"
					},
					{
						"astId": 209,
						"contract": "src/AttestationVerifier.sol:AttestationVerifier",
						"label": "isvEnclaveQuoteBodyStart",
						"offset": 0,
						"slot": "6",
						"type": "t_bytes23"
					}
				],
				"types": {
					"t_address": {
						"encoding": "inplace",
						"label": "address",
						"numberOfBytes": "20"
					},
					"t_bytes23": {
						"encoding": "inplace",
						"label": "bytes23",
						"numberOfBytes": "23"
					},
					"t_bytes32": {
						"encoding": "inplace",
						"label": "bytes32",
						"numberOfBytes": "32"
					},
					"t_bytes_storage": {
						"encoding": "bytes",
						"label": "bytes",
						"numberOfBytes": "32"
					},
					"t_contract(Algorithm)810": {
						"encoding": "inplace",
						"label": "contract Algorithm",
						"numberOfBytes": "20"
					}
				}
			},
			"userdoc": {
				"kind": "user",
				"methods": {},
				"notice": "Helper contract for the verification of Intel SGX attestations.",
				"version": 1
			}
		}
	}
}