{
	"src/utils/DateTime.sol": {
		"DateTime": {
			"abi": [
				{
					"inputs": [
						{
							"internalType": "bytes",
							"name": "x509Time",
							"type": "bytes"
						}
					],
					"name": "toTimestamp",
					"outputs": [
						{
							"internalType": "uint256",
							"name": "",
							"type": "uint256"
						}
					],
					"stateMutability": "pure",
					"type": "function"
				}
			],
			"devdoc": {
				"kind": "dev",
				"methods": {},
				"version": 1
			},
			"evm": {
				"assembly": "    /* \"src/utils/DateTime.sol\":65:3511  library DateTime {... */\n  dataSize(sub_0)\n  dataOffset(sub_0)\n  0x0b\n  dup3\n  dup3\n  dup3\n  codecopy\n  dup1\n  mload\n  0x00\n  byte\n  0x73\n  eq\n  tag_1\n  jumpi\n  mstore(0x00, shl(0xe0, 0x4e487b71))\n  mstore(0x04, 0x00)\n  revert(0x00, 0x24)\ntag_1:\n  mstore(0x00, address)\n  0x73\n  dup2\n  mstore8\n  dup3\n  dup2\n  return\nstop\n\nsub_0: assembly {\n        /* \"src/utils/DateTime.sol\":65:3511  library DateTime {... */\n      eq(address, deployTimeAddress())\n      mstore(0x40, 0x80)\n      jumpi(tag_1, lt(calldatasize, 0x04))\n      shr(0xe0, calldataload(0x00))\n      dup1\n      0x095385c6\n      eq\n      tag_2\n      jumpi\n    tag_1:\n      0x00\n      dup1\n      revert\n        /* \"src/utils/DateTime.sol\":2057:3509  function toTimestamp(bytes memory x509Time) public pure returns (uint256) {... */\n    tag_2:\n      tag_3\n      tag_4\n      calldatasize\n      0x04\n      tag_5\n      jump\t// in\n    tag_4:\n      tag_6\n      jump\t// in\n    tag_3:\n      mload(0x40)\n        /* \"#utility.yul\":1226:1251   */\n      swap1\n      dup2\n      mstore\n        /* \"#utility.yul\":1214:1216   */\n      0x20\n        /* \"#utility.yul\":1199:1217   */\n      add\n        /* \"src/utils/DateTime.sol\":2057:3509  function toTimestamp(bytes memory x509Time) public pure returns (uint256) {... */\n      mload(0x40)\n      dup1\n      swap2\n      sub\n      swap1\n      return\n    tag_6:\n        /* \"src/utils/DateTime.sol\":2122:2129  uint256 */\n      0x00\n        /* \"src/utils/DateTime.sol\":2141:2151  uint16 yrs */\n      dup1\n        /* \"src/utils/DateTime.sol\":2161:2172  uint8 mnths */\n      0x00\n        /* \"src/utils/DateTime.sol\":2182:2191  uint8 dys */\n      dup1\n        /* \"src/utils/DateTime.sol\":2201:2210  uint8 hrs */\n      0x00\n        /* \"src/utils/DateTime.sol\":2220:2230  uint8 mins */\n      dup1\n        /* \"src/utils/DateTime.sol\":2240:2250  uint8 secs */\n      0x00\n        /* \"src/utils/DateTime.sol\":2260:2272  uint8 offset */\n      dup1\n        /* \"src/utils/DateTime.sol\":2287:2295  x509Time */\n      dup9\n        /* \"src/utils/DateTime.sol\":2287:2302  x509Time.length */\n      mload\n        /* \"src/utils/DateTime.sol\":2306:2308  13 */\n      0x0d\n        /* \"src/utils/DateTime.sol\":2287:2308  x509Time.length == 13 */\n      sub\n        /* \"src/utils/DateTime.sol\":2283:2601  if (x509Time.length == 13) {... */\n      tag_10\n      jumpi\n        /* \"src/utils/DateTime.sol\":2354:2355  5 */\n      0x05\n        /* \"src/utils/DateTime.sol\":2349:2351  48 */\n      0x30\n        /* \"src/utils/DateTime.sol\":2334:2342  x509Time */\n      dup11\n        /* \"src/utils/DateTime.sol\":2343:2344  0 */\n      0x00\n        /* \"src/utils/DateTime.sol\":2334:2345  x509Time[0] */\n      dup2\n      mload\n      dup2\n      lt\n      tag_12\n      jumpi\n      tag_12\n      tag_13\n      jump\t// in\n    tag_12:\n      add\n      0x20\n      add\n      mload\n        /* \"src/utils/DateTime.sol\":2328:2351  uint8(x509Time[0]) - 48 */\n      tag_14\n      swap2\n      swap1\n        /* \"src/utils/DateTime.sol\":2334:2345  x509Time[0] */\n      0xf8\n      shr\n        /* \"src/utils/DateTime.sol\":2328:2351  uint8(x509Time[0]) - 48 */\n      tag_15\n      jump\t// in\n    tag_14:\n        /* \"src/utils/DateTime.sol\":2328:2355  uint8(x509Time[0]) - 48 < 5 */\n      0xff\n      and\n      lt\n        /* \"src/utils/DateTime.sol\":2324:2398  if (uint8(x509Time[0]) - 48 < 5) yrs += 2000;... */\n      iszero\n      tag_16\n      jumpi\n        /* \"src/utils/DateTime.sol\":2357:2368  yrs += 2000 */\n      tag_17\n        /* \"src/utils/DateTime.sol\":2364:2368  2000 */\n      0x07d0\n        /* \"src/utils/DateTime.sol\":2357:2368  yrs += 2000 */\n      dup9\n      tag_18\n      jump\t// in\n    tag_17:\n      swap7\n      pop\n        /* \"src/utils/DateTime.sol\":2283:2601  if (x509Time.length == 13) {... */\n      jump(tag_21)\n        /* \"src/utils/DateTime.sol\":2324:2398  if (uint8(x509Time[0]) - 48 < 5) yrs += 2000;... */\n    tag_16:\n        /* \"src/utils/DateTime.sol\":2387:2398  yrs += 1900 */\n      tag_17\n        /* \"src/utils/DateTime.sol\":2394:2398  1900 */\n      0x076c\n        /* \"src/utils/DateTime.sol\":2387:2398  yrs += 1900 */\n      dup9\n      tag_18\n      jump\t// in\n        /* \"src/utils/DateTime.sol\":2283:2601  if (x509Time.length == 13) {... */\n    tag_10:\n        /* \"src/utils/DateTime.sol\":2541:2543  48 */\n      0x30\n        /* \"src/utils/DateTime.sol\":2526:2534  x509Time */\n      dup10\n        /* \"src/utils/DateTime.sol\":2535:2536  1 */\n      0x01\n        /* \"src/utils/DateTime.sol\":2526:2537  x509Time[1] */\n      dup2\n      mload\n      dup2\n      lt\n      tag_23\n      jumpi\n      tag_23\n      tag_13\n      jump\t// in\n    tag_23:\n      add\n      0x20\n      add\n      mload\n        /* \"src/utils/DateTime.sol\":2520:2543  uint8(x509Time[1]) - 48 */\n      tag_24\n      swap2\n      swap1\n        /* \"src/utils/DateTime.sol\":2526:2537  x509Time[1] */\n      0xf8\n      shr\n        /* \"src/utils/DateTime.sol\":2520:2543  uint8(x509Time[1]) - 48 */\n      tag_15\n      jump\t// in\n    tag_24:\n        /* \"src/utils/DateTime.sol\":2519:2566  (uint8(x509Time[1]) - 48) *... */\n      tag_25\n      swap1\n        /* \"src/utils/DateTime.sol\":2563:2566  100 */\n      0x64\n        /* \"src/utils/DateTime.sol\":2519:2566  (uint8(x509Time[1]) - 48) *... */\n      tag_26\n      jump\t// in\n    tag_25:\n        /* \"src/utils/DateTime.sol\":2452:2566  (uint8(x509Time[0]) - 48) *... */\n      0xff\n      and\n        /* \"src/utils/DateTime.sol\":2474:2476  48 */\n      0x30\n        /* \"src/utils/DateTime.sol\":2459:2467  x509Time */\n      dup11\n        /* \"src/utils/DateTime.sol\":2468:2469  0 */\n      0x00\n        /* \"src/utils/DateTime.sol\":2459:2470  x509Time[0] */\n      dup2\n      mload\n      dup2\n      lt\n      tag_28\n      jumpi\n      tag_28\n      tag_13\n      jump\t// in\n    tag_28:\n      add\n      0x20\n      add\n      mload\n        /* \"src/utils/DateTime.sol\":2453:2476  uint8(x509Time[0]) - 48 */\n      tag_29\n      swap2\n      swap1\n        /* \"src/utils/DateTime.sol\":2459:2470  x509Time[0] */\n      0xf8\n      shr\n        /* \"src/utils/DateTime.sol\":2453:2476  uint8(x509Time[0]) - 48 */\n      tag_15\n      jump\t// in\n    tag_29:\n        /* \"src/utils/DateTime.sol\":2452:2500  (uint8(x509Time[0]) - 48) *... */\n      tag_30\n      swap1\n      0xff\n      and\n        /* \"src/utils/DateTime.sol\":2496:2500  1000 */\n      0x03e8\n        /* \"src/utils/DateTime.sol\":2452:2500  (uint8(x509Time[0]) - 48) *... */\n      tag_31\n      jump\t// in\n    tag_30:\n        /* \"src/utils/DateTime.sol\":2452:2566  (uint8(x509Time[0]) - 48) *... */\n      tag_32\n      swap2\n      swap1\n      tag_18\n      jump\t// in\n    tag_32:\n        /* \"src/utils/DateTime.sol\":2429:2566  yrs +=... */\n      tag_33\n      swap1\n      dup9\n      tag_18\n      jump\t// in\n    tag_33:\n      swap7\n      pop\n        /* \"src/utils/DateTime.sol\":2589:2590  2 */\n      0x02\n        /* \"src/utils/DateTime.sol\":2580:2590  offset = 2 */\n      swap1\n      pop\n        /* \"src/utils/DateTime.sol\":2283:2601  if (x509Time.length == 13) {... */\n    tag_21:\n        /* \"src/utils/DateTime.sol\":2737:2739  48 */\n      0x30\n        /* \"src/utils/DateTime.sol\":2701:2709  x509Time */\n      dup10\n        /* \"src/utils/DateTime.sol\":2710:2720  offset + 1 */\n      tag_34\n        /* \"src/utils/DateTime.sol\":2710:2716  offset */\n      dup4\n        /* \"src/utils/DateTime.sol\":2719:2720  1 */\n      0x01\n        /* \"src/utils/DateTime.sol\":2710:2720  offset + 1 */\n      tag_35\n      jump\t// in\n    tag_34:\n        /* \"src/utils/DateTime.sol\":2701:2721  x509Time[offset + 1] */\n      0xff\n      and\n      dup2\n      mload\n      dup2\n      lt\n      tag_37\n      jumpi\n      tag_37\n      tag_13\n      jump\t// in\n    tag_37:\n      add\n      0x20\n      add\n      mload\n      0xf8\n      shr\n        /* \"src/utils/DateTime.sol\":2660:2662  48 */\n      0x30\n        /* \"src/utils/DateTime.sol\":2636:2644  x509Time */\n      dup12\n        /* \"src/utils/DateTime.sol\":2645:2655  offset + 0 */\n      tag_38\n        /* \"src/utils/DateTime.sol\":2645:2651  offset */\n      dup6\n        /* \"src/utils/DateTime.sol\":2654:2655  0 */\n      0x00\n        /* \"src/utils/DateTime.sol\":2645:2655  offset + 0 */\n      tag_35\n      jump\t// in\n    tag_38:\n        /* \"src/utils/DateTime.sol\":2636:2656  x509Time[offset + 0] */\n      0xff\n      and\n      dup2\n      mload\n      dup2\n      lt\n      tag_40\n      jumpi\n      tag_40\n      tag_13\n      jump\t// in\n    tag_40:\n      add\n      0x20\n      add\n      mload\n        /* \"src/utils/DateTime.sol\":2630:2662  uint8(x509Time[offset + 0]) - 48 */\n      tag_41\n      swap2\n      swap1\n        /* \"src/utils/DateTime.sol\":2636:2656  x509Time[offset + 0] */\n      0xf8\n      shr\n        /* \"src/utils/DateTime.sol\":2630:2662  uint8(x509Time[offset + 0]) - 48 */\n      tag_15\n      jump\t// in\n    tag_41:\n        /* \"src/utils/DateTime.sol\":2629:2680  (uint8(x509Time[offset + 0]) - 48) *... */\n      tag_42\n      swap1\n        /* \"src/utils/DateTime.sol\":2678:2680  10 */\n      0x0a\n        /* \"src/utils/DateTime.sol\":2629:2680  (uint8(x509Time[offset + 0]) - 48) *... */\n      tag_26\n      jump\t// in\n    tag_42:\n        /* \"src/utils/DateTime.sol\":2629:2722  (uint8(x509Time[offset + 0]) - 48) *... */\n      tag_43\n      swap2\n      swap1\n      tag_35\n      jump\t// in\n    tag_43:\n        /* \"src/utils/DateTime.sol\":2629:2739  (uint8(x509Time[offset + 0]) - 48) *... */\n      tag_44\n      swap2\n      swap1\n      tag_15\n      jump\t// in\n    tag_44:\n        /* \"src/utils/DateTime.sol\":2610:2739  yrs +=... */\n      tag_45\n      swap1\n      0xff\n      and\n      dup9\n      tag_18\n      jump\t// in\n    tag_45:\n      swap7\n      pop\n        /* \"src/utils/DateTime.sol\":2877:2879  48 */\n      0x30\n        /* \"src/utils/DateTime.sol\":2841:2849  x509Time */\n      dup10\n        /* \"src/utils/DateTime.sol\":2850:2860  offset + 3 */\n      tag_46\n        /* \"src/utils/DateTime.sol\":2850:2856  offset */\n      dup4\n        /* \"src/utils/DateTime.sol\":2859:2860  3 */\n      0x03\n        /* \"src/utils/DateTime.sol\":2850:2860  offset + 3 */\n      tag_35\n      jump\t// in\n    tag_46:\n        /* \"src/utils/DateTime.sol\":2841:2861  x509Time[offset + 3] */\n      0xff\n      and\n      dup2\n      mload\n      dup2\n      lt\n      tag_48\n      jumpi\n      tag_48\n      tag_13\n      jump\t// in\n    tag_48:\n      add\n      0x20\n      add\n      mload\n      0xf8\n      shr\n        /* \"src/utils/DateTime.sol\":2800:2802  48 */\n      0x30\n        /* \"src/utils/DateTime.sol\":2776:2784  x509Time */\n      dup12\n        /* \"src/utils/DateTime.sol\":2785:2795  offset + 2 */\n      tag_49\n        /* \"src/utils/DateTime.sol\":2785:2791  offset */\n      dup6\n        /* \"src/utils/DateTime.sol\":2794:2795  2 */\n      0x02\n        /* \"src/utils/DateTime.sol\":2785:2795  offset + 2 */\n      tag_35\n      jump\t// in\n    tag_49:\n        /* \"src/utils/DateTime.sol\":2776:2796  x509Time[offset + 2] */\n      0xff\n      and\n      dup2\n      mload\n      dup2\n      lt\n      tag_51\n      jumpi\n      tag_51\n      tag_13\n      jump\t// in\n    tag_51:\n      add\n      0x20\n      add\n      mload\n        /* \"src/utils/DateTime.sol\":2770:2802  uint8(x509Time[offset + 2]) - 48 */\n      tag_52\n      swap2\n      swap1\n        /* \"src/utils/DateTime.sol\":2776:2796  x509Time[offset + 2] */\n      0xf8\n      shr\n        /* \"src/utils/DateTime.sol\":2770:2802  uint8(x509Time[offset + 2]) - 48 */\n      tag_15\n      jump\t// in\n    tag_52:\n        /* \"src/utils/DateTime.sol\":2769:2820  (uint8(x509Time[offset + 2]) - 48) *... */\n      tag_53\n      swap1\n        /* \"src/utils/DateTime.sol\":2818:2820  10 */\n      0x0a\n        /* \"src/utils/DateTime.sol\":2769:2820  (uint8(x509Time[offset + 2]) - 48) *... */\n      tag_26\n      jump\t// in\n    tag_53:\n        /* \"src/utils/DateTime.sol\":2769:2862  (uint8(x509Time[offset + 2]) - 48) *... */\n      tag_54\n      swap2\n      swap1\n      tag_35\n      jump\t// in\n    tag_54:\n        /* \"src/utils/DateTime.sol\":2769:2879  (uint8(x509Time[offset + 2]) - 48) *... */\n      tag_55\n      swap2\n      swap1\n      tag_15\n      jump\t// in\n    tag_55:\n        /* \"src/utils/DateTime.sol\":2749:2879  mnths =... */\n      swap6\n      pop\n        /* \"src/utils/DateTime.sol\":3016:3018  48 */\n      0x30\n        /* \"src/utils/DateTime.sol\":2980:2988  x509Time */\n      dup10\n        /* \"src/utils/DateTime.sol\":2989:2999  offset + 5 */\n      tag_56\n        /* \"src/utils/DateTime.sol\":2989:2995  offset */\n      dup4\n        /* \"src/utils/DateTime.sol\":2998:2999  5 */\n      0x05\n        /* \"src/utils/DateTime.sol\":2989:2999  offset + 5 */\n      tag_35\n      jump\t// in\n    tag_56:\n        /* \"src/utils/DateTime.sol\":2980:3000  x509Time[offset + 5] */\n      0xff\n      and\n      dup2\n      mload\n      dup2\n      lt\n      tag_58\n      jumpi\n      tag_58\n      tag_13\n      jump\t// in\n    tag_58:\n      add\n      0x20\n      add\n      mload\n      0xf8\n      shr\n        /* \"src/utils/DateTime.sol\":2939:2941  48 */\n      0x30\n        /* \"src/utils/DateTime.sol\":2915:2923  x509Time */\n      dup12\n        /* \"src/utils/DateTime.sol\":2924:2934  offset + 4 */\n      tag_59\n        /* \"src/utils/DateTime.sol\":2924:2930  offset */\n      dup6\n        /* \"src/utils/DateTime.sol\":2933:2934  4 */\n      0x04\n        /* \"src/utils/DateTime.sol\":2924:2934  offset + 4 */\n      tag_35\n      jump\t// in\n    tag_59:\n        /* \"src/utils/DateTime.sol\":2915:2935  x509Time[offset + 4] */\n      0xff\n      and\n      dup2\n      mload\n      dup2\n      lt\n      tag_61\n      jumpi\n      tag_61\n      tag_13\n      jump\t// in\n    tag_61:\n      add\n      0x20\n      add\n      mload\n        /* \"src/utils/DateTime.sol\":2909:2941  uint8(x509Time[offset + 4]) - 48 */\n      tag_62\n      swap2\n      swap1\n        /* \"src/utils/DateTime.sol\":2915:2935  x509Time[offset + 4] */\n      0xf8\n      shr\n        /* \"src/utils/DateTime.sol\":2909:2941  uint8(x509Time[offset + 4]) - 48 */\n      tag_15\n      jump\t// in\n    tag_62:\n        /* \"src/utils/DateTime.sol\":2908:2959  (uint8(x509Time[offset + 4]) - 48) *... */\n      tag_63\n      swap1\n        /* \"src/utils/DateTime.sol\":2957:2959  10 */\n      0x0a\n        /* \"src/utils/DateTime.sol\":2908:2959  (uint8(x509Time[offset + 4]) - 48) *... */\n      tag_26\n      jump\t// in\n    tag_63:\n        /* \"src/utils/DateTime.sol\":2908:3001  (uint8(x509Time[offset + 4]) - 48) *... */\n      tag_64\n      swap2\n      swap1\n      tag_35\n      jump\t// in\n    tag_64:\n        /* \"src/utils/DateTime.sol\":2908:3018  (uint8(x509Time[offset + 4]) - 48) *... */\n      tag_65\n      swap2\n      swap1\n      tag_15\n      jump\t// in\n    tag_65:\n        /* \"src/utils/DateTime.sol\":2889:3018  dys +=... */\n      tag_66\n      swap1\n      dup7\n      tag_35\n      jump\t// in\n    tag_66:\n      swap5\n      pop\n        /* \"src/utils/DateTime.sol\":3155:3157  48 */\n      0x30\n        /* \"src/utils/DateTime.sol\":3119:3127  x509Time */\n      dup10\n        /* \"src/utils/DateTime.sol\":3128:3138  offset + 7 */\n      tag_67\n        /* \"src/utils/DateTime.sol\":3128:3134  offset */\n      dup4\n        /* \"src/utils/DateTime.sol\":3137:3138  7 */\n      0x07\n        /* \"src/utils/DateTime.sol\":3128:3138  offset + 7 */\n      tag_35\n      jump\t// in\n    tag_67:\n        /* \"src/utils/DateTime.sol\":3119:3139  x509Time[offset + 7] */\n      0xff\n      and\n      dup2\n      mload\n      dup2\n      lt\n      tag_69\n      jumpi\n      tag_69\n      tag_13\n      jump\t// in\n    tag_69:\n      add\n      0x20\n      add\n      mload\n      0xf8\n      shr\n        /* \"src/utils/DateTime.sol\":3078:3080  48 */\n      0x30\n        /* \"src/utils/DateTime.sol\":3054:3062  x509Time */\n      dup12\n        /* \"src/utils/DateTime.sol\":3063:3073  offset + 6 */\n      tag_70\n        /* \"src/utils/DateTime.sol\":3063:3069  offset */\n      dup6\n        /* \"src/utils/DateTime.sol\":3072:3073  6 */\n      0x06\n        /* \"src/utils/DateTime.sol\":3063:3073  offset + 6 */\n      tag_35\n      jump\t// in\n    tag_70:\n        /* \"src/utils/DateTime.sol\":3054:3074  x509Time[offset + 6] */\n      0xff\n      and\n      dup2\n      mload\n      dup2\n      lt\n      tag_72\n      jumpi\n      tag_72\n      tag_13\n      jump\t// in\n    tag_72:\n      add\n      0x20\n      add\n      mload\n        /* \"src/utils/DateTime.sol\":3048:3080  uint8(x509Time[offset + 6]) - 48 */\n      tag_73\n      swap2\n      swap1\n        /* \"src/utils/DateTime.sol\":3054:3074  x509Time[offset + 6] */\n      0xf8\n      shr\n        /* \"src/utils/DateTime.sol\":3048:3080  uint8(x509Time[offset + 6]) - 48 */\n      tag_15\n      jump\t// in\n    tag_73:\n        /* \"src/utils/DateTime.sol\":3047:3098  (uint8(x509Time[offset + 6]) - 48) *... */\n      tag_74\n      swap1\n        /* \"src/utils/DateTime.sol\":3096:3098  10 */\n      0x0a\n        /* \"src/utils/DateTime.sol\":3047:3098  (uint8(x509Time[offset + 6]) - 48) *... */\n      tag_26\n      jump\t// in\n    tag_74:\n        /* \"src/utils/DateTime.sol\":3047:3140  (uint8(x509Time[offset + 6]) - 48) *... */\n      tag_75\n      swap2\n      swap1\n      tag_35\n      jump\t// in\n    tag_75:\n        /* \"src/utils/DateTime.sol\":3047:3157  (uint8(x509Time[offset + 6]) - 48) *... */\n      tag_76\n      swap2\n      swap1\n      tag_15\n      jump\t// in\n    tag_76:\n        /* \"src/utils/DateTime.sol\":3028:3157  hrs +=... */\n      tag_77\n      swap1\n      dup6\n      tag_35\n      jump\t// in\n    tag_77:\n      swap4\n      pop\n        /* \"src/utils/DateTime.sol\":3295:3297  48 */\n      0x30\n        /* \"src/utils/DateTime.sol\":3259:3267  x509Time */\n      dup10\n        /* \"src/utils/DateTime.sol\":3268:3278  offset + 9 */\n      tag_78\n        /* \"src/utils/DateTime.sol\":3268:3274  offset */\n      dup4\n        /* \"src/utils/DateTime.sol\":3277:3278  9 */\n      0x09\n        /* \"src/utils/DateTime.sol\":3268:3278  offset + 9 */\n      tag_35\n      jump\t// in\n    tag_78:\n        /* \"src/utils/DateTime.sol\":3259:3279  x509Time[offset + 9] */\n      0xff\n      and\n      dup2\n      mload\n      dup2\n      lt\n      tag_80\n      jumpi\n      tag_80\n      tag_13\n      jump\t// in\n    tag_80:\n      add\n      0x20\n      add\n      mload\n      0xf8\n      shr\n        /* \"src/utils/DateTime.sol\":3218:3220  48 */\n      0x30\n        /* \"src/utils/DateTime.sol\":3194:3202  x509Time */\n      dup12\n        /* \"src/utils/DateTime.sol\":3203:3213  offset + 8 */\n      tag_81\n        /* \"src/utils/DateTime.sol\":3203:3209  offset */\n      dup6\n        /* \"src/utils/DateTime.sol\":3212:3213  8 */\n      0x08\n        /* \"src/utils/DateTime.sol\":3203:3213  offset + 8 */\n      tag_35\n      jump\t// in\n    tag_81:\n        /* \"src/utils/DateTime.sol\":3194:3214  x509Time[offset + 8] */\n      0xff\n      and\n      dup2\n      mload\n      dup2\n      lt\n      tag_83\n      jumpi\n      tag_83\n      tag_13\n      jump\t// in\n    tag_83:\n      add\n      0x20\n      add\n      mload\n        /* \"src/utils/DateTime.sol\":3188:3220  uint8(x509Time[offset + 8]) - 48 */\n      tag_84\n      swap2\n      swap1\n        /* \"src/utils/DateTime.sol\":3194:3214  x509Time[offset + 8] */\n      0xf8\n      shr\n        /* \"src/utils/DateTime.sol\":3188:3220  uint8(x509Time[offset + 8]) - 48 */\n      tag_15\n      jump\t// in\n    tag_84:\n        /* \"src/utils/DateTime.sol\":3187:3238  (uint8(x509Time[offset + 8]) - 48) *... */\n      tag_85\n      swap1\n        /* \"src/utils/DateTime.sol\":3236:3238  10 */\n      0x0a\n        /* \"src/utils/DateTime.sol\":3187:3238  (uint8(x509Time[offset + 8]) - 48) *... */\n      tag_26\n      jump\t// in\n    tag_85:\n        /* \"src/utils/DateTime.sol\":3187:3280  (uint8(x509Time[offset + 8]) - 48) *... */\n      tag_86\n      swap2\n      swap1\n      tag_35\n      jump\t// in\n    tag_86:\n        /* \"src/utils/DateTime.sol\":3187:3297  (uint8(x509Time[offset + 8]) - 48) *... */\n      tag_87\n      swap2\n      swap1\n      tag_15\n      jump\t// in\n    tag_87:\n        /* \"src/utils/DateTime.sol\":3167:3297  mins +=... */\n      tag_88\n      swap1\n      dup5\n      tag_35\n      jump\t// in\n    tag_88:\n      swap3\n      pop\n        /* \"src/utils/DateTime.sol\":3437:3439  48 */\n      0x30\n        /* \"src/utils/DateTime.sol\":3400:3408  x509Time */\n      dup10\n        /* \"src/utils/DateTime.sol\":3409:3420  offset + 11 */\n      tag_89\n        /* \"src/utils/DateTime.sol\":3409:3415  offset */\n      dup4\n        /* \"src/utils/DateTime.sol\":3418:3420  11 */\n      0x0b\n        /* \"src/utils/DateTime.sol\":3409:3420  offset + 11 */\n      tag_35\n      jump\t// in\n    tag_89:\n        /* \"src/utils/DateTime.sol\":3400:3421  x509Time[offset + 11] */\n      0xff\n      and\n      dup2\n      mload\n      dup2\n      lt\n      tag_91\n      jumpi\n      tag_91\n      tag_13\n      jump\t// in\n    tag_91:\n      add\n      0x20\n      add\n      mload\n      0xf8\n      shr\n        /* \"src/utils/DateTime.sol\":3359:3361  48 */\n      0x30\n        /* \"src/utils/DateTime.sol\":3334:3342  x509Time */\n      dup12\n        /* \"src/utils/DateTime.sol\":3343:3354  offset + 10 */\n      tag_92\n        /* \"src/utils/DateTime.sol\":3343:3349  offset */\n      dup6\n        /* \"src/utils/DateTime.sol\":3352:3354  10 */\n      0x0a\n        /* \"src/utils/DateTime.sol\":3343:3354  offset + 10 */\n      tag_35\n      jump\t// in\n    tag_92:\n        /* \"src/utils/DateTime.sol\":3334:3355  x509Time[offset + 10] */\n      0xff\n      and\n      dup2\n      mload\n      dup2\n      lt\n      tag_94\n      jumpi\n      tag_94\n      tag_13\n      jump\t// in\n    tag_94:\n      add\n      0x20\n      add\n      mload\n        /* \"src/utils/DateTime.sol\":3328:3361  uint8(x509Time[offset + 10]) - 48 */\n      tag_95\n      swap2\n      swap1\n        /* \"src/utils/DateTime.sol\":3334:3355  x509Time[offset + 10] */\n      0xf8\n      shr\n        /* \"src/utils/DateTime.sol\":3328:3361  uint8(x509Time[offset + 10]) - 48 */\n      tag_15\n      jump\t// in\n    tag_95:\n        /* \"src/utils/DateTime.sol\":3327:3379  (uint8(x509Time[offset + 10]) - 48) *... */\n      tag_96\n      swap1\n        /* \"src/utils/DateTime.sol\":3377:3379  10 */\n      0x0a\n        /* \"src/utils/DateTime.sol\":3327:3379  (uint8(x509Time[offset + 10]) - 48) *... */\n      tag_26\n      jump\t// in\n    tag_96:\n        /* \"src/utils/DateTime.sol\":3327:3422  (uint8(x509Time[offset + 10]) - 48) *... */\n      tag_97\n      swap2\n      swap1\n      tag_35\n      jump\t// in\n    tag_97:\n        /* \"src/utils/DateTime.sol\":3327:3439  (uint8(x509Time[offset + 10]) - 48) *... */\n      tag_98\n      swap2\n      swap1\n      tag_15\n      jump\t// in\n    tag_98:\n        /* \"src/utils/DateTime.sol\":3307:3439  secs +=... */\n      tag_99\n      swap1\n      dup4\n      tag_35\n      jump\t// in\n    tag_99:\n      swap2\n      pop\n        /* \"src/utils/DateTime.sol\":3457:3502  toTimestamp(yrs, mnths, dys, hrs, mins, secs) */\n      tag_100\n        /* \"src/utils/DateTime.sol\":3469:3472  yrs */\n      dup8\n        /* \"src/utils/DateTime.sol\":3474:3479  mnths */\n      dup8\n        /* \"src/utils/DateTime.sol\":3481:3484  dys */\n      dup8\n        /* \"src/utils/DateTime.sol\":3486:3489  hrs */\n      dup8\n        /* \"src/utils/DateTime.sol\":3491:3495  mins */\n      dup8\n        /* \"src/utils/DateTime.sol\":3497:3501  secs */\n      dup8\n        /* \"src/utils/DateTime.sol\":3457:3468  toTimestamp */\n      tag_101\n        /* \"src/utils/DateTime.sol\":3457:3502  toTimestamp(yrs, mnths, dys, hrs, mins, secs) */\n      jump\t// in\n    tag_100:\n        /* \"src/utils/DateTime.sol\":3450:3502  return toTimestamp(yrs, mnths, dys, hrs, mins, secs) */\n      swap10\n        /* \"src/utils/DateTime.sol\":2057:3509  function toTimestamp(bytes memory x509Time) public pure returns (uint256) {... */\n      swap9\n      pop\n      pop\n      pop\n      pop\n      pop\n      pop\n      pop\n      pop\n      pop\n      jump\t// out\n        /* \"src/utils/DateTime.sol\":662:2051  function toTimestamp(... */\n    tag_101:\n        /* \"src/utils/DateTime.sol\":836:853  uint256 timestamp */\n      0x00\n        /* \"src/utils/DateTime.sol\":358:362  1970 */\n      0x07b2\n        /* \"src/utils/DateTime.sol\":900:1113  for (i = ORIGIN_YEAR; i < year; i++) {... */\n    tag_103:\n        /* \"src/utils/DateTime.sol\":926:930  year */\n      dup8\n        /* \"src/utils/DateTime.sol\":922:930  i < year */\n      0xffff\n      and\n        /* \"src/utils/DateTime.sol\":922:923  i */\n      dup2\n        /* \"src/utils/DateTime.sol\":922:930  i < year */\n      0xffff\n      and\n      lt\n        /* \"src/utils/DateTime.sol\":900:1113  for (i = ORIGIN_YEAR; i < year; i++) {... */\n      iszero\n      tag_104\n      jumpi\n        /* \"src/utils/DateTime.sol\":955:968  isLeapYear(i) */\n      tag_106\n        /* \"src/utils/DateTime.sol\":966:967  i */\n      dup2\n        /* \"src/utils/DateTime.sol\":955:965  isLeapYear */\n      tag_107\n        /* \"src/utils/DateTime.sol\":955:968  isLeapYear(i) */\n      jump\t// in\n    tag_106:\n        /* \"src/utils/DateTime.sol\":951:1103  if (isLeapYear(i)) {... */\n      iszero\n      tag_108\n      jumpi\n        /* \"src/utils/DateTime.sol\":988:1021  timestamp += LEAP_YEAR_IN_SECONDS */\n      tag_109\n        /* \"src/utils/DateTime.sol\":222:230  31622400 */\n      0x01e28500\n        /* \"src/utils/DateTime.sol\":988:1021  timestamp += LEAP_YEAR_IN_SECONDS */\n      dup4\n      tag_110\n      jump\t// in\n    tag_109:\n      swap2\n      pop\n        /* \"src/utils/DateTime.sol\":951:1103  if (isLeapYear(i)) {... */\n      jump(tag_111)\n    tag_108:\n        /* \"src/utils/DateTime.sol\":1060:1088  timestamp += YEAR_IN_SECONDS */\n      tag_112\n        /* \"src/utils/DateTime.sol\":168:176  31536000 */\n      0x01e13380\n        /* \"src/utils/DateTime.sol\":1060:1088  timestamp += YEAR_IN_SECONDS */\n      dup4\n      tag_110\n      jump\t// in\n    tag_112:\n      swap2\n      pop\n        /* \"src/utils/DateTime.sol\":951:1103  if (isLeapYear(i)) {... */\n    tag_111:\n        /* \"src/utils/DateTime.sol\":932:935  i++ */\n      0x01\n      add\n        /* \"src/utils/DateTime.sol\":900:1113  for (i = ORIGIN_YEAR; i < year; i++) {... */\n      jump(tag_103)\n    tag_104:\n        /* \"src/utils/DateTime.sol\":1140:1171  uint8[12] memory monthDayCounts */\n      tag_113\n      tag_114\n      jump\t// in\n    tag_113:\n        /* \"src/utils/DateTime.sol\":1201:1203  31 */\n      0x1f\n        /* \"src/utils/DateTime.sol\":1181:1203  monthDayCounts[0] = 31 */\n      dup2\n      mstore\n        /* \"src/utils/DateTime.sol\":1217:1233  isLeapYear(year) */\n      tag_117\n        /* \"src/utils/DateTime.sol\":1228:1232  year */\n      dup10\n        /* \"src/utils/DateTime.sol\":1217:1227  isLeapYear */\n      tag_107\n        /* \"src/utils/DateTime.sol\":1217:1233  isLeapYear(year) */\n      jump\t// in\n    tag_117:\n        /* \"src/utils/DateTime.sol\":1213:1335  if (isLeapYear(year)) {... */\n      iszero\n      tag_118\n      jumpi\n        /* \"src/utils/DateTime.sol\":1269:1271  29 */\n      0x1d\n        /* \"src/utils/DateTime.sol\":1249:1266  monthDayCounts[1] */\n      0x20\n      dup3\n      add\n        /* \"src/utils/DateTime.sol\":1249:1271  monthDayCounts[1] = 29 */\n      mstore\n        /* \"src/utils/DateTime.sol\":1213:1335  if (isLeapYear(year)) {... */\n      jump(tag_121)\n    tag_118:\n        /* \"src/utils/DateTime.sol\":1322:1324  28 */\n      0x1c\n        /* \"src/utils/DateTime.sol\":1302:1319  monthDayCounts[1] */\n      0x20\n      dup3\n      add\n        /* \"src/utils/DateTime.sol\":1302:1324  monthDayCounts[1] = 28 */\n      mstore\n        /* \"src/utils/DateTime.sol\":1213:1335  if (isLeapYear(year)) {... */\n    tag_121:\n        /* \"src/utils/DateTime.sol\":1364:1366  31 */\n      0x1f\n        /* \"src/utils/DateTime.sol\":1344:1361  monthDayCounts[2] */\n      0x40\n      dup3\n      add\n        /* \"src/utils/DateTime.sol\":1344:1366  monthDayCounts[2] = 31 */\n      dup2\n      swap1\n      mstore\n        /* \"src/utils/DateTime.sol\":1396:1398  30 */\n      0x1e\n        /* \"src/utils/DateTime.sol\":1376:1393  monthDayCounts[3] */\n      0x60\n      dup4\n      add\n        /* \"src/utils/DateTime.sol\":1376:1398  monthDayCounts[3] = 30 */\n      dup2\n      swap1\n      mstore\n        /* \"src/utils/DateTime.sol\":1408:1425  monthDayCounts[4] */\n      0x80\n      dup4\n      add\n        /* \"src/utils/DateTime.sol\":1408:1430  monthDayCounts[4] = 31 */\n      dup3\n      swap1\n      mstore\n        /* \"src/utils/DateTime.sol\":1440:1457  monthDayCounts[5] */\n      0xa0\n      dup4\n      add\n        /* \"src/utils/DateTime.sol\":1440:1462  monthDayCounts[5] = 30 */\n      dup2\n      swap1\n      mstore\n        /* \"src/utils/DateTime.sol\":1472:1489  monthDayCounts[6] */\n      0xc0\n      dup4\n      add\n        /* \"src/utils/DateTime.sol\":1472:1494  monthDayCounts[6] = 31 */\n      dup3\n      swap1\n      mstore\n        /* \"src/utils/DateTime.sol\":1504:1521  monthDayCounts[7] */\n      0xe0\n      dup4\n      add\n        /* \"src/utils/DateTime.sol\":1504:1526  monthDayCounts[7] = 31 */\n      dup3\n      swap1\n      mstore\n        /* \"src/utils/DateTime.sol\":1536:1553  monthDayCounts[8] */\n      0x0100\n      dup4\n      add\n        /* \"src/utils/DateTime.sol\":1536:1558  monthDayCounts[8] = 30 */\n      dup2\n      swap1\n      mstore\n        /* \"src/utils/DateTime.sol\":1568:1585  monthDayCounts[9] */\n      0x0120\n      dup4\n      add\n        /* \"src/utils/DateTime.sol\":1568:1590  monthDayCounts[9] = 31 */\n      dup3\n      swap1\n      mstore\n        /* \"src/utils/DateTime.sol\":1600:1618  monthDayCounts[10] */\n      0x0140\n      dup4\n      add\n        /* \"src/utils/DateTime.sol\":1600:1623  monthDayCounts[10] = 30 */\n      mstore\n        /* \"src/utils/DateTime.sol\":1633:1651  monthDayCounts[11] */\n      0x0160\n      dup3\n      add\n        /* \"src/utils/DateTime.sol\":1633:1656  monthDayCounts[11] = 31 */\n      mstore\n        /* \"src/utils/DateTime.sol\":1676:1677  1 */\n      0x01\n      swap2\n      pop\n        /* \"src/utils/DateTime.sol\":1667:1771  for (i = 1; i < month; i++) {... */\n    tag_144:\n        /* \"src/utils/DateTime.sol\":1683:1688  month */\n      dup8\n        /* \"src/utils/DateTime.sol\":1679:1688  i < month */\n      0xff\n      and\n        /* \"src/utils/DateTime.sol\":1679:1680  i */\n      dup3\n        /* \"src/utils/DateTime.sol\":1679:1688  i < month */\n      0xffff\n      and\n      lt\n        /* \"src/utils/DateTime.sol\":1667:1771  for (i = 1; i < month; i++) {... */\n      iszero\n      tag_145\n      jumpi\n        /* \"src/utils/DateTime.sol\":1739:1753  monthDayCounts */\n      dup1\n        /* \"src/utils/DateTime.sol\":1754:1759  i - 1 */\n      tag_147\n        /* \"src/utils/DateTime.sol\":1758:1759  1 */\n      0x01\n        /* \"src/utils/DateTime.sol\":1754:1755  i */\n      dup5\n        /* \"src/utils/DateTime.sol\":1754:1759  i - 1 */\n      tag_148\n      jump\t// in\n    tag_147:\n        /* \"src/utils/DateTime.sol\":1739:1760  monthDayCounts[i - 1] */\n      0xffff\n      and\n      0x0c\n      dup2\n      lt\n      tag_150\n      jumpi\n      tag_150\n      tag_13\n      jump\t// in\n    tag_150:\n      0x20\n      mul\n      add\n      mload\n        /* \"src/utils/DateTime.sol\":1722:1760  DAY_IN_SECONDS * monthDayCounts[i - 1] */\n      tag_151\n      swap1\n      0xff\n      and\n        /* \"src/utils/DateTime.sol\":122:127  86400 */\n      0x015180\n        /* \"src/utils/DateTime.sol\":1722:1760  DAY_IN_SECONDS * monthDayCounts[i - 1] */\n      tag_152\n      jump\t// in\n    tag_151:\n        /* \"src/utils/DateTime.sol\":1709:1760  timestamp += DAY_IN_SECONDS * monthDayCounts[i - 1] */\n      tag_153\n      swap1\n      dup5\n      tag_110\n      jump\t// in\n    tag_153:\n      swap3\n      pop\n        /* \"src/utils/DateTime.sol\":1690:1693  i++ */\n      0x01\n      swap1\n      swap2\n      add\n      swap1\n        /* \"src/utils/DateTime.sol\":1667:1771  for (i = 1; i < month; i++) {... */\n      jump(tag_144)\n    tag_145:\n        /* \"src/utils/DateTime.sol\":1827:1834  day - 1 */\n      tag_154\n        /* \"src/utils/DateTime.sol\":1833:1834  1 */\n      0x01\n        /* \"src/utils/DateTime.sol\":1827:1830  day */\n      dup9\n        /* \"src/utils/DateTime.sol\":1827:1834  day - 1 */\n      tag_15\n      jump\t// in\n    tag_154:\n        /* \"src/utils/DateTime.sol\":1809:1835  DAY_IN_SECONDS * (day - 1) */\n      tag_155\n      swap1\n      0xff\n      and\n        /* \"src/utils/DateTime.sol\":122:127  86400 */\n      0x015180\n        /* \"src/utils/DateTime.sol\":1809:1835  DAY_IN_SECONDS * (day - 1) */\n      tag_152\n      jump\t// in\n    tag_155:\n        /* \"src/utils/DateTime.sol\":1796:1835  timestamp += DAY_IN_SECONDS * (day - 1) */\n      tag_156\n      swap1\n      dup5\n      tag_110\n      jump\t// in\n    tag_156:\n      swap3\n      pop\n        /* \"src/utils/DateTime.sol\":1875:1899  HOUR_IN_SECONDS * (hour) */\n      tag_157\n      0xff\n      dup8\n      and\n        /* \"src/utils/DateTime.sol\":272:276  3600 */\n      0x0e10\n        /* \"src/utils/DateTime.sol\":1875:1899  HOUR_IN_SECONDS * (hour) */\n      tag_152\n      jump\t// in\n    tag_157:\n        /* \"src/utils/DateTime.sol\":1862:1899  timestamp += HOUR_IN_SECONDS * (hour) */\n      tag_158\n      swap1\n      dup5\n      tag_110\n      jump\t// in\n    tag_158:\n      swap3\n      pop\n        /* \"src/utils/DateTime.sol\":1941:1969  MINUTE_IN_SECONDS * (minute) */\n      tag_159\n      0xff\n      dup7\n      and\n        /* \"src/utils/DateTime.sol\":319:321  60 */\n      0x3c\n        /* \"src/utils/DateTime.sol\":1941:1969  MINUTE_IN_SECONDS * (minute) */\n      tag_152\n      jump\t// in\n    tag_159:\n        /* \"src/utils/DateTime.sol\":1928:1969  timestamp += MINUTE_IN_SECONDS * (minute) */\n      tag_160\n      swap1\n      dup5\n      tag_110\n      jump\t// in\n    tag_160:\n      swap3\n      pop\n        /* \"src/utils/DateTime.sol\":1998:2017  timestamp += second */\n      tag_100\n      0xff\n      dup6\n      and\n        /* \"src/utils/DateTime.sol\":1928:1969  timestamp += MINUTE_IN_SECONDS * (minute) */\n      dup5\n        /* \"src/utils/DateTime.sol\":1998:2017  timestamp += second */\n      tag_110\n      jump\t// in\n        /* \"src/utils/DateTime.sol\":369:656  function isLeapYear(uint16 year) private pure returns (bool) {... */\n    tag_107:\n        /* \"src/utils/DateTime.sol\":424:428  bool */\n      0x00\n        /* \"src/utils/DateTime.sol\":444:452  year % 4 */\n      tag_163\n        /* \"src/utils/DateTime.sol\":451:452  4 */\n      0x04\n        /* \"src/utils/DateTime.sol\":444:448  year */\n      dup4\n        /* \"src/utils/DateTime.sol\":444:452  year % 4 */\n      tag_164\n      jump\t// in\n    tag_163:\n        /* \"src/utils/DateTime.sol\":444:457  year % 4 != 0 */\n      0xffff\n      and\n      iszero\n        /* \"src/utils/DateTime.sol\":440:496  if (year % 4 != 0) {... */\n      tag_165\n      jumpi\n      pop\n        /* \"src/utils/DateTime.sol\":480:485  false */\n      0x00\n      swap2\n        /* \"src/utils/DateTime.sol\":369:656  function isLeapYear(uint16 year) private pure returns (bool) {... */\n      swap1\n      pop\n      jump\t// out\n        /* \"src/utils/DateTime.sol\":440:496  if (year % 4 != 0) {... */\n    tag_165:\n        /* \"src/utils/DateTime.sol\":509:519  year % 100 */\n      tag_166\n        /* \"src/utils/DateTime.sol\":516:519  100 */\n      0x64\n        /* \"src/utils/DateTime.sol\":509:513  year */\n      dup4\n        /* \"src/utils/DateTime.sol\":509:519  year % 100 */\n      tag_164\n      jump\t// in\n    tag_166:\n        /* \"src/utils/DateTime.sol\":509:524  year % 100 != 0 */\n      0xffff\n      and\n      iszero\n        /* \"src/utils/DateTime.sol\":505:562  if (year % 100 != 0) {... */\n      tag_167\n      jumpi\n      pop\n        /* \"src/utils/DateTime.sol\":547:551  true */\n      0x01\n      swap2\n        /* \"src/utils/DateTime.sol\":369:656  function isLeapYear(uint16 year) private pure returns (bool) {... */\n      swap1\n      pop\n      jump\t// out\n        /* \"src/utils/DateTime.sol\":505:562  if (year % 100 != 0) {... */\n    tag_167:\n        /* \"src/utils/DateTime.sol\":575:585  year % 400 */\n      tag_168\n        /* \"src/utils/DateTime.sol\":582:585  400 */\n      0x0190\n        /* \"src/utils/DateTime.sol\":575:579  year */\n      dup4\n        /* \"src/utils/DateTime.sol\":575:585  year % 400 */\n      tag_164\n      jump\t// in\n    tag_168:\n        /* \"src/utils/DateTime.sol\":575:590  year % 400 != 0 */\n      0xffff\n      and\n      iszero\n        /* \"src/utils/DateTime.sol\":571:629  if (year % 400 != 0) {... */\n      tag_169\n      jumpi\n      pop\n        /* \"src/utils/DateTime.sol\":613:618  false */\n      0x00\n      swap2\n        /* \"src/utils/DateTime.sol\":369:656  function isLeapYear(uint16 year) private pure returns (bool) {... */\n      swap1\n      pop\n      jump\t// out\n        /* \"src/utils/DateTime.sol\":571:629  if (year % 400 != 0) {... */\n    tag_169:\n      pop\n        /* \"src/utils/DateTime.sol\":645:649  true */\n      0x01\n      swap2\n        /* \"src/utils/DateTime.sol\":369:656  function isLeapYear(uint16 year) private pure returns (bool) {... */\n      swap1\n      pop\n      jump\t// out\n    tag_114:\n      mload(0x40)\n      dup1\n      0x0180\n      add\n      0x40\n      mstore\n      dup1\n      0x0c\n      swap1\n      0x20\n      dup3\n      mul\n      dup1\n      calldatasize\n      dup4\n      calldatacopy\n      pop\n      swap2\n      swap3\n      swap2\n      pop\n      pop\n      jump\t// out\n        /* \"#utility.yul\":14:141   */\n    tag_170:\n        /* \"#utility.yul\":75:85   */\n      0x4e487b71\n        /* \"#utility.yul\":70:73   */\n      0xe0\n        /* \"#utility.yul\":66:86   */\n      shl\n        /* \"#utility.yul\":63:64   */\n      0x00\n        /* \"#utility.yul\":56:87   */\n      mstore\n        /* \"#utility.yul\":106:110   */\n      0x41\n        /* \"#utility.yul\":103:104   */\n      0x04\n        /* \"#utility.yul\":96:111   */\n      mstore\n        /* \"#utility.yul\":130:134   */\n      0x24\n        /* \"#utility.yul\":127:128   */\n      0x00\n        /* \"#utility.yul\":120:135   */\n      revert\n        /* \"#utility.yul\":146:1067   */\n    tag_5:\n        /* \"#utility.yul\":214:220   */\n      0x00\n        /* \"#utility.yul\":267:269   */\n      0x20\n        /* \"#utility.yul\":255:264   */\n      dup3\n        /* \"#utility.yul\":246:253   */\n      dup5\n        /* \"#utility.yul\":242:265   */\n      sub\n        /* \"#utility.yul\":238:270   */\n      slt\n        /* \"#utility.yul\":235:287   */\n      iszero\n      tag_175\n      jumpi\n        /* \"#utility.yul\":283:284   */\n      0x00\n        /* \"#utility.yul\":280:281   */\n      dup1\n        /* \"#utility.yul\":273:285   */\n      revert\n        /* \"#utility.yul\":235:287   */\n    tag_175:\n        /* \"#utility.yul\":323:332   */\n      dup2\n        /* \"#utility.yul\":310:333   */\n      calldataload\n        /* \"#utility.yul\":352:370   */\n      0xffffffffffffffff\n        /* \"#utility.yul\":393:395   */\n      dup1\n        /* \"#utility.yul\":385:391   */\n      dup3\n        /* \"#utility.yul\":382:396   */\n      gt\n        /* \"#utility.yul\":379:413   */\n      iszero\n      tag_176\n      jumpi\n        /* \"#utility.yul\":409:410   */\n      0x00\n        /* \"#utility.yul\":406:407   */\n      dup1\n        /* \"#utility.yul\":399:411   */\n      revert\n        /* \"#utility.yul\":379:413   */\n    tag_176:\n        /* \"#utility.yul\":447:453   */\n      dup2\n        /* \"#utility.yul\":436:445   */\n      dup5\n        /* \"#utility.yul\":432:454   */\n      add\n        /* \"#utility.yul\":422:454   */\n      swap2\n      pop\n        /* \"#utility.yul\":492:499   */\n      dup5\n        /* \"#utility.yul\":485:489   */\n      0x1f\n        /* \"#utility.yul\":481:483   */\n      dup4\n        /* \"#utility.yul\":477:490   */\n      add\n        /* \"#utility.yul\":473:500   */\n      slt\n        /* \"#utility.yul\":463:518   */\n      tag_177\n      jumpi\n        /* \"#utility.yul\":514:515   */\n      0x00\n        /* \"#utility.yul\":511:512   */\n      dup1\n        /* \"#utility.yul\":504:516   */\n      revert\n        /* \"#utility.yul\":463:518   */\n    tag_177:\n        /* \"#utility.yul\":550:552   */\n      dup2\n        /* \"#utility.yul\":537:553   */\n      calldataload\n        /* \"#utility.yul\":572:574   */\n      dup2\n        /* \"#utility.yul\":568:570   */\n      dup2\n        /* \"#utility.yul\":565:575   */\n      gt\n        /* \"#utility.yul\":562:598   */\n      iszero\n      tag_179\n      jumpi\n        /* \"#utility.yul\":578:596   */\n      tag_179\n      tag_170\n      jump\t// in\n    tag_179:\n        /* \"#utility.yul\":653:655   */\n      0x40\n        /* \"#utility.yul\":647:656   */\n      mload\n        /* \"#utility.yul\":621:623   */\n      0x1f\n        /* \"#utility.yul\":707:720   */\n      dup3\n      add\n      not(0x1f)\n        /* \"#utility.yul\":703:725   */\n      swap1\n      dup2\n      and\n        /* \"#utility.yul\":727:729   */\n      0x3f\n        /* \"#utility.yul\":699:730   */\n      add\n        /* \"#utility.yul\":695:735   */\n      and\n        /* \"#utility.yul\":683:736   */\n      dup2\n      add\n      swap1\n        /* \"#utility.yul\":751:769   */\n      dup4\n      dup3\n      gt\n        /* \"#utility.yul\":771:793   */\n      dup2\n      dup4\n      lt\n        /* \"#utility.yul\":748:794   */\n      or\n        /* \"#utility.yul\":745:817   */\n      iszero\n      tag_181\n      jumpi\n        /* \"#utility.yul\":797:815   */\n      tag_181\n      tag_170\n      jump\t// in\n    tag_181:\n        /* \"#utility.yul\":837:847   */\n      dup2\n        /* \"#utility.yul\":833:835   */\n      0x40\n        /* \"#utility.yul\":826:848   */\n      mstore\n        /* \"#utility.yul\":872:874   */\n      dup3\n        /* \"#utility.yul\":864:870   */\n      dup2\n        /* \"#utility.yul\":857:875   */\n      mstore\n        /* \"#utility.yul\":912:919   */\n      dup8\n        /* \"#utility.yul\":907:909   */\n      0x20\n        /* \"#utility.yul\":902:904   */\n      dup5\n        /* \"#utility.yul\":898:900   */\n      dup8\n        /* \"#utility.yul\":894:905   */\n      add\n        /* \"#utility.yul\":890:910   */\n      add\n        /* \"#utility.yul\":887:920   */\n      gt\n        /* \"#utility.yul\":884:937   */\n      iszero\n      tag_182\n      jumpi\n        /* \"#utility.yul\":933:934   */\n      0x00\n        /* \"#utility.yul\":930:931   */\n      dup1\n        /* \"#utility.yul\":923:935   */\n      revert\n        /* \"#utility.yul\":884:937   */\n    tag_182:\n        /* \"#utility.yul\":989:991   */\n      dup3\n        /* \"#utility.yul\":984:986   */\n      0x20\n        /* \"#utility.yul\":980:982   */\n      dup7\n        /* \"#utility.yul\":976:987   */\n      add\n        /* \"#utility.yul\":971:973   */\n      0x20\n        /* \"#utility.yul\":963:969   */\n      dup4\n        /* \"#utility.yul\":959:974   */\n      add\n        /* \"#utility.yul\":946:992   */\n      calldatacopy\n        /* \"#utility.yul\":1034:1035   */\n      0x00\n        /* \"#utility.yul\":1012:1027   */\n      swap3\n      dup2\n      add\n        /* \"#utility.yul\":1029:1031   */\n      0x20\n        /* \"#utility.yul\":1008:1032   */\n      add\n        /* \"#utility.yul\":1001:1036   */\n      swap3\n      swap1\n      swap3\n      mstore\n      pop\n        /* \"#utility.yul\":1016:1022   */\n      swap6\n        /* \"#utility.yul\":146:1067   */\n      swap5\n      pop\n      pop\n      pop\n      pop\n      pop\n      jump\t// out\n        /* \"#utility.yul\":1262:1389   */\n    tag_13:\n        /* \"#utility.yul\":1323:1333   */\n      0x4e487b71\n        /* \"#utility.yul\":1318:1321   */\n      0xe0\n        /* \"#utility.yul\":1314:1334   */\n      shl\n        /* \"#utility.yul\":1311:1312   */\n      0x00\n        /* \"#utility.yul\":1304:1335   */\n      mstore\n        /* \"#utility.yul\":1354:1358   */\n      0x32\n        /* \"#utility.yul\":1351:1352   */\n      0x04\n        /* \"#utility.yul\":1344:1359   */\n      mstore\n        /* \"#utility.yul\":1378:1382   */\n      0x24\n        /* \"#utility.yul\":1375:1376   */\n      0x00\n        /* \"#utility.yul\":1368:1383   */\n      revert\n        /* \"#utility.yul\":1394:1521   */\n    tag_171:\n        /* \"#utility.yul\":1455:1465   */\n      0x4e487b71\n        /* \"#utility.yul\":1450:1453   */\n      0xe0\n        /* \"#utility.yul\":1446:1466   */\n      shl\n        /* \"#utility.yul\":1443:1444   */\n      0x00\n        /* \"#utility.yul\":1436:1467   */\n      mstore\n        /* \"#utility.yul\":1486:1490   */\n      0x11\n        /* \"#utility.yul\":1483:1484   */\n      0x04\n        /* \"#utility.yul\":1476:1491   */\n      mstore\n        /* \"#utility.yul\":1510:1514   */\n      0x24\n        /* \"#utility.yul\":1507:1508   */\n      0x00\n        /* \"#utility.yul\":1500:1515   */\n      revert\n        /* \"#utility.yul\":1526:1677   */\n    tag_15:\n        /* \"#utility.yul\":1616:1620   */\n      0xff\n        /* \"#utility.yul\":1609:1621   */\n      dup3\n      dup2\n      and\n        /* \"#utility.yul\":1595:1607   */\n      dup3\n      dup3\n      and\n        /* \"#utility.yul\":1591:1622   */\n      sub\n      swap1\n        /* \"#utility.yul\":1634:1648   */\n      dup2\n      gt\n        /* \"#utility.yul\":1631:1671   */\n      iszero\n      tag_188\n      jumpi\n        /* \"#utility.yul\":1651:1669   */\n      tag_188\n      tag_171\n      jump\t// in\n    tag_188:\n        /* \"#utility.yul\":1526:1677   */\n      swap3\n      swap2\n      pop\n      pop\n      jump\t// out\n        /* \"#utility.yul\":1682:1850   */\n    tag_18:\n        /* \"#utility.yul\":1749:1755   */\n      0xffff\n        /* \"#utility.yul\":1775:1785   */\n      dup2\n      dup2\n      and\n        /* \"#utility.yul\":1787:1797   */\n      dup4\n      dup3\n      and\n        /* \"#utility.yul\":1771:1798   */\n      add\n      swap1\n        /* \"#utility.yul\":1810:1821   */\n      dup1\n      dup3\n      gt\n        /* \"#utility.yul\":1807:1844   */\n      iszero\n      tag_191\n      jumpi\n        /* \"#utility.yul\":1824:1842   */\n      tag_191\n      tag_171\n      jump\t// in\n    tag_191:\n        /* \"#utility.yul\":1807:1844   */\n      pop\n        /* \"#utility.yul\":1682:1850   */\n      swap3\n      swap2\n      pop\n      pop\n      jump\t// out\n        /* \"#utility.yul\":1855:2080   */\n    tag_26:\n        /* \"#utility.yul\":1959:1963   */\n      0xff\n        /* \"#utility.yul\":1938:1950   */\n      dup2\n      dup2\n      and\n        /* \"#utility.yul\":1952:1964   */\n      dup4\n      dup3\n      and\n        /* \"#utility.yul\":1934:1965   */\n      mul\n        /* \"#utility.yul\":1985:2007   */\n      swap1\n      dup2\n      and\n      swap1\n        /* \"#utility.yul\":2026:2050   */\n      dup2\n      dup2\n      eq\n        /* \"#utility.yul\":2016:2074   */\n      tag_191\n      jumpi\n        /* \"#utility.yul\":2054:2072   */\n      tag_191\n      tag_171\n      jump\t// in\n        /* \"#utility.yul\":2085:2330   */\n    tag_31:\n        /* \"#utility.yul\":2156:2162   */\n      0xffff\n        /* \"#utility.yul\":2194:2204   */\n      dup2\n      dup2\n      and\n        /* \"#utility.yul\":2206:2216   */\n      dup4\n      dup3\n      and\n        /* \"#utility.yul\":2190:2217   */\n      mul\n        /* \"#utility.yul\":2237:2257   */\n      dup1\n      dup3\n      and\n      swap2\n        /* \"#utility.yul\":2156:2162   */\n      swap1\n        /* \"#utility.yul\":2276:2300   */\n      dup3\n      dup2\n      eq\n        /* \"#utility.yul\":2266:2324   */\n      tag_197\n      jumpi\n        /* \"#utility.yul\":2304:2322   */\n      tag_197\n      tag_171\n      jump\t// in\n    tag_197:\n        /* \"#utility.yul\":2266:2324   */\n      pop\n      pop\n        /* \"#utility.yul\":2085:2330   */\n      swap3\n      swap2\n      pop\n      pop\n      jump\t// out\n        /* \"#utility.yul\":2335:2483   */\n    tag_35:\n        /* \"#utility.yul\":2423:2427   */\n      0xff\n        /* \"#utility.yul\":2402:2414   */\n      dup2\n      dup2\n      and\n        /* \"#utility.yul\":2416:2428   */\n      dup4\n      dup3\n      and\n        /* \"#utility.yul\":2398:2429   */\n      add\n      swap1\n        /* \"#utility.yul\":2441:2454   */\n      dup2\n      gt\n        /* \"#utility.yul\":2438:2477   */\n      iszero\n      tag_188\n      jumpi\n        /* \"#utility.yul\":2457:2475   */\n      tag_188\n      tag_171\n      jump\t// in\n        /* \"#utility.yul\":2488:2613   */\n    tag_110:\n        /* \"#utility.yul\":2553:2562   */\n      dup1\n      dup3\n      add\n        /* \"#utility.yul\":2574:2584   */\n      dup1\n      dup3\n      gt\n        /* \"#utility.yul\":2571:2607   */\n      iszero\n      tag_188\n      jumpi\n        /* \"#utility.yul\":2587:2605   */\n      tag_188\n      tag_171\n      jump\t// in\n        /* \"#utility.yul\":2618:2789   */\n    tag_148:\n        /* \"#utility.yul\":2686:2692   */\n      0xffff\n        /* \"#utility.yul\":2725:2735   */\n      dup3\n      dup2\n      and\n        /* \"#utility.yul\":2713:2723   */\n      dup3\n      dup3\n      and\n        /* \"#utility.yul\":2709:2736   */\n      sub\n      swap1\n        /* \"#utility.yul\":2748:2760   */\n      dup1\n      dup3\n      gt\n        /* \"#utility.yul\":2745:2783   */\n      iszero\n      tag_191\n      jumpi\n        /* \"#utility.yul\":2763:2781   */\n      tag_191\n      tag_171\n      jump\t// in\n        /* \"#utility.yul\":2794:2962   */\n    tag_152:\n        /* \"#utility.yul\":2867:2876   */\n      dup1\n      dup3\n      mul\n        /* \"#utility.yul\":2898:2907   */\n      dup2\n      iszero\n        /* \"#utility.yul\":2915:2930   */\n      dup3\n      dup3\n      div\n        /* \"#utility.yul\":2909:2931   */\n      dup5\n      eq\n        /* \"#utility.yul\":2895:2932   */\n      or\n        /* \"#utility.yul\":2885:2956   */\n      tag_188\n      jumpi\n        /* \"#utility.yul\":2936:2954   */\n      tag_188\n      tag_171\n      jump\t// in\n        /* \"#utility.yul\":2967:3243   */\n    tag_164:\n        /* \"#utility.yul\":2998:2999   */\n      0x00\n        /* \"#utility.yul\":3024:3030   */\n      0xffff\n        /* \"#utility.yul\":3057:3059   */\n      dup1\n        /* \"#utility.yul\":3054:3055   */\n      dup5\n        /* \"#utility.yul\":3050:3060   */\n      and\n        /* \"#utility.yul\":3079:3082   */\n      dup1\n        /* \"#utility.yul\":3069:3203   */\n      tag_211\n      jumpi\n        /* \"#utility.yul\":3125:3135   */\n      0x4e487b71\n        /* \"#utility.yul\":3120:3123   */\n      0xe0\n        /* \"#utility.yul\":3116:3136   */\n      shl\n        /* \"#utility.yul\":3113:3114   */\n      0x00\n        /* \"#utility.yul\":3106:3137   */\n      mstore\n        /* \"#utility.yul\":3160:3164   */\n      0x12\n        /* \"#utility.yul\":3157:3158   */\n      0x04\n        /* \"#utility.yul\":3150:3165   */\n      mstore\n        /* \"#utility.yul\":3188:3192   */\n      0x24\n        /* \"#utility.yul\":3185:3186   */\n      0x00\n        /* \"#utility.yul\":3178:3193   */\n      revert\n        /* \"#utility.yul\":3069:3203   */\n    tag_211:\n        /* \"#utility.yul\":3221:3231   */\n      swap3\n      and\n        /* \"#utility.yul\":3217:3237   */\n      swap2\n      swap1\n      swap2\n      mod\n      swap3\n        /* \"#utility.yul\":2967:3243   */\n      swap2\n      pop\n      pop\n      jump\t// out\n\n    auxdata: 0xa26469706673582212208dd221223f0fb51dbb7db034f6595eb35e22cadbf9655b7fec377300aad9fedf64736f6c63430008160033\n}\n",
				"bytecode": {
					"linkReferences": {},
					"object": "6108b7610035600b8282823980515f1a60731461002957634e487b7160e01b5f525f60045260245ffd5b305f52607381538281f3fe7300000000000000000000000000000000000000003014608060405260043610610034575f3560e01c8063095385c614610038575b5f80fd5b61004b6100463660046106a1565b61005d565b60405190815260200160405180910390f35b5f805f805f805f808851600d036100be57600560308a5f815181106100845761008461074c565b0160200151610096919060f81c610774565b60ff1610156100b2576100ab6107d088610793565b9650610143565b6100ab61076c88610793565b6030896001815181106100d3576100d361074c565b01602001516100e5919060f81c610774565b6100f09060646107b5565b60ff1660308a5f815181106101075761010761074c565b0160200151610119919060f81c610774565b6101289060ff166103e86107d1565b6101329190610793565b61013c9088610793565b9650600290505b6030896101518360016107f7565b60ff16815181106101645761016461074c565b016020015160f81c60308b610179855f6107f7565b60ff168151811061018c5761018c61074c565b016020015161019e919060f81c610774565b6101a990600a6107b5565b6101b391906107f7565b6101bd9190610774565b6101ca9060ff1688610793565b96506030896101da8360036107f7565b60ff16815181106101ed576101ed61074c565b016020015160f81c60308b6102038560026107f7565b60ff16815181106102165761021661074c565b0160200151610228919060f81c610774565b61023390600a6107b5565b61023d91906107f7565b6102479190610774565b95506030896102578360056107f7565b60ff168151811061026a5761026a61074c565b016020015160f81c60308b6102808560046107f7565b60ff16815181106102935761029361074c565b01602001516102a5919060f81c610774565b6102b090600a6107b5565b6102ba91906107f7565b6102c49190610774565b6102ce90866107f7565b94506030896102de8360076107f7565b60ff16815181106102f1576102f161074c565b016020015160f81c60308b6103078560066107f7565b60ff168151811061031a5761031a61074c565b016020015161032c919060f81c610774565b61033790600a6107b5565b61034191906107f7565b61034b9190610774565b61035590856107f7565b93506030896103658360096107f7565b60ff16815181106103785761037861074c565b016020015160f81c60308b61038e8560086107f7565b60ff16815181106103a1576103a161074c565b01602001516103b3919060f81c610774565b6103be90600a6107b5565b6103c891906107f7565b6103d29190610774565b6103dc90846107f7565b92506030896103ec83600b6107f7565b60ff16815181106103ff576103ff61074c565b016020015160f81c60308b61041585600a6107f7565b60ff16815181106104285761042861074c565b016020015161043a919060f81c610774565b61044590600a6107b5565b61044f91906107f7565b6104599190610774565b61046390836107f7565b9150610473878787878787610480565b9998505050505050505050565b5f6107b25b8761ffff168161ffff1610156104d15761049e81610612565b156104b8576104b16301e2850083610810565b91506104c9565b6104c66301e1338083610810565b91505b600101610485565b6104d961066e565b601f81526104e689610612565b156104f757601d60208201526104ff565b601c60208201525b601f60408201819052601e606083018190526080830182905260a0830181905260c0830182905260e0830182905261010083018190526101208301829052610140830152610160820152600191505b8760ff168261ffff1610156105a95780610569600184610823565b61ffff16600c811061057d5761057d61074c565b60200201516105929060ff166201518061083e565b61059c9084610810565b925060019091019061054e565b6105b4600188610774565b6105c49060ff166201518061083e565b6105ce9084610810565b92506105df60ff8716610e1061083e565b6105e99084610810565b92506105f960ff8616603c61083e565b6106039084610810565b925061047360ff851684610810565b5f61061e600483610855565b61ffff161561062e57505f919050565b610639606483610855565b61ffff161561064a57506001919050565b61065661019083610855565b61ffff161561066657505f919050565b506001919050565b604051806101800160405280600c906020820280368337509192915050565b634e487b7160e01b5f52604160045260245ffd5b5f602082840312156106b1575f80fd5b813567ffffffffffffffff808211156106c8575f80fd5b818401915084601f8301126106db575f80fd5b8135818111156106ed576106ed61068d565b604051601f8201601f19908116603f011681019083821181831017156107155761071561068d565b8160405282815287602084870101111561072d575f80fd5b826020860160208301375f928101602001929092525095945050505050565b634e487b7160e01b5f52603260045260245ffd5b634e487b7160e01b5f52601160045260245ffd5b60ff828116828216039081111561078d5761078d610760565b92915050565b61ffff8181168382160190808211156107ae576107ae610760565b5092915050565b60ff81811683821602908116908181146107ae576107ae610760565b61ffff8181168382160280821691908281146107ef576107ef610760565b505092915050565b60ff818116838216019081111561078d5761078d610760565b8082018082111561078d5761078d610760565b61ffff8281168282160390808211156107ae576107ae610760565b808202811582820484141761078d5761078d610760565b5f61ffff8084168061087557634e487b7160e01b5f52601260045260245ffd5b9216919091069291505056fea26469706673582212208dd221223f0fb51dbb7db034f6595eb35e22cadbf9655b7fec377300aad9fedf64736f6c63430008160033",
					"opcodes": "PUSH2 0x8B7 PUSH2 0x35 PUSH1 0xB DUP3 DUP3 DUP3 CODECOPY DUP1 MLOAD PUSH0 BYTE PUSH1 0x73 EQ PUSH2 0x29 JUMPI PUSH4 0x4E487B71 PUSH1 0xE0 SHL PUSH0 MSTORE PUSH0 PUSH1 0x4 MSTORE PUSH1 0x24 PUSH0 REVERT JUMPDEST ADDRESS PUSH0 MSTORE PUSH1 0x73 DUP2 MSTORE8 DUP3 DUP2 RETURN INVALID PUSH20 0x0 ADDRESS EQ PUSH1 0x80 PUSH1 0x40 MSTORE PUSH1 0x4 CALLDATASIZE LT PUSH2 0x34 JUMPI PUSH0 CALLDATALOAD PUSH1 0xE0 SHR DUP1 PUSH4 0x95385C6 EQ PUSH2 0x38 JUMPI JUMPDEST PUSH0 DUP1 REVERT JUMPDEST PUSH2 0x4B PUSH2 0x46 CALLDATASIZE PUSH1 0x4 PUSH2 0x6A1 JUMP JUMPDEST PUSH2 0x5D JUMP JUMPDEST PUSH1 0x40 MLOAD SWAP1 DUP2 MSTORE PUSH1 0x20 ADD PUSH1 0x40 MLOAD DUP1 SWAP2 SUB SWAP1 RETURN JUMPDEST PUSH0 DUP1 PUSH0 DUP1 PUSH0 DUP1 PUSH0 DUP1 DUP9 MLOAD PUSH1 0xD SUB PUSH2 0xBE JUMPI PUSH1 0x5 PUSH1 0x30 DUP11 PUSH0 DUP2 MLOAD DUP2 LT PUSH2 0x84 JUMPI PUSH2 0x84 PUSH2 0x74C JUMP JUMPDEST ADD PUSH1 0x20 ADD MLOAD PUSH2 0x96 SWAP2 SWAP1 PUSH1 0xF8 SHR PUSH2 0x774 JUMP JUMPDEST PUSH1 0xFF AND LT ISZERO PUSH2 0xB2 JUMPI PUSH2 0xAB PUSH2 0x7D0 DUP9 PUSH2 0x793 JUMP JUMPDEST SWAP7 POP PUSH2 0x143 JUMP JUMPDEST PUSH2 0xAB PUSH2 0x76C DUP9 PUSH2 0x793 JUMP JUMPDEST PUSH1 0x30 DUP10 PUSH1 0x1 DUP2 MLOAD DUP2 LT PUSH2 0xD3 JUMPI PUSH2 0xD3 PUSH2 0x74C JUMP JUMPDEST ADD PUSH1 0x20 ADD MLOAD PUSH2 0xE5 SWAP2 SWAP1 PUSH1 0xF8 SHR PUSH2 0x774 JUMP JUMPDEST PUSH2 0xF0 SWAP1 PUSH1 0x64 PUSH2 0x7B5 JUMP JUMPDEST PUSH1 0xFF AND PUSH1 0x30 DUP11 PUSH0 DUP2 MLOAD DUP2 LT PUSH2 0x107 JUMPI PUSH2 0x107 PUSH2 0x74C JUMP JUMPDEST ADD PUSH1 0x20 ADD MLOAD PUSH2 0x119 SWAP2 SWAP1 PUSH1 0xF8 SHR PUSH2 0x774 JUMP JUMPDEST PUSH2 0x128 SWAP1 PUSH1 0xFF AND PUSH2 0x3E8 PUSH2 0x7D1 JUMP JUMPDEST PUSH2 0x132 SWAP2 SWAP1 PUSH2 0x793 JUMP JUMPDEST PUSH2 0x13C SWAP1 DUP9 PUSH2 0x793 JUMP JUMPDEST SWAP7 POP PUSH1 0x2 SWAP1 POP JUMPDEST PUSH1 0x30 DUP10 PUSH2 0x151 DUP4 PUSH1 0x1 PUSH2 0x7F7 JUMP JUMPDEST PUSH1 0xFF AND DUP2 MLOAD DUP2 LT PUSH2 0x164 JUMPI PUSH2 0x164 PUSH2 0x74C JUMP JUMPDEST ADD PUSH1 0x20 ADD MLOAD PUSH1 0xF8 SHR PUSH1 0x30 DUP12 PUSH2 0x179 DUP6 PUSH0 PUSH2 0x7F7 JUMP JUMPDEST PUSH1 0xFF AND DUP2 MLOAD DUP2 LT PUSH2 0x18C JUMPI PUSH2 0x18C PUSH2 0x74C JUMP JUMPDEST ADD PUSH1 0x20 ADD MLOAD PUSH2 0x19E SWAP2 SWAP1 PUSH1 0xF8 SHR PUSH2 0x774 JUMP JUMPDEST PUSH2 0x1A9 SWAP1 PUSH1 0xA PUSH2 0x7B5 JUMP JUMPDEST PUSH2 0x1B3 SWAP2 SWAP1 PUSH2 0x7F7 JUMP JUMPDEST PUSH2 0x1BD SWAP2 SWAP1 PUSH2 0x774 JUMP JUMPDEST PUSH2 0x1CA SWAP1 PUSH1 0xFF AND DUP9 PUSH2 0x793 JUMP JUMPDEST SWAP7 POP PUSH1 0x30 DUP10 PUSH2 0x1DA DUP4 PUSH1 0x3 PUSH2 0x7F7 JUMP JUMPDEST PUSH1 0xFF AND DUP2 MLOAD DUP2 LT PUSH2 0x1ED JUMPI PUSH2 0x1ED PUSH2 0x74C JUMP JUMPDEST ADD PUSH1 0x20 ADD MLOAD PUSH1 0xF8 SHR PUSH1 0x30 DUP12 PUSH2 0x203 DUP6 PUSH1 0x2 PUSH2 0x7F7 JUMP JUMPDEST PUSH1 0xFF AND DUP2 MLOAD DUP2 LT PUSH2 0x216 JUMPI PUSH2 0x216 PUSH2 0x74C JUMP JUMPDEST ADD PUSH1 0x20 ADD MLOAD PUSH2 0x228 SWAP2 SWAP1 PUSH1 0xF8 SHR PUSH2 0x774 JUMP JUMPDEST PUSH2 0x233 SWAP1 PUSH1 0xA PUSH2 0x7B5 JUMP JUMPDEST PUSH2 0x23D SWAP2 SWAP1 PUSH2 0x7F7 JUMP JUMPDEST PUSH2 0x247 SWAP2 SWAP1 PUSH2 0x774 JUMP JUMPDEST SWAP6 POP PUSH1 0x30 DUP10 PUSH2 0x257 DUP4 PUSH1 0x5 PUSH2 0x7F7 JUMP JUMPDEST PUSH1 0xFF AND DUP2 MLOAD DUP2 LT PUSH2 0x26A JUMPI PUSH2 0x26A PUSH2 0x74C JUMP JUMPDEST ADD PUSH1 0x20 ADD MLOAD PUSH1 0xF8 SHR PUSH1 0x30 DUP12 PUSH2 0x280 DUP6 PUSH1 0x4 PUSH2 0x7F7 JUMP JUMPDEST PUSH1 0xFF AND DUP2 MLOAD DUP2 LT PUSH2 0x293 JUMPI PUSH2 0x293 PUSH2 0x74C JUMP JUMPDEST ADD PUSH1 0x20 ADD MLOAD PUSH2 0x2A5 SWAP2 SWAP1 PUSH1 0xF8 SHR PUSH2 0x774 JUMP JUMPDEST PUSH2 0x2B0 SWAP1 PUSH1 0xA PUSH2 0x7B5 JUMP JUMPDEST PUSH2 0x2BA SWAP2 SWAP1 PUSH2 0x7F7 JUMP JUMPDEST PUSH2 0x2C4 SWAP2 SWAP1 PUSH2 0x774 JUMP JUMPDEST PUSH2 0x2CE SWAP1 DUP7 PUSH2 0x7F7 JUMP JUMPDEST SWAP5 POP PUSH1 0x30 DUP10 PUSH2 0x2DE DUP4 PUSH1 0x7 PUSH2 0x7F7 JUMP JUMPDEST PUSH1 0xFF AND DUP2 MLOAD DUP2 LT PUSH2 0x2F1 JUMPI PUSH2 0x2F1 PUSH2 0x74C JUMP JUMPDEST ADD PUSH1 0x20 ADD MLOAD PUSH1 0xF8 SHR PUSH1 0x30 DUP12 PUSH2 0x307 DUP6 PUSH1 0x6 PUSH2 0x7F7 JUMP JUMPDEST PUSH1 0xFF AND DUP2 MLOAD DUP2 LT PUSH2 0x31A JUMPI PUSH2 0x31A PUSH2 0x74C JUMP JUMPDEST ADD PUSH1 0x20 ADD MLOAD PUSH2 0x32C SWAP2 SWAP1 PUSH1 0xF8 SHR PUSH2 0x774 JUMP JUMPDEST PUSH2 0x337 SWAP1 PUSH1 0xA PUSH2 0x7B5 JUMP JUMPDEST PUSH2 0x341 SWAP2 SWAP1 PUSH2 0x7F7 JUMP JUMPDEST PUSH2 0x34B SWAP2 SWAP1 PUSH2 0x774 JUMP JUMPDEST PUSH2 0x355 SWAP1 DUP6 PUSH2 0x7F7 JUMP JUMPDEST SWAP4 POP PUSH1 0x30 DUP10 PUSH2 0x365 DUP4 PUSH1 0x9 PUSH2 0x7F7 JUMP JUMPDEST PUSH1 0xFF AND DUP2 MLOAD DUP2 LT PUSH2 0x378 JUMPI PUSH2 0x378 PUSH2 0x74C JUMP JUMPDEST ADD PUSH1 0x20 ADD MLOAD PUSH1 0xF8 SHR PUSH1 0x30 DUP12 PUSH2 0x38E DUP6 PUSH1 0x8 PUSH2 0x7F7 JUMP JUMPDEST PUSH1 0xFF AND DUP2 MLOAD DUP2 LT PUSH2 0x3A1 JUMPI PUSH2 0x3A1 PUSH2 0x74C JUMP JUMPDEST ADD PUSH1 0x20 ADD MLOAD PUSH2 0x3B3 SWAP2 SWAP1 PUSH1 0xF8 SHR PUSH2 0x774 JUMP JUMPDEST PUSH2 0x3BE SWAP1 PUSH1 0xA PUSH2 0x7B5 JUMP JUMPDEST PUSH2 0x3C8 SWAP2 SWAP1 PUSH2 0x7F7 JUMP JUMPDEST PUSH2 0x3D2 SWAP2 SWAP1 PUSH2 0x774 JUMP JUMPDEST PUSH2 0x3DC SWAP1 DUP5 PUSH2 0x7F7 JUMP JUMPDEST SWAP3 POP PUSH1 0x30 DUP10 PUSH2 0x3EC DUP4 PUSH1 0xB PUSH2 0x7F7 JUMP JUMPDEST PUSH1 0xFF AND DUP2 MLOAD DUP2 LT PUSH2 0x3FF JUMPI PUSH2 0x3FF PUSH2 0x74C JUMP JUMPDEST ADD PUSH1 0x20 ADD MLOAD PUSH1 0xF8 SHR PUSH1 0x30 DUP12 PUSH2 0x415 DUP6 PUSH1 0xA PUSH2 0x7F7 JUMP JUMPDEST PUSH1 0xFF AND DUP2 MLOAD DUP2 LT PUSH2 0x428 JUMPI PUSH2 0x428 PUSH2 0x74C JUMP JUMPDEST ADD PUSH1 0x20 ADD MLOAD PUSH2 0x43A SWAP2 SWAP1 PUSH1 0xF8 SHR PUSH2 0x774 JUMP JUMPDEST PUSH2 0x445 SWAP1 PUSH1 0xA PUSH2 0x7B5 JUMP JUMPDEST PUSH2 0x44F SWAP2 SWAP1 PUSH2 0x7F7 JUMP JUMPDEST PUSH2 0x459 SWAP2 SWAP1 PUSH2 0x774 JUMP JUMPDEST PUSH2 0x463 SWAP1 DUP4 PUSH2 0x7F7 JUMP JUMPDEST SWAP2 POP PUSH2 0x473 DUP8 DUP8 DUP8 DUP8 DUP8 DUP8 PUSH2 0x480 JUMP JUMPDEST SWAP10 SWAP9 POP POP POP POP POP POP POP POP POP JUMP JUMPDEST PUSH0 PUSH2 0x7B2 JUMPDEST DUP8 PUSH2 0xFFFF AND DUP2 PUSH2 0xFFFF AND LT ISZERO PUSH2 0x4D1 JUMPI PUSH2 0x49E DUP2 PUSH2 0x612 JUMP JUMPDEST ISZERO PUSH2 0x4B8 JUMPI PUSH2 0x4B1 PUSH4 0x1E28500 DUP4 PUSH2 0x810 JUMP JUMPDEST SWAP2 POP PUSH2 0x4C9 JUMP JUMPDEST PUSH2 0x4C6 PUSH4 0x1E13380 DUP4 PUSH2 0x810 JUMP JUMPDEST SWAP2 POP JUMPDEST PUSH1 0x1 ADD PUSH2 0x485 JUMP JUMPDEST PUSH2 0x4D9 PUSH2 0x66E JUMP JUMPDEST PUSH1 0x1F DUP2 MSTORE PUSH2 0x4E6 DUP10 PUSH2 0x612 JUMP JUMPDEST ISZERO PUSH2 0x4F7 JUMPI PUSH1 0x1D PUSH1 0x20 DUP3 ADD MSTORE PUSH2 0x4FF JUMP JUMPDEST PUSH1 0x1C PUSH1 0x20 DUP3 ADD MSTORE JUMPDEST PUSH1 0x1F PUSH1 0x40 DUP3 ADD DUP2 SWAP1 MSTORE PUSH1 0x1E PUSH1 0x60 DUP4 ADD DUP2 SWAP1 MSTORE PUSH1 0x80 DUP4 ADD DUP3 SWAP1 MSTORE PUSH1 0xA0 DUP4 ADD DUP2 SWAP1 MSTORE PUSH1 0xC0 DUP4 ADD DUP3 SWAP1 MSTORE PUSH1 0xE0 DUP4 ADD DUP3 SWAP1 MSTORE PUSH2 0x100 DUP4 ADD DUP2 SWAP1 MSTORE PUSH2 0x120 DUP4 ADD DUP3 SWAP1 MSTORE PUSH2 0x140 DUP4 ADD MSTORE PUSH2 0x160 DUP3 ADD MSTORE PUSH1 0x1 SWAP2 POP JUMPDEST DUP8 PUSH1 0xFF AND DUP3 PUSH2 0xFFFF AND LT ISZERO PUSH2 0x5A9 JUMPI DUP1 PUSH2 0x569 PUSH1 0x1 DUP5 PUSH2 0x823 JUMP JUMPDEST PUSH2 0xFFFF AND PUSH1 0xC DUP2 LT PUSH2 0x57D JUMPI PUSH2 0x57D PUSH2 0x74C JUMP JUMPDEST PUSH1 0x20 MUL ADD MLOAD PUSH2 0x592 SWAP1 PUSH1 0xFF AND PUSH3 0x15180 PUSH2 0x83E JUMP JUMPDEST PUSH2 0x59C SWAP1 DUP5 PUSH2 0x810 JUMP JUMPDEST SWAP3 POP PUSH1 0x1 SWAP1 SWAP2 ADD SWAP1 PUSH2 0x54E JUMP JUMPDEST PUSH2 0x5B4 PUSH1 0x1 DUP9 PUSH2 0x774 JUMP JUMPDEST PUSH2 0x5C4 SWAP1 PUSH1 0xFF AND PUSH3 0x15180 PUSH2 0x83E JUMP JUMPDEST PUSH2 0x5CE SWAP1 DUP5 PUSH2 0x810 JUMP JUMPDEST SWAP3 POP PUSH2 0x5DF PUSH1 0xFF DUP8 AND PUSH2 0xE10 PUSH2 0x83E JUMP JUMPDEST PUSH2 0x5E9 SWAP1 DUP5 PUSH2 0x810 JUMP JUMPDEST SWAP3 POP PUSH2 0x5F9 PUSH1 0xFF DUP7 AND PUSH1 0x3C PUSH2 0x83E JUMP JUMPDEST PUSH2 0x603 SWAP1 DUP5 PUSH2 0x810 JUMP JUMPDEST SWAP3 POP PUSH2 0x473 PUSH1 0xFF DUP6 AND DUP5 PUSH2 0x810 JUMP JUMPDEST PUSH0 PUSH2 0x61E PUSH1 0x4 DUP4 PUSH2 0x855 JUMP JUMPDEST PUSH2 0xFFFF AND ISZERO PUSH2 0x62E JUMPI POP PUSH0 SWAP2 SWAP1 POP JUMP JUMPDEST PUSH2 0x639 PUSH1 0x64 DUP4 PUSH2 0x855 JUMP JUMPDEST PUSH2 0xFFFF AND ISZERO PUSH2 0x64A JUMPI POP PUSH1 0x1 SWAP2 SWAP1 POP JUMP JUMPDEST PUSH2 0x656 PUSH2 0x190 DUP4 PUSH2 0x855 JUMP JUMPDEST PUSH2 0xFFFF AND ISZERO PUSH2 0x666 JUMPI POP PUSH0 SWAP2 SWAP1 POP JUMP JUMPDEST POP PUSH1 0x1 SWAP2 SWAP1 POP JUMP JUMPDEST PUSH1 0x40 MLOAD DUP1 PUSH2 0x180 ADD PUSH1 0x40 MSTORE DUP1 PUSH1 0xC SWAP1 PUSH1 0x20 DUP3 MUL DUP1 CALLDATASIZE DUP4 CALLDATACOPY POP SWAP2 SWAP3 SWAP2 POP POP JUMP JUMPDEST PUSH4 0x4E487B71 PUSH1 0xE0 SHL PUSH0 MSTORE PUSH1 0x41 PUSH1 0x4 MSTORE PUSH1 0x24 PUSH0 REVERT JUMPDEST PUSH0 PUSH1 0x20 DUP3 DUP5 SUB SLT ISZERO PUSH2 0x6B1 JUMPI PUSH0 DUP1 REVERT JUMPDEST DUP2 CALLDATALOAD PUSH8 0xFFFFFFFFFFFFFFFF DUP1 DUP3 GT ISZERO PUSH2 0x6C8 JUMPI PUSH0 DUP1 REVERT JUMPDEST DUP2 DUP5 ADD SWAP2 POP DUP5 PUSH1 0x1F DUP4 ADD SLT PUSH2 0x6DB JUMPI PUSH0 DUP1 REVERT JUMPDEST DUP2 CALLDATALOAD DUP2 DUP2 GT ISZERO PUSH2 0x6ED JUMPI PUSH2 0x6ED PUSH2 0x68D JUMP JUMPDEST PUSH1 0x40 MLOAD PUSH1 0x1F DUP3 ADD PUSH1 0x1F NOT SWAP1 DUP2 AND PUSH1 0x3F ADD AND DUP2 ADD SWAP1 DUP4 DUP3 GT DUP2 DUP4 LT OR ISZERO PUSH2 0x715 JUMPI PUSH2 0x715 PUSH2 0x68D JUMP JUMPDEST DUP2 PUSH1 0x40 MSTORE DUP3 DUP2 MSTORE DUP8 PUSH1 0x20 DUP5 DUP8 ADD ADD GT ISZERO PUSH2 0x72D JUMPI PUSH0 DUP1 REVERT JUMPDEST DUP3 PUSH1 0x20 DUP7 ADD PUSH1 0x20 DUP4 ADD CALLDATACOPY PUSH0 SWAP3 DUP2 ADD PUSH1 0x20 ADD SWAP3 SWAP1 SWAP3 MSTORE POP SWAP6 SWAP5 POP POP POP POP POP JUMP JUMPDEST PUSH4 0x4E487B71 PUSH1 0xE0 SHL PUSH0 MSTORE PUSH1 0x32 PUSH1 0x4 MSTORE PUSH1 0x24 PUSH0 REVERT JUMPDEST PUSH4 0x4E487B71 PUSH1 0xE0 SHL PUSH0 MSTORE PUSH1 0x11 PUSH1 0x4 MSTORE PUSH1 0x24 PUSH0 REVERT JUMPDEST PUSH1 0xFF DUP3 DUP2 AND DUP3 DUP3 AND SUB SWAP1 DUP2 GT ISZERO PUSH2 0x78D JUMPI PUSH2 0x78D PUSH2 0x760 JUMP JUMPDEST SWAP3 SWAP2 POP POP JUMP JUMPDEST PUSH2 0xFFFF DUP2 DUP2 AND DUP4 DUP3 AND ADD SWAP1 DUP1 DUP3 GT ISZERO PUSH2 0x7AE JUMPI PUSH2 0x7AE PUSH2 0x760 JUMP JUMPDEST POP SWAP3 SWAP2 POP POP JUMP JUMPDEST PUSH1 0xFF DUP2 DUP2 AND DUP4 DUP3 AND MUL SWAP1 DUP2 AND SWAP1 DUP2 DUP2 EQ PUSH2 0x7AE JUMPI PUSH2 0x7AE PUSH2 0x760 JUMP JUMPDEST PUSH2 0xFFFF DUP2 DUP2 AND DUP4 DUP3 AND MUL DUP1 DUP3 AND SWAP2 SWAP1 DUP3 DUP2 EQ PUSH2 0x7EF JUMPI PUSH2 0x7EF PUSH2 0x760 JUMP JUMPDEST POP POP SWAP3 SWAP2 POP POP JUMP JUMPDEST PUSH1 0xFF DUP2 DUP2 AND DUP4 DUP3 AND ADD SWAP1 DUP2 GT ISZERO PUSH2 0x78D JUMPI PUSH2 0x78D PUSH2 0x760 JUMP JUMPDEST DUP1 DUP3 ADD DUP1 DUP3 GT ISZERO PUSH2 0x78D JUMPI PUSH2 0x78D PUSH2 0x760 JUMP JUMPDEST PUSH2 0xFFFF DUP3 DUP2 AND DUP3 DUP3 AND SUB SWAP1 DUP1 DUP3 GT ISZERO PUSH2 0x7AE JUMPI PUSH2 0x7AE PUSH2 0x760 JUMP JUMPDEST DUP1 DUP3 MUL DUP2 ISZERO DUP3 DUP3 DIV DUP5 EQ OR PUSH2 0x78D JUMPI PUSH2 0x78D PUSH2 0x760 JUMP JUMPDEST PUSH0 PUSH2 0xFFFF DUP1 DUP5 AND DUP1 PUSH2 0x875 JUMPI PUSH4 0x4E487B71 PUSH1 0xE0 SHL PUSH0 MSTORE PUSH1 0x12 PUSH1 0x4 MSTORE PUSH1 0x24 PUSH0 REVERT JUMPDEST SWAP3 AND SWAP2 SWAP1 SWAP2 MOD SWAP3 SWAP2 POP POP JUMP INVALID LOG2 PUSH5 0x6970667358 0x22 SLT KECCAK256 DUP14 0xD2 0x21 0x22 EXTCODEHASH 0xF 0xB5 SAR 0xBB PUSH30 0xB034F6595EB35E22CADBF9655B7FEC377300AAD9FEDF64736F6C63430008 AND STOP CALLER "
				},
				"gasEstimates": {
					"creation": {
						"codeDepositCost": "446200",
						"executionCost": "510",
						"totalCost": "446710"
					},
					"external": {
						"toTimestamp(bytes)": "infinite"
					},
					"internal": {
						"isLeapYear(uint16)": "infinite",
						"toTimestamp(uint16,uint8,uint8,uint8,uint8,uint8)": "infinite"
					}
				},
				"methodIdentifiers": {
					"toTimestamp(bytes)": "095385c6"
				}
			},
			"storageLayout": {
				"storage": [],
				"types": null
			},
			"userdoc": {
				"kind": "user",
				"methods": {},
				"version": 1
			}
		}
	}
}