{
	"src/AttestationVerifier.sol": {
		"AttestationVerifier": {
			"abi": [
				{
					"inputs": [
						{
							"internalType": "bytes",
							"name": "_caCertPubKey",
							"type": "bytes"
						},
						{
							"internalType": "bytes",
							"name": "_rootCert",
							"type": "bytes"
						},
						{
							"internalType": "contract Algorithm",
							"name": "_algo",
							"type": "address"
						}
					],
					"stateMutability": "nonpayable",
					"type": "constructor"
				},
				{
					"inputs": [],
					"name": "caCertPubKey",
					"outputs": [
						{
							"internalType": "bytes",
							"name": "",
							"type": "bytes"
						}
					],
					"stateMutability": "view",
					"type": "function"
				},
				{
					"inputs": [],
					"name": "rootCert",
					"outputs": [
						{
							"internalType": "bytes",
							"name": "",
							"type": "bytes"
						}
					],
					"stateMutability": "view",
					"type": "function"
				},
				{
					"inputs": [],
					"name": "sha256WithRSAEncryption",
					"outputs": [
						{
							"internalType": "contract Algorithm",
							"name": "",
							"type": "address"
						}
					],
					"stateMutability": "view",
					"type": "function"
				},
				{
					"inputs": [
						{
							"internalType": "bytes",
							"name": "attCert",
							"type": "bytes"
						},
						{
							"internalType": "bytes",
							"name": "attBody",
							"type": "bytes"
						},
						{
							"internalType": "bytes",
							"name": "attSig",
							"type": "bytes"
						}
					],
					"name": "verifyAttestation",
					"outputs": [
						{
							"internalType": "bool",
							"name": "",
							"type": "bool"
						}
					],
					"stateMutability": "view",
					"type": "function"
				},
				{
					"inputs": [
						{
							"internalType": "bytes",
							"name": "cert",
							"type": "bytes"
						},
						{
							"internalType": "bytes",
							"name": "pubKey",
							"type": "bytes"
						}
					],
					"name": "verifyCert",
					"outputs": [
						{
							"internalType": "bytes",
							"name": "certPubKey",
							"type": "bytes"
						}
					],
					"stateMutability": "view",
					"type": "function"
				}
			],
			"devdoc": {
				"author": "Lajos Deme, Mercury Labs",
				"kind": "dev",
				"methods": {
					"verifyAttestation(bytes,bytes,bytes)": {
						"details": "See IAttestationVerifier - verifyAttestation "
					},
					"verifyCert(bytes,bytes)": {
						"details": "Parses and verifies a X.509 certificate.",
						"params": {
							"cert": "The X.509 certificate to verify.",
							"pubKey": "The public key of the certificate that signed this certificate."
						}
					}
				},
				"stateVariables": {
					"caCertPubKey": {
						"details": "The public key of the Attestation Report Signing CA Certificate. All Attestation Report Signing certificates must be traced back to this root to be considered valid. To verify that the key is valid, first verify the rootCert using the official certificate downloaded from Intel, then verify this key against that certificate."
					},
					"okBytes": {
						"details": "A succesfully verified enclave attestation report always contains the same bytes at the same position. These bytes stand for \"isvEnclaveQuoteStatus\":\"OK\" which is always part of the report.  "
					},
					"rootCert": {
						"details": "The Attestation Report Signing CA Certificate. This certificate can be downloaded from Intel. To verify that this certificate is correct check that it is identical to the one retrieved from Intel."
					},
					"sha256WithRSAEncryption": {
						"details": "The algorithm used for signing & verifying. "
					}
				},
				"title": "Attestation Verifier",
				"version": 1
			},
			"evm": {
				"assembly": "    /* \"src/AttestationVerifier.sol\":366:5050  contract AttestationVerifier is IAttestationVerifier {... */\n  mstore(0x40, 0x80)\n    /* \"src/AttestationVerifier.sol\":746:812  0x22697376456e636c61766551756f7465537461747573223a224f4b2200000000 */\n  0x22697376456e636c61766551756f7465537461747573223a224f4b2200000000\n    /* \"src/AttestationVerifier.sol\":720:812  bytes32 okBytes =... */\n  0x00\n  sstore\n    /* \"src/AttestationVerifier.sol\":1607:1834  constructor(... */\n  callvalue\n  dup1\n  iszero\n  tag_1\n  jumpi\n  0x00\n  dup1\n  revert\ntag_1:\n  pop\n  mload(0x40)\n  sub(codesize, bytecodeSize)\n  dup1\n  bytecodeSize\n  dup4\n  codecopy\n  dup2\n  add\n  0x40\n  dup2\n  swap1\n  mstore\n  tag_2\n  swap2\n  tag_3\n  jump\t// in\ntag_2:\n    /* \"src/AttestationVerifier.sol\":1728:1740  caCertPubKey */\n  0x01\n    /* \"src/AttestationVerifier.sol\":1728:1756  caCertPubKey = _caCertPubKey */\n  tag_6\n    /* \"src/AttestationVerifier.sol\":1743:1756  _caCertPubKey */\n  dup5\n    /* \"src/AttestationVerifier.sol\":1728:1740  caCertPubKey */\n  dup3\n    /* \"src/AttestationVerifier.sol\":1728:1756  caCertPubKey = _caCertPubKey */\n  tag_7\n  jump\t// in\ntag_6:\n  pop\n    /* \"src/AttestationVerifier.sol\":1766:1774  rootCert */\n  0x02\n    /* \"src/AttestationVerifier.sol\":1766:1786  rootCert = _rootCert */\n  tag_8\n    /* \"src/AttestationVerifier.sol\":1777:1786  _rootCert */\n  dup4\n    /* \"src/AttestationVerifier.sol\":1766:1774  rootCert */\n  dup3\n    /* \"src/AttestationVerifier.sol\":1766:1786  rootCert = _rootCert */\n  tag_7\n  jump\t// in\ntag_8:\n  pop\n    /* \"src/AttestationVerifier.sol\":1796:1819  sha256WithRSAEncryption */\n  0x03\n    /* \"src/AttestationVerifier.sol\":1796:1827  sha256WithRSAEncryption = _algo */\n  dup1\n  sload\n  not(sub(shl(0xa0, 0x01), 0x01))\n  and\n  sub(shl(0xa0, 0x01), 0x01)\n  swap3\n  swap1\n  swap3\n  and\n  swap2\n  swap1\n  swap2\n  or\n  swap1\n  sstore\n  pop\n    /* \"src/AttestationVerifier.sol\":366:5050  contract AttestationVerifier is IAttestationVerifier {... */\n  tag_16\n  swap1\n  pop\n  jump\n    /* \"#utility.yul\":14:141   */\ntag_10:\n    /* \"#utility.yul\":75:85   */\n  0x4e487b71\n    /* \"#utility.yul\":70:73   */\n  0xe0\n    /* \"#utility.yul\":66:86   */\n  shl\n    /* \"#utility.yul\":63:64   */\n  0x00\n    /* \"#utility.yul\":56:87   */\n  mstore\n    /* \"#utility.yul\":106:110   */\n  0x41\n    /* \"#utility.yul\":103:104   */\n  0x04\n    /* \"#utility.yul\":96:111   */\n  mstore\n    /* \"#utility.yul\":130:134   */\n  0x24\n    /* \"#utility.yul\":127:128   */\n  0x00\n    /* \"#utility.yul\":120:135   */\n  revert\n    /* \"#utility.yul\":146:1030   */\ntag_11:\n    /* \"#utility.yul\":199:204   */\n  0x00\n    /* \"#utility.yul\":252:255   */\n  dup3\n    /* \"#utility.yul\":245:249   */\n  0x1f\n    /* \"#utility.yul\":237:243   */\n  dup4\n    /* \"#utility.yul\":233:250   */\n  add\n    /* \"#utility.yul\":229:256   */\n  slt\n    /* \"#utility.yul\":219:274   */\n  tag_19\n  jumpi\n    /* \"#utility.yul\":270:271   */\n  0x00\n    /* \"#utility.yul\":267:268   */\n  dup1\n    /* \"#utility.yul\":260:272   */\n  revert\n    /* \"#utility.yul\":219:274   */\ntag_19:\n    /* \"#utility.yul\":293:306   */\n  dup2\n  mload\n  sub(shl(0x40, 0x01), 0x01)\n    /* \"#utility.yul\":355:365   */\n  dup1\n  dup3\n  gt\n    /* \"#utility.yul\":352:388   */\n  iszero\n  tag_21\n  jumpi\n    /* \"#utility.yul\":368:386   */\n  tag_21\n  tag_10\n  jump\t// in\ntag_21:\n    /* \"#utility.yul\":443:445   */\n  0x40\n    /* \"#utility.yul\":437:446   */\n  mload\n    /* \"#utility.yul\":411:413   */\n  0x1f\n    /* \"#utility.yul\":497:510   */\n  dup4\n  add\n  not(0x1f)\n    /* \"#utility.yul\":493:515   */\n  swap1\n  dup2\n  and\n    /* \"#utility.yul\":517:519   */\n  0x3f\n    /* \"#utility.yul\":489:520   */\n  add\n    /* \"#utility.yul\":485:525   */\n  and\n    /* \"#utility.yul\":473:526   */\n  dup2\n  add\n  swap1\n    /* \"#utility.yul\":541:559   */\n  dup3\n  dup3\n  gt\n    /* \"#utility.yul\":561:583   */\n  dup2\n  dup4\n  lt\n    /* \"#utility.yul\":538:584   */\n  or\n    /* \"#utility.yul\":535:607   */\n  iszero\n  tag_23\n  jumpi\n    /* \"#utility.yul\":587:605   */\n  tag_23\n  tag_10\n  jump\t// in\ntag_23:\n    /* \"#utility.yul\":627:637   */\n  dup2\n    /* \"#utility.yul\":623:625   */\n  0x40\n    /* \"#utility.yul\":616:638   */\n  mstore\n    /* \"#utility.yul\":662:664   */\n  dup4\n    /* \"#utility.yul\":654:660   */\n  dup2\n    /* \"#utility.yul\":647:665   */\n  mstore\n    /* \"#utility.yul\":684:688   */\n  0x20\n    /* \"#utility.yul\":674:688   */\n  swap3\n  pop\n    /* \"#utility.yul\":729:732   */\n  dup7\n    /* \"#utility.yul\":724:726   */\n  dup4\n    /* \"#utility.yul\":719:721   */\n  dup6\n    /* \"#utility.yul\":711:717   */\n  dup9\n    /* \"#utility.yul\":707:722   */\n  add\n    /* \"#utility.yul\":703:727   */\n  add\n    /* \"#utility.yul\":700:733   */\n  gt\n    /* \"#utility.yul\":697:750   */\n  iszero\n  tag_24\n  jumpi\n    /* \"#utility.yul\":746:747   */\n  0x00\n    /* \"#utility.yul\":743:744   */\n  dup1\n    /* \"#utility.yul\":736:748   */\n  revert\n    /* \"#utility.yul\":697:750   */\ntag_24:\n    /* \"#utility.yul\":768:769   */\n  0x00\n    /* \"#utility.yul\":759:769   */\n  swap2\n  pop\n    /* \"#utility.yul\":778:911   */\ntag_25:\n    /* \"#utility.yul\":792:794   */\n  dup4\n    /* \"#utility.yul\":789:790   */\n  dup3\n    /* \"#utility.yul\":786:795   */\n  lt\n    /* \"#utility.yul\":778:911   */\n  iszero\n  tag_27\n  jumpi\n    /* \"#utility.yul\":880:894   */\n  dup6\n  dup3\n  add\n    /* \"#utility.yul\":876:899   */\n  dup4\n  add\n    /* \"#utility.yul\":870:900   */\n  mload\n    /* \"#utility.yul\":849:863   */\n  dup2\n  dup4\n  add\n    /* \"#utility.yul\":845:868   */\n  dup5\n  add\n    /* \"#utility.yul\":838:901   */\n  mstore\n    /* \"#utility.yul\":803:813   */\n  swap1\n  dup3\n  add\n  swap1\n    /* \"#utility.yul\":778:911   */\n  jump(tag_25)\ntag_27:\n    /* \"#utility.yul\":929:931   */\n  dup4\n    /* \"#utility.yul\":926:927   */\n  dup3\n    /* \"#utility.yul\":923:932   */\n  gt\n    /* \"#utility.yul\":920:1000   */\n  iszero\n  tag_28\n  jumpi\n    /* \"#utility.yul\":988:989   */\n  0x00\n    /* \"#utility.yul\":983:985   */\n  dup4\n    /* \"#utility.yul\":978:980   */\n  dup6\n    /* \"#utility.yul\":970:976   */\n  dup4\n    /* \"#utility.yul\":966:981   */\n  add\n    /* \"#utility.yul\":962:986   */\n  add\n    /* \"#utility.yul\":955:990   */\n  mstore\n    /* \"#utility.yul\":920:1000   */\ntag_28:\n    /* \"#utility.yul\":1018:1024   */\n  swap7\n    /* \"#utility.yul\":146:1030   */\n  swap6\n  pop\n  pop\n  pop\n  pop\n  pop\n  pop\n  jump\t// out\n    /* \"#utility.yul\":1035:1777   */\ntag_3:\n    /* \"#utility.yul\":1158:1164   */\n  0x00\n    /* \"#utility.yul\":1166:1172   */\n  dup1\n    /* \"#utility.yul\":1174:1180   */\n  0x00\n    /* \"#utility.yul\":1227:1229   */\n  0x60\n    /* \"#utility.yul\":1215:1224   */\n  dup5\n    /* \"#utility.yul\":1206:1213   */\n  dup7\n    /* \"#utility.yul\":1202:1225   */\n  sub\n    /* \"#utility.yul\":1198:1230   */\n  slt\n    /* \"#utility.yul\":1195:1247   */\n  iszero\n  tag_30\n  jumpi\n    /* \"#utility.yul\":1243:1244   */\n  0x00\n    /* \"#utility.yul\":1240:1241   */\n  dup1\n    /* \"#utility.yul\":1233:1245   */\n  revert\n    /* \"#utility.yul\":1195:1247   */\ntag_30:\n    /* \"#utility.yul\":1270:1286   */\n  dup4\n  mload\n  sub(shl(0x40, 0x01), 0x01)\n    /* \"#utility.yul\":1335:1349   */\n  dup1\n  dup3\n  gt\n    /* \"#utility.yul\":1332:1366   */\n  iszero\n  tag_31\n  jumpi\n    /* \"#utility.yul\":1362:1363   */\n  0x00\n    /* \"#utility.yul\":1359:1360   */\n  dup1\n    /* \"#utility.yul\":1352:1364   */\n  revert\n    /* \"#utility.yul\":1332:1366   */\ntag_31:\n    /* \"#utility.yul\":1385:1445   */\n  tag_32\n    /* \"#utility.yul\":1437:1444   */\n  dup8\n    /* \"#utility.yul\":1428:1434   */\n  dup4\n    /* \"#utility.yul\":1417:1426   */\n  dup9\n    /* \"#utility.yul\":1413:1435   */\n  add\n    /* \"#utility.yul\":1385:1445   */\n  tag_11\n  jump\t// in\ntag_32:\n    /* \"#utility.yul\":1375:1445   */\n  swap5\n  pop\n    /* \"#utility.yul\":1491:1493   */\n  0x20\n    /* \"#utility.yul\":1480:1489   */\n  dup7\n    /* \"#utility.yul\":1476:1494   */\n  add\n    /* \"#utility.yul\":1470:1495   */\n  mload\n    /* \"#utility.yul\":1454:1495   */\n  swap2\n  pop\n    /* \"#utility.yul\":1520:1522   */\n  dup1\n    /* \"#utility.yul\":1510:1518   */\n  dup3\n    /* \"#utility.yul\":1507:1523   */\n  gt\n    /* \"#utility.yul\":1504:1540   */\n  iszero\n  tag_33\n  jumpi\n    /* \"#utility.yul\":1536:1537   */\n  0x00\n    /* \"#utility.yul\":1533:1534   */\n  dup1\n    /* \"#utility.yul\":1526:1538   */\n  revert\n    /* \"#utility.yul\":1504:1540   */\ntag_33:\n  pop\n    /* \"#utility.yul\":1559:1621   */\n  tag_34\n    /* \"#utility.yul\":1613:1620   */\n  dup7\n    /* \"#utility.yul\":1602:1610   */\n  dup3\n    /* \"#utility.yul\":1591:1600   */\n  dup8\n    /* \"#utility.yul\":1587:1611   */\n  add\n    /* \"#utility.yul\":1559:1621   */\n  tag_11\n  jump\t// in\ntag_34:\n    /* \"#utility.yul\":1664:1666   */\n  0x40\n    /* \"#utility.yul\":1649:1667   */\n  dup7\n  add\n    /* \"#utility.yul\":1643:1668   */\n  mload\n    /* \"#utility.yul\":1549:1621   */\n  swap1\n  swap4\n  pop\n    /* \"#utility.yul\":1643:1668   */\n  swap1\n  pop\n  sub(shl(0xa0, 0x01), 0x01)\n    /* \"#utility.yul\":1697:1728   */\n  dup2\n  and\n    /* \"#utility.yul\":1687:1729   */\n  dup2\n  eq\n    /* \"#utility.yul\":1677:1747   */\n  tag_35\n  jumpi\n    /* \"#utility.yul\":1743:1744   */\n  0x00\n    /* \"#utility.yul\":1740:1741   */\n  dup1\n    /* \"#utility.yul\":1733:1745   */\n  revert\n    /* \"#utility.yul\":1677:1747   */\ntag_35:\n    /* \"#utility.yul\":1766:1771   */\n  dup1\n    /* \"#utility.yul\":1756:1771   */\n  swap2\n  pop\n  pop\n    /* \"#utility.yul\":1035:1777   */\n  swap3\n  pop\n  swap3\n  pop\n  swap3\n  jump\t// out\n    /* \"#utility.yul\":1782:2162   */\ntag_12:\n    /* \"#utility.yul\":1861:1862   */\n  0x01\n    /* \"#utility.yul\":1857:1869   */\n  dup2\n  dup2\n  shr\n  swap1\n    /* \"#utility.yul\":1904:1916   */\n  dup3\n  and\n  dup1\n    /* \"#utility.yul\":1925:1986   */\n  tag_37\n  jumpi\n    /* \"#utility.yul\":1979:1983   */\n  0x7f\n    /* \"#utility.yul\":1971:1977   */\n  dup3\n    /* \"#utility.yul\":1967:1984   */\n  and\n    /* \"#utility.yul\":1957:1984   */\n  swap2\n  pop\n    /* \"#utility.yul\":1925:1986   */\ntag_37:\n    /* \"#utility.yul\":2032:2034   */\n  0x20\n    /* \"#utility.yul\":2024:2030   */\n  dup3\n    /* \"#utility.yul\":2021:2035   */\n  lt\n    /* \"#utility.yul\":2001:2019   */\n  dup2\n    /* \"#utility.yul\":1998:2036   */\n  sub\n    /* \"#utility.yul\":1995:2156   */\n  tag_38\n  jumpi\n    /* \"#utility.yul\":2078:2088   */\n  0x4e487b71\n    /* \"#utility.yul\":2073:2076   */\n  0xe0\n    /* \"#utility.yul\":2069:2089   */\n  shl\n    /* \"#utility.yul\":2066:2067   */\n  0x00\n    /* \"#utility.yul\":2059:2090   */\n  mstore\n    /* \"#utility.yul\":2113:2117   */\n  0x22\n    /* \"#utility.yul\":2110:2111   */\n  0x04\n    /* \"#utility.yul\":2103:2118   */\n  mstore\n    /* \"#utility.yul\":2141:2145   */\n  0x24\n    /* \"#utility.yul\":2138:2139   */\n  0x00\n    /* \"#utility.yul\":2131:2146   */\n  revert\n    /* \"#utility.yul\":1995:2156   */\ntag_38:\n  pop\n    /* \"#utility.yul\":1782:2162   */\n  swap2\n  swap1\n  pop\n  jump\t// out\n    /* \"#utility.yul\":2292:2836   */\ntag_14:\n    /* \"#utility.yul\":2393:2395   */\n  0x1f\n    /* \"#utility.yul\":2388:2391   */\n  dup3\n    /* \"#utility.yul\":2385:2396   */\n  gt\n    /* \"#utility.yul\":2382:2830   */\n  iszero\n  tag_41\n  jumpi\n    /* \"#utility.yul\":2429:2430   */\n  0x00\n    /* \"#utility.yul\":2454:2459   */\n  dup2\n    /* \"#utility.yul\":2450:2452   */\n  dup2\n    /* \"#utility.yul\":2443:2460   */\n  mstore\n    /* \"#utility.yul\":2499:2503   */\n  0x20\n    /* \"#utility.yul\":2495:2497   */\n  dup2\n    /* \"#utility.yul\":2485:2504   */\n  keccak256\n    /* \"#utility.yul\":2569:2571   */\n  0x1f\n    /* \"#utility.yul\":2557:2567   */\n  dup6\n    /* \"#utility.yul\":2553:2572   */\n  add\n    /* \"#utility.yul\":2550:2551   */\n  0x05\n    /* \"#utility.yul\":2546:2573   */\n  shr\n    /* \"#utility.yul\":2540:2544   */\n  dup2\n    /* \"#utility.yul\":2536:2574   */\n  add\n    /* \"#utility.yul\":2605:2609   */\n  0x20\n    /* \"#utility.yul\":2593:2603   */\n  dup7\n    /* \"#utility.yul\":2590:2610   */\n  lt\n    /* \"#utility.yul\":2587:2634   */\n  iszero\n  tag_42\n  jumpi\n  pop\n    /* \"#utility.yul\":2628:2632   */\n  dup1\n    /* \"#utility.yul\":2587:2634   */\ntag_42:\n    /* \"#utility.yul\":2683:2685   */\n  0x1f\n    /* \"#utility.yul\":2678:2681   */\n  dup6\n    /* \"#utility.yul\":2674:2686   */\n  add\n    /* \"#utility.yul\":2671:2672   */\n  0x05\n    /* \"#utility.yul\":2667:2687   */\n  shr\n    /* \"#utility.yul\":2661:2665   */\n  dup3\n    /* \"#utility.yul\":2657:2688   */\n  add\n    /* \"#utility.yul\":2647:2688   */\n  swap2\n  pop\n    /* \"#utility.yul\":2738:2820   */\ntag_43:\n    /* \"#utility.yul\":2756:2758   */\n  dup2\n    /* \"#utility.yul\":2749:2754   */\n  dup2\n    /* \"#utility.yul\":2746:2759   */\n  lt\n    /* \"#utility.yul\":2738:2820   */\n  iszero\n  tag_45\n  jumpi\n    /* \"#utility.yul\":2801:2818   */\n  dup3\n  dup2\n  sstore\n    /* \"#utility.yul\":2782:2783   */\n  0x01\n    /* \"#utility.yul\":2771:2784   */\n  add\n    /* \"#utility.yul\":2738:2820   */\n  jump(tag_43)\ntag_45:\n    /* \"#utility.yul\":2742:2745   */\n  pop\n  pop\n  pop\n    /* \"#utility.yul\":2382:2830   */\ntag_41:\n    /* \"#utility.yul\":2292:2836   */\n  pop\n  pop\n  pop\n  jump\t// out\n    /* \"#utility.yul\":3012:4360   */\ntag_7:\n    /* \"#utility.yul\":3130:3140   */\n  dup2\n  mload\n  sub(shl(0x40, 0x01), 0x01)\n    /* \"#utility.yul\":3152:3182   */\n  dup2\n  gt\n    /* \"#utility.yul\":3149:3205   */\n  iszero\n  tag_49\n  jumpi\n    /* \"#utility.yul\":3185:3203   */\n  tag_49\n  tag_10\n  jump\t// in\ntag_49:\n    /* \"#utility.yul\":3214:3310   */\n  tag_50\n    /* \"#utility.yul\":3303:3309   */\n  dup2\n    /* \"#utility.yul\":3263:3301   */\n  tag_51\n    /* \"#utility.yul\":3295:3299   */\n  dup5\n    /* \"#utility.yul\":3289:3300   */\n  sload\n    /* \"#utility.yul\":3263:3301   */\n  tag_12\n  jump\t// in\ntag_51:\n    /* \"#utility.yul\":3257:3261   */\n  dup5\n    /* \"#utility.yul\":3214:3310   */\n  tag_14\n  jump\t// in\ntag_50:\n    /* \"#utility.yul\":3365:3369   */\n  0x20\n  dup1\n    /* \"#utility.yul\":3429:3431   */\n  0x1f\n    /* \"#utility.yul\":3418:3432   */\n  dup4\n  gt\n    /* \"#utility.yul\":3446:3447   */\n  0x01\n    /* \"#utility.yul\":3441:4103   */\n  dup2\n  eq\n  tag_53\n  jumpi\n    /* \"#utility.yul\":4147:4148   */\n  0x00\n    /* \"#utility.yul\":4164:4170   */\n  dup5\n    /* \"#utility.yul\":4161:4250   */\n  iszero\n  tag_54\n  jumpi\n  pop\n    /* \"#utility.yul\":4216:4235   */\n  dup6\n  dup4\n  add\n    /* \"#utility.yul\":4210:4236   */\n  mload\n    /* \"#utility.yul\":4161:4250   */\ntag_54:\n  not(0x00)\n    /* \"#utility.yul\":2969:2970   */\n  0x03\n    /* \"#utility.yul\":2965:2976   */\n  dup7\n  swap1\n  shl\n    /* \"#utility.yul\":2961:2985   */\n  shr\n    /* \"#utility.yul\":2957:2986   */\n  not\n    /* \"#utility.yul\":2947:2987   */\n  and\n    /* \"#utility.yul\":2993:2994   */\n  0x01\n    /* \"#utility.yul\":2989:3000   */\n  dup6\n  swap1\n  shl\n    /* \"#utility.yul\":2944:3001   */\n  or\n    /* \"#utility.yul\":4263:4344   */\n  dup6\n  sstore\n    /* \"#utility.yul\":3411:4354   */\n  jump(tag_45)\n    /* \"#utility.yul\":3441:4103   */\ntag_53:\n    /* \"#utility.yul\":2239:2240   */\n  0x00\n    /* \"#utility.yul\":2232:2246   */\n  dup6\n  dup2\n  mstore\n    /* \"#utility.yul\":2276:2280   */\n  0x20\n    /* \"#utility.yul\":2263:2281   */\n  dup2\n  keccak256\n  not(0x1f)\n    /* \"#utility.yul\":3477:3497   */\n  dup7\n  and\n  swap2\n    /* \"#utility.yul\":3594:3830   */\ntag_57:\n    /* \"#utility.yul\":3608:3615   */\n  dup3\n    /* \"#utility.yul\":3605:3606   */\n  dup2\n    /* \"#utility.yul\":3602:3616   */\n  lt\n    /* \"#utility.yul\":3594:3830   */\n  iszero\n  tag_59\n  jumpi\n    /* \"#utility.yul\":3697:3716   */\n  dup9\n  dup7\n  add\n    /* \"#utility.yul\":3691:3717   */\n  mload\n    /* \"#utility.yul\":3676:3718   */\n  dup3\n  sstore\n    /* \"#utility.yul\":3789:3816   */\n  swap5\n  dup5\n  add\n  swap5\n    /* \"#utility.yul\":3757:3758   */\n  0x01\n    /* \"#utility.yul\":3745:3759   */\n  swap1\n  swap2\n  add\n  swap1\n    /* \"#utility.yul\":3624:3643   */\n  dup5\n  add\n    /* \"#utility.yul\":3594:3830   */\n  jump(tag_57)\ntag_59:\n    /* \"#utility.yul\":3598:3601   */\n  pop\n    /* \"#utility.yul\":3858:3864   */\n  dup6\n    /* \"#utility.yul\":3849:3856   */\n  dup3\n    /* \"#utility.yul\":3846:3865   */\n  lt\n    /* \"#utility.yul\":3843:4044   */\n  iszero\n  tag_60\n  jumpi\n    /* \"#utility.yul\":3919:3938   */\n  dup8\n  dup6\n  add\n    /* \"#utility.yul\":3913:3939   */\n  mload\n  not(0x00)\n    /* \"#utility.yul\":4002:4003   */\n  0x03\n    /* \"#utility.yul\":3998:4012   */\n  dup9\n  swap1\n  shl\n    /* \"#utility.yul\":4014:4017   */\n  0xf8\n    /* \"#utility.yul\":3994:4018   */\n  and\n    /* \"#utility.yul\":3990:4027   */\n  shr\n    /* \"#utility.yul\":3986:4028   */\n  not\n    /* \"#utility.yul\":3971:4029   */\n  and\n    /* \"#utility.yul\":3956:4030   */\n  dup2\n  sstore\n    /* \"#utility.yul\":3843:4044   */\ntag_60:\n  pop\n  pop\n  pop\n  pop\n  pop\n    /* \"#utility.yul\":4090:4091   */\n  0x01\n    /* \"#utility.yul\":4074:4088   */\n  swap1\n  dup2\n  shl\n    /* \"#utility.yul\":4070:4092   */\n  add\n    /* \"#utility.yul\":4057:4093   */\n  swap1\n  sstore\n  pop\n    /* \"#utility.yul\":3012:4360   */\n  jump\t// out\ntag_16:\n    /* \"src/AttestationVerifier.sol\":366:5050  contract AttestationVerifier is IAttestationVerifier {... */\n  dataSize(sub_0)\n  dup1\n  dataOffset(sub_0)\n  0x00\n  codecopy\n  0x00\n  return\nstop\n\nsub_0: assembly {\n        /* \"src/AttestationVerifier.sol\":366:5050  contract AttestationVerifier is IAttestationVerifier {... */\n      mstore(0x40, 0x80)\n      callvalue\n      dup1\n      iszero\n      tag_1\n      jumpi\n      0x00\n      dup1\n      revert\n    tag_1:\n      pop\n      jumpi(tag_2, lt(calldatasize, 0x04))\n      shr(0xe0, calldataload(0x00))\n      dup1\n      0x3553d6ee\n      eq\n      tag_3\n      jumpi\n      dup1\n      0x3e1c075a\n      eq\n      tag_4\n      jumpi\n      dup1\n      0x462b2653\n      eq\n      tag_5\n      jumpi\n      dup1\n      0x721d9bc4\n      eq\n      tag_6\n      jumpi\n      dup1\n      0x7221e6fc\n      eq\n      tag_7\n      jumpi\n    tag_2:\n      0x00\n      dup1\n      revert\n        /* \"src/AttestationVerifier.sol\":1198:1223  bytes public caCertPubKey */\n    tag_3:\n      tag_8\n      tag_9\n      jump\t// in\n    tag_8:\n      mload(0x40)\n      tag_10\n      swap2\n      swap1\n      tag_11\n      jump\t// in\n    tag_10:\n      mload(0x40)\n      dup1\n      swap2\n      sub\n      swap1\n      return\n        /* \"src/AttestationVerifier.sol\":1901:2476  function verifyAttestation(... */\n    tag_4:\n      tag_12\n      tag_13\n      calldatasize\n      0x04\n      tag_14\n      jump\t// in\n    tag_13:\n      tag_15\n      jump\t// in\n    tag_12:\n      mload(0x40)\n        /* \"#utility.yul\":2238:2252   */\n      swap1\n      iszero\n        /* \"#utility.yul\":2231:2253   */\n      iszero\n        /* \"#utility.yul\":2213:2254   */\n      dup2\n      mstore\n        /* \"#utility.yul\":2201:2203   */\n      0x20\n        /* \"#utility.yul\":2186:2204   */\n      add\n        /* \"src/AttestationVerifier.sol\":1901:2476  function verifyAttestation(... */\n      tag_10\n        /* \"#utility.yul\":2073:2260   */\n      jump\n        /* \"src/AttestationVerifier.sol\":1560:1600  Algorithm public sha256WithRSAEncryption */\n    tag_5:\n      sload(0x03)\n      tag_18\n      swap1\n      sub(shl(0xa0, 0x01), 0x01)\n      and\n      dup2\n      jump\n    tag_18:\n      mload(0x40)\n      sub(shl(0xa0, 0x01), 0x01)\n        /* \"#utility.yul\":2446:2478   */\n      swap1\n      swap2\n      and\n        /* \"#utility.yul\":2428:2479   */\n      dup2\n      mstore\n        /* \"#utility.yul\":2416:2418   */\n      0x20\n        /* \"#utility.yul\":2401:2419   */\n      add\n        /* \"src/AttestationVerifier.sol\":1560:1600  Algorithm public sha256WithRSAEncryption */\n      tag_10\n        /* \"#utility.yul\":2265:2485   */\n      jump\n        /* \"src/AttestationVerifier.sol\":2679:4561  function verifyCert(bytes memory cert, bytes memory pubKey)... */\n    tag_6:\n      tag_8\n      tag_23\n      calldatasize\n      0x04\n      tag_24\n      jump\t// in\n    tag_23:\n      tag_25\n      jump\t// in\n        /* \"src/AttestationVerifier.sol\":1472:1493  bytes public rootCert */\n    tag_7:\n      tag_8\n      tag_28\n      jump\t// in\n        /* \"src/AttestationVerifier.sol\":1198:1223  bytes public caCertPubKey */\n    tag_9:\n      0x01\n      dup1\n      sload\n      tag_30\n      swap1\n      tag_31\n      jump\t// in\n    tag_30:\n      dup1\n      0x1f\n      add\n      0x20\n      dup1\n      swap2\n      div\n      mul\n      0x20\n      add\n      mload(0x40)\n      swap1\n      dup2\n      add\n      0x40\n      mstore\n      dup1\n      swap3\n      swap2\n      swap1\n      dup2\n      dup2\n      mstore\n      0x20\n      add\n      dup3\n      dup1\n      sload\n      tag_32\n      swap1\n      tag_31\n      jump\t// in\n    tag_32:\n      dup1\n      iszero\n      tag_33\n      jumpi\n      dup1\n      0x1f\n      lt\n      tag_34\n      jumpi\n      0x0100\n      dup1\n      dup4\n      sload\n      div\n      mul\n      dup4\n      mstore\n      swap2\n      0x20\n      add\n      swap2\n      jump(tag_33)\n    tag_34:\n      dup3\n      add\n      swap2\n      swap1\n      0x00\n      mstore\n      keccak256(0x00, 0x20)\n      swap1\n    tag_35:\n      dup2\n      sload\n      dup2\n      mstore\n      swap1\n      0x01\n      add\n      swap1\n      0x20\n      add\n      dup1\n      dup4\n      gt\n      tag_35\n      jumpi\n      dup3\n      swap1\n      sub\n      0x1f\n      and\n      dup3\n      add\n      swap2\n    tag_33:\n      pop\n      pop\n      pop\n      pop\n      pop\n      dup2\n      jump\t// out\n        /* \"src/AttestationVerifier.sol\":1901:2476  function verifyAttestation(... */\n    tag_15:\n        /* \"src/AttestationVerifier.sol\":2050:2054  bool */\n      0x00\n        /* \"src/AttestationVerifier.sol\":2066:2097  bytes memory intermediatePubKey */\n      dup1\n        /* \"src/AttestationVerifier.sol\":2100:2133  verifyCert(attCert, caCertPubKey) */\n      tag_37\n        /* \"src/AttestationVerifier.sol\":2111:2118  attCert */\n      dup9\n      dup9\n        /* \"src/AttestationVerifier.sol\":2100:2133  verifyCert(attCert, caCertPubKey) */\n      dup1\n      dup1\n      0x1f\n      add\n      0x20\n      dup1\n      swap2\n      div\n      mul\n      0x20\n      add\n      mload(0x40)\n      swap1\n      dup2\n      add\n      0x40\n      mstore\n      dup1\n      swap4\n      swap3\n      swap2\n      swap1\n      dup2\n      dup2\n      mstore\n      0x20\n      add\n      dup4\n      dup4\n      dup1\n      dup3\n      dup5\n      calldatacopy\n      0x00\n      swap3\n      add\n      swap2\n      swap1\n      swap2\n      mstore\n      pop\n      pop\n        /* \"src/AttestationVerifier.sol\":2120:2132  caCertPubKey */\n      0x01\n        /* \"src/AttestationVerifier.sol\":2100:2133  verifyCert(attCert, caCertPubKey) */\n      dup1\n      sload\n        /* \"src/AttestationVerifier.sol\":2120:2132  caCertPubKey */\n      swap1\n      swap3\n      pop\n        /* \"src/AttestationVerifier.sol\":2100:2133  verifyCert(attCert, caCertPubKey) */\n      tag_38\n      swap2\n      pop\n      tag_31\n      jump\t// in\n    tag_38:\n      dup1\n      0x1f\n      add\n      0x20\n      dup1\n      swap2\n      div\n      mul\n      0x20\n      add\n      mload(0x40)\n      swap1\n      dup2\n      add\n      0x40\n      mstore\n      dup1\n      swap3\n      swap2\n      swap1\n      dup2\n      dup2\n      mstore\n      0x20\n      add\n      dup3\n      dup1\n      sload\n      tag_39\n      swap1\n      tag_31\n      jump\t// in\n    tag_39:\n      dup1\n      iszero\n      tag_40\n      jumpi\n      dup1\n      0x1f\n      lt\n      tag_41\n      jumpi\n      0x0100\n      dup1\n      dup4\n      sload\n      div\n      mul\n      dup4\n      mstore\n      swap2\n      0x20\n      add\n      swap2\n      jump(tag_40)\n    tag_41:\n      dup3\n      add\n      swap2\n      swap1\n      0x00\n      mstore\n      keccak256(0x00, 0x20)\n      swap1\n    tag_42:\n      dup2\n      sload\n      dup2\n      mstore\n      swap1\n      0x01\n      add\n      swap1\n      0x20\n      add\n      dup1\n      dup4\n      gt\n      tag_42\n      jumpi\n      dup3\n      swap1\n      sub\n      0x1f\n      and\n      dup3\n      add\n      swap2\n    tag_40:\n      pop\n      pop\n      pop\n      pop\n      pop\n        /* \"src/AttestationVerifier.sol\":2100:2110  verifyCert */\n      tag_25\n        /* \"src/AttestationVerifier.sol\":2100:2133  verifyCert(attCert, caCertPubKey) */\n      jump\t// in\n    tag_37:\n        /* \"src/AttestationVerifier.sol\":2211:2234  sha256WithRSAEncryption */\n      sload(0x03)\n        /* \"src/AttestationVerifier.sol\":2211:2278  sha256WithRSAEncryption.verify(intermediatePubKey, attBody, attSig) */\n      mload(0x40)\n      shl(0xe0, 0xde8f50a1)\n      dup2\n      mstore\n        /* \"src/AttestationVerifier.sol\":2066:2133  bytes memory intermediatePubKey = verifyCert(attCert, caCertPubKey) */\n      swap2\n      swap3\n      pop\n      sub(shl(0xa0, 0x01), 0x01)\n        /* \"src/AttestationVerifier.sol\":2211:2234  sha256WithRSAEncryption */\n      and\n      swap1\n        /* \"src/AttestationVerifier.sol\":2211:2241  sha256WithRSAEncryption.verify */\n      0xde8f50a1\n      swap1\n        /* \"src/AttestationVerifier.sol\":2211:2278  sha256WithRSAEncryption.verify(intermediatePubKey, attBody, attSig) */\n      tag_43\n      swap1\n        /* \"src/AttestationVerifier.sol\":2066:2133  bytes memory intermediatePubKey = verifyCert(attCert, caCertPubKey) */\n      dup5\n      swap1\n        /* \"src/AttestationVerifier.sol\":2262:2269  attBody */\n      dup11\n      swap1\n      dup11\n      swap1\n        /* \"src/AttestationVerifier.sol\":2271:2277  attSig */\n      dup11\n      swap1\n      dup11\n      swap1\n        /* \"src/AttestationVerifier.sol\":2211:2278  sha256WithRSAEncryption.verify(intermediatePubKey, attBody, attSig) */\n      0x04\n      add\n      tag_44\n      jump\t// in\n    tag_43:\n      0x20\n      mload(0x40)\n      dup1\n      dup4\n      sub\n      dup2\n      dup7\n      gas\n      staticcall\n      iszero\n      dup1\n      iszero\n      tag_46\n      jumpi\n      returndatasize\n      0x00\n      dup1\n      returndatacopy\n      revert(0x00, returndatasize)\n    tag_46:\n      pop\n      pop\n      pop\n      pop\n      mload(0x40)\n      returndatasize\n      not(0x1f)\n      0x1f\n      dup3\n      add\n      and\n      dup3\n      add\n      dup1\n      0x40\n      mstore\n      pop\n      dup2\n      add\n      swap1\n      tag_47\n      swap2\n      swap1\n      tag_48\n      jump\t// in\n    tag_47:\n        /* \"src/AttestationVerifier.sol\":2211:2287  sha256WithRSAEncryption.verify(intermediatePubKey, attBody, attSig) == false */\n      iszero\n      iszero\n        /* \"src/AttestationVerifier.sol\":2282:2287  false */\n      0x00\n        /* \"src/AttestationVerifier.sol\":2211:2287  sha256WithRSAEncryption.verify(intermediatePubKey, attBody, attSig) == false */\n      sub\n        /* \"src/AttestationVerifier.sol\":2207:2326  if (sha256WithRSAEncryption.verify(intermediatePubKey, attBody, attSig) == false) {... */\n      tag_49\n      jumpi\n        /* \"src/AttestationVerifier.sol\":2310:2315  false */\n      0x00\n        /* \"src/AttestationVerifier.sol\":2303:2315  return false */\n      swap2\n      pop\n      pop\n      jump(tag_36)\n        /* \"src/AttestationVerifier.sol\":2207:2326  if (sha256WithRSAEncryption.verify(intermediatePubKey, attBody, attSig) == false) {... */\n    tag_49:\n        /* \"src/AttestationVerifier.sol\":2376:2400  verifyAttBodyOk(attBody) */\n      tag_50\n        /* \"src/AttestationVerifier.sol\":2392:2399  attBody */\n      dup7\n      dup7\n        /* \"src/AttestationVerifier.sol\":2376:2391  verifyAttBodyOk */\n      tag_51\n        /* \"src/AttestationVerifier.sol\":2376:2400  verifyAttBodyOk(attBody) */\n      jump\t// in\n    tag_50:\n        /* \"src/AttestationVerifier.sol\":2376:2409  verifyAttBodyOk(attBody) == false */\n      iszero\n      iszero\n        /* \"src/AttestationVerifier.sol\":2404:2409  false */\n      0x00\n        /* \"src/AttestationVerifier.sol\":2376:2409  verifyAttBodyOk(attBody) == false */\n      sub\n        /* \"src/AttestationVerifier.sol\":2372:2448  if (verifyAttBodyOk(attBody) == false) {... */\n      tag_52\n      jumpi\n        /* \"src/AttestationVerifier.sol\":2432:2437  false */\n      0x00\n        /* \"src/AttestationVerifier.sol\":2425:2437  return false */\n      swap2\n      pop\n      pop\n      jump(tag_36)\n        /* \"src/AttestationVerifier.sol\":2372:2448  if (verifyAttBodyOk(attBody) == false) {... */\n    tag_52:\n        /* \"src/AttestationVerifier.sol\":2465:2469  true */\n      0x01\n        /* \"src/AttestationVerifier.sol\":2458:2469  return true */\n      swap2\n      pop\n      pop\n        /* \"src/AttestationVerifier.sol\":1901:2476  function verifyAttestation(... */\n    tag_36:\n      swap7\n      swap6\n      pop\n      pop\n      pop\n      pop\n      pop\n      pop\n      jump\t// out\n        /* \"src/AttestationVerifier.sol\":2679:4561  function verifyCert(bytes memory cert, bytes memory pubKey)... */\n    tag_25:\n        /* \"src/AttestationVerifier.sol\":2784:2807  bytes memory certPubKey */\n      0x60\n        /* \"src/AttestationVerifier.sol\":2823:2836  uint256 node1 */\n      0x00\n        /* \"src/AttestationVerifier.sol\":2846:2859  uint256 node2 */\n      dup1\n        /* \"src/AttestationVerifier.sol\":2869:2882  uint256 node3 */\n      0x00\n        /* \"src/AttestationVerifier.sol\":2901:2912  cert.root() */\n      tag_54\n        /* \"src/AttestationVerifier.sol\":2901:2905  cert */\n      dup7\n        /* \"src/AttestationVerifier.sol\":2901:2910  cert.root */\n      tag_55\n        /* \"src/AttestationVerifier.sol\":2901:2912  cert.root() */\n      jump\t// in\n    tag_54:\n        /* \"src/AttestationVerifier.sol\":2893:2912  node1 = cert.root() */\n      swap3\n      pop\n        /* \"src/AttestationVerifier.sol\":2930:2954  cert.firstChildOf(node1) */\n      tag_56\n        /* \"src/AttestationVerifier.sol\":2930:2934  cert */\n      dup7\n        /* \"src/AttestationVerifier.sol\":2893:2912  node1 = cert.root() */\n      dup5\n        /* \"src/AttestationVerifier.sol\":2930:2947  cert.firstChildOf */\n      tag_57\n        /* \"src/AttestationVerifier.sol\":2930:2954  cert.firstChildOf(node1) */\n      jump\t// in\n    tag_56:\n        /* \"src/AttestationVerifier.sol\":2922:2954  node1 = cert.firstChildOf(node1) */\n      swap3\n      pop\n        /* \"src/AttestationVerifier.sol\":2972:2996  cert.firstChildOf(node1) */\n      tag_58\n        /* \"src/AttestationVerifier.sol\":2972:2976  cert */\n      dup7\n        /* \"src/AttestationVerifier.sol\":2922:2954  node1 = cert.firstChildOf(node1) */\n      dup5\n        /* \"src/AttestationVerifier.sol\":2972:2989  cert.firstChildOf */\n      tag_57\n        /* \"src/AttestationVerifier.sol\":2972:2996  cert.firstChildOf(node1) */\n      jump\t// in\n    tag_58:\n        /* \"src/AttestationVerifier.sol\":2964:2996  node2 = cert.firstChildOf(node1) */\n      swap2\n      pop\n        /* \"src/AttestationVerifier.sol\":3010:3014  cert */\n      dup6\n      sub(shl(0x50, 0x01), 0x01)\n        /* \"src/utils/Asn1Decode.sol\":245:264  return uint80(self) */\n      dup4\n      and\n        /* \"src/AttestationVerifier.sol\":3010:3034  cert[NodePtr.ixs(node2)] */\n      dup2\n      mload\n      dup2\n      lt\n      tag_62\n      jumpi\n      tag_62\n      tag_63\n      jump\t// in\n    tag_62:\n      add\n      0x20\n      add\n      mload\n      not(sub(shl(0xf8, 0x01), 0x01))\n      and\n      shl(0xfd, 0x05)\n        /* \"src/AttestationVerifier.sol\":3010:3042  cert[NodePtr.ixs(node2)] == 0xa0 */\n      sub\n        /* \"src/AttestationVerifier.sol\":3006:3102  if (cert[NodePtr.ixs(node2)] == 0xa0) {... */\n      tag_64\n      jumpi\n        /* \"src/AttestationVerifier.sol\":3066:3091  cert.nextSiblingOf(node2) */\n      tag_65\n        /* \"src/AttestationVerifier.sol\":3066:3070  cert */\n      dup7\n        /* \"src/AttestationVerifier.sol\":3085:3090  node2 */\n      dup4\n        /* \"src/AttestationVerifier.sol\":3066:3084  cert.nextSiblingOf */\n      tag_66\n        /* \"src/AttestationVerifier.sol\":3066:3091  cert.nextSiblingOf(node2) */\n      jump\t// in\n    tag_65:\n        /* \"src/AttestationVerifier.sol\":3058:3091  node2 = cert.nextSiblingOf(node2) */\n      swap2\n      pop\n        /* \"src/AttestationVerifier.sol\":3006:3102  if (cert[NodePtr.ixs(node2)] == 0xa0) {... */\n    tag_64:\n        /* \"src/AttestationVerifier.sol\":3120:3145  cert.nextSiblingOf(node2) */\n      tag_67\n        /* \"src/AttestationVerifier.sol\":3120:3124  cert */\n      dup7\n        /* \"src/AttestationVerifier.sol\":3139:3144  node2 */\n      dup4\n        /* \"src/AttestationVerifier.sol\":3120:3138  cert.nextSiblingOf */\n      tag_66\n        /* \"src/AttestationVerifier.sol\":3120:3145  cert.nextSiblingOf(node2) */\n      jump\t// in\n    tag_67:\n        /* \"src/AttestationVerifier.sol\":3112:3145  node2 = cert.nextSiblingOf(node2) */\n      swap2\n      pop\n        /* \"src/AttestationVerifier.sol\":3163:3187  cert.firstChildOf(node2) */\n      tag_68\n        /* \"src/AttestationVerifier.sol\":3163:3167  cert */\n      dup7\n        /* \"src/AttestationVerifier.sol\":3112:3145  node2 = cert.nextSiblingOf(node2) */\n      dup4\n        /* \"src/AttestationVerifier.sol\":3163:3180  cert.firstChildOf */\n      tag_57\n        /* \"src/AttestationVerifier.sol\":3163:3187  cert.firstChildOf(node2) */\n      jump\t// in\n    tag_68:\n        /* \"src/AttestationVerifier.sol\":3155:3187  node2 = cert.firstChildOf(node2) */\n      swap2\n      pop\n        /* \"src/AttestationVerifier.sol\":3205:3230  cert.nextSiblingOf(node1) */\n      tag_69\n        /* \"src/AttestationVerifier.sol\":3205:3209  cert */\n      dup7\n        /* \"src/AttestationVerifier.sol\":3224:3229  node1 */\n      dup5\n        /* \"src/AttestationVerifier.sol\":3205:3223  cert.nextSiblingOf */\n      tag_66\n        /* \"src/AttestationVerifier.sol\":3205:3230  cert.nextSiblingOf(node1) */\n      jump\t// in\n    tag_69:\n        /* \"src/AttestationVerifier.sol\":3197:3230  node3 = cert.nextSiblingOf(node1) */\n      swap1\n      pop\n        /* \"src/AttestationVerifier.sol\":3248:3273  cert.nextSiblingOf(node3) */\n      tag_70\n        /* \"src/AttestationVerifier.sol\":3248:3252  cert */\n      dup7\n        /* \"src/AttestationVerifier.sol\":3197:3230  node3 = cert.nextSiblingOf(node1) */\n      dup3\n        /* \"src/AttestationVerifier.sol\":3248:3266  cert.nextSiblingOf */\n      tag_66\n        /* \"src/AttestationVerifier.sol\":3248:3273  cert.nextSiblingOf(node3) */\n      jump\t// in\n    tag_70:\n        /* \"src/AttestationVerifier.sol\":3332:3355  sha256WithRSAEncryption */\n      sload(0x03)\n        /* \"src/AttestationVerifier.sol\":3240:3273  node3 = cert.nextSiblingOf(node3) */\n      swap1\n      swap2\n      pop\n      sub(shl(0xa0, 0x01), 0x01)\n        /* \"src/AttestationVerifier.sol\":3332:3355  sha256WithRSAEncryption */\n      and\n        /* \"src/AttestationVerifier.sol\":3332:3362  sha256WithRSAEncryption.verify */\n      0xde8f50a1\n        /* \"src/AttestationVerifier.sol\":3380:3386  pubKey */\n      dup7\n        /* \"src/AttestationVerifier.sol\":3404:3426  cert.allBytesAt(node1) */\n      tag_71\n        /* \"src/AttestationVerifier.sol\":3404:3408  cert */\n      dup10\n        /* \"src/AttestationVerifier.sol\":3420:3425  node1 */\n      dup8\n        /* \"src/AttestationVerifier.sol\":3404:3419  cert.allBytesAt */\n      tag_72\n        /* \"src/AttestationVerifier.sol\":3404:3426  cert.allBytesAt(node1) */\n      jump\t// in\n    tag_71:\n        /* \"src/AttestationVerifier.sol\":3444:3463  cert.bytesAt(node3) */\n      tag_73\n        /* \"src/AttestationVerifier.sol\":3444:3448  cert */\n      dup11\n        /* \"src/AttestationVerifier.sol\":3457:3462  node3 */\n      dup7\n        /* \"src/AttestationVerifier.sol\":3444:3456  cert.bytesAt */\n      tag_74\n        /* \"src/AttestationVerifier.sol\":3444:3463  cert.bytesAt(node3) */\n      jump\t// in\n    tag_73:\n        /* \"src/AttestationVerifier.sol\":3332:3477  sha256WithRSAEncryption.verify(... */\n      mload(0x40)\n      dup5\n      0xffffffff\n      and\n      0xe0\n      shl\n      dup2\n      mstore\n      0x04\n      add\n      tag_75\n      swap4\n      swap3\n      swap2\n      swap1\n      tag_76\n      jump\t// in\n    tag_75:\n      0x20\n      mload(0x40)\n      dup1\n      dup4\n      sub\n      dup2\n      dup7\n      gas\n      staticcall\n      iszero\n      dup1\n      iszero\n      tag_78\n      jumpi\n      returndatasize\n      0x00\n      dup1\n      returndatacopy\n      revert(0x00, returndatasize)\n    tag_78:\n      pop\n      pop\n      pop\n      pop\n      mload(0x40)\n      returndatasize\n      not(0x1f)\n      0x1f\n      dup3\n      add\n      and\n      dup3\n      add\n      dup1\n      0x40\n      mstore\n      pop\n      dup2\n      add\n      swap1\n      tag_79\n      swap2\n      swap1\n      tag_48\n      jump\t// in\n    tag_79:\n        /* \"src/AttestationVerifier.sol\":3311:3546  require(... */\n      tag_80\n      jumpi\n      mload(0x40)\n      shl(0xe5, 0x461bcd)\n      dup2\n      mstore\n        /* \"#utility.yul\":6299:6301   */\n      0x20\n        /* \"src/AttestationVerifier.sol\":3311:3546  require(... */\n      0x04\n      dup3\n      add\n        /* \"#utility.yul\":6281:6302   */\n      mstore\n        /* \"#utility.yul\":6338:6340   */\n      0x2b\n        /* \"#utility.yul\":6318:6336   */\n      0x24\n      dup3\n      add\n        /* \"#utility.yul\":6311:6341   */\n      mstore\n        /* \"#utility.yul\":6377:6411   */\n      0x4174746573746174696f6e56657269666965723a205369676e61747572652064\n        /* \"#utility.yul\":6357:6375   */\n      0x44\n      dup3\n      add\n        /* \"#utility.yul\":6350:6412   */\n      mstore\n      shl(0xab, 0x0decae6dce840dac2e8c6d)\n        /* \"#utility.yul\":6428:6446   */\n      0x64\n      dup3\n      add\n        /* \"#utility.yul\":6421:6462   */\n      mstore\n        /* \"#utility.yul\":6479:6498   */\n      0x84\n      add\n        /* \"src/AttestationVerifier.sol\":3311:3546  require(... */\n    tag_81:\n      mload(0x40)\n      dup1\n      swap2\n      sub\n      swap1\n      revert\n    tag_80:\n        /* \"src/AttestationVerifier.sol\":3598:3622  cert.firstChildOf(node1) */\n      tag_83\n        /* \"src/AttestationVerifier.sol\":3598:3602  cert */\n      dup7\n        /* \"src/AttestationVerifier.sol\":3616:3621  node1 */\n      dup5\n        /* \"src/AttestationVerifier.sol\":3598:3615  cert.firstChildOf */\n      tag_57\n        /* \"src/AttestationVerifier.sol\":3598:3622  cert.firstChildOf(node1) */\n      jump\t// in\n    tag_83:\n        /* \"src/AttestationVerifier.sol\":3590:3622  node1 = cert.firstChildOf(node1) */\n      swap3\n      pop\n        /* \"src/AttestationVerifier.sol\":3640:3665  cert.nextSiblingOf(node1) */\n      tag_84\n        /* \"src/AttestationVerifier.sol\":3640:3644  cert */\n      dup7\n        /* \"src/AttestationVerifier.sol\":3590:3622  node1 = cert.firstChildOf(node1) */\n      dup5\n        /* \"src/AttestationVerifier.sol\":3640:3658  cert.nextSiblingOf */\n      tag_66\n        /* \"src/AttestationVerifier.sol\":3640:3665  cert.nextSiblingOf(node1) */\n      jump\t// in\n    tag_84:\n        /* \"src/AttestationVerifier.sol\":3632:3665  node1 = cert.nextSiblingOf(node1) */\n      swap3\n      pop\n        /* \"src/AttestationVerifier.sol\":3683:3708  cert.nextSiblingOf(node1) */\n      tag_85\n        /* \"src/AttestationVerifier.sol\":3683:3687  cert */\n      dup7\n        /* \"src/AttestationVerifier.sol\":3632:3665  node1 = cert.nextSiblingOf(node1) */\n      dup5\n        /* \"src/AttestationVerifier.sol\":3683:3701  cert.nextSiblingOf */\n      tag_66\n        /* \"src/AttestationVerifier.sol\":3683:3708  cert.nextSiblingOf(node1) */\n      jump\t// in\n    tag_85:\n        /* \"src/AttestationVerifier.sol\":3675:3708  node1 = cert.nextSiblingOf(node1) */\n      swap3\n      pop\n        /* \"src/AttestationVerifier.sol\":3726:3751  cert.nextSiblingOf(node1) */\n      tag_86\n        /* \"src/AttestationVerifier.sol\":3726:3730  cert */\n      dup7\n        /* \"src/AttestationVerifier.sol\":3675:3708  node1 = cert.nextSiblingOf(node1) */\n      dup5\n        /* \"src/AttestationVerifier.sol\":3726:3744  cert.nextSiblingOf */\n      tag_66\n        /* \"src/AttestationVerifier.sol\":3726:3751  cert.nextSiblingOf(node1) */\n      jump\t// in\n    tag_86:\n        /* \"src/AttestationVerifier.sol\":3718:3751  node1 = cert.nextSiblingOf(node1) */\n      swap3\n      pop\n        /* \"src/AttestationVerifier.sol\":3769:3794  cert.nextSiblingOf(node1) */\n      tag_87\n        /* \"src/AttestationVerifier.sol\":3769:3773  cert */\n      dup7\n        /* \"src/AttestationVerifier.sol\":3718:3751  node1 = cert.nextSiblingOf(node1) */\n      dup5\n        /* \"src/AttestationVerifier.sol\":3769:3787  cert.nextSiblingOf */\n      tag_66\n        /* \"src/AttestationVerifier.sol\":3769:3794  cert.nextSiblingOf(node1) */\n      jump\t// in\n    tag_87:\n        /* \"src/AttestationVerifier.sol\":3761:3794  node1 = cert.nextSiblingOf(node1) */\n      swap3\n      pop\n        /* \"src/AttestationVerifier.sol\":3813:3837  cert.firstChildOf(node1) */\n      tag_88\n        /* \"src/AttestationVerifier.sol\":3813:3817  cert */\n      dup7\n        /* \"src/AttestationVerifier.sol\":3761:3794  node1 = cert.nextSiblingOf(node1) */\n      dup5\n        /* \"src/AttestationVerifier.sol\":3813:3830  cert.firstChildOf */\n      tag_57\n        /* \"src/AttestationVerifier.sol\":3813:3837  cert.firstChildOf(node1) */\n      jump\t// in\n    tag_88:\n        /* \"src/AttestationVerifier.sol\":3805:3837  node2 = cert.firstChildOf(node1) */\n      swap2\n      pop\n        /* \"src/AttestationVerifier.sol\":3848:3869  uint40 validNotBefore */\n      0x00\n        /* \"src/AttestationVerifier.sol\":3892:3900  DateTime */\n      linkerSymbol(\"3121b8144e26f5a8fcc440b7b32d4f2d0ed140736fb5fbab054cbc2f29508f89\")\n        /* \"src/AttestationVerifier.sol\":3892:3912  DateTime.toTimestamp */\n      0x095385c6\n        /* \"src/AttestationVerifier.sol\":3913:3932  cert.bytesAt(node2) */\n      tag_89\n        /* \"src/AttestationVerifier.sol\":3913:3917  cert */\n      dup10\n        /* \"src/AttestationVerifier.sol\":3805:3837  node2 = cert.firstChildOf(node1) */\n      dup7\n        /* \"src/AttestationVerifier.sol\":3913:3925  cert.bytesAt */\n      tag_74\n        /* \"src/AttestationVerifier.sol\":3913:3932  cert.bytesAt(node2) */\n      jump\t// in\n    tag_89:\n        /* \"src/AttestationVerifier.sol\":3892:3933  DateTime.toTimestamp(cert.bytesAt(node2)) */\n      mload(0x40)\n      dup3\n      0xffffffff\n      and\n      0xe0\n      shl\n      dup2\n      mstore\n      0x04\n      add\n      tag_90\n      swap2\n      swap1\n      tag_11\n      jump\t// in\n    tag_90:\n      0x20\n      mload(0x40)\n      dup1\n      dup4\n      sub\n      dup2\n      dup7\n      gas\n      delegatecall\n      iszero\n      dup1\n      iszero\n      tag_93\n      jumpi\n      returndatasize\n      0x00\n      dup1\n      returndatacopy\n      revert(0x00, returndatasize)\n    tag_93:\n      pop\n      pop\n      pop\n      pop\n      mload(0x40)\n      returndatasize\n      not(0x1f)\n      0x1f\n      dup3\n      add\n      and\n      dup3\n      add\n      dup1\n      0x40\n      mstore\n      pop\n      dup2\n      add\n      swap1\n      tag_94\n      swap2\n      swap1\n      tag_95\n      jump\t// in\n    tag_94:\n        /* \"src/AttestationVerifier.sol\":3848:3943  uint40 validNotBefore = uint40(... */\n      swap1\n      pop\n        /* \"src/AttestationVerifier.sol\":3992:4007  block.timestamp */\n      timestamp\n        /* \"src/AttestationVerifier.sol\":3974:3988  validNotBefore */\n      dup2\n        /* \"src/AttestationVerifier.sol\":3974:4007  validNotBefore <= block.timestamp */\n      0xffffffffff\n      and\n      gt\n      iszero\n        /* \"src/AttestationVerifier.sol\":3953:4081  require(... */\n      tag_96\n      jumpi\n      mload(0x40)\n      shl(0xe5, 0x461bcd)\n      dup2\n      mstore\n        /* \"#utility.yul\":7130:7132   */\n      0x20\n        /* \"src/AttestationVerifier.sol\":3953:4081  require(... */\n      0x04\n      dup3\n      add\n        /* \"#utility.yul\":7112:7133   */\n      mstore\n        /* \"#utility.yul\":7169:7171   */\n      0x30\n        /* \"#utility.yul\":7149:7167   */\n      0x24\n      dup3\n      add\n        /* \"#utility.yul\":7142:7172   */\n      mstore\n        /* \"#utility.yul\":7208:7242   */\n      0x4174746573746174696f6e5665726966793a2043657274696669636174652069\n        /* \"#utility.yul\":7188:7206   */\n      0x44\n      dup3\n      add\n        /* \"#utility.yul\":7181:7243   */\n      mstore\n      shl(0x81, 0x39903737ba103cb2ba103b30b634b217)\n        /* \"#utility.yul\":7259:7277   */\n      0x64\n      dup3\n      add\n        /* \"#utility.yul\":7252:7298   */\n      mstore\n        /* \"#utility.yul\":7315:7334   */\n      0x84\n      add\n        /* \"src/AttestationVerifier.sol\":3953:4081  require(... */\n      tag_81\n        /* \"#utility.yul\":6928:7340   */\n      jump\n        /* \"src/AttestationVerifier.sol\":3953:4081  require(... */\n    tag_96:\n        /* \"src/AttestationVerifier.sol\":4132:4157  cert.nextSiblingOf(node2) */\n      tag_99\n        /* \"src/AttestationVerifier.sol\":4132:4136  cert */\n      dup8\n        /* \"src/AttestationVerifier.sol\":4151:4156  node2 */\n      dup5\n        /* \"src/AttestationVerifier.sol\":4132:4150  cert.nextSiblingOf */\n      tag_66\n        /* \"src/AttestationVerifier.sol\":4132:4157  cert.nextSiblingOf(node2) */\n      jump\t// in\n    tag_99:\n        /* \"src/AttestationVerifier.sol\":4124:4157  node2 = cert.nextSiblingOf(node2) */\n      swap3\n      pop\n        /* \"src/AttestationVerifier.sol\":4167:4187  uint40 validNotAfter */\n      0x00\n        /* \"src/AttestationVerifier.sol\":4210:4218  DateTime */\n      linkerSymbol(\"3121b8144e26f5a8fcc440b7b32d4f2d0ed140736fb5fbab054cbc2f29508f89\")\n        /* \"src/AttestationVerifier.sol\":4210:4230  DateTime.toTimestamp */\n      0x095385c6\n        /* \"src/AttestationVerifier.sol\":4231:4250  cert.bytesAt(node2) */\n      tag_100\n        /* \"src/AttestationVerifier.sol\":4231:4235  cert */\n      dup11\n        /* \"src/AttestationVerifier.sol\":4124:4157  node2 = cert.nextSiblingOf(node2) */\n      dup8\n        /* \"src/AttestationVerifier.sol\":4231:4243  cert.bytesAt */\n      tag_74\n        /* \"src/AttestationVerifier.sol\":4231:4250  cert.bytesAt(node2) */\n      jump\t// in\n    tag_100:\n        /* \"src/AttestationVerifier.sol\":4210:4251  DateTime.toTimestamp(cert.bytesAt(node2)) */\n      mload(0x40)\n      dup3\n      0xffffffff\n      and\n      0xe0\n      shl\n      dup2\n      mstore\n      0x04\n      add\n      tag_101\n      swap2\n      swap1\n      tag_11\n      jump\t// in\n    tag_101:\n      0x20\n      mload(0x40)\n      dup1\n      dup4\n      sub\n      dup2\n      dup7\n      gas\n      delegatecall\n      iszero\n      dup1\n      iszero\n      tag_103\n      jumpi\n      returndatasize\n      0x00\n      dup1\n      returndatacopy\n      revert(0x00, returndatasize)\n    tag_103:\n      pop\n      pop\n      pop\n      pop\n      mload(0x40)\n      returndatasize\n      not(0x1f)\n      0x1f\n      dup3\n      add\n      and\n      dup3\n      add\n      dup1\n      0x40\n      mstore\n      pop\n      dup2\n      add\n      swap1\n      tag_104\n      swap2\n      swap1\n      tag_95\n      jump\t// in\n    tag_104:\n        /* \"src/AttestationVerifier.sol\":4167:4261  uint40 validNotAfter = uint40(... */\n      swap1\n      pop\n        /* \"src/AttestationVerifier.sol\":4309:4324  block.timestamp */\n      timestamp\n        /* \"src/AttestationVerifier.sol\":4292:4305  validNotAfter */\n      dup2\n        /* \"src/AttestationVerifier.sol\":4292:4324  validNotAfter >= block.timestamp */\n      0xffffffffff\n      and\n      lt\n      iszero\n        /* \"src/AttestationVerifier.sol\":4271:4389  require(... */\n      tag_105\n      jumpi\n      mload(0x40)\n      shl(0xe5, 0x461bcd)\n      dup2\n      mstore\n        /* \"#utility.yul\":7547:7549   */\n      0x20\n        /* \"src/AttestationVerifier.sol\":4271:4389  require(... */\n      0x04\n      dup3\n      add\n        /* \"#utility.yul\":7529:7550   */\n      mstore\n        /* \"#utility.yul\":7586:7588   */\n      0x27\n        /* \"#utility.yul\":7566:7584   */\n      0x24\n      dup3\n      add\n        /* \"#utility.yul\":7559:7589   */\n      mstore\n        /* \"#utility.yul\":7625:7659   */\n      0x4174746573746174696f6e5665726966793a2043657274696669636174652065\n        /* \"#utility.yul\":7605:7623   */\n      0x44\n      dup3\n      add\n        /* \"#utility.yul\":7598:7660   */\n      mstore\n      shl(0xc9, 0x3c3834b932b217)\n        /* \"#utility.yul\":7676:7694   */\n      0x64\n      dup3\n      add\n        /* \"#utility.yul\":7669:7706   */\n      mstore\n        /* \"#utility.yul\":7723:7742   */\n      0x84\n      add\n        /* \"src/AttestationVerifier.sol\":4271:4389  require(... */\n      tag_81\n        /* \"#utility.yul\":7345:7748   */\n      jump\n        /* \"src/AttestationVerifier.sol\":4271:4389  require(... */\n    tag_105:\n        /* \"src/AttestationVerifier.sol\":4440:4465  cert.nextSiblingOf(node1) */\n      tag_108\n        /* \"src/AttestationVerifier.sol\":4440:4444  cert */\n      dup9\n        /* \"src/AttestationVerifier.sol\":4459:4464  node1 */\n      dup7\n        /* \"src/AttestationVerifier.sol\":4440:4458  cert.nextSiblingOf */\n      tag_66\n        /* \"src/AttestationVerifier.sol\":4440:4465  cert.nextSiblingOf(node1) */\n      jump\t// in\n    tag_108:\n        /* \"src/AttestationVerifier.sol\":4432:4465  node1 = cert.nextSiblingOf(node1) */\n      swap5\n      pop\n        /* \"src/AttestationVerifier.sol\":4483:4508  cert.nextSiblingOf(node1) */\n      tag_109\n        /* \"src/AttestationVerifier.sol\":4483:4487  cert */\n      dup9\n        /* \"src/AttestationVerifier.sol\":4432:4465  node1 = cert.nextSiblingOf(node1) */\n      dup7\n        /* \"src/AttestationVerifier.sol\":4483:4501  cert.nextSiblingOf */\n      tag_66\n        /* \"src/AttestationVerifier.sol\":4483:4508  cert.nextSiblingOf(node1) */\n      jump\t// in\n    tag_109:\n        /* \"src/AttestationVerifier.sol\":4475:4508  node1 = cert.nextSiblingOf(node1) */\n      swap5\n      pop\n        /* \"src/AttestationVerifier.sol\":4532:4554  cert.allBytesAt(node1) */\n      tag_110\n        /* \"src/AttestationVerifier.sol\":4532:4536  cert */\n      dup9\n        /* \"src/AttestationVerifier.sol\":4475:4508  node1 = cert.nextSiblingOf(node1) */\n      dup7\n        /* \"src/AttestationVerifier.sol\":4532:4547  cert.allBytesAt */\n      tag_72\n        /* \"src/AttestationVerifier.sol\":4532:4554  cert.allBytesAt(node1) */\n      jump\t// in\n    tag_110:\n        /* \"src/AttestationVerifier.sol\":4519:4554  certPubKey = cert.allBytesAt(node1) */\n      swap9\n        /* \"src/AttestationVerifier.sol\":2679:4561  function verifyCert(bytes memory cert, bytes memory pubKey)... */\n      swap8\n      pop\n      pop\n      pop\n      pop\n      pop\n      pop\n      pop\n      pop\n      jump\t// out\n        /* \"src/AttestationVerifier.sol\":1472:1493  bytes public rootCert */\n    tag_28:\n      0x02\n      dup1\n      sload\n      tag_30\n      swap1\n      tag_31\n      jump\t// in\n        /* \"src/AttestationVerifier.sol\":4788:5048  function verifyAttBodyOk(bytes calldata attBody)... */\n    tag_51:\n        /* \"src/AttestationVerifier.sol\":4884:4888  bool */\n      0x00\n        /* \"src/AttestationVerifier.sol\":4925:4928  128 */\n      0x80\n        /* \"src/AttestationVerifier.sol\":4908:4928  attBody.length < 128 */\n      dup3\n      lt\n        /* \"src/AttestationVerifier.sol\":4904:4942  if (attBody.length < 128) return false */\n      iszero\n      tag_117\n      jumpi\n      pop\n        /* \"src/AttestationVerifier.sol\":4937:4942  false */\n      0x00\n        /* \"src/AttestationVerifier.sol\":4930:4942  return false */\n      jump(tag_116)\n        /* \"src/AttestationVerifier.sol\":4904:4942  if (attBody.length < 128) return false */\n    tag_117:\n        /* \"src/AttestationVerifier.sol\":4953:4972  bytes32 statusBytes */\n      0x00\n        /* \"src/AttestationVerifier.sol\":4975:5002  attBody.readBytesN(101, 28) */\n      tag_118\n        /* \"src/AttestationVerifier.sol\":4994:4997  101 */\n      0x65\n        /* \"src/AttestationVerifier.sol\":4999:5001  28 */\n      0x1c\n        /* \"src/AttestationVerifier.sol\":4975:4982  attBody */\n      dup7\n      dup7\n        /* \"src/AttestationVerifier.sol\":4975:4993  attBody.readBytesN */\n      dup1\n      dup1\n      0x1f\n      add\n      0x20\n      dup1\n      swap2\n      div\n      mul\n      0x20\n      add\n      mload(0x40)\n      swap1\n      dup2\n      add\n      0x40\n      mstore\n      dup1\n      swap4\n      swap3\n      swap2\n      swap1\n      dup2\n      dup2\n      mstore\n      0x20\n      add\n      dup4\n      dup4\n      dup1\n      dup3\n      dup5\n      calldatacopy\n      0x00\n      swap3\n      add\n      swap2\n      swap1\n      swap2\n      mstore\n      pop\n      swap3\n      swap5\n        /* \"src/AttestationVerifier.sol\":4975:5002  attBody.readBytesN(101, 28) */\n      swap4\n      swap3\n      pop\n      pop\n        /* \"src/AttestationVerifier.sol\":4975:4993  attBody.readBytesN */\n      tag_119\n        /* \"src/AttestationVerifier.sol\":4975:5002  attBody.readBytesN(101, 28) */\n      swap1\n      pop\n      jump\t// in\n    tag_118:\n        /* \"src/AttestationVerifier.sol\":5034:5041  okBytes */\n      sload(0x00)\n        /* \"src/AttestationVerifier.sol\":5019:5041  statusBytes == okBytes */\n      eq\n      swap2\n      pop\n      pop\n        /* \"src/AttestationVerifier.sol\":4788:5048  function verifyAttBodyOk(bytes calldata attBody)... */\n    tag_116:\n      swap3\n      swap2\n      pop\n      pop\n      jump\t// out\n        /* \"src/utils/Asn1Decode.sol\":965:1065  function root(bytes memory der) internal pure returns (uint) {... */\n    tag_55:\n        /* \"src/utils/Asn1Decode.sol\":1020:1024  uint */\n      0x00\n        /* \"src/utils/Asn1Decode.sol\":1038:1060  readNodeLength(der, 0) */\n      tag_116\n        /* \"src/utils/Asn1Decode.sol\":1053:1056  der */\n      dup3\n        /* \"src/utils/Asn1Decode.sol\":1058:1059  0 */\n      0x00\n        /* \"src/utils/Asn1Decode.sol\":1038:1052  readNodeLength */\n      tag_122\n        /* \"src/utils/Asn1Decode.sol\":1038:1060  readNodeLength(der, 0) */\n      jump\t// in\n        /* \"src/utils/Asn1Decode.sol\":2391:2598  function firstChildOf(bytes memory der, uint ptr) internal pure returns (uint) {... */\n    tag_57:\n        /* \"src/utils/Asn1Decode.sol\":2464:2468  uint */\n      0x00\n        /* \"src/utils/Asn1Decode.sol\":2483:2486  der */\n      dup3\n      sub(shl(0x50, 0x01), 0x01)\n        /* \"src/utils/Asn1Decode.sol\":245:264  return uint80(self) */\n      dup4\n      and\n        /* \"src/utils/Asn1Decode.sol\":2483:2497  der[ptr.ixs()] */\n      dup2\n      mload\n      dup2\n      lt\n      tag_126\n      jumpi\n      tag_126\n      tag_63\n      jump\t// in\n    tag_126:\n      add\n      0x20\n      add\n      mload\n      shl(0xfd, 0x01)\n        /* \"src/utils/Asn1Decode.sol\":2483:2504  der[ptr.ixs()] & 0x20 */\n      swap1\n      dup2\n      and\n        /* \"src/utils/Asn1Decode.sol\":2483:2512  der[ptr.ixs()] & 0x20 == 0x20 */\n      eq\n        /* \"src/utils/Asn1Decode.sol\":2475:2551  require(der[ptr.ixs()] & 0x20 == 0x20, \"Asn1decode: Not a constructed type\") */\n      tag_127\n      jumpi\n      mload(0x40)\n      shl(0xe5, 0x461bcd)\n      dup2\n      mstore\n        /* \"#utility.yul\":7955:7957   */\n      0x20\n        /* \"src/utils/Asn1Decode.sol\":2475:2551  require(der[ptr.ixs()] & 0x20 == 0x20, \"Asn1decode: Not a constructed type\") */\n      0x04\n      dup3\n      add\n        /* \"#utility.yul\":7937:7958   */\n      mstore\n        /* \"#utility.yul\":7994:7996   */\n      0x22\n        /* \"#utility.yul\":7974:7992   */\n      0x24\n      dup3\n      add\n        /* \"#utility.yul\":7967:7997   */\n      mstore\n        /* \"#utility.yul\":8033:8067   */\n      0x41736e316465636f64653a204e6f74206120636f6e7374727563746564207479\n        /* \"#utility.yul\":8013:8031   */\n      0x44\n      dup3\n      add\n        /* \"#utility.yul\":8006:8068   */\n      mstore\n      shl(0xf0, 0x7065)\n        /* \"#utility.yul\":8084:8102   */\n      0x64\n      dup3\n      add\n        /* \"#utility.yul\":8077:8109   */\n      mstore\n        /* \"#utility.yul\":8126:8145   */\n      0x84\n      add\n        /* \"src/utils/Asn1Decode.sol\":2475:2551  require(der[ptr.ixs()] & 0x20 == 0x20, \"Asn1decode: Not a constructed type\") */\n      tag_81\n        /* \"#utility.yul\":7753:8151   */\n      jump\n        /* \"src/utils/Asn1Decode.sol\":2475:2551  require(der[ptr.ixs()] & 0x20 == 0x20, \"Asn1decode: Not a constructed type\") */\n    tag_127:\n        /* \"src/utils/Asn1Decode.sol\":2563:2593  readNodeLength(der, ptr.ixf()) */\n      tag_130\n        /* \"src/utils/Asn1Decode.sol\":2578:2581  der */\n      dup4\n        /* \"src/utils/Asn1Decode.sol\":388:390  80 */\n      0x50\n        /* \"src/utils/Asn1Decode.sol\":382:390  self>>80 */\n      dup5\n      swap1\n      shr\n      sub(shl(0x50, 0x01), 0x01)\n        /* \"src/utils/Asn1Decode.sol\":368:391  return uint80(self>>80) */\n      and\n        /* \"src/utils/Asn1Decode.sol\":2563:2577  readNodeLength */\n      tag_122\n        /* \"src/utils/Asn1Decode.sol\":2563:2593  readNodeLength(der, ptr.ixf()) */\n      jump\t// in\n        /* \"src/utils/Asn1Decode.sol\":2583:2592  ptr.ixf() */\n    tag_131:\n        /* \"src/utils/Asn1Decode.sol\":2563:2577  readNodeLength */\n      tag_122\n        /* \"src/utils/Asn1Decode.sol\":2563:2593  readNodeLength(der, ptr.ixf()) */\n      jump\t// in\n    tag_130:\n        /* \"src/utils/Asn1Decode.sol\":2556:2593  return readNodeLength(der, ptr.ixf()) */\n      swap4\n        /* \"src/utils/Asn1Decode.sol\":2391:2598  function firstChildOf(bytes memory der, uint ptr) internal pure returns (uint) {... */\n      swap3\n      pop\n      pop\n      pop\n      jump\t// out\n        /* \"src/utils/Asn1Decode.sol\":2040:2169  function nextSiblingOf(bytes memory der, uint ptr) internal pure returns (uint) {... */\n    tag_66:\n        /* \"src/utils/Asn1Decode.sol\":2114:2118  uint */\n      0x00\n        /* \"src/utils/Asn1Decode.sol\":2132:2164  readNodeLength(der, ptr.ixl()+1) */\n      tag_130\n        /* \"src/utils/Asn1Decode.sol\":2147:2150  der */\n      dup4\n        /* \"src/utils/Asn1Decode.sol\":2152:2163  ptr.ixl()+1 */\n      tag_131\n      sub(shl(0x50, 0x01), 0x01)\n        /* \"src/utils/Asn1Decode.sol\":514:517  160 */\n      0xa0\n        /* \"src/utils/Asn1Decode.sol\":508:517  self>>160 */\n      dup7\n      swap1\n      shr\n        /* \"src/utils/Asn1Decode.sol\":494:518  return uint80(self>>160) */\n      and\n        /* \"src/utils/Asn1Decode.sol\":2162:2163  1 */\n      0x01\n        /* \"src/utils/Asn1Decode.sol\":2152:2163  ptr.ixl()+1 */\n      tag_139\n      jump\t// in\n        /* \"src/utils/Asn1Decode.sol\":3612:3764  function allBytesAt(bytes memory der, uint ptr) internal pure returns (bytes memory) {... */\n    tag_72:\n        /* \"src/utils/Asn1Decode.sol\":3683:3695  bytes memory */\n      0x60\n        /* \"src/utils/Asn1Decode.sol\":3710:3759  der.substring(ptr.ixs(), ptr.ixl()+1 - ptr.ixs()) */\n      tag_130\n      sub(shl(0x50, 0x01), 0x01)\n        /* \"src/utils/Asn1Decode.sol\":245:264  return uint80(self) */\n      dup4\n      and\n      dup1\n        /* \"src/utils/Asn1Decode.sol\":3749:3758  ptr.ixs() */\n    tag_143:\n        /* \"src/utils/Asn1Decode.sol\":3735:3746  ptr.ixl()+1 */\n      tag_145\n      sub(shl(0x50, 0x01), 0x01)\n        /* \"src/utils/Asn1Decode.sol\":514:517  160 */\n      0xa0\n        /* \"src/utils/Asn1Decode.sol\":508:517  self>>160 */\n      dup8\n      swap1\n      shr\n        /* \"src/utils/Asn1Decode.sol\":494:518  return uint80(self>>160) */\n      and\n        /* \"src/utils/Asn1Decode.sol\":3745:3746  1 */\n      0x01\n        /* \"src/utils/Asn1Decode.sol\":3735:3746  ptr.ixl()+1 */\n      tag_139\n      jump\t// in\n    tag_145:\n        /* \"src/utils/Asn1Decode.sol\":3735:3758  ptr.ixl()+1 - ptr.ixs() */\n      tag_146\n      swap2\n      swap1\n      tag_147\n      jump\t// in\n    tag_146:\n        /* \"src/utils/Asn1Decode.sol\":3710:3713  der */\n      dup6\n      swap2\n        /* \"src/utils/Asn1Decode.sol\":3710:3759  der.substring(ptr.ixs(), ptr.ixl()+1 - ptr.ixs()) */\n      swap1\n        /* \"src/utils/Asn1Decode.sol\":3710:3723  der.substring */\n      tag_148\n        /* \"src/utils/Asn1Decode.sol\":3710:3759  der.substring(ptr.ixs(), ptr.ixl()+1 - ptr.ixs()) */\n      jump\t// in\n        /* \"src/utils/Asn1Decode.sol\":3255:3404  function bytesAt(bytes memory der, uint ptr) internal pure returns (bytes memory) {... */\n    tag_74:\n        /* \"src/utils/Asn1Decode.sol\":3323:3335  bytes memory */\n      0x60\n        /* \"src/utils/Asn1Decode.sol\":3350:3399  der.substring(ptr.ixf(), ptr.ixl()+1 - ptr.ixf()) */\n      tag_130\n      sub(shl(0x50, 0x01), 0x01)\n        /* \"src/utils/Asn1Decode.sol\":388:390  80 */\n      0x50\n        /* \"src/utils/Asn1Decode.sol\":382:390  self>>80 */\n      dup5\n      swap1\n      shr\n        /* \"src/utils/Asn1Decode.sol\":368:391  return uint80(self>>80) */\n      and\n      dup1\n        /* \"src/utils/Asn1Decode.sol\":3389:3398  ptr.ixf() */\n      tag_143\n        /* \"src/utils/Asn1Decode.sol\":309:396  function ixf(uint self) internal pure returns (uint) {... */\n      jump\n        /* \"src/utils/BytesUtils.sol\":8293:8652  function readBytesN(... */\n    tag_119:\n        /* \"src/utils/BytesUtils.sol\":8411:8422  bytes32 ret */\n      0x00\n        /* \"src/utils/BytesUtils.sol\":8449:8451  32 */\n      0x20\n        /* \"src/utils/BytesUtils.sol\":8442:8445  len */\n      dup3\n        /* \"src/utils/BytesUtils.sol\":8442:8451  len <= 32 */\n      gt\n      iszero\n        /* \"src/utils/BytesUtils.sol\":8434:8452  require(len <= 32) */\n      tag_157\n      jumpi\n      0x00\n      dup1\n      revert\n    tag_157:\n        /* \"src/utils/BytesUtils.sol\":8483:8494  self.length */\n      dup4\n      mload\n        /* \"src/utils/BytesUtils.sol\":8470:8479  idx + len */\n      tag_158\n        /* \"src/utils/BytesUtils.sol\":8476:8479  len */\n      dup4\n        /* \"src/utils/BytesUtils.sol\":8470:8473  idx */\n      dup6\n        /* \"src/utils/BytesUtils.sol\":8470:8479  idx + len */\n      tag_139\n      jump\t// in\n    tag_158:\n        /* \"src/utils/BytesUtils.sol\":8470:8494  idx + len <= self.length */\n      gt\n      iszero\n        /* \"src/utils/BytesUtils.sol\":8462:8495  require(idx + len <= self.length) */\n      tag_159\n      jumpi\n      0x00\n      dup1\n      revert\n    tag_159:\n      pop\n        /* \"src/utils/BytesUtils.sol\":8561:8563  32 */\n      0x20\n        /* \"src/utils/BytesUtils.sol\":8605:8628  add(add(self, 32), idx) */\n      swap2\n      swap1\n      swap3\n      add\n      dup2\n      add\n        /* \"src/utils/BytesUtils.sol\":8599:8629  mload(add(add(self, 32), idx)) */\n      mload\n        /* \"src/utils/BytesUtils.sol\":8557:8569  sub(32, len) */\n      swap2\n      swap1\n      sub\n        /* \"src/utils/BytesUtils.sol\":8552:8555  256 */\n      0x0100\n        /* \"src/utils/BytesUtils.sol\":8548:8570  exp(256, sub(32, len)) */\n      exp\n      not(0x00)\n        /* \"src/utils/BytesUtils.sol\":8544:8574  sub(exp(256, sub(32, len)), 1) */\n      add\n        /* \"src/utils/BytesUtils.sol\":8540:8575  not(sub(exp(256, sub(32, len)), 1)) */\n      not\n        /* \"src/utils/BytesUtils.sol\":8595:8636  and(mload(add(add(self, 32), idx)), mask) */\n      and\n      swap1\n        /* \"src/utils/BytesUtils.sol\":8293:8652  function readBytesN(... */\n      jump\t// out\n        /* \"src/utils/Asn1Decode.sol\":6190:7040  function readNodeLength(bytes memory der, uint ix) private pure returns (uint) {... */\n    tag_122:\n        /* \"src/utils/Asn1Decode.sol\":6263:6267  uint */\n      0x00\n      dup1\n      dup1\n      dup1\n        /* \"src/utils/Asn1Decode.sol\":6357:6360  der */\n      dup6\n        /* \"src/utils/Asn1Decode.sol\":6361:6365  ix+1 */\n      tag_161\n        /* \"src/utils/Asn1Decode.sol\":6361:6363  ix */\n      dup7\n        /* \"src/utils/Asn1Decode.sol\":6364:6365  1 */\n      0x01\n        /* \"src/utils/Asn1Decode.sol\":6361:6365  ix+1 */\n      tag_139\n      jump\t// in\n    tag_161:\n        /* \"src/utils/Asn1Decode.sol\":6357:6366  der[ix+1] */\n      dup2\n      mload\n      dup2\n      lt\n      tag_163\n      jumpi\n      tag_163\n      tag_63\n      jump\t// in\n    tag_163:\n      add\n      0x20\n      add\n      mload\n      shl(0xff, 0x01)\n        /* \"src/utils/Asn1Decode.sol\":6357:6373  der[ix+1] & 0x80 */\n      and\n        /* \"src/utils/Asn1Decode.sol\":6378:6379  0 */\n      0x00\n        /* \"src/utils/Asn1Decode.sol\":6356:6379  (der[ix+1] & 0x80) == 0 */\n      sub\n        /* \"src/utils/Asn1Decode.sol\":6352:6966  if ((der[ix+1] & 0x80) == 0) {... */\n      tag_164\n      jumpi\n        /* \"src/utils/Asn1Decode.sol\":6402:6405  der */\n      dup6\n        /* \"src/utils/Asn1Decode.sol\":6406:6410  ix+1 */\n      tag_165\n        /* \"src/utils/Asn1Decode.sol\":6406:6408  ix */\n      dup7\n        /* \"src/utils/Asn1Decode.sol\":6409:6410  1 */\n      0x01\n        /* \"src/utils/Asn1Decode.sol\":6406:6410  ix+1 */\n      tag_139\n      jump\t// in\n    tag_165:\n        /* \"src/utils/Asn1Decode.sol\":6402:6411  der[ix+1] */\n      dup2\n      mload\n      dup2\n      lt\n      tag_167\n      jumpi\n      tag_167\n      tag_63\n      jump\t// in\n    tag_167:\n      add\n      0x20\n      add\n      mload\n      0xf8\n      shr\n      swap3\n      pop\n        /* \"src/utils/Asn1Decode.sol\":6446:6450  ix+2 */\n      tag_168\n        /* \"src/utils/Asn1Decode.sol\":6446:6448  ix */\n      dup6\n        /* \"src/utils/Asn1Decode.sol\":6449:6450  2 */\n      0x02\n        /* \"src/utils/Asn1Decode.sol\":6446:6450  ix+2 */\n      tag_139\n      jump\t// in\n    tag_168:\n        /* \"src/utils/Asn1Decode.sol\":6418:6451  ixFirstContentByte = uint80(ix+2) */\n      swap2\n      pop\n        /* \"src/utils/Asn1Decode.sol\":6513:6514  1 */\n      0x01\n        /* \"src/utils/Asn1Decode.sol\":6484:6511  ixFirstContentByte + length */\n      tag_169\n        /* \"src/utils/Asn1Decode.sol\":6505:6511  length */\n      dup5\n      sub(shl(0x50, 0x01), 0x01)\n        /* \"src/utils/Asn1Decode.sol\":6484:6511  ixFirstContentByte + length */\n      dup6\n      and\n      tag_139\n      jump\t// in\n    tag_169:\n        /* \"src/utils/Asn1Decode.sol\":6484:6514  ixFirstContentByte + length -1 */\n      tag_170\n      swap2\n      swap1\n      tag_147\n      jump\t// in\n    tag_170:\n        /* \"src/utils/Asn1Decode.sol\":6457:6515  ixLastContentByte = uint80(ixFirstContentByte + length -1) */\n      swap1\n      pop\n        /* \"src/utils/Asn1Decode.sol\":6352:6966  if ((der[ix+1] & 0x80) == 0) {... */\n      jump(tag_171)\n    tag_164:\n        /* \"src/utils/Asn1Decode.sol\":6536:6559  uint8 lengthbytesLength */\n      0x00\n        /* \"src/utils/Asn1Decode.sol\":6568:6571  der */\n      dup7\n        /* \"src/utils/Asn1Decode.sol\":6572:6576  ix+1 */\n      tag_172\n        /* \"src/utils/Asn1Decode.sol\":6572:6574  ix */\n      dup8\n        /* \"src/utils/Asn1Decode.sol\":6575:6576  1 */\n      0x01\n        /* \"src/utils/Asn1Decode.sol\":6572:6576  ix+1 */\n      tag_139\n      jump\t// in\n    tag_172:\n        /* \"src/utils/Asn1Decode.sol\":6568:6577  der[ix+1] */\n      dup2\n      mload\n      dup2\n      lt\n      tag_174\n      jumpi\n      tag_174\n      tag_63\n      jump\t// in\n    tag_174:\n      0x20\n      swap2\n      add\n      add\n      mload\n      0xf8\n      shr\n        /* \"src/utils/Asn1Decode.sol\":6580:6584  0x7F */\n      0x7f\n        /* \"src/utils/Asn1Decode.sol\":6562:6585  uint8(der[ix+1] & 0x7F) */\n      and\n      swap1\n      pop\n        /* \"src/utils/Asn1Decode.sol\":6618:6619  1 */\n      0x01\n        /* \"src/utils/Asn1Decode.sol\":6597:6619  lengthbytesLength == 1 */\n      dup2\n      swap1\n      sub\n        /* \"src/utils/Asn1Decode.sol\":6593:6838  if (lengthbytesLength == 1)... */\n      tag_175\n      jumpi\n        /* \"src/utils/Asn1Decode.sol\":6638:6657  der.readUint8(ix+2) */\n      tag_176\n        /* \"src/utils/Asn1Decode.sol\":6652:6656  ix+2 */\n      tag_177\n        /* \"src/utils/Asn1Decode.sol\":6652:6654  ix */\n      dup8\n        /* \"src/utils/Asn1Decode.sol\":6655:6656  2 */\n      0x02\n        /* \"src/utils/Asn1Decode.sol\":6652:6656  ix+2 */\n      tag_139\n      jump\t// in\n    tag_177:\n        /* \"src/utils/Asn1Decode.sol\":6638:6641  der */\n      dup9\n      swap1\n        /* \"src/utils/Asn1Decode.sol\":6638:6651  der.readUint8 */\n      tag_178\n        /* \"src/utils/Asn1Decode.sol\":6638:6657  der.readUint8(ix+2) */\n      jump\t// in\n    tag_176:\n        /* \"src/utils/Asn1Decode.sol\":6629:6657  length = der.readUint8(ix+2) */\n      0xff\n      and\n      swap4\n      pop\n        /* \"src/utils/Asn1Decode.sol\":6593:6838  if (lengthbytesLength == 1)... */\n      jump(tag_184)\n    tag_175:\n        /* \"src/utils/Asn1Decode.sol\":6674:6691  lengthbytesLength */\n      dup1\n        /* \"src/utils/Asn1Decode.sol\":6674:6696  lengthbytesLength == 2 */\n      0xff\n      and\n        /* \"src/utils/Asn1Decode.sol\":6695:6696  2 */\n      0x02\n        /* \"src/utils/Asn1Decode.sol\":6674:6696  lengthbytesLength == 2 */\n      sub\n        /* \"src/utils/Asn1Decode.sol\":6670:6838  if (lengthbytesLength == 2)... */\n      tag_180\n      jumpi\n        /* \"src/utils/Asn1Decode.sol\":6715:6735  der.readUint16(ix+2) */\n      tag_181\n        /* \"src/utils/Asn1Decode.sol\":6730:6734  ix+2 */\n      tag_182\n        /* \"src/utils/Asn1Decode.sol\":6730:6732  ix */\n      dup8\n        /* \"src/utils/Asn1Decode.sol\":6733:6734  2 */\n      0x02\n        /* \"src/utils/Asn1Decode.sol\":6730:6734  ix+2 */\n      tag_139\n      jump\t// in\n    tag_182:\n        /* \"src/utils/Asn1Decode.sol\":6715:6718  der */\n      dup9\n      swap1\n        /* \"src/utils/Asn1Decode.sol\":6715:6729  der.readUint16 */\n      tag_183\n        /* \"src/utils/Asn1Decode.sol\":6715:6735  der.readUint16(ix+2) */\n      jump\t// in\n    tag_181:\n        /* \"src/utils/Asn1Decode.sol\":6706:6735  length = der.readUint16(ix+2) */\n      0xffff\n      and\n      swap4\n      pop\n        /* \"src/utils/Asn1Decode.sol\":6670:6838  if (lengthbytesLength == 2)... */\n      jump(tag_184)\n    tag_180:\n        /* \"src/utils/Asn1Decode.sol\":6814:6834  32-lengthbytesLength */\n      tag_185\n        /* \"src/utils/Asn1Decode.sol\":6817:6834  lengthbytesLength */\n      dup2\n        /* \"src/utils/Asn1Decode.sol\":6814:6816  32 */\n      0x20\n        /* \"src/utils/Asn1Decode.sol\":6814:6834  32-lengthbytesLength */\n      tag_186\n      jump\t// in\n    tag_185:\n        /* \"src/utils/Asn1Decode.sol\":6813:6837  (32-lengthbytesLength)*8 */\n      tag_187\n      swap1\n        /* \"src/utils/Asn1Decode.sol\":6836:6837  8 */\n      0x08\n        /* \"src/utils/Asn1Decode.sol\":6813:6837  (32-lengthbytesLength)*8 */\n      tag_188\n      jump\t// in\n    tag_187:\n        /* \"src/utils/Asn1Decode.sol\":6770:6837  der.readBytesN(ix+2, lengthbytesLength) >> (32-lengthbytesLength)*8 */\n      0xff\n      and\n        /* \"src/utils/Asn1Decode.sol\":6770:6809  der.readBytesN(ix+2, lengthbytesLength) */\n      tag_189\n        /* \"src/utils/Asn1Decode.sol\":6785:6789  ix+2 */\n      tag_190\n        /* \"src/utils/Asn1Decode.sol\":6785:6787  ix */\n      dup9\n        /* \"src/utils/Asn1Decode.sol\":6788:6789  2 */\n      0x02\n        /* \"src/utils/Asn1Decode.sol\":6785:6789  ix+2 */\n      tag_139\n      jump\t// in\n    tag_190:\n        /* \"src/utils/Asn1Decode.sol\":6770:6773  der */\n      dup10\n      swap1\n        /* \"src/utils/Asn1Decode.sol\":6770:6809  der.readBytesN(ix+2, lengthbytesLength) */\n      0xff\n      dup6\n      and\n        /* \"src/utils/Asn1Decode.sol\":6770:6784  der.readBytesN */\n      tag_119\n        /* \"src/utils/Asn1Decode.sol\":6770:6809  der.readBytesN(ix+2, lengthbytesLength) */\n      jump\t// in\n    tag_189:\n        /* \"src/utils/Asn1Decode.sol\":6770:6837  der.readBytesN(ix+2, lengthbytesLength) >> (32-lengthbytesLength)*8 */\n      swap1\n      shr\n      swap4\n      pop\n        /* \"src/utils/Asn1Decode.sol\":6670:6838  if (lengthbytesLength == 2)... */\n    tag_184:\n        /* \"src/utils/Asn1Decode.sol\":6872:6894  ix+2+lengthbytesLength */\n      0xff\n      dup2\n      and\n        /* \"src/utils/Asn1Decode.sol\":6872:6876  ix+2 */\n      tag_191\n        /* \"src/utils/Asn1Decode.sol\":6872:6874  ix */\n      dup8\n        /* \"src/utils/Asn1Decode.sol\":6875:6876  2 */\n      0x02\n        /* \"src/utils/Asn1Decode.sol\":6872:6876  ix+2 */\n      tag_139\n      jump\t// in\n    tag_191:\n        /* \"src/utils/Asn1Decode.sol\":6872:6894  ix+2+lengthbytesLength */\n      tag_192\n      swap2\n      swap1\n      tag_139\n      jump\t// in\n    tag_192:\n        /* \"src/utils/Asn1Decode.sol\":6844:6895  ixFirstContentByte = uint80(ix+2+lengthbytesLength) */\n      swap3\n      pop\n        /* \"src/utils/Asn1Decode.sol\":6957:6958  1 */\n      0x01\n        /* \"src/utils/Asn1Decode.sol\":6928:6955  ixFirstContentByte + length */\n      tag_193\n        /* \"src/utils/Asn1Decode.sol\":6949:6955  length */\n      dup6\n      sub(shl(0x50, 0x01), 0x01)\n        /* \"src/utils/Asn1Decode.sol\":6928:6955  ixFirstContentByte + length */\n      dup7\n      and\n      tag_139\n      jump\t// in\n    tag_193:\n        /* \"src/utils/Asn1Decode.sol\":6928:6958  ixFirstContentByte + length -1 */\n      tag_194\n      swap2\n      swap1\n      tag_147\n      jump\t// in\n    tag_194:\n        /* \"src/utils/Asn1Decode.sol\":6901:6959  ixLastContentByte = uint80(ixFirstContentByte + length -1) */\n      swap2\n      pop\n        /* \"src/utils/Asn1Decode.sol\":6528:6966  {... */\n      pop\n        /* \"src/utils/Asn1Decode.sol\":6352:6966  if ((der[ix+1] & 0x80) == 0) {... */\n    tag_171:\n      shl(0xa0, 0xffffffffffffffffffff)\n        /* \"src/utils/Asn1Decode.sol\":681:684  160 */\n      0xa0\n        /* \"src/utils/Asn1Decode.sol\":675:684  _ixl<<160 */\n      dup3\n      swap1\n      shl\n      and\n      shl(0x50, 0xffffffffffffffffffff)\n        /* \"src/utils/Asn1Decode.sol\":659:661  80 */\n      0x50\n        /* \"src/utils/Asn1Decode.sol\":653:661  _ixf<<80 */\n      dup5\n      swap1\n      shl\n      and\n        /* \"src/utils/Asn1Decode.sol\":645:661  _ixs |= _ixf<<80 */\n      dup7\n      or\n        /* \"src/utils/Asn1Decode.sol\":667:684  _ixs |= _ixl<<160 */\n      or\n        /* \"src/utils/Asn1Decode.sol\":6978:7035  NodePtr.getPtr(ix, ixFirstContentByte, ixLastContentByte) */\n      tag_36\n        /* \"src/utils/Asn1Decode.sol\":561:706  function getPtr(uint _ixs, uint _ixf, uint _ixl) internal pure returns (uint) {... */\n      jump\n        /* \"src/utils/BytesUtils.sol\":9528:9964  function substring(... */\n    tag_148:\n        /* \"src/utils/BytesUtils.sol\":9696:9707  self.length */\n      dup3\n      mload\n        /* \"src/utils/BytesUtils.sol\":9648:9660  bytes memory */\n      0x60\n      swap1\n        /* \"src/utils/BytesUtils.sol\":9680:9692  offset + len */\n      tag_200\n        /* \"src/utils/BytesUtils.sol\":9689:9692  len */\n      dup4\n        /* \"src/utils/BytesUtils.sol\":9680:9686  offset */\n      dup6\n        /* \"src/utils/BytesUtils.sol\":9680:9692  offset + len */\n      tag_139\n      jump\t// in\n    tag_200:\n        /* \"src/utils/BytesUtils.sol\":9680:9707  offset + len <= self.length */\n      gt\n      iszero\n        /* \"src/utils/BytesUtils.sol\":9672:9708  require(offset + len <= self.length) */\n      tag_201\n      jumpi\n      0x00\n      dup1\n      revert\n    tag_201:\n        /* \"src/utils/BytesUtils.sol\":9719:9735  bytes memory ret */\n      0x00\n        /* \"src/utils/BytesUtils.sol\":9748:9751  len */\n      dup3\n        /* \"src/utils/BytesUtils.sol\":9738:9752  new bytes(len) */\n      0xffffffffffffffff\n      dup2\n      gt\n      iszero\n      tag_203\n      jumpi\n      tag_203\n      tag_204\n      jump\t// in\n    tag_203:\n      mload(0x40)\n      swap1\n      dup1\n      dup3\n      mstore\n      dup1\n      0x1f\n      add\n      not(0x1f)\n      and\n      0x20\n      add\n      dup3\n      add\n      0x40\n      mstore\n      dup1\n      iszero\n      tag_205\n      jumpi\n      0x20\n      dup3\n      add\n      dup2\n      dup1\n      calldatasize\n      dup4\n      calldatacopy\n      add\n      swap1\n      pop\n    tag_205:\n      pop\n        /* \"src/utils/BytesUtils.sol\":9719:9752  bytes memory ret = new bytes(len) */\n      swap1\n      pop\n        /* \"src/utils/BytesUtils.sol\":9846:9848  32 */\n      0x20\n        /* \"src/utils/BytesUtils.sol\":9837:9849  add(ret, 32) */\n      dup1\n      dup3\n      add\n      swap1\n        /* \"src/utils/BytesUtils.sol\":9869:9895  add(add(self, 32), offset) */\n      dup7\n      dup7\n      add\n      add\n        /* \"src/utils/BytesUtils.sol\":9914:9936  memcpy(dest, src, len) */\n      tag_206\n        /* \"src/utils/BytesUtils.sol\":9837:9849  add(ret, 32) */\n      dup3\n        /* \"src/utils/BytesUtils.sol\":9869:9895  add(add(self, 32), offset) */\n      dup3\n        /* \"src/utils/BytesUtils.sol\":9932:9935  len */\n      dup8\n        /* \"src/utils/BytesUtils.sol\":9914:9920  memcpy */\n      tag_207\n        /* \"src/utils/BytesUtils.sol\":9914:9936  memcpy(dest, src, len) */\n      jump\t// in\n    tag_206:\n      pop\n        /* \"src/utils/BytesUtils.sol\":9954:9957  ret */\n      swap1\n      swap6\n        /* \"src/utils/BytesUtils.sol\":9528:9964  function substring(... */\n      swap5\n      pop\n      pop\n      pop\n      pop\n      pop\n      jump\t// out\n        /* \"src/utils/BytesUtils.sol\":5813:5966  function readUint8(bytes memory self, uint256 idx)... */\n    tag_178:\n        /* \"src/utils/BytesUtils.sol\":5911:5920  uint8 ret */\n      0x00\n        /* \"src/utils/BytesUtils.sol\":5949:5953  self */\n      dup3\n        /* \"src/utils/BytesUtils.sol\":5954:5957  idx */\n      dup3\n        /* \"src/utils/BytesUtils.sol\":5949:5958  self[idx] */\n      dup2\n      mload\n      dup2\n      lt\n      tag_210\n      jumpi\n      tag_210\n      tag_63\n      jump\t// in\n    tag_210:\n      add\n      0x20\n      add\n      mload\n      0xf8\n      shr\n      swap1\n      pop\n        /* \"src/utils/BytesUtils.sol\":5813:5966  function readUint8(bytes memory self, uint256 idx)... */\n      swap3\n      swap2\n      pop\n      pop\n      jump\t// out\n        /* \"src/utils/BytesUtils.sol\":6215:6469  function readUint16(bytes memory self, uint256 idx)... */\n    tag_183:\n        /* \"src/utils/BytesUtils.sol\":6359:6370  self.length */\n      dup2\n      mload\n        /* \"src/utils/BytesUtils.sol\":6314:6324  uint16 ret */\n      0x00\n      swap1\n        /* \"src/utils/BytesUtils.sol\":6348:6355  idx + 2 */\n      tag_212\n        /* \"src/utils/BytesUtils.sol\":6348:6351  idx */\n      dup4\n        /* \"src/utils/BytesUtils.sol\":6354:6355  2 */\n      0x02\n        /* \"src/utils/BytesUtils.sol\":6348:6355  idx + 2 */\n      tag_139\n      jump\t// in\n    tag_212:\n        /* \"src/utils/BytesUtils.sol\":6348:6370  idx + 2 <= self.length */\n      gt\n      iszero\n        /* \"src/utils/BytesUtils.sol\":6340:6371  require(idx + 2 <= self.length) */\n      tag_213\n      jumpi\n      0x00\n      dup1\n      revert\n    tag_213:\n      pop\n        /* \"src/utils/BytesUtils.sol\":6421:6443  add(add(self, 2), idx) */\n      add\n        /* \"src/utils/BytesUtils.sol\":6435:6436  2 */\n      0x02\n        /* \"src/utils/BytesUtils.sol\":6421:6443  add(add(self, 2), idx) */\n      add\n        /* \"src/utils/BytesUtils.sol\":6415:6444  mload(add(add(self, 2), idx)) */\n      mload\n        /* \"src/utils/BytesUtils.sol\":6446:6452  0xFFFF */\n      0xffff\n        /* \"src/utils/BytesUtils.sol\":6411:6453  and(mload(add(add(self, 2), idx)), 0xFFFF) */\n      and\n      swap1\n        /* \"src/utils/BytesUtils.sol\":6215:6469  function readUint16(bytes memory self, uint256 idx)... */\n      jump\t// out\n        /* \"src/utils/BytesUtils.sol\":8658:9303  function memcpy(... */\n    tag_207:\n        /* \"src/utils/BytesUtils.sol\":8831:8833  32 */\n      0x20\n        /* \"src/utils/BytesUtils.sol\":8824:8827  len */\n      dup2\n        /* \"src/utils/BytesUtils.sol\":8824:8833  len >= 32 */\n      lt\n        /* \"src/utils/BytesUtils.sol\":8817:8982  for (; len >= 32; len -= 32) {... */\n      tag_217\n      jumpi\n        /* \"src/utils/BytesUtils.sol\":8900:8910  mload(src) */\n      dup2\n      mload\n        /* \"src/utils/BytesUtils.sol\":8887:8911  mstore(dest, mload(src)) */\n      dup4\n      mstore\n        /* \"src/utils/BytesUtils.sol\":8938:8948  dest += 32 */\n      tag_219\n        /* \"src/utils/BytesUtils.sol\":8946:8948  32 */\n      0x20\n        /* \"src/utils/BytesUtils.sol\":8894:8898  dest */\n      dup5\n        /* \"src/utils/BytesUtils.sol\":8938:8948  dest += 32 */\n      tag_139\n      jump\t// in\n    tag_219:\n      swap3\n      pop\n        /* \"src/utils/BytesUtils.sol\":8962:8971  src += 32 */\n      tag_220\n        /* \"src/utils/BytesUtils.sol\":8969:8971  32 */\n      0x20\n        /* \"src/utils/BytesUtils.sol\":8962:8971  src += 32 */\n      dup4\n      tag_139\n      jump\t// in\n    tag_220:\n      swap2\n      pop\n        /* \"src/utils/BytesUtils.sol\":8835:8844  len -= 32 */\n      tag_221\n        /* \"src/utils/BytesUtils.sol\":8842:8844  32 */\n      0x20\n        /* \"src/utils/BytesUtils.sol\":8835:8844  len -= 32 */\n      dup3\n      tag_147\n      jump\t// in\n    tag_221:\n      swap1\n      pop\n        /* \"src/utils/BytesUtils.sol\":8817:8982  for (; len >= 32; len -= 32) {... */\n      jump(tag_207)\n    tag_217:\n        /* \"src/utils/BytesUtils.sol\":9144:9154  mload(src) */\n      swap1\n      mload\n        /* \"src/utils/BytesUtils.sol\":9203:9214  mload(dest) */\n      dup3\n      mload\n        /* \"src/utils/BytesUtils.sol\":9070:9072  32 */\n      0x20\n        /* \"src/utils/BytesUtils.sol\":9070:9078  32 - len */\n      swap3\n      swap1\n      swap3\n      sub\n        /* \"src/utils/BytesUtils.sol\":9064:9067  256 */\n      0x0100\n        /* \"src/utils/BytesUtils.sol\":9064:9079  256**(32 - len) */\n      exp\n      not(0x00)\n        /* \"src/utils/BytesUtils.sol\":9063:9084  (256**(32 - len)) - 1 */\n      add\n        /* \"src/utils/BytesUtils.sol\":9156:9165  not(mask) */\n      dup1\n      not\n        /* \"src/utils/BytesUtils.sol\":9140:9166  and(mload(src), not(mask)) */\n      swap1\n      swap2\n      and\n        /* \"src/utils/BytesUtils.sol\":9199:9221  and(mload(dest), mask) */\n      swap2\n      and\n        /* \"src/utils/BytesUtils.sol\":9251:9272  or(destpart, srcpart) */\n      or\n        /* \"src/utils/BytesUtils.sol\":9238:9273  mstore(dest, or(destpart, srcpart)) */\n      swap1\n      mstore\n        /* \"src/utils/BytesUtils.sol\":8658:9303  function memcpy(... */\n      jump\t// out\n        /* \"#utility.yul\":14:485   */\n    tag_222:\n        /* \"#utility.yul\":55:58   */\n      0x00\n        /* \"#utility.yul\":93:98   */\n      dup2\n        /* \"#utility.yul\":87:99   */\n      mload\n        /* \"#utility.yul\":120:126   */\n      dup1\n        /* \"#utility.yul\":115:118   */\n      dup5\n        /* \"#utility.yul\":108:127   */\n      mstore\n        /* \"#utility.yul\":145:146   */\n      0x00\n        /* \"#utility.yul\":155:317   */\n    tag_229:\n        /* \"#utility.yul\":169:175   */\n      dup2\n        /* \"#utility.yul\":166:167   */\n      dup2\n        /* \"#utility.yul\":163:176   */\n      lt\n        /* \"#utility.yul\":155:317   */\n      iszero\n      tag_231\n      jumpi\n        /* \"#utility.yul\":231:235   */\n      0x20\n        /* \"#utility.yul\":287:300   */\n      dup2\n      dup6\n      add\n        /* \"#utility.yul\":283:305   */\n      dup2\n      add\n        /* \"#utility.yul\":277:306   */\n      mload\n        /* \"#utility.yul\":259:270   */\n      dup7\n      dup4\n      add\n        /* \"#utility.yul\":255:275   */\n      dup3\n      add\n        /* \"#utility.yul\":248:307   */\n      mstore\n        /* \"#utility.yul\":184:196   */\n      add\n        /* \"#utility.yul\":155:317   */\n      jump(tag_229)\n    tag_231:\n        /* \"#utility.yul\":335:341   */\n      dup2\n        /* \"#utility.yul\":332:333   */\n      dup2\n        /* \"#utility.yul\":329:342   */\n      gt\n        /* \"#utility.yul\":326:413   */\n      iszero\n      tag_232\n      jumpi\n        /* \"#utility.yul\":401:402   */\n      0x00\n        /* \"#utility.yul\":394:398   */\n      0x20\n        /* \"#utility.yul\":385:391   */\n      dup4\n        /* \"#utility.yul\":380:383   */\n      dup8\n        /* \"#utility.yul\":376:392   */\n      add\n        /* \"#utility.yul\":372:399   */\n      add\n        /* \"#utility.yul\":365:403   */\n      mstore\n        /* \"#utility.yul\":326:413   */\n    tag_232:\n      pop\n        /* \"#utility.yul\":467:469   */\n      0x1f\n        /* \"#utility.yul\":446:461   */\n      add\n      not(0x1f)\n        /* \"#utility.yul\":442:471   */\n      and\n        /* \"#utility.yul\":433:472   */\n      swap3\n      swap1\n      swap3\n      add\n        /* \"#utility.yul\":474:478   */\n      0x20\n        /* \"#utility.yul\":429:479   */\n      add\n      swap3\n        /* \"#utility.yul\":14:485   */\n      swap2\n      pop\n      pop\n      jump\t// out\n        /* \"#utility.yul\":490:707   */\n    tag_11:\n        /* \"#utility.yul\":637:639   */\n      0x20\n        /* \"#utility.yul\":626:635   */\n      dup2\n        /* \"#utility.yul\":619:640   */\n      mstore\n        /* \"#utility.yul\":600:604   */\n      0x00\n        /* \"#utility.yul\":657:701   */\n      tag_130\n        /* \"#utility.yul\":697:699   */\n      0x20\n        /* \"#utility.yul\":686:695   */\n      dup4\n        /* \"#utility.yul\":682:700   */\n      add\n        /* \"#utility.yul\":674:680   */\n      dup5\n        /* \"#utility.yul\":657:701   */\n      tag_222\n      jump\t// in\n        /* \"#utility.yul\":712:1059   */\n    tag_223:\n        /* \"#utility.yul\":763:771   */\n      0x00\n        /* \"#utility.yul\":773:779   */\n      dup1\n        /* \"#utility.yul\":827:830   */\n      dup4\n        /* \"#utility.yul\":820:824   */\n      0x1f\n        /* \"#utility.yul\":812:818   */\n      dup5\n        /* \"#utility.yul\":808:825   */\n      add\n        /* \"#utility.yul\":804:831   */\n      slt\n        /* \"#utility.yul\":794:849   */\n      tag_236\n      jumpi\n        /* \"#utility.yul\":845:846   */\n      0x00\n        /* \"#utility.yul\":842:843   */\n      dup1\n        /* \"#utility.yul\":835:847   */\n      revert\n        /* \"#utility.yul\":794:849   */\n    tag_236:\n      pop\n        /* \"#utility.yul\":868:888   */\n      dup2\n      calldataload\n        /* \"#utility.yul\":911:929   */\n      0xffffffffffffffff\n        /* \"#utility.yul\":900:930   */\n      dup2\n      gt\n        /* \"#utility.yul\":897:947   */\n      iszero\n      tag_237\n      jumpi\n        /* \"#utility.yul\":943:944   */\n      0x00\n        /* \"#utility.yul\":940:941   */\n      dup1\n        /* \"#utility.yul\":933:945   */\n      revert\n        /* \"#utility.yul\":897:947   */\n    tag_237:\n        /* \"#utility.yul\":980:984   */\n      0x20\n        /* \"#utility.yul\":972:978   */\n      dup4\n        /* \"#utility.yul\":968:985   */\n      add\n        /* \"#utility.yul\":956:985   */\n      swap2\n      pop\n        /* \"#utility.yul\":1032:1035   */\n      dup4\n        /* \"#utility.yul\":1025:1029   */\n      0x20\n        /* \"#utility.yul\":1016:1022   */\n      dup3\n        /* \"#utility.yul\":1008:1014   */\n      dup6\n        /* \"#utility.yul\":1004:1023   */\n      add\n        /* \"#utility.yul\":1000:1030   */\n      add\n        /* \"#utility.yul\":997:1036   */\n      gt\n        /* \"#utility.yul\":994:1053   */\n      iszero\n      tag_238\n      jumpi\n        /* \"#utility.yul\":1049:1050   */\n      0x00\n        /* \"#utility.yul\":1046:1047   */\n      dup1\n        /* \"#utility.yul\":1039:1051   */\n      revert\n        /* \"#utility.yul\":994:1053   */\n    tag_238:\n        /* \"#utility.yul\":712:1059   */\n      swap3\n      pop\n      swap3\n      swap1\n      pop\n      jump\t// out\n        /* \"#utility.yul\":1064:2068   */\n    tag_14:\n        /* \"#utility.yul\":1174:1180   */\n      0x00\n        /* \"#utility.yul\":1182:1188   */\n      dup1\n        /* \"#utility.yul\":1190:1196   */\n      0x00\n        /* \"#utility.yul\":1198:1204   */\n      dup1\n        /* \"#utility.yul\":1206:1212   */\n      0x00\n        /* \"#utility.yul\":1214:1220   */\n      dup1\n        /* \"#utility.yul\":1267:1269   */\n      0x60\n        /* \"#utility.yul\":1255:1264   */\n      dup8\n        /* \"#utility.yul\":1246:1253   */\n      dup10\n        /* \"#utility.yul\":1242:1265   */\n      sub\n        /* \"#utility.yul\":1238:1270   */\n      slt\n        /* \"#utility.yul\":1235:1287   */\n      iszero\n      tag_240\n      jumpi\n        /* \"#utility.yul\":1283:1284   */\n      0x00\n        /* \"#utility.yul\":1280:1281   */\n      dup1\n        /* \"#utility.yul\":1273:1285   */\n      revert\n        /* \"#utility.yul\":1235:1287   */\n    tag_240:\n        /* \"#utility.yul\":1323:1332   */\n      dup7\n        /* \"#utility.yul\":1310:1333   */\n      calldataload\n        /* \"#utility.yul\":1352:1370   */\n      0xffffffffffffffff\n        /* \"#utility.yul\":1393:1395   */\n      dup1\n        /* \"#utility.yul\":1385:1391   */\n      dup3\n        /* \"#utility.yul\":1382:1396   */\n      gt\n        /* \"#utility.yul\":1379:1413   */\n      iszero\n      tag_241\n      jumpi\n        /* \"#utility.yul\":1409:1410   */\n      0x00\n        /* \"#utility.yul\":1406:1407   */\n      dup1\n        /* \"#utility.yul\":1399:1411   */\n      revert\n        /* \"#utility.yul\":1379:1413   */\n    tag_241:\n        /* \"#utility.yul\":1448:1506   */\n      tag_242\n        /* \"#utility.yul\":1498:1505   */\n      dup11\n        /* \"#utility.yul\":1489:1495   */\n      dup4\n        /* \"#utility.yul\":1478:1487   */\n      dup12\n        /* \"#utility.yul\":1474:1496   */\n      add\n        /* \"#utility.yul\":1448:1506   */\n      tag_223\n      jump\t// in\n    tag_242:\n        /* \"#utility.yul\":1525:1533   */\n      swap1\n      swap9\n      pop\n        /* \"#utility.yul\":1422:1506   */\n      swap7\n      pop\n        /* \"#utility.yul\":1613:1615   */\n      0x20\n        /* \"#utility.yul\":1598:1616   */\n      dup10\n      add\n        /* \"#utility.yul\":1585:1617   */\n      calldataload\n      swap2\n      pop\n        /* \"#utility.yul\":1629:1645   */\n      dup1\n      dup3\n      gt\n        /* \"#utility.yul\":1626:1662   */\n      iszero\n      tag_243\n      jumpi\n        /* \"#utility.yul\":1658:1659   */\n      0x00\n        /* \"#utility.yul\":1655:1656   */\n      dup1\n        /* \"#utility.yul\":1648:1660   */\n      revert\n        /* \"#utility.yul\":1626:1662   */\n    tag_243:\n        /* \"#utility.yul\":1697:1757   */\n      tag_244\n        /* \"#utility.yul\":1749:1756   */\n      dup11\n        /* \"#utility.yul\":1738:1746   */\n      dup4\n        /* \"#utility.yul\":1727:1736   */\n      dup12\n        /* \"#utility.yul\":1723:1747   */\n      add\n        /* \"#utility.yul\":1697:1757   */\n      tag_223\n      jump\t// in\n    tag_244:\n        /* \"#utility.yul\":1776:1784   */\n      swap1\n      swap7\n      pop\n        /* \"#utility.yul\":1671:1757   */\n      swap5\n      pop\n        /* \"#utility.yul\":1864:1866   */\n      0x40\n        /* \"#utility.yul\":1849:1867   */\n      dup10\n      add\n        /* \"#utility.yul\":1836:1868   */\n      calldataload\n      swap2\n      pop\n        /* \"#utility.yul\":1880:1896   */\n      dup1\n      dup3\n      gt\n        /* \"#utility.yul\":1877:1913   */\n      iszero\n      tag_245\n      jumpi\n        /* \"#utility.yul\":1909:1910   */\n      0x00\n        /* \"#utility.yul\":1906:1907   */\n      dup1\n        /* \"#utility.yul\":1899:1911   */\n      revert\n        /* \"#utility.yul\":1877:1913   */\n    tag_245:\n      pop\n        /* \"#utility.yul\":1948:2008   */\n      tag_246\n        /* \"#utility.yul\":2000:2007   */\n      dup10\n        /* \"#utility.yul\":1989:1997   */\n      dup3\n        /* \"#utility.yul\":1978:1987   */\n      dup11\n        /* \"#utility.yul\":1974:1998   */\n      add\n        /* \"#utility.yul\":1948:2008   */\n      tag_223\n      jump\t// in\n    tag_246:\n        /* \"#utility.yul\":1064:2068   */\n      swap8\n      swap11\n      swap7\n      swap10\n      pop\n      swap5\n      swap8\n      pop\n      swap3\n      swap6\n        /* \"#utility.yul\":2027:2035   */\n      swap4\n      swap5\n        /* \"#utility.yul\":1064:2068   */\n      swap3\n      pop\n      pop\n      pop\n      jump\t// out\n        /* \"#utility.yul\":2490:2617   */\n    tag_204:\n        /* \"#utility.yul\":2551:2561   */\n      0x4e487b71\n        /* \"#utility.yul\":2546:2549   */\n      0xe0\n        /* \"#utility.yul\":2542:2562   */\n      shl\n        /* \"#utility.yul\":2539:2540   */\n      0x00\n        /* \"#utility.yul\":2532:2563   */\n      mstore\n        /* \"#utility.yul\":2582:2586   */\n      0x41\n        /* \"#utility.yul\":2579:2580   */\n      0x04\n        /* \"#utility.yul\":2572:2587   */\n      mstore\n        /* \"#utility.yul\":2606:2610   */\n      0x24\n        /* \"#utility.yul\":2603:2604   */\n      0x00\n        /* \"#utility.yul\":2596:2611   */\n      revert\n        /* \"#utility.yul\":2622:3340   */\n    tag_224:\n        /* \"#utility.yul\":2664:2669   */\n      0x00\n        /* \"#utility.yul\":2717:2720   */\n      dup3\n        /* \"#utility.yul\":2710:2714   */\n      0x1f\n        /* \"#utility.yul\":2702:2708   */\n      dup4\n        /* \"#utility.yul\":2698:2715   */\n      add\n        /* \"#utility.yul\":2694:2721   */\n      slt\n        /* \"#utility.yul\":2684:2739   */\n      tag_251\n      jumpi\n        /* \"#utility.yul\":2735:2736   */\n      0x00\n        /* \"#utility.yul\":2732:2733   */\n      dup1\n        /* \"#utility.yul\":2725:2737   */\n      revert\n        /* \"#utility.yul\":2684:2739   */\n    tag_251:\n        /* \"#utility.yul\":2771:2777   */\n      dup2\n        /* \"#utility.yul\":2758:2778   */\n      calldataload\n        /* \"#utility.yul\":2797:2815   */\n      0xffffffffffffffff\n        /* \"#utility.yul\":2834:2836   */\n      dup1\n        /* \"#utility.yul\":2830:2832   */\n      dup3\n        /* \"#utility.yul\":2827:2837   */\n      gt\n        /* \"#utility.yul\":2824:2860   */\n      iszero\n      tag_253\n      jumpi\n        /* \"#utility.yul\":2840:2858   */\n      tag_253\n      tag_204\n      jump\t// in\n    tag_253:\n        /* \"#utility.yul\":2915:2917   */\n      0x40\n        /* \"#utility.yul\":2909:2918   */\n      mload\n        /* \"#utility.yul\":2883:2885   */\n      0x1f\n        /* \"#utility.yul\":2969:2982   */\n      dup4\n      add\n      not(0x1f)\n        /* \"#utility.yul\":2965:2987   */\n      swap1\n      dup2\n      and\n        /* \"#utility.yul\":2989:2991   */\n      0x3f\n        /* \"#utility.yul\":2961:2992   */\n      add\n        /* \"#utility.yul\":2957:2997   */\n      and\n        /* \"#utility.yul\":2945:2998   */\n      dup2\n      add\n      swap1\n        /* \"#utility.yul\":3013:3031   */\n      dup3\n      dup3\n      gt\n        /* \"#utility.yul\":3033:3055   */\n      dup2\n      dup4\n      lt\n        /* \"#utility.yul\":3010:3056   */\n      or\n        /* \"#utility.yul\":3007:3079   */\n      iszero\n      tag_255\n      jumpi\n        /* \"#utility.yul\":3059:3077   */\n      tag_255\n      tag_204\n      jump\t// in\n    tag_255:\n        /* \"#utility.yul\":3099:3109   */\n      dup2\n        /* \"#utility.yul\":3095:3097   */\n      0x40\n        /* \"#utility.yul\":3088:3110   */\n      mstore\n        /* \"#utility.yul\":3134:3136   */\n      dup4\n        /* \"#utility.yul\":3126:3132   */\n      dup2\n        /* \"#utility.yul\":3119:3137   */\n      mstore\n        /* \"#utility.yul\":3180:3183   */\n      dup7\n        /* \"#utility.yul\":3173:3177   */\n      0x20\n        /* \"#utility.yul\":3168:3170   */\n      dup6\n        /* \"#utility.yul\":3160:3166   */\n      dup9\n        /* \"#utility.yul\":3156:3171   */\n      add\n        /* \"#utility.yul\":3152:3178   */\n      add\n        /* \"#utility.yul\":3149:3184   */\n      gt\n        /* \"#utility.yul\":3146:3201   */\n      iszero\n      tag_256\n      jumpi\n        /* \"#utility.yul\":3197:3198   */\n      0x00\n        /* \"#utility.yul\":3194:3195   */\n      dup1\n        /* \"#utility.yul\":3187:3199   */\n      revert\n        /* \"#utility.yul\":3146:3201   */\n    tag_256:\n        /* \"#utility.yul\":3261:3263   */\n      dup4\n        /* \"#utility.yul\":3254:3258   */\n      0x20\n        /* \"#utility.yul\":3246:3252   */\n      dup8\n        /* \"#utility.yul\":3242:3259   */\n      add\n        /* \"#utility.yul\":3235:3239   */\n      0x20\n        /* \"#utility.yul\":3227:3233   */\n      dup4\n        /* \"#utility.yul\":3223:3240   */\n      add\n        /* \"#utility.yul\":3210:3264   */\n      calldatacopy\n        /* \"#utility.yul\":3308:3309   */\n      0x00\n        /* \"#utility.yul\":3301:3305   */\n      0x20\n        /* \"#utility.yul\":3296:3298   */\n      dup6\n        /* \"#utility.yul\":3288:3294   */\n      dup4\n        /* \"#utility.yul\":3284:3299   */\n      add\n        /* \"#utility.yul\":3280:3306   */\n      add\n        /* \"#utility.yul\":3273:3310   */\n      mstore\n        /* \"#utility.yul\":3328:3334   */\n      dup1\n        /* \"#utility.yul\":3319:3334   */\n      swap5\n      pop\n      pop\n      pop\n      pop\n      pop\n        /* \"#utility.yul\":2622:3340   */\n      swap3\n      swap2\n      pop\n      pop\n      jump\t// out\n        /* \"#utility.yul\":3345:3884   */\n    tag_24:\n        /* \"#utility.yul\":3431:3437   */\n      0x00\n        /* \"#utility.yul\":3439:3445   */\n      dup1\n        /* \"#utility.yul\":3492:3494   */\n      0x40\n        /* \"#utility.yul\":3480:3489   */\n      dup4\n        /* \"#utility.yul\":3471:3478   */\n      dup6\n        /* \"#utility.yul\":3467:3490   */\n      sub\n        /* \"#utility.yul\":3463:3495   */\n      slt\n        /* \"#utility.yul\":3460:3512   */\n      iszero\n      tag_258\n      jumpi\n        /* \"#utility.yul\":3508:3509   */\n      0x00\n        /* \"#utility.yul\":3505:3506   */\n      dup1\n        /* \"#utility.yul\":3498:3510   */\n      revert\n        /* \"#utility.yul\":3460:3512   */\n    tag_258:\n        /* \"#utility.yul\":3548:3557   */\n      dup3\n        /* \"#utility.yul\":3535:3558   */\n      calldataload\n        /* \"#utility.yul\":3577:3595   */\n      0xffffffffffffffff\n        /* \"#utility.yul\":3618:3620   */\n      dup1\n        /* \"#utility.yul\":3610:3616   */\n      dup3\n        /* \"#utility.yul\":3607:3621   */\n      gt\n        /* \"#utility.yul\":3604:3638   */\n      iszero\n      tag_259\n      jumpi\n        /* \"#utility.yul\":3634:3635   */\n      0x00\n        /* \"#utility.yul\":3631:3632   */\n      dup1\n        /* \"#utility.yul\":3624:3636   */\n      revert\n        /* \"#utility.yul\":3604:3638   */\n    tag_259:\n        /* \"#utility.yul\":3657:3706   */\n      tag_260\n        /* \"#utility.yul\":3698:3705   */\n      dup7\n        /* \"#utility.yul\":3689:3695   */\n      dup4\n        /* \"#utility.yul\":3678:3687   */\n      dup8\n        /* \"#utility.yul\":3674:3696   */\n      add\n        /* \"#utility.yul\":3657:3706   */\n      tag_224\n      jump\t// in\n    tag_260:\n        /* \"#utility.yul\":3647:3706   */\n      swap4\n      pop\n        /* \"#utility.yul\":3759:3761   */\n      0x20\n        /* \"#utility.yul\":3748:3757   */\n      dup6\n        /* \"#utility.yul\":3744:3762   */\n      add\n        /* \"#utility.yul\":3731:3763   */\n      calldataload\n        /* \"#utility.yul\":3715:3763   */\n      swap2\n      pop\n        /* \"#utility.yul\":3788:3790   */\n      dup1\n        /* \"#utility.yul\":3778:3786   */\n      dup3\n        /* \"#utility.yul\":3775:3791   */\n      gt\n        /* \"#utility.yul\":3772:3808   */\n      iszero\n      tag_261\n      jumpi\n        /* \"#utility.yul\":3804:3805   */\n      0x00\n        /* \"#utility.yul\":3801:3802   */\n      dup1\n        /* \"#utility.yul\":3794:3806   */\n      revert\n        /* \"#utility.yul\":3772:3808   */\n    tag_261:\n      pop\n        /* \"#utility.yul\":3827:3878   */\n      tag_262\n        /* \"#utility.yul\":3870:3877   */\n      dup6\n        /* \"#utility.yul\":3859:3867   */\n      dup3\n        /* \"#utility.yul\":3848:3857   */\n      dup7\n        /* \"#utility.yul\":3844:3868   */\n      add\n        /* \"#utility.yul\":3827:3878   */\n      tag_224\n      jump\t// in\n    tag_262:\n        /* \"#utility.yul\":3817:3878   */\n      swap2\n      pop\n      pop\n        /* \"#utility.yul\":3345:3884   */\n      swap3\n      pop\n      swap3\n      swap1\n      pop\n      jump\t// out\n        /* \"#utility.yul\":3889:4269   */\n    tag_31:\n        /* \"#utility.yul\":3968:3969   */\n      0x01\n        /* \"#utility.yul\":3964:3976   */\n      dup2\n      dup2\n      shr\n      swap1\n        /* \"#utility.yul\":4011:4023   */\n      dup3\n      and\n      dup1\n        /* \"#utility.yul\":4032:4093   */\n      tag_264\n      jumpi\n        /* \"#utility.yul\":4086:4090   */\n      0x7f\n        /* \"#utility.yul\":4078:4084   */\n      dup3\n        /* \"#utility.yul\":4074:4091   */\n      and\n        /* \"#utility.yul\":4064:4091   */\n      swap2\n      pop\n        /* \"#utility.yul\":4032:4093   */\n    tag_264:\n        /* \"#utility.yul\":4139:4141   */\n      0x20\n        /* \"#utility.yul\":4131:4137   */\n      dup3\n        /* \"#utility.yul\":4128:4142   */\n      lt\n        /* \"#utility.yul\":4108:4126   */\n      dup2\n        /* \"#utility.yul\":4105:4143   */\n      sub\n        /* \"#utility.yul\":4102:4263   */\n      tag_265\n      jumpi\n        /* \"#utility.yul\":4185:4195   */\n      0x4e487b71\n        /* \"#utility.yul\":4180:4183   */\n      0xe0\n        /* \"#utility.yul\":4176:4196   */\n      shl\n        /* \"#utility.yul\":4173:4174   */\n      0x00\n        /* \"#utility.yul\":4166:4197   */\n      mstore\n        /* \"#utility.yul\":4220:4224   */\n      0x22\n        /* \"#utility.yul\":4217:4218   */\n      0x04\n        /* \"#utility.yul\":4210:4225   */\n      mstore\n        /* \"#utility.yul\":4248:4252   */\n      0x24\n        /* \"#utility.yul\":4245:4246   */\n      0x00\n        /* \"#utility.yul\":4238:4253   */\n      revert\n        /* \"#utility.yul\":4102:4263   */\n    tag_265:\n      pop\n        /* \"#utility.yul\":3889:4269   */\n      swap2\n      swap1\n      pop\n      jump\t// out\n        /* \"#utility.yul\":4274:4540   */\n    tag_225:\n        /* \"#utility.yul\":4362:4368   */\n      dup2\n        /* \"#utility.yul\":4357:4360   */\n      dup4\n        /* \"#utility.yul\":4350:4369   */\n      mstore\n        /* \"#utility.yul\":4414:4420   */\n      dup2\n        /* \"#utility.yul\":4407:4412   */\n      dup2\n        /* \"#utility.yul\":4400:4404   */\n      0x20\n        /* \"#utility.yul\":4395:4398   */\n      dup6\n        /* \"#utility.yul\":4391:4405   */\n      add\n        /* \"#utility.yul\":4378:4421   */\n      calldatacopy\n      pop\n        /* \"#utility.yul\":4466:4467   */\n      0x00\n        /* \"#utility.yul\":4441:4457   */\n      dup3\n      dup3\n      add\n        /* \"#utility.yul\":4459:4463   */\n      0x20\n        /* \"#utility.yul\":4437:4464   */\n      swap1\n      dup2\n      add\n        /* \"#utility.yul\":4430:4468   */\n      swap2\n      swap1\n      swap2\n      mstore\n        /* \"#utility.yul\":4522:4524   */\n      0x1f\n        /* \"#utility.yul\":4501:4516   */\n      swap1\n      swap2\n      add\n      not(0x1f)\n        /* \"#utility.yul\":4497:4526   */\n      and\n        /* \"#utility.yul\":4488:4527   */\n      swap1\n      swap2\n      add\n        /* \"#utility.yul\":4484:4534   */\n      add\n      swap1\n        /* \"#utility.yul\":4274:4540   */\n      jump\t// out\n        /* \"#utility.yul\":4545:5136   */\n    tag_44:\n        /* \"#utility.yul\":4804:4806   */\n      0x60\n        /* \"#utility.yul\":4793:4802   */\n      dup2\n        /* \"#utility.yul\":4786:4807   */\n      mstore\n        /* \"#utility.yul\":4767:4771   */\n      0x00\n        /* \"#utility.yul\":4830:4874   */\n      tag_268\n        /* \"#utility.yul\":4870:4872   */\n      0x60\n        /* \"#utility.yul\":4859:4868   */\n      dup4\n        /* \"#utility.yul\":4855:4873   */\n      add\n        /* \"#utility.yul\":4847:4853   */\n      dup9\n        /* \"#utility.yul\":4830:4874   */\n      tag_222\n      jump\t// in\n    tag_268:\n        /* \"#utility.yul\":4922:4931   */\n      dup3\n        /* \"#utility.yul\":4914:4920   */\n      dup2\n        /* \"#utility.yul\":4910:4932   */\n      sub\n        /* \"#utility.yul\":4905:4907   */\n      0x20\n        /* \"#utility.yul\":4894:4903   */\n      dup5\n        /* \"#utility.yul\":4890:4908   */\n      add\n        /* \"#utility.yul\":4883:4933   */\n      mstore\n        /* \"#utility.yul\":4956:5005   */\n      tag_269\n        /* \"#utility.yul\":4998:5004   */\n      dup2\n        /* \"#utility.yul\":4990:4996   */\n      dup8\n        /* \"#utility.yul\":4982:4988   */\n      dup10\n        /* \"#utility.yul\":4956:5005   */\n      tag_225\n      jump\t// in\n    tag_269:\n        /* \"#utility.yul\":4942:5005   */\n      swap1\n      pop\n        /* \"#utility.yul\":5053:5062   */\n      dup3\n        /* \"#utility.yul\":5045:5051   */\n      dup2\n        /* \"#utility.yul\":5041:5063   */\n      sub\n        /* \"#utility.yul\":5036:5038   */\n      0x40\n        /* \"#utility.yul\":5025:5034   */\n      dup5\n        /* \"#utility.yul\":5021:5039   */\n      add\n        /* \"#utility.yul\":5014:5064   */\n      mstore\n        /* \"#utility.yul\":5081:5130   */\n      tag_110\n        /* \"#utility.yul\":5123:5129   */\n      dup2\n        /* \"#utility.yul\":5115:5121   */\n      dup6\n        /* \"#utility.yul\":5107:5113   */\n      dup8\n        /* \"#utility.yul\":5081:5130   */\n      tag_225\n      jump\t// in\n        /* \"#utility.yul\":5141:5418   */\n    tag_48:\n        /* \"#utility.yul\":5208:5214   */\n      0x00\n        /* \"#utility.yul\":5261:5263   */\n      0x20\n        /* \"#utility.yul\":5249:5258   */\n      dup3\n        /* \"#utility.yul\":5240:5247   */\n      dup5\n        /* \"#utility.yul\":5236:5259   */\n      sub\n        /* \"#utility.yul\":5232:5264   */\n      slt\n        /* \"#utility.yul\":5229:5281   */\n      iszero\n      tag_272\n      jumpi\n        /* \"#utility.yul\":5277:5278   */\n      0x00\n        /* \"#utility.yul\":5274:5275   */\n      dup1\n        /* \"#utility.yul\":5267:5279   */\n      revert\n        /* \"#utility.yul\":5229:5281   */\n    tag_272:\n        /* \"#utility.yul\":5309:5318   */\n      dup2\n        /* \"#utility.yul\":5303:5319   */\n      mload\n        /* \"#utility.yul\":5362:5367   */\n      dup1\n        /* \"#utility.yul\":5355:5368   */\n      iszero\n        /* \"#utility.yul\":5348:5369   */\n      iszero\n        /* \"#utility.yul\":5341:5346   */\n      dup2\n        /* \"#utility.yul\":5338:5370   */\n      eq\n        /* \"#utility.yul\":5328:5388   */\n      tag_130\n      jumpi\n        /* \"#utility.yul\":5384:5385   */\n      0x00\n        /* \"#utility.yul\":5381:5382   */\n      dup1\n        /* \"#utility.yul\":5374:5386   */\n      revert\n        /* \"#utility.yul\":5423:5550   */\n    tag_63:\n        /* \"#utility.yul\":5484:5494   */\n      0x4e487b71\n        /* \"#utility.yul\":5479:5482   */\n      0xe0\n        /* \"#utility.yul\":5475:5495   */\n      shl\n        /* \"#utility.yul\":5472:5473   */\n      0x00\n        /* \"#utility.yul\":5465:5496   */\n      mstore\n        /* \"#utility.yul\":5515:5519   */\n      0x32\n        /* \"#utility.yul\":5512:5513   */\n      0x04\n        /* \"#utility.yul\":5505:5520   */\n      mstore\n        /* \"#utility.yul\":5539:5543   */\n      0x24\n        /* \"#utility.yul\":5536:5537   */\n      0x00\n        /* \"#utility.yul\":5529:5544   */\n      revert\n        /* \"#utility.yul\":5555:6092   */\n    tag_76:\n        /* \"#utility.yul\":5794:5796   */\n      0x60\n        /* \"#utility.yul\":5783:5792   */\n      dup2\n        /* \"#utility.yul\":5776:5797   */\n      mstore\n        /* \"#utility.yul\":5757:5761   */\n      0x00\n        /* \"#utility.yul\":5820:5864   */\n      tag_276\n        /* \"#utility.yul\":5860:5862   */\n      0x60\n        /* \"#utility.yul\":5849:5858   */\n      dup4\n        /* \"#utility.yul\":5845:5863   */\n      add\n        /* \"#utility.yul\":5837:5843   */\n      dup7\n        /* \"#utility.yul\":5820:5864   */\n      tag_222\n      jump\t// in\n    tag_276:\n        /* \"#utility.yul\":5912:5921   */\n      dup3\n        /* \"#utility.yul\":5904:5910   */\n      dup2\n        /* \"#utility.yul\":5900:5922   */\n      sub\n        /* \"#utility.yul\":5895:5897   */\n      0x20\n        /* \"#utility.yul\":5884:5893   */\n      dup5\n        /* \"#utility.yul\":5880:5898   */\n      add\n        /* \"#utility.yul\":5873:5923   */\n      mstore\n        /* \"#utility.yul\":5946:5978   */\n      tag_277\n        /* \"#utility.yul\":5971:5977   */\n      dup2\n        /* \"#utility.yul\":5963:5969   */\n      dup7\n        /* \"#utility.yul\":5946:5978   */\n      tag_222\n      jump\t// in\n    tag_277:\n        /* \"#utility.yul\":5932:5978   */\n      swap1\n      pop\n        /* \"#utility.yul\":6026:6035   */\n      dup3\n        /* \"#utility.yul\":6018:6024   */\n      dup2\n        /* \"#utility.yul\":6014:6036   */\n      sub\n        /* \"#utility.yul\":6009:6011   */\n      0x40\n        /* \"#utility.yul\":5998:6007   */\n      dup5\n        /* \"#utility.yul\":5994:6012   */\n      add\n        /* \"#utility.yul\":5987:6037   */\n      mstore\n        /* \"#utility.yul\":6054:6086   */\n      tag_36\n        /* \"#utility.yul\":6079:6085   */\n      dup2\n        /* \"#utility.yul\":6071:6077   */\n      dup6\n        /* \"#utility.yul\":6054:6086   */\n      tag_222\n      jump\t// in\n        /* \"#utility.yul\":6739:6923   */\n    tag_95:\n        /* \"#utility.yul\":6809:6815   */\n      0x00\n        /* \"#utility.yul\":6862:6864   */\n      0x20\n        /* \"#utility.yul\":6850:6859   */\n      dup3\n        /* \"#utility.yul\":6841:6848   */\n      dup5\n        /* \"#utility.yul\":6837:6860   */\n      sub\n        /* \"#utility.yul\":6833:6865   */\n      slt\n        /* \"#utility.yul\":6830:6882   */\n      iszero\n      tag_283\n      jumpi\n        /* \"#utility.yul\":6878:6879   */\n      0x00\n        /* \"#utility.yul\":6875:6876   */\n      dup1\n        /* \"#utility.yul\":6868:6880   */\n      revert\n        /* \"#utility.yul\":6830:6882   */\n    tag_283:\n      pop\n        /* \"#utility.yul\":6901:6917   */\n      mload\n      swap2\n        /* \"#utility.yul\":6739:6923   */\n      swap1\n      pop\n      jump\t// out\n        /* \"#utility.yul\":8156:8283   */\n    tag_226:\n        /* \"#utility.yul\":8217:8227   */\n      0x4e487b71\n        /* \"#utility.yul\":8212:8215   */\n      0xe0\n        /* \"#utility.yul\":8208:8228   */\n      shl\n        /* \"#utility.yul\":8205:8206   */\n      0x00\n        /* \"#utility.yul\":8198:8229   */\n      mstore\n        /* \"#utility.yul\":8248:8252   */\n      0x11\n        /* \"#utility.yul\":8245:8246   */\n      0x04\n        /* \"#utility.yul\":8238:8253   */\n      mstore\n        /* \"#utility.yul\":8272:8276   */\n      0x24\n        /* \"#utility.yul\":8269:8270   */\n      0x00\n        /* \"#utility.yul\":8262:8277   */\n      revert\n        /* \"#utility.yul\":8288:8416   */\n    tag_139:\n        /* \"#utility.yul\":8328:8331   */\n      0x00\n        /* \"#utility.yul\":8359:8360   */\n      dup3\n        /* \"#utility.yul\":8355:8361   */\n      not\n        /* \"#utility.yul\":8352:8353   */\n      dup3\n        /* \"#utility.yul\":8349:8362   */\n      gt\n        /* \"#utility.yul\":8346:8385   */\n      iszero\n      tag_290\n      jumpi\n        /* \"#utility.yul\":8365:8383   */\n      tag_290\n      tag_226\n      jump\t// in\n    tag_290:\n      pop\n        /* \"#utility.yul\":8401:8410   */\n      add\n      swap1\n        /* \"#utility.yul\":8288:8416   */\n      jump\t// out\n        /* \"#utility.yul\":8421:8546   */\n    tag_147:\n        /* \"#utility.yul\":8461:8465   */\n      0x00\n        /* \"#utility.yul\":8489:8490   */\n      dup3\n        /* \"#utility.yul\":8486:8487   */\n      dup3\n        /* \"#utility.yul\":8483:8491   */\n      lt\n        /* \"#utility.yul\":8480:8514   */\n      iszero\n      tag_293\n      jumpi\n        /* \"#utility.yul\":8494:8512   */\n      tag_293\n      tag_226\n      jump\t// in\n    tag_293:\n      pop\n        /* \"#utility.yul\":8531:8540   */\n      sub\n      swap1\n        /* \"#utility.yul\":8421:8546   */\n      jump\t// out\n        /* \"#utility.yul\":8551:8746   */\n    tag_186:\n        /* \"#utility.yul\":8589:8593   */\n      0x00\n        /* \"#utility.yul\":8626:8630   */\n      0xff\n        /* \"#utility.yul\":8623:8624   */\n      dup3\n        /* \"#utility.yul\":8619:8631   */\n      and\n        /* \"#utility.yul\":8658:8662   */\n      0xff\n        /* \"#utility.yul\":8655:8656   */\n      dup5\n        /* \"#utility.yul\":8651:8663   */\n      and\n        /* \"#utility.yul\":8683:8686   */\n      dup1\n        /* \"#utility.yul\":8678:8681   */\n      dup3\n        /* \"#utility.yul\":8675:8687   */\n      lt\n        /* \"#utility.yul\":8672:8710   */\n      iszero\n      tag_296\n      jumpi\n        /* \"#utility.yul\":8690:8708   */\n      tag_296\n      tag_226\n      jump\t// in\n    tag_296:\n        /* \"#utility.yul\":8727:8740   */\n      swap1\n      sub\n      swap4\n        /* \"#utility.yul\":8551:8746   */\n      swap3\n      pop\n      pop\n      pop\n      jump\t// out\n        /* \"#utility.yul\":8751:8989   */\n    tag_188:\n        /* \"#utility.yul\":8789:8796   */\n      0x00\n        /* \"#utility.yul\":8829:8833   */\n      0xff\n        /* \"#utility.yul\":8826:8827   */\n      dup3\n        /* \"#utility.yul\":8822:8834   */\n      and\n        /* \"#utility.yul\":8861:8865   */\n      0xff\n        /* \"#utility.yul\":8858:8859   */\n      dup5\n        /* \"#utility.yul\":8854:8866   */\n      and\n        /* \"#utility.yul\":8921:8924   */\n      dup2\n        /* \"#utility.yul\":8915:8919   */\n      0xff\n        /* \"#utility.yul\":8911:8925   */\n      div\n        /* \"#utility.yul\":8906:8909   */\n      dup2\n        /* \"#utility.yul\":8903:8926   */\n      gt\n        /* \"#utility.yul\":8896:8899   */\n      dup3\n        /* \"#utility.yul\":8889:8900   */\n      iszero\n        /* \"#utility.yul\":8882:8901   */\n      iszero\n        /* \"#utility.yul\":8878:8927   */\n      and\n        /* \"#utility.yul\":8875:8950   */\n      iszero\n      tag_299\n      jumpi\n        /* \"#utility.yul\":8930:8948   */\n      tag_299\n      tag_226\n      jump\t// in\n    tag_299:\n        /* \"#utility.yul\":8970:8983   */\n      mul\n      swap4\n        /* \"#utility.yul\":8751:8989   */\n      swap3\n      pop\n      pop\n      pop\n      jump\t// out\n\n    auxdata: 0xa2646970667358221220015b79016f2a09fbe5723bab693a74231d86a6221ef87a200c822b0ae7b2088f64736f6c634300080f0033\n}\n",
				"bytecode": {
					"linkReferences": {
						"src/utils/DateTime.sol": {
							"DateTime": [
								{
									"length": 20,
									"start": 2095
								},
								{
									"length": 20,
									"start": 2352
								}
							]
						}
					},
					"object": "60806040527f22697376456e636c61766551756f7465537461747573223a224f4b22000000006000553480156200003557600080fd5b506040516200132f3803806200132f83398101604081905262000058916200016c565b600162000066848262000288565b50600262000075838262000288565b50600380546001600160a01b0319166001600160a01b039290921691909117905550620003549050565b634e487b7160e01b600052604160045260246000fd5b600082601f830112620000c757600080fd5b81516001600160401b0380821115620000e457620000e46200009f565b604051601f8301601f19908116603f011681019082821181831017156200010f576200010f6200009f565b816040528381526020925086838588010111156200012c57600080fd5b600091505b8382101562000150578582018301518183018401529082019062000131565b83821115620001625760008385830101525b9695505050505050565b6000806000606084860312156200018257600080fd5b83516001600160401b03808211156200019a57600080fd5b620001a887838801620000b5565b94506020860151915080821115620001bf57600080fd5b50620001ce86828701620000b5565b604086015190935090506001600160a01b0381168114620001ee57600080fd5b809150509250925092565b600181811c908216806200020e57607f821691505b6020821081036200022f57634e487b7160e01b600052602260045260246000fd5b50919050565b601f8211156200028357600081815260208120601f850160051c810160208610156200025e5750805b601f850160051c820191505b818110156200027f578281556001016200026a565b5050505b505050565b81516001600160401b03811115620002a457620002a46200009f565b620002bc81620002b58454620001f9565b8462000235565b602080601f831160018114620002f45760008415620002db5750858301515b600019600386901b1c1916600185901b1785556200027f565b600085815260208120601f198616915b82811015620003255788860151825594840194600190910190840162000304565b5085821015620003445787850151600019600388901b60f8161c191681555b5050505050600190811b01905550565b610fcb80620003646000396000f3fe608060405234801561001057600080fd5b50600436106100575760003560e01c80633553d6ee1461005c5780633e1c075a1461007a578063462b26531461009d578063721d9bc4146100c85780637221e6fc146100db575b600080fd5b6100646100e3565b6040516100719190610bdf565b60405180910390f35b61008d610088366004610c3b565b610171565b6040519015158152602001610071565b6003546100b0906001600160a01b031681565b6040516001600160a01b039091168152602001610071565b6100646100d6366004610d78565b6102f9565b6100646106e2565b600180546100f090610ddc565b80601f016020809104026020016040519081016040528092919081815260200182805461011c90610ddc565b80156101695780601f1061013e57610100808354040283529160200191610169565b820191906000526020600020905b81548152906001019060200180831161014c57829003601f168201915b505050505081565b60008061023f88888080601f01602080910402602001604051908101604052809392919081815260200183838082843760009201919091525050600180549092506101bc9150610ddc565b80601f01602080910402602001604051908101604052809291908181526020018280546101e890610ddc565b80156102355780601f1061020a57610100808354040283529160200191610235565b820191906000526020600020905b81548152906001019060200180831161021857829003601f168201915b50505050506102f9565b60035460405163de8f50a160e01b81529192506001600160a01b03169063de8f50a1906102789084908a908a908a908a90600401610e3f565b602060405180830381865afa158015610295573d6000803e3d6000fd5b505050506040513d601f19601f820116820180604052508101906102b99190610e7a565b15156000036102cc5760009150506102ef565b6102d686866106ef565b15156000036102e95760009150506102ef565b60019150505b9695505050505050565b6060600080600061030986610759565b92506103158684610766565b92506103218684610766565b9150856001600160501b0383168151811061033e5761033e610e9c565b01602001516001600160f81b031916600560fd1b0361036457610361868361080b565b91505b61036e868361080b565b915061037a8683610766565b9150610386868461080b565b9050610392868261080b565b6003549091506001600160a01b031663de8f50a1866103b18987610829565b6103bb8a86610864565b6040518463ffffffff1660e01b81526004016103d993929190610eb2565b602060405180830381865afa1580156103f6573d6000803e3d6000fd5b505050506040513d601f19601f8201168201806040525081019061041a9190610e7a565b61047f5760405162461bcd60e51b815260206004820152602b60248201527f4174746573746174696f6e56657269666965723a205369676e6174757265206460448201526a0decae6dce840dac2e8c6d60ab1b60648201526084015b60405180910390fd5b6104898684610766565b9250610495868461080b565b92506104a1868461080b565b92506104ad868461080b565b92506104b9868461080b565b92506104c58684610766565b9150600073__$3121b8144e26f5a8fcc440b7b32d4f2d0e$__63095385c66104ed8986610864565b6040518263ffffffff1660e01b81526004016105099190610bdf565b602060405180830381865af4158015610526573d6000803e3d6000fd5b505050506040513d601f19601f8201168201806040525081019061054a9190610eeb565b9050428164ffffffffff1611156105bc5760405162461bcd60e51b815260206004820152603060248201527f4174746573746174696f6e5665726966793a204365727469666963617465206960448201526f39903737ba103cb2ba103b30b634b21760811b6064820152608401610476565b6105c6878461080b565b9250600073__$3121b8144e26f5a8fcc440b7b32d4f2d0e$__63095385c66105ee8a87610864565b6040518263ffffffff1660e01b815260040161060a9190610bdf565b602060405180830381865af4158015610627573d6000803e3d6000fd5b505050506040513d601f19601f8201168201806040525081019061064b9190610eeb565b9050428164ffffffffff1610156106b45760405162461bcd60e51b815260206004820152602760248201527f4174746573746174696f6e5665726966793a20436572746966696361746520656044820152663c3834b932b21760c91b6064820152608401610476565b6106be888661080b565b94506106ca888661080b565b94506106d68886610829565b98975050505050505050565b600280546100f090610ddc565b6000608082101561070257506000610753565b600061074b6065601c86868080601f01602080910402602001604051908101604052809392919081815260200183838082843760009201919091525092949392505061087d9050565b600054149150505b92915050565b60006107538260006108be565b6000826001600160501b0383168151811061078357610783610e9c565b0160200151600160fd1b908116146107e85760405162461bcd60e51b815260206004820152602260248201527f41736e316465636f64653a204e6f74206120636f6e7374727563746564207479604482015261706560f01b6064820152608401610476565b61080483605084901c6001600160501b03166108be565b6108be565b9392505050565b6000610804836107ff6001600160501b0360a086901c166001610f1a565b60606108046001600160501b038316805b6108526001600160501b0360a087901c166001610f1a565b61085c9190610f32565b859190610a6e565b60606108046001600160501b03605084901c168061083a565b6000602082111561088d57600080fd5b83516108998385610f1a565b11156108a457600080fd5b506020919092018101519190036101000a60001901191690565b6000808080856108cf866001610f1a565b815181106108df576108df610e9c565b0160200151600160ff1b1660000361094a57856108fd866001610f1a565b8151811061090d5761090d610e9c565b016020015160f81c9250610922856002610f1a565b91506001610939846001600160501b038516610f1a565b6109439190610f32565b9050610a3e565b600086610958876001610f1a565b8151811061096857610968610e9c565b60209101015160f81c607f169050600181900361099e5761099461098d876002610f1a565b8890610af0565b60ff169350610a00565b8060ff166002036109c9576109be6109b7876002610f1a565b8890610b14565b61ffff169350610a00565b6109d4816020610f49565b6109df906008610f6c565b60ff166109fb6109f0886002610f1a565b899060ff851661087d565b901c93505b60ff8116610a0f876002610f1a565b610a199190610f1a565b92506001610a30856001600160501b038616610f1a565b610a3a9190610f32565b9150505b69ffffffffffffffffffff60a01b60a082901b1669ffffffffffffffffffff60501b605084901b168617176102ef565b8251606090610a7d8385610f1a565b1115610a8857600080fd5b60008267ffffffffffffffff811115610aa357610aa3610cd5565b6040519080825280601f01601f191660200182016040528015610acd576020820181803683370190505b50905060208082019086860101610ae5828287610b3c565b509095945050505050565b6000828281518110610b0457610b04610e9c565b016020015160f81c905092915050565b8151600090610b24836002610f1a565b1115610b2f57600080fd5b50016002015161ffff1690565b60208110610b745781518352610b53602084610f1a565b9250610b60602083610f1a565b9150610b6d602082610f32565b9050610b3c565b905182516020929092036101000a6000190180199091169116179052565b6000815180845260005b81811015610bb857602081850181015186830182015201610b9c565b81811115610bca576000602083870101525b50601f01601f19169290920160200192915050565b6020815260006108046020830184610b92565b60008083601f840112610c0457600080fd5b50813567ffffffffffffffff811115610c1c57600080fd5b602083019150836020828501011115610c3457600080fd5b9250929050565b60008060008060008060608789031215610c5457600080fd5b863567ffffffffffffffff80821115610c6c57600080fd5b610c788a838b01610bf2565b90985096506020890135915080821115610c9157600080fd5b610c9d8a838b01610bf2565b90965094506040890135915080821115610cb657600080fd5b50610cc389828a01610bf2565b979a9699509497509295939492505050565b634e487b7160e01b600052604160045260246000fd5b600082601f830112610cfc57600080fd5b813567ffffffffffffffff80821115610d1757610d17610cd5565b604051601f8301601f19908116603f01168101908282118183101715610d3f57610d3f610cd5565b81604052838152866020858801011115610d5857600080fd5b836020870160208301376000602085830101528094505050505092915050565b60008060408385031215610d8b57600080fd5b823567ffffffffffffffff80821115610da357600080fd5b610daf86838701610ceb565b93506020850135915080821115610dc557600080fd5b50610dd285828601610ceb565b9150509250929050565b600181811c90821680610df057607f821691505b602082108103610e1057634e487b7160e01b600052602260045260246000fd5b50919050565b81835281816020850137506000828201602090810191909152601f909101601f19169091010190565b606081526000610e526060830188610b92565b8281036020840152610e65818789610e16565b905082810360408401526106d6818587610e16565b600060208284031215610e8c57600080fd5b8151801515811461080457600080fd5b634e487b7160e01b600052603260045260246000fd5b606081526000610ec56060830186610b92565b8281036020840152610ed78186610b92565b905082810360408401526102ef8185610b92565b600060208284031215610efd57600080fd5b5051919050565b634e487b7160e01b600052601160045260246000fd5b60008219821115610f2d57610f2d610f04565b500190565b600082821015610f4457610f44610f04565b500390565b600060ff821660ff841680821015610f6357610f63610f04565b90039392505050565b600060ff821660ff84168160ff0481118215151615610f8d57610f8d610f04565b02939250505056fea2646970667358221220015b79016f2a09fbe5723bab693a74231d86a6221ef87a200c822b0ae7b2088f64736f6c634300080f0033",
					"opcodes": "PUSH1 0x80 PUSH1 0x40 MSTORE PUSH32 0x22697376456E636C61766551756F7465537461747573223A224F4B2200000000 PUSH1 0x0 SSTORE CALLVALUE DUP1 ISZERO PUSH3 0x35 JUMPI PUSH1 0x0 DUP1 REVERT JUMPDEST POP PUSH1 0x40 MLOAD PUSH3 0x132F CODESIZE SUB DUP1 PUSH3 0x132F DUP4 CODECOPY DUP2 ADD PUSH1 0x40 DUP2 SWAP1 MSTORE PUSH3 0x58 SWAP2 PUSH3 0x16C JUMP JUMPDEST PUSH1 0x1 PUSH3 0x66 DUP5 DUP3 PUSH3 0x288 JUMP JUMPDEST POP PUSH1 0x2 PUSH3 0x75 DUP4 DUP3 PUSH3 0x288 JUMP JUMPDEST POP PUSH1 0x3 DUP1 SLOAD PUSH1 0x1 PUSH1 0x1 PUSH1 0xA0 SHL SUB NOT AND PUSH1 0x1 PUSH1 0x1 PUSH1 0xA0 SHL SUB SWAP3 SWAP1 SWAP3 AND SWAP2 SWAP1 SWAP2 OR SWAP1 SSTORE POP PUSH3 0x354 SWAP1 POP JUMP JUMPDEST PUSH4 0x4E487B71 PUSH1 0xE0 SHL PUSH1 0x0 MSTORE PUSH1 0x41 PUSH1 0x4 MSTORE PUSH1 0x24 PUSH1 0x0 REVERT JUMPDEST PUSH1 0x0 DUP3 PUSH1 0x1F DUP4 ADD SLT PUSH3 0xC7 JUMPI PUSH1 0x0 DUP1 REVERT JUMPDEST DUP2 MLOAD PUSH1 0x1 PUSH1 0x1 PUSH1 0x40 SHL SUB DUP1 DUP3 GT ISZERO PUSH3 0xE4 JUMPI PUSH3 0xE4 PUSH3 0x9F JUMP JUMPDEST PUSH1 0x40 MLOAD PUSH1 0x1F DUP4 ADD PUSH1 0x1F NOT SWAP1 DUP2 AND PUSH1 0x3F ADD AND DUP2 ADD SWAP1 DUP3 DUP3 GT DUP2 DUP4 LT OR ISZERO PUSH3 0x10F JUMPI PUSH3 0x10F PUSH3 0x9F JUMP JUMPDEST DUP2 PUSH1 0x40 MSTORE DUP4 DUP2 MSTORE PUSH1 0x20 SWAP3 POP DUP7 DUP4 DUP6 DUP9 ADD ADD GT ISZERO PUSH3 0x12C JUMPI PUSH1 0x0 DUP1 REVERT JUMPDEST PUSH1 0x0 SWAP2 POP JUMPDEST DUP4 DUP3 LT ISZERO PUSH3 0x150 JUMPI DUP6 DUP3 ADD DUP4 ADD MLOAD DUP2 DUP4 ADD DUP5 ADD MSTORE SWAP1 DUP3 ADD SWAP1 PUSH3 0x131 JUMP JUMPDEST DUP4 DUP3 GT ISZERO PUSH3 0x162 JUMPI PUSH1 0x0 DUP4 DUP6 DUP4 ADD ADD MSTORE JUMPDEST SWAP7 SWAP6 POP POP POP POP POP POP JUMP JUMPDEST PUSH1 0x0 DUP1 PUSH1 0x0 PUSH1 0x60 DUP5 DUP7 SUB SLT ISZERO PUSH3 0x182 JUMPI PUSH1 0x0 DUP1 REVERT JUMPDEST DUP4 MLOAD PUSH1 0x1 PUSH1 0x1 PUSH1 0x40 SHL SUB DUP1 DUP3 GT ISZERO PUSH3 0x19A JUMPI PUSH1 0x0 DUP1 REVERT JUMPDEST PUSH3 0x1A8 DUP8 DUP4 DUP9 ADD PUSH3 0xB5 JUMP JUMPDEST SWAP5 POP PUSH1 0x20 DUP7 ADD MLOAD SWAP2 POP DUP1 DUP3 GT ISZERO PUSH3 0x1BF JUMPI PUSH1 0x0 DUP1 REVERT JUMPDEST POP PUSH3 0x1CE DUP7 DUP3 DUP8 ADD PUSH3 0xB5 JUMP JUMPDEST PUSH1 0x40 DUP7 ADD MLOAD SWAP1 SWAP4 POP SWAP1 POP PUSH1 0x1 PUSH1 0x1 PUSH1 0xA0 SHL SUB DUP2 AND DUP2 EQ PUSH3 0x1EE JUMPI PUSH1 0x0 DUP1 REVERT JUMPDEST DUP1 SWAP2 POP POP SWAP3 POP SWAP3 POP SWAP3 JUMP JUMPDEST PUSH1 0x1 DUP2 DUP2 SHR SWAP1 DUP3 AND DUP1 PUSH3 0x20E JUMPI PUSH1 0x7F DUP3 AND SWAP2 POP JUMPDEST PUSH1 0x20 DUP3 LT DUP2 SUB PUSH3 0x22F JUMPI PUSH4 0x4E487B71 PUSH1 0xE0 SHL PUSH1 0x0 MSTORE PUSH1 0x22 PUSH1 0x4 MSTORE PUSH1 0x24 PUSH1 0x0 REVERT JUMPDEST POP SWAP2 SWAP1 POP JUMP JUMPDEST PUSH1 0x1F DUP3 GT ISZERO PUSH3 0x283 JUMPI PUSH1 0x0 DUP2 DUP2 MSTORE PUSH1 0x20 DUP2 KECCAK256 PUSH1 0x1F DUP6 ADD PUSH1 0x5 SHR DUP2 ADD PUSH1 0x20 DUP7 LT ISZERO PUSH3 0x25E JUMPI POP DUP1 JUMPDEST PUSH1 0x1F DUP6 ADD PUSH1 0x5 SHR DUP3 ADD SWAP2 POP JUMPDEST DUP2 DUP2 LT ISZERO PUSH3 0x27F JUMPI DUP3 DUP2 SSTORE PUSH1 0x1 ADD PUSH3 0x26A JUMP JUMPDEST POP POP POP JUMPDEST POP POP POP JUMP JUMPDEST DUP2 MLOAD PUSH1 0x1 PUSH1 0x1 PUSH1 0x40 SHL SUB DUP2 GT ISZERO PUSH3 0x2A4 JUMPI PUSH3 0x2A4 PUSH3 0x9F JUMP JUMPDEST PUSH3 0x2BC DUP2 PUSH3 0x2B5 DUP5 SLOAD PUSH3 0x1F9 JUMP JUMPDEST DUP5 PUSH3 0x235 JUMP JUMPDEST PUSH1 0x20 DUP1 PUSH1 0x1F DUP4 GT PUSH1 0x1 DUP2 EQ PUSH3 0x2F4 JUMPI PUSH1 0x0 DUP5 ISZERO PUSH3 0x2DB JUMPI POP DUP6 DUP4 ADD MLOAD JUMPDEST PUSH1 0x0 NOT PUSH1 0x3 DUP7 SWAP1 SHL SHR NOT AND PUSH1 0x1 DUP6 SWAP1 SHL OR DUP6 SSTORE PUSH3 0x27F JUMP JUMPDEST PUSH1 0x0 DUP6 DUP2 MSTORE PUSH1 0x20 DUP2 KECCAK256 PUSH1 0x1F NOT DUP7 AND SWAP2 JUMPDEST DUP3 DUP2 LT ISZERO PUSH3 0x325 JUMPI DUP9 DUP7 ADD MLOAD DUP3 SSTORE SWAP5 DUP5 ADD SWAP5 PUSH1 0x1 SWAP1 SWAP2 ADD SWAP1 DUP5 ADD PUSH3 0x304 JUMP JUMPDEST POP DUP6 DUP3 LT ISZERO PUSH3 0x344 JUMPI DUP8 DUP6 ADD MLOAD PUSH1 0x0 NOT PUSH1 0x3 DUP9 SWAP1 SHL PUSH1 0xF8 AND SHR NOT AND DUP2 SSTORE JUMPDEST POP POP POP POP POP PUSH1 0x1 SWAP1 DUP2 SHL ADD SWAP1 SSTORE POP JUMP JUMPDEST PUSH2 0xFCB DUP1 PUSH3 0x364 PUSH1 0x0 CODECOPY PUSH1 0x0 RETURN INVALID PUSH1 0x80 PUSH1 0x40 MSTORE CALLVALUE DUP1 ISZERO PUSH2 0x10 JUMPI PUSH1 0x0 DUP1 REVERT JUMPDEST POP PUSH1 0x4 CALLDATASIZE LT PUSH2 0x57 JUMPI PUSH1 0x0 CALLDATALOAD PUSH1 0xE0 SHR DUP1 PUSH4 0x3553D6EE EQ PUSH2 0x5C JUMPI DUP1 PUSH4 0x3E1C075A EQ PUSH2 0x7A JUMPI DUP1 PUSH4 0x462B2653 EQ PUSH2 0x9D JUMPI DUP1 PUSH4 0x721D9BC4 EQ PUSH2 0xC8 JUMPI DUP1 PUSH4 0x7221E6FC EQ PUSH2 0xDB JUMPI JUMPDEST PUSH1 0x0 DUP1 REVERT JUMPDEST PUSH2 0x64 PUSH2 0xE3 JUMP JUMPDEST PUSH1 0x40 MLOAD PUSH2 0x71 SWAP2 SWAP1 PUSH2 0xBDF JUMP JUMPDEST PUSH1 0x40 MLOAD DUP1 SWAP2 SUB SWAP1 RETURN JUMPDEST PUSH2 0x8D PUSH2 0x88 CALLDATASIZE PUSH1 0x4 PUSH2 0xC3B JUMP JUMPDEST PUSH2 0x171 JUMP JUMPDEST PUSH1 0x40 MLOAD SWAP1 ISZERO ISZERO DUP2 MSTORE PUSH1 0x20 ADD PUSH2 0x71 JUMP JUMPDEST PUSH1 0x3 SLOAD PUSH2 0xB0 SWAP1 PUSH1 0x1 PUSH1 0x1 PUSH1 0xA0 SHL SUB AND DUP2 JUMP JUMPDEST PUSH1 0x40 MLOAD PUSH1 0x1 PUSH1 0x1 PUSH1 0xA0 SHL SUB SWAP1 SWAP2 AND DUP2 MSTORE PUSH1 0x20 ADD PUSH2 0x71 JUMP JUMPDEST PUSH2 0x64 PUSH2 0xD6 CALLDATASIZE PUSH1 0x4 PUSH2 0xD78 JUMP JUMPDEST PUSH2 0x2F9 JUMP JUMPDEST PUSH2 0x64 PUSH2 0x6E2 JUMP JUMPDEST PUSH1 0x1 DUP1 SLOAD PUSH2 0xF0 SWAP1 PUSH2 0xDDC JUMP JUMPDEST DUP1 PUSH1 0x1F ADD PUSH1 0x20 DUP1 SWAP2 DIV MUL PUSH1 0x20 ADD PUSH1 0x40 MLOAD SWAP1 DUP2 ADD PUSH1 0x40 MSTORE DUP1 SWAP3 SWAP2 SWAP1 DUP2 DUP2 MSTORE PUSH1 0x20 ADD DUP3 DUP1 SLOAD PUSH2 0x11C SWAP1 PUSH2 0xDDC JUMP JUMPDEST DUP1 ISZERO PUSH2 0x169 JUMPI DUP1 PUSH1 0x1F LT PUSH2 0x13E JUMPI PUSH2 0x100 DUP1 DUP4 SLOAD DIV MUL DUP4 MSTORE SWAP2 PUSH1 0x20 ADD SWAP2 PUSH2 0x169 JUMP JUMPDEST DUP3 ADD SWAP2 SWAP1 PUSH1 0x0 MSTORE PUSH1 0x20 PUSH1 0x0 KECCAK256 SWAP1 JUMPDEST DUP2 SLOAD DUP2 MSTORE SWAP1 PUSH1 0x1 ADD SWAP1 PUSH1 0x20 ADD DUP1 DUP4 GT PUSH2 0x14C JUMPI DUP3 SWAP1 SUB PUSH1 0x1F AND DUP3 ADD SWAP2 JUMPDEST POP POP POP POP POP DUP2 JUMP JUMPDEST PUSH1 0x0 DUP1 PUSH2 0x23F DUP9 DUP9 DUP1 DUP1 PUSH1 0x1F ADD PUSH1 0x20 DUP1 SWAP2 DIV MUL PUSH1 0x20 ADD PUSH1 0x40 MLOAD SWAP1 DUP2 ADD PUSH1 0x40 MSTORE DUP1 SWAP4 SWAP3 SWAP2 SWAP1 DUP2 DUP2 MSTORE PUSH1 0x20 ADD DUP4 DUP4 DUP1 DUP3 DUP5 CALLDATACOPY PUSH1 0x0 SWAP3 ADD SWAP2 SWAP1 SWAP2 MSTORE POP POP PUSH1 0x1 DUP1 SLOAD SWAP1 SWAP3 POP PUSH2 0x1BC SWAP2 POP PUSH2 0xDDC JUMP JUMPDEST DUP1 PUSH1 0x1F ADD PUSH1 0x20 DUP1 SWAP2 DIV MUL PUSH1 0x20 ADD PUSH1 0x40 MLOAD SWAP1 DUP2 ADD PUSH1 0x40 MSTORE DUP1 SWAP3 SWAP2 SWAP1 DUP2 DUP2 MSTORE PUSH1 0x20 ADD DUP3 DUP1 SLOAD PUSH2 0x1E8 SWAP1 PUSH2 0xDDC JUMP JUMPDEST DUP1 ISZERO PUSH2 0x235 JUMPI DUP1 PUSH1 0x1F LT PUSH2 0x20A JUMPI PUSH2 0x100 DUP1 DUP4 SLOAD DIV MUL DUP4 MSTORE SWAP2 PUSH1 0x20 ADD SWAP2 PUSH2 0x235 JUMP JUMPDEST DUP3 ADD SWAP2 SWAP1 PUSH1 0x0 MSTORE PUSH1 0x20 PUSH1 0x0 KECCAK256 SWAP1 JUMPDEST DUP2 SLOAD DUP2 MSTORE SWAP1 PUSH1 0x1 ADD SWAP1 PUSH1 0x20 ADD DUP1 DUP4 GT PUSH2 0x218 JUMPI DUP3 SWAP1 SUB PUSH1 0x1F AND DUP3 ADD SWAP2 JUMPDEST POP POP POP POP POP PUSH2 0x2F9 JUMP JUMPDEST PUSH1 0x3 SLOAD PUSH1 0x40 MLOAD PUSH4 0xDE8F50A1 PUSH1 0xE0 SHL DUP2 MSTORE SWAP2 SWAP3 POP PUSH1 0x1 PUSH1 0x1 PUSH1 0xA0 SHL SUB AND SWAP1 PUSH4 0xDE8F50A1 SWAP1 PUSH2 0x278 SWAP1 DUP5 SWAP1 DUP11 SWAP1 DUP11 SWAP1 DUP11 SWAP1 DUP11 SWAP1 PUSH1 0x4 ADD PUSH2 0xE3F JUMP JUMPDEST PUSH1 0x20 PUSH1 0x40 MLOAD DUP1 DUP4 SUB DUP2 DUP7 GAS STATICCALL ISZERO DUP1 ISZERO PUSH2 0x295 JUMPI RETURNDATASIZE PUSH1 0x0 DUP1 RETURNDATACOPY RETURNDATASIZE PUSH1 0x0 REVERT JUMPDEST POP POP POP POP PUSH1 0x40 MLOAD RETURNDATASIZE PUSH1 0x1F NOT PUSH1 0x1F DUP3 ADD AND DUP3 ADD DUP1 PUSH1 0x40 MSTORE POP DUP2 ADD SWAP1 PUSH2 0x2B9 SWAP2 SWAP1 PUSH2 0xE7A JUMP JUMPDEST ISZERO ISZERO PUSH1 0x0 SUB PUSH2 0x2CC JUMPI PUSH1 0x0 SWAP2 POP POP PUSH2 0x2EF JUMP JUMPDEST PUSH2 0x2D6 DUP7 DUP7 PUSH2 0x6EF JUMP JUMPDEST ISZERO ISZERO PUSH1 0x0 SUB PUSH2 0x2E9 JUMPI PUSH1 0x0 SWAP2 POP POP PUSH2 0x2EF JUMP JUMPDEST PUSH1 0x1 SWAP2 POP POP JUMPDEST SWAP7 SWAP6 POP POP POP POP POP POP JUMP JUMPDEST PUSH1 0x60 PUSH1 0x0 DUP1 PUSH1 0x0 PUSH2 0x309 DUP7 PUSH2 0x759 JUMP JUMPDEST SWAP3 POP PUSH2 0x315 DUP7 DUP5 PUSH2 0x766 JUMP JUMPDEST SWAP3 POP PUSH2 0x321 DUP7 DUP5 PUSH2 0x766 JUMP JUMPDEST SWAP2 POP DUP6 PUSH1 0x1 PUSH1 0x1 PUSH1 0x50 SHL SUB DUP4 AND DUP2 MLOAD DUP2 LT PUSH2 0x33E JUMPI PUSH2 0x33E PUSH2 0xE9C JUMP JUMPDEST ADD PUSH1 0x20 ADD MLOAD PUSH1 0x1 PUSH1 0x1 PUSH1 0xF8 SHL SUB NOT AND PUSH1 0x5 PUSH1 0xFD SHL SUB PUSH2 0x364 JUMPI PUSH2 0x361 DUP7 DUP4 PUSH2 0x80B JUMP JUMPDEST SWAP2 POP JUMPDEST PUSH2 0x36E DUP7 DUP4 PUSH2 0x80B JUMP JUMPDEST SWAP2 POP PUSH2 0x37A DUP7 DUP4 PUSH2 0x766 JUMP JUMPDEST SWAP2 POP PUSH2 0x386 DUP7 DUP5 PUSH2 0x80B JUMP JUMPDEST SWAP1 POP PUSH2 0x392 DUP7 DUP3 PUSH2 0x80B JUMP JUMPDEST PUSH1 0x3 SLOAD SWAP1 SWAP2 POP PUSH1 0x1 PUSH1 0x1 PUSH1 0xA0 SHL SUB AND PUSH4 0xDE8F50A1 DUP7 PUSH2 0x3B1 DUP10 DUP8 PUSH2 0x829 JUMP JUMPDEST PUSH2 0x3BB DUP11 DUP7 PUSH2 0x864 JUMP JUMPDEST PUSH1 0x40 MLOAD DUP5 PUSH4 0xFFFFFFFF AND PUSH1 0xE0 SHL DUP2 MSTORE PUSH1 0x4 ADD PUSH2 0x3D9 SWAP4 SWAP3 SWAP2 SWAP1 PUSH2 0xEB2 JUMP JUMPDEST PUSH1 0x20 PUSH1 0x40 MLOAD DUP1 DUP4 SUB DUP2 DUP7 GAS STATICCALL ISZERO DUP1 ISZERO PUSH2 0x3F6 JUMPI RETURNDATASIZE PUSH1 0x0 DUP1 RETURNDATACOPY RETURNDATASIZE PUSH1 0x0 REVERT JUMPDEST POP POP POP POP PUSH1 0x40 MLOAD RETURNDATASIZE PUSH1 0x1F NOT PUSH1 0x1F DUP3 ADD AND DUP3 ADD DUP1 PUSH1 0x40 MSTORE POP DUP2 ADD SWAP1 PUSH2 0x41A SWAP2 SWAP1 PUSH2 0xE7A JUMP JUMPDEST PUSH2 0x47F JUMPI PUSH1 0x40 MLOAD PUSH3 0x461BCD PUSH1 0xE5 SHL DUP2 MSTORE PUSH1 0x20 PUSH1 0x4 DUP3 ADD MSTORE PUSH1 0x2B PUSH1 0x24 DUP3 ADD MSTORE PUSH32 0x4174746573746174696F6E56657269666965723A205369676E61747572652064 PUSH1 0x44 DUP3 ADD MSTORE PUSH11 0xDECAE6DCE840DAC2E8C6D PUSH1 0xAB SHL PUSH1 0x64 DUP3 ADD MSTORE PUSH1 0x84 ADD JUMPDEST PUSH1 0x40 MLOAD DUP1 SWAP2 SUB SWAP1 REVERT JUMPDEST PUSH2 0x489 DUP7 DUP5 PUSH2 0x766 JUMP JUMPDEST SWAP3 POP PUSH2 0x495 DUP7 DUP5 PUSH2 0x80B JUMP JUMPDEST SWAP3 POP PUSH2 0x4A1 DUP7 DUP5 PUSH2 0x80B JUMP JUMPDEST SWAP3 POP PUSH2 0x4AD DUP7 DUP5 PUSH2 0x80B JUMP JUMPDEST SWAP3 POP PUSH2 0x4B9 DUP7 DUP5 PUSH2 0x80B JUMP JUMPDEST SWAP3 POP PUSH2 0x4C5 DUP7 DUP5 PUSH2 0x766 JUMP JUMPDEST SWAP2 POP PUSH1 0x0 PUSH20 0x0 PUSH4 0x95385C6 PUSH2 0x4ED DUP10 DUP7 PUSH2 0x864 JUMP JUMPDEST PUSH1 0x40 MLOAD DUP3 PUSH4 0xFFFFFFFF AND PUSH1 0xE0 SHL DUP2 MSTORE PUSH1 0x4 ADD PUSH2 0x509 SWAP2 SWAP1 PUSH2 0xBDF JUMP JUMPDEST PUSH1 0x20 PUSH1 0x40 MLOAD DUP1 DUP4 SUB DUP2 DUP7 GAS DELEGATECALL ISZERO DUP1 ISZERO PUSH2 0x526 JUMPI RETURNDATASIZE PUSH1 0x0 DUP1 RETURNDATACOPY RETURNDATASIZE PUSH1 0x0 REVERT JUMPDEST POP POP POP POP PUSH1 0x40 MLOAD RETURNDATASIZE PUSH1 0x1F NOT PUSH1 0x1F DUP3 ADD AND DUP3 ADD DUP1 PUSH1 0x40 MSTORE POP DUP2 ADD SWAP1 PUSH2 0x54A SWAP2 SWAP1 PUSH2 0xEEB JUMP JUMPDEST SWAP1 POP TIMESTAMP DUP2 PUSH5 0xFFFFFFFFFF AND GT ISZERO PUSH2 0x5BC JUMPI PUSH1 0x40 MLOAD PUSH3 0x461BCD PUSH1 0xE5 SHL DUP2 MSTORE PUSH1 0x20 PUSH1 0x4 DUP3 ADD MSTORE PUSH1 0x30 PUSH1 0x24 DUP3 ADD MSTORE PUSH32 0x4174746573746174696F6E5665726966793A2043657274696669636174652069 PUSH1 0x44 DUP3 ADD MSTORE PUSH16 0x39903737BA103CB2BA103B30B634B217 PUSH1 0x81 SHL PUSH1 0x64 DUP3 ADD MSTORE PUSH1 0x84 ADD PUSH2 0x476 JUMP JUMPDEST PUSH2 0x5C6 DUP8 DUP5 PUSH2 0x80B JUMP JUMPDEST SWAP3 POP PUSH1 0x0 PUSH20 0x0 PUSH4 0x95385C6 PUSH2 0x5EE DUP11 DUP8 PUSH2 0x864 JUMP JUMPDEST PUSH1 0x40 MLOAD DUP3 PUSH4 0xFFFFFFFF AND PUSH1 0xE0 SHL DUP2 MSTORE PUSH1 0x4 ADD PUSH2 0x60A SWAP2 SWAP1 PUSH2 0xBDF JUMP JUMPDEST PUSH1 0x20 PUSH1 0x40 MLOAD DUP1 DUP4 SUB DUP2 DUP7 GAS DELEGATECALL ISZERO DUP1 ISZERO PUSH2 0x627 JUMPI RETURNDATASIZE PUSH1 0x0 DUP1 RETURNDATACOPY RETURNDATASIZE PUSH1 0x0 REVERT JUMPDEST POP POP POP POP PUSH1 0x40 MLOAD RETURNDATASIZE PUSH1 0x1F NOT PUSH1 0x1F DUP3 ADD AND DUP3 ADD DUP1 PUSH1 0x40 MSTORE POP DUP2 ADD SWAP1 PUSH2 0x64B SWAP2 SWAP1 PUSH2 0xEEB JUMP JUMPDEST SWAP1 POP TIMESTAMP DUP2 PUSH5 0xFFFFFFFFFF AND LT ISZERO PUSH2 0x6B4 JUMPI PUSH1 0x40 MLOAD PUSH3 0x461BCD PUSH1 0xE5 SHL DUP2 MSTORE PUSH1 0x20 PUSH1 0x4 DUP3 ADD MSTORE PUSH1 0x27 PUSH1 0x24 DUP3 ADD MSTORE PUSH32 0x4174746573746174696F6E5665726966793A2043657274696669636174652065 PUSH1 0x44 DUP3 ADD MSTORE PUSH7 0x3C3834B932B217 PUSH1 0xC9 SHL PUSH1 0x64 DUP3 ADD MSTORE PUSH1 0x84 ADD PUSH2 0x476 JUMP JUMPDEST PUSH2 0x6BE DUP9 DUP7 PUSH2 0x80B JUMP JUMPDEST SWAP5 POP PUSH2 0x6CA DUP9 DUP7 PUSH2 0x80B JUMP JUMPDEST SWAP5 POP PUSH2 0x6D6 DUP9 DUP7 PUSH2 0x829 JUMP JUMPDEST SWAP9 SWAP8 POP POP POP POP POP POP POP POP JUMP JUMPDEST PUSH1 0x2 DUP1 SLOAD PUSH2 0xF0 SWAP1 PUSH2 0xDDC JUMP JUMPDEST PUSH1 0x0 PUSH1 0x80 DUP3 LT ISZERO PUSH2 0x702 JUMPI POP PUSH1 0x0 PUSH2 0x753 JUMP JUMPDEST PUSH1 0x0 PUSH2 0x74B PUSH1 0x65 PUSH1 0x1C DUP7 DUP7 DUP1 DUP1 PUSH1 0x1F ADD PUSH1 0x20 DUP1 SWAP2 DIV MUL PUSH1 0x20 ADD PUSH1 0x40 MLOAD SWAP1 DUP2 ADD PUSH1 0x40 MSTORE DUP1 SWAP4 SWAP3 SWAP2 SWAP1 DUP2 DUP2 MSTORE PUSH1 0x20 ADD DUP4 DUP4 DUP1 DUP3 DUP5 CALLDATACOPY PUSH1 0x0 SWAP3 ADD SWAP2 SWAP1 SWAP2 MSTORE POP SWAP3 SWAP5 SWAP4 SWAP3 POP POP PUSH2 0x87D SWAP1 POP JUMP JUMPDEST PUSH1 0x0 SLOAD EQ SWAP2 POP POP JUMPDEST SWAP3 SWAP2 POP POP JUMP JUMPDEST PUSH1 0x0 PUSH2 0x753 DUP3 PUSH1 0x0 PUSH2 0x8BE JUMP JUMPDEST PUSH1 0x0 DUP3 PUSH1 0x1 PUSH1 0x1 PUSH1 0x50 SHL SUB DUP4 AND DUP2 MLOAD DUP2 LT PUSH2 0x783 JUMPI PUSH2 0x783 PUSH2 0xE9C JUMP JUMPDEST ADD PUSH1 0x20 ADD MLOAD PUSH1 0x1 PUSH1 0xFD SHL SWAP1 DUP2 AND EQ PUSH2 0x7E8 JUMPI PUSH1 0x40 MLOAD PUSH3 0x461BCD PUSH1 0xE5 SHL DUP2 MSTORE PUSH1 0x20 PUSH1 0x4 DUP3 ADD MSTORE PUSH1 0x22 PUSH1 0x24 DUP3 ADD MSTORE PUSH32 0x41736E316465636F64653A204E6F74206120636F6E7374727563746564207479 PUSH1 0x44 DUP3 ADD MSTORE PUSH2 0x7065 PUSH1 0xF0 SHL PUSH1 0x64 DUP3 ADD MSTORE PUSH1 0x84 ADD PUSH2 0x476 JUMP JUMPDEST PUSH2 0x804 DUP4 PUSH1 0x50 DUP5 SWAP1 SHR PUSH1 0x1 PUSH1 0x1 PUSH1 0x50 SHL SUB AND PUSH2 0x8BE JUMP JUMPDEST PUSH2 0x8BE JUMP JUMPDEST SWAP4 SWAP3 POP POP POP JUMP JUMPDEST PUSH1 0x0 PUSH2 0x804 DUP4 PUSH2 0x7FF PUSH1 0x1 PUSH1 0x1 PUSH1 0x50 SHL SUB PUSH1 0xA0 DUP7 SWAP1 SHR AND PUSH1 0x1 PUSH2 0xF1A JUMP JUMPDEST PUSH1 0x60 PUSH2 0x804 PUSH1 0x1 PUSH1 0x1 PUSH1 0x50 SHL SUB DUP4 AND DUP1 JUMPDEST PUSH2 0x852 PUSH1 0x1 PUSH1 0x1 PUSH1 0x50 SHL SUB PUSH1 0xA0 DUP8 SWAP1 SHR AND PUSH1 0x1 PUSH2 0xF1A JUMP JUMPDEST PUSH2 0x85C SWAP2 SWAP1 PUSH2 0xF32 JUMP JUMPDEST DUP6 SWAP2 SWAP1 PUSH2 0xA6E JUMP JUMPDEST PUSH1 0x60 PUSH2 0x804 PUSH1 0x1 PUSH1 0x1 PUSH1 0x50 SHL SUB PUSH1 0x50 DUP5 SWAP1 SHR AND DUP1 PUSH2 0x83A JUMP JUMPDEST PUSH1 0x0 PUSH1 0x20 DUP3 GT ISZERO PUSH2 0x88D JUMPI PUSH1 0x0 DUP1 REVERT JUMPDEST DUP4 MLOAD PUSH2 0x899 DUP4 DUP6 PUSH2 0xF1A JUMP JUMPDEST GT ISZERO PUSH2 0x8A4 JUMPI PUSH1 0x0 DUP1 REVERT JUMPDEST POP PUSH1 0x20 SWAP2 SWAP1 SWAP3 ADD DUP2 ADD MLOAD SWAP2 SWAP1 SUB PUSH2 0x100 EXP PUSH1 0x0 NOT ADD NOT AND SWAP1 JUMP JUMPDEST PUSH1 0x0 DUP1 DUP1 DUP1 DUP6 PUSH2 0x8CF DUP7 PUSH1 0x1 PUSH2 0xF1A JUMP JUMPDEST DUP2 MLOAD DUP2 LT PUSH2 0x8DF JUMPI PUSH2 0x8DF PUSH2 0xE9C JUMP JUMPDEST ADD PUSH1 0x20 ADD MLOAD PUSH1 0x1 PUSH1 0xFF SHL AND PUSH1 0x0 SUB PUSH2 0x94A JUMPI DUP6 PUSH2 0x8FD DUP7 PUSH1 0x1 PUSH2 0xF1A JUMP JUMPDEST DUP2 MLOAD DUP2 LT PUSH2 0x90D JUMPI PUSH2 0x90D PUSH2 0xE9C JUMP JUMPDEST ADD PUSH1 0x20 ADD MLOAD PUSH1 0xF8 SHR SWAP3 POP PUSH2 0x922 DUP6 PUSH1 0x2 PUSH2 0xF1A JUMP JUMPDEST SWAP2 POP PUSH1 0x1 PUSH2 0x939 DUP5 PUSH1 0x1 PUSH1 0x1 PUSH1 0x50 SHL SUB DUP6 AND PUSH2 0xF1A JUMP JUMPDEST PUSH2 0x943 SWAP2 SWAP1 PUSH2 0xF32 JUMP JUMPDEST SWAP1 POP PUSH2 0xA3E JUMP JUMPDEST PUSH1 0x0 DUP7 PUSH2 0x958 DUP8 PUSH1 0x1 PUSH2 0xF1A JUMP JUMPDEST DUP2 MLOAD DUP2 LT PUSH2 0x968 JUMPI PUSH2 0x968 PUSH2 0xE9C JUMP JUMPDEST PUSH1 0x20 SWAP2 ADD ADD MLOAD PUSH1 0xF8 SHR PUSH1 0x7F AND SWAP1 POP PUSH1 0x1 DUP2 SWAP1 SUB PUSH2 0x99E JUMPI PUSH2 0x994 PUSH2 0x98D DUP8 PUSH1 0x2 PUSH2 0xF1A JUMP JUMPDEST DUP9 SWAP1 PUSH2 0xAF0 JUMP JUMPDEST PUSH1 0xFF AND SWAP4 POP PUSH2 0xA00 JUMP JUMPDEST DUP1 PUSH1 0xFF AND PUSH1 0x2 SUB PUSH2 0x9C9 JUMPI PUSH2 0x9BE PUSH2 0x9B7 DUP8 PUSH1 0x2 PUSH2 0xF1A JUMP JUMPDEST DUP9 SWAP1 PUSH2 0xB14 JUMP JUMPDEST PUSH2 0xFFFF AND SWAP4 POP PUSH2 0xA00 JUMP JUMPDEST PUSH2 0x9D4 DUP2 PUSH1 0x20 PUSH2 0xF49 JUMP JUMPDEST PUSH2 0x9DF SWAP1 PUSH1 0x8 PUSH2 0xF6C JUMP JUMPDEST PUSH1 0xFF AND PUSH2 0x9FB PUSH2 0x9F0 DUP9 PUSH1 0x2 PUSH2 0xF1A JUMP JUMPDEST DUP10 SWAP1 PUSH1 0xFF DUP6 AND PUSH2 0x87D JUMP JUMPDEST SWAP1 SHR SWAP4 POP JUMPDEST PUSH1 0xFF DUP2 AND PUSH2 0xA0F DUP8 PUSH1 0x2 PUSH2 0xF1A JUMP JUMPDEST PUSH2 0xA19 SWAP2 SWAP1 PUSH2 0xF1A JUMP JUMPDEST SWAP3 POP PUSH1 0x1 PUSH2 0xA30 DUP6 PUSH1 0x1 PUSH1 0x1 PUSH1 0x50 SHL SUB DUP7 AND PUSH2 0xF1A JUMP JUMPDEST PUSH2 0xA3A SWAP2 SWAP1 PUSH2 0xF32 JUMP JUMPDEST SWAP2 POP POP JUMPDEST PUSH10 0xFFFFFFFFFFFFFFFFFFFF PUSH1 0xA0 SHL PUSH1 0xA0 DUP3 SWAP1 SHL AND PUSH10 0xFFFFFFFFFFFFFFFFFFFF PUSH1 0x50 SHL PUSH1 0x50 DUP5 SWAP1 SHL AND DUP7 OR OR PUSH2 0x2EF JUMP JUMPDEST DUP3 MLOAD PUSH1 0x60 SWAP1 PUSH2 0xA7D DUP4 DUP6 PUSH2 0xF1A JUMP JUMPDEST GT ISZERO PUSH2 0xA88 JUMPI PUSH1 0x0 DUP1 REVERT JUMPDEST PUSH1 0x0 DUP3 PUSH8 0xFFFFFFFFFFFFFFFF DUP2 GT ISZERO PUSH2 0xAA3 JUMPI PUSH2 0xAA3 PUSH2 0xCD5 JUMP JUMPDEST PUSH1 0x40 MLOAD SWAP1 DUP1 DUP3 MSTORE DUP1 PUSH1 0x1F ADD PUSH1 0x1F NOT AND PUSH1 0x20 ADD DUP3 ADD PUSH1 0x40 MSTORE DUP1 ISZERO PUSH2 0xACD JUMPI PUSH1 0x20 DUP3 ADD DUP2 DUP1 CALLDATASIZE DUP4 CALLDATACOPY ADD SWAP1 POP JUMPDEST POP SWAP1 POP PUSH1 0x20 DUP1 DUP3 ADD SWAP1 DUP7 DUP7 ADD ADD PUSH2 0xAE5 DUP3 DUP3 DUP8 PUSH2 0xB3C JUMP JUMPDEST POP SWAP1 SWAP6 SWAP5 POP POP POP POP POP JUMP JUMPDEST PUSH1 0x0 DUP3 DUP3 DUP2 MLOAD DUP2 LT PUSH2 0xB04 JUMPI PUSH2 0xB04 PUSH2 0xE9C JUMP JUMPDEST ADD PUSH1 0x20 ADD MLOAD PUSH1 0xF8 SHR SWAP1 POP SWAP3 SWAP2 POP POP JUMP JUMPDEST DUP2 MLOAD PUSH1 0x0 SWAP1 PUSH2 0xB24 DUP4 PUSH1 0x2 PUSH2 0xF1A JUMP JUMPDEST GT ISZERO PUSH2 0xB2F JUMPI PUSH1 0x0 DUP1 REVERT JUMPDEST POP ADD PUSH1 0x2 ADD MLOAD PUSH2 0xFFFF AND SWAP1 JUMP JUMPDEST PUSH1 0x20 DUP2 LT PUSH2 0xB74 JUMPI DUP2 MLOAD DUP4 MSTORE PUSH2 0xB53 PUSH1 0x20 DUP5 PUSH2 0xF1A JUMP JUMPDEST SWAP3 POP PUSH2 0xB60 PUSH1 0x20 DUP4 PUSH2 0xF1A JUMP JUMPDEST SWAP2 POP PUSH2 0xB6D PUSH1 0x20 DUP3 PUSH2 0xF32 JUMP JUMPDEST SWAP1 POP PUSH2 0xB3C JUMP JUMPDEST SWAP1 MLOAD DUP3 MLOAD PUSH1 0x20 SWAP3 SWAP1 SWAP3 SUB PUSH2 0x100 EXP PUSH1 0x0 NOT ADD DUP1 NOT SWAP1 SWAP2 AND SWAP2 AND OR SWAP1 MSTORE JUMP JUMPDEST PUSH1 0x0 DUP2 MLOAD DUP1 DUP5 MSTORE PUSH1 0x0 JUMPDEST DUP2 DUP2 LT ISZERO PUSH2 0xBB8 JUMPI PUSH1 0x20 DUP2 DUP6 ADD DUP2 ADD MLOAD DUP7 DUP4 ADD DUP3 ADD MSTORE ADD PUSH2 0xB9C JUMP JUMPDEST DUP2 DUP2 GT ISZERO PUSH2 0xBCA JUMPI PUSH1 0x0 PUSH1 0x20 DUP4 DUP8 ADD ADD MSTORE JUMPDEST POP PUSH1 0x1F ADD PUSH1 0x1F NOT AND SWAP3 SWAP1 SWAP3 ADD PUSH1 0x20 ADD SWAP3 SWAP2 POP POP JUMP JUMPDEST PUSH1 0x20 DUP2 MSTORE PUSH1 0x0 PUSH2 0x804 PUSH1 0x20 DUP4 ADD DUP5 PUSH2 0xB92 JUMP JUMPDEST PUSH1 0x0 DUP1 DUP4 PUSH1 0x1F DUP5 ADD SLT PUSH2 0xC04 JUMPI PUSH1 0x0 DUP1 REVERT JUMPDEST POP DUP2 CALLDATALOAD PUSH8 0xFFFFFFFFFFFFFFFF DUP2 GT ISZERO PUSH2 0xC1C JUMPI PUSH1 0x0 DUP1 REVERT JUMPDEST PUSH1 0x20 DUP4 ADD SWAP2 POP DUP4 PUSH1 0x20 DUP3 DUP6 ADD ADD GT ISZERO PUSH2 0xC34 JUMPI PUSH1 0x0 DUP1 REVERT JUMPDEST SWAP3 POP SWAP3 SWAP1 POP JUMP JUMPDEST PUSH1 0x0 DUP1 PUSH1 0x0 DUP1 PUSH1 0x0 DUP1 PUSH1 0x60 DUP8 DUP10 SUB SLT ISZERO PUSH2 0xC54 JUMPI PUSH1 0x0 DUP1 REVERT JUMPDEST DUP7 CALLDATALOAD PUSH8 0xFFFFFFFFFFFFFFFF DUP1 DUP3 GT ISZERO PUSH2 0xC6C JUMPI PUSH1 0x0 DUP1 REVERT JUMPDEST PUSH2 0xC78 DUP11 DUP4 DUP12 ADD PUSH2 0xBF2 JUMP JUMPDEST SWAP1 SWAP9 POP SWAP7 POP PUSH1 0x20 DUP10 ADD CALLDATALOAD SWAP2 POP DUP1 DUP3 GT ISZERO PUSH2 0xC91 JUMPI PUSH1 0x0 DUP1 REVERT JUMPDEST PUSH2 0xC9D DUP11 DUP4 DUP12 ADD PUSH2 0xBF2 JUMP JUMPDEST SWAP1 SWAP7 POP SWAP5 POP PUSH1 0x40 DUP10 ADD CALLDATALOAD SWAP2 POP DUP1 DUP3 GT ISZERO PUSH2 0xCB6 JUMPI PUSH1 0x0 DUP1 REVERT JUMPDEST POP PUSH2 0xCC3 DUP10 DUP3 DUP11 ADD PUSH2 0xBF2 JUMP JUMPDEST SWAP8 SWAP11 SWAP7 SWAP10 POP SWAP5 SWAP8 POP SWAP3 SWAP6 SWAP4 SWAP5 SWAP3 POP POP POP JUMP JUMPDEST PUSH4 0x4E487B71 PUSH1 0xE0 SHL PUSH1 0x0 MSTORE PUSH1 0x41 PUSH1 0x4 MSTORE PUSH1 0x24 PUSH1 0x0 REVERT JUMPDEST PUSH1 0x0 DUP3 PUSH1 0x1F DUP4 ADD SLT PUSH2 0xCFC JUMPI PUSH1 0x0 DUP1 REVERT JUMPDEST DUP2 CALLDATALOAD PUSH8 0xFFFFFFFFFFFFFFFF DUP1 DUP3 GT ISZERO PUSH2 0xD17 JUMPI PUSH2 0xD17 PUSH2 0xCD5 JUMP JUMPDEST PUSH1 0x40 MLOAD PUSH1 0x1F DUP4 ADD PUSH1 0x1F NOT SWAP1 DUP2 AND PUSH1 0x3F ADD AND DUP2 ADD SWAP1 DUP3 DUP3 GT DUP2 DUP4 LT OR ISZERO PUSH2 0xD3F JUMPI PUSH2 0xD3F PUSH2 0xCD5 JUMP JUMPDEST DUP2 PUSH1 0x40 MSTORE DUP4 DUP2 MSTORE DUP7 PUSH1 0x20 DUP6 DUP9 ADD ADD GT ISZERO PUSH2 0xD58 JUMPI PUSH1 0x0 DUP1 REVERT JUMPDEST DUP4 PUSH1 0x20 DUP8 ADD PUSH1 0x20 DUP4 ADD CALLDATACOPY PUSH1 0x0 PUSH1 0x20 DUP6 DUP4 ADD ADD MSTORE DUP1 SWAP5 POP POP POP POP POP SWAP3 SWAP2 POP POP JUMP JUMPDEST PUSH1 0x0 DUP1 PUSH1 0x40 DUP4 DUP6 SUB SLT ISZERO PUSH2 0xD8B JUMPI PUSH1 0x0 DUP1 REVERT JUMPDEST DUP3 CALLDATALOAD PUSH8 0xFFFFFFFFFFFFFFFF DUP1 DUP3 GT ISZERO PUSH2 0xDA3 JUMPI PUSH1 0x0 DUP1 REVERT JUMPDEST PUSH2 0xDAF DUP7 DUP4 DUP8 ADD PUSH2 0xCEB JUMP JUMPDEST SWAP4 POP PUSH1 0x20 DUP6 ADD CALLDATALOAD SWAP2 POP DUP1 DUP3 GT ISZERO PUSH2 0xDC5 JUMPI PUSH1 0x0 DUP1 REVERT JUMPDEST POP PUSH2 0xDD2 DUP6 DUP3 DUP7 ADD PUSH2 0xCEB JUMP JUMPDEST SWAP2 POP POP SWAP3 POP SWAP3 SWAP1 POP JUMP JUMPDEST PUSH1 0x1 DUP2 DUP2 SHR SWAP1 DUP3 AND DUP1 PUSH2 0xDF0 JUMPI PUSH1 0x7F DUP3 AND SWAP2 POP JUMPDEST PUSH1 0x20 DUP3 LT DUP2 SUB PUSH2 0xE10 JUMPI PUSH4 0x4E487B71 PUSH1 0xE0 SHL PUSH1 0x0 MSTORE PUSH1 0x22 PUSH1 0x4 MSTORE PUSH1 0x24 PUSH1 0x0 REVERT JUMPDEST POP SWAP2 SWAP1 POP JUMP JUMPDEST DUP2 DUP4 MSTORE DUP2 DUP2 PUSH1 0x20 DUP6 ADD CALLDATACOPY POP PUSH1 0x0 DUP3 DUP3 ADD PUSH1 0x20 SWAP1 DUP2 ADD SWAP2 SWAP1 SWAP2 MSTORE PUSH1 0x1F SWAP1 SWAP2 ADD PUSH1 0x1F NOT AND SWAP1 SWAP2 ADD ADD SWAP1 JUMP JUMPDEST PUSH1 0x60 DUP2 MSTORE PUSH1 0x0 PUSH2 0xE52 PUSH1 0x60 DUP4 ADD DUP9 PUSH2 0xB92 JUMP JUMPDEST DUP3 DUP2 SUB PUSH1 0x20 DUP5 ADD MSTORE PUSH2 0xE65 DUP2 DUP8 DUP10 PUSH2 0xE16 JUMP JUMPDEST SWAP1 POP DUP3 DUP2 SUB PUSH1 0x40 DUP5 ADD MSTORE PUSH2 0x6D6 DUP2 DUP6 DUP8 PUSH2 0xE16 JUMP JUMPDEST PUSH1 0x0 PUSH1 0x20 DUP3 DUP5 SUB SLT ISZERO PUSH2 0xE8C JUMPI PUSH1 0x0 DUP1 REVERT JUMPDEST DUP2 MLOAD DUP1 ISZERO ISZERO DUP2 EQ PUSH2 0x804 JUMPI PUSH1 0x0 DUP1 REVERT JUMPDEST PUSH4 0x4E487B71 PUSH1 0xE0 SHL PUSH1 0x0 MSTORE PUSH1 0x32 PUSH1 0x4 MSTORE PUSH1 0x24 PUSH1 0x0 REVERT JUMPDEST PUSH1 0x60 DUP2 MSTORE PUSH1 0x0 PUSH2 0xEC5 PUSH1 0x60 DUP4 ADD DUP7 PUSH2 0xB92 JUMP JUMPDEST DUP3 DUP2 SUB PUSH1 0x20 DUP5 ADD MSTORE PUSH2 0xED7 DUP2 DUP7 PUSH2 0xB92 JUMP JUMPDEST SWAP1 POP DUP3 DUP2 SUB PUSH1 0x40 DUP5 ADD MSTORE PUSH2 0x2EF DUP2 DUP6 PUSH2 0xB92 JUMP JUMPDEST PUSH1 0x0 PUSH1 0x20 DUP3 DUP5 SUB SLT ISZERO PUSH2 0xEFD JUMPI PUSH1 0x0 DUP1 REVERT JUMPDEST POP MLOAD SWAP2 SWAP1 POP JUMP JUMPDEST PUSH4 0x4E487B71 PUSH1 0xE0 SHL PUSH1 0x0 MSTORE PUSH1 0x11 PUSH1 0x4 MSTORE PUSH1 0x24 PUSH1 0x0 REVERT JUMPDEST PUSH1 0x0 DUP3 NOT DUP3 GT ISZERO PUSH2 0xF2D JUMPI PUSH2 0xF2D PUSH2 0xF04 JUMP JUMPDEST POP ADD SWAP1 JUMP JUMPDEST PUSH1 0x0 DUP3 DUP3 LT ISZERO PUSH2 0xF44 JUMPI PUSH2 0xF44 PUSH2 0xF04 JUMP JUMPDEST POP SUB SWAP1 JUMP JUMPDEST PUSH1 0x0 PUSH1 0xFF DUP3 AND PUSH1 0xFF DUP5 AND DUP1 DUP3 LT ISZERO PUSH2 0xF63 JUMPI PUSH2 0xF63 PUSH2 0xF04 JUMP JUMPDEST SWAP1 SUB SWAP4 SWAP3 POP POP POP JUMP JUMPDEST PUSH1 0x0 PUSH1 0xFF DUP3 AND PUSH1 0xFF DUP5 AND DUP2 PUSH1 0xFF DIV DUP2 GT DUP3 ISZERO ISZERO AND ISZERO PUSH2 0xF8D JUMPI PUSH2 0xF8D PUSH2 0xF04 JUMP JUMPDEST MUL SWAP4 SWAP3 POP POP POP JUMP INVALID LOG2 PUSH5 0x6970667358 0x22 SLT KECCAK256 ADD JUMPDEST PUSH26 0x16F2A09FBE5723BAB693A74231D86A6221EF87A200C822B0AE7 0xB2 ADDMOD DUP16 PUSH5 0x736F6C6343 STOP ADDMOD 0xF STOP CALLER "
				},
				"gasEstimates": {
					"creation": {
						"codeDepositCost": "808600",
						"executionCost": "infinite",
						"totalCost": "infinite"
					},
					"external": {
						"caCertPubKey()": "infinite",
						"rootCert()": "infinite",
						"sha256WithRSAEncryption()": "2359",
						"verifyAttestation(bytes,bytes,bytes)": "infinite",
						"verifyCert(bytes,bytes)": "infinite"
					},
					"internal": {
						"verifyAttBodyOk(bytes calldata)": "infinite"
					}
				},
				"methodIdentifiers": {
					"caCertPubKey()": "3553d6ee",
					"rootCert()": "7221e6fc",
					"sha256WithRSAEncryption()": "462b2653",
					"verifyAttestation(bytes,bytes,bytes)": "3e1c075a",
					"verifyCert(bytes,bytes)": "721d9bc4"
				}
			},
			"storageLayout": {
				"storage": [
					{
						"astId": 19,
						"contract": "src/AttestationVerifier.sol:AttestationVerifier",
						"label": "okBytes",
						"offset": 0,
						"slot": "0",
						"type": "t_bytes32"
					},
					{
						"astId": 22,
						"contract": "src/AttestationVerifier.sol:AttestationVerifier",
						"label": "caCertPubKey",
						"offset": 0,
						"slot": "1",
						"type": "t_bytes_storage"
					},
					{
						"astId": 25,
						"contract": "src/AttestationVerifier.sol:AttestationVerifier",
						"label": "rootCert",
						"offset": 0,
						"slot": "2",
						"type": "t_bytes_storage"
					},
					{
						"astId": 29,
						"contract": "src/AttestationVerifier.sol:AttestationVerifier",
						"label": "sha256WithRSAEncryption",
						"offset": 0,
						"slot": "3",
						"type": "t_contract(Algorithm)375"
					}
				],
				"types": {
					"t_bytes32": {
						"encoding": "inplace",
						"label": "bytes32",
						"numberOfBytes": "32"
					},
					"t_bytes_storage": {
						"encoding": "bytes",
						"label": "bytes",
						"numberOfBytes": "32"
					},
					"t_contract(Algorithm)375": {
						"encoding": "inplace",
						"label": "contract Algorithm",
						"numberOfBytes": "20"
					}
				}
			},
			"userdoc": {
				"kind": "user",
				"methods": {},
				"notice": "Helper contract for the verification of Intel SGX attestations.",
				"version": 1
			}
		}
	}
}