{
	"src/utils/DateTime.sol": {
		"DateTime": {
			"abi": [
				{
					"inputs": [
						{
							"internalType": "bytes",
							"name": "x509Time",
							"type": "bytes"
						}
					],
					"name": "toTimestamp",
					"outputs": [
						{
							"internalType": "uint256",
							"name": "",
							"type": "uint256"
						}
					],
					"stateMutability": "pure",
					"type": "function"
				}
			],
			"devdoc": {
				"kind": "dev",
				"methods": {},
				"version": 1
			},
			"evm": {
				"assembly": "    /* \"src/utils/DateTime.sol\":65:3511  library DateTime {... */\n  dataSize(sub_0)\n  dataOffset(sub_0)\n  0x0b\n  dup3\n  dup3\n  dup3\n  codecopy\n  dup1\n  mload\n  0x00\n  byte\n  0x73\n  eq\n  tag_1\n  jumpi\n  mstore(0x00, shl(0xe0, 0x4e487b71))\n  mstore(0x04, 0x00)\n  revert(0x00, 0x24)\ntag_1:\n  mstore(0x00, address)\n  0x73\n  dup2\n  mstore8\n  dup3\n  dup2\n  return\nstop\n\nsub_0: assembly {\n        /* \"src/utils/DateTime.sol\":65:3511  library DateTime {... */\n      eq(address, deployTimeAddress())\n      mstore(0x40, 0x80)\n      jumpi(tag_1, lt(calldatasize, 0x04))\n      shr(0xe0, calldataload(0x00))\n      dup1\n      0x095385c6\n      eq\n      tag_2\n      jumpi\n    tag_1:\n      0x00\n      dup1\n      revert\n        /* \"src/utils/DateTime.sol\":2057:3509  function toTimestamp(bytes memory x509Time) public pure returns (uint256) {... */\n    tag_2:\n      tag_3\n      tag_4\n      calldatasize\n      0x04\n      tag_5\n      jump\t// in\n    tag_4:\n      tag_6\n      jump\t// in\n    tag_3:\n      mload(0x40)\n        /* \"#utility.yul\":1226:1251   */\n      swap1\n      dup2\n      mstore\n        /* \"#utility.yul\":1214:1216   */\n      0x20\n        /* \"#utility.yul\":1199:1217   */\n      add\n        /* \"src/utils/DateTime.sol\":2057:3509  function toTimestamp(bytes memory x509Time) public pure returns (uint256) {... */\n      mload(0x40)\n      dup1\n      swap2\n      sub\n      swap1\n      return\n    tag_6:\n        /* \"src/utils/DateTime.sol\":2122:2129  uint256 */\n      0x00\n        /* \"src/utils/DateTime.sol\":2141:2151  uint16 yrs */\n      dup1\n        /* \"src/utils/DateTime.sol\":2161:2172  uint8 mnths */\n      0x00\n        /* \"src/utils/DateTime.sol\":2182:2191  uint8 dys */\n      dup1\n        /* \"src/utils/DateTime.sol\":2201:2210  uint8 hrs */\n      0x00\n        /* \"src/utils/DateTime.sol\":2220:2230  uint8 mins */\n      dup1\n        /* \"src/utils/DateTime.sol\":2240:2250  uint8 secs */\n      0x00\n        /* \"src/utils/DateTime.sol\":2260:2272  uint8 offset */\n      dup1\n        /* \"src/utils/DateTime.sol\":2287:2295  x509Time */\n      dup9\n        /* \"src/utils/DateTime.sol\":2287:2302  x509Time.length */\n      mload\n        /* \"src/utils/DateTime.sol\":2306:2308  13 */\n      0x0d\n        /* \"src/utils/DateTime.sol\":2287:2308  x509Time.length == 13 */\n      sub\n        /* \"src/utils/DateTime.sol\":2283:2601  if (x509Time.length == 13) {... */\n      tag_10\n      jumpi\n        /* \"src/utils/DateTime.sol\":2354:2355  5 */\n      0x05\n        /* \"src/utils/DateTime.sol\":2349:2351  48 */\n      0x30\n        /* \"src/utils/DateTime.sol\":2334:2342  x509Time */\n      dup11\n        /* \"src/utils/DateTime.sol\":2343:2344  0 */\n      0x00\n        /* \"src/utils/DateTime.sol\":2334:2345  x509Time[0] */\n      dup2\n      mload\n      dup2\n      lt\n      tag_12\n      jumpi\n      tag_12\n      tag_13\n      jump\t// in\n    tag_12:\n      add\n      0x20\n      add\n      mload\n        /* \"src/utils/DateTime.sol\":2328:2351  uint8(x509Time[0]) - 48 */\n      tag_14\n      swap2\n      swap1\n        /* \"src/utils/DateTime.sol\":2334:2345  x509Time[0] */\n      0xf8\n      shr\n        /* \"src/utils/DateTime.sol\":2328:2351  uint8(x509Time[0]) - 48 */\n      tag_15\n      jump\t// in\n    tag_14:\n        /* \"src/utils/DateTime.sol\":2328:2355  uint8(x509Time[0]) - 48 < 5 */\n      0xff\n      and\n      lt\n        /* \"src/utils/DateTime.sol\":2324:2398  if (uint8(x509Time[0]) - 48 < 5) yrs += 2000;... */\n      iszero\n      tag_16\n      jumpi\n        /* \"src/utils/DateTime.sol\":2357:2368  yrs += 2000 */\n      tag_17\n        /* \"src/utils/DateTime.sol\":2364:2368  2000 */\n      0x07d0\n        /* \"src/utils/DateTime.sol\":2357:2368  yrs += 2000 */\n      dup9\n      tag_18\n      jump\t// in\n    tag_17:\n      swap7\n      pop\n        /* \"src/utils/DateTime.sol\":2283:2601  if (x509Time.length == 13) {... */\n      jump(tag_21)\n        /* \"src/utils/DateTime.sol\":2324:2398  if (uint8(x509Time[0]) - 48 < 5) yrs += 2000;... */\n    tag_16:\n        /* \"src/utils/DateTime.sol\":2387:2398  yrs += 1900 */\n      tag_17\n        /* \"src/utils/DateTime.sol\":2394:2398  1900 */\n      0x076c\n        /* \"src/utils/DateTime.sol\":2387:2398  yrs += 1900 */\n      dup9\n      tag_18\n      jump\t// in\n        /* \"src/utils/DateTime.sol\":2283:2601  if (x509Time.length == 13) {... */\n    tag_10:\n        /* \"src/utils/DateTime.sol\":2541:2543  48 */\n      0x30\n        /* \"src/utils/DateTime.sol\":2526:2534  x509Time */\n      dup10\n        /* \"src/utils/DateTime.sol\":2535:2536  1 */\n      0x01\n        /* \"src/utils/DateTime.sol\":2526:2537  x509Time[1] */\n      dup2\n      mload\n      dup2\n      lt\n      tag_23\n      jumpi\n      tag_23\n      tag_13\n      jump\t// in\n    tag_23:\n      add\n      0x20\n      add\n      mload\n        /* \"src/utils/DateTime.sol\":2520:2543  uint8(x509Time[1]) - 48 */\n      tag_24\n      swap2\n      swap1\n        /* \"src/utils/DateTime.sol\":2526:2537  x509Time[1] */\n      0xf8\n      shr\n        /* \"src/utils/DateTime.sol\":2520:2543  uint8(x509Time[1]) - 48 */\n      tag_15\n      jump\t// in\n    tag_24:\n        /* \"src/utils/DateTime.sol\":2519:2566  (uint8(x509Time[1]) - 48) *... */\n      tag_25\n      swap1\n        /* \"src/utils/DateTime.sol\":2563:2566  100 */\n      0x64\n        /* \"src/utils/DateTime.sol\":2519:2566  (uint8(x509Time[1]) - 48) *... */\n      tag_26\n      jump\t// in\n    tag_25:\n        /* \"src/utils/DateTime.sol\":2452:2566  (uint8(x509Time[0]) - 48) *... */\n      0xff\n      and\n        /* \"src/utils/DateTime.sol\":2474:2476  48 */\n      0x30\n        /* \"src/utils/DateTime.sol\":2459:2467  x509Time */\n      dup11\n        /* \"src/utils/DateTime.sol\":2468:2469  0 */\n      0x00\n        /* \"src/utils/DateTime.sol\":2459:2470  x509Time[0] */\n      dup2\n      mload\n      dup2\n      lt\n      tag_28\n      jumpi\n      tag_28\n      tag_13\n      jump\t// in\n    tag_28:\n      add\n      0x20\n      add\n      mload\n        /* \"src/utils/DateTime.sol\":2453:2476  uint8(x509Time[0]) - 48 */\n      tag_29\n      swap2\n      swap1\n        /* \"src/utils/DateTime.sol\":2459:2470  x509Time[0] */\n      0xf8\n      shr\n        /* \"src/utils/DateTime.sol\":2453:2476  uint8(x509Time[0]) - 48 */\n      tag_15\n      jump\t// in\n    tag_29:\n        /* \"src/utils/DateTime.sol\":2452:2500  (uint8(x509Time[0]) - 48) *... */\n      tag_30\n      swap1\n      0xff\n      and\n        /* \"src/utils/DateTime.sol\":2496:2500  1000 */\n      0x03e8\n        /* \"src/utils/DateTime.sol\":2452:2500  (uint8(x509Time[0]) - 48) *... */\n      tag_31\n      jump\t// in\n    tag_30:\n        /* \"src/utils/DateTime.sol\":2452:2566  (uint8(x509Time[0]) - 48) *... */\n      tag_32\n      swap2\n      swap1\n      tag_18\n      jump\t// in\n    tag_32:\n        /* \"src/utils/DateTime.sol\":2429:2566  yrs +=... */\n      tag_33\n      swap1\n      dup9\n      tag_18\n      jump\t// in\n    tag_33:\n      swap7\n      pop\n        /* \"src/utils/DateTime.sol\":2589:2590  2 */\n      0x02\n        /* \"src/utils/DateTime.sol\":2580:2590  offset = 2 */\n      swap1\n      pop\n        /* \"src/utils/DateTime.sol\":2283:2601  if (x509Time.length == 13) {... */\n    tag_21:\n        /* \"src/utils/DateTime.sol\":2737:2739  48 */\n      0x30\n        /* \"src/utils/DateTime.sol\":2701:2709  x509Time */\n      dup10\n        /* \"src/utils/DateTime.sol\":2710:2720  offset + 1 */\n      tag_34\n        /* \"src/utils/DateTime.sol\":2710:2716  offset */\n      dup4\n        /* \"src/utils/DateTime.sol\":2719:2720  1 */\n      0x01\n        /* \"src/utils/DateTime.sol\":2710:2720  offset + 1 */\n      tag_35\n      jump\t// in\n    tag_34:\n        /* \"src/utils/DateTime.sol\":2701:2721  x509Time[offset + 1] */\n      0xff\n      and\n      dup2\n      mload\n      dup2\n      lt\n      tag_37\n      jumpi\n      tag_37\n      tag_13\n      jump\t// in\n    tag_37:\n      add\n      0x20\n      add\n      mload\n      0xf8\n      shr\n        /* \"src/utils/DateTime.sol\":2660:2662  48 */\n      0x30\n        /* \"src/utils/DateTime.sol\":2636:2644  x509Time */\n      dup12\n        /* \"src/utils/DateTime.sol\":2645:2655  offset + 0 */\n      tag_38\n        /* \"src/utils/DateTime.sol\":2645:2651  offset */\n      dup6\n        /* \"src/utils/DateTime.sol\":2654:2655  0 */\n      0x00\n        /* \"src/utils/DateTime.sol\":2645:2655  offset + 0 */\n      tag_35\n      jump\t// in\n    tag_38:\n        /* \"src/utils/DateTime.sol\":2636:2656  x509Time[offset + 0] */\n      0xff\n      and\n      dup2\n      mload\n      dup2\n      lt\n      tag_40\n      jumpi\n      tag_40\n      tag_13\n      jump\t// in\n    tag_40:\n      add\n      0x20\n      add\n      mload\n        /* \"src/utils/DateTime.sol\":2630:2662  uint8(x509Time[offset + 0]) - 48 */\n      tag_41\n      swap2\n      swap1\n        /* \"src/utils/DateTime.sol\":2636:2656  x509Time[offset + 0] */\n      0xf8\n      shr\n        /* \"src/utils/DateTime.sol\":2630:2662  uint8(x509Time[offset + 0]) - 48 */\n      tag_15\n      jump\t// in\n    tag_41:\n        /* \"src/utils/DateTime.sol\":2629:2680  (uint8(x509Time[offset + 0]) - 48) *... */\n      tag_42\n      swap1\n        /* \"src/utils/DateTime.sol\":2678:2680  10 */\n      0x0a\n        /* \"src/utils/DateTime.sol\":2629:2680  (uint8(x509Time[offset + 0]) - 48) *... */\n      tag_26\n      jump\t// in\n    tag_42:\n        /* \"src/utils/DateTime.sol\":2629:2722  (uint8(x509Time[offset + 0]) - 48) *... */\n      tag_43\n      swap2\n      swap1\n      tag_35\n      jump\t// in\n    tag_43:\n        /* \"src/utils/DateTime.sol\":2629:2739  (uint8(x509Time[offset + 0]) - 48) *... */\n      tag_44\n      swap2\n      swap1\n      tag_15\n      jump\t// in\n    tag_44:\n        /* \"src/utils/DateTime.sol\":2610:2739  yrs +=... */\n      tag_45\n      swap1\n      0xff\n      and\n      dup9\n      tag_18\n      jump\t// in\n    tag_45:\n      swap7\n      pop\n        /* \"src/utils/DateTime.sol\":2877:2879  48 */\n      0x30\n        /* \"src/utils/DateTime.sol\":2841:2849  x509Time */\n      dup10\n        /* \"src/utils/DateTime.sol\":2850:2860  offset + 3 */\n      tag_46\n        /* \"src/utils/DateTime.sol\":2850:2856  offset */\n      dup4\n        /* \"src/utils/DateTime.sol\":2859:2860  3 */\n      0x03\n        /* \"src/utils/DateTime.sol\":2850:2860  offset + 3 */\n      tag_35\n      jump\t// in\n    tag_46:\n        /* \"src/utils/DateTime.sol\":2841:2861  x509Time[offset + 3] */\n      0xff\n      and\n      dup2\n      mload\n      dup2\n      lt\n      tag_48\n      jumpi\n      tag_48\n      tag_13\n      jump\t// in\n    tag_48:\n      add\n      0x20\n      add\n      mload\n      0xf8\n      shr\n        /* \"src/utils/DateTime.sol\":2800:2802  48 */\n      0x30\n        /* \"src/utils/DateTime.sol\":2776:2784  x509Time */\n      dup12\n        /* \"src/utils/DateTime.sol\":2785:2795  offset + 2 */\n      tag_49\n        /* \"src/utils/DateTime.sol\":2785:2791  offset */\n      dup6\n        /* \"src/utils/DateTime.sol\":2794:2795  2 */\n      0x02\n        /* \"src/utils/DateTime.sol\":2785:2795  offset + 2 */\n      tag_35\n      jump\t// in\n    tag_49:\n        /* \"src/utils/DateTime.sol\":2776:2796  x509Time[offset + 2] */\n      0xff\n      and\n      dup2\n      mload\n      dup2\n      lt\n      tag_51\n      jumpi\n      tag_51\n      tag_13\n      jump\t// in\n    tag_51:\n      add\n      0x20\n      add\n      mload\n        /* \"src/utils/DateTime.sol\":2770:2802  uint8(x509Time[offset + 2]) - 48 */\n      tag_52\n      swap2\n      swap1\n        /* \"src/utils/DateTime.sol\":2776:2796  x509Time[offset + 2] */\n      0xf8\n      shr\n        /* \"src/utils/DateTime.sol\":2770:2802  uint8(x509Time[offset + 2]) - 48 */\n      tag_15\n      jump\t// in\n    tag_52:\n        /* \"src/utils/DateTime.sol\":2769:2820  (uint8(x509Time[offset + 2]) - 48) *... */\n      tag_53\n      swap1\n        /* \"src/utils/DateTime.sol\":2818:2820  10 */\n      0x0a\n        /* \"src/utils/DateTime.sol\":2769:2820  (uint8(x509Time[offset + 2]) - 48) *... */\n      tag_26\n      jump\t// in\n    tag_53:\n        /* \"src/utils/DateTime.sol\":2769:2862  (uint8(x509Time[offset + 2]) - 48) *... */\n      tag_54\n      swap2\n      swap1\n      tag_35\n      jump\t// in\n    tag_54:\n        /* \"src/utils/DateTime.sol\":2769:2879  (uint8(x509Time[offset + 2]) - 48) *... */\n      tag_55\n      swap2\n      swap1\n      tag_15\n      jump\t// in\n    tag_55:\n        /* \"src/utils/DateTime.sol\":2749:2879  mnths =... */\n      swap6\n      pop\n        /* \"src/utils/DateTime.sol\":3016:3018  48 */\n      0x30\n        /* \"src/utils/DateTime.sol\":2980:2988  x509Time */\n      dup10\n        /* \"src/utils/DateTime.sol\":2989:2999  offset + 5 */\n      tag_56\n        /* \"src/utils/DateTime.sol\":2989:2995  offset */\n      dup4\n        /* \"src/utils/DateTime.sol\":2998:2999  5 */\n      0x05\n        /* \"src/utils/DateTime.sol\":2989:2999  offset + 5 */\n      tag_35\n      jump\t// in\n    tag_56:\n        /* \"src/utils/DateTime.sol\":2980:3000  x509Time[offset + 5] */\n      0xff\n      and\n      dup2\n      mload\n      dup2\n      lt\n      tag_58\n      jumpi\n      tag_58\n      tag_13\n      jump\t// in\n    tag_58:\n      add\n      0x20\n      add\n      mload\n      0xf8\n      shr\n        /* \"src/utils/DateTime.sol\":2939:2941  48 */\n      0x30\n        /* \"src/utils/DateTime.sol\":2915:2923  x509Time */\n      dup12\n        /* \"src/utils/DateTime.sol\":2924:2934  offset + 4 */\n      tag_59\n        /* \"src/utils/DateTime.sol\":2924:2930  offset */\n      dup6\n        /* \"src/utils/DateTime.sol\":2933:2934  4 */\n      0x04\n        /* \"src/utils/DateTime.sol\":2924:2934  offset + 4 */\n      tag_35\n      jump\t// in\n    tag_59:\n        /* \"src/utils/DateTime.sol\":2915:2935  x509Time[offset + 4] */\n      0xff\n      and\n      dup2\n      mload\n      dup2\n      lt\n      tag_61\n      jumpi\n      tag_61\n      tag_13\n      jump\t// in\n    tag_61:\n      add\n      0x20\n      add\n      mload\n        /* \"src/utils/DateTime.sol\":2909:2941  uint8(x509Time[offset + 4]) - 48 */\n      tag_62\n      swap2\n      swap1\n        /* \"src/utils/DateTime.sol\":2915:2935  x509Time[offset + 4] */\n      0xf8\n      shr\n        /* \"src/utils/DateTime.sol\":2909:2941  uint8(x509Time[offset + 4]) - 48 */\n      tag_15\n      jump\t// in\n    tag_62:\n        /* \"src/utils/DateTime.sol\":2908:2959  (uint8(x509Time[offset + 4]) - 48) *... */\n      tag_63\n      swap1\n        /* \"src/utils/DateTime.sol\":2957:2959  10 */\n      0x0a\n        /* \"src/utils/DateTime.sol\":2908:2959  (uint8(x509Time[offset + 4]) - 48) *... */\n      tag_26\n      jump\t// in\n    tag_63:\n        /* \"src/utils/DateTime.sol\":2908:3001  (uint8(x509Time[offset + 4]) - 48) *... */\n      tag_64\n      swap2\n      swap1\n      tag_35\n      jump\t// in\n    tag_64:\n        /* \"src/utils/DateTime.sol\":2908:3018  (uint8(x509Time[offset + 4]) - 48) *... */\n      tag_65\n      swap2\n      swap1\n      tag_15\n      jump\t// in\n    tag_65:\n        /* \"src/utils/DateTime.sol\":2889:3018  dys +=... */\n      tag_66\n      swap1\n      dup7\n      tag_35\n      jump\t// in\n    tag_66:\n      swap5\n      pop\n        /* \"src/utils/DateTime.sol\":3155:3157  48 */\n      0x30\n        /* \"src/utils/DateTime.sol\":3119:3127  x509Time */\n      dup10\n        /* \"src/utils/DateTime.sol\":3128:3138  offset + 7 */\n      tag_67\n        /* \"src/utils/DateTime.sol\":3128:3134  offset */\n      dup4\n        /* \"src/utils/DateTime.sol\":3137:3138  7 */\n      0x07\n        /* \"src/utils/DateTime.sol\":3128:3138  offset + 7 */\n      tag_35\n      jump\t// in\n    tag_67:\n        /* \"src/utils/DateTime.sol\":3119:3139  x509Time[offset + 7] */\n      0xff\n      and\n      dup2\n      mload\n      dup2\n      lt\n      tag_69\n      jumpi\n      tag_69\n      tag_13\n      jump\t// in\n    tag_69:\n      add\n      0x20\n      add\n      mload\n      0xf8\n      shr\n        /* \"src/utils/DateTime.sol\":3078:3080  48 */\n      0x30\n        /* \"src/utils/DateTime.sol\":3054:3062  x509Time */\n      dup12\n        /* \"src/utils/DateTime.sol\":3063:3073  offset + 6 */\n      tag_70\n        /* \"src/utils/DateTime.sol\":3063:3069  offset */\n      dup6\n        /* \"src/utils/DateTime.sol\":3072:3073  6 */\n      0x06\n        /* \"src/utils/DateTime.sol\":3063:3073  offset + 6 */\n      tag_35\n      jump\t// in\n    tag_70:\n        /* \"src/utils/DateTime.sol\":3054:3074  x509Time[offset + 6] */\n      0xff\n      and\n      dup2\n      mload\n      dup2\n      lt\n      tag_72\n      jumpi\n      tag_72\n      tag_13\n      jump\t// in\n    tag_72:\n      add\n      0x20\n      add\n      mload\n        /* \"src/utils/DateTime.sol\":3048:3080  uint8(x509Time[offset + 6]) - 48 */\n      tag_73\n      swap2\n      swap1\n        /* \"src/utils/DateTime.sol\":3054:3074  x509Time[offset + 6] */\n      0xf8\n      shr\n        /* \"src/utils/DateTime.sol\":3048:3080  uint8(x509Time[offset + 6]) - 48 */\n      tag_15\n      jump\t// in\n    tag_73:\n        /* \"src/utils/DateTime.sol\":3047:3098  (uint8(x509Time[offset + 6]) - 48) *... */\n      tag_74\n      swap1\n        /* \"src/utils/DateTime.sol\":3096:3098  10 */\n      0x0a\n        /* \"src/utils/DateTime.sol\":3047:3098  (uint8(x509Time[offset + 6]) - 48) *... */\n      tag_26\n      jump\t// in\n    tag_74:\n        /* \"src/utils/DateTime.sol\":3047:3140  (uint8(x509Time[offset + 6]) - 48) *... */\n      tag_75\n      swap2\n      swap1\n      tag_35\n      jump\t// in\n    tag_75:\n        /* \"src/utils/DateTime.sol\":3047:3157  (uint8(x509Time[offset + 6]) - 48) *... */\n      tag_76\n      swap2\n      swap1\n      tag_15\n      jump\t// in\n    tag_76:\n        /* \"src/utils/DateTime.sol\":3028:3157  hrs +=... */\n      tag_77\n      swap1\n      dup6\n      tag_35\n      jump\t// in\n    tag_77:\n      swap4\n      pop\n        /* \"src/utils/DateTime.sol\":3295:3297  48 */\n      0x30\n        /* \"src/utils/DateTime.sol\":3259:3267  x509Time */\n      dup10\n        /* \"src/utils/DateTime.sol\":3268:3278  offset + 9 */\n      tag_78\n        /* \"src/utils/DateTime.sol\":3268:3274  offset */\n      dup4\n        /* \"src/utils/DateTime.sol\":3277:3278  9 */\n      0x09\n        /* \"src/utils/DateTime.sol\":3268:3278  offset + 9 */\n      tag_35\n      jump\t// in\n    tag_78:\n        /* \"src/utils/DateTime.sol\":3259:3279  x509Time[offset + 9] */\n      0xff\n      and\n      dup2\n      mload\n      dup2\n      lt\n      tag_80\n      jumpi\n      tag_80\n      tag_13\n      jump\t// in\n    tag_80:\n      add\n      0x20\n      add\n      mload\n      0xf8\n      shr\n        /* \"src/utils/DateTime.sol\":3218:3220  48 */\n      0x30\n        /* \"src/utils/DateTime.sol\":3194:3202  x509Time */\n      dup12\n        /* \"src/utils/DateTime.sol\":3203:3213  offset + 8 */\n      tag_81\n        /* \"src/utils/DateTime.sol\":3203:3209  offset */\n      dup6\n        /* \"src/utils/DateTime.sol\":3212:3213  8 */\n      0x08\n        /* \"src/utils/DateTime.sol\":3203:3213  offset + 8 */\n      tag_35\n      jump\t// in\n    tag_81:\n        /* \"src/utils/DateTime.sol\":3194:3214  x509Time[offset + 8] */\n      0xff\n      and\n      dup2\n      mload\n      dup2\n      lt\n      tag_83\n      jumpi\n      tag_83\n      tag_13\n      jump\t// in\n    tag_83:\n      add\n      0x20\n      add\n      mload\n        /* \"src/utils/DateTime.sol\":3188:3220  uint8(x509Time[offset + 8]) - 48 */\n      tag_84\n      swap2\n      swap1\n        /* \"src/utils/DateTime.sol\":3194:3214  x509Time[offset + 8] */\n      0xf8\n      shr\n        /* \"src/utils/DateTime.sol\":3188:3220  uint8(x509Time[offset + 8]) - 48 */\n      tag_15\n      jump\t// in\n    tag_84:\n        /* \"src/utils/DateTime.sol\":3187:3238  (uint8(x509Time[offset + 8]) - 48) *... */\n      tag_85\n      swap1\n        /* \"src/utils/DateTime.sol\":3236:3238  10 */\n      0x0a\n        /* \"src/utils/DateTime.sol\":3187:3238  (uint8(x509Time[offset + 8]) - 48) *... */\n      tag_26\n      jump\t// in\n    tag_85:\n        /* \"src/utils/DateTime.sol\":3187:3280  (uint8(x509Time[offset + 8]) - 48) *... */\n      tag_86\n      swap2\n      swap1\n      tag_35\n      jump\t// in\n    tag_86:\n        /* \"src/utils/DateTime.sol\":3187:3297  (uint8(x509Time[offset + 8]) - 48) *... */\n      tag_87\n      swap2\n      swap1\n      tag_15\n      jump\t// in\n    tag_87:\n        /* \"src/utils/DateTime.sol\":3167:3297  mins +=... */\n      tag_88\n      swap1\n      dup5\n      tag_35\n      jump\t// in\n    tag_88:\n      swap3\n      pop\n        /* \"src/utils/DateTime.sol\":3437:3439  48 */\n      0x30\n        /* \"src/utils/DateTime.sol\":3400:3408  x509Time */\n      dup10\n        /* \"src/utils/DateTime.sol\":3409:3420  offset + 11 */\n      tag_89\n        /* \"src/utils/DateTime.sol\":3409:3415  offset */\n      dup4\n        /* \"src/utils/DateTime.sol\":3418:3420  11 */\n      0x0b\n        /* \"src/utils/DateTime.sol\":3409:3420  offset + 11 */\n      tag_35\n      jump\t// in\n    tag_89:\n        /* \"src/utils/DateTime.sol\":3400:3421  x509Time[offset + 11] */\n      0xff\n      and\n      dup2\n      mload\n      dup2\n      lt\n      tag_91\n      jumpi\n      tag_91\n      tag_13\n      jump\t// in\n    tag_91:\n      add\n      0x20\n      add\n      mload\n      0xf8\n      shr\n        /* \"src/utils/DateTime.sol\":3359:3361  48 */\n      0x30\n        /* \"src/utils/DateTime.sol\":3334:3342  x509Time */\n      dup12\n        /* \"src/utils/DateTime.sol\":3343:3354  offset + 10 */\n      tag_92\n        /* \"src/utils/DateTime.sol\":3343:3349  offset */\n      dup6\n        /* \"src/utils/DateTime.sol\":3352:3354  10 */\n      0x0a\n        /* \"src/utils/DateTime.sol\":3343:3354  offset + 10 */\n      tag_35\n      jump\t// in\n    tag_92:\n        /* \"src/utils/DateTime.sol\":3334:3355  x509Time[offset + 10] */\n      0xff\n      and\n      dup2\n      mload\n      dup2\n      lt\n      tag_94\n      jumpi\n      tag_94\n      tag_13\n      jump\t// in\n    tag_94:\n      add\n      0x20\n      add\n      mload\n        /* \"src/utils/DateTime.sol\":3328:3361  uint8(x509Time[offset + 10]) - 48 */\n      tag_95\n      swap2\n      swap1\n        /* \"src/utils/DateTime.sol\":3334:3355  x509Time[offset + 10] */\n      0xf8\n      shr\n        /* \"src/utils/DateTime.sol\":3328:3361  uint8(x509Time[offset + 10]) - 48 */\n      tag_15\n      jump\t// in\n    tag_95:\n        /* \"src/utils/DateTime.sol\":3327:3379  (uint8(x509Time[offset + 10]) - 48) *... */\n      tag_96\n      swap1\n        /* \"src/utils/DateTime.sol\":3377:3379  10 */\n      0x0a\n        /* \"src/utils/DateTime.sol\":3327:3379  (uint8(x509Time[offset + 10]) - 48) *... */\n      tag_26\n      jump\t// in\n    tag_96:\n        /* \"src/utils/DateTime.sol\":3327:3422  (uint8(x509Time[offset + 10]) - 48) *... */\n      tag_97\n      swap2\n      swap1\n      tag_35\n      jump\t// in\n    tag_97:\n        /* \"src/utils/DateTime.sol\":3327:3439  (uint8(x509Time[offset + 10]) - 48) *... */\n      tag_98\n      swap2\n      swap1\n      tag_15\n      jump\t// in\n    tag_98:\n        /* \"src/utils/DateTime.sol\":3307:3439  secs +=... */\n      tag_99\n      swap1\n      dup4\n      tag_35\n      jump\t// in\n    tag_99:\n      swap2\n      pop\n        /* \"src/utils/DateTime.sol\":3457:3502  toTimestamp(yrs, mnths, dys, hrs, mins, secs) */\n      tag_100\n        /* \"src/utils/DateTime.sol\":3469:3472  yrs */\n      dup8\n        /* \"src/utils/DateTime.sol\":3474:3479  mnths */\n      dup8\n        /* \"src/utils/DateTime.sol\":3481:3484  dys */\n      dup8\n        /* \"src/utils/DateTime.sol\":3486:3489  hrs */\n      dup8\n        /* \"src/utils/DateTime.sol\":3491:3495  mins */\n      dup8\n        /* \"src/utils/DateTime.sol\":3497:3501  secs */\n      dup8\n        /* \"src/utils/DateTime.sol\":3457:3468  toTimestamp */\n      tag_101\n        /* \"src/utils/DateTime.sol\":3457:3502  toTimestamp(yrs, mnths, dys, hrs, mins, secs) */\n      jump\t// in\n    tag_100:\n        /* \"src/utils/DateTime.sol\":3450:3502  return toTimestamp(yrs, mnths, dys, hrs, mins, secs) */\n      swap10\n        /* \"src/utils/DateTime.sol\":2057:3509  function toTimestamp(bytes memory x509Time) public pure returns (uint256) {... */\n      swap9\n      pop\n      pop\n      pop\n      pop\n      pop\n      pop\n      pop\n      pop\n      pop\n      jump\t// out\n        /* \"src/utils/DateTime.sol\":662:2051  function toTimestamp(... */\n    tag_101:\n        /* \"src/utils/DateTime.sol\":836:853  uint256 timestamp */\n      0x00\n        /* \"src/utils/DateTime.sol\":358:362  1970 */\n      0x07b2\n        /* \"src/utils/DateTime.sol\":900:1113  for (i = ORIGIN_YEAR; i < year; i++) {... */\n    tag_103:\n        /* \"src/utils/DateTime.sol\":926:930  year */\n      dup8\n        /* \"src/utils/DateTime.sol\":922:930  i < year */\n      0xffff\n      and\n        /* \"src/utils/DateTime.sol\":922:923  i */\n      dup2\n        /* \"src/utils/DateTime.sol\":922:930  i < year */\n      0xffff\n      and\n      lt\n        /* \"src/utils/DateTime.sol\":900:1113  for (i = ORIGIN_YEAR; i < year; i++) {... */\n      iszero\n      tag_104\n      jumpi\n        /* \"src/utils/DateTime.sol\":955:968  isLeapYear(i) */\n      tag_106\n        /* \"src/utils/DateTime.sol\":966:967  i */\n      dup2\n        /* \"src/utils/DateTime.sol\":955:965  isLeapYear */\n      tag_107\n        /* \"src/utils/DateTime.sol\":955:968  isLeapYear(i) */\n      jump\t// in\n    tag_106:\n        /* \"src/utils/DateTime.sol\":951:1103  if (isLeapYear(i)) {... */\n      iszero\n      tag_108\n      jumpi\n        /* \"src/utils/DateTime.sol\":988:1021  timestamp += LEAP_YEAR_IN_SECONDS */\n      tag_109\n        /* \"src/utils/DateTime.sol\":222:230  31622400 */\n      0x01e28500\n        /* \"src/utils/DateTime.sol\":988:1021  timestamp += LEAP_YEAR_IN_SECONDS */\n      dup4\n      tag_110\n      jump\t// in\n    tag_109:\n      swap2\n      pop\n        /* \"src/utils/DateTime.sol\":951:1103  if (isLeapYear(i)) {... */\n      jump(tag_111)\n    tag_108:\n        /* \"src/utils/DateTime.sol\":1060:1088  timestamp += YEAR_IN_SECONDS */\n      tag_112\n        /* \"src/utils/DateTime.sol\":168:176  31536000 */\n      0x01e13380\n        /* \"src/utils/DateTime.sol\":1060:1088  timestamp += YEAR_IN_SECONDS */\n      dup4\n      tag_110\n      jump\t// in\n    tag_112:\n      swap2\n      pop\n        /* \"src/utils/DateTime.sol\":951:1103  if (isLeapYear(i)) {... */\n    tag_111:\n        /* \"src/utils/DateTime.sol\":932:935  i++ */\n      dup1\n      tag_113\n      dup2\n      tag_114\n      jump\t// in\n    tag_113:\n      swap2\n      pop\n      pop\n        /* \"src/utils/DateTime.sol\":900:1113  for (i = ORIGIN_YEAR; i < year; i++) {... */\n      jump(tag_103)\n    tag_104:\n        /* \"src/utils/DateTime.sol\":1140:1171  uint8[12] memory monthDayCounts */\n      tag_115\n      tag_116\n      jump\t// in\n    tag_115:\n        /* \"src/utils/DateTime.sol\":1201:1203  31 */\n      0x1f\n        /* \"src/utils/DateTime.sol\":1181:1203  monthDayCounts[0] = 31 */\n      dup2\n      mstore\n        /* \"src/utils/DateTime.sol\":1217:1233  isLeapYear(year) */\n      tag_119\n        /* \"src/utils/DateTime.sol\":1228:1232  year */\n      dup10\n        /* \"src/utils/DateTime.sol\":1217:1227  isLeapYear */\n      tag_107\n        /* \"src/utils/DateTime.sol\":1217:1233  isLeapYear(year) */\n      jump\t// in\n    tag_119:\n        /* \"src/utils/DateTime.sol\":1213:1335  if (isLeapYear(year)) {... */\n      iszero\n      tag_120\n      jumpi\n        /* \"src/utils/DateTime.sol\":1269:1271  29 */\n      0x1d\n        /* \"src/utils/DateTime.sol\":1249:1266  monthDayCounts[1] */\n      0x20\n      dup3\n      add\n        /* \"src/utils/DateTime.sol\":1249:1271  monthDayCounts[1] = 29 */\n      mstore\n        /* \"src/utils/DateTime.sol\":1213:1335  if (isLeapYear(year)) {... */\n      jump(tag_123)\n    tag_120:\n        /* \"src/utils/DateTime.sol\":1322:1324  28 */\n      0x1c\n        /* \"src/utils/DateTime.sol\":1302:1319  monthDayCounts[1] */\n      0x20\n      dup3\n      add\n        /* \"src/utils/DateTime.sol\":1302:1324  monthDayCounts[1] = 28 */\n      mstore\n        /* \"src/utils/DateTime.sol\":1213:1335  if (isLeapYear(year)) {... */\n    tag_123:\n        /* \"src/utils/DateTime.sol\":1364:1366  31 */\n      0x1f\n        /* \"src/utils/DateTime.sol\":1344:1361  monthDayCounts[2] */\n      0x40\n      dup3\n      add\n        /* \"src/utils/DateTime.sol\":1344:1366  monthDayCounts[2] = 31 */\n      dup2\n      swap1\n      mstore\n        /* \"src/utils/DateTime.sol\":1396:1398  30 */\n      0x1e\n        /* \"src/utils/DateTime.sol\":1376:1393  monthDayCounts[3] */\n      0x60\n      dup4\n      add\n        /* \"src/utils/DateTime.sol\":1376:1398  monthDayCounts[3] = 30 */\n      dup2\n      swap1\n      mstore\n        /* \"src/utils/DateTime.sol\":1408:1425  monthDayCounts[4] */\n      0x80\n      dup4\n      add\n        /* \"src/utils/DateTime.sol\":1408:1430  monthDayCounts[4] = 31 */\n      dup3\n      swap1\n      mstore\n        /* \"src/utils/DateTime.sol\":1440:1457  monthDayCounts[5] */\n      0xa0\n      dup4\n      add\n        /* \"src/utils/DateTime.sol\":1440:1462  monthDayCounts[5] = 30 */\n      dup2\n      swap1\n      mstore\n        /* \"src/utils/DateTime.sol\":1472:1489  monthDayCounts[6] */\n      0xc0\n      dup4\n      add\n        /* \"src/utils/DateTime.sol\":1472:1494  monthDayCounts[6] = 31 */\n      dup3\n      swap1\n      mstore\n        /* \"src/utils/DateTime.sol\":1504:1521  monthDayCounts[7] */\n      0xe0\n      dup4\n      add\n        /* \"src/utils/DateTime.sol\":1504:1526  monthDayCounts[7] = 31 */\n      dup3\n      swap1\n      mstore\n        /* \"src/utils/DateTime.sol\":1536:1553  monthDayCounts[8] */\n      0x0100\n      dup4\n      add\n        /* \"src/utils/DateTime.sol\":1536:1558  monthDayCounts[8] = 30 */\n      dup2\n      swap1\n      mstore\n        /* \"src/utils/DateTime.sol\":1568:1585  monthDayCounts[9] */\n      0x0120\n      dup4\n      add\n        /* \"src/utils/DateTime.sol\":1568:1590  monthDayCounts[9] = 31 */\n      dup3\n      swap1\n      mstore\n        /* \"src/utils/DateTime.sol\":1600:1618  monthDayCounts[10] */\n      0x0140\n      dup4\n      add\n        /* \"src/utils/DateTime.sol\":1600:1623  monthDayCounts[10] = 30 */\n      mstore\n        /* \"src/utils/DateTime.sol\":1633:1651  monthDayCounts[11] */\n      0x0160\n      dup3\n      add\n        /* \"src/utils/DateTime.sol\":1633:1656  monthDayCounts[11] = 31 */\n      mstore\n        /* \"src/utils/DateTime.sol\":1676:1677  1 */\n      0x01\n      swap2\n      pop\n        /* \"src/utils/DateTime.sol\":1667:1771  for (i = 1; i < month; i++) {... */\n    tag_146:\n        /* \"src/utils/DateTime.sol\":1683:1688  month */\n      dup8\n        /* \"src/utils/DateTime.sol\":1679:1688  i < month */\n      0xff\n      and\n        /* \"src/utils/DateTime.sol\":1679:1680  i */\n      dup3\n        /* \"src/utils/DateTime.sol\":1679:1688  i < month */\n      0xffff\n      and\n      lt\n        /* \"src/utils/DateTime.sol\":1667:1771  for (i = 1; i < month; i++) {... */\n      iszero\n      tag_147\n      jumpi\n        /* \"src/utils/DateTime.sol\":1739:1753  monthDayCounts */\n      dup1\n        /* \"src/utils/DateTime.sol\":1754:1759  i - 1 */\n      tag_149\n        /* \"src/utils/DateTime.sol\":1758:1759  1 */\n      0x01\n        /* \"src/utils/DateTime.sol\":1754:1755  i */\n      dup5\n        /* \"src/utils/DateTime.sol\":1754:1759  i - 1 */\n      tag_150\n      jump\t// in\n    tag_149:\n        /* \"src/utils/DateTime.sol\":1739:1760  monthDayCounts[i - 1] */\n      0xffff\n      and\n      0x0c\n      dup2\n      lt\n      tag_152\n      jumpi\n      tag_152\n      tag_13\n      jump\t// in\n    tag_152:\n      0x20\n      mul\n      add\n      mload\n        /* \"src/utils/DateTime.sol\":1722:1760  DAY_IN_SECONDS * monthDayCounts[i - 1] */\n      tag_153\n      swap1\n      0xff\n      and\n        /* \"src/utils/DateTime.sol\":122:127  86400 */\n      0x015180\n        /* \"src/utils/DateTime.sol\":1722:1760  DAY_IN_SECONDS * monthDayCounts[i - 1] */\n      tag_154\n      jump\t// in\n    tag_153:\n        /* \"src/utils/DateTime.sol\":1709:1760  timestamp += DAY_IN_SECONDS * monthDayCounts[i - 1] */\n      tag_155\n      swap1\n      dup5\n      tag_110\n      jump\t// in\n    tag_155:\n      swap3\n      pop\n        /* \"src/utils/DateTime.sol\":1690:1693  i++ */\n      dup2\n      tag_156\n      dup2\n      tag_114\n      jump\t// in\n    tag_156:\n      swap3\n      pop\n      pop\n        /* \"src/utils/DateTime.sol\":1667:1771  for (i = 1; i < month; i++) {... */\n      jump(tag_146)\n    tag_147:\n        /* \"src/utils/DateTime.sol\":1827:1834  day - 1 */\n      tag_157\n        /* \"src/utils/DateTime.sol\":1833:1834  1 */\n      0x01\n        /* \"src/utils/DateTime.sol\":1827:1830  day */\n      dup9\n        /* \"src/utils/DateTime.sol\":1827:1834  day - 1 */\n      tag_15\n      jump\t// in\n    tag_157:\n        /* \"src/utils/DateTime.sol\":1809:1835  DAY_IN_SECONDS * (day - 1) */\n      tag_158\n      swap1\n      0xff\n      and\n        /* \"src/utils/DateTime.sol\":122:127  86400 */\n      0x015180\n        /* \"src/utils/DateTime.sol\":1809:1835  DAY_IN_SECONDS * (day - 1) */\n      tag_154\n      jump\t// in\n    tag_158:\n        /* \"src/utils/DateTime.sol\":1796:1835  timestamp += DAY_IN_SECONDS * (day - 1) */\n      tag_159\n      swap1\n      dup5\n      tag_110\n      jump\t// in\n    tag_159:\n      swap3\n      pop\n        /* \"src/utils/DateTime.sol\":1875:1899  HOUR_IN_SECONDS * (hour) */\n      tag_160\n      0xff\n      dup8\n      and\n        /* \"src/utils/DateTime.sol\":272:276  3600 */\n      0x0e10\n        /* \"src/utils/DateTime.sol\":1875:1899  HOUR_IN_SECONDS * (hour) */\n      tag_154\n      jump\t// in\n    tag_160:\n        /* \"src/utils/DateTime.sol\":1862:1899  timestamp += HOUR_IN_SECONDS * (hour) */\n      tag_161\n      swap1\n      dup5\n      tag_110\n      jump\t// in\n    tag_161:\n      swap3\n      pop\n        /* \"src/utils/DateTime.sol\":1941:1969  MINUTE_IN_SECONDS * (minute) */\n      tag_162\n      0xff\n      dup7\n      and\n        /* \"src/utils/DateTime.sol\":319:321  60 */\n      0x3c\n        /* \"src/utils/DateTime.sol\":1941:1969  MINUTE_IN_SECONDS * (minute) */\n      tag_154\n      jump\t// in\n    tag_162:\n        /* \"src/utils/DateTime.sol\":1928:1969  timestamp += MINUTE_IN_SECONDS * (minute) */\n      tag_163\n      swap1\n      dup5\n      tag_110\n      jump\t// in\n    tag_163:\n      swap3\n      pop\n        /* \"src/utils/DateTime.sol\":1998:2017  timestamp += second */\n      tag_100\n      0xff\n      dup6\n      and\n        /* \"src/utils/DateTime.sol\":1928:1969  timestamp += MINUTE_IN_SECONDS * (minute) */\n      dup5\n        /* \"src/utils/DateTime.sol\":1998:2017  timestamp += second */\n      tag_110\n      jump\t// in\n        /* \"src/utils/DateTime.sol\":369:656  function isLeapYear(uint16 year) private pure returns (bool) {... */\n    tag_107:\n        /* \"src/utils/DateTime.sol\":424:428  bool */\n      0x00\n        /* \"src/utils/DateTime.sol\":444:452  year % 4 */\n      tag_166\n        /* \"src/utils/DateTime.sol\":451:452  4 */\n      0x04\n        /* \"src/utils/DateTime.sol\":444:448  year */\n      dup4\n        /* \"src/utils/DateTime.sol\":444:452  year % 4 */\n      tag_167\n      jump\t// in\n    tag_166:\n        /* \"src/utils/DateTime.sol\":444:457  year % 4 != 0 */\n      0xffff\n      and\n      iszero\n        /* \"src/utils/DateTime.sol\":440:496  if (year % 4 != 0) {... */\n      tag_168\n      jumpi\n      pop\n        /* \"src/utils/DateTime.sol\":480:485  false */\n      0x00\n      swap2\n        /* \"src/utils/DateTime.sol\":369:656  function isLeapYear(uint16 year) private pure returns (bool) {... */\n      swap1\n      pop\n      jump\t// out\n        /* \"src/utils/DateTime.sol\":440:496  if (year % 4 != 0) {... */\n    tag_168:\n        /* \"src/utils/DateTime.sol\":509:519  year % 100 */\n      tag_169\n        /* \"src/utils/DateTime.sol\":516:519  100 */\n      0x64\n        /* \"src/utils/DateTime.sol\":509:513  year */\n      dup4\n        /* \"src/utils/DateTime.sol\":509:519  year % 100 */\n      tag_167\n      jump\t// in\n    tag_169:\n        /* \"src/utils/DateTime.sol\":509:524  year % 100 != 0 */\n      0xffff\n      and\n      iszero\n        /* \"src/utils/DateTime.sol\":505:562  if (year % 100 != 0) {... */\n      tag_170\n      jumpi\n      pop\n        /* \"src/utils/DateTime.sol\":547:551  true */\n      0x01\n      swap2\n        /* \"src/utils/DateTime.sol\":369:656  function isLeapYear(uint16 year) private pure returns (bool) {... */\n      swap1\n      pop\n      jump\t// out\n        /* \"src/utils/DateTime.sol\":505:562  if (year % 100 != 0) {... */\n    tag_170:\n        /* \"src/utils/DateTime.sol\":575:585  year % 400 */\n      tag_171\n        /* \"src/utils/DateTime.sol\":582:585  400 */\n      0x0190\n        /* \"src/utils/DateTime.sol\":575:579  year */\n      dup4\n        /* \"src/utils/DateTime.sol\":575:585  year % 400 */\n      tag_167\n      jump\t// in\n    tag_171:\n        /* \"src/utils/DateTime.sol\":575:590  year % 400 != 0 */\n      0xffff\n      and\n      iszero\n        /* \"src/utils/DateTime.sol\":571:629  if (year % 400 != 0) {... */\n      tag_172\n      jumpi\n      pop\n        /* \"src/utils/DateTime.sol\":613:618  false */\n      0x00\n      swap2\n        /* \"src/utils/DateTime.sol\":369:656  function isLeapYear(uint16 year) private pure returns (bool) {... */\n      swap1\n      pop\n      jump\t// out\n        /* \"src/utils/DateTime.sol\":571:629  if (year % 400 != 0) {... */\n    tag_172:\n      pop\n        /* \"src/utils/DateTime.sol\":645:649  true */\n      0x01\n      swap2\n        /* \"src/utils/DateTime.sol\":369:656  function isLeapYear(uint16 year) private pure returns (bool) {... */\n      swap1\n      pop\n      jump\t// out\n    tag_116:\n      mload(0x40)\n      dup1\n      0x0180\n      add\n      0x40\n      mstore\n      dup1\n      0x0c\n      swap1\n      0x20\n      dup3\n      mul\n      dup1\n      calldatasize\n      dup4\n      calldatacopy\n      pop\n      swap2\n      swap3\n      swap2\n      pop\n      pop\n      jump\t// out\n        /* \"#utility.yul\":14:141   */\n    tag_173:\n        /* \"#utility.yul\":75:85   */\n      0x4e487b71\n        /* \"#utility.yul\":70:73   */\n      0xe0\n        /* \"#utility.yul\":66:86   */\n      shl\n        /* \"#utility.yul\":63:64   */\n      0x00\n        /* \"#utility.yul\":56:87   */\n      mstore\n        /* \"#utility.yul\":106:110   */\n      0x41\n        /* \"#utility.yul\":103:104   */\n      0x04\n        /* \"#utility.yul\":96:111   */\n      mstore\n        /* \"#utility.yul\":130:134   */\n      0x24\n        /* \"#utility.yul\":127:128   */\n      0x00\n        /* \"#utility.yul\":120:135   */\n      revert\n        /* \"#utility.yul\":146:1067   */\n    tag_5:\n        /* \"#utility.yul\":214:220   */\n      0x00\n        /* \"#utility.yul\":267:269   */\n      0x20\n        /* \"#utility.yul\":255:264   */\n      dup3\n        /* \"#utility.yul\":246:253   */\n      dup5\n        /* \"#utility.yul\":242:265   */\n      sub\n        /* \"#utility.yul\":238:270   */\n      slt\n        /* \"#utility.yul\":235:287   */\n      iszero\n      tag_178\n      jumpi\n        /* \"#utility.yul\":283:284   */\n      0x00\n        /* \"#utility.yul\":280:281   */\n      dup1\n        /* \"#utility.yul\":273:285   */\n      revert\n        /* \"#utility.yul\":235:287   */\n    tag_178:\n        /* \"#utility.yul\":323:332   */\n      dup2\n        /* \"#utility.yul\":310:333   */\n      calldataload\n        /* \"#utility.yul\":352:370   */\n      0xffffffffffffffff\n        /* \"#utility.yul\":393:395   */\n      dup1\n        /* \"#utility.yul\":385:391   */\n      dup3\n        /* \"#utility.yul\":382:396   */\n      gt\n        /* \"#utility.yul\":379:413   */\n      iszero\n      tag_179\n      jumpi\n        /* \"#utility.yul\":409:410   */\n      0x00\n        /* \"#utility.yul\":406:407   */\n      dup1\n        /* \"#utility.yul\":399:411   */\n      revert\n        /* \"#utility.yul\":379:413   */\n    tag_179:\n        /* \"#utility.yul\":447:453   */\n      dup2\n        /* \"#utility.yul\":436:445   */\n      dup5\n        /* \"#utility.yul\":432:454   */\n      add\n        /* \"#utility.yul\":422:454   */\n      swap2\n      pop\n        /* \"#utility.yul\":492:499   */\n      dup5\n        /* \"#utility.yul\":485:489   */\n      0x1f\n        /* \"#utility.yul\":481:483   */\n      dup4\n        /* \"#utility.yul\":477:490   */\n      add\n        /* \"#utility.yul\":473:500   */\n      slt\n        /* \"#utility.yul\":463:518   */\n      tag_180\n      jumpi\n        /* \"#utility.yul\":514:515   */\n      0x00\n        /* \"#utility.yul\":511:512   */\n      dup1\n        /* \"#utility.yul\":504:516   */\n      revert\n        /* \"#utility.yul\":463:518   */\n    tag_180:\n        /* \"#utility.yul\":550:552   */\n      dup2\n        /* \"#utility.yul\":537:553   */\n      calldataload\n        /* \"#utility.yul\":572:574   */\n      dup2\n        /* \"#utility.yul\":568:570   */\n      dup2\n        /* \"#utility.yul\":565:575   */\n      gt\n        /* \"#utility.yul\":562:598   */\n      iszero\n      tag_182\n      jumpi\n        /* \"#utility.yul\":578:596   */\n      tag_182\n      tag_173\n      jump\t// in\n    tag_182:\n        /* \"#utility.yul\":653:655   */\n      0x40\n        /* \"#utility.yul\":647:656   */\n      mload\n        /* \"#utility.yul\":621:623   */\n      0x1f\n        /* \"#utility.yul\":707:720   */\n      dup3\n      add\n      not(0x1f)\n        /* \"#utility.yul\":703:725   */\n      swap1\n      dup2\n      and\n        /* \"#utility.yul\":727:729   */\n      0x3f\n        /* \"#utility.yul\":699:730   */\n      add\n        /* \"#utility.yul\":695:735   */\n      and\n        /* \"#utility.yul\":683:736   */\n      dup2\n      add\n      swap1\n        /* \"#utility.yul\":751:769   */\n      dup4\n      dup3\n      gt\n        /* \"#utility.yul\":771:793   */\n      dup2\n      dup4\n      lt\n        /* \"#utility.yul\":748:794   */\n      or\n        /* \"#utility.yul\":745:817   */\n      iszero\n      tag_184\n      jumpi\n        /* \"#utility.yul\":797:815   */\n      tag_184\n      tag_173\n      jump\t// in\n    tag_184:\n        /* \"#utility.yul\":837:847   */\n      dup2\n        /* \"#utility.yul\":833:835   */\n      0x40\n        /* \"#utility.yul\":826:848   */\n      mstore\n        /* \"#utility.yul\":872:874   */\n      dup3\n        /* \"#utility.yul\":864:870   */\n      dup2\n        /* \"#utility.yul\":857:875   */\n      mstore\n        /* \"#utility.yul\":912:919   */\n      dup8\n        /* \"#utility.yul\":907:909   */\n      0x20\n        /* \"#utility.yul\":902:904   */\n      dup5\n        /* \"#utility.yul\":898:900   */\n      dup8\n        /* \"#utility.yul\":894:905   */\n      add\n        /* \"#utility.yul\":890:910   */\n      add\n        /* \"#utility.yul\":887:920   */\n      gt\n        /* \"#utility.yul\":884:937   */\n      iszero\n      tag_185\n      jumpi\n        /* \"#utility.yul\":933:934   */\n      0x00\n        /* \"#utility.yul\":930:931   */\n      dup1\n        /* \"#utility.yul\":923:935   */\n      revert\n        /* \"#utility.yul\":884:937   */\n    tag_185:\n        /* \"#utility.yul\":989:991   */\n      dup3\n        /* \"#utility.yul\":984:986   */\n      0x20\n        /* \"#utility.yul\":980:982   */\n      dup7\n        /* \"#utility.yul\":976:987   */\n      add\n        /* \"#utility.yul\":971:973   */\n      0x20\n        /* \"#utility.yul\":963:969   */\n      dup4\n        /* \"#utility.yul\":959:974   */\n      add\n        /* \"#utility.yul\":946:992   */\n      calldatacopy\n        /* \"#utility.yul\":1034:1035   */\n      0x00\n        /* \"#utility.yul\":1012:1027   */\n      swap3\n      dup2\n      add\n        /* \"#utility.yul\":1029:1031   */\n      0x20\n        /* \"#utility.yul\":1008:1032   */\n      add\n        /* \"#utility.yul\":1001:1036   */\n      swap3\n      swap1\n      swap3\n      mstore\n      pop\n        /* \"#utility.yul\":1016:1022   */\n      swap6\n        /* \"#utility.yul\":146:1067   */\n      swap5\n      pop\n      pop\n      pop\n      pop\n      pop\n      jump\t// out\n        /* \"#utility.yul\":1262:1389   */\n    tag_13:\n        /* \"#utility.yul\":1323:1333   */\n      0x4e487b71\n        /* \"#utility.yul\":1318:1321   */\n      0xe0\n        /* \"#utility.yul\":1314:1334   */\n      shl\n        /* \"#utility.yul\":1311:1312   */\n      0x00\n        /* \"#utility.yul\":1304:1335   */\n      mstore\n        /* \"#utility.yul\":1354:1358   */\n      0x32\n        /* \"#utility.yul\":1351:1352   */\n      0x04\n        /* \"#utility.yul\":1344:1359   */\n      mstore\n        /* \"#utility.yul\":1378:1382   */\n      0x24\n        /* \"#utility.yul\":1375:1376   */\n      0x00\n        /* \"#utility.yul\":1368:1383   */\n      revert\n        /* \"#utility.yul\":1394:1521   */\n    tag_174:\n        /* \"#utility.yul\":1455:1465   */\n      0x4e487b71\n        /* \"#utility.yul\":1450:1453   */\n      0xe0\n        /* \"#utility.yul\":1446:1466   */\n      shl\n        /* \"#utility.yul\":1443:1444   */\n      0x00\n        /* \"#utility.yul\":1436:1467   */\n      mstore\n        /* \"#utility.yul\":1486:1490   */\n      0x11\n        /* \"#utility.yul\":1483:1484   */\n      0x04\n        /* \"#utility.yul\":1476:1491   */\n      mstore\n        /* \"#utility.yul\":1510:1514   */\n      0x24\n        /* \"#utility.yul\":1507:1508   */\n      0x00\n        /* \"#utility.yul\":1500:1515   */\n      revert\n        /* \"#utility.yul\":1526:1721   */\n    tag_15:\n        /* \"#utility.yul\":1564:1568   */\n      0x00\n        /* \"#utility.yul\":1601:1605   */\n      0xff\n        /* \"#utility.yul\":1598:1599   */\n      dup3\n        /* \"#utility.yul\":1594:1606   */\n      and\n        /* \"#utility.yul\":1633:1637   */\n      0xff\n        /* \"#utility.yul\":1630:1631   */\n      dup5\n        /* \"#utility.yul\":1626:1638   */\n      and\n        /* \"#utility.yul\":1658:1661   */\n      dup1\n        /* \"#utility.yul\":1653:1656   */\n      dup3\n        /* \"#utility.yul\":1650:1662   */\n      lt\n        /* \"#utility.yul\":1647:1685   */\n      iszero\n      tag_191\n      jumpi\n        /* \"#utility.yul\":1665:1683   */\n      tag_191\n      tag_174\n      jump\t// in\n    tag_191:\n        /* \"#utility.yul\":1702:1715   */\n      swap1\n      sub\n      swap4\n        /* \"#utility.yul\":1526:1721   */\n      swap3\n      pop\n      pop\n      pop\n      jump\t// out\n        /* \"#utility.yul\":1726:1950   */\n    tag_18:\n        /* \"#utility.yul\":1765:1768   */\n      0x00\n        /* \"#utility.yul\":1793:1799   */\n      0xffff\n        /* \"#utility.yul\":1826:1828   */\n      dup1\n        /* \"#utility.yul\":1823:1824   */\n      dup4\n        /* \"#utility.yul\":1819:1829   */\n      and\n        /* \"#utility.yul\":1856:1858   */\n      dup2\n        /* \"#utility.yul\":1853:1854   */\n      dup6\n        /* \"#utility.yul\":1849:1859   */\n      and\n        /* \"#utility.yul\":1887:1890   */\n      dup1\n        /* \"#utility.yul\":1883:1885   */\n      dup4\n        /* \"#utility.yul\":1879:1891   */\n      sub\n        /* \"#utility.yul\":1874:1877   */\n      dup3\n        /* \"#utility.yul\":1871:1892   */\n      gt\n        /* \"#utility.yul\":1868:1915   */\n      iszero\n      tag_194\n      jumpi\n        /* \"#utility.yul\":1895:1913   */\n      tag_194\n      tag_174\n      jump\t// in\n    tag_194:\n        /* \"#utility.yul\":1931:1944   */\n      add\n      swap5\n        /* \"#utility.yul\":1726:1950   */\n      swap4\n      pop\n      pop\n      pop\n      pop\n      jump\t// out\n        /* \"#utility.yul\":1955:2193   */\n    tag_26:\n        /* \"#utility.yul\":1993:2000   */\n      0x00\n        /* \"#utility.yul\":2033:2037   */\n      0xff\n        /* \"#utility.yul\":2030:2031   */\n      dup3\n        /* \"#utility.yul\":2026:2038   */\n      and\n        /* \"#utility.yul\":2065:2069   */\n      0xff\n        /* \"#utility.yul\":2062:2063   */\n      dup5\n        /* \"#utility.yul\":2058:2070   */\n      and\n        /* \"#utility.yul\":2125:2128   */\n      dup2\n        /* \"#utility.yul\":2119:2123   */\n      0xff\n        /* \"#utility.yul\":2115:2129   */\n      div\n        /* \"#utility.yul\":2110:2113   */\n      dup2\n        /* \"#utility.yul\":2107:2130   */\n      gt\n        /* \"#utility.yul\":2100:2103   */\n      dup3\n        /* \"#utility.yul\":2093:2104   */\n      iszero\n        /* \"#utility.yul\":2086:2105   */\n      iszero\n        /* \"#utility.yul\":2082:2131   */\n      and\n        /* \"#utility.yul\":2079:2154   */\n      iszero\n      tag_197\n      jumpi\n        /* \"#utility.yul\":2134:2152   */\n      tag_197\n      tag_174\n      jump\t// in\n    tag_197:\n        /* \"#utility.yul\":2174:2187   */\n      mul\n      swap4\n        /* \"#utility.yul\":1955:2193   */\n      swap3\n      pop\n      pop\n      pop\n      jump\t// out\n        /* \"#utility.yul\":2198:2456   */\n    tag_31:\n        /* \"#utility.yul\":2237:2244   */\n      0x00\n        /* \"#utility.yul\":2269:2275   */\n      0xffff\n        /* \"#utility.yul\":2302:2304   */\n      dup1\n        /* \"#utility.yul\":2299:2300   */\n      dup4\n        /* \"#utility.yul\":2295:2305   */\n      and\n        /* \"#utility.yul\":2332:2334   */\n      dup2\n        /* \"#utility.yul\":2329:2330   */\n      dup6\n        /* \"#utility.yul\":2325:2335   */\n      and\n        /* \"#utility.yul\":2388:2391   */\n      dup2\n        /* \"#utility.yul\":2384:2386   */\n      dup4\n        /* \"#utility.yul\":2380:2392   */\n      div\n        /* \"#utility.yul\":2375:2378   */\n      dup2\n        /* \"#utility.yul\":2372:2393   */\n      gt\n        /* \"#utility.yul\":2365:2368   */\n      dup3\n        /* \"#utility.yul\":2358:2369   */\n      iszero\n        /* \"#utility.yul\":2351:2370   */\n      iszero\n        /* \"#utility.yul\":2347:2394   */\n      and\n        /* \"#utility.yul\":2344:2417   */\n      iszero\n      tag_200\n      jumpi\n        /* \"#utility.yul\":2397:2415   */\n      tag_200\n      tag_174\n      jump\t// in\n    tag_200:\n        /* \"#utility.yul\":2437:2450   */\n      mul\n      swap5\n        /* \"#utility.yul\":2198:2456   */\n      swap4\n      pop\n      pop\n      pop\n      pop\n      jump\t// out\n        /* \"#utility.yul\":2461:2665   */\n    tag_35:\n        /* \"#utility.yul\":2499:2502   */\n      0x00\n        /* \"#utility.yul\":2535:2539   */\n      0xff\n        /* \"#utility.yul\":2532:2533   */\n      dup3\n        /* \"#utility.yul\":2528:2540   */\n      and\n        /* \"#utility.yul\":2567:2571   */\n      0xff\n        /* \"#utility.yul\":2564:2565   */\n      dup5\n        /* \"#utility.yul\":2560:2572   */\n      and\n        /* \"#utility.yul\":2602:2605   */\n      dup1\n        /* \"#utility.yul\":2596:2600   */\n      0xff\n        /* \"#utility.yul\":2592:2606   */\n      sub\n        /* \"#utility.yul\":2587:2590   */\n      dup3\n        /* \"#utility.yul\":2584:2607   */\n      gt\n        /* \"#utility.yul\":2581:2630   */\n      iszero\n      tag_203\n      jumpi\n        /* \"#utility.yul\":2610:2628   */\n      tag_203\n      tag_174\n      jump\t// in\n    tag_203:\n        /* \"#utility.yul\":2646:2659   */\n      add\n      swap4\n        /* \"#utility.yul\":2461:2665   */\n      swap3\n      pop\n      pop\n      pop\n      jump\t// out\n        /* \"#utility.yul\":2670:2798   */\n    tag_110:\n        /* \"#utility.yul\":2710:2713   */\n      0x00\n        /* \"#utility.yul\":2741:2742   */\n      dup3\n        /* \"#utility.yul\":2737:2743   */\n      not\n        /* \"#utility.yul\":2734:2735   */\n      dup3\n        /* \"#utility.yul\":2731:2744   */\n      gt\n        /* \"#utility.yul\":2728:2767   */\n      iszero\n      tag_206\n      jumpi\n        /* \"#utility.yul\":2747:2765   */\n      tag_206\n      tag_174\n      jump\t// in\n    tag_206:\n      pop\n        /* \"#utility.yul\":2783:2792   */\n      add\n      swap1\n        /* \"#utility.yul\":2670:2798   */\n      jump\t// out\n        /* \"#utility.yul\":2803:3000   */\n    tag_114:\n        /* \"#utility.yul\":2841:2844   */\n      0x00\n        /* \"#utility.yul\":2869:2875   */\n      0xffff\n        /* \"#utility.yul\":2910:2912   */\n      dup1\n        /* \"#utility.yul\":2903:2908   */\n      dup4\n        /* \"#utility.yul\":2899:2913   */\n      and\n        /* \"#utility.yul\":2937:2939   */\n      dup2\n        /* \"#utility.yul\":2928:2935   */\n      dup2\n        /* \"#utility.yul\":2925:2940   */\n      sub\n        /* \"#utility.yul\":2922:2963   */\n      tag_209\n      jumpi\n        /* \"#utility.yul\":2943:2961   */\n      tag_209\n      tag_174\n      jump\t// in\n    tag_209:\n        /* \"#utility.yul\":2992:2993   */\n      0x01\n        /* \"#utility.yul\":2979:2994   */\n      add\n      swap4\n        /* \"#utility.yul\":2803:3000   */\n      swap3\n      pop\n      pop\n      pop\n      jump\t// out\n        /* \"#utility.yul\":3005:3222   */\n    tag_150:\n        /* \"#utility.yul\":3044:3048   */\n      0x00\n        /* \"#utility.yul\":3073:3079   */\n      0xffff\n        /* \"#utility.yul\":3129:3139   */\n      dup4\n      dup2\n      and\n      swap1\n        /* \"#utility.yul\":3099:3109   */\n      dup4\n      and\n        /* \"#utility.yul\":3151:3163   */\n      dup2\n      dup2\n      lt\n        /* \"#utility.yul\":3148:3186   */\n      iszero\n      tag_212\n      jumpi\n        /* \"#utility.yul\":3166:3184   */\n      tag_212\n      tag_174\n      jump\t// in\n    tag_212:\n        /* \"#utility.yul\":3203:3216   */\n      sub\n      swap4\n        /* \"#utility.yul\":3005:3222   */\n      swap3\n      pop\n      pop\n      pop\n      jump\t// out\n        /* \"#utility.yul\":3227:3395   */\n    tag_154:\n        /* \"#utility.yul\":3267:3274   */\n      0x00\n        /* \"#utility.yul\":3333:3334   */\n      dup2\n        /* \"#utility.yul\":3329:3330   */\n      0x00\n        /* \"#utility.yul\":3325:3331   */\n      not\n        /* \"#utility.yul\":3321:3335   */\n      div\n        /* \"#utility.yul\":3318:3319   */\n      dup4\n        /* \"#utility.yul\":3315:3336   */\n      gt\n        /* \"#utility.yul\":3310:3311   */\n      dup3\n        /* \"#utility.yul\":3303:3312   */\n      iszero\n        /* \"#utility.yul\":3296:3313   */\n      iszero\n        /* \"#utility.yul\":3292:3337   */\n      and\n        /* \"#utility.yul\":3289:3360   */\n      iszero\n      tag_215\n      jumpi\n        /* \"#utility.yul\":3340:3358   */\n      tag_215\n      tag_174\n      jump\t// in\n    tag_215:\n      pop\n        /* \"#utility.yul\":3380:3389   */\n      mul\n      swap1\n        /* \"#utility.yul\":3227:3395   */\n      jump\t// out\n        /* \"#utility.yul\":3400:3676   */\n    tag_167:\n        /* \"#utility.yul\":3431:3432   */\n      0x00\n        /* \"#utility.yul\":3457:3463   */\n      0xffff\n        /* \"#utility.yul\":3490:3492   */\n      dup1\n        /* \"#utility.yul\":3487:3488   */\n      dup5\n        /* \"#utility.yul\":3483:3493   */\n      and\n        /* \"#utility.yul\":3512:3515   */\n      dup1\n        /* \"#utility.yul\":3502:3636   */\n      tag_217\n      jumpi\n        /* \"#utility.yul\":3558:3568   */\n      0x4e487b71\n        /* \"#utility.yul\":3553:3556   */\n      0xe0\n        /* \"#utility.yul\":3549:3569   */\n      shl\n        /* \"#utility.yul\":3546:3547   */\n      0x00\n        /* \"#utility.yul\":3539:3570   */\n      mstore\n        /* \"#utility.yul\":3593:3597   */\n      0x12\n        /* \"#utility.yul\":3590:3591   */\n      0x04\n        /* \"#utility.yul\":3583:3598   */\n      mstore\n        /* \"#utility.yul\":3621:3625   */\n      0x24\n        /* \"#utility.yul\":3618:3619   */\n      0x00\n        /* \"#utility.yul\":3611:3626   */\n      revert\n        /* \"#utility.yul\":3502:3636   */\n    tag_217:\n        /* \"#utility.yul\":3654:3664   */\n      swap3\n      and\n        /* \"#utility.yul\":3650:3670   */\n      swap2\n      swap1\n      swap2\n      mod\n      swap3\n        /* \"#utility.yul\":3400:3676   */\n      swap2\n      pop\n      pop\n      jump\t// out\n\n    auxdata: 0xa2646970667358221220cc5ad34bc445e4a693b4142f082a687dc2d1dde5f18b8e1cef226a78935a195764736f6c634300080f0033\n}\n",
				"bytecode": {
					"linkReferences": {},
					"object": "61093f61003a600b82828239805160001a60731461002d57634e487b7160e01b600052600060045260246000fd5b30600052607381538281f3fe73000000000000000000000000000000000000000030146080604052600436106100355760003560e01c8063095385c61461003a575b600080fd5b61004d6100483660046106c1565b61005f565b60405190815260200160405180910390f35b6000806000806000806000808851600d036100c557600560308a60008151811061008b5761008b610772565b016020015161009d919060f81c61079e565b60ff1610156100b9576100b26107d0886107c1565b965061014b565b6100b261076c886107c1565b6030896001815181106100da576100da610772565b01602001516100ec919060f81c61079e565b6100f79060646107e7565b60ff1660308a60008151811061010f5761010f610772565b0160200151610121919060f81c61079e565b6101309060ff166103e8610810565b61013a91906107c1565b61014490886107c1565b9650600290505b60308961015983600161083a565b60ff168151811061016c5761016c610772565b016020015160f81c60308b61018285600061083a565b60ff168151811061019557610195610772565b01602001516101a7919060f81c61079e565b6101b290600a6107e7565b6101bc919061083a565b6101c6919061079e565b6101d39060ff16886107c1565b96506030896101e383600361083a565b60ff16815181106101f6576101f6610772565b016020015160f81c60308b61020c85600261083a565b60ff168151811061021f5761021f610772565b0160200151610231919060f81c61079e565b61023c90600a6107e7565b610246919061083a565b610250919061079e565b955060308961026083600561083a565b60ff168151811061027357610273610772565b016020015160f81c60308b61028985600461083a565b60ff168151811061029c5761029c610772565b01602001516102ae919060f81c61079e565b6102b990600a6107e7565b6102c3919061083a565b6102cd919061079e565b6102d7908661083a565b94506030896102e783600761083a565b60ff16815181106102fa576102fa610772565b016020015160f81c60308b61031085600661083a565b60ff168151811061032357610323610772565b0160200151610335919060f81c61079e565b61034090600a6107e7565b61034a919061083a565b610354919061079e565b61035e908561083a565b935060308961036e83600961083a565b60ff168151811061038157610381610772565b016020015160f81c60308b61039785600861083a565b60ff16815181106103aa576103aa610772565b01602001516103bc919060f81c61079e565b6103c790600a6107e7565b6103d1919061083a565b6103db919061079e565b6103e5908461083a565b92506030896103f583600b61083a565b60ff168151811061040857610408610772565b016020015160f81c60308b61041e85600a61083a565b60ff168151811061043157610431610772565b0160200151610443919060f81c61079e565b61044e90600a6107e7565b610458919061083a565b610462919061079e565b61046c908361083a565b915061047c878787878787610489565b9998505050505050505050565b60006107b25b8761ffff168161ffff1610156104e5576104a88161062d565b156104c2576104bb6301e285008361085f565b91506104d3565b6104d06301e133808361085f565b91505b806104dd81610877565b91505061048f565b6104ed61068c565b601f81526104fa8961062d565b1561050b57601d6020820152610513565b601c60208201525b601f60408201819052601e606083018190526080830182905260a0830181905260c0830182905260e0830182905261010083018190526101208301829052610140830152610160820152600191505b8760ff168261ffff1610156105c4578061057d600184610898565b61ffff16600c811061059157610591610772565b60200201516105a69060ff16620151806108bb565b6105b0908461085f565b9250816105bc81610877565b925050610562565b6105cf60018861079e565b6105df9060ff16620151806108bb565b6105e9908461085f565b92506105fa60ff8716610e106108bb565b610604908461085f565b925061061460ff8616603c6108bb565b61061e908461085f565b925061047c60ff85168461085f565b600061063a6004836108da565b61ffff161561064b57506000919050565b6106566064836108da565b61ffff161561066757506001919050565b610673610190836108da565b61ffff161561068457506000919050565b506001919050565b604051806101800160405280600c906020820280368337509192915050565b634e487b7160e01b600052604160045260246000fd5b6000602082840312156106d357600080fd5b813567ffffffffffffffff808211156106eb57600080fd5b818401915084601f8301126106ff57600080fd5b813581811115610711576107116106ab565b604051601f8201601f19908116603f01168101908382118183101715610739576107396106ab565b8160405282815287602084870101111561075257600080fd5b826020860160208301376000928101602001929092525095945050505050565b634e487b7160e01b600052603260045260246000fd5b634e487b7160e01b600052601160045260246000fd5b600060ff821660ff8416808210156107b8576107b8610788565b90039392505050565b600061ffff8083168185168083038211156107de576107de610788565b01949350505050565b600060ff821660ff84168160ff048111821515161561080857610808610788565b029392505050565b600061ffff8083168185168183048111821515161561083157610831610788565b02949350505050565b600060ff821660ff84168060ff0382111561085757610857610788565b019392505050565b6000821982111561087257610872610788565b500190565b600061ffff80831681810361088e5761088e610788565b6001019392505050565b600061ffff838116908316818110156108b3576108b3610788565b039392505050565b60008160001904831182151516156108d5576108d5610788565b500290565b600061ffff808416806108fd57634e487b7160e01b600052601260045260246000fd5b9216919091069291505056fea2646970667358221220cc5ad34bc445e4a693b4142f082a687dc2d1dde5f18b8e1cef226a78935a195764736f6c634300080f0033",
					"opcodes": "PUSH2 0x93F PUSH2 0x3A PUSH1 0xB DUP3 DUP3 DUP3 CODECOPY DUP1 MLOAD PUSH1 0x0 BYTE PUSH1 0x73 EQ PUSH2 0x2D JUMPI PUSH4 0x4E487B71 PUSH1 0xE0 SHL PUSH1 0x0 MSTORE PUSH1 0x0 PUSH1 0x4 MSTORE PUSH1 0x24 PUSH1 0x0 REVERT JUMPDEST ADDRESS PUSH1 0x0 MSTORE PUSH1 0x73 DUP2 MSTORE8 DUP3 DUP2 RETURN INVALID PUSH20 0x0 ADDRESS EQ PUSH1 0x80 PUSH1 0x40 MSTORE PUSH1 0x4 CALLDATASIZE LT PUSH2 0x35 JUMPI PUSH1 0x0 CALLDATALOAD PUSH1 0xE0 SHR DUP1 PUSH4 0x95385C6 EQ PUSH2 0x3A JUMPI JUMPDEST PUSH1 0x0 DUP1 REVERT JUMPDEST PUSH2 0x4D PUSH2 0x48 CALLDATASIZE PUSH1 0x4 PUSH2 0x6C1 JUMP JUMPDEST PUSH2 0x5F JUMP JUMPDEST PUSH1 0x40 MLOAD SWAP1 DUP2 MSTORE PUSH1 0x20 ADD PUSH1 0x40 MLOAD DUP1 SWAP2 SUB SWAP1 RETURN JUMPDEST PUSH1 0x0 DUP1 PUSH1 0x0 DUP1 PUSH1 0x0 DUP1 PUSH1 0x0 DUP1 DUP9 MLOAD PUSH1 0xD SUB PUSH2 0xC5 JUMPI PUSH1 0x5 PUSH1 0x30 DUP11 PUSH1 0x0 DUP2 MLOAD DUP2 LT PUSH2 0x8B JUMPI PUSH2 0x8B PUSH2 0x772 JUMP JUMPDEST ADD PUSH1 0x20 ADD MLOAD PUSH2 0x9D SWAP2 SWAP1 PUSH1 0xF8 SHR PUSH2 0x79E JUMP JUMPDEST PUSH1 0xFF AND LT ISZERO PUSH2 0xB9 JUMPI PUSH2 0xB2 PUSH2 0x7D0 DUP9 PUSH2 0x7C1 JUMP JUMPDEST SWAP7 POP PUSH2 0x14B JUMP JUMPDEST PUSH2 0xB2 PUSH2 0x76C DUP9 PUSH2 0x7C1 JUMP JUMPDEST PUSH1 0x30 DUP10 PUSH1 0x1 DUP2 MLOAD DUP2 LT PUSH2 0xDA JUMPI PUSH2 0xDA PUSH2 0x772 JUMP JUMPDEST ADD PUSH1 0x20 ADD MLOAD PUSH2 0xEC SWAP2 SWAP1 PUSH1 0xF8 SHR PUSH2 0x79E JUMP JUMPDEST PUSH2 0xF7 SWAP1 PUSH1 0x64 PUSH2 0x7E7 JUMP JUMPDEST PUSH1 0xFF AND PUSH1 0x30 DUP11 PUSH1 0x0 DUP2 MLOAD DUP2 LT PUSH2 0x10F JUMPI PUSH2 0x10F PUSH2 0x772 JUMP JUMPDEST ADD PUSH1 0x20 ADD MLOAD PUSH2 0x121 SWAP2 SWAP1 PUSH1 0xF8 SHR PUSH2 0x79E JUMP JUMPDEST PUSH2 0x130 SWAP1 PUSH1 0xFF AND PUSH2 0x3E8 PUSH2 0x810 JUMP JUMPDEST PUSH2 0x13A SWAP2 SWAP1 PUSH2 0x7C1 JUMP JUMPDEST PUSH2 0x144 SWAP1 DUP9 PUSH2 0x7C1 JUMP JUMPDEST SWAP7 POP PUSH1 0x2 SWAP1 POP JUMPDEST PUSH1 0x30 DUP10 PUSH2 0x159 DUP4 PUSH1 0x1 PUSH2 0x83A JUMP JUMPDEST PUSH1 0xFF AND DUP2 MLOAD DUP2 LT PUSH2 0x16C JUMPI PUSH2 0x16C PUSH2 0x772 JUMP JUMPDEST ADD PUSH1 0x20 ADD MLOAD PUSH1 0xF8 SHR PUSH1 0x30 DUP12 PUSH2 0x182 DUP6 PUSH1 0x0 PUSH2 0x83A JUMP JUMPDEST PUSH1 0xFF AND DUP2 MLOAD DUP2 LT PUSH2 0x195 JUMPI PUSH2 0x195 PUSH2 0x772 JUMP JUMPDEST ADD PUSH1 0x20 ADD MLOAD PUSH2 0x1A7 SWAP2 SWAP1 PUSH1 0xF8 SHR PUSH2 0x79E JUMP JUMPDEST PUSH2 0x1B2 SWAP1 PUSH1 0xA PUSH2 0x7E7 JUMP JUMPDEST PUSH2 0x1BC SWAP2 SWAP1 PUSH2 0x83A JUMP JUMPDEST PUSH2 0x1C6 SWAP2 SWAP1 PUSH2 0x79E JUMP JUMPDEST PUSH2 0x1D3 SWAP1 PUSH1 0xFF AND DUP9 PUSH2 0x7C1 JUMP JUMPDEST SWAP7 POP PUSH1 0x30 DUP10 PUSH2 0x1E3 DUP4 PUSH1 0x3 PUSH2 0x83A JUMP JUMPDEST PUSH1 0xFF AND DUP2 MLOAD DUP2 LT PUSH2 0x1F6 JUMPI PUSH2 0x1F6 PUSH2 0x772 JUMP JUMPDEST ADD PUSH1 0x20 ADD MLOAD PUSH1 0xF8 SHR PUSH1 0x30 DUP12 PUSH2 0x20C DUP6 PUSH1 0x2 PUSH2 0x83A JUMP JUMPDEST PUSH1 0xFF AND DUP2 MLOAD DUP2 LT PUSH2 0x21F JUMPI PUSH2 0x21F PUSH2 0x772 JUMP JUMPDEST ADD PUSH1 0x20 ADD MLOAD PUSH2 0x231 SWAP2 SWAP1 PUSH1 0xF8 SHR PUSH2 0x79E JUMP JUMPDEST PUSH2 0x23C SWAP1 PUSH1 0xA PUSH2 0x7E7 JUMP JUMPDEST PUSH2 0x246 SWAP2 SWAP1 PUSH2 0x83A JUMP JUMPDEST PUSH2 0x250 SWAP2 SWAP1 PUSH2 0x79E JUMP JUMPDEST SWAP6 POP PUSH1 0x30 DUP10 PUSH2 0x260 DUP4 PUSH1 0x5 PUSH2 0x83A JUMP JUMPDEST PUSH1 0xFF AND DUP2 MLOAD DUP2 LT PUSH2 0x273 JUMPI PUSH2 0x273 PUSH2 0x772 JUMP JUMPDEST ADD PUSH1 0x20 ADD MLOAD PUSH1 0xF8 SHR PUSH1 0x30 DUP12 PUSH2 0x289 DUP6 PUSH1 0x4 PUSH2 0x83A JUMP JUMPDEST PUSH1 0xFF AND DUP2 MLOAD DUP2 LT PUSH2 0x29C JUMPI PUSH2 0x29C PUSH2 0x772 JUMP JUMPDEST ADD PUSH1 0x20 ADD MLOAD PUSH2 0x2AE SWAP2 SWAP1 PUSH1 0xF8 SHR PUSH2 0x79E JUMP JUMPDEST PUSH2 0x2B9 SWAP1 PUSH1 0xA PUSH2 0x7E7 JUMP JUMPDEST PUSH2 0x2C3 SWAP2 SWAP1 PUSH2 0x83A JUMP JUMPDEST PUSH2 0x2CD SWAP2 SWAP1 PUSH2 0x79E JUMP JUMPDEST PUSH2 0x2D7 SWAP1 DUP7 PUSH2 0x83A JUMP JUMPDEST SWAP5 POP PUSH1 0x30 DUP10 PUSH2 0x2E7 DUP4 PUSH1 0x7 PUSH2 0x83A JUMP JUMPDEST PUSH1 0xFF AND DUP2 MLOAD DUP2 LT PUSH2 0x2FA JUMPI PUSH2 0x2FA PUSH2 0x772 JUMP JUMPDEST ADD PUSH1 0x20 ADD MLOAD PUSH1 0xF8 SHR PUSH1 0x30 DUP12 PUSH2 0x310 DUP6 PUSH1 0x6 PUSH2 0x83A JUMP JUMPDEST PUSH1 0xFF AND DUP2 MLOAD DUP2 LT PUSH2 0x323 JUMPI PUSH2 0x323 PUSH2 0x772 JUMP JUMPDEST ADD PUSH1 0x20 ADD MLOAD PUSH2 0x335 SWAP2 SWAP1 PUSH1 0xF8 SHR PUSH2 0x79E JUMP JUMPDEST PUSH2 0x340 SWAP1 PUSH1 0xA PUSH2 0x7E7 JUMP JUMPDEST PUSH2 0x34A SWAP2 SWAP1 PUSH2 0x83A JUMP JUMPDEST PUSH2 0x354 SWAP2 SWAP1 PUSH2 0x79E JUMP JUMPDEST PUSH2 0x35E SWAP1 DUP6 PUSH2 0x83A JUMP JUMPDEST SWAP4 POP PUSH1 0x30 DUP10 PUSH2 0x36E DUP4 PUSH1 0x9 PUSH2 0x83A JUMP JUMPDEST PUSH1 0xFF AND DUP2 MLOAD DUP2 LT PUSH2 0x381 JUMPI PUSH2 0x381 PUSH2 0x772 JUMP JUMPDEST ADD PUSH1 0x20 ADD MLOAD PUSH1 0xF8 SHR PUSH1 0x30 DUP12 PUSH2 0x397 DUP6 PUSH1 0x8 PUSH2 0x83A JUMP JUMPDEST PUSH1 0xFF AND DUP2 MLOAD DUP2 LT PUSH2 0x3AA JUMPI PUSH2 0x3AA PUSH2 0x772 JUMP JUMPDEST ADD PUSH1 0x20 ADD MLOAD PUSH2 0x3BC SWAP2 SWAP1 PUSH1 0xF8 SHR PUSH2 0x79E JUMP JUMPDEST PUSH2 0x3C7 SWAP1 PUSH1 0xA PUSH2 0x7E7 JUMP JUMPDEST PUSH2 0x3D1 SWAP2 SWAP1 PUSH2 0x83A JUMP JUMPDEST PUSH2 0x3DB SWAP2 SWAP1 PUSH2 0x79E JUMP JUMPDEST PUSH2 0x3E5 SWAP1 DUP5 PUSH2 0x83A JUMP JUMPDEST SWAP3 POP PUSH1 0x30 DUP10 PUSH2 0x3F5 DUP4 PUSH1 0xB PUSH2 0x83A JUMP JUMPDEST PUSH1 0xFF AND DUP2 MLOAD DUP2 LT PUSH2 0x408 JUMPI PUSH2 0x408 PUSH2 0x772 JUMP JUMPDEST ADD PUSH1 0x20 ADD MLOAD PUSH1 0xF8 SHR PUSH1 0x30 DUP12 PUSH2 0x41E DUP6 PUSH1 0xA PUSH2 0x83A JUMP JUMPDEST PUSH1 0xFF AND DUP2 MLOAD DUP2 LT PUSH2 0x431 JUMPI PUSH2 0x431 PUSH2 0x772 JUMP JUMPDEST ADD PUSH1 0x20 ADD MLOAD PUSH2 0x443 SWAP2 SWAP1 PUSH1 0xF8 SHR PUSH2 0x79E JUMP JUMPDEST PUSH2 0x44E SWAP1 PUSH1 0xA PUSH2 0x7E7 JUMP JUMPDEST PUSH2 0x458 SWAP2 SWAP1 PUSH2 0x83A JUMP JUMPDEST PUSH2 0x462 SWAP2 SWAP1 PUSH2 0x79E JUMP JUMPDEST PUSH2 0x46C SWAP1 DUP4 PUSH2 0x83A JUMP JUMPDEST SWAP2 POP PUSH2 0x47C DUP8 DUP8 DUP8 DUP8 DUP8 DUP8 PUSH2 0x489 JUMP JUMPDEST SWAP10 SWAP9 POP POP POP POP POP POP POP POP POP JUMP JUMPDEST PUSH1 0x0 PUSH2 0x7B2 JUMPDEST DUP8 PUSH2 0xFFFF AND DUP2 PUSH2 0xFFFF AND LT ISZERO PUSH2 0x4E5 JUMPI PUSH2 0x4A8 DUP2 PUSH2 0x62D JUMP JUMPDEST ISZERO PUSH2 0x4C2 JUMPI PUSH2 0x4BB PUSH4 0x1E28500 DUP4 PUSH2 0x85F JUMP JUMPDEST SWAP2 POP PUSH2 0x4D3 JUMP JUMPDEST PUSH2 0x4D0 PUSH4 0x1E13380 DUP4 PUSH2 0x85F JUMP JUMPDEST SWAP2 POP JUMPDEST DUP1 PUSH2 0x4DD DUP2 PUSH2 0x877 JUMP JUMPDEST SWAP2 POP POP PUSH2 0x48F JUMP JUMPDEST PUSH2 0x4ED PUSH2 0x68C JUMP JUMPDEST PUSH1 0x1F DUP2 MSTORE PUSH2 0x4FA DUP10 PUSH2 0x62D JUMP JUMPDEST ISZERO PUSH2 0x50B JUMPI PUSH1 0x1D PUSH1 0x20 DUP3 ADD MSTORE PUSH2 0x513 JUMP JUMPDEST PUSH1 0x1C PUSH1 0x20 DUP3 ADD MSTORE JUMPDEST PUSH1 0x1F PUSH1 0x40 DUP3 ADD DUP2 SWAP1 MSTORE PUSH1 0x1E PUSH1 0x60 DUP4 ADD DUP2 SWAP1 MSTORE PUSH1 0x80 DUP4 ADD DUP3 SWAP1 MSTORE PUSH1 0xA0 DUP4 ADD DUP2 SWAP1 MSTORE PUSH1 0xC0 DUP4 ADD DUP3 SWAP1 MSTORE PUSH1 0xE0 DUP4 ADD DUP3 SWAP1 MSTORE PUSH2 0x100 DUP4 ADD DUP2 SWAP1 MSTORE PUSH2 0x120 DUP4 ADD DUP3 SWAP1 MSTORE PUSH2 0x140 DUP4 ADD MSTORE PUSH2 0x160 DUP3 ADD MSTORE PUSH1 0x1 SWAP2 POP JUMPDEST DUP8 PUSH1 0xFF AND DUP3 PUSH2 0xFFFF AND LT ISZERO PUSH2 0x5C4 JUMPI DUP1 PUSH2 0x57D PUSH1 0x1 DUP5 PUSH2 0x898 JUMP JUMPDEST PUSH2 0xFFFF AND PUSH1 0xC DUP2 LT PUSH2 0x591 JUMPI PUSH2 0x591 PUSH2 0x772 JUMP JUMPDEST PUSH1 0x20 MUL ADD MLOAD PUSH2 0x5A6 SWAP1 PUSH1 0xFF AND PUSH3 0x15180 PUSH2 0x8BB JUMP JUMPDEST PUSH2 0x5B0 SWAP1 DUP5 PUSH2 0x85F JUMP JUMPDEST SWAP3 POP DUP2 PUSH2 0x5BC DUP2 PUSH2 0x877 JUMP JUMPDEST SWAP3 POP POP PUSH2 0x562 JUMP JUMPDEST PUSH2 0x5CF PUSH1 0x1 DUP9 PUSH2 0x79E JUMP JUMPDEST PUSH2 0x5DF SWAP1 PUSH1 0xFF AND PUSH3 0x15180 PUSH2 0x8BB JUMP JUMPDEST PUSH2 0x5E9 SWAP1 DUP5 PUSH2 0x85F JUMP JUMPDEST SWAP3 POP PUSH2 0x5FA PUSH1 0xFF DUP8 AND PUSH2 0xE10 PUSH2 0x8BB JUMP JUMPDEST PUSH2 0x604 SWAP1 DUP5 PUSH2 0x85F JUMP JUMPDEST SWAP3 POP PUSH2 0x614 PUSH1 0xFF DUP7 AND PUSH1 0x3C PUSH2 0x8BB JUMP JUMPDEST PUSH2 0x61E SWAP1 DUP5 PUSH2 0x85F JUMP JUMPDEST SWAP3 POP PUSH2 0x47C PUSH1 0xFF DUP6 AND DUP5 PUSH2 0x85F JUMP JUMPDEST PUSH1 0x0 PUSH2 0x63A PUSH1 0x4 DUP4 PUSH2 0x8DA JUMP JUMPDEST PUSH2 0xFFFF AND ISZERO PUSH2 0x64B JUMPI POP PUSH1 0x0 SWAP2 SWAP1 POP JUMP JUMPDEST PUSH2 0x656 PUSH1 0x64 DUP4 PUSH2 0x8DA JUMP JUMPDEST PUSH2 0xFFFF AND ISZERO PUSH2 0x667 JUMPI POP PUSH1 0x1 SWAP2 SWAP1 POP JUMP JUMPDEST PUSH2 0x673 PUSH2 0x190 DUP4 PUSH2 0x8DA JUMP JUMPDEST PUSH2 0xFFFF AND ISZERO PUSH2 0x684 JUMPI POP PUSH1 0x0 SWAP2 SWAP1 POP JUMP JUMPDEST POP PUSH1 0x1 SWAP2 SWAP1 POP JUMP JUMPDEST PUSH1 0x40 MLOAD DUP1 PUSH2 0x180 ADD PUSH1 0x40 MSTORE DUP1 PUSH1 0xC SWAP1 PUSH1 0x20 DUP3 MUL DUP1 CALLDATASIZE DUP4 CALLDATACOPY POP SWAP2 SWAP3 SWAP2 POP POP JUMP JUMPDEST PUSH4 0x4E487B71 PUSH1 0xE0 SHL PUSH1 0x0 MSTORE PUSH1 0x41 PUSH1 0x4 MSTORE PUSH1 0x24 PUSH1 0x0 REVERT JUMPDEST PUSH1 0x0 PUSH1 0x20 DUP3 DUP5 SUB SLT ISZERO PUSH2 0x6D3 JUMPI PUSH1 0x0 DUP1 REVERT JUMPDEST DUP2 CALLDATALOAD PUSH8 0xFFFFFFFFFFFFFFFF DUP1 DUP3 GT ISZERO PUSH2 0x6EB JUMPI PUSH1 0x0 DUP1 REVERT JUMPDEST DUP2 DUP5 ADD SWAP2 POP DUP5 PUSH1 0x1F DUP4 ADD SLT PUSH2 0x6FF JUMPI PUSH1 0x0 DUP1 REVERT JUMPDEST DUP2 CALLDATALOAD DUP2 DUP2 GT ISZERO PUSH2 0x711 JUMPI PUSH2 0x711 PUSH2 0x6AB JUMP JUMPDEST PUSH1 0x40 MLOAD PUSH1 0x1F DUP3 ADD PUSH1 0x1F NOT SWAP1 DUP2 AND PUSH1 0x3F ADD AND DUP2 ADD SWAP1 DUP4 DUP3 GT DUP2 DUP4 LT OR ISZERO PUSH2 0x739 JUMPI PUSH2 0x739 PUSH2 0x6AB JUMP JUMPDEST DUP2 PUSH1 0x40 MSTORE DUP3 DUP2 MSTORE DUP8 PUSH1 0x20 DUP5 DUP8 ADD ADD GT ISZERO PUSH2 0x752 JUMPI PUSH1 0x0 DUP1 REVERT JUMPDEST DUP3 PUSH1 0x20 DUP7 ADD PUSH1 0x20 DUP4 ADD CALLDATACOPY PUSH1 0x0 SWAP3 DUP2 ADD PUSH1 0x20 ADD SWAP3 SWAP1 SWAP3 MSTORE POP SWAP6 SWAP5 POP POP POP POP POP JUMP JUMPDEST PUSH4 0x4E487B71 PUSH1 0xE0 SHL PUSH1 0x0 MSTORE PUSH1 0x32 PUSH1 0x4 MSTORE PUSH1 0x24 PUSH1 0x0 REVERT JUMPDEST PUSH4 0x4E487B71 PUSH1 0xE0 SHL PUSH1 0x0 MSTORE PUSH1 0x11 PUSH1 0x4 MSTORE PUSH1 0x24 PUSH1 0x0 REVERT JUMPDEST PUSH1 0x0 PUSH1 0xFF DUP3 AND PUSH1 0xFF DUP5 AND DUP1 DUP3 LT ISZERO PUSH2 0x7B8 JUMPI PUSH2 0x7B8 PUSH2 0x788 JUMP JUMPDEST SWAP1 SUB SWAP4 SWAP3 POP POP POP JUMP JUMPDEST PUSH1 0x0 PUSH2 0xFFFF DUP1 DUP4 AND DUP2 DUP6 AND DUP1 DUP4 SUB DUP3 GT ISZERO PUSH2 0x7DE JUMPI PUSH2 0x7DE PUSH2 0x788 JUMP JUMPDEST ADD SWAP5 SWAP4 POP POP POP POP JUMP JUMPDEST PUSH1 0x0 PUSH1 0xFF DUP3 AND PUSH1 0xFF DUP5 AND DUP2 PUSH1 0xFF DIV DUP2 GT DUP3 ISZERO ISZERO AND ISZERO PUSH2 0x808 JUMPI PUSH2 0x808 PUSH2 0x788 JUMP JUMPDEST MUL SWAP4 SWAP3 POP POP POP JUMP JUMPDEST PUSH1 0x0 PUSH2 0xFFFF DUP1 DUP4 AND DUP2 DUP6 AND DUP2 DUP4 DIV DUP2 GT DUP3 ISZERO ISZERO AND ISZERO PUSH2 0x831 JUMPI PUSH2 0x831 PUSH2 0x788 JUMP JUMPDEST MUL SWAP5 SWAP4 POP POP POP POP JUMP JUMPDEST PUSH1 0x0 PUSH1 0xFF DUP3 AND PUSH1 0xFF DUP5 AND DUP1 PUSH1 0xFF SUB DUP3 GT ISZERO PUSH2 0x857 JUMPI PUSH2 0x857 PUSH2 0x788 JUMP JUMPDEST ADD SWAP4 SWAP3 POP POP POP JUMP JUMPDEST PUSH1 0x0 DUP3 NOT DUP3 GT ISZERO PUSH2 0x872 JUMPI PUSH2 0x872 PUSH2 0x788 JUMP JUMPDEST POP ADD SWAP1 JUMP JUMPDEST PUSH1 0x0 PUSH2 0xFFFF DUP1 DUP4 AND DUP2 DUP2 SUB PUSH2 0x88E JUMPI PUSH2 0x88E PUSH2 0x788 JUMP JUMPDEST PUSH1 0x1 ADD SWAP4 SWAP3 POP POP POP JUMP JUMPDEST PUSH1 0x0 PUSH2 0xFFFF DUP4 DUP2 AND SWAP1 DUP4 AND DUP2 DUP2 LT ISZERO PUSH2 0x8B3 JUMPI PUSH2 0x8B3 PUSH2 0x788 JUMP JUMPDEST SUB SWAP4 SWAP3 POP POP POP JUMP JUMPDEST PUSH1 0x0 DUP2 PUSH1 0x0 NOT DIV DUP4 GT DUP3 ISZERO ISZERO AND ISZERO PUSH2 0x8D5 JUMPI PUSH2 0x8D5 PUSH2 0x788 JUMP JUMPDEST POP MUL SWAP1 JUMP JUMPDEST PUSH1 0x0 PUSH2 0xFFFF DUP1 DUP5 AND DUP1 PUSH2 0x8FD JUMPI PUSH4 0x4E487B71 PUSH1 0xE0 SHL PUSH1 0x0 MSTORE PUSH1 0x12 PUSH1 0x4 MSTORE PUSH1 0x24 PUSH1 0x0 REVERT JUMPDEST SWAP3 AND SWAP2 SWAP1 SWAP2 MOD SWAP3 SWAP2 POP POP JUMP INVALID LOG2 PUSH5 0x6970667358 0x22 SLT KECCAK256 0xCC GAS 0xD3 0x4B 0xC4 GASLIMIT 0xE4 0xA6 SWAP4 0xB4 EQ 0x2F ADDMOD 0x2A PUSH9 0x7DC2D1DDE5F18B8E1C 0xEF 0x22 PUSH11 0x78935A195764736F6C6343 STOP ADDMOD 0xF STOP CALLER "
				},
				"gasEstimates": {
					"creation": {
						"codeDepositCost": "473400",
						"executionCost": "539",
						"totalCost": "473939"
					},
					"external": {
						"toTimestamp(bytes)": "infinite"
					},
					"internal": {
						"isLeapYear(uint16)": "infinite",
						"toTimestamp(uint16,uint8,uint8,uint8,uint8,uint8)": "infinite"
					}
				},
				"methodIdentifiers": {
					"toTimestamp(bytes)": "095385c6"
				}
			},
			"storageLayout": {
				"storage": [],
				"types": null
			},
			"userdoc": {
				"kind": "user",
				"methods": {},
				"version": 1
			}
		}
	}
}