{
	"data": {
		"bytecode": {
			"linkReferences": {},
			"object": "608060405234801561001057600080fd5b50610d49806100206000396000f3fe608060405234801561001057600080fd5b50600436106100365760003560e01c8063de8f50a11461003b578063df4e0bc314610063575b600080fd5b61004e6100493660046109f7565b610084565b60405190151581526020015b60405180910390f35b610076610071366004610aa7565b61019c565b60405161005a929190610bb4565b60008060608060606100cb8b8b8080601f01602080910402602001604051908101604052809392919081815260200183838082843760009201919091525061019c92505050565b8092508193505050610114828289898080601f01602080910402602001604051908101604052809392919081815260200183838082843760009201919091525061029092505050565b909450925083801561018d5750610139602084516101329190610bf8565b84906102ab565b60028a8a60405161014b929190610c0f565b602060405180830381855afa158015610168573d6000803e3d6000fd5b5050506040513d601f19601f8201168201806040525081019061018b9190610c1f565b145b9b9a5050505050505050505050565b6060806000806060806101ae876102cf565b92506101ba87846102e2565b92506101d06101c988856102e2565b8890610387565b805160209091012093507f3be606946d6f343b24d5ecdbd7e3370a5303ed54845f50f466a35f3bbeb46a45841461023c5760405162461bcd60e51b815260206004820152600b60248201526a496e76616c6964206b657960a81b60448201526064015b60405180910390fd5b61024687846103c1565b925061025287846103e1565b925061025e87846102e2565b925061026a878461046d565b915061027687846103c1565b9250610282878461046d565b919791965090945050505050565b6000606061029f8385876105fd565b91509150935093915050565b81516000906102bb836020610c38565b11156102c657600080fd5b50016020015190565b60006102dc826000610694565b92915050565b6000826001600160501b038316815181106102ff576102ff610c50565b0160200151600160fd1b908116146103645760405162461bcd60e51b815260206004820152602260248201527f41736e316465636f64653a204e6f74206120636f6e7374727563746564207479604482015261706560f01b6064820152608401610233565b61038083605084901c6001600160501b0316610694565b610694565b9392505050565b60606103806001600160501b03605084901c81169081906103af9060a087901c166001610c38565b6103b99190610bf8565b859190610849565b60006103808360a084901c6001600160501b03165b61037b906001610c38565b6000826001600160501b038316815181106103fe576103fe610c50565b6020910101516001600160f81b031916600360f81b146104565760405162461bcd60e51b81526020600482015260136024820152724e6f7420747970652042495420535452494e4760681b6044820152606401610233565b61038083605084901c6001600160501b03166103d6565b6060826001600160501b0383168151811061048a5761048a610c50565b6020910101516001600160f81b031916600160f91b146104df5760405162461bcd60e51b815260206004820152601060248201526f2737ba103a3cb8329024a72a22a3a2a960811b6044820152606401610233565b82605083901c6001600160501b0316815181106104fe576104fe610c50565b0160200151600160ff1b16156105455760405162461bcd60e51b815260206004820152600c60248201526b4e6f7420706f73697469766560a01b6044820152606401610233565b6000605083901c6001600160501b031660a084901c6001600160501b031661056e906001610c38565b6105789190610bf8565b905083605084901c6001600160501b03168151811061059957610599610c50565b01602001516001600160f81b0319166000036105e5576105dd6105ca6001600160501b03605086901c166001610c38565b6105d5600184610bf8565b869190610849565b9150506102dc565b6105dd846001600160501b03605086901c1683610849565b60006060600085518551855188888860405160200161062196959493929190610c66565b6040516020818303038152906040529050835167ffffffffffffffff81111561064c5761064c610a91565b6040519080825280601f01601f191660200182016040528015610676576020820181803683370190505b50915083516020830182516020840160055afa925050935093915050565b6000808080856106a5866001610c38565b815181106106b5576106b5610c50565b0160200151600160ff1b1660000361072057856106d3866001610c38565b815181106106e3576106e3610c50565b016020015160f81c92506106f8856002610c38565b9150600161070f846001600160501b038516610c38565b6107199190610bf8565b9050610814565b60008661072e876001610c38565b8151811061073e5761073e610c50565b60209101015160f81c607f16905060018190036107745761076a610763876002610c38565b88906108cb565b60ff1693506107d6565b8060ff1660020361079f5761079461078d876002610c38565b88906108ef565b61ffff1693506107d6565b6107aa816020610cc7565b6107b5906008610cea565b60ff166107d16107c6886002610c38565b899060ff8516610917565b901c93505b60ff81166107e5876002610c38565b6107ef9190610c38565b92506001610806856001600160501b038616610c38565b6108109190610bf8565b9150505b69ffffffffffffffffffff60a01b60a082901b1669ffffffffffffffffffff60501b605084901b168617179695505050505050565b82516060906108588385610c38565b111561086357600080fd5b60008267ffffffffffffffff81111561087e5761087e610a91565b6040519080825280601f01601f1916602001820160405280156108a8576020820181803683370190505b509050602080820190868601016108c0828287610958565b509095945050505050565b60008282815181106108df576108df610c50565b016020015160f81c905092915050565b81516000906108ff836002610c38565b111561090a57600080fd5b50016002015161ffff1690565b6000602082111561092757600080fd5b83516109338385610c38565b111561093e57600080fd5b506020919092018101519190036101000a60001901191690565b60208110610990578151835261096f602084610c38565b925061097c602083610c38565b9150610989602082610bf8565b9050610958565b905182516020929092036101000a6000190180199091169116179052565b60008083601f8401126109c057600080fd5b50813567ffffffffffffffff8111156109d857600080fd5b6020830191508360208285010111156109f057600080fd5b9250929050565b60008060008060008060608789031215610a1057600080fd5b863567ffffffffffffffff80821115610a2857600080fd5b610a348a838b016109ae565b90985096506020890135915080821115610a4d57600080fd5b610a598a838b016109ae565b90965094506040890135915080821115610a7257600080fd5b50610a7f89828a016109ae565b979a9699509497509295939492505050565b634e487b7160e01b600052604160045260246000fd5b600060208284031215610ab957600080fd5b813567ffffffffffffffff80821115610ad157600080fd5b818401915084601f830112610ae557600080fd5b813581811115610af757610af7610a91565b604051601f8201601f19908116603f01168101908382118183101715610b1f57610b1f610a91565b81604052828152876020848701011115610b3857600080fd5b826020860160208301376000928101602001929092525095945050505050565b60005b83811015610b73578181015183820152602001610b5b565b83811115610b82576000848401525b50505050565b60008151808452610ba0816020860160208601610b58565b601f01601f19169290920160200192915050565b604081526000610bc76040830185610b88565b8281036020840152610bd98185610b88565b95945050505050565b634e487b7160e01b600052601160045260246000fd5b600082821015610c0a57610c0a610be2565b500390565b8183823760009101908152919050565b600060208284031215610c3157600080fd5b5051919050565b60008219821115610c4b57610c4b610be2565b500190565b634e487b7160e01b600052603260045260246000fd5b86815285602082015284604082015260008451610c8a816060850160208901610b58565b845190830190610ca1816060840160208901610b58565b8451910190610cb7816060840160208801610b58565b0160600198975050505050505050565b600060ff821660ff841680821015610ce157610ce1610be2565b90039392505050565b600060ff821660ff84168160ff0481118215151615610d0b57610d0b610be2565b02939250505056fea2646970667358221220c6eea358879ce673b2ecd53d199265f4b0cd66aa7b8506de68f8d87e5317dda964736f6c634300080f0033",
			"opcodes": "PUSH1 0x80 PUSH1 0x40 MSTORE CALLVALUE DUP1 ISZERO PUSH2 0x10 JUMPI PUSH1 0x0 DUP1 REVERT JUMPDEST POP PUSH2 0xD49 DUP1 PUSH2 0x20 PUSH1 0x0 CODECOPY PUSH1 0x0 RETURN INVALID PUSH1 0x80 PUSH1 0x40 MSTORE CALLVALUE DUP1 ISZERO PUSH2 0x10 JUMPI PUSH1 0x0 DUP1 REVERT JUMPDEST POP PUSH1 0x4 CALLDATASIZE LT PUSH2 0x36 JUMPI PUSH1 0x0 CALLDATALOAD PUSH1 0xE0 SHR DUP1 PUSH4 0xDE8F50A1 EQ PUSH2 0x3B JUMPI DUP1 PUSH4 0xDF4E0BC3 EQ PUSH2 0x63 JUMPI JUMPDEST PUSH1 0x0 DUP1 REVERT JUMPDEST PUSH2 0x4E PUSH2 0x49 CALLDATASIZE PUSH1 0x4 PUSH2 0x9F7 JUMP JUMPDEST PUSH2 0x84 JUMP JUMPDEST PUSH1 0x40 MLOAD SWAP1 ISZERO ISZERO DUP2 MSTORE PUSH1 0x20 ADD JUMPDEST PUSH1 0x40 MLOAD DUP1 SWAP2 SUB SWAP1 RETURN JUMPDEST PUSH2 0x76 PUSH2 0x71 CALLDATASIZE PUSH1 0x4 PUSH2 0xAA7 JUMP JUMPDEST PUSH2 0x19C JUMP JUMPDEST PUSH1 0x40 MLOAD PUSH2 0x5A SWAP3 SWAP2 SWAP1 PUSH2 0xBB4 JUMP JUMPDEST PUSH1 0x0 DUP1 PUSH1 0x60 DUP1 PUSH1 0x60 PUSH2 0xCB DUP12 DUP12 DUP1 DUP1 PUSH1 0x1F ADD PUSH1 0x20 DUP1 SWAP2 DIV MUL PUSH1 0x20 ADD PUSH1 0x40 MLOAD SWAP1 DUP2 ADD PUSH1 0x40 MSTORE DUP1 SWAP4 SWAP3 SWAP2 SWAP1 DUP2 DUP2 MSTORE PUSH1 0x20 ADD DUP4 DUP4 DUP1 DUP3 DUP5 CALLDATACOPY PUSH1 0x0 SWAP3 ADD SWAP2 SWAP1 SWAP2 MSTORE POP PUSH2 0x19C SWAP3 POP POP POP JUMP JUMPDEST DUP1 SWAP3 POP DUP2 SWAP4 POP POP POP PUSH2 0x114 DUP3 DUP3 DUP10 DUP10 DUP1 DUP1 PUSH1 0x1F ADD PUSH1 0x20 DUP1 SWAP2 DIV MUL PUSH1 0x20 ADD PUSH1 0x40 MLOAD SWAP1 DUP2 ADD PUSH1 0x40 MSTORE DUP1 SWAP4 SWAP3 SWAP2 SWAP1 DUP2 DUP2 MSTORE PUSH1 0x20 ADD DUP4 DUP4 DUP1 DUP3 DUP5 CALLDATACOPY PUSH1 0x0 SWAP3 ADD SWAP2 SWAP1 SWAP2 MSTORE POP PUSH2 0x290 SWAP3 POP POP POP JUMP JUMPDEST SWAP1 SWAP5 POP SWAP3 POP DUP4 DUP1 ISZERO PUSH2 0x18D JUMPI POP PUSH2 0x139 PUSH1 0x20 DUP5 MLOAD PUSH2 0x132 SWAP2 SWAP1 PUSH2 0xBF8 JUMP JUMPDEST DUP5 SWAP1 PUSH2 0x2AB JUMP JUMPDEST PUSH1 0x2 DUP11 DUP11 PUSH1 0x40 MLOAD PUSH2 0x14B SWAP3 SWAP2 SWAP1 PUSH2 0xC0F JUMP JUMPDEST PUSH1 0x20 PUSH1 0x40 MLOAD DUP1 DUP4 SUB DUP2 DUP6 GAS STATICCALL ISZERO DUP1 ISZERO PUSH2 0x168 JUMPI RETURNDATASIZE PUSH1 0x0 DUP1 RETURNDATACOPY RETURNDATASIZE PUSH1 0x0 REVERT JUMPDEST POP POP POP PUSH1 0x40 MLOAD RETURNDATASIZE PUSH1 0x1F NOT PUSH1 0x1F DUP3 ADD AND DUP3 ADD DUP1 PUSH1 0x40 MSTORE POP DUP2 ADD SWAP1 PUSH2 0x18B SWAP2 SWAP1 PUSH2 0xC1F JUMP JUMPDEST EQ JUMPDEST SWAP12 SWAP11 POP POP POP POP POP POP POP POP POP POP POP JUMP JUMPDEST PUSH1 0x60 DUP1 PUSH1 0x0 DUP1 PUSH1 0x60 DUP1 PUSH2 0x1AE DUP8 PUSH2 0x2CF JUMP JUMPDEST SWAP3 POP PUSH2 0x1BA DUP8 DUP5 PUSH2 0x2E2 JUMP JUMPDEST SWAP3 POP PUSH2 0x1D0 PUSH2 0x1C9 DUP9 DUP6 PUSH2 0x2E2 JUMP JUMPDEST DUP9 SWAP1 PUSH2 0x387 JUMP JUMPDEST DUP1 MLOAD PUSH1 0x20 SWAP1 SWAP2 ADD KECCAK256 SWAP4 POP PUSH32 0x3BE606946D6F343B24D5ECDBD7E3370A5303ED54845F50F466A35F3BBEB46A45 DUP5 EQ PUSH2 0x23C JUMPI PUSH1 0x40 MLOAD PUSH3 0x461BCD PUSH1 0xE5 SHL DUP2 MSTORE PUSH1 0x20 PUSH1 0x4 DUP3 ADD MSTORE PUSH1 0xB PUSH1 0x24 DUP3 ADD MSTORE PUSH11 0x496E76616C6964206B6579 PUSH1 0xA8 SHL PUSH1 0x44 DUP3 ADD MSTORE PUSH1 0x64 ADD JUMPDEST PUSH1 0x40 MLOAD DUP1 SWAP2 SUB SWAP1 REVERT JUMPDEST PUSH2 0x246 DUP8 DUP5 PUSH2 0x3C1 JUMP JUMPDEST SWAP3 POP PUSH2 0x252 DUP8 DUP5 PUSH2 0x3E1 JUMP JUMPDEST SWAP3 POP PUSH2 0x25E DUP8 DUP5 PUSH2 0x2E2 JUMP JUMPDEST SWAP3 POP PUSH2 0x26A DUP8 DUP5 PUSH2 0x46D JUMP JUMPDEST SWAP2 POP PUSH2 0x276 DUP8 DUP5 PUSH2 0x3C1 JUMP JUMPDEST SWAP3 POP PUSH2 0x282 DUP8 DUP5 PUSH2 0x46D JUMP JUMPDEST SWAP2 SWAP8 SWAP2 SWAP7 POP SWAP1 SWAP5 POP POP POP POP POP JUMP JUMPDEST PUSH1 0x0 PUSH1 0x60 PUSH2 0x29F DUP4 DUP6 DUP8 PUSH2 0x5FD JUMP JUMPDEST SWAP2 POP SWAP2 POP SWAP4 POP SWAP4 SWAP2 POP POP JUMP JUMPDEST DUP2 MLOAD PUSH1 0x0 SWAP1 PUSH2 0x2BB DUP4 PUSH1 0x20 PUSH2 0xC38 JUMP JUMPDEST GT ISZERO PUSH2 0x2C6 JUMPI PUSH1 0x0 DUP1 REVERT JUMPDEST POP ADD PUSH1 0x20 ADD MLOAD SWAP1 JUMP JUMPDEST PUSH1 0x0 PUSH2 0x2DC DUP3 PUSH1 0x0 PUSH2 0x694 JUMP JUMPDEST SWAP3 SWAP2 POP POP JUMP JUMPDEST PUSH1 0x0 DUP3 PUSH1 0x1 PUSH1 0x1 PUSH1 0x50 SHL SUB DUP4 AND DUP2 MLOAD DUP2 LT PUSH2 0x2FF JUMPI PUSH2 0x2FF PUSH2 0xC50 JUMP JUMPDEST ADD PUSH1 0x20 ADD MLOAD PUSH1 0x1 PUSH1 0xFD SHL SWAP1 DUP2 AND EQ PUSH2 0x364 JUMPI PUSH1 0x40 MLOAD PUSH3 0x461BCD PUSH1 0xE5 SHL DUP2 MSTORE PUSH1 0x20 PUSH1 0x4 DUP3 ADD MSTORE PUSH1 0x22 PUSH1 0x24 DUP3 ADD MSTORE PUSH32 0x41736E316465636F64653A204E6F74206120636F6E7374727563746564207479 PUSH1 0x44 DUP3 ADD MSTORE PUSH2 0x7065 PUSH1 0xF0 SHL PUSH1 0x64 DUP3 ADD MSTORE PUSH1 0x84 ADD PUSH2 0x233 JUMP JUMPDEST PUSH2 0x380 DUP4 PUSH1 0x50 DUP5 SWAP1 SHR PUSH1 0x1 PUSH1 0x1 PUSH1 0x50 SHL SUB AND PUSH2 0x694 JUMP JUMPDEST PUSH2 0x694 JUMP JUMPDEST SWAP4 SWAP3 POP POP POP JUMP JUMPDEST PUSH1 0x60 PUSH2 0x380 PUSH1 0x1 PUSH1 0x1 PUSH1 0x50 SHL SUB PUSH1 0x50 DUP5 SWAP1 SHR DUP2 AND SWAP1 DUP2 SWAP1 PUSH2 0x3AF SWAP1 PUSH1 0xA0 DUP8 SWAP1 SHR AND PUSH1 0x1 PUSH2 0xC38 JUMP JUMPDEST PUSH2 0x3B9 SWAP2 SWAP1 PUSH2 0xBF8 JUMP JUMPDEST DUP6 SWAP2 SWAP1 PUSH2 0x849 JUMP JUMPDEST PUSH1 0x0 PUSH2 0x380 DUP4 PUSH1 0xA0 DUP5 SWAP1 SHR PUSH1 0x1 PUSH1 0x1 PUSH1 0x50 SHL SUB AND JUMPDEST PUSH2 0x37B SWAP1 PUSH1 0x1 PUSH2 0xC38 JUMP JUMPDEST PUSH1 0x0 DUP3 PUSH1 0x1 PUSH1 0x1 PUSH1 0x50 SHL SUB DUP4 AND DUP2 MLOAD DUP2 LT PUSH2 0x3FE JUMPI PUSH2 0x3FE PUSH2 0xC50 JUMP JUMPDEST PUSH1 0x20 SWAP2 ADD ADD MLOAD PUSH1 0x1 PUSH1 0x1 PUSH1 0xF8 SHL SUB NOT AND PUSH1 0x3 PUSH1 0xF8 SHL EQ PUSH2 0x456 JUMPI PUSH1 0x40 MLOAD PUSH3 0x461BCD PUSH1 0xE5 SHL DUP2 MSTORE PUSH1 0x20 PUSH1 0x4 DUP3 ADD MSTORE PUSH1 0x13 PUSH1 0x24 DUP3 ADD MSTORE PUSH19 0x4E6F7420747970652042495420535452494E47 PUSH1 0x68 SHL PUSH1 0x44 DUP3 ADD MSTORE PUSH1 0x64 ADD PUSH2 0x233 JUMP JUMPDEST PUSH2 0x380 DUP4 PUSH1 0x50 DUP5 SWAP1 SHR PUSH1 0x1 PUSH1 0x1 PUSH1 0x50 SHL SUB AND PUSH2 0x3D6 JUMP JUMPDEST PUSH1 0x60 DUP3 PUSH1 0x1 PUSH1 0x1 PUSH1 0x50 SHL SUB DUP4 AND DUP2 MLOAD DUP2 LT PUSH2 0x48A JUMPI PUSH2 0x48A PUSH2 0xC50 JUMP JUMPDEST PUSH1 0x20 SWAP2 ADD ADD MLOAD PUSH1 0x1 PUSH1 0x1 PUSH1 0xF8 SHL SUB NOT AND PUSH1 0x1 PUSH1 0xF9 SHL EQ PUSH2 0x4DF JUMPI PUSH1 0x40 MLOAD PUSH3 0x461BCD PUSH1 0xE5 SHL DUP2 MSTORE PUSH1 0x20 PUSH1 0x4 DUP3 ADD MSTORE PUSH1 0x10 PUSH1 0x24 DUP3 ADD MSTORE PUSH16 0x2737BA103A3CB8329024A72A22A3A2A9 PUSH1 0x81 SHL PUSH1 0x44 DUP3 ADD MSTORE PUSH1 0x64 ADD PUSH2 0x233 JUMP JUMPDEST DUP3 PUSH1 0x50 DUP4 SWAP1 SHR PUSH1 0x1 PUSH1 0x1 PUSH1 0x50 SHL SUB AND DUP2 MLOAD DUP2 LT PUSH2 0x4FE JUMPI PUSH2 0x4FE PUSH2 0xC50 JUMP JUMPDEST ADD PUSH1 0x20 ADD MLOAD PUSH1 0x1 PUSH1 0xFF SHL AND ISZERO PUSH2 0x545 JUMPI PUSH1 0x40 MLOAD PUSH3 0x461BCD PUSH1 0xE5 SHL DUP2 MSTORE PUSH1 0x20 PUSH1 0x4 DUP3 ADD MSTORE PUSH1 0xC PUSH1 0x24 DUP3 ADD MSTORE PUSH12 0x4E6F7420706F736974697665 PUSH1 0xA0 SHL PUSH1 0x44 DUP3 ADD MSTORE PUSH1 0x64 ADD PUSH2 0x233 JUMP JUMPDEST PUSH1 0x0 PUSH1 0x50 DUP4 SWAP1 SHR PUSH1 0x1 PUSH1 0x1 PUSH1 0x50 SHL SUB AND PUSH1 0xA0 DUP5 SWAP1 SHR PUSH1 0x1 PUSH1 0x1 PUSH1 0x50 SHL SUB AND PUSH2 0x56E SWAP1 PUSH1 0x1 PUSH2 0xC38 JUMP JUMPDEST PUSH2 0x578 SWAP2 SWAP1 PUSH2 0xBF8 JUMP JUMPDEST SWAP1 POP DUP4 PUSH1 0x50 DUP5 SWAP1 SHR PUSH1 0x1 PUSH1 0x1 PUSH1 0x50 SHL SUB AND DUP2 MLOAD DUP2 LT PUSH2 0x599 JUMPI PUSH2 0x599 PUSH2 0xC50 JUMP JUMPDEST ADD PUSH1 0x20 ADD MLOAD PUSH1 0x1 PUSH1 0x1 PUSH1 0xF8 SHL SUB NOT AND PUSH1 0x0 SUB PUSH2 0x5E5 JUMPI PUSH2 0x5DD PUSH2 0x5CA PUSH1 0x1 PUSH1 0x1 PUSH1 0x50 SHL SUB PUSH1 0x50 DUP7 SWAP1 SHR AND PUSH1 0x1 PUSH2 0xC38 JUMP JUMPDEST PUSH2 0x5D5 PUSH1 0x1 DUP5 PUSH2 0xBF8 JUMP JUMPDEST DUP7 SWAP2 SWAP1 PUSH2 0x849 JUMP JUMPDEST SWAP2 POP POP PUSH2 0x2DC JUMP JUMPDEST PUSH2 0x5DD DUP5 PUSH1 0x1 PUSH1 0x1 PUSH1 0x50 SHL SUB PUSH1 0x50 DUP7 SWAP1 SHR AND DUP4 PUSH2 0x849 JUMP JUMPDEST PUSH1 0x0 PUSH1 0x60 PUSH1 0x0 DUP6 MLOAD DUP6 MLOAD DUP6 MLOAD DUP9 DUP9 DUP9 PUSH1 0x40 MLOAD PUSH1 0x20 ADD PUSH2 0x621 SWAP7 SWAP6 SWAP5 SWAP4 SWAP3 SWAP2 SWAP1 PUSH2 0xC66 JUMP JUMPDEST PUSH1 0x40 MLOAD PUSH1 0x20 DUP2 DUP4 SUB SUB DUP2 MSTORE SWAP1 PUSH1 0x40 MSTORE SWAP1 POP DUP4 MLOAD PUSH8 0xFFFFFFFFFFFFFFFF DUP2 GT ISZERO PUSH2 0x64C JUMPI PUSH2 0x64C PUSH2 0xA91 JUMP JUMPDEST PUSH1 0x40 MLOAD SWAP1 DUP1 DUP3 MSTORE DUP1 PUSH1 0x1F ADD PUSH1 0x1F NOT AND PUSH1 0x20 ADD DUP3 ADD PUSH1 0x40 MSTORE DUP1 ISZERO PUSH2 0x676 JUMPI PUSH1 0x20 DUP3 ADD DUP2 DUP1 CALLDATASIZE DUP4 CALLDATACOPY ADD SWAP1 POP JUMPDEST POP SWAP2 POP DUP4 MLOAD PUSH1 0x20 DUP4 ADD DUP3 MLOAD PUSH1 0x20 DUP5 ADD PUSH1 0x5 GAS STATICCALL SWAP3 POP POP SWAP4 POP SWAP4 SWAP2 POP POP JUMP JUMPDEST PUSH1 0x0 DUP1 DUP1 DUP1 DUP6 PUSH2 0x6A5 DUP7 PUSH1 0x1 PUSH2 0xC38 JUMP JUMPDEST DUP2 MLOAD DUP2 LT PUSH2 0x6B5 JUMPI PUSH2 0x6B5 PUSH2 0xC50 JUMP JUMPDEST ADD PUSH1 0x20 ADD MLOAD PUSH1 0x1 PUSH1 0xFF SHL AND PUSH1 0x0 SUB PUSH2 0x720 JUMPI DUP6 PUSH2 0x6D3 DUP7 PUSH1 0x1 PUSH2 0xC38 JUMP JUMPDEST DUP2 MLOAD DUP2 LT PUSH2 0x6E3 JUMPI PUSH2 0x6E3 PUSH2 0xC50 JUMP JUMPDEST ADD PUSH1 0x20 ADD MLOAD PUSH1 0xF8 SHR SWAP3 POP PUSH2 0x6F8 DUP6 PUSH1 0x2 PUSH2 0xC38 JUMP JUMPDEST SWAP2 POP PUSH1 0x1 PUSH2 0x70F DUP5 PUSH1 0x1 PUSH1 0x1 PUSH1 0x50 SHL SUB DUP6 AND PUSH2 0xC38 JUMP JUMPDEST PUSH2 0x719 SWAP2 SWAP1 PUSH2 0xBF8 JUMP JUMPDEST SWAP1 POP PUSH2 0x814 JUMP JUMPDEST PUSH1 0x0 DUP7 PUSH2 0x72E DUP8 PUSH1 0x1 PUSH2 0xC38 JUMP JUMPDEST DUP2 MLOAD DUP2 LT PUSH2 0x73E JUMPI PUSH2 0x73E PUSH2 0xC50 JUMP JUMPDEST PUSH1 0x20 SWAP2 ADD ADD MLOAD PUSH1 0xF8 SHR PUSH1 0x7F AND SWAP1 POP PUSH1 0x1 DUP2 SWAP1 SUB PUSH2 0x774 JUMPI PUSH2 0x76A PUSH2 0x763 DUP8 PUSH1 0x2 PUSH2 0xC38 JUMP JUMPDEST DUP9 SWAP1 PUSH2 0x8CB JUMP JUMPDEST PUSH1 0xFF AND SWAP4 POP PUSH2 0x7D6 JUMP JUMPDEST DUP1 PUSH1 0xFF AND PUSH1 0x2 SUB PUSH2 0x79F JUMPI PUSH2 0x794 PUSH2 0x78D DUP8 PUSH1 0x2 PUSH2 0xC38 JUMP JUMPDEST DUP9 SWAP1 PUSH2 0x8EF JUMP JUMPDEST PUSH2 0xFFFF AND SWAP4 POP PUSH2 0x7D6 JUMP JUMPDEST PUSH2 0x7AA DUP2 PUSH1 0x20 PUSH2 0xCC7 JUMP JUMPDEST PUSH2 0x7B5 SWAP1 PUSH1 0x8 PUSH2 0xCEA JUMP JUMPDEST PUSH1 0xFF AND PUSH2 0x7D1 PUSH2 0x7C6 DUP9 PUSH1 0x2 PUSH2 0xC38 JUMP JUMPDEST DUP10 SWAP1 PUSH1 0xFF DUP6 AND PUSH2 0x917 JUMP JUMPDEST SWAP1 SHR SWAP4 POP JUMPDEST PUSH1 0xFF DUP2 AND PUSH2 0x7E5 DUP8 PUSH1 0x2 PUSH2 0xC38 JUMP JUMPDEST PUSH2 0x7EF SWAP2 SWAP1 PUSH2 0xC38 JUMP JUMPDEST SWAP3 POP PUSH1 0x1 PUSH2 0x806 DUP6 PUSH1 0x1 PUSH1 0x1 PUSH1 0x50 SHL SUB DUP7 AND PUSH2 0xC38 JUMP JUMPDEST PUSH2 0x810 SWAP2 SWAP1 PUSH2 0xBF8 JUMP JUMPDEST SWAP2 POP POP JUMPDEST PUSH10 0xFFFFFFFFFFFFFFFFFFFF PUSH1 0xA0 SHL PUSH1 0xA0 DUP3 SWAP1 SHL AND PUSH10 0xFFFFFFFFFFFFFFFFFFFF PUSH1 0x50 SHL PUSH1 0x50 DUP5 SWAP1 SHL AND DUP7 OR OR SWAP7 SWAP6 POP POP POP POP POP POP JUMP JUMPDEST DUP3 MLOAD PUSH1 0x60 SWAP1 PUSH2 0x858 DUP4 DUP6 PUSH2 0xC38 JUMP JUMPDEST GT ISZERO PUSH2 0x863 JUMPI PUSH1 0x0 DUP1 REVERT JUMPDEST PUSH1 0x0 DUP3 PUSH8 0xFFFFFFFFFFFFFFFF DUP2 GT ISZERO PUSH2 0x87E JUMPI PUSH2 0x87E PUSH2 0xA91 JUMP JUMPDEST PUSH1 0x40 MLOAD SWAP1 DUP1 DUP3 MSTORE DUP1 PUSH1 0x1F ADD PUSH1 0x1F NOT AND PUSH1 0x20 ADD DUP3 ADD PUSH1 0x40 MSTORE DUP1 ISZERO PUSH2 0x8A8 JUMPI PUSH1 0x20 DUP3 ADD DUP2 DUP1 CALLDATASIZE DUP4 CALLDATACOPY ADD SWAP1 POP JUMPDEST POP SWAP1 POP PUSH1 0x20 DUP1 DUP3 ADD SWAP1 DUP7 DUP7 ADD ADD PUSH2 0x8C0 DUP3 DUP3 DUP8 PUSH2 0x958 JUMP JUMPDEST POP SWAP1 SWAP6 SWAP5 POP POP POP POP POP JUMP JUMPDEST PUSH1 0x0 DUP3 DUP3 DUP2 MLOAD DUP2 LT PUSH2 0x8DF JUMPI PUSH2 0x8DF PUSH2 0xC50 JUMP JUMPDEST ADD PUSH1 0x20 ADD MLOAD PUSH1 0xF8 SHR SWAP1 POP SWAP3 SWAP2 POP POP JUMP JUMPDEST DUP2 MLOAD PUSH1 0x0 SWAP1 PUSH2 0x8FF DUP4 PUSH1 0x2 PUSH2 0xC38 JUMP JUMPDEST GT ISZERO PUSH2 0x90A JUMPI PUSH1 0x0 DUP1 REVERT JUMPDEST POP ADD PUSH1 0x2 ADD MLOAD PUSH2 0xFFFF AND SWAP1 JUMP JUMPDEST PUSH1 0x0 PUSH1 0x20 DUP3 GT ISZERO PUSH2 0x927 JUMPI PUSH1 0x0 DUP1 REVERT JUMPDEST DUP4 MLOAD PUSH2 0x933 DUP4 DUP6 PUSH2 0xC38 JUMP JUMPDEST GT ISZERO PUSH2 0x93E JUMPI PUSH1 0x0 DUP1 REVERT JUMPDEST POP PUSH1 0x20 SWAP2 SWAP1 SWAP3 ADD DUP2 ADD MLOAD SWAP2 SWAP1 SUB PUSH2 0x100 EXP PUSH1 0x0 NOT ADD NOT AND SWAP1 JUMP JUMPDEST PUSH1 0x20 DUP2 LT PUSH2 0x990 JUMPI DUP2 MLOAD DUP4 MSTORE PUSH2 0x96F PUSH1 0x20 DUP5 PUSH2 0xC38 JUMP JUMPDEST SWAP3 POP PUSH2 0x97C PUSH1 0x20 DUP4 PUSH2 0xC38 JUMP JUMPDEST SWAP2 POP PUSH2 0x989 PUSH1 0x20 DUP3 PUSH2 0xBF8 JUMP JUMPDEST SWAP1 POP PUSH2 0x958 JUMP JUMPDEST SWAP1 MLOAD DUP3 MLOAD PUSH1 0x20 SWAP3 SWAP1 SWAP3 SUB PUSH2 0x100 EXP PUSH1 0x0 NOT ADD DUP1 NOT SWAP1 SWAP2 AND SWAP2 AND OR SWAP1 MSTORE JUMP JUMPDEST PUSH1 0x0 DUP1 DUP4 PUSH1 0x1F DUP5 ADD SLT PUSH2 0x9C0 JUMPI PUSH1 0x0 DUP1 REVERT JUMPDEST POP DUP2 CALLDATALOAD PUSH8 0xFFFFFFFFFFFFFFFF DUP2 GT ISZERO PUSH2 0x9D8 JUMPI PUSH1 0x0 DUP1 REVERT JUMPDEST PUSH1 0x20 DUP4 ADD SWAP2 POP DUP4 PUSH1 0x20 DUP3 DUP6 ADD ADD GT ISZERO PUSH2 0x9F0 JUMPI PUSH1 0x0 DUP1 REVERT JUMPDEST SWAP3 POP SWAP3 SWAP1 POP JUMP JUMPDEST PUSH1 0x0 DUP1 PUSH1 0x0 DUP1 PUSH1 0x0 DUP1 PUSH1 0x60 DUP8 DUP10 SUB SLT ISZERO PUSH2 0xA10 JUMPI PUSH1 0x0 DUP1 REVERT JUMPDEST DUP7 CALLDATALOAD PUSH8 0xFFFFFFFFFFFFFFFF DUP1 DUP3 GT ISZERO PUSH2 0xA28 JUMPI PUSH1 0x0 DUP1 REVERT JUMPDEST PUSH2 0xA34 DUP11 DUP4 DUP12 ADD PUSH2 0x9AE JUMP JUMPDEST SWAP1 SWAP9 POP SWAP7 POP PUSH1 0x20 DUP10 ADD CALLDATALOAD SWAP2 POP DUP1 DUP3 GT ISZERO PUSH2 0xA4D JUMPI PUSH1 0x0 DUP1 REVERT JUMPDEST PUSH2 0xA59 DUP11 DUP4 DUP12 ADD PUSH2 0x9AE JUMP JUMPDEST SWAP1 SWAP7 POP SWAP5 POP PUSH1 0x40 DUP10 ADD CALLDATALOAD SWAP2 POP DUP1 DUP3 GT ISZERO PUSH2 0xA72 JUMPI PUSH1 0x0 DUP1 REVERT JUMPDEST POP PUSH2 0xA7F DUP10 DUP3 DUP11 ADD PUSH2 0x9AE JUMP JUMPDEST SWAP8 SWAP11 SWAP7 SWAP10 POP SWAP5 SWAP8 POP SWAP3 SWAP6 SWAP4 SWAP5 SWAP3 POP POP POP JUMP JUMPDEST PUSH4 0x4E487B71 PUSH1 0xE0 SHL PUSH1 0x0 MSTORE PUSH1 0x41 PUSH1 0x4 MSTORE PUSH1 0x24 PUSH1 0x0 REVERT JUMPDEST PUSH1 0x0 PUSH1 0x20 DUP3 DUP5 SUB SLT ISZERO PUSH2 0xAB9 JUMPI PUSH1 0x0 DUP1 REVERT JUMPDEST DUP2 CALLDATALOAD PUSH8 0xFFFFFFFFFFFFFFFF DUP1 DUP3 GT ISZERO PUSH2 0xAD1 JUMPI PUSH1 0x0 DUP1 REVERT JUMPDEST DUP2 DUP5 ADD SWAP2 POP DUP5 PUSH1 0x1F DUP4 ADD SLT PUSH2 0xAE5 JUMPI PUSH1 0x0 DUP1 REVERT JUMPDEST DUP2 CALLDATALOAD DUP2 DUP2 GT ISZERO PUSH2 0xAF7 JUMPI PUSH2 0xAF7 PUSH2 0xA91 JUMP JUMPDEST PUSH1 0x40 MLOAD PUSH1 0x1F DUP3 ADD PUSH1 0x1F NOT SWAP1 DUP2 AND PUSH1 0x3F ADD AND DUP2 ADD SWAP1 DUP4 DUP3 GT DUP2 DUP4 LT OR ISZERO PUSH2 0xB1F JUMPI PUSH2 0xB1F PUSH2 0xA91 JUMP JUMPDEST DUP2 PUSH1 0x40 MSTORE DUP3 DUP2 MSTORE DUP8 PUSH1 0x20 DUP5 DUP8 ADD ADD GT ISZERO PUSH2 0xB38 JUMPI PUSH1 0x0 DUP1 REVERT JUMPDEST DUP3 PUSH1 0x20 DUP7 ADD PUSH1 0x20 DUP4 ADD CALLDATACOPY PUSH1 0x0 SWAP3 DUP2 ADD PUSH1 0x20 ADD SWAP3 SWAP1 SWAP3 MSTORE POP SWAP6 SWAP5 POP POP POP POP POP JUMP JUMPDEST PUSH1 0x0 JUMPDEST DUP4 DUP2 LT ISZERO PUSH2 0xB73 JUMPI DUP2 DUP2 ADD MLOAD DUP4 DUP3 ADD MSTORE PUSH1 0x20 ADD PUSH2 0xB5B JUMP JUMPDEST DUP4 DUP2 GT ISZERO PUSH2 0xB82 JUMPI PUSH1 0x0 DUP5 DUP5 ADD MSTORE JUMPDEST POP POP POP POP JUMP JUMPDEST PUSH1 0x0 DUP2 MLOAD DUP1 DUP5 MSTORE PUSH2 0xBA0 DUP2 PUSH1 0x20 DUP7 ADD PUSH1 0x20 DUP7 ADD PUSH2 0xB58 JUMP JUMPDEST PUSH1 0x1F ADD PUSH1 0x1F NOT AND SWAP3 SWAP1 SWAP3 ADD PUSH1 0x20 ADD SWAP3 SWAP2 POP POP JUMP JUMPDEST PUSH1 0x40 DUP2 MSTORE PUSH1 0x0 PUSH2 0xBC7 PUSH1 0x40 DUP4 ADD DUP6 PUSH2 0xB88 JUMP JUMPDEST DUP3 DUP2 SUB PUSH1 0x20 DUP5 ADD MSTORE PUSH2 0xBD9 DUP2 DUP6 PUSH2 0xB88 JUMP JUMPDEST SWAP6 SWAP5 POP POP POP POP POP JUMP JUMPDEST PUSH4 0x4E487B71 PUSH1 0xE0 SHL PUSH1 0x0 MSTORE PUSH1 0x11 PUSH1 0x4 MSTORE PUSH1 0x24 PUSH1 0x0 REVERT JUMPDEST PUSH1 0x0 DUP3 DUP3 LT ISZERO PUSH2 0xC0A JUMPI PUSH2 0xC0A PUSH2 0xBE2 JUMP JUMPDEST POP SUB SWAP1 JUMP JUMPDEST DUP2 DUP4 DUP3 CALLDATACOPY PUSH1 0x0 SWAP2 ADD SWAP1 DUP2 MSTORE SWAP2 SWAP1 POP JUMP JUMPDEST PUSH1 0x0 PUSH1 0x20 DUP3 DUP5 SUB SLT ISZERO PUSH2 0xC31 JUMPI PUSH1 0x0 DUP1 REVERT JUMPDEST POP MLOAD SWAP2 SWAP1 POP JUMP JUMPDEST PUSH1 0x0 DUP3 NOT DUP3 GT ISZERO PUSH2 0xC4B JUMPI PUSH2 0xC4B PUSH2 0xBE2 JUMP JUMPDEST POP ADD SWAP1 JUMP JUMPDEST PUSH4 0x4E487B71 PUSH1 0xE0 SHL PUSH1 0x0 MSTORE PUSH1 0x32 PUSH1 0x4 MSTORE PUSH1 0x24 PUSH1 0x0 REVERT JUMPDEST DUP7 DUP2 MSTORE DUP6 PUSH1 0x20 DUP3 ADD MSTORE DUP5 PUSH1 0x40 DUP3 ADD MSTORE PUSH1 0x0 DUP5 MLOAD PUSH2 0xC8A DUP2 PUSH1 0x60 DUP6 ADD PUSH1 0x20 DUP10 ADD PUSH2 0xB58 JUMP JUMPDEST DUP5 MLOAD SWAP1 DUP4 ADD SWAP1 PUSH2 0xCA1 DUP2 PUSH1 0x60 DUP5 ADD PUSH1 0x20 DUP10 ADD PUSH2 0xB58 JUMP JUMPDEST DUP5 MLOAD SWAP2 ADD SWAP1 PUSH2 0xCB7 DUP2 PUSH1 0x60 DUP5 ADD PUSH1 0x20 DUP9 ADD PUSH2 0xB58 JUMP JUMPDEST ADD PUSH1 0x60 ADD SWAP9 SWAP8 POP POP POP POP POP POP POP POP JUMP JUMPDEST PUSH1 0x0 PUSH1 0xFF DUP3 AND PUSH1 0xFF DUP5 AND DUP1 DUP3 LT ISZERO PUSH2 0xCE1 JUMPI PUSH2 0xCE1 PUSH2 0xBE2 JUMP JUMPDEST SWAP1 SUB SWAP4 SWAP3 POP POP POP JUMP JUMPDEST PUSH1 0x0 PUSH1 0xFF DUP3 AND PUSH1 0xFF DUP5 AND DUP2 PUSH1 0xFF DIV DUP2 GT DUP3 ISZERO ISZERO AND ISZERO PUSH2 0xD0B JUMPI PUSH2 0xD0B PUSH2 0xBE2 JUMP JUMPDEST MUL SWAP4 SWAP3 POP POP POP JUMP INVALID LOG2 PUSH5 0x6970667358 0x22 SLT KECCAK256 0xC6 0xEE LOG3 PC DUP8 SWAP13 0xE6 PUSH20 0xB2ECD53D199265F4B0CD66AA7B8506DE68F8D87E MSTORE8 OR 0xDD 0xA9 PUSH5 0x736F6C6343 STOP ADDMOD 0xF STOP CALLER "
		},
		"gasEstimates": {
			"creation": {
				"codeDepositCost": "680200",
				"executionCost": "715",
				"totalCost": "680915"
			},
			"external": {
				"extractKeyComponents(bytes)": "infinite",
				"verify(bytes,bytes,bytes)": "infinite"
			}
		},
		"methodIdentifiers": {
			"extractKeyComponents(bytes)": "df4e0bc3",
			"verify(bytes,bytes,bytes)": "de8f50a1"
		}
	},
	"abi": [
		{
			"inputs": [
				{
					"internalType": "bytes",
					"name": "key",
					"type": "bytes"
				}
			],
			"name": "extractKeyComponents",
			"outputs": [
				{
					"internalType": "bytes",
					"name": "",
					"type": "bytes"
				},
				{
					"internalType": "bytes",
					"name": "",
					"type": "bytes"
				}
			],
			"stateMutability": "pure",
			"type": "function"
		},
		{
			"inputs": [
				{
					"internalType": "bytes",
					"name": "key",
					"type": "bytes"
				},
				{
					"internalType": "bytes",
					"name": "data",
					"type": "bytes"
				},
				{
					"internalType": "bytes",
					"name": "sig",
					"type": "bytes"
				}
			],
			"name": "verify",
			"outputs": [
				{
					"internalType": "bool",
					"name": "",
					"type": "bool"
				}
			],
			"stateMutability": "view",
			"type": "function"
		}
	]
}