{
	"data": {
		"bytecode": {
			"linkReferences": {},
			"object": "608060405234801561000f575f80fd5b506114938061001d5f395ff3fe608060405234801561000f575f80fd5b5060043610610034575f3560e01c8063de8f50a114610038578063df4e0bc314610068575b5f80fd5b610052600480360381019061004d9190610c72565b610099565b60405161005f9190610d3c565b60405180910390f35b610082600480360381019061007d9190610e8d565b6101d4565b604051610090929190610f4e565b60405180910390f35b5f8060608060606100ec8b8b8080601f0160208091040260200160405190810160405280939291908181526020018383808284375f81840152601f19601f820116905080830192505050505050506101d4565b8092508193505050610142828289898080601f0160208091040260200160405190810160405280939291908181526020018383808284375f81840152601f19601f8201169050808301925050505050505061031b565b80945081955050508380156101c45750610172602084516101639190610fb9565b8461033590919063ffffffff16565b60028a8a60405161018492919061101a565b602060405180830381855afa15801561019f573d5f803e3d5ffd5b5050506040513d601f19601f820116820180604052508101906101c29190611065565b145b9450505050509695505050505050565b6060805f806060806101e58761035e565b92506101fa838861037090919063ffffffff16565b9250610221610212848961037090919063ffffffff16565b8861041e90919063ffffffff16565b8051906020012093507f3be606946d6f343b24d5ecdbd7e3370a5303ed54845f50f466a35f3bbeb46a455f1b841461028e576040517f08c379a0000000000000000000000000000000000000000000000000000000008152600401610285906110ea565b60405180910390fd5b6102a1838861046c90919063ffffffff16565b92506102b6838861049390919063ffffffff16565b92506102cb838861037090919063ffffffff16565b92506102e0838861054790919063ffffffff16565b91506102f5838861046c90919063ffffffff16565b925061030a838861054790919063ffffffff16565b905081819550955050505050915091565b5f6060610329838587610748565b91509150935093915050565b5f82516020836103459190611108565b111561034f575f80fd5b81602084010151905092915050565b5f610369825f6107e6565b9050919050565b5f602060f81b602060f81b8461038585610a0b565b815181106103965761039561113b565b5b602001015160f81c60f81b167effffffffffffffffffffffffffffffffffffffffffffffffffffffffffffff191614610404576040517f08c379a00000000000000000000000000000000000000000000000000000000081526004016103fb906111d8565b60405180910390fd5b6104168361041184610a20565b6107e6565b905092915050565b606061046461042c83610a20565b61043584610a20565b600161044086610a39565b61044a9190611108565b6104549190610fb9565b85610a529092919063ffffffff16565b905092915050565b5f61048b83600161047c85610a39565b6104869190611108565b6107e6565b905092915050565b5f600360f81b836104a384610a0b565b815181106104b4576104b361113b565b5b602001015160f81c60f81b7effffffffffffffffffffffffffffffffffffffffffffffffffffffffffffff191614610521576040517f08c379a000000000000000000000000000000000000000000000000000000000815260040161051890611240565b60405180910390fd5b61053f83600161053085610a20565b61053a9190611108565b6107e6565b905092915050565b6060600260f81b8361055884610a0b565b815181106105695761056861113b565b5b602001015160f81c60f81b7effffffffffffffffffffffffffffffffffffffffffffffffffffffffffffff1916146105d6576040517f08c379a00000000000000000000000000000000000000000000000000000000081526004016105cd906112a8565b60405180910390fd5b5f60f81b608060f81b846105e985610a20565b815181106105fa576105f961113b565b5b602001015160f81c60f81b167effffffffffffffffffffffffffffffffffffffffffffffffffffffffffffff191614610668576040517f08c379a000000000000000000000000000000000000000000000000000000000815260040161065f90611310565b60405180910390fd5b5f61067283610a20565b600161067d85610a39565b6106879190611108565b6106919190610fb9565b90505f60f81b846106a185610a20565b815181106106b2576106b161113b565b5b602001015160f81c60f81b7effffffffffffffffffffffffffffffffffffffffffffffffffffffffffffff1916036107215761071960016106f285610a20565b6106fc9190611108565b6001836107099190610fb9565b86610a529092919063ffffffff16565b915050610742565b61073e61072d84610a20565b8286610a529092919063ffffffff16565b9150505b92915050565b5f60605f85518551855188888860405160200161076a9695949392919061137e565b6040516020818303038152906040529050835167ffffffffffffffff81111561079657610795610d69565b5b6040519080825280601f01601f1916602001820160405280156107c85781602001600182028036833780820191505090505b50915083516020830182516020840160055afa925050935093915050565b5f805f805f60f81b608060f81b876001886108019190611108565b815181106108125761081161113b565b5b602001015160f81c60f81b167effffffffffffffffffffffffffffffffffffffffffffffffffffffffffffff1916036108b157856001866108539190611108565b815181106108645761086361113b565b5b602001015160f81c60f81b60f81c60ff1692506002856108849190611108565b91506001838369ffffffffffffffffffff166108a09190611108565b6108aa9190610fb9565b90506109dd565b5f607f60f81b876001886108c59190611108565b815181106108d6576108d561113b565b5b602001015160f81c60f81b1660f81c905060018160ff160361091b576109116002876109029190611108565b88610ae490919063ffffffff16565b60ff169350610998565b60028160ff1603610950576109456002876109369190611108565b88610b0e90919063ffffffff16565b61ffff169350610997565b600881602061095f91906113ed565b6109699190611421565b60ff1661099060028861097c9190611108565b8360ff168a610b3b9092919063ffffffff16565b901c5f1c93505b5b8060ff166002876109a99190611108565b6109b39190611108565b92506001848469ffffffffffffffffffff166109cf9190611108565b6109d99190610fb9565b9150505b610a00858369ffffffffffffffffffff168369ffffffffffffffffffff16610b80565b935050505092915050565b5f8169ffffffffffffffffffff169050919050565b5f605082901c69ffffffffffffffffffff169050919050565b5f60a082901c69ffffffffffffffffffff169050919050565b606083518284610a629190611108565b1115610a6c575f80fd5b5f8267ffffffffffffffff811115610a8757610a86610d69565b5b6040519080825280601f01601f191660200182016040528015610ab95781602001600182028036833780820191505090505b5090505f806020830191508560208801019050610ad7828287610b9d565b8293505050509392505050565b5f828281518110610af857610af761113b565b5b602001015160f81c60f81b60f81c905092915050565b5f8251600283610b1e9190611108565b1115610b28575f80fd5b61ffff8260028501015116905092915050565b5f6020821115610b49575f80fd5b83518284610b579190611108565b1115610b61575f80fd5b6001826020036101000a03198084602087010151169150509392505050565b5f605083901b8417935060a082901b841793508390509392505050565b5b60208110610bdc5781518352602083610bb79190611108565b9250602082610bc69190611108565b9150602081610bd59190610fb9565b9050610b9e565b5f6001826020036101000a0390508019835116818551168181178652505050505050565b5f604051905090565b5f80fd5b5f80fd5b5f80fd5b5f80fd5b5f80fd5b5f8083601f840112610c3257610c31610c11565b5b8235905067ffffffffffffffff811115610c4f57610c4e610c15565b5b602083019150836001820283011115610c6b57610c6a610c19565b5b9250929050565b5f805f805f8060608789031215610c8c57610c8b610c09565b5b5f87013567ffffffffffffffff811115610ca957610ca8610c0d565b5b610cb589828a01610c1d565b9650965050602087013567ffffffffffffffff811115610cd857610cd7610c0d565b5b610ce489828a01610c1d565b9450945050604087013567ffffffffffffffff811115610d0757610d06610c0d565b5b610d1389828a01610c1d565b92509250509295509295509295565b5f8115159050919050565b610d3681610d22565b82525050565b5f602082019050610d4f5f830184610d2d565b92915050565b5f80fd5b5f601f19601f8301169050919050565b7f4e487b71000000000000000000000000000000000000000000000000000000005f52604160045260245ffd5b610d9f82610d59565b810181811067ffffffffffffffff82111715610dbe57610dbd610d69565b5b80604052505050565b5f610dd0610c00565b9050610ddc8282610d96565b919050565b5f67ffffffffffffffff821115610dfb57610dfa610d69565b5b610e0482610d59565b9050602081019050919050565b828183375f83830152505050565b5f610e31610e2c84610de1565b610dc7565b905082815260208101848484011115610e4d57610e4c610d55565b5b610e58848285610e11565b509392505050565b5f82601f830112610e7457610e73610c11565b5b8135610e84848260208601610e1f565b91505092915050565b5f60208284031215610ea257610ea1610c09565b5b5f82013567ffffffffffffffff811115610ebf57610ebe610c0d565b5b610ecb84828501610e60565b91505092915050565b5f81519050919050565b5f82825260208201905092915050565b5f5b83811015610f0b578082015181840152602081019050610ef0565b5f8484015250505050565b5f610f2082610ed4565b610f2a8185610ede565b9350610f3a818560208601610eee565b610f4381610d59565b840191505092915050565b5f6040820190508181035f830152610f668185610f16565b90508181036020830152610f7a8184610f16565b90509392505050565b5f819050919050565b7f4e487b71000000000000000000000000000000000000000000000000000000005f52601160045260245ffd5b5f610fc382610f83565b9150610fce83610f83565b9250828203905081811115610fe657610fe5610f8c565b5b92915050565b5f81905092915050565b5f6110018385610fec565b935061100e838584610e11565b82840190509392505050565b5f611026828486610ff6565b91508190509392505050565b5f819050919050565b61104481611032565b811461104e575f80fd5b50565b5f8151905061105f8161103b565b92915050565b5f6020828403121561107a57611079610c09565b5b5f61108784828501611051565b91505092915050565b5f82825260208201905092915050565b7f496e76616c6964206b65790000000000000000000000000000000000000000005f82015250565b5f6110d4600b83611090565b91506110df826110a0565b602082019050919050565b5f6020820190508181035f830152611101816110c8565b9050919050565b5f61111282610f83565b915061111d83610f83565b925082820190508082111561113557611134610f8c565b5b92915050565b7f4e487b71000000000000000000000000000000000000000000000000000000005f52603260045260245ffd5b7f41736e316465636f64653a204e6f74206120636f6e73747275637465642074795f8201527f7065000000000000000000000000000000000000000000000000000000000000602082015250565b5f6111c2602283611090565b91506111cd82611168565b604082019050919050565b5f6020820190508181035f8301526111ef816111b6565b9050919050565b7f4e6f7420747970652042495420535452494e47000000000000000000000000005f82015250565b5f61122a601383611090565b9150611235826111f6565b602082019050919050565b5f6020820190508181035f8301526112578161121e565b9050919050565b7f4e6f74207479706520494e5445474552000000000000000000000000000000005f82015250565b5f611292601083611090565b915061129d8261125e565b602082019050919050565b5f6020820190508181035f8301526112bf81611286565b9050919050565b7f4e6f7420706f73697469766500000000000000000000000000000000000000005f82015250565b5f6112fa600c83611090565b9150611305826112c6565b602082019050919050565b5f6020820190508181035f830152611327816112ee565b9050919050565b5f819050919050565b61134861134382610f83565b61132e565b82525050565b5f61135882610ed4565b6113628185610fec565b9350611372818560208601610eee565b80840191505092915050565b5f6113898289611337565b6020820191506113998288611337565b6020820191506113a98287611337565b6020820191506113b9828661134e565b91506113c5828561134e565b91506113d1828461134e565b9150819050979650505050505050565b5f60ff82169050919050565b5f6113f7826113e1565b9150611402836113e1565b9250828203905060ff81111561141b5761141a610f8c565b5b92915050565b5f61142b826113e1565b9150611436836113e1565b9250828202611444816113e1565b915080821461145657611455610f8c565b5b509291505056fea264697066735822122015a487a5ae49a0b36092975ed9b033425d8883b521ed68294a0f5c6b2947e0af64736f6c63430008160033",
			"opcodes": "PUSH1 0x80 PUSH1 0x40 MSTORE CALLVALUE DUP1 ISZERO PUSH2 0xF JUMPI PUSH0 DUP1 REVERT JUMPDEST POP PUSH2 0x1493 DUP1 PUSH2 0x1D PUSH0 CODECOPY PUSH0 RETURN INVALID PUSH1 0x80 PUSH1 0x40 MSTORE CALLVALUE DUP1 ISZERO PUSH2 0xF JUMPI PUSH0 DUP1 REVERT JUMPDEST POP PUSH1 0x4 CALLDATASIZE LT PUSH2 0x34 JUMPI PUSH0 CALLDATALOAD PUSH1 0xE0 SHR DUP1 PUSH4 0xDE8F50A1 EQ PUSH2 0x38 JUMPI DUP1 PUSH4 0xDF4E0BC3 EQ PUSH2 0x68 JUMPI JUMPDEST PUSH0 DUP1 REVERT JUMPDEST PUSH2 0x52 PUSH1 0x4 DUP1 CALLDATASIZE SUB DUP2 ADD SWAP1 PUSH2 0x4D SWAP2 SWAP1 PUSH2 0xC72 JUMP JUMPDEST PUSH2 0x99 JUMP JUMPDEST PUSH1 0x40 MLOAD PUSH2 0x5F SWAP2 SWAP1 PUSH2 0xD3C JUMP JUMPDEST PUSH1 0x40 MLOAD DUP1 SWAP2 SUB SWAP1 RETURN JUMPDEST PUSH2 0x82 PUSH1 0x4 DUP1 CALLDATASIZE SUB DUP2 ADD SWAP1 PUSH2 0x7D SWAP2 SWAP1 PUSH2 0xE8D JUMP JUMPDEST PUSH2 0x1D4 JUMP JUMPDEST PUSH1 0x40 MLOAD PUSH2 0x90 SWAP3 SWAP2 SWAP1 PUSH2 0xF4E JUMP JUMPDEST PUSH1 0x40 MLOAD DUP1 SWAP2 SUB SWAP1 RETURN JUMPDEST PUSH0 DUP1 PUSH1 0x60 DUP1 PUSH1 0x60 PUSH2 0xEC DUP12 DUP12 DUP1 DUP1 PUSH1 0x1F ADD PUSH1 0x20 DUP1 SWAP2 DIV MUL PUSH1 0x20 ADD PUSH1 0x40 MLOAD SWAP1 DUP2 ADD PUSH1 0x40 MSTORE DUP1 SWAP4 SWAP3 SWAP2 SWAP1 DUP2 DUP2 MSTORE PUSH1 0x20 ADD DUP4 DUP4 DUP1 DUP3 DUP5 CALLDATACOPY PUSH0 DUP2 DUP5 ADD MSTORE PUSH1 0x1F NOT PUSH1 0x1F DUP3 ADD AND SWAP1 POP DUP1 DUP4 ADD SWAP3 POP POP POP POP POP POP POP PUSH2 0x1D4 JUMP JUMPDEST DUP1 SWAP3 POP DUP2 SWAP4 POP POP POP PUSH2 0x142 DUP3 DUP3 DUP10 DUP10 DUP1 DUP1 PUSH1 0x1F ADD PUSH1 0x20 DUP1 SWAP2 DIV MUL PUSH1 0x20 ADD PUSH1 0x40 MLOAD SWAP1 DUP2 ADD PUSH1 0x40 MSTORE DUP1 SWAP4 SWAP3 SWAP2 SWAP1 DUP2 DUP2 MSTORE PUSH1 0x20 ADD DUP4 DUP4 DUP1 DUP3 DUP5 CALLDATACOPY PUSH0 DUP2 DUP5 ADD MSTORE PUSH1 0x1F NOT PUSH1 0x1F DUP3 ADD AND SWAP1 POP DUP1 DUP4 ADD SWAP3 POP POP POP POP POP POP POP PUSH2 0x31B JUMP JUMPDEST DUP1 SWAP5 POP DUP2 SWAP6 POP POP POP DUP4 DUP1 ISZERO PUSH2 0x1C4 JUMPI POP PUSH2 0x172 PUSH1 0x20 DUP5 MLOAD PUSH2 0x163 SWAP2 SWAP1 PUSH2 0xFB9 JUMP JUMPDEST DUP5 PUSH2 0x335 SWAP1 SWAP2 SWAP1 PUSH4 0xFFFFFFFF AND JUMP JUMPDEST PUSH1 0x2 DUP11 DUP11 PUSH1 0x40 MLOAD PUSH2 0x184 SWAP3 SWAP2 SWAP1 PUSH2 0x101A JUMP JUMPDEST PUSH1 0x20 PUSH1 0x40 MLOAD DUP1 DUP4 SUB DUP2 DUP6 GAS STATICCALL ISZERO DUP1 ISZERO PUSH2 0x19F JUMPI RETURNDATASIZE PUSH0 DUP1 RETURNDATACOPY RETURNDATASIZE PUSH0 REVERT JUMPDEST POP POP POP PUSH1 0x40 MLOAD RETURNDATASIZE PUSH1 0x1F NOT PUSH1 0x1F DUP3 ADD AND DUP3 ADD DUP1 PUSH1 0x40 MSTORE POP DUP2 ADD SWAP1 PUSH2 0x1C2 SWAP2 SWAP1 PUSH2 0x1065 JUMP JUMPDEST EQ JUMPDEST SWAP5 POP POP POP POP POP SWAP7 SWAP6 POP POP POP POP POP POP JUMP JUMPDEST PUSH1 0x60 DUP1 PUSH0 DUP1 PUSH1 0x60 DUP1 PUSH2 0x1E5 DUP8 PUSH2 0x35E JUMP JUMPDEST SWAP3 POP PUSH2 0x1FA DUP4 DUP9 PUSH2 0x370 SWAP1 SWAP2 SWAP1 PUSH4 0xFFFFFFFF AND JUMP JUMPDEST SWAP3 POP PUSH2 0x221 PUSH2 0x212 DUP5 DUP10 PUSH2 0x370 SWAP1 SWAP2 SWAP1 PUSH4 0xFFFFFFFF AND JUMP JUMPDEST DUP9 PUSH2 0x41E SWAP1 SWAP2 SWAP1 PUSH4 0xFFFFFFFF AND JUMP JUMPDEST DUP1 MLOAD SWAP1 PUSH1 0x20 ADD KECCAK256 SWAP4 POP PUSH32 0x3BE606946D6F343B24D5ECDBD7E3370A5303ED54845F50F466A35F3BBEB46A45 PUSH0 SHL DUP5 EQ PUSH2 0x28E JUMPI PUSH1 0x40 MLOAD PUSH32 0x8C379A000000000000000000000000000000000000000000000000000000000 DUP2 MSTORE PUSH1 0x4 ADD PUSH2 0x285 SWAP1 PUSH2 0x10EA JUMP JUMPDEST PUSH1 0x40 MLOAD DUP1 SWAP2 SUB SWAP1 REVERT JUMPDEST PUSH2 0x2A1 DUP4 DUP9 PUSH2 0x46C SWAP1 SWAP2 SWAP1 PUSH4 0xFFFFFFFF AND JUMP JUMPDEST SWAP3 POP PUSH2 0x2B6 DUP4 DUP9 PUSH2 0x493 SWAP1 SWAP2 SWAP1 PUSH4 0xFFFFFFFF AND JUMP JUMPDEST SWAP3 POP PUSH2 0x2CB DUP4 DUP9 PUSH2 0x370 SWAP1 SWAP2 SWAP1 PUSH4 0xFFFFFFFF AND JUMP JUMPDEST SWAP3 POP PUSH2 0x2E0 DUP4 DUP9 PUSH2 0x547 SWAP1 SWAP2 SWAP1 PUSH4 0xFFFFFFFF AND JUMP JUMPDEST SWAP2 POP PUSH2 0x2F5 DUP4 DUP9 PUSH2 0x46C SWAP1 SWAP2 SWAP1 PUSH4 0xFFFFFFFF AND JUMP JUMPDEST SWAP3 POP PUSH2 0x30A DUP4 DUP9 PUSH2 0x547 SWAP1 SWAP2 SWAP1 PUSH4 0xFFFFFFFF AND JUMP JUMPDEST SWAP1 POP DUP2 DUP2 SWAP6 POP SWAP6 POP POP POP POP POP SWAP2 POP SWAP2 JUMP JUMPDEST PUSH0 PUSH1 0x60 PUSH2 0x329 DUP4 DUP6 DUP8 PUSH2 0x748 JUMP JUMPDEST SWAP2 POP SWAP2 POP SWAP4 POP SWAP4 SWAP2 POP POP JUMP JUMPDEST PUSH0 DUP3 MLOAD PUSH1 0x20 DUP4 PUSH2 0x345 SWAP2 SWAP1 PUSH2 0x1108 JUMP JUMPDEST GT ISZERO PUSH2 0x34F JUMPI PUSH0 DUP1 REVERT JUMPDEST DUP2 PUSH1 0x20 DUP5 ADD ADD MLOAD SWAP1 POP SWAP3 SWAP2 POP POP JUMP JUMPDEST PUSH0 PUSH2 0x369 DUP3 PUSH0 PUSH2 0x7E6 JUMP JUMPDEST SWAP1 POP SWAP2 SWAP1 POP JUMP JUMPDEST PUSH0 PUSH1 0x20 PUSH1 0xF8 SHL PUSH1 0x20 PUSH1 0xF8 SHL DUP5 PUSH2 0x385 DUP6 PUSH2 0xA0B JUMP JUMPDEST DUP2 MLOAD DUP2 LT PUSH2 0x396 JUMPI PUSH2 0x395 PUSH2 0x113B JUMP JUMPDEST JUMPDEST PUSH1 0x20 ADD ADD MLOAD PUSH1 0xF8 SHR PUSH1 0xF8 SHL AND PUSH31 0xFFFFFFFFFFFFFFFFFFFFFFFFFFFFFFFFFFFFFFFFFFFFFFFFFFFFFFFFFFFFFF NOT AND EQ PUSH2 0x404 JUMPI PUSH1 0x40 MLOAD PUSH32 0x8C379A000000000000000000000000000000000000000000000000000000000 DUP2 MSTORE PUSH1 0x4 ADD PUSH2 0x3FB SWAP1 PUSH2 0x11D8 JUMP JUMPDEST PUSH1 0x40 MLOAD DUP1 SWAP2 SUB SWAP1 REVERT JUMPDEST PUSH2 0x416 DUP4 PUSH2 0x411 DUP5 PUSH2 0xA20 JUMP JUMPDEST PUSH2 0x7E6 JUMP JUMPDEST SWAP1 POP SWAP3 SWAP2 POP POP JUMP JUMPDEST PUSH1 0x60 PUSH2 0x464 PUSH2 0x42C DUP4 PUSH2 0xA20 JUMP JUMPDEST PUSH2 0x435 DUP5 PUSH2 0xA20 JUMP JUMPDEST PUSH1 0x1 PUSH2 0x440 DUP7 PUSH2 0xA39 JUMP JUMPDEST PUSH2 0x44A SWAP2 SWAP1 PUSH2 0x1108 JUMP JUMPDEST PUSH2 0x454 SWAP2 SWAP1 PUSH2 0xFB9 JUMP JUMPDEST DUP6 PUSH2 0xA52 SWAP1 SWAP3 SWAP2 SWAP1 PUSH4 0xFFFFFFFF AND JUMP JUMPDEST SWAP1 POP SWAP3 SWAP2 POP POP JUMP JUMPDEST PUSH0 PUSH2 0x48B DUP4 PUSH1 0x1 PUSH2 0x47C DUP6 PUSH2 0xA39 JUMP JUMPDEST PUSH2 0x486 SWAP2 SWAP1 PUSH2 0x1108 JUMP JUMPDEST PUSH2 0x7E6 JUMP JUMPDEST SWAP1 POP SWAP3 SWAP2 POP POP JUMP JUMPDEST PUSH0 PUSH1 0x3 PUSH1 0xF8 SHL DUP4 PUSH2 0x4A3 DUP5 PUSH2 0xA0B JUMP JUMPDEST DUP2 MLOAD DUP2 LT PUSH2 0x4B4 JUMPI PUSH2 0x4B3 PUSH2 0x113B JUMP JUMPDEST JUMPDEST PUSH1 0x20 ADD ADD MLOAD PUSH1 0xF8 SHR PUSH1 0xF8 SHL PUSH31 0xFFFFFFFFFFFFFFFFFFFFFFFFFFFFFFFFFFFFFFFFFFFFFFFFFFFFFFFFFFFFFF NOT AND EQ PUSH2 0x521 JUMPI PUSH1 0x40 MLOAD PUSH32 0x8C379A000000000000000000000000000000000000000000000000000000000 DUP2 MSTORE PUSH1 0x4 ADD PUSH2 0x518 SWAP1 PUSH2 0x1240 JUMP JUMPDEST PUSH1 0x40 MLOAD DUP1 SWAP2 SUB SWAP1 REVERT JUMPDEST PUSH2 0x53F DUP4 PUSH1 0x1 PUSH2 0x530 DUP6 PUSH2 0xA20 JUMP JUMPDEST PUSH2 0x53A SWAP2 SWAP1 PUSH2 0x1108 JUMP JUMPDEST PUSH2 0x7E6 JUMP JUMPDEST SWAP1 POP SWAP3 SWAP2 POP POP JUMP JUMPDEST PUSH1 0x60 PUSH1 0x2 PUSH1 0xF8 SHL DUP4 PUSH2 0x558 DUP5 PUSH2 0xA0B JUMP JUMPDEST DUP2 MLOAD DUP2 LT PUSH2 0x569 JUMPI PUSH2 0x568 PUSH2 0x113B JUMP JUMPDEST JUMPDEST PUSH1 0x20 ADD ADD MLOAD PUSH1 0xF8 SHR PUSH1 0xF8 SHL PUSH31 0xFFFFFFFFFFFFFFFFFFFFFFFFFFFFFFFFFFFFFFFFFFFFFFFFFFFFFFFFFFFFFF NOT AND EQ PUSH2 0x5D6 JUMPI PUSH1 0x40 MLOAD PUSH32 0x8C379A000000000000000000000000000000000000000000000000000000000 DUP2 MSTORE PUSH1 0x4 ADD PUSH2 0x5CD SWAP1 PUSH2 0x12A8 JUMP JUMPDEST PUSH1 0x40 MLOAD DUP1 SWAP2 SUB SWAP1 REVERT JUMPDEST PUSH0 PUSH1 0xF8 SHL PUSH1 0x80 PUSH1 0xF8 SHL DUP5 PUSH2 0x5E9 DUP6 PUSH2 0xA20 JUMP JUMPDEST DUP2 MLOAD DUP2 LT PUSH2 0x5FA JUMPI PUSH2 0x5F9 PUSH2 0x113B JUMP JUMPDEST JUMPDEST PUSH1 0x20 ADD ADD MLOAD PUSH1 0xF8 SHR PUSH1 0xF8 SHL AND PUSH31 0xFFFFFFFFFFFFFFFFFFFFFFFFFFFFFFFFFFFFFFFFFFFFFFFFFFFFFFFFFFFFFF NOT AND EQ PUSH2 0x668 JUMPI PUSH1 0x40 MLOAD PUSH32 0x8C379A000000000000000000000000000000000000000000000000000000000 DUP2 MSTORE PUSH1 0x4 ADD PUSH2 0x65F SWAP1 PUSH2 0x1310 JUMP JUMPDEST PUSH1 0x40 MLOAD DUP1 SWAP2 SUB SWAP1 REVERT JUMPDEST PUSH0 PUSH2 0x672 DUP4 PUSH2 0xA20 JUMP JUMPDEST PUSH1 0x1 PUSH2 0x67D DUP6 PUSH2 0xA39 JUMP JUMPDEST PUSH2 0x687 SWAP2 SWAP1 PUSH2 0x1108 JUMP JUMPDEST PUSH2 0x691 SWAP2 SWAP1 PUSH2 0xFB9 JUMP JUMPDEST SWAP1 POP PUSH0 PUSH1 0xF8 SHL DUP5 PUSH2 0x6A1 DUP6 PUSH2 0xA20 JUMP JUMPDEST DUP2 MLOAD DUP2 LT PUSH2 0x6B2 JUMPI PUSH2 0x6B1 PUSH2 0x113B JUMP JUMPDEST JUMPDEST PUSH1 0x20 ADD ADD MLOAD PUSH1 0xF8 SHR PUSH1 0xF8 SHL PUSH31 0xFFFFFFFFFFFFFFFFFFFFFFFFFFFFFFFFFFFFFFFFFFFFFFFFFFFFFFFFFFFFFF NOT AND SUB PUSH2 0x721 JUMPI PUSH2 0x719 PUSH1 0x1 PUSH2 0x6F2 DUP6 PUSH2 0xA20 JUMP JUMPDEST PUSH2 0x6FC SWAP2 SWAP1 PUSH2 0x1108 JUMP JUMPDEST PUSH1 0x1 DUP4 PUSH2 0x709 SWAP2 SWAP1 PUSH2 0xFB9 JUMP JUMPDEST DUP7 PUSH2 0xA52 SWAP1 SWAP3 SWAP2 SWAP1 PUSH4 0xFFFFFFFF AND JUMP JUMPDEST SWAP2 POP POP PUSH2 0x742 JUMP JUMPDEST PUSH2 0x73E PUSH2 0x72D DUP5 PUSH2 0xA20 JUMP JUMPDEST DUP3 DUP7 PUSH2 0xA52 SWAP1 SWAP3 SWAP2 SWAP1 PUSH4 0xFFFFFFFF AND JUMP JUMPDEST SWAP2 POP POP JUMPDEST SWAP3 SWAP2 POP POP JUMP JUMPDEST PUSH0 PUSH1 0x60 PUSH0 DUP6 MLOAD DUP6 MLOAD DUP6 MLOAD DUP9 DUP9 DUP9 PUSH1 0x40 MLOAD PUSH1 0x20 ADD PUSH2 0x76A SWAP7 SWAP6 SWAP5 SWAP4 SWAP3 SWAP2 SWAP1 PUSH2 0x137E JUMP JUMPDEST PUSH1 0x40 MLOAD PUSH1 0x20 DUP2 DUP4 SUB SUB DUP2 MSTORE SWAP1 PUSH1 0x40 MSTORE SWAP1 POP DUP4 MLOAD PUSH8 0xFFFFFFFFFFFFFFFF DUP2 GT ISZERO PUSH2 0x796 JUMPI PUSH2 0x795 PUSH2 0xD69 JUMP JUMPDEST JUMPDEST PUSH1 0x40 MLOAD SWAP1 DUP1 DUP3 MSTORE DUP1 PUSH1 0x1F ADD PUSH1 0x1F NOT AND PUSH1 0x20 ADD DUP3 ADD PUSH1 0x40 MSTORE DUP1 ISZERO PUSH2 0x7C8 JUMPI DUP2 PUSH1 0x20 ADD PUSH1 0x1 DUP3 MUL DUP1 CALLDATASIZE DUP4 CALLDATACOPY DUP1 DUP3 ADD SWAP2 POP POP SWAP1 POP JUMPDEST POP SWAP2 POP DUP4 MLOAD PUSH1 0x20 DUP4 ADD DUP3 MLOAD PUSH1 0x20 DUP5 ADD PUSH1 0x5 GAS STATICCALL SWAP3 POP POP SWAP4 POP SWAP4 SWAP2 POP POP JUMP JUMPDEST PUSH0 DUP1 PUSH0 DUP1 PUSH0 PUSH1 0xF8 SHL PUSH1 0x80 PUSH1 0xF8 SHL DUP8 PUSH1 0x1 DUP9 PUSH2 0x801 SWAP2 SWAP1 PUSH2 0x1108 JUMP JUMPDEST DUP2 MLOAD DUP2 LT PUSH2 0x812 JUMPI PUSH2 0x811 PUSH2 0x113B JUMP JUMPDEST JUMPDEST PUSH1 0x20 ADD ADD MLOAD PUSH1 0xF8 SHR PUSH1 0xF8 SHL AND PUSH31 0xFFFFFFFFFFFFFFFFFFFFFFFFFFFFFFFFFFFFFFFFFFFFFFFFFFFFFFFFFFFFFF NOT AND SUB PUSH2 0x8B1 JUMPI DUP6 PUSH1 0x1 DUP7 PUSH2 0x853 SWAP2 SWAP1 PUSH2 0x1108 JUMP JUMPDEST DUP2 MLOAD DUP2 LT PUSH2 0x864 JUMPI PUSH2 0x863 PUSH2 0x113B JUMP JUMPDEST JUMPDEST PUSH1 0x20 ADD ADD MLOAD PUSH1 0xF8 SHR PUSH1 0xF8 SHL PUSH1 0xF8 SHR PUSH1 0xFF AND SWAP3 POP PUSH1 0x2 DUP6 PUSH2 0x884 SWAP2 SWAP1 PUSH2 0x1108 JUMP JUMPDEST SWAP2 POP PUSH1 0x1 DUP4 DUP4 PUSH10 0xFFFFFFFFFFFFFFFFFFFF AND PUSH2 0x8A0 SWAP2 SWAP1 PUSH2 0x1108 JUMP JUMPDEST PUSH2 0x8AA SWAP2 SWAP1 PUSH2 0xFB9 JUMP JUMPDEST SWAP1 POP PUSH2 0x9DD JUMP JUMPDEST PUSH0 PUSH1 0x7F PUSH1 0xF8 SHL DUP8 PUSH1 0x1 DUP9 PUSH2 0x8C5 SWAP2 SWAP1 PUSH2 0x1108 JUMP JUMPDEST DUP2 MLOAD DUP2 LT PUSH2 0x8D6 JUMPI PUSH2 0x8D5 PUSH2 0x113B JUMP JUMPDEST JUMPDEST PUSH1 0x20 ADD ADD MLOAD PUSH1 0xF8 SHR PUSH1 0xF8 SHL AND PUSH1 0xF8 SHR SWAP1 POP PUSH1 0x1 DUP2 PUSH1 0xFF AND SUB PUSH2 0x91B JUMPI PUSH2 0x911 PUSH1 0x2 DUP8 PUSH2 0x902 SWAP2 SWAP1 PUSH2 0x1108 JUMP JUMPDEST DUP9 PUSH2 0xAE4 SWAP1 SWAP2 SWAP1 PUSH4 0xFFFFFFFF AND JUMP JUMPDEST PUSH1 0xFF AND SWAP4 POP PUSH2 0x998 JUMP JUMPDEST PUSH1 0x2 DUP2 PUSH1 0xFF AND SUB PUSH2 0x950 JUMPI PUSH2 0x945 PUSH1 0x2 DUP8 PUSH2 0x936 SWAP2 SWAP1 PUSH2 0x1108 JUMP JUMPDEST DUP9 PUSH2 0xB0E SWAP1 SWAP2 SWAP1 PUSH4 0xFFFFFFFF AND JUMP JUMPDEST PUSH2 0xFFFF AND SWAP4 POP PUSH2 0x997 JUMP JUMPDEST PUSH1 0x8 DUP2 PUSH1 0x20 PUSH2 0x95F SWAP2 SWAP1 PUSH2 0x13ED JUMP JUMPDEST PUSH2 0x969 SWAP2 SWAP1 PUSH2 0x1421 JUMP JUMPDEST PUSH1 0xFF AND PUSH2 0x990 PUSH1 0x2 DUP9 PUSH2 0x97C SWAP2 SWAP1 PUSH2 0x1108 JUMP JUMPDEST DUP4 PUSH1 0xFF AND DUP11 PUSH2 0xB3B SWAP1 SWAP3 SWAP2 SWAP1 PUSH4 0xFFFFFFFF AND JUMP JUMPDEST SWAP1 SHR PUSH0 SHR SWAP4 POP JUMPDEST JUMPDEST DUP1 PUSH1 0xFF AND PUSH1 0x2 DUP8 PUSH2 0x9A9 SWAP2 SWAP1 PUSH2 0x1108 JUMP JUMPDEST PUSH2 0x9B3 SWAP2 SWAP1 PUSH2 0x1108 JUMP JUMPDEST SWAP3 POP PUSH1 0x1 DUP5 DUP5 PUSH10 0xFFFFFFFFFFFFFFFFFFFF AND PUSH2 0x9CF SWAP2 SWAP1 PUSH2 0x1108 JUMP JUMPDEST PUSH2 0x9D9 SWAP2 SWAP1 PUSH2 0xFB9 JUMP JUMPDEST SWAP2 POP POP JUMPDEST PUSH2 0xA00 DUP6 DUP4 PUSH10 0xFFFFFFFFFFFFFFFFFFFF AND DUP4 PUSH10 0xFFFFFFFFFFFFFFFFFFFF AND PUSH2 0xB80 JUMP JUMPDEST SWAP4 POP POP POP POP SWAP3 SWAP2 POP POP JUMP JUMPDEST PUSH0 DUP2 PUSH10 0xFFFFFFFFFFFFFFFFFFFF AND SWAP1 POP SWAP2 SWAP1 POP JUMP JUMPDEST PUSH0 PUSH1 0x50 DUP3 SWAP1 SHR PUSH10 0xFFFFFFFFFFFFFFFFFFFF AND SWAP1 POP SWAP2 SWAP1 POP JUMP JUMPDEST PUSH0 PUSH1 0xA0 DUP3 SWAP1 SHR PUSH10 0xFFFFFFFFFFFFFFFFFFFF AND SWAP1 POP SWAP2 SWAP1 POP JUMP JUMPDEST PUSH1 0x60 DUP4 MLOAD DUP3 DUP5 PUSH2 0xA62 SWAP2 SWAP1 PUSH2 0x1108 JUMP JUMPDEST GT ISZERO PUSH2 0xA6C JUMPI PUSH0 DUP1 REVERT JUMPDEST PUSH0 DUP3 PUSH8 0xFFFFFFFFFFFFFFFF DUP2 GT ISZERO PUSH2 0xA87 JUMPI PUSH2 0xA86 PUSH2 0xD69 JUMP JUMPDEST JUMPDEST PUSH1 0x40 MLOAD SWAP1 DUP1 DUP3 MSTORE DUP1 PUSH1 0x1F ADD PUSH1 0x1F NOT AND PUSH1 0x20 ADD DUP3 ADD PUSH1 0x40 MSTORE DUP1 ISZERO PUSH2 0xAB9 JUMPI DUP2 PUSH1 0x20 ADD PUSH1 0x1 DUP3 MUL DUP1 CALLDATASIZE DUP4 CALLDATACOPY DUP1 DUP3 ADD SWAP2 POP POP SWAP1 POP JUMPDEST POP SWAP1 POP PUSH0 DUP1 PUSH1 0x20 DUP4 ADD SWAP2 POP DUP6 PUSH1 0x20 DUP9 ADD ADD SWAP1 POP PUSH2 0xAD7 DUP3 DUP3 DUP8 PUSH2 0xB9D JUMP JUMPDEST DUP3 SWAP4 POP POP POP POP SWAP4 SWAP3 POP POP POP JUMP JUMPDEST PUSH0 DUP3 DUP3 DUP2 MLOAD DUP2 LT PUSH2 0xAF8 JUMPI PUSH2 0xAF7 PUSH2 0x113B JUMP JUMPDEST JUMPDEST PUSH1 0x20 ADD ADD MLOAD PUSH1 0xF8 SHR PUSH1 0xF8 SHL PUSH1 0xF8 SHR SWAP1 POP SWAP3 SWAP2 POP POP JUMP JUMPDEST PUSH0 DUP3 MLOAD PUSH1 0x2 DUP4 PUSH2 0xB1E SWAP2 SWAP1 PUSH2 0x1108 JUMP JUMPDEST GT ISZERO PUSH2 0xB28 JUMPI PUSH0 DUP1 REVERT JUMPDEST PUSH2 0xFFFF DUP3 PUSH1 0x2 DUP6 ADD ADD MLOAD AND SWAP1 POP SWAP3 SWAP2 POP POP JUMP JUMPDEST PUSH0 PUSH1 0x20 DUP3 GT ISZERO PUSH2 0xB49 JUMPI PUSH0 DUP1 REVERT JUMPDEST DUP4 MLOAD DUP3 DUP5 PUSH2 0xB57 SWAP2 SWAP1 PUSH2 0x1108 JUMP JUMPDEST GT ISZERO PUSH2 0xB61 JUMPI PUSH0 DUP1 REVERT JUMPDEST PUSH1 0x1 DUP3 PUSH1 0x20 SUB PUSH2 0x100 EXP SUB NOT DUP1 DUP5 PUSH1 0x20 DUP8 ADD ADD MLOAD AND SWAP2 POP POP SWAP4 SWAP3 POP POP POP JUMP JUMPDEST PUSH0 PUSH1 0x50 DUP4 SWAP1 SHL DUP5 OR SWAP4 POP PUSH1 0xA0 DUP3 SWAP1 SHL DUP5 OR SWAP4 POP DUP4 SWAP1 POP SWAP4 SWAP3 POP POP POP JUMP JUMPDEST JUMPDEST PUSH1 0x20 DUP2 LT PUSH2 0xBDC JUMPI DUP2 MLOAD DUP4 MSTORE PUSH1 0x20 DUP4 PUSH2 0xBB7 SWAP2 SWAP1 PUSH2 0x1108 JUMP JUMPDEST SWAP3 POP PUSH1 0x20 DUP3 PUSH2 0xBC6 SWAP2 SWAP1 PUSH2 0x1108 JUMP JUMPDEST SWAP2 POP PUSH1 0x20 DUP2 PUSH2 0xBD5 SWAP2 SWAP1 PUSH2 0xFB9 JUMP JUMPDEST SWAP1 POP PUSH2 0xB9E JUMP JUMPDEST PUSH0 PUSH1 0x1 DUP3 PUSH1 0x20 SUB PUSH2 0x100 EXP SUB SWAP1 POP DUP1 NOT DUP4 MLOAD AND DUP2 DUP6 MLOAD AND DUP2 DUP2 OR DUP7 MSTORE POP POP POP POP POP POP JUMP JUMPDEST PUSH0 PUSH1 0x40 MLOAD SWAP1 POP SWAP1 JUMP JUMPDEST PUSH0 DUP1 REVERT JUMPDEST PUSH0 DUP1 REVERT JUMPDEST PUSH0 DUP1 REVERT JUMPDEST PUSH0 DUP1 REVERT JUMPDEST PUSH0 DUP1 REVERT JUMPDEST PUSH0 DUP1 DUP4 PUSH1 0x1F DUP5 ADD SLT PUSH2 0xC32 JUMPI PUSH2 0xC31 PUSH2 0xC11 JUMP JUMPDEST JUMPDEST DUP3 CALLDATALOAD SWAP1 POP PUSH8 0xFFFFFFFFFFFFFFFF DUP2 GT ISZERO PUSH2 0xC4F JUMPI PUSH2 0xC4E PUSH2 0xC15 JUMP JUMPDEST JUMPDEST PUSH1 0x20 DUP4 ADD SWAP2 POP DUP4 PUSH1 0x1 DUP3 MUL DUP4 ADD GT ISZERO PUSH2 0xC6B JUMPI PUSH2 0xC6A PUSH2 0xC19 JUMP JUMPDEST JUMPDEST SWAP3 POP SWAP3 SWAP1 POP JUMP JUMPDEST PUSH0 DUP1 PUSH0 DUP1 PUSH0 DUP1 PUSH1 0x60 DUP8 DUP10 SUB SLT ISZERO PUSH2 0xC8C JUMPI PUSH2 0xC8B PUSH2 0xC09 JUMP JUMPDEST JUMPDEST PUSH0 DUP8 ADD CALLDATALOAD PUSH8 0xFFFFFFFFFFFFFFFF DUP2 GT ISZERO PUSH2 0xCA9 JUMPI PUSH2 0xCA8 PUSH2 0xC0D JUMP JUMPDEST JUMPDEST PUSH2 0xCB5 DUP10 DUP3 DUP11 ADD PUSH2 0xC1D JUMP JUMPDEST SWAP7 POP SWAP7 POP POP PUSH1 0x20 DUP8 ADD CALLDATALOAD PUSH8 0xFFFFFFFFFFFFFFFF DUP2 GT ISZERO PUSH2 0xCD8 JUMPI PUSH2 0xCD7 PUSH2 0xC0D JUMP JUMPDEST JUMPDEST PUSH2 0xCE4 DUP10 DUP3 DUP11 ADD PUSH2 0xC1D JUMP JUMPDEST SWAP5 POP SWAP5 POP POP PUSH1 0x40 DUP8 ADD CALLDATALOAD PUSH8 0xFFFFFFFFFFFFFFFF DUP2 GT ISZERO PUSH2 0xD07 JUMPI PUSH2 0xD06 PUSH2 0xC0D JUMP JUMPDEST JUMPDEST PUSH2 0xD13 DUP10 DUP3 DUP11 ADD PUSH2 0xC1D JUMP JUMPDEST SWAP3 POP SWAP3 POP POP SWAP3 SWAP6 POP SWAP3 SWAP6 POP SWAP3 SWAP6 JUMP JUMPDEST PUSH0 DUP2 ISZERO ISZERO SWAP1 POP SWAP2 SWAP1 POP JUMP JUMPDEST PUSH2 0xD36 DUP2 PUSH2 0xD22 JUMP JUMPDEST DUP3 MSTORE POP POP JUMP JUMPDEST PUSH0 PUSH1 0x20 DUP3 ADD SWAP1 POP PUSH2 0xD4F PUSH0 DUP4 ADD DUP5 PUSH2 0xD2D JUMP JUMPDEST SWAP3 SWAP2 POP POP JUMP JUMPDEST PUSH0 DUP1 REVERT JUMPDEST PUSH0 PUSH1 0x1F NOT PUSH1 0x1F DUP4 ADD AND SWAP1 POP SWAP2 SWAP1 POP JUMP JUMPDEST PUSH32 0x4E487B7100000000000000000000000000000000000000000000000000000000 PUSH0 MSTORE PUSH1 0x41 PUSH1 0x4 MSTORE PUSH1 0x24 PUSH0 REVERT JUMPDEST PUSH2 0xD9F DUP3 PUSH2 0xD59 JUMP JUMPDEST DUP2 ADD DUP2 DUP2 LT PUSH8 0xFFFFFFFFFFFFFFFF DUP3 GT OR ISZERO PUSH2 0xDBE JUMPI PUSH2 0xDBD PUSH2 0xD69 JUMP JUMPDEST JUMPDEST DUP1 PUSH1 0x40 MSTORE POP POP POP JUMP JUMPDEST PUSH0 PUSH2 0xDD0 PUSH2 0xC00 JUMP JUMPDEST SWAP1 POP PUSH2 0xDDC DUP3 DUP3 PUSH2 0xD96 JUMP JUMPDEST SWAP2 SWAP1 POP JUMP JUMPDEST PUSH0 PUSH8 0xFFFFFFFFFFFFFFFF DUP3 GT ISZERO PUSH2 0xDFB JUMPI PUSH2 0xDFA PUSH2 0xD69 JUMP JUMPDEST JUMPDEST PUSH2 0xE04 DUP3 PUSH2 0xD59 JUMP JUMPDEST SWAP1 POP PUSH1 0x20 DUP2 ADD SWAP1 POP SWAP2 SWAP1 POP JUMP JUMPDEST DUP3 DUP2 DUP4 CALLDATACOPY PUSH0 DUP4 DUP4 ADD MSTORE POP POP POP JUMP JUMPDEST PUSH0 PUSH2 0xE31 PUSH2 0xE2C DUP5 PUSH2 0xDE1 JUMP JUMPDEST PUSH2 0xDC7 JUMP JUMPDEST SWAP1 POP DUP3 DUP2 MSTORE PUSH1 0x20 DUP2 ADD DUP5 DUP5 DUP5 ADD GT ISZERO PUSH2 0xE4D JUMPI PUSH2 0xE4C PUSH2 0xD55 JUMP JUMPDEST JUMPDEST PUSH2 0xE58 DUP5 DUP3 DUP6 PUSH2 0xE11 JUMP JUMPDEST POP SWAP4 SWAP3 POP POP POP JUMP JUMPDEST PUSH0 DUP3 PUSH1 0x1F DUP4 ADD SLT PUSH2 0xE74 JUMPI PUSH2 0xE73 PUSH2 0xC11 JUMP JUMPDEST JUMPDEST DUP2 CALLDATALOAD PUSH2 0xE84 DUP5 DUP3 PUSH1 0x20 DUP7 ADD PUSH2 0xE1F JUMP JUMPDEST SWAP2 POP POP SWAP3 SWAP2 POP POP JUMP JUMPDEST PUSH0 PUSH1 0x20 DUP3 DUP5 SUB SLT ISZERO PUSH2 0xEA2 JUMPI PUSH2 0xEA1 PUSH2 0xC09 JUMP JUMPDEST JUMPDEST PUSH0 DUP3 ADD CALLDATALOAD PUSH8 0xFFFFFFFFFFFFFFFF DUP2 GT ISZERO PUSH2 0xEBF JUMPI PUSH2 0xEBE PUSH2 0xC0D JUMP JUMPDEST JUMPDEST PUSH2 0xECB DUP5 DUP3 DUP6 ADD PUSH2 0xE60 JUMP JUMPDEST SWAP2 POP POP SWAP3 SWAP2 POP POP JUMP JUMPDEST PUSH0 DUP2 MLOAD SWAP1 POP SWAP2 SWAP1 POP JUMP JUMPDEST PUSH0 DUP3 DUP3 MSTORE PUSH1 0x20 DUP3 ADD SWAP1 POP SWAP3 SWAP2 POP POP JUMP JUMPDEST PUSH0 JUMPDEST DUP4 DUP2 LT ISZERO PUSH2 0xF0B JUMPI DUP1 DUP3 ADD MLOAD DUP2 DUP5 ADD MSTORE PUSH1 0x20 DUP2 ADD SWAP1 POP PUSH2 0xEF0 JUMP JUMPDEST PUSH0 DUP5 DUP5 ADD MSTORE POP POP POP POP JUMP JUMPDEST PUSH0 PUSH2 0xF20 DUP3 PUSH2 0xED4 JUMP JUMPDEST PUSH2 0xF2A DUP2 DUP6 PUSH2 0xEDE JUMP JUMPDEST SWAP4 POP PUSH2 0xF3A DUP2 DUP6 PUSH1 0x20 DUP7 ADD PUSH2 0xEEE JUMP JUMPDEST PUSH2 0xF43 DUP2 PUSH2 0xD59 JUMP JUMPDEST DUP5 ADD SWAP2 POP POP SWAP3 SWAP2 POP POP JUMP JUMPDEST PUSH0 PUSH1 0x40 DUP3 ADD SWAP1 POP DUP2 DUP2 SUB PUSH0 DUP4 ADD MSTORE PUSH2 0xF66 DUP2 DUP6 PUSH2 0xF16 JUMP JUMPDEST SWAP1 POP DUP2 DUP2 SUB PUSH1 0x20 DUP4 ADD MSTORE PUSH2 0xF7A DUP2 DUP5 PUSH2 0xF16 JUMP JUMPDEST SWAP1 POP SWAP4 SWAP3 POP POP POP JUMP JUMPDEST PUSH0 DUP2 SWAP1 POP SWAP2 SWAP1 POP JUMP JUMPDEST PUSH32 0x4E487B7100000000000000000000000000000000000000000000000000000000 PUSH0 MSTORE PUSH1 0x11 PUSH1 0x4 MSTORE PUSH1 0x24 PUSH0 REVERT JUMPDEST PUSH0 PUSH2 0xFC3 DUP3 PUSH2 0xF83 JUMP JUMPDEST SWAP2 POP PUSH2 0xFCE DUP4 PUSH2 0xF83 JUMP JUMPDEST SWAP3 POP DUP3 DUP3 SUB SWAP1 POP DUP2 DUP2 GT ISZERO PUSH2 0xFE6 JUMPI PUSH2 0xFE5 PUSH2 0xF8C JUMP JUMPDEST JUMPDEST SWAP3 SWAP2 POP POP JUMP JUMPDEST PUSH0 DUP2 SWAP1 POP SWAP3 SWAP2 POP POP JUMP JUMPDEST PUSH0 PUSH2 0x1001 DUP4 DUP6 PUSH2 0xFEC JUMP JUMPDEST SWAP4 POP PUSH2 0x100E DUP4 DUP6 DUP5 PUSH2 0xE11 JUMP JUMPDEST DUP3 DUP5 ADD SWAP1 POP SWAP4 SWAP3 POP POP POP JUMP JUMPDEST PUSH0 PUSH2 0x1026 DUP3 DUP5 DUP7 PUSH2 0xFF6 JUMP JUMPDEST SWAP2 POP DUP2 SWAP1 POP SWAP4 SWAP3 POP POP POP JUMP JUMPDEST PUSH0 DUP2 SWAP1 POP SWAP2 SWAP1 POP JUMP JUMPDEST PUSH2 0x1044 DUP2 PUSH2 0x1032 JUMP JUMPDEST DUP2 EQ PUSH2 0x104E JUMPI PUSH0 DUP1 REVERT JUMPDEST POP JUMP JUMPDEST PUSH0 DUP2 MLOAD SWAP1 POP PUSH2 0x105F DUP2 PUSH2 0x103B JUMP JUMPDEST SWAP3 SWAP2 POP POP JUMP JUMPDEST PUSH0 PUSH1 0x20 DUP3 DUP5 SUB SLT ISZERO PUSH2 0x107A JUMPI PUSH2 0x1079 PUSH2 0xC09 JUMP JUMPDEST JUMPDEST PUSH0 PUSH2 0x1087 DUP5 DUP3 DUP6 ADD PUSH2 0x1051 JUMP JUMPDEST SWAP2 POP POP SWAP3 SWAP2 POP POP JUMP JUMPDEST PUSH0 DUP3 DUP3 MSTORE PUSH1 0x20 DUP3 ADD SWAP1 POP SWAP3 SWAP2 POP POP JUMP JUMPDEST PUSH32 0x496E76616C6964206B6579000000000000000000000000000000000000000000 PUSH0 DUP3 ADD MSTORE POP JUMP JUMPDEST PUSH0 PUSH2 0x10D4 PUSH1 0xB DUP4 PUSH2 0x1090 JUMP JUMPDEST SWAP2 POP PUSH2 0x10DF DUP3 PUSH2 0x10A0 JUMP JUMPDEST PUSH1 0x20 DUP3 ADD SWAP1 POP SWAP2 SWAP1 POP JUMP JUMPDEST PUSH0 PUSH1 0x20 DUP3 ADD SWAP1 POP DUP2 DUP2 SUB PUSH0 DUP4 ADD MSTORE PUSH2 0x1101 DUP2 PUSH2 0x10C8 JUMP JUMPDEST SWAP1 POP SWAP2 SWAP1 POP JUMP JUMPDEST PUSH0 PUSH2 0x1112 DUP3 PUSH2 0xF83 JUMP JUMPDEST SWAP2 POP PUSH2 0x111D DUP4 PUSH2 0xF83 JUMP JUMPDEST SWAP3 POP DUP3 DUP3 ADD SWAP1 POP DUP1 DUP3 GT ISZERO PUSH2 0x1135 JUMPI PUSH2 0x1134 PUSH2 0xF8C JUMP JUMPDEST JUMPDEST SWAP3 SWAP2 POP POP JUMP JUMPDEST PUSH32 0x4E487B7100000000000000000000000000000000000000000000000000000000 PUSH0 MSTORE PUSH1 0x32 PUSH1 0x4 MSTORE PUSH1 0x24 PUSH0 REVERT JUMPDEST PUSH32 0x41736E316465636F64653A204E6F74206120636F6E7374727563746564207479 PUSH0 DUP3 ADD MSTORE PUSH32 0x7065000000000000000000000000000000000000000000000000000000000000 PUSH1 0x20 DUP3 ADD MSTORE POP JUMP JUMPDEST PUSH0 PUSH2 0x11C2 PUSH1 0x22 DUP4 PUSH2 0x1090 JUMP JUMPDEST SWAP2 POP PUSH2 0x11CD DUP3 PUSH2 0x1168 JUMP JUMPDEST PUSH1 0x40 DUP3 ADD SWAP1 POP SWAP2 SWAP1 POP JUMP JUMPDEST PUSH0 PUSH1 0x20 DUP3 ADD SWAP1 POP DUP2 DUP2 SUB PUSH0 DUP4 ADD MSTORE PUSH2 0x11EF DUP2 PUSH2 0x11B6 JUMP JUMPDEST SWAP1 POP SWAP2 SWAP1 POP JUMP JUMPDEST PUSH32 0x4E6F7420747970652042495420535452494E4700000000000000000000000000 PUSH0 DUP3 ADD MSTORE POP JUMP JUMPDEST PUSH0 PUSH2 0x122A PUSH1 0x13 DUP4 PUSH2 0x1090 JUMP JUMPDEST SWAP2 POP PUSH2 0x1235 DUP3 PUSH2 0x11F6 JUMP JUMPDEST PUSH1 0x20 DUP3 ADD SWAP1 POP SWAP2 SWAP1 POP JUMP JUMPDEST PUSH0 PUSH1 0x20 DUP3 ADD SWAP1 POP DUP2 DUP2 SUB PUSH0 DUP4 ADD MSTORE PUSH2 0x1257 DUP2 PUSH2 0x121E JUMP JUMPDEST SWAP1 POP SWAP2 SWAP1 POP JUMP JUMPDEST PUSH32 0x4E6F74207479706520494E544547455200000000000000000000000000000000 PUSH0 DUP3 ADD MSTORE POP JUMP JUMPDEST PUSH0 PUSH2 0x1292 PUSH1 0x10 DUP4 PUSH2 0x1090 JUMP JUMPDEST SWAP2 POP PUSH2 0x129D DUP3 PUSH2 0x125E JUMP JUMPDEST PUSH1 0x20 DUP3 ADD SWAP1 POP SWAP2 SWAP1 POP JUMP JUMPDEST PUSH0 PUSH1 0x20 DUP3 ADD SWAP1 POP DUP2 DUP2 SUB PUSH0 DUP4 ADD MSTORE PUSH2 0x12BF DUP2 PUSH2 0x1286 JUMP JUMPDEST SWAP1 POP SWAP2 SWAP1 POP JUMP JUMPDEST PUSH32 0x4E6F7420706F7369746976650000000000000000000000000000000000000000 PUSH0 DUP3 ADD MSTORE POP JUMP JUMPDEST PUSH0 PUSH2 0x12FA PUSH1 0xC DUP4 PUSH2 0x1090 JUMP JUMPDEST SWAP2 POP PUSH2 0x1305 DUP3 PUSH2 0x12C6 JUMP JUMPDEST PUSH1 0x20 DUP3 ADD SWAP1 POP SWAP2 SWAP1 POP JUMP JUMPDEST PUSH0 PUSH1 0x20 DUP3 ADD SWAP1 POP DUP2 DUP2 SUB PUSH0 DUP4 ADD MSTORE PUSH2 0x1327 DUP2 PUSH2 0x12EE JUMP JUMPDEST SWAP1 POP SWAP2 SWAP1 POP JUMP JUMPDEST PUSH0 DUP2 SWAP1 POP SWAP2 SWAP1 POP JUMP JUMPDEST PUSH2 0x1348 PUSH2 0x1343 DUP3 PUSH2 0xF83 JUMP JUMPDEST PUSH2 0x132E JUMP JUMPDEST DUP3 MSTORE POP POP JUMP JUMPDEST PUSH0 PUSH2 0x1358 DUP3 PUSH2 0xED4 JUMP JUMPDEST PUSH2 0x1362 DUP2 DUP6 PUSH2 0xFEC JUMP JUMPDEST SWAP4 POP PUSH2 0x1372 DUP2 DUP6 PUSH1 0x20 DUP7 ADD PUSH2 0xEEE JUMP JUMPDEST DUP1 DUP5 ADD SWAP2 POP POP SWAP3 SWAP2 POP POP JUMP JUMPDEST PUSH0 PUSH2 0x1389 DUP3 DUP10 PUSH2 0x1337 JUMP JUMPDEST PUSH1 0x20 DUP3 ADD SWAP2 POP PUSH2 0x1399 DUP3 DUP9 PUSH2 0x1337 JUMP JUMPDEST PUSH1 0x20 DUP3 ADD SWAP2 POP PUSH2 0x13A9 DUP3 DUP8 PUSH2 0x1337 JUMP JUMPDEST PUSH1 0x20 DUP3 ADD SWAP2 POP PUSH2 0x13B9 DUP3 DUP7 PUSH2 0x134E JUMP JUMPDEST SWAP2 POP PUSH2 0x13C5 DUP3 DUP6 PUSH2 0x134E JUMP JUMPDEST SWAP2 POP PUSH2 0x13D1 DUP3 DUP5 PUSH2 0x134E JUMP JUMPDEST SWAP2 POP DUP2 SWAP1 POP SWAP8 SWAP7 POP POP POP POP POP POP POP JUMP JUMPDEST PUSH0 PUSH1 0xFF DUP3 AND SWAP1 POP SWAP2 SWAP1 POP JUMP JUMPDEST PUSH0 PUSH2 0x13F7 DUP3 PUSH2 0x13E1 JUMP JUMPDEST SWAP2 POP PUSH2 0x1402 DUP4 PUSH2 0x13E1 JUMP JUMPDEST SWAP3 POP DUP3 DUP3 SUB SWAP1 POP PUSH1 0xFF DUP2 GT ISZERO PUSH2 0x141B JUMPI PUSH2 0x141A PUSH2 0xF8C JUMP JUMPDEST JUMPDEST SWAP3 SWAP2 POP POP JUMP JUMPDEST PUSH0 PUSH2 0x142B DUP3 PUSH2 0x13E1 JUMP JUMPDEST SWAP2 POP PUSH2 0x1436 DUP4 PUSH2 0x13E1 JUMP JUMPDEST SWAP3 POP DUP3 DUP3 MUL PUSH2 0x1444 DUP2 PUSH2 0x13E1 JUMP JUMPDEST SWAP2 POP DUP1 DUP3 EQ PUSH2 0x1456 JUMPI PUSH2 0x1455 PUSH2 0xF8C JUMP JUMPDEST JUMPDEST POP SWAP3 SWAP2 POP POP JUMP INVALID LOG2 PUSH5 0x6970667358 0x22 SLT KECCAK256 ISZERO LOG4 DUP8 0xA5 0xAE 0x49 LOG0 0xB3 PUSH1 0x92 SWAP8 0x5E 0xD9 0xB0 CALLER TIMESTAMP 0x5D DUP9 DUP4 0xB5 0x21 0xED PUSH9 0x294A0F5C6B2947E0AF PUSH5 0x736F6C6343 STOP ADDMOD AND STOP CALLER "
		},
		"gasEstimates": {
			"creation": {
				"codeDepositCost": "1053400",
				"executionCost": "1092",
				"totalCost": "1054492"
			},
			"external": {
				"extractKeyComponents(bytes)": "infinite",
				"verify(bytes,bytes,bytes)": "infinite"
			}
		},
		"methodIdentifiers": {
			"extractKeyComponents(bytes)": "df4e0bc3",
			"verify(bytes,bytes,bytes)": "de8f50a1"
		}
	},
	"abi": [
		{
			"inputs": [
				{
					"internalType": "bytes",
					"name": "key",
					"type": "bytes"
				}
			],
			"name": "extractKeyComponents",
			"outputs": [
				{
					"internalType": "bytes",
					"name": "",
					"type": "bytes"
				},
				{
					"internalType": "bytes",
					"name": "",
					"type": "bytes"
				}
			],
			"stateMutability": "pure",
			"type": "function"
		},
		{
			"inputs": [
				{
					"internalType": "bytes",
					"name": "key",
					"type": "bytes"
				},
				{
					"internalType": "bytes",
					"name": "data",
					"type": "bytes"
				},
				{
					"internalType": "bytes",
					"name": "sig",
					"type": "bytes"
				}
			],
			"name": "verify",
			"outputs": [
				{
					"internalType": "bool",
					"name": "",
					"type": "bool"
				}
			],
			"stateMutability": "view",
			"type": "function"
		}
	]
}