{
	"data": {
		"bytecode": {
			"linkReferences": {
				"src/utils/DateTime.sol": {
					"DateTime": [
						{
							"length": 20,
							"start": 2499
						},
						{
							"length": 20,
							"start": 2753
						}
					]
				}
			},
			"object": "60806040527f3de47aea313c51d32b98c39a135f6c7fdc4999d05991585fa378bc8d22aef8426001557f22697376456e636c61766551756f7465537461747573223a224f4b2200000000600255600680546001600160b81b0319167622697376456e636c61766551756f7465426f6479223a2217905534801562000081575f80fd5b5060405162001b2e38038062001b2e833981016040819052620000a4916200022d565b3380620000ca57604051631e4fbdf760e01b81525f600482015260240160405180910390fd5b620000d5816200011d565b506003620000e484826200033e565b506004620000f383826200033e565b50600580546001600160a01b0319166001600160a01b0392909216919091179055506200040a9050565b5f80546001600160a01b038381166001600160a01b0319831681178455604051919092169283917f8be0079c531659141344cd1fd0a4f28419497f9722a3daafe3b4186f6b6457e09190a35050565b634e487b7160e01b5f52604160045260245ffd5b5f82601f83011262000190575f80fd5b81516001600160401b0380821115620001ad57620001ad6200016c565b604051601f8301601f19908116603f01168101908282118183101715620001d857620001d86200016c565b8160405283815260209250866020858801011115620001f5575f80fd5b5f91505b83821015620002185785820183015181830184015290820190620001f9565b5f602085830101528094505050505092915050565b5f805f6060848603121562000240575f80fd5b83516001600160401b038082111562000257575f80fd5b620002658783880162000180565b945060208601519150808211156200027b575f80fd5b506200028a8682870162000180565b604086015190935090506001600160a01b0381168114620002a9575f80fd5b809150509250925092565b600181811c90821680620002c957607f821691505b602082108103620002e857634e487b7160e01b5f52602260045260245ffd5b50919050565b601f8211156200033957805f5260205f20601f840160051c81016020851015620003155750805b601f840160051c820191505b8181101562000336575f815560010162000321565b50505b505050565b81516001600160401b038111156200035a576200035a6200016c565b62000372816200036b8454620002b4565b84620002ee565b602080601f831160018114620003a8575f8415620003905750858301515b5f19600386901b1c1916600185901b17855562000402565b5f85815260208120601f198616915b82811015620003d857888601518255948401946001909101908401620003b7565b5085821015620003f657878501515f19600388901b60f8161c191681555b505060018460011b0185555b505050505050565b61171680620004185f395ff3fe608060405234801561000f575f80fd5b50600436106100b1575f3560e01c8063721d9bc41161006e578063721d9bc41461016a5780637221e6fc1461017d57806389cccf61146101855780638da5cb5b14610198578063e35f1a83146101a8578063f2fde38b146101bb575f80fd5b80633553d6ee146100b55780633e1c075a146100d357806344a73684146100f6578063462b26531461011e57806358d1c11b14610149578063715018a614610160575b5f80fd5b6100bd6101ce565b6040516100ca9190611202565b60405180910390f35b6100e66100e1366004611259565b61025a565b60405190151581526020016100ca565b6006546101039060481b81565b60405168ffffffffffffffffff1990911681526020016100ca565b600554610131906001600160a01b031681565b6040516001600160a01b0390911681526020016100ca565b61015260015481565b6040519081526020016100ca565b6101686103cb565b005b6100bd610178366004611389565b6103de565b6100bd6107bd565b6101686101933660046113e9565b6107ca565b5f546001600160a01b0316610131565b6101526101b6366004611400565b61083a565b6101686101c936600461143f565b61089c565b600380546101db90611465565b80601f016020809104026020016040519081016040528092919081815260200182805461020790611465565b80156102525780601f1061022957610100808354040283529160200191610252565b820191905f5260205f20905b81548152906001019060200180831161023557829003601f168201915b505050505081565b5f8061032488888080601f0160208091040260200160405190810160405280939291908181526020018383808284375f9201919091525050600380549092506102a39150611465565b80601f01602080910402602001604051908101604052809291908181526020018280546102cf90611465565b801561031a5780601f106102f15761010080835404028352916020019161031a565b820191905f5260205f20905b8154815290600101906020018083116102fd57829003601f168201915b50505050506103de565b60055460405163de8f50a160e01b81529192506001600160a01b03169063de8f50a19061035d9084908a908a908a908a906004016114c5565b602060405180830381865afa158015610378573d5f803e3d5ffd5b505050506040513d601f19601f8201168201806040525081019061039c91906114ff565b15155f036103ad575f9150506103c1565b5f6103b8878761083a565b60015414925050505b9695505050505050565b6103d36108d9565b6103dc5f610905565b565b60605f805f6103ec86610954565b92506103f8868461095f565b9250610404868461095f565b9150856001600160501b038316815181106104215761042161151e565b01602001516001600160f81b031916600560fd1b03610447576104448683610a03565b91505b6104518683610a03565b915061045d868361095f565b91506104698684610a03565b90506104758682610a03565b6005549091506001600160a01b031663de8f50a1866104948987610a20565b61049e8a86610a5b565b6040518463ffffffff1660e01b81526004016104bc93929190611532565b602060405180830381865afa1580156104d7573d5f803e3d5ffd5b505050506040513d601f19601f820116820180604052508101906104fb91906114ff565b6105605760405162461bcd60e51b815260206004820152602b60248201527f4174746573746174696f6e56657269666965723a205369676e6174757265206460448201526a0decae6dce840dac2e8c6d60ab1b60648201526084015b60405180910390fd5b61056a868461095f565b92506105768684610a03565b92506105828684610a03565b925061058e8684610a03565b925061059a8684610a03565b92506105a6868461095f565b91505f73__$3121b8144e26f5a8fcc440b7b32d4f2d0e$__63095385c66105cd8986610a5b565b6040518263ffffffff1660e01b81526004016105e99190611202565b602060405180830381865af4158015610604573d5f803e3d5ffd5b505050506040513d601f19601f82011682018060405250810190610628919061156a565b9050428164ffffffffff16111561069a5760405162461bcd60e51b815260206004820152603060248201527f4174746573746174696f6e5665726966793a204365727469666963617465206960448201526f39903737ba103cb2ba103b30b634b21760811b6064820152608401610557565b6106a48784610a03565b92505f73__$3121b8144e26f5a8fcc440b7b32d4f2d0e$__63095385c66106cb8a87610a5b565b6040518263ffffffff1660e01b81526004016106e79190611202565b602060405180830381865af4158015610702573d5f803e3d5ffd5b505050506040513d601f19601f82011682018060405250810190610726919061156a565b9050428164ffffffffff16101561078f5760405162461bcd60e51b815260206004820152602760248201527f4174746573746174696f6e5665726966793a20436572746966696361746520656044820152663c3834b932b21760c91b6064820152608401610557565b6107998886610a03565b94506107a58886610a03565b94506107b18886610a20565b98975050505050505050565b600480546101db90611465565b6107d26108d9565b806108355760405162461bcd60e51b815260206004820152602d60248201527f4578706563746564204d52454e434c4156452063616e2774206265207365742060448201526c746f207a65726f20627974657360981b6064820152608401610557565b600155565b5f8061088184848080601f0160208091040260200160405190810160405280939291908181526020018383808284375f920191909152505060065460481b9150610a749050565b90505f6108918260706020610c42565b925050505b92915050565b6108a46108d9565b6001600160a01b0381166108cd57604051631e4fbdf760e01b81525f6004820152602401610557565b6108d681610905565b50565b5f546001600160a01b031633146103dc5760405163118cdaa760e01b8152336004820152602401610557565b5f80546001600160a01b038381166001600160a01b0319831681178455604051919092169283917f8be0079c531659141344cd1fd0a4f28419497f9722a3daafe3b4186f6b6457e09190a35050565b5f610896825f610c7f565b5f826001600160501b0383168151811061097b5761097b61151e565b0160200151600160fd1b908116146109e05760405162461bcd60e51b815260206004820152602260248201527f41736e316465636f64653a204e6f74206120636f6e7374727563746564207479604482015261706560f01b6064820152608401610557565b6109fc83605084901c6001600160501b0316610c7f565b610c7f565b9392505050565b5f6109fc836109f76001600160501b0360a086901c166001611595565b60606109fc6001600160501b038316805b610a496001600160501b0360a087901c166001611595565b610a5391906115a8565b859190610e2c565b60606109fc6001600160501b03605084901c1680610a31565b60605f6017610a838585610eac565b610a8d9190611595565b90505f818551610a9d91906115a8565b90505f808267ffffffffffffffff811115610aba57610aba6112ec565b6040519080825280601f01601f191660200182016040528015610ae4576020820181803683370190505b5090505f5b83811015610b895787610afc8287611595565b81518110610b0c57610b0c61151e565b6020910101516001600160f81b031916601160f91b14610b895787610b318287611595565b81518110610b4157610b4161151e565b602001015160f81c60f81b828281518110610b5e57610b5e61151e565b60200101906001600160f81b03191690815f1a90535082610b7e816115bb565b935050600101610ae9565b505f8267ffffffffffffffff811115610ba457610ba46112ec565b6040519080825280601f01601f191660200182016040528015610bce576020820181803683370190505b5090505f5b83811015610c2857828181518110610bed57610bed61151e565b602001015160f81c60f81b828281518110610c0a57610c0a61151e565b60200101906001600160f81b03191690815f1a905350600101610bd3565b50805f610c3482610f74565b9a9950505050505050505050565b5f6020821115610c50575f80fd5b8351610c5c8385611595565b1115610c66575f80fd5b506020919092018101519190036101000a5f1901191690565b5f80808085610c8f866001611595565b81518110610c9f57610c9f61151e565b0160200151600160ff1b165f03610d095785610cbc866001611595565b81518110610ccc57610ccc61151e565b016020015160f81c9250610ce1856002611595565b91506001610cf8846001600160501b038516611595565b610d0291906115a8565b9050610dfc565b5f86610d16876001611595565b81518110610d2657610d2661151e565b60209101015160f81c607f1690506001819003610d5c57610d52610d4b876002611595565b8890611121565b60ff169350610dbe565b8060ff16600203610d8757610d7c610d75876002611595565b8890611144565b61ffff169350610dbe565b610d928160206115d3565b610d9d9060086115ec565b60ff16610db9610dae886002611595565b899060ff8516610c42565b901c93505b60ff8116610dcd876002611595565b610dd79190611595565b92506001610dee856001600160501b038616611595565b610df891906115a8565b9150505b69ffffffffffffffffffff60a01b60a082901b1669ffffffffffffffffffff60501b605084901b168617176103c1565b8251606090610e3b8385611595565b1115610e45575f80fd5b5f8267ffffffffffffffff811115610e5f57610e5f6112ec565b6040519080825280601f01601f191660200182016040528015610e89576020820181803683370190505b50905060208082019086860101610ea182828761116a565b509095945050505050565b81515f9060179080821115610ec6575f1992505050610896565b5f5b610ed283836115a8565b8111610f685760015f5b84811015610f4357868160178110610ef657610ef661151e565b1a60f81b6001600160f81b03191688610f0f8386611595565b81518110610f1f57610f1f61151e565b01602001516001600160f81b03191614610f3b575f9150610f43565b600101610edc565b508015610f5557509250610896915050565b5080610f60816115bb565b915050610ec8565b505f1995945050505050565b805160609082905f03610f96575050604080515f815260208101909152919050565b60048151610fa49190611623565b15610ff15760405162461bcd60e51b815260206004820152601c60248201527f696e76616c696420626173653634206465636f64657220696e707574000000006044820152606401610557565b5f6040518060a00160405280608081526020016116616080913990505f6004835161101c9190611636565b611027906003611649565b90505f611035826020611595565b67ffffffffffffffff81111561104d5761104d6112ec565b6040519080825280601f01601f191660200182016040528015611077576020820181803683370190505b5090508351840151603d60ff8216036110a457600183039250613d3d61ffff8216036110a4576001830392505b50818152600183018485518101602084015b8183101561111357600483019250825160ff8082168601511660ff808360081c168701511660061b0160ff808360101c1687015116600c1b60ff808460181c168801511660121b010190508060e81b8252506003810190506110b6565b509298975050505050505050565b5f8282815181106111345761113461151e565b016020015160f81c905092915050565b81515f90611153836002611595565b111561115d575f80fd5b50016002015161ffff1690565b602081106111a25781518352611181602084611595565b925061118e602083611595565b915061119b6020826115a8565b905061116a565b905182516020929092036101000a5f190180199091169116179052565b5f81518084525f5b818110156111e3576020818501810151868301820152016111c7565b505f602082860101526020601f19601f83011685010191505092915050565b602081525f6109fc60208301846111bf565b5f8083601f840112611224575f80fd5b50813567ffffffffffffffff81111561123b575f80fd5b602083019150836020828501011115611252575f80fd5b9250929050565b5f805f805f806060878903121561126e575f80fd5b863567ffffffffffffffff80821115611285575f80fd5b6112918a838b01611214565b909850965060208901359150808211156112a9575f80fd5b6112b58a838b01611214565b909650945060408901359150808211156112cd575f80fd5b506112da89828a01611214565b979a9699509497509295939492505050565b634e487b7160e01b5f52604160045260245ffd5b5f82601f83011261130f575f80fd5b813567ffffffffffffffff8082111561132a5761132a6112ec565b604051601f8301601f19908116603f01168101908282118183101715611352576113526112ec565b8160405283815286602085880101111561136a575f80fd5b836020870160208301375f602085830101528094505050505092915050565b5f806040838503121561139a575f80fd5b823567ffffffffffffffff808211156113b1575f80fd5b6113bd86838701611300565b935060208501359150808211156113d2575f80fd5b506113df85828601611300565b9150509250929050565b5f602082840312156113f9575f80fd5b5035919050565b5f8060208385031215611411575f80fd5b823567ffffffffffffffff811115611427575f80fd5b61143385828601611214565b90969095509350505050565b5f6020828403121561144f575f80fd5b81356001600160a01b03811681146109fc575f80fd5b600181811c9082168061147957607f821691505b60208210810361149757634e487b7160e01b5f52602260045260245ffd5b50919050565b81835281816020850137505f828201602090810191909152601f909101601f19169091010190565b606081525f6114d760608301886111bf565b82810360208401526114ea81878961149d565b905082810360408401526107b181858761149d565b5f6020828403121561150f575f80fd5b815180151581146109fc575f80fd5b634e487b7160e01b5f52603260045260245ffd5b606081525f61154460608301866111bf565b828103602084015261155681866111bf565b905082810360408401526103c181856111bf565b5f6020828403121561157a575f80fd5b5051919050565b634e487b7160e01b5f52601160045260245ffd5b8082018082111561089657610896611581565b8181038181111561089657610896611581565b5f600182016115cc576115cc611581565b5060010190565b60ff828116828216039081111561089657610896611581565b60ff818116838216029081169081811461160857611608611581565b5092915050565b634e487b7160e01b5f52601260045260245ffd5b5f826116315761163161160f565b500690565b5f826116445761164461160f565b500490565b80820281158282048414176108965761089661158156fe000000000000000000000000000000000000000000000000000000000000000000000000000000000000003e0000003f3435363738393a3b3c3d00000000000000000102030405060708090a0b0c0d0e0f101112131415161718190000000000001a1b1c1d1e1f202122232425262728292a2b2c2d2e2f303132330000000000a2646970667358221220055ca4e0a02250a38c814758aeb863d67a5304a4f2dfcd172075ba2ca5bd730f64736f6c63430008160033",
			"opcodes": "PUSH1 0x80 PUSH1 0x40 MSTORE PUSH32 0x3DE47AEA313C51D32B98C39A135F6C7FDC4999D05991585FA378BC8D22AEF842 PUSH1 0x1 SSTORE PUSH32 0x22697376456E636C61766551756F7465537461747573223A224F4B2200000000 PUSH1 0x2 SSTORE PUSH1 0x6 DUP1 SLOAD PUSH1 0x1 PUSH1 0x1 PUSH1 0xB8 SHL SUB NOT AND PUSH23 0x22697376456E636C61766551756F7465426F6479223A22 OR SWAP1 SSTORE CALLVALUE DUP1 ISZERO PUSH3 0x81 JUMPI PUSH0 DUP1 REVERT JUMPDEST POP PUSH1 0x40 MLOAD PUSH3 0x1B2E CODESIZE SUB DUP1 PUSH3 0x1B2E DUP4 CODECOPY DUP2 ADD PUSH1 0x40 DUP2 SWAP1 MSTORE PUSH3 0xA4 SWAP2 PUSH3 0x22D JUMP JUMPDEST CALLER DUP1 PUSH3 0xCA JUMPI PUSH1 0x40 MLOAD PUSH4 0x1E4FBDF7 PUSH1 0xE0 SHL DUP2 MSTORE PUSH0 PUSH1 0x4 DUP3 ADD MSTORE PUSH1 0x24 ADD PUSH1 0x40 MLOAD DUP1 SWAP2 SUB SWAP1 REVERT JUMPDEST PUSH3 0xD5 DUP2 PUSH3 0x11D JUMP JUMPDEST POP PUSH1 0x3 PUSH3 0xE4 DUP5 DUP3 PUSH3 0x33E JUMP JUMPDEST POP PUSH1 0x4 PUSH3 0xF3 DUP4 DUP3 PUSH3 0x33E JUMP JUMPDEST POP PUSH1 0x5 DUP1 SLOAD PUSH1 0x1 PUSH1 0x1 PUSH1 0xA0 SHL SUB NOT AND PUSH1 0x1 PUSH1 0x1 PUSH1 0xA0 SHL SUB SWAP3 SWAP1 SWAP3 AND SWAP2 SWAP1 SWAP2 OR SWAP1 SSTORE POP PUSH3 0x40A SWAP1 POP JUMP JUMPDEST PUSH0 DUP1 SLOAD PUSH1 0x1 PUSH1 0x1 PUSH1 0xA0 SHL SUB DUP4 DUP2 AND PUSH1 0x1 PUSH1 0x1 PUSH1 0xA0 SHL SUB NOT DUP4 AND DUP2 OR DUP5 SSTORE PUSH1 0x40 MLOAD SWAP2 SWAP1 SWAP3 AND SWAP3 DUP4 SWAP2 PUSH32 0x8BE0079C531659141344CD1FD0A4F28419497F9722A3DAAFE3B4186F6B6457E0 SWAP2 SWAP1 LOG3 POP POP JUMP JUMPDEST PUSH4 0x4E487B71 PUSH1 0xE0 SHL PUSH0 MSTORE PUSH1 0x41 PUSH1 0x4 MSTORE PUSH1 0x24 PUSH0 REVERT JUMPDEST PUSH0 DUP3 PUSH1 0x1F DUP4 ADD SLT PUSH3 0x190 JUMPI PUSH0 DUP1 REVERT JUMPDEST DUP2 MLOAD PUSH1 0x1 PUSH1 0x1 PUSH1 0x40 SHL SUB DUP1 DUP3 GT ISZERO PUSH3 0x1AD JUMPI PUSH3 0x1AD PUSH3 0x16C JUMP JUMPDEST PUSH1 0x40 MLOAD PUSH1 0x1F DUP4 ADD PUSH1 0x1F NOT SWAP1 DUP2 AND PUSH1 0x3F ADD AND DUP2 ADD SWAP1 DUP3 DUP3 GT DUP2 DUP4 LT OR ISZERO PUSH3 0x1D8 JUMPI PUSH3 0x1D8 PUSH3 0x16C JUMP JUMPDEST DUP2 PUSH1 0x40 MSTORE DUP4 DUP2 MSTORE PUSH1 0x20 SWAP3 POP DUP7 PUSH1 0x20 DUP6 DUP9 ADD ADD GT ISZERO PUSH3 0x1F5 JUMPI PUSH0 DUP1 REVERT JUMPDEST PUSH0 SWAP2 POP JUMPDEST DUP4 DUP3 LT ISZERO PUSH3 0x218 JUMPI DUP6 DUP3 ADD DUP4 ADD MLOAD DUP2 DUP4 ADD DUP5 ADD MSTORE SWAP1 DUP3 ADD SWAP1 PUSH3 0x1F9 JUMP JUMPDEST PUSH0 PUSH1 0x20 DUP6 DUP4 ADD ADD MSTORE DUP1 SWAP5 POP POP POP POP POP SWAP3 SWAP2 POP POP JUMP JUMPDEST PUSH0 DUP1 PUSH0 PUSH1 0x60 DUP5 DUP7 SUB SLT ISZERO PUSH3 0x240 JUMPI PUSH0 DUP1 REVERT JUMPDEST DUP4 MLOAD PUSH1 0x1 PUSH1 0x1 PUSH1 0x40 SHL SUB DUP1 DUP3 GT ISZERO PUSH3 0x257 JUMPI PUSH0 DUP1 REVERT JUMPDEST PUSH3 0x265 DUP8 DUP4 DUP9 ADD PUSH3 0x180 JUMP JUMPDEST SWAP5 POP PUSH1 0x20 DUP7 ADD MLOAD SWAP2 POP DUP1 DUP3 GT ISZERO PUSH3 0x27B JUMPI PUSH0 DUP1 REVERT JUMPDEST POP PUSH3 0x28A DUP7 DUP3 DUP8 ADD PUSH3 0x180 JUMP JUMPDEST PUSH1 0x40 DUP7 ADD MLOAD SWAP1 SWAP4 POP SWAP1 POP PUSH1 0x1 PUSH1 0x1 PUSH1 0xA0 SHL SUB DUP2 AND DUP2 EQ PUSH3 0x2A9 JUMPI PUSH0 DUP1 REVERT JUMPDEST DUP1 SWAP2 POP POP SWAP3 POP SWAP3 POP SWAP3 JUMP JUMPDEST PUSH1 0x1 DUP2 DUP2 SHR SWAP1 DUP3 AND DUP1 PUSH3 0x2C9 JUMPI PUSH1 0x7F DUP3 AND SWAP2 POP JUMPDEST PUSH1 0x20 DUP3 LT DUP2 SUB PUSH3 0x2E8 JUMPI PUSH4 0x4E487B71 PUSH1 0xE0 SHL PUSH0 MSTORE PUSH1 0x22 PUSH1 0x4 MSTORE PUSH1 0x24 PUSH0 REVERT JUMPDEST POP SWAP2 SWAP1 POP JUMP JUMPDEST PUSH1 0x1F DUP3 GT ISZERO PUSH3 0x339 JUMPI DUP1 PUSH0 MSTORE PUSH1 0x20 PUSH0 KECCAK256 PUSH1 0x1F DUP5 ADD PUSH1 0x5 SHR DUP2 ADD PUSH1 0x20 DUP6 LT ISZERO PUSH3 0x315 JUMPI POP DUP1 JUMPDEST PUSH1 0x1F DUP5 ADD PUSH1 0x5 SHR DUP3 ADD SWAP2 POP JUMPDEST DUP2 DUP2 LT ISZERO PUSH3 0x336 JUMPI PUSH0 DUP2 SSTORE PUSH1 0x1 ADD PUSH3 0x321 JUMP JUMPDEST POP POP JUMPDEST POP POP POP JUMP JUMPDEST DUP2 MLOAD PUSH1 0x1 PUSH1 0x1 PUSH1 0x40 SHL SUB DUP2 GT ISZERO PUSH3 0x35A JUMPI PUSH3 0x35A PUSH3 0x16C JUMP JUMPDEST PUSH3 0x372 DUP2 PUSH3 0x36B DUP5 SLOAD PUSH3 0x2B4 JUMP JUMPDEST DUP5 PUSH3 0x2EE JUMP JUMPDEST PUSH1 0x20 DUP1 PUSH1 0x1F DUP4 GT PUSH1 0x1 DUP2 EQ PUSH3 0x3A8 JUMPI PUSH0 DUP5 ISZERO PUSH3 0x390 JUMPI POP DUP6 DUP4 ADD MLOAD JUMPDEST PUSH0 NOT PUSH1 0x3 DUP7 SWAP1 SHL SHR NOT AND PUSH1 0x1 DUP6 SWAP1 SHL OR DUP6 SSTORE PUSH3 0x402 JUMP JUMPDEST PUSH0 DUP6 DUP2 MSTORE PUSH1 0x20 DUP2 KECCAK256 PUSH1 0x1F NOT DUP7 AND SWAP2 JUMPDEST DUP3 DUP2 LT ISZERO PUSH3 0x3D8 JUMPI DUP9 DUP7 ADD MLOAD DUP3 SSTORE SWAP5 DUP5 ADD SWAP5 PUSH1 0x1 SWAP1 SWAP2 ADD SWAP1 DUP5 ADD PUSH3 0x3B7 JUMP JUMPDEST POP DUP6 DUP3 LT ISZERO PUSH3 0x3F6 JUMPI DUP8 DUP6 ADD MLOAD PUSH0 NOT PUSH1 0x3 DUP9 SWAP1 SHL PUSH1 0xF8 AND SHR NOT AND DUP2 SSTORE JUMPDEST POP POP PUSH1 0x1 DUP5 PUSH1 0x1 SHL ADD DUP6 SSTORE JUMPDEST POP POP POP POP POP POP JUMP JUMPDEST PUSH2 0x1716 DUP1 PUSH3 0x418 PUSH0 CODECOPY PUSH0 RETURN INVALID PUSH1 0x80 PUSH1 0x40 MSTORE CALLVALUE DUP1 ISZERO PUSH2 0xF JUMPI PUSH0 DUP1 REVERT JUMPDEST POP PUSH1 0x4 CALLDATASIZE LT PUSH2 0xB1 JUMPI PUSH0 CALLDATALOAD PUSH1 0xE0 SHR DUP1 PUSH4 0x721D9BC4 GT PUSH2 0x6E JUMPI DUP1 PUSH4 0x721D9BC4 EQ PUSH2 0x16A JUMPI DUP1 PUSH4 0x7221E6FC EQ PUSH2 0x17D JUMPI DUP1 PUSH4 0x89CCCF61 EQ PUSH2 0x185 JUMPI DUP1 PUSH4 0x8DA5CB5B EQ PUSH2 0x198 JUMPI DUP1 PUSH4 0xE35F1A83 EQ PUSH2 0x1A8 JUMPI DUP1 PUSH4 0xF2FDE38B EQ PUSH2 0x1BB JUMPI PUSH0 DUP1 REVERT JUMPDEST DUP1 PUSH4 0x3553D6EE EQ PUSH2 0xB5 JUMPI DUP1 PUSH4 0x3E1C075A EQ PUSH2 0xD3 JUMPI DUP1 PUSH4 0x44A73684 EQ PUSH2 0xF6 JUMPI DUP1 PUSH4 0x462B2653 EQ PUSH2 0x11E JUMPI DUP1 PUSH4 0x58D1C11B EQ PUSH2 0x149 JUMPI DUP1 PUSH4 0x715018A6 EQ PUSH2 0x160 JUMPI JUMPDEST PUSH0 DUP1 REVERT JUMPDEST PUSH2 0xBD PUSH2 0x1CE JUMP JUMPDEST PUSH1 0x40 MLOAD PUSH2 0xCA SWAP2 SWAP1 PUSH2 0x1202 JUMP JUMPDEST PUSH1 0x40 MLOAD DUP1 SWAP2 SUB SWAP1 RETURN JUMPDEST PUSH2 0xE6 PUSH2 0xE1 CALLDATASIZE PUSH1 0x4 PUSH2 0x1259 JUMP JUMPDEST PUSH2 0x25A JUMP JUMPDEST PUSH1 0x40 MLOAD SWAP1 ISZERO ISZERO DUP2 MSTORE PUSH1 0x20 ADD PUSH2 0xCA JUMP JUMPDEST PUSH1 0x6 SLOAD PUSH2 0x103 SWAP1 PUSH1 0x48 SHL DUP2 JUMP JUMPDEST PUSH1 0x40 MLOAD PUSH9 0xFFFFFFFFFFFFFFFFFF NOT SWAP1 SWAP2 AND DUP2 MSTORE PUSH1 0x20 ADD PUSH2 0xCA JUMP JUMPDEST PUSH1 0x5 SLOAD PUSH2 0x131 SWAP1 PUSH1 0x1 PUSH1 0x1 PUSH1 0xA0 SHL SUB AND DUP2 JUMP JUMPDEST PUSH1 0x40 MLOAD PUSH1 0x1 PUSH1 0x1 PUSH1 0xA0 SHL SUB SWAP1 SWAP2 AND DUP2 MSTORE PUSH1 0x20 ADD PUSH2 0xCA JUMP JUMPDEST PUSH2 0x152 PUSH1 0x1 SLOAD DUP2 JUMP JUMPDEST PUSH1 0x40 MLOAD SWAP1 DUP2 MSTORE PUSH1 0x20 ADD PUSH2 0xCA JUMP JUMPDEST PUSH2 0x168 PUSH2 0x3CB JUMP JUMPDEST STOP JUMPDEST PUSH2 0xBD PUSH2 0x178 CALLDATASIZE PUSH1 0x4 PUSH2 0x1389 JUMP JUMPDEST PUSH2 0x3DE JUMP JUMPDEST PUSH2 0xBD PUSH2 0x7BD JUMP JUMPDEST PUSH2 0x168 PUSH2 0x193 CALLDATASIZE PUSH1 0x4 PUSH2 0x13E9 JUMP JUMPDEST PUSH2 0x7CA JUMP JUMPDEST PUSH0 SLOAD PUSH1 0x1 PUSH1 0x1 PUSH1 0xA0 SHL SUB AND PUSH2 0x131 JUMP JUMPDEST PUSH2 0x152 PUSH2 0x1B6 CALLDATASIZE PUSH1 0x4 PUSH2 0x1400 JUMP JUMPDEST PUSH2 0x83A JUMP JUMPDEST PUSH2 0x168 PUSH2 0x1C9 CALLDATASIZE PUSH1 0x4 PUSH2 0x143F JUMP JUMPDEST PUSH2 0x89C JUMP JUMPDEST PUSH1 0x3 DUP1 SLOAD PUSH2 0x1DB SWAP1 PUSH2 0x1465 JUMP JUMPDEST DUP1 PUSH1 0x1F ADD PUSH1 0x20 DUP1 SWAP2 DIV MUL PUSH1 0x20 ADD PUSH1 0x40 MLOAD SWAP1 DUP2 ADD PUSH1 0x40 MSTORE DUP1 SWAP3 SWAP2 SWAP1 DUP2 DUP2 MSTORE PUSH1 0x20 ADD DUP3 DUP1 SLOAD PUSH2 0x207 SWAP1 PUSH2 0x1465 JUMP JUMPDEST DUP1 ISZERO PUSH2 0x252 JUMPI DUP1 PUSH1 0x1F LT PUSH2 0x229 JUMPI PUSH2 0x100 DUP1 DUP4 SLOAD DIV MUL DUP4 MSTORE SWAP2 PUSH1 0x20 ADD SWAP2 PUSH2 0x252 JUMP JUMPDEST DUP3 ADD SWAP2 SWAP1 PUSH0 MSTORE PUSH1 0x20 PUSH0 KECCAK256 SWAP1 JUMPDEST DUP2 SLOAD DUP2 MSTORE SWAP1 PUSH1 0x1 ADD SWAP1 PUSH1 0x20 ADD DUP1 DUP4 GT PUSH2 0x235 JUMPI DUP3 SWAP1 SUB PUSH1 0x1F AND DUP3 ADD SWAP2 JUMPDEST POP POP POP POP POP DUP2 JUMP JUMPDEST PUSH0 DUP1 PUSH2 0x324 DUP9 DUP9 DUP1 DUP1 PUSH1 0x1F ADD PUSH1 0x20 DUP1 SWAP2 DIV MUL PUSH1 0x20 ADD PUSH1 0x40 MLOAD SWAP1 DUP2 ADD PUSH1 0x40 MSTORE DUP1 SWAP4 SWAP3 SWAP2 SWAP1 DUP2 DUP2 MSTORE PUSH1 0x20 ADD DUP4 DUP4 DUP1 DUP3 DUP5 CALLDATACOPY PUSH0 SWAP3 ADD SWAP2 SWAP1 SWAP2 MSTORE POP POP PUSH1 0x3 DUP1 SLOAD SWAP1 SWAP3 POP PUSH2 0x2A3 SWAP2 POP PUSH2 0x1465 JUMP JUMPDEST DUP1 PUSH1 0x1F ADD PUSH1 0x20 DUP1 SWAP2 DIV MUL PUSH1 0x20 ADD PUSH1 0x40 MLOAD SWAP1 DUP2 ADD PUSH1 0x40 MSTORE DUP1 SWAP3 SWAP2 SWAP1 DUP2 DUP2 MSTORE PUSH1 0x20 ADD DUP3 DUP1 SLOAD PUSH2 0x2CF SWAP1 PUSH2 0x1465 JUMP JUMPDEST DUP1 ISZERO PUSH2 0x31A JUMPI DUP1 PUSH1 0x1F LT PUSH2 0x2F1 JUMPI PUSH2 0x100 DUP1 DUP4 SLOAD DIV MUL DUP4 MSTORE SWAP2 PUSH1 0x20 ADD SWAP2 PUSH2 0x31A JUMP JUMPDEST DUP3 ADD SWAP2 SWAP1 PUSH0 MSTORE PUSH1 0x20 PUSH0 KECCAK256 SWAP1 JUMPDEST DUP2 SLOAD DUP2 MSTORE SWAP1 PUSH1 0x1 ADD SWAP1 PUSH1 0x20 ADD DUP1 DUP4 GT PUSH2 0x2FD JUMPI DUP3 SWAP1 SUB PUSH1 0x1F AND DUP3 ADD SWAP2 JUMPDEST POP POP POP POP POP PUSH2 0x3DE JUMP JUMPDEST PUSH1 0x5 SLOAD PUSH1 0x40 MLOAD PUSH4 0xDE8F50A1 PUSH1 0xE0 SHL DUP2 MSTORE SWAP2 SWAP3 POP PUSH1 0x1 PUSH1 0x1 PUSH1 0xA0 SHL SUB AND SWAP1 PUSH4 0xDE8F50A1 SWAP1 PUSH2 0x35D SWAP1 DUP5 SWAP1 DUP11 SWAP1 DUP11 SWAP1 DUP11 SWAP1 DUP11 SWAP1 PUSH1 0x4 ADD PUSH2 0x14C5 JUMP JUMPDEST PUSH1 0x20 PUSH1 0x40 MLOAD DUP1 DUP4 SUB DUP2 DUP7 GAS STATICCALL ISZERO DUP1 ISZERO PUSH2 0x378 JUMPI RETURNDATASIZE PUSH0 DUP1 RETURNDATACOPY RETURNDATASIZE PUSH0 REVERT JUMPDEST POP POP POP POP PUSH1 0x40 MLOAD RETURNDATASIZE PUSH1 0x1F NOT PUSH1 0x1F DUP3 ADD AND DUP3 ADD DUP1 PUSH1 0x40 MSTORE POP DUP2 ADD SWAP1 PUSH2 0x39C SWAP2 SWAP1 PUSH2 0x14FF JUMP JUMPDEST ISZERO ISZERO PUSH0 SUB PUSH2 0x3AD JUMPI PUSH0 SWAP2 POP POP PUSH2 0x3C1 JUMP JUMPDEST PUSH0 PUSH2 0x3B8 DUP8 DUP8 PUSH2 0x83A JUMP JUMPDEST PUSH1 0x1 SLOAD EQ SWAP3 POP POP POP JUMPDEST SWAP7 SWAP6 POP POP POP POP POP POP JUMP JUMPDEST PUSH2 0x3D3 PUSH2 0x8D9 JUMP JUMPDEST PUSH2 0x3DC PUSH0 PUSH2 0x905 JUMP JUMPDEST JUMP JUMPDEST PUSH1 0x60 PUSH0 DUP1 PUSH0 PUSH2 0x3EC DUP7 PUSH2 0x954 JUMP JUMPDEST SWAP3 POP PUSH2 0x3F8 DUP7 DUP5 PUSH2 0x95F JUMP JUMPDEST SWAP3 POP PUSH2 0x404 DUP7 DUP5 PUSH2 0x95F JUMP JUMPDEST SWAP2 POP DUP6 PUSH1 0x1 PUSH1 0x1 PUSH1 0x50 SHL SUB DUP4 AND DUP2 MLOAD DUP2 LT PUSH2 0x421 JUMPI PUSH2 0x421 PUSH2 0x151E JUMP JUMPDEST ADD PUSH1 0x20 ADD MLOAD PUSH1 0x1 PUSH1 0x1 PUSH1 0xF8 SHL SUB NOT AND PUSH1 0x5 PUSH1 0xFD SHL SUB PUSH2 0x447 JUMPI PUSH2 0x444 DUP7 DUP4 PUSH2 0xA03 JUMP JUMPDEST SWAP2 POP JUMPDEST PUSH2 0x451 DUP7 DUP4 PUSH2 0xA03 JUMP JUMPDEST SWAP2 POP PUSH2 0x45D DUP7 DUP4 PUSH2 0x95F JUMP JUMPDEST SWAP2 POP PUSH2 0x469 DUP7 DUP5 PUSH2 0xA03 JUMP JUMPDEST SWAP1 POP PUSH2 0x475 DUP7 DUP3 PUSH2 0xA03 JUMP JUMPDEST PUSH1 0x5 SLOAD SWAP1 SWAP2 POP PUSH1 0x1 PUSH1 0x1 PUSH1 0xA0 SHL SUB AND PUSH4 0xDE8F50A1 DUP7 PUSH2 0x494 DUP10 DUP8 PUSH2 0xA20 JUMP JUMPDEST PUSH2 0x49E DUP11 DUP7 PUSH2 0xA5B JUMP JUMPDEST PUSH1 0x40 MLOAD DUP5 PUSH4 0xFFFFFFFF AND PUSH1 0xE0 SHL DUP2 MSTORE PUSH1 0x4 ADD PUSH2 0x4BC SWAP4 SWAP3 SWAP2 SWAP1 PUSH2 0x1532 JUMP JUMPDEST PUSH1 0x20 PUSH1 0x40 MLOAD DUP1 DUP4 SUB DUP2 DUP7 GAS STATICCALL ISZERO DUP1 ISZERO PUSH2 0x4D7 JUMPI RETURNDATASIZE PUSH0 DUP1 RETURNDATACOPY RETURNDATASIZE PUSH0 REVERT JUMPDEST POP POP POP POP PUSH1 0x40 MLOAD RETURNDATASIZE PUSH1 0x1F NOT PUSH1 0x1F DUP3 ADD AND DUP3 ADD DUP1 PUSH1 0x40 MSTORE POP DUP2 ADD SWAP1 PUSH2 0x4FB SWAP2 SWAP1 PUSH2 0x14FF JUMP JUMPDEST PUSH2 0x560 JUMPI PUSH1 0x40 MLOAD PUSH3 0x461BCD PUSH1 0xE5 SHL DUP2 MSTORE PUSH1 0x20 PUSH1 0x4 DUP3 ADD MSTORE PUSH1 0x2B PUSH1 0x24 DUP3 ADD MSTORE PUSH32 0x4174746573746174696F6E56657269666965723A205369676E61747572652064 PUSH1 0x44 DUP3 ADD MSTORE PUSH11 0xDECAE6DCE840DAC2E8C6D PUSH1 0xAB SHL PUSH1 0x64 DUP3 ADD MSTORE PUSH1 0x84 ADD JUMPDEST PUSH1 0x40 MLOAD DUP1 SWAP2 SUB SWAP1 REVERT JUMPDEST PUSH2 0x56A DUP7 DUP5 PUSH2 0x95F JUMP JUMPDEST SWAP3 POP PUSH2 0x576 DUP7 DUP5 PUSH2 0xA03 JUMP JUMPDEST SWAP3 POP PUSH2 0x582 DUP7 DUP5 PUSH2 0xA03 JUMP JUMPDEST SWAP3 POP PUSH2 0x58E DUP7 DUP5 PUSH2 0xA03 JUMP JUMPDEST SWAP3 POP PUSH2 0x59A DUP7 DUP5 PUSH2 0xA03 JUMP JUMPDEST SWAP3 POP PUSH2 0x5A6 DUP7 DUP5 PUSH2 0x95F JUMP JUMPDEST SWAP2 POP PUSH0 PUSH20 0x0 PUSH4 0x95385C6 PUSH2 0x5CD DUP10 DUP7 PUSH2 0xA5B JUMP JUMPDEST PUSH1 0x40 MLOAD DUP3 PUSH4 0xFFFFFFFF AND PUSH1 0xE0 SHL DUP2 MSTORE PUSH1 0x4 ADD PUSH2 0x5E9 SWAP2 SWAP1 PUSH2 0x1202 JUMP JUMPDEST PUSH1 0x20 PUSH1 0x40 MLOAD DUP1 DUP4 SUB DUP2 DUP7 GAS DELEGATECALL ISZERO DUP1 ISZERO PUSH2 0x604 JUMPI RETURNDATASIZE PUSH0 DUP1 RETURNDATACOPY RETURNDATASIZE PUSH0 REVERT JUMPDEST POP POP POP POP PUSH1 0x40 MLOAD RETURNDATASIZE PUSH1 0x1F NOT PUSH1 0x1F DUP3 ADD AND DUP3 ADD DUP1 PUSH1 0x40 MSTORE POP DUP2 ADD SWAP1 PUSH2 0x628 SWAP2 SWAP1 PUSH2 0x156A JUMP JUMPDEST SWAP1 POP TIMESTAMP DUP2 PUSH5 0xFFFFFFFFFF AND GT ISZERO PUSH2 0x69A JUMPI PUSH1 0x40 MLOAD PUSH3 0x461BCD PUSH1 0xE5 SHL DUP2 MSTORE PUSH1 0x20 PUSH1 0x4 DUP3 ADD MSTORE PUSH1 0x30 PUSH1 0x24 DUP3 ADD MSTORE PUSH32 0x4174746573746174696F6E5665726966793A2043657274696669636174652069 PUSH1 0x44 DUP3 ADD MSTORE PUSH16 0x39903737BA103CB2BA103B30B634B217 PUSH1 0x81 SHL PUSH1 0x64 DUP3 ADD MSTORE PUSH1 0x84 ADD PUSH2 0x557 JUMP JUMPDEST PUSH2 0x6A4 DUP8 DUP5 PUSH2 0xA03 JUMP JUMPDEST SWAP3 POP PUSH0 PUSH20 0x0 PUSH4 0x95385C6 PUSH2 0x6CB DUP11 DUP8 PUSH2 0xA5B JUMP JUMPDEST PUSH1 0x40 MLOAD DUP3 PUSH4 0xFFFFFFFF AND PUSH1 0xE0 SHL DUP2 MSTORE PUSH1 0x4 ADD PUSH2 0x6E7 SWAP2 SWAP1 PUSH2 0x1202 JUMP JUMPDEST PUSH1 0x20 PUSH1 0x40 MLOAD DUP1 DUP4 SUB DUP2 DUP7 GAS DELEGATECALL ISZERO DUP1 ISZERO PUSH2 0x702 JUMPI RETURNDATASIZE PUSH0 DUP1 RETURNDATACOPY RETURNDATASIZE PUSH0 REVERT JUMPDEST POP POP POP POP PUSH1 0x40 MLOAD RETURNDATASIZE PUSH1 0x1F NOT PUSH1 0x1F DUP3 ADD AND DUP3 ADD DUP1 PUSH1 0x40 MSTORE POP DUP2 ADD SWAP1 PUSH2 0x726 SWAP2 SWAP1 PUSH2 0x156A JUMP JUMPDEST SWAP1 POP TIMESTAMP DUP2 PUSH5 0xFFFFFFFFFF AND LT ISZERO PUSH2 0x78F JUMPI PUSH1 0x40 MLOAD PUSH3 0x461BCD PUSH1 0xE5 SHL DUP2 MSTORE PUSH1 0x20 PUSH1 0x4 DUP3 ADD MSTORE PUSH1 0x27 PUSH1 0x24 DUP3 ADD MSTORE PUSH32 0x4174746573746174696F6E5665726966793A2043657274696669636174652065 PUSH1 0x44 DUP3 ADD MSTORE PUSH7 0x3C3834B932B217 PUSH1 0xC9 SHL PUSH1 0x64 DUP3 ADD MSTORE PUSH1 0x84 ADD PUSH2 0x557 JUMP JUMPDEST PUSH2 0x799 DUP9 DUP7 PUSH2 0xA03 JUMP JUMPDEST SWAP5 POP PUSH2 0x7A5 DUP9 DUP7 PUSH2 0xA03 JUMP JUMPDEST SWAP5 POP PUSH2 0x7B1 DUP9 DUP7 PUSH2 0xA20 JUMP JUMPDEST SWAP9 SWAP8 POP POP POP POP POP POP POP POP JUMP JUMPDEST PUSH1 0x4 DUP1 SLOAD PUSH2 0x1DB SWAP1 PUSH2 0x1465 JUMP JUMPDEST PUSH2 0x7D2 PUSH2 0x8D9 JUMP JUMPDEST DUP1 PUSH2 0x835 JUMPI PUSH1 0x40 MLOAD PUSH3 0x461BCD PUSH1 0xE5 SHL DUP2 MSTORE PUSH1 0x20 PUSH1 0x4 DUP3 ADD MSTORE PUSH1 0x2D PUSH1 0x24 DUP3 ADD MSTORE PUSH32 0x4578706563746564204D52454E434C4156452063616E27742062652073657420 PUSH1 0x44 DUP3 ADD MSTORE PUSH13 0x746F207A65726F206279746573 PUSH1 0x98 SHL PUSH1 0x64 DUP3 ADD MSTORE PUSH1 0x84 ADD PUSH2 0x557 JUMP JUMPDEST PUSH1 0x1 SSTORE JUMP JUMPDEST PUSH0 DUP1 PUSH2 0x881 DUP5 DUP5 DUP1 DUP1 PUSH1 0x1F ADD PUSH1 0x20 DUP1 SWAP2 DIV MUL PUSH1 0x20 ADD PUSH1 0x40 MLOAD SWAP1 DUP2 ADD PUSH1 0x40 MSTORE DUP1 SWAP4 SWAP3 SWAP2 SWAP1 DUP2 DUP2 MSTORE PUSH1 0x20 ADD DUP4 DUP4 DUP1 DUP3 DUP5 CALLDATACOPY PUSH0 SWAP3 ADD SWAP2 SWAP1 SWAP2 MSTORE POP POP PUSH1 0x6 SLOAD PUSH1 0x48 SHL SWAP2 POP PUSH2 0xA74 SWAP1 POP JUMP JUMPDEST SWAP1 POP PUSH0 PUSH2 0x891 DUP3 PUSH1 0x70 PUSH1 0x20 PUSH2 0xC42 JUMP JUMPDEST SWAP3 POP POP POP JUMPDEST SWAP3 SWAP2 POP POP JUMP JUMPDEST PUSH2 0x8A4 PUSH2 0x8D9 JUMP JUMPDEST PUSH1 0x1 PUSH1 0x1 PUSH1 0xA0 SHL SUB DUP2 AND PUSH2 0x8CD JUMPI PUSH1 0x40 MLOAD PUSH4 0x1E4FBDF7 PUSH1 0xE0 SHL DUP2 MSTORE PUSH0 PUSH1 0x4 DUP3 ADD MSTORE PUSH1 0x24 ADD PUSH2 0x557 JUMP JUMPDEST PUSH2 0x8D6 DUP2 PUSH2 0x905 JUMP JUMPDEST POP JUMP JUMPDEST PUSH0 SLOAD PUSH1 0x1 PUSH1 0x1 PUSH1 0xA0 SHL SUB AND CALLER EQ PUSH2 0x3DC JUMPI PUSH1 0x40 MLOAD PUSH4 0x118CDAA7 PUSH1 0xE0 SHL DUP2 MSTORE CALLER PUSH1 0x4 DUP3 ADD MSTORE PUSH1 0x24 ADD PUSH2 0x557 JUMP JUMPDEST PUSH0 DUP1 SLOAD PUSH1 0x1 PUSH1 0x1 PUSH1 0xA0 SHL SUB DUP4 DUP2 AND PUSH1 0x1 PUSH1 0x1 PUSH1 0xA0 SHL SUB NOT DUP4 AND DUP2 OR DUP5 SSTORE PUSH1 0x40 MLOAD SWAP2 SWAP1 SWAP3 AND SWAP3 DUP4 SWAP2 PUSH32 0x8BE0079C531659141344CD1FD0A4F28419497F9722A3DAAFE3B4186F6B6457E0 SWAP2 SWAP1 LOG3 POP POP JUMP JUMPDEST PUSH0 PUSH2 0x896 DUP3 PUSH0 PUSH2 0xC7F JUMP JUMPDEST PUSH0 DUP3 PUSH1 0x1 PUSH1 0x1 PUSH1 0x50 SHL SUB DUP4 AND DUP2 MLOAD DUP2 LT PUSH2 0x97B JUMPI PUSH2 0x97B PUSH2 0x151E JUMP JUMPDEST ADD PUSH1 0x20 ADD MLOAD PUSH1 0x1 PUSH1 0xFD SHL SWAP1 DUP2 AND EQ PUSH2 0x9E0 JUMPI PUSH1 0x40 MLOAD PUSH3 0x461BCD PUSH1 0xE5 SHL DUP2 MSTORE PUSH1 0x20 PUSH1 0x4 DUP3 ADD MSTORE PUSH1 0x22 PUSH1 0x24 DUP3 ADD MSTORE PUSH32 0x41736E316465636F64653A204E6F74206120636F6E7374727563746564207479 PUSH1 0x44 DUP3 ADD MSTORE PUSH2 0x7065 PUSH1 0xF0 SHL PUSH1 0x64 DUP3 ADD MSTORE PUSH1 0x84 ADD PUSH2 0x557 JUMP JUMPDEST PUSH2 0x9FC DUP4 PUSH1 0x50 DUP5 SWAP1 SHR PUSH1 0x1 PUSH1 0x1 PUSH1 0x50 SHL SUB AND PUSH2 0xC7F JUMP JUMPDEST PUSH2 0xC7F JUMP JUMPDEST SWAP4 SWAP3 POP POP POP JUMP JUMPDEST PUSH0 PUSH2 0x9FC DUP4 PUSH2 0x9F7 PUSH1 0x1 PUSH1 0x1 PUSH1 0x50 SHL SUB PUSH1 0xA0 DUP7 SWAP1 SHR AND PUSH1 0x1 PUSH2 0x1595 JUMP JUMPDEST PUSH1 0x60 PUSH2 0x9FC PUSH1 0x1 PUSH1 0x1 PUSH1 0x50 SHL SUB DUP4 AND DUP1 JUMPDEST PUSH2 0xA49 PUSH1 0x1 PUSH1 0x1 PUSH1 0x50 SHL SUB PUSH1 0xA0 DUP8 SWAP1 SHR AND PUSH1 0x1 PUSH2 0x1595 JUMP JUMPDEST PUSH2 0xA53 SWAP2 SWAP1 PUSH2 0x15A8 JUMP JUMPDEST DUP6 SWAP2 SWAP1 PUSH2 0xE2C JUMP JUMPDEST PUSH1 0x60 PUSH2 0x9FC PUSH1 0x1 PUSH1 0x1 PUSH1 0x50 SHL SUB PUSH1 0x50 DUP5 SWAP1 SHR AND DUP1 PUSH2 0xA31 JUMP JUMPDEST PUSH1 0x60 PUSH0 PUSH1 0x17 PUSH2 0xA83 DUP6 DUP6 PUSH2 0xEAC JUMP JUMPDEST PUSH2 0xA8D SWAP2 SWAP1 PUSH2 0x1595 JUMP JUMPDEST SWAP1 POP PUSH0 DUP2 DUP6 MLOAD PUSH2 0xA9D SWAP2 SWAP1 PUSH2 0x15A8 JUMP JUMPDEST SWAP1 POP PUSH0 DUP1 DUP3 PUSH8 0xFFFFFFFFFFFFFFFF DUP2 GT ISZERO PUSH2 0xABA JUMPI PUSH2 0xABA PUSH2 0x12EC JUMP JUMPDEST PUSH1 0x40 MLOAD SWAP1 DUP1 DUP3 MSTORE DUP1 PUSH1 0x1F ADD PUSH1 0x1F NOT AND PUSH1 0x20 ADD DUP3 ADD PUSH1 0x40 MSTORE DUP1 ISZERO PUSH2 0xAE4 JUMPI PUSH1 0x20 DUP3 ADD DUP2 DUP1 CALLDATASIZE DUP4 CALLDATACOPY ADD SWAP1 POP JUMPDEST POP SWAP1 POP PUSH0 JUMPDEST DUP4 DUP2 LT ISZERO PUSH2 0xB89 JUMPI DUP8 PUSH2 0xAFC DUP3 DUP8 PUSH2 0x1595 JUMP JUMPDEST DUP2 MLOAD DUP2 LT PUSH2 0xB0C JUMPI PUSH2 0xB0C PUSH2 0x151E JUMP JUMPDEST PUSH1 0x20 SWAP2 ADD ADD MLOAD PUSH1 0x1 PUSH1 0x1 PUSH1 0xF8 SHL SUB NOT AND PUSH1 0x11 PUSH1 0xF9 SHL EQ PUSH2 0xB89 JUMPI DUP8 PUSH2 0xB31 DUP3 DUP8 PUSH2 0x1595 JUMP JUMPDEST DUP2 MLOAD DUP2 LT PUSH2 0xB41 JUMPI PUSH2 0xB41 PUSH2 0x151E JUMP JUMPDEST PUSH1 0x20 ADD ADD MLOAD PUSH1 0xF8 SHR PUSH1 0xF8 SHL DUP3 DUP3 DUP2 MLOAD DUP2 LT PUSH2 0xB5E JUMPI PUSH2 0xB5E PUSH2 0x151E JUMP JUMPDEST PUSH1 0x20 ADD ADD SWAP1 PUSH1 0x1 PUSH1 0x1 PUSH1 0xF8 SHL SUB NOT AND SWAP1 DUP2 PUSH0 BYTE SWAP1 MSTORE8 POP DUP3 PUSH2 0xB7E DUP2 PUSH2 0x15BB JUMP JUMPDEST SWAP4 POP POP PUSH1 0x1 ADD PUSH2 0xAE9 JUMP JUMPDEST POP PUSH0 DUP3 PUSH8 0xFFFFFFFFFFFFFFFF DUP2 GT ISZERO PUSH2 0xBA4 JUMPI PUSH2 0xBA4 PUSH2 0x12EC JUMP JUMPDEST PUSH1 0x40 MLOAD SWAP1 DUP1 DUP3 MSTORE DUP1 PUSH1 0x1F ADD PUSH1 0x1F NOT AND PUSH1 0x20 ADD DUP3 ADD PUSH1 0x40 MSTORE DUP1 ISZERO PUSH2 0xBCE JUMPI PUSH1 0x20 DUP3 ADD DUP2 DUP1 CALLDATASIZE DUP4 CALLDATACOPY ADD SWAP1 POP JUMPDEST POP SWAP1 POP PUSH0 JUMPDEST DUP4 DUP2 LT ISZERO PUSH2 0xC28 JUMPI DUP3 DUP2 DUP2 MLOAD DUP2 LT PUSH2 0xBED JUMPI PUSH2 0xBED PUSH2 0x151E JUMP JUMPDEST PUSH1 0x20 ADD ADD MLOAD PUSH1 0xF8 SHR PUSH1 0xF8 SHL DUP3 DUP3 DUP2 MLOAD DUP2 LT PUSH2 0xC0A JUMPI PUSH2 0xC0A PUSH2 0x151E JUMP JUMPDEST PUSH1 0x20 ADD ADD SWAP1 PUSH1 0x1 PUSH1 0x1 PUSH1 0xF8 SHL SUB NOT AND SWAP1 DUP2 PUSH0 BYTE SWAP1 MSTORE8 POP PUSH1 0x1 ADD PUSH2 0xBD3 JUMP JUMPDEST POP DUP1 PUSH0 PUSH2 0xC34 DUP3 PUSH2 0xF74 JUMP JUMPDEST SWAP11 SWAP10 POP POP POP POP POP POP POP POP POP POP JUMP JUMPDEST PUSH0 PUSH1 0x20 DUP3 GT ISZERO PUSH2 0xC50 JUMPI PUSH0 DUP1 REVERT JUMPDEST DUP4 MLOAD PUSH2 0xC5C DUP4 DUP6 PUSH2 0x1595 JUMP JUMPDEST GT ISZERO PUSH2 0xC66 JUMPI PUSH0 DUP1 REVERT JUMPDEST POP PUSH1 0x20 SWAP2 SWAP1 SWAP3 ADD DUP2 ADD MLOAD SWAP2 SWAP1 SUB PUSH2 0x100 EXP PUSH0 NOT ADD NOT AND SWAP1 JUMP JUMPDEST PUSH0 DUP1 DUP1 DUP1 DUP6 PUSH2 0xC8F DUP7 PUSH1 0x1 PUSH2 0x1595 JUMP JUMPDEST DUP2 MLOAD DUP2 LT PUSH2 0xC9F JUMPI PUSH2 0xC9F PUSH2 0x151E JUMP JUMPDEST ADD PUSH1 0x20 ADD MLOAD PUSH1 0x1 PUSH1 0xFF SHL AND PUSH0 SUB PUSH2 0xD09 JUMPI DUP6 PUSH2 0xCBC DUP7 PUSH1 0x1 PUSH2 0x1595 JUMP JUMPDEST DUP2 MLOAD DUP2 LT PUSH2 0xCCC JUMPI PUSH2 0xCCC PUSH2 0x151E JUMP JUMPDEST ADD PUSH1 0x20 ADD MLOAD PUSH1 0xF8 SHR SWAP3 POP PUSH2 0xCE1 DUP6 PUSH1 0x2 PUSH2 0x1595 JUMP JUMPDEST SWAP2 POP PUSH1 0x1 PUSH2 0xCF8 DUP5 PUSH1 0x1 PUSH1 0x1 PUSH1 0x50 SHL SUB DUP6 AND PUSH2 0x1595 JUMP JUMPDEST PUSH2 0xD02 SWAP2 SWAP1 PUSH2 0x15A8 JUMP JUMPDEST SWAP1 POP PUSH2 0xDFC JUMP JUMPDEST PUSH0 DUP7 PUSH2 0xD16 DUP8 PUSH1 0x1 PUSH2 0x1595 JUMP JUMPDEST DUP2 MLOAD DUP2 LT PUSH2 0xD26 JUMPI PUSH2 0xD26 PUSH2 0x151E JUMP JUMPDEST PUSH1 0x20 SWAP2 ADD ADD MLOAD PUSH1 0xF8 SHR PUSH1 0x7F AND SWAP1 POP PUSH1 0x1 DUP2 SWAP1 SUB PUSH2 0xD5C JUMPI PUSH2 0xD52 PUSH2 0xD4B DUP8 PUSH1 0x2 PUSH2 0x1595 JUMP JUMPDEST DUP9 SWAP1 PUSH2 0x1121 JUMP JUMPDEST PUSH1 0xFF AND SWAP4 POP PUSH2 0xDBE JUMP JUMPDEST DUP1 PUSH1 0xFF AND PUSH1 0x2 SUB PUSH2 0xD87 JUMPI PUSH2 0xD7C PUSH2 0xD75 DUP8 PUSH1 0x2 PUSH2 0x1595 JUMP JUMPDEST DUP9 SWAP1 PUSH2 0x1144 JUMP JUMPDEST PUSH2 0xFFFF AND SWAP4 POP PUSH2 0xDBE JUMP JUMPDEST PUSH2 0xD92 DUP2 PUSH1 0x20 PUSH2 0x15D3 JUMP JUMPDEST PUSH2 0xD9D SWAP1 PUSH1 0x8 PUSH2 0x15EC JUMP JUMPDEST PUSH1 0xFF AND PUSH2 0xDB9 PUSH2 0xDAE DUP9 PUSH1 0x2 PUSH2 0x1595 JUMP JUMPDEST DUP10 SWAP1 PUSH1 0xFF DUP6 AND PUSH2 0xC42 JUMP JUMPDEST SWAP1 SHR SWAP4 POP JUMPDEST PUSH1 0xFF DUP2 AND PUSH2 0xDCD DUP8 PUSH1 0x2 PUSH2 0x1595 JUMP JUMPDEST PUSH2 0xDD7 SWAP2 SWAP1 PUSH2 0x1595 JUMP JUMPDEST SWAP3 POP PUSH1 0x1 PUSH2 0xDEE DUP6 PUSH1 0x1 PUSH1 0x1 PUSH1 0x50 SHL SUB DUP7 AND PUSH2 0x1595 JUMP JUMPDEST PUSH2 0xDF8 SWAP2 SWAP1 PUSH2 0x15A8 JUMP JUMPDEST SWAP2 POP POP JUMPDEST PUSH10 0xFFFFFFFFFFFFFFFFFFFF PUSH1 0xA0 SHL PUSH1 0xA0 DUP3 SWAP1 SHL AND PUSH10 0xFFFFFFFFFFFFFFFFFFFF PUSH1 0x50 SHL PUSH1 0x50 DUP5 SWAP1 SHL AND DUP7 OR OR PUSH2 0x3C1 JUMP JUMPDEST DUP3 MLOAD PUSH1 0x60 SWAP1 PUSH2 0xE3B DUP4 DUP6 PUSH2 0x1595 JUMP JUMPDEST GT ISZERO PUSH2 0xE45 JUMPI PUSH0 DUP1 REVERT JUMPDEST PUSH0 DUP3 PUSH8 0xFFFFFFFFFFFFFFFF DUP2 GT ISZERO PUSH2 0xE5F JUMPI PUSH2 0xE5F PUSH2 0x12EC JUMP JUMPDEST PUSH1 0x40 MLOAD SWAP1 DUP1 DUP3 MSTORE DUP1 PUSH1 0x1F ADD PUSH1 0x1F NOT AND PUSH1 0x20 ADD DUP3 ADD PUSH1 0x40 MSTORE DUP1 ISZERO PUSH2 0xE89 JUMPI PUSH1 0x20 DUP3 ADD DUP2 DUP1 CALLDATASIZE DUP4 CALLDATACOPY ADD SWAP1 POP JUMPDEST POP SWAP1 POP PUSH1 0x20 DUP1 DUP3 ADD SWAP1 DUP7 DUP7 ADD ADD PUSH2 0xEA1 DUP3 DUP3 DUP8 PUSH2 0x116A JUMP JUMPDEST POP SWAP1 SWAP6 SWAP5 POP POP POP POP POP JUMP JUMPDEST DUP2 MLOAD PUSH0 SWAP1 PUSH1 0x17 SWAP1 DUP1 DUP3 GT ISZERO PUSH2 0xEC6 JUMPI PUSH0 NOT SWAP3 POP POP POP PUSH2 0x896 JUMP JUMPDEST PUSH0 JUMPDEST PUSH2 0xED2 DUP4 DUP4 PUSH2 0x15A8 JUMP JUMPDEST DUP2 GT PUSH2 0xF68 JUMPI PUSH1 0x1 PUSH0 JUMPDEST DUP5 DUP2 LT ISZERO PUSH2 0xF43 JUMPI DUP7 DUP2 PUSH1 0x17 DUP2 LT PUSH2 0xEF6 JUMPI PUSH2 0xEF6 PUSH2 0x151E JUMP JUMPDEST BYTE PUSH1 0xF8 SHL PUSH1 0x1 PUSH1 0x1 PUSH1 0xF8 SHL SUB NOT AND DUP9 PUSH2 0xF0F DUP4 DUP7 PUSH2 0x1595 JUMP JUMPDEST DUP2 MLOAD DUP2 LT PUSH2 0xF1F JUMPI PUSH2 0xF1F PUSH2 0x151E JUMP JUMPDEST ADD PUSH1 0x20 ADD MLOAD PUSH1 0x1 PUSH1 0x1 PUSH1 0xF8 SHL SUB NOT AND EQ PUSH2 0xF3B JUMPI PUSH0 SWAP2 POP PUSH2 0xF43 JUMP JUMPDEST PUSH1 0x1 ADD PUSH2 0xEDC JUMP JUMPDEST POP DUP1 ISZERO PUSH2 0xF55 JUMPI POP SWAP3 POP PUSH2 0x896 SWAP2 POP POP JUMP JUMPDEST POP DUP1 PUSH2 0xF60 DUP2 PUSH2 0x15BB JUMP JUMPDEST SWAP2 POP POP PUSH2 0xEC8 JUMP JUMPDEST POP PUSH0 NOT SWAP6 SWAP5 POP POP POP POP POP JUMP JUMPDEST DUP1 MLOAD PUSH1 0x60 SWAP1 DUP3 SWAP1 PUSH0 SUB PUSH2 0xF96 JUMPI POP POP PUSH1 0x40 DUP1 MLOAD PUSH0 DUP2 MSTORE PUSH1 0x20 DUP2 ADD SWAP1 SWAP2 MSTORE SWAP2 SWAP1 POP JUMP JUMPDEST PUSH1 0x4 DUP2 MLOAD PUSH2 0xFA4 SWAP2 SWAP1 PUSH2 0x1623 JUMP JUMPDEST ISZERO PUSH2 0xFF1 JUMPI PUSH1 0x40 MLOAD PUSH3 0x461BCD PUSH1 0xE5 SHL DUP2 MSTORE PUSH1 0x20 PUSH1 0x4 DUP3 ADD MSTORE PUSH1 0x1C PUSH1 0x24 DUP3 ADD MSTORE PUSH32 0x696E76616C696420626173653634206465636F64657220696E70757400000000 PUSH1 0x44 DUP3 ADD MSTORE PUSH1 0x64 ADD PUSH2 0x557 JUMP JUMPDEST PUSH0 PUSH1 0x40 MLOAD DUP1 PUSH1 0xA0 ADD PUSH1 0x40 MSTORE DUP1 PUSH1 0x80 DUP2 MSTORE PUSH1 0x20 ADD PUSH2 0x1661 PUSH1 0x80 SWAP2 CODECOPY SWAP1 POP PUSH0 PUSH1 0x4 DUP4 MLOAD PUSH2 0x101C SWAP2 SWAP1 PUSH2 0x1636 JUMP JUMPDEST PUSH2 0x1027 SWAP1 PUSH1 0x3 PUSH2 0x1649 JUMP JUMPDEST SWAP1 POP PUSH0 PUSH2 0x1035 DUP3 PUSH1 0x20 PUSH2 0x1595 JUMP JUMPDEST PUSH8 0xFFFFFFFFFFFFFFFF DUP2 GT ISZERO PUSH2 0x104D JUMPI PUSH2 0x104D PUSH2 0x12EC JUMP JUMPDEST PUSH1 0x40 MLOAD SWAP1 DUP1 DUP3 MSTORE DUP1 PUSH1 0x1F ADD PUSH1 0x1F NOT AND PUSH1 0x20 ADD DUP3 ADD PUSH1 0x40 MSTORE DUP1 ISZERO PUSH2 0x1077 JUMPI PUSH1 0x20 DUP3 ADD DUP2 DUP1 CALLDATASIZE DUP4 CALLDATACOPY ADD SWAP1 POP JUMPDEST POP SWAP1 POP DUP4 MLOAD DUP5 ADD MLOAD PUSH1 0x3D PUSH1 0xFF DUP3 AND SUB PUSH2 0x10A4 JUMPI PUSH1 0x1 DUP4 SUB SWAP3 POP PUSH2 0x3D3D PUSH2 0xFFFF DUP3 AND SUB PUSH2 0x10A4 JUMPI PUSH1 0x1 DUP4 SUB SWAP3 POP JUMPDEST POP DUP2 DUP2 MSTORE PUSH1 0x1 DUP4 ADD DUP5 DUP6 MLOAD DUP2 ADD PUSH1 0x20 DUP5 ADD JUMPDEST DUP2 DUP4 LT ISZERO PUSH2 0x1113 JUMPI PUSH1 0x4 DUP4 ADD SWAP3 POP DUP3 MLOAD PUSH1 0xFF DUP1 DUP3 AND DUP7 ADD MLOAD AND PUSH1 0xFF DUP1 DUP4 PUSH1 0x8 SHR AND DUP8 ADD MLOAD AND PUSH1 0x6 SHL ADD PUSH1 0xFF DUP1 DUP4 PUSH1 0x10 SHR AND DUP8 ADD MLOAD AND PUSH1 0xC SHL PUSH1 0xFF DUP1 DUP5 PUSH1 0x18 SHR AND DUP9 ADD MLOAD AND PUSH1 0x12 SHL ADD ADD SWAP1 POP DUP1 PUSH1 0xE8 SHL DUP3 MSTORE POP PUSH1 0x3 DUP2 ADD SWAP1 POP PUSH2 0x10B6 JUMP JUMPDEST POP SWAP3 SWAP9 SWAP8 POP POP POP POP POP POP POP POP JUMP JUMPDEST PUSH0 DUP3 DUP3 DUP2 MLOAD DUP2 LT PUSH2 0x1134 JUMPI PUSH2 0x1134 PUSH2 0x151E JUMP JUMPDEST ADD PUSH1 0x20 ADD MLOAD PUSH1 0xF8 SHR SWAP1 POP SWAP3 SWAP2 POP POP JUMP JUMPDEST DUP2 MLOAD PUSH0 SWAP1 PUSH2 0x1153 DUP4 PUSH1 0x2 PUSH2 0x1595 JUMP JUMPDEST GT ISZERO PUSH2 0x115D JUMPI PUSH0 DUP1 REVERT JUMPDEST POP ADD PUSH1 0x2 ADD MLOAD PUSH2 0xFFFF AND SWAP1 JUMP JUMPDEST PUSH1 0x20 DUP2 LT PUSH2 0x11A2 JUMPI DUP2 MLOAD DUP4 MSTORE PUSH2 0x1181 PUSH1 0x20 DUP5 PUSH2 0x1595 JUMP JUMPDEST SWAP3 POP PUSH2 0x118E PUSH1 0x20 DUP4 PUSH2 0x1595 JUMP JUMPDEST SWAP2 POP PUSH2 0x119B PUSH1 0x20 DUP3 PUSH2 0x15A8 JUMP JUMPDEST SWAP1 POP PUSH2 0x116A JUMP JUMPDEST SWAP1 MLOAD DUP3 MLOAD PUSH1 0x20 SWAP3 SWAP1 SWAP3 SUB PUSH2 0x100 EXP PUSH0 NOT ADD DUP1 NOT SWAP1 SWAP2 AND SWAP2 AND OR SWAP1 MSTORE JUMP JUMPDEST PUSH0 DUP2 MLOAD DUP1 DUP5 MSTORE PUSH0 JUMPDEST DUP2 DUP2 LT ISZERO PUSH2 0x11E3 JUMPI PUSH1 0x20 DUP2 DUP6 ADD DUP2 ADD MLOAD DUP7 DUP4 ADD DUP3 ADD MSTORE ADD PUSH2 0x11C7 JUMP JUMPDEST POP PUSH0 PUSH1 0x20 DUP3 DUP7 ADD ADD MSTORE PUSH1 0x20 PUSH1 0x1F NOT PUSH1 0x1F DUP4 ADD AND DUP6 ADD ADD SWAP2 POP POP SWAP3 SWAP2 POP POP JUMP JUMPDEST PUSH1 0x20 DUP2 MSTORE PUSH0 PUSH2 0x9FC PUSH1 0x20 DUP4 ADD DUP5 PUSH2 0x11BF JUMP JUMPDEST PUSH0 DUP1 DUP4 PUSH1 0x1F DUP5 ADD SLT PUSH2 0x1224 JUMPI PUSH0 DUP1 REVERT JUMPDEST POP DUP2 CALLDATALOAD PUSH8 0xFFFFFFFFFFFFFFFF DUP2 GT ISZERO PUSH2 0x123B JUMPI PUSH0 DUP1 REVERT JUMPDEST PUSH1 0x20 DUP4 ADD SWAP2 POP DUP4 PUSH1 0x20 DUP3 DUP6 ADD ADD GT ISZERO PUSH2 0x1252 JUMPI PUSH0 DUP1 REVERT JUMPDEST SWAP3 POP SWAP3 SWAP1 POP JUMP JUMPDEST PUSH0 DUP1 PUSH0 DUP1 PUSH0 DUP1 PUSH1 0x60 DUP8 DUP10 SUB SLT ISZERO PUSH2 0x126E JUMPI PUSH0 DUP1 REVERT JUMPDEST DUP7 CALLDATALOAD PUSH8 0xFFFFFFFFFFFFFFFF DUP1 DUP3 GT ISZERO PUSH2 0x1285 JUMPI PUSH0 DUP1 REVERT JUMPDEST PUSH2 0x1291 DUP11 DUP4 DUP12 ADD PUSH2 0x1214 JUMP JUMPDEST SWAP1 SWAP9 POP SWAP7 POP PUSH1 0x20 DUP10 ADD CALLDATALOAD SWAP2 POP DUP1 DUP3 GT ISZERO PUSH2 0x12A9 JUMPI PUSH0 DUP1 REVERT JUMPDEST PUSH2 0x12B5 DUP11 DUP4 DUP12 ADD PUSH2 0x1214 JUMP JUMPDEST SWAP1 SWAP7 POP SWAP5 POP PUSH1 0x40 DUP10 ADD CALLDATALOAD SWAP2 POP DUP1 DUP3 GT ISZERO PUSH2 0x12CD JUMPI PUSH0 DUP1 REVERT JUMPDEST POP PUSH2 0x12DA DUP10 DUP3 DUP11 ADD PUSH2 0x1214 JUMP JUMPDEST SWAP8 SWAP11 SWAP7 SWAP10 POP SWAP5 SWAP8 POP SWAP3 SWAP6 SWAP4 SWAP5 SWAP3 POP POP POP JUMP JUMPDEST PUSH4 0x4E487B71 PUSH1 0xE0 SHL PUSH0 MSTORE PUSH1 0x41 PUSH1 0x4 MSTORE PUSH1 0x24 PUSH0 REVERT JUMPDEST PUSH0 DUP3 PUSH1 0x1F DUP4 ADD SLT PUSH2 0x130F JUMPI PUSH0 DUP1 REVERT JUMPDEST DUP2 CALLDATALOAD PUSH8 0xFFFFFFFFFFFFFFFF DUP1 DUP3 GT ISZERO PUSH2 0x132A JUMPI PUSH2 0x132A PUSH2 0x12EC JUMP JUMPDEST PUSH1 0x40 MLOAD PUSH1 0x1F DUP4 ADD PUSH1 0x1F NOT SWAP1 DUP2 AND PUSH1 0x3F ADD AND DUP2 ADD SWAP1 DUP3 DUP3 GT DUP2 DUP4 LT OR ISZERO PUSH2 0x1352 JUMPI PUSH2 0x1352 PUSH2 0x12EC JUMP JUMPDEST DUP2 PUSH1 0x40 MSTORE DUP4 DUP2 MSTORE DUP7 PUSH1 0x20 DUP6 DUP9 ADD ADD GT ISZERO PUSH2 0x136A JUMPI PUSH0 DUP1 REVERT JUMPDEST DUP4 PUSH1 0x20 DUP8 ADD PUSH1 0x20 DUP4 ADD CALLDATACOPY PUSH0 PUSH1 0x20 DUP6 DUP4 ADD ADD MSTORE DUP1 SWAP5 POP POP POP POP POP SWAP3 SWAP2 POP POP JUMP JUMPDEST PUSH0 DUP1 PUSH1 0x40 DUP4 DUP6 SUB SLT ISZERO PUSH2 0x139A JUMPI PUSH0 DUP1 REVERT JUMPDEST DUP3 CALLDATALOAD PUSH8 0xFFFFFFFFFFFFFFFF DUP1 DUP3 GT ISZERO PUSH2 0x13B1 JUMPI PUSH0 DUP1 REVERT JUMPDEST PUSH2 0x13BD DUP7 DUP4 DUP8 ADD PUSH2 0x1300 JUMP JUMPDEST SWAP4 POP PUSH1 0x20 DUP6 ADD CALLDATALOAD SWAP2 POP DUP1 DUP3 GT ISZERO PUSH2 0x13D2 JUMPI PUSH0 DUP1 REVERT JUMPDEST POP PUSH2 0x13DF DUP6 DUP3 DUP7 ADD PUSH2 0x1300 JUMP JUMPDEST SWAP2 POP POP SWAP3 POP SWAP3 SWAP1 POP JUMP JUMPDEST PUSH0 PUSH1 0x20 DUP3 DUP5 SUB SLT ISZERO PUSH2 0x13F9 JUMPI PUSH0 DUP1 REVERT JUMPDEST POP CALLDATALOAD SWAP2 SWAP1 POP JUMP JUMPDEST PUSH0 DUP1 PUSH1 0x20 DUP4 DUP6 SUB SLT ISZERO PUSH2 0x1411 JUMPI PUSH0 DUP1 REVERT JUMPDEST DUP3 CALLDATALOAD PUSH8 0xFFFFFFFFFFFFFFFF DUP2 GT ISZERO PUSH2 0x1427 JUMPI PUSH0 DUP1 REVERT JUMPDEST PUSH2 0x1433 DUP6 DUP3 DUP7 ADD PUSH2 0x1214 JUMP JUMPDEST SWAP1 SWAP7 SWAP1 SWAP6 POP SWAP4 POP POP POP POP JUMP JUMPDEST PUSH0 PUSH1 0x20 DUP3 DUP5 SUB SLT ISZERO PUSH2 0x144F JUMPI PUSH0 DUP1 REVERT JUMPDEST DUP2 CALLDATALOAD PUSH1 0x1 PUSH1 0x1 PUSH1 0xA0 SHL SUB DUP2 AND DUP2 EQ PUSH2 0x9FC JUMPI PUSH0 DUP1 REVERT JUMPDEST PUSH1 0x1 DUP2 DUP2 SHR SWAP1 DUP3 AND DUP1 PUSH2 0x1479 JUMPI PUSH1 0x7F DUP3 AND SWAP2 POP JUMPDEST PUSH1 0x20 DUP3 LT DUP2 SUB PUSH2 0x1497 JUMPI PUSH4 0x4E487B71 PUSH1 0xE0 SHL PUSH0 MSTORE PUSH1 0x22 PUSH1 0x4 MSTORE PUSH1 0x24 PUSH0 REVERT JUMPDEST POP SWAP2 SWAP1 POP JUMP JUMPDEST DUP2 DUP4 MSTORE DUP2 DUP2 PUSH1 0x20 DUP6 ADD CALLDATACOPY POP PUSH0 DUP3 DUP3 ADD PUSH1 0x20 SWAP1 DUP2 ADD SWAP2 SWAP1 SWAP2 MSTORE PUSH1 0x1F SWAP1 SWAP2 ADD PUSH1 0x1F NOT AND SWAP1 SWAP2 ADD ADD SWAP1 JUMP JUMPDEST PUSH1 0x60 DUP2 MSTORE PUSH0 PUSH2 0x14D7 PUSH1 0x60 DUP4 ADD DUP9 PUSH2 0x11BF JUMP JUMPDEST DUP3 DUP2 SUB PUSH1 0x20 DUP5 ADD MSTORE PUSH2 0x14EA DUP2 DUP8 DUP10 PUSH2 0x149D JUMP JUMPDEST SWAP1 POP DUP3 DUP2 SUB PUSH1 0x40 DUP5 ADD MSTORE PUSH2 0x7B1 DUP2 DUP6 DUP8 PUSH2 0x149D JUMP JUMPDEST PUSH0 PUSH1 0x20 DUP3 DUP5 SUB SLT ISZERO PUSH2 0x150F JUMPI PUSH0 DUP1 REVERT JUMPDEST DUP2 MLOAD DUP1 ISZERO ISZERO DUP2 EQ PUSH2 0x9FC JUMPI PUSH0 DUP1 REVERT JUMPDEST PUSH4 0x4E487B71 PUSH1 0xE0 SHL PUSH0 MSTORE PUSH1 0x32 PUSH1 0x4 MSTORE PUSH1 0x24 PUSH0 REVERT JUMPDEST PUSH1 0x60 DUP2 MSTORE PUSH0 PUSH2 0x1544 PUSH1 0x60 DUP4 ADD DUP7 PUSH2 0x11BF JUMP JUMPDEST DUP3 DUP2 SUB PUSH1 0x20 DUP5 ADD MSTORE PUSH2 0x1556 DUP2 DUP7 PUSH2 0x11BF JUMP JUMPDEST SWAP1 POP DUP3 DUP2 SUB PUSH1 0x40 DUP5 ADD MSTORE PUSH2 0x3C1 DUP2 DUP6 PUSH2 0x11BF JUMP JUMPDEST PUSH0 PUSH1 0x20 DUP3 DUP5 SUB SLT ISZERO PUSH2 0x157A JUMPI PUSH0 DUP1 REVERT JUMPDEST POP MLOAD SWAP2 SWAP1 POP JUMP JUMPDEST PUSH4 0x4E487B71 PUSH1 0xE0 SHL PUSH0 MSTORE PUSH1 0x11 PUSH1 0x4 MSTORE PUSH1 0x24 PUSH0 REVERT JUMPDEST DUP1 DUP3 ADD DUP1 DUP3 GT ISZERO PUSH2 0x896 JUMPI PUSH2 0x896 PUSH2 0x1581 JUMP JUMPDEST DUP2 DUP2 SUB DUP2 DUP2 GT ISZERO PUSH2 0x896 JUMPI PUSH2 0x896 PUSH2 0x1581 JUMP JUMPDEST PUSH0 PUSH1 0x1 DUP3 ADD PUSH2 0x15CC JUMPI PUSH2 0x15CC PUSH2 0x1581 JUMP JUMPDEST POP PUSH1 0x1 ADD SWAP1 JUMP JUMPDEST PUSH1 0xFF DUP3 DUP2 AND DUP3 DUP3 AND SUB SWAP1 DUP2 GT ISZERO PUSH2 0x896 JUMPI PUSH2 0x896 PUSH2 0x1581 JUMP JUMPDEST PUSH1 0xFF DUP2 DUP2 AND DUP4 DUP3 AND MUL SWAP1 DUP2 AND SWAP1 DUP2 DUP2 EQ PUSH2 0x1608 JUMPI PUSH2 0x1608 PUSH2 0x1581 JUMP JUMPDEST POP SWAP3 SWAP2 POP POP JUMP JUMPDEST PUSH4 0x4E487B71 PUSH1 0xE0 SHL PUSH0 MSTORE PUSH1 0x12 PUSH1 0x4 MSTORE PUSH1 0x24 PUSH0 REVERT JUMPDEST PUSH0 DUP3 PUSH2 0x1631 JUMPI PUSH2 0x1631 PUSH2 0x160F JUMP JUMPDEST POP MOD SWAP1 JUMP JUMPDEST PUSH0 DUP3 PUSH2 0x1644 JUMPI PUSH2 0x1644 PUSH2 0x160F JUMP JUMPDEST POP DIV SWAP1 JUMP JUMPDEST DUP1 DUP3 MUL DUP2 ISZERO DUP3 DUP3 DIV DUP5 EQ OR PUSH2 0x896 JUMPI PUSH2 0x896 PUSH2 0x1581 JUMP INVALID STOP STOP STOP STOP STOP STOP STOP STOP STOP STOP STOP STOP STOP STOP STOP STOP STOP STOP STOP STOP STOP STOP STOP STOP STOP STOP STOP STOP STOP STOP STOP STOP STOP STOP STOP STOP STOP STOP STOP STOP STOP STOP STOP RETURNDATACOPY STOP STOP STOP EXTCODEHASH CALLVALUE CALLDATALOAD CALLDATASIZE CALLDATACOPY CODESIZE CODECOPY GASPRICE EXTCODESIZE EXTCODECOPY RETURNDATASIZE STOP STOP STOP STOP STOP STOP STOP STOP ADD MUL SUB DIV SDIV MOD SMOD ADDMOD MULMOD EXP SIGNEXTEND 0xC 0xD 0xE 0xF LT GT SLT SGT EQ ISZERO AND OR XOR NOT STOP STOP STOP STOP STOP STOP BYTE SHL SHR SAR 0x1E 0x1F KECCAK256 0x21 0x22 0x23 0x24 0x25 0x26 0x27 0x28 0x29 0x2A 0x2B 0x2C 0x2D 0x2E 0x2F ADDRESS BALANCE ORIGIN CALLER STOP STOP STOP STOP STOP LOG2 PUSH5 0x6970667358 0x22 SLT KECCAK256 SDIV 0x5C LOG4 0xE0 LOG0 0x22 POP LOG3 DUP13 DUP2 SELFBALANCE PC 0xAE 0xB8 PUSH4 0xD67A5304 LOG4 CALLCODE 0xDF 0xCD OR KECCAK256 PUSH22 0xBA2CA5BD730F64736F6C634300081600330000000000 "
		},
		"gasEstimates": {
			"creation": {
				"codeDepositCost": "1182000",
				"executionCost": "infinite",
				"totalCost": "infinite"
			},
			"external": {
				"EXPECTED_MRENCLAVE()": "2383",
				"caCertPubKey()": "infinite",
				"getMrEnclave(bytes)": "infinite",
				"isvEnclaveQuoteBodyStart()": "2360",
				"owner()": "2395",
				"renounceOwnership()": "infinite",
				"rootCert()": "infinite",
				"setExpectedMrEnclave(bytes32)": "24546",
				"sha256WithRSAEncryption()": "2403",
				"transferOwnership(address)": "28404",
				"verifyAttestation(bytes,bytes,bytes)": "infinite",
				"verifyCert(bytes,bytes)": "infinite"
			},
			"internal": {
				"getBytesAfterSequence(bytes memory,bytes23)": "infinite",
				"indexOf(bytes memory,bytes23)": "infinite",
				"verifyAttBodyOk(bytes calldata)": "infinite"
			}
		},
		"methodIdentifiers": {
			"EXPECTED_MRENCLAVE()": "58d1c11b",
			"caCertPubKey()": "3553d6ee",
			"getMrEnclave(bytes)": "e35f1a83",
			"isvEnclaveQuoteBodyStart()": "44a73684",
			"owner()": "8da5cb5b",
			"renounceOwnership()": "715018a6",
			"rootCert()": "7221e6fc",
			"setExpectedMrEnclave(bytes32)": "89cccf61",
			"sha256WithRSAEncryption()": "462b2653",
			"transferOwnership(address)": "f2fde38b",
			"verifyAttestation(bytes,bytes,bytes)": "3e1c075a",
			"verifyCert(bytes,bytes)": "721d9bc4"
		}
	},
	"abi": [
		{
			"inputs": [
				{
					"internalType": "bytes",
					"name": "_caCertPubKey",
					"type": "bytes"
				},
				{
					"internalType": "bytes",
					"name": "_rootCert",
					"type": "bytes"
				},
				{
					"internalType": "contract Algorithm",
					"name": "_algo",
					"type": "address"
				}
			],
			"stateMutability": "nonpayable",
			"type": "constructor"
		},
		{
			"inputs": [
				{
					"internalType": "address",
					"name": "owner",
					"type": "address"
				}
			],
			"name": "OwnableInvalidOwner",
			"type": "error"
		},
		{
			"inputs": [
				{
					"internalType": "address",
					"name": "account",
					"type": "address"
				}
			],
			"name": "OwnableUnauthorizedAccount",
			"type": "error"
		},
		{
			"anonymous": false,
			"inputs": [
				{
					"indexed": true,
					"internalType": "address",
					"name": "previousOwner",
					"type": "address"
				},
				{
					"indexed": true,
					"internalType": "address",
					"name": "newOwner",
					"type": "address"
				}
			],
			"name": "OwnershipTransferred",
			"type": "event"
		},
		{
			"inputs": [],
			"name": "EXPECTED_MRENCLAVE",
			"outputs": [
				{
					"internalType": "bytes32",
					"name": "",
					"type": "bytes32"
				}
			],
			"stateMutability": "view",
			"type": "function"
		},
		{
			"inputs": [],
			"name": "caCertPubKey",
			"outputs": [
				{
					"internalType": "bytes",
					"name": "",
					"type": "bytes"
				}
			],
			"stateMutability": "view",
			"type": "function"
		},
		{
			"inputs": [
				{
					"internalType": "bytes",
					"name": "attBody",
					"type": "bytes"
				}
			],
			"name": "getMrEnclave",
			"outputs": [
				{
					"internalType": "bytes32",
					"name": "",
					"type": "bytes32"
				}
			],
			"stateMutability": "view",
			"type": "function"
		},
		{
			"inputs": [],
			"name": "isvEnclaveQuoteBodyStart",
			"outputs": [
				{
					"internalType": "bytes23",
					"name": "",
					"type": "bytes23"
				}
			],
			"stateMutability": "view",
			"type": "function"
		},
		{
			"inputs": [],
			"name": "owner",
			"outputs": [
				{
					"internalType": "address",
					"name": "",
					"type": "address"
				}
			],
			"stateMutability": "view",
			"type": "function"
		},
		{
			"inputs": [],
			"name": "renounceOwnership",
			"outputs": [],
			"stateMutability": "nonpayable",
			"type": "function"
		},
		{
			"inputs": [],
			"name": "rootCert",
			"outputs": [
				{
					"internalType": "bytes",
					"name": "",
					"type": "bytes"
				}
			],
			"stateMutability": "view",
			"type": "function"
		},
		{
			"inputs": [
				{
					"internalType": "bytes32",
					"name": "_expectedMrEnclave",
					"type": "bytes32"
				}
			],
			"name": "setExpectedMrEnclave",
			"outputs": [],
			"stateMutability": "nonpayable",
			"type": "function"
		},
		{
			"inputs": [],
			"name": "sha256WithRSAEncryption",
			"outputs": [
				{
					"internalType": "contract Algorithm",
					"name": "",
					"type": "address"
				}
			],
			"stateMutability": "view",
			"type": "function"
		},
		{
			"inputs": [
				{
					"internalType": "address",
					"name": "newOwner",
					"type": "address"
				}
			],
			"name": "transferOwnership",
			"outputs": [],
			"stateMutability": "nonpayable",
			"type": "function"
		},
		{
			"inputs": [
				{
					"internalType": "bytes",
					"name": "attCert",
					"type": "bytes"
				},
				{
					"internalType": "bytes",
					"name": "attBody",
					"type": "bytes"
				},
				{
					"internalType": "bytes",
					"name": "attSig",
					"type": "bytes"
				}
			],
			"name": "verifyAttestation",
			"outputs": [
				{
					"internalType": "bool",
					"name": "",
					"type": "bool"
				}
			],
			"stateMutability": "view",
			"type": "function"
		},
		{
			"inputs": [
				{
					"internalType": "bytes",
					"name": "cert",
					"type": "bytes"
				},
				{
					"internalType": "bytes",
					"name": "pubKey",
					"type": "bytes"
				}
			],
			"name": "verifyCert",
			"outputs": [
				{
					"internalType": "bytes",
					"name": "certPubKey",
					"type": "bytes"
				}
			],
			"stateMutability": "view",
			"type": "function"
		}
	]
}