{
	"data": {
		"bytecode": {
			"linkReferences": {
				"src/utils/DateTime.sol": {
					"DateTime": [
						{
							"length": 20,
							"start": 2095
						},
						{
							"length": 20,
							"start": 2352
						}
					]
				}
			},
			"object": "60806040527f22697376456e636c61766551756f7465537461747573223a224f4b22000000006000553480156200003557600080fd5b506040516200132f3803806200132f83398101604081905262000058916200016c565b600162000066848262000288565b50600262000075838262000288565b50600380546001600160a01b0319166001600160a01b039290921691909117905550620003549050565b634e487b7160e01b600052604160045260246000fd5b600082601f830112620000c757600080fd5b81516001600160401b0380821115620000e457620000e46200009f565b604051601f8301601f19908116603f011681019082821181831017156200010f576200010f6200009f565b816040528381526020925086838588010111156200012c57600080fd5b600091505b8382101562000150578582018301518183018401529082019062000131565b83821115620001625760008385830101525b9695505050505050565b6000806000606084860312156200018257600080fd5b83516001600160401b03808211156200019a57600080fd5b620001a887838801620000b5565b94506020860151915080821115620001bf57600080fd5b50620001ce86828701620000b5565b604086015190935090506001600160a01b0381168114620001ee57600080fd5b809150509250925092565b600181811c908216806200020e57607f821691505b6020821081036200022f57634e487b7160e01b600052602260045260246000fd5b50919050565b601f8211156200028357600081815260208120601f850160051c810160208610156200025e5750805b601f850160051c820191505b818110156200027f578281556001016200026a565b5050505b505050565b81516001600160401b03811115620002a457620002a46200009f565b620002bc81620002b58454620001f9565b8462000235565b602080601f831160018114620002f45760008415620002db5750858301515b600019600386901b1c1916600185901b1785556200027f565b600085815260208120601f198616915b82811015620003255788860151825594840194600190910190840162000304565b5085821015620003445787850151600019600388901b60f8161c191681555b5050505050600190811b01905550565b610fcb80620003646000396000f3fe608060405234801561001057600080fd5b50600436106100575760003560e01c80633553d6ee1461005c5780633e1c075a1461007a578063462b26531461009d578063721d9bc4146100c85780637221e6fc146100db575b600080fd5b6100646100e3565b6040516100719190610bdf565b60405180910390f35b61008d610088366004610c3b565b610171565b6040519015158152602001610071565b6003546100b0906001600160a01b031681565b6040516001600160a01b039091168152602001610071565b6100646100d6366004610d78565b6102f9565b6100646106e2565b600180546100f090610ddc565b80601f016020809104026020016040519081016040528092919081815260200182805461011c90610ddc565b80156101695780601f1061013e57610100808354040283529160200191610169565b820191906000526020600020905b81548152906001019060200180831161014c57829003601f168201915b505050505081565b60008061023f88888080601f01602080910402602001604051908101604052809392919081815260200183838082843760009201919091525050600180549092506101bc9150610ddc565b80601f01602080910402602001604051908101604052809291908181526020018280546101e890610ddc565b80156102355780601f1061020a57610100808354040283529160200191610235565b820191906000526020600020905b81548152906001019060200180831161021857829003601f168201915b50505050506102f9565b60035460405163de8f50a160e01b81529192506001600160a01b03169063de8f50a1906102789084908a908a908a908a90600401610e3f565b602060405180830381865afa158015610295573d6000803e3d6000fd5b505050506040513d601f19601f820116820180604052508101906102b99190610e7a565b15156000036102cc5760009150506102ef565b6102d686866106ef565b15156000036102e95760009150506102ef565b60019150505b9695505050505050565b6060600080600061030986610759565b92506103158684610766565b92506103218684610766565b9150856001600160501b0383168151811061033e5761033e610e9c565b01602001516001600160f81b031916600560fd1b0361036457610361868361080b565b91505b61036e868361080b565b915061037a8683610766565b9150610386868461080b565b9050610392868261080b565b6003549091506001600160a01b031663de8f50a1866103b18987610829565b6103bb8a86610864565b6040518463ffffffff1660e01b81526004016103d993929190610eb2565b602060405180830381865afa1580156103f6573d6000803e3d6000fd5b505050506040513d601f19601f8201168201806040525081019061041a9190610e7a565b61047f5760405162461bcd60e51b815260206004820152602b60248201527f4174746573746174696f6e56657269666965723a205369676e6174757265206460448201526a0decae6dce840dac2e8c6d60ab1b60648201526084015b60405180910390fd5b6104898684610766565b9250610495868461080b565b92506104a1868461080b565b92506104ad868461080b565b92506104b9868461080b565b92506104c58684610766565b9150600073__$3121b8144e26f5a8fcc440b7b32d4f2d0e$__63095385c66104ed8986610864565b6040518263ffffffff1660e01b81526004016105099190610bdf565b602060405180830381865af4158015610526573d6000803e3d6000fd5b505050506040513d601f19601f8201168201806040525081019061054a9190610eeb565b9050428164ffffffffff1611156105bc5760405162461bcd60e51b815260206004820152603060248201527f4174746573746174696f6e5665726966793a204365727469666963617465206960448201526f39903737ba103cb2ba103b30b634b21760811b6064820152608401610476565b6105c6878461080b565b9250600073__$3121b8144e26f5a8fcc440b7b32d4f2d0e$__63095385c66105ee8a87610864565b6040518263ffffffff1660e01b815260040161060a9190610bdf565b602060405180830381865af4158015610627573d6000803e3d6000fd5b505050506040513d601f19601f8201168201806040525081019061064b9190610eeb565b9050428164ffffffffff1610156106b45760405162461bcd60e51b815260206004820152602760248201527f4174746573746174696f6e5665726966793a20436572746966696361746520656044820152663c3834b932b21760c91b6064820152608401610476565b6106be888661080b565b94506106ca888661080b565b94506106d68886610829565b98975050505050505050565b600280546100f090610ddc565b6000608082101561070257506000610753565b600061074b6065601c86868080601f01602080910402602001604051908101604052809392919081815260200183838082843760009201919091525092949392505061087d9050565b600054149150505b92915050565b60006107538260006108be565b6000826001600160501b0383168151811061078357610783610e9c565b0160200151600160fd1b908116146107e85760405162461bcd60e51b815260206004820152602260248201527f41736e316465636f64653a204e6f74206120636f6e7374727563746564207479604482015261706560f01b6064820152608401610476565b61080483605084901c6001600160501b03166108be565b6108be565b9392505050565b6000610804836107ff6001600160501b0360a086901c166001610f1a565b60606108046001600160501b038316805b6108526001600160501b0360a087901c166001610f1a565b61085c9190610f32565b859190610a6e565b60606108046001600160501b03605084901c168061083a565b6000602082111561088d57600080fd5b83516108998385610f1a565b11156108a457600080fd5b506020919092018101519190036101000a60001901191690565b6000808080856108cf866001610f1a565b815181106108df576108df610e9c565b0160200151600160ff1b1660000361094a57856108fd866001610f1a565b8151811061090d5761090d610e9c565b016020015160f81c9250610922856002610f1a565b91506001610939846001600160501b038516610f1a565b6109439190610f32565b9050610a3e565b600086610958876001610f1a565b8151811061096857610968610e9c565b60209101015160f81c607f169050600181900361099e5761099461098d876002610f1a565b8890610af0565b60ff169350610a00565b8060ff166002036109c9576109be6109b7876002610f1a565b8890610b14565b61ffff169350610a00565b6109d4816020610f49565b6109df906008610f6c565b60ff166109fb6109f0886002610f1a565b899060ff851661087d565b901c93505b60ff8116610a0f876002610f1a565b610a199190610f1a565b92506001610a30856001600160501b038616610f1a565b610a3a9190610f32565b9150505b69ffffffffffffffffffff60a01b60a082901b1669ffffffffffffffffffff60501b605084901b168617176102ef565b8251606090610a7d8385610f1a565b1115610a8857600080fd5b60008267ffffffffffffffff811115610aa357610aa3610cd5565b6040519080825280601f01601f191660200182016040528015610acd576020820181803683370190505b50905060208082019086860101610ae5828287610b3c565b509095945050505050565b6000828281518110610b0457610b04610e9c565b016020015160f81c905092915050565b8151600090610b24836002610f1a565b1115610b2f57600080fd5b50016002015161ffff1690565b60208110610b745781518352610b53602084610f1a565b9250610b60602083610f1a565b9150610b6d602082610f32565b9050610b3c565b905182516020929092036101000a6000190180199091169116179052565b6000815180845260005b81811015610bb857602081850181015186830182015201610b9c565b81811115610bca576000602083870101525b50601f01601f19169290920160200192915050565b6020815260006108046020830184610b92565b60008083601f840112610c0457600080fd5b50813567ffffffffffffffff811115610c1c57600080fd5b602083019150836020828501011115610c3457600080fd5b9250929050565b60008060008060008060608789031215610c5457600080fd5b863567ffffffffffffffff80821115610c6c57600080fd5b610c788a838b01610bf2565b90985096506020890135915080821115610c9157600080fd5b610c9d8a838b01610bf2565b90965094506040890135915080821115610cb657600080fd5b50610cc389828a01610bf2565b979a9699509497509295939492505050565b634e487b7160e01b600052604160045260246000fd5b600082601f830112610cfc57600080fd5b813567ffffffffffffffff80821115610d1757610d17610cd5565b604051601f8301601f19908116603f01168101908282118183101715610d3f57610d3f610cd5565b81604052838152866020858801011115610d5857600080fd5b836020870160208301376000602085830101528094505050505092915050565b60008060408385031215610d8b57600080fd5b823567ffffffffffffffff80821115610da357600080fd5b610daf86838701610ceb565b93506020850135915080821115610dc557600080fd5b50610dd285828601610ceb565b9150509250929050565b600181811c90821680610df057607f821691505b602082108103610e1057634e487b7160e01b600052602260045260246000fd5b50919050565b81835281816020850137506000828201602090810191909152601f909101601f19169091010190565b606081526000610e526060830188610b92565b8281036020840152610e65818789610e16565b905082810360408401526106d6818587610e16565b600060208284031215610e8c57600080fd5b8151801515811461080457600080fd5b634e487b7160e01b600052603260045260246000fd5b606081526000610ec56060830186610b92565b8281036020840152610ed78186610b92565b905082810360408401526102ef8185610b92565b600060208284031215610efd57600080fd5b5051919050565b634e487b7160e01b600052601160045260246000fd5b60008219821115610f2d57610f2d610f04565b500190565b600082821015610f4457610f44610f04565b500390565b600060ff821660ff841680821015610f6357610f63610f04565b90039392505050565b600060ff821660ff84168160ff0481118215151615610f8d57610f8d610f04565b02939250505056fea2646970667358221220015b79016f2a09fbe5723bab693a74231d86a6221ef87a200c822b0ae7b2088f64736f6c634300080f0033",
			"opcodes": "PUSH1 0x80 PUSH1 0x40 MSTORE PUSH32 0x22697376456E636C61766551756F7465537461747573223A224F4B2200000000 PUSH1 0x0 SSTORE CALLVALUE DUP1 ISZERO PUSH3 0x35 JUMPI PUSH1 0x0 DUP1 REVERT JUMPDEST POP PUSH1 0x40 MLOAD PUSH3 0x132F CODESIZE SUB DUP1 PUSH3 0x132F DUP4 CODECOPY DUP2 ADD PUSH1 0x40 DUP2 SWAP1 MSTORE PUSH3 0x58 SWAP2 PUSH3 0x16C JUMP JUMPDEST PUSH1 0x1 PUSH3 0x66 DUP5 DUP3 PUSH3 0x288 JUMP JUMPDEST POP PUSH1 0x2 PUSH3 0x75 DUP4 DUP3 PUSH3 0x288 JUMP JUMPDEST POP PUSH1 0x3 DUP1 SLOAD PUSH1 0x1 PUSH1 0x1 PUSH1 0xA0 SHL SUB NOT AND PUSH1 0x1 PUSH1 0x1 PUSH1 0xA0 SHL SUB SWAP3 SWAP1 SWAP3 AND SWAP2 SWAP1 SWAP2 OR SWAP1 SSTORE POP PUSH3 0x354 SWAP1 POP JUMP JUMPDEST PUSH4 0x4E487B71 PUSH1 0xE0 SHL PUSH1 0x0 MSTORE PUSH1 0x41 PUSH1 0x4 MSTORE PUSH1 0x24 PUSH1 0x0 REVERT JUMPDEST PUSH1 0x0 DUP3 PUSH1 0x1F DUP4 ADD SLT PUSH3 0xC7 JUMPI PUSH1 0x0 DUP1 REVERT JUMPDEST DUP2 MLOAD PUSH1 0x1 PUSH1 0x1 PUSH1 0x40 SHL SUB DUP1 DUP3 GT ISZERO PUSH3 0xE4 JUMPI PUSH3 0xE4 PUSH3 0x9F JUMP JUMPDEST PUSH1 0x40 MLOAD PUSH1 0x1F DUP4 ADD PUSH1 0x1F NOT SWAP1 DUP2 AND PUSH1 0x3F ADD AND DUP2 ADD SWAP1 DUP3 DUP3 GT DUP2 DUP4 LT OR ISZERO PUSH3 0x10F JUMPI PUSH3 0x10F PUSH3 0x9F JUMP JUMPDEST DUP2 PUSH1 0x40 MSTORE DUP4 DUP2 MSTORE PUSH1 0x20 SWAP3 POP DUP7 DUP4 DUP6 DUP9 ADD ADD GT ISZERO PUSH3 0x12C JUMPI PUSH1 0x0 DUP1 REVERT JUMPDEST PUSH1 0x0 SWAP2 POP JUMPDEST DUP4 DUP3 LT ISZERO PUSH3 0x150 JUMPI DUP6 DUP3 ADD DUP4 ADD MLOAD DUP2 DUP4 ADD DUP5 ADD MSTORE SWAP1 DUP3 ADD SWAP1 PUSH3 0x131 JUMP JUMPDEST DUP4 DUP3 GT ISZERO PUSH3 0x162 JUMPI PUSH1 0x0 DUP4 DUP6 DUP4 ADD ADD MSTORE JUMPDEST SWAP7 SWAP6 POP POP POP POP POP POP JUMP JUMPDEST PUSH1 0x0 DUP1 PUSH1 0x0 PUSH1 0x60 DUP5 DUP7 SUB SLT ISZERO PUSH3 0x182 JUMPI PUSH1 0x0 DUP1 REVERT JUMPDEST DUP4 MLOAD PUSH1 0x1 PUSH1 0x1 PUSH1 0x40 SHL SUB DUP1 DUP3 GT ISZERO PUSH3 0x19A JUMPI PUSH1 0x0 DUP1 REVERT JUMPDEST PUSH3 0x1A8 DUP8 DUP4 DUP9 ADD PUSH3 0xB5 JUMP JUMPDEST SWAP5 POP PUSH1 0x20 DUP7 ADD MLOAD SWAP2 POP DUP1 DUP3 GT ISZERO PUSH3 0x1BF JUMPI PUSH1 0x0 DUP1 REVERT JUMPDEST POP PUSH3 0x1CE DUP7 DUP3 DUP8 ADD PUSH3 0xB5 JUMP JUMPDEST PUSH1 0x40 DUP7 ADD MLOAD SWAP1 SWAP4 POP SWAP1 POP PUSH1 0x1 PUSH1 0x1 PUSH1 0xA0 SHL SUB DUP2 AND DUP2 EQ PUSH3 0x1EE JUMPI PUSH1 0x0 DUP1 REVERT JUMPDEST DUP1 SWAP2 POP POP SWAP3 POP SWAP3 POP SWAP3 JUMP JUMPDEST PUSH1 0x1 DUP2 DUP2 SHR SWAP1 DUP3 AND DUP1 PUSH3 0x20E JUMPI PUSH1 0x7F DUP3 AND SWAP2 POP JUMPDEST PUSH1 0x20 DUP3 LT DUP2 SUB PUSH3 0x22F JUMPI PUSH4 0x4E487B71 PUSH1 0xE0 SHL PUSH1 0x0 MSTORE PUSH1 0x22 PUSH1 0x4 MSTORE PUSH1 0x24 PUSH1 0x0 REVERT JUMPDEST POP SWAP2 SWAP1 POP JUMP JUMPDEST PUSH1 0x1F DUP3 GT ISZERO PUSH3 0x283 JUMPI PUSH1 0x0 DUP2 DUP2 MSTORE PUSH1 0x20 DUP2 KECCAK256 PUSH1 0x1F DUP6 ADD PUSH1 0x5 SHR DUP2 ADD PUSH1 0x20 DUP7 LT ISZERO PUSH3 0x25E JUMPI POP DUP1 JUMPDEST PUSH1 0x1F DUP6 ADD PUSH1 0x5 SHR DUP3 ADD SWAP2 POP JUMPDEST DUP2 DUP2 LT ISZERO PUSH3 0x27F JUMPI DUP3 DUP2 SSTORE PUSH1 0x1 ADD PUSH3 0x26A JUMP JUMPDEST POP POP POP JUMPDEST POP POP POP JUMP JUMPDEST DUP2 MLOAD PUSH1 0x1 PUSH1 0x1 PUSH1 0x40 SHL SUB DUP2 GT ISZERO PUSH3 0x2A4 JUMPI PUSH3 0x2A4 PUSH3 0x9F JUMP JUMPDEST PUSH3 0x2BC DUP2 PUSH3 0x2B5 DUP5 SLOAD PUSH3 0x1F9 JUMP JUMPDEST DUP5 PUSH3 0x235 JUMP JUMPDEST PUSH1 0x20 DUP1 PUSH1 0x1F DUP4 GT PUSH1 0x1 DUP2 EQ PUSH3 0x2F4 JUMPI PUSH1 0x0 DUP5 ISZERO PUSH3 0x2DB JUMPI POP DUP6 DUP4 ADD MLOAD JUMPDEST PUSH1 0x0 NOT PUSH1 0x3 DUP7 SWAP1 SHL SHR NOT AND PUSH1 0x1 DUP6 SWAP1 SHL OR DUP6 SSTORE PUSH3 0x27F JUMP JUMPDEST PUSH1 0x0 DUP6 DUP2 MSTORE PUSH1 0x20 DUP2 KECCAK256 PUSH1 0x1F NOT DUP7 AND SWAP2 JUMPDEST DUP3 DUP2 LT ISZERO PUSH3 0x325 JUMPI DUP9 DUP7 ADD MLOAD DUP3 SSTORE SWAP5 DUP5 ADD SWAP5 PUSH1 0x1 SWAP1 SWAP2 ADD SWAP1 DUP5 ADD PUSH3 0x304 JUMP JUMPDEST POP DUP6 DUP3 LT ISZERO PUSH3 0x344 JUMPI DUP8 DUP6 ADD MLOAD PUSH1 0x0 NOT PUSH1 0x3 DUP9 SWAP1 SHL PUSH1 0xF8 AND SHR NOT AND DUP2 SSTORE JUMPDEST POP POP POP POP POP PUSH1 0x1 SWAP1 DUP2 SHL ADD SWAP1 SSTORE POP JUMP JUMPDEST PUSH2 0xFCB DUP1 PUSH3 0x364 PUSH1 0x0 CODECOPY PUSH1 0x0 RETURN INVALID PUSH1 0x80 PUSH1 0x40 MSTORE CALLVALUE DUP1 ISZERO PUSH2 0x10 JUMPI PUSH1 0x0 DUP1 REVERT JUMPDEST POP PUSH1 0x4 CALLDATASIZE LT PUSH2 0x57 JUMPI PUSH1 0x0 CALLDATALOAD PUSH1 0xE0 SHR DUP1 PUSH4 0x3553D6EE EQ PUSH2 0x5C JUMPI DUP1 PUSH4 0x3E1C075A EQ PUSH2 0x7A JUMPI DUP1 PUSH4 0x462B2653 EQ PUSH2 0x9D JUMPI DUP1 PUSH4 0x721D9BC4 EQ PUSH2 0xC8 JUMPI DUP1 PUSH4 0x7221E6FC EQ PUSH2 0xDB JUMPI JUMPDEST PUSH1 0x0 DUP1 REVERT JUMPDEST PUSH2 0x64 PUSH2 0xE3 JUMP JUMPDEST PUSH1 0x40 MLOAD PUSH2 0x71 SWAP2 SWAP1 PUSH2 0xBDF JUMP JUMPDEST PUSH1 0x40 MLOAD DUP1 SWAP2 SUB SWAP1 RETURN JUMPDEST PUSH2 0x8D PUSH2 0x88 CALLDATASIZE PUSH1 0x4 PUSH2 0xC3B JUMP JUMPDEST PUSH2 0x171 JUMP JUMPDEST PUSH1 0x40 MLOAD SWAP1 ISZERO ISZERO DUP2 MSTORE PUSH1 0x20 ADD PUSH2 0x71 JUMP JUMPDEST PUSH1 0x3 SLOAD PUSH2 0xB0 SWAP1 PUSH1 0x1 PUSH1 0x1 PUSH1 0xA0 SHL SUB AND DUP2 JUMP JUMPDEST PUSH1 0x40 MLOAD PUSH1 0x1 PUSH1 0x1 PUSH1 0xA0 SHL SUB SWAP1 SWAP2 AND DUP2 MSTORE PUSH1 0x20 ADD PUSH2 0x71 JUMP JUMPDEST PUSH2 0x64 PUSH2 0xD6 CALLDATASIZE PUSH1 0x4 PUSH2 0xD78 JUMP JUMPDEST PUSH2 0x2F9 JUMP JUMPDEST PUSH2 0x64 PUSH2 0x6E2 JUMP JUMPDEST PUSH1 0x1 DUP1 SLOAD PUSH2 0xF0 SWAP1 PUSH2 0xDDC JUMP JUMPDEST DUP1 PUSH1 0x1F ADD PUSH1 0x20 DUP1 SWAP2 DIV MUL PUSH1 0x20 ADD PUSH1 0x40 MLOAD SWAP1 DUP2 ADD PUSH1 0x40 MSTORE DUP1 SWAP3 SWAP2 SWAP1 DUP2 DUP2 MSTORE PUSH1 0x20 ADD DUP3 DUP1 SLOAD PUSH2 0x11C SWAP1 PUSH2 0xDDC JUMP JUMPDEST DUP1 ISZERO PUSH2 0x169 JUMPI DUP1 PUSH1 0x1F LT PUSH2 0x13E JUMPI PUSH2 0x100 DUP1 DUP4 SLOAD DIV MUL DUP4 MSTORE SWAP2 PUSH1 0x20 ADD SWAP2 PUSH2 0x169 JUMP JUMPDEST DUP3 ADD SWAP2 SWAP1 PUSH1 0x0 MSTORE PUSH1 0x20 PUSH1 0x0 KECCAK256 SWAP1 JUMPDEST DUP2 SLOAD DUP2 MSTORE SWAP1 PUSH1 0x1 ADD SWAP1 PUSH1 0x20 ADD DUP1 DUP4 GT PUSH2 0x14C JUMPI DUP3 SWAP1 SUB PUSH1 0x1F AND DUP3 ADD SWAP2 JUMPDEST POP POP POP POP POP DUP2 JUMP JUMPDEST PUSH1 0x0 DUP1 PUSH2 0x23F DUP9 DUP9 DUP1 DUP1 PUSH1 0x1F ADD PUSH1 0x20 DUP1 SWAP2 DIV MUL PUSH1 0x20 ADD PUSH1 0x40 MLOAD SWAP1 DUP2 ADD PUSH1 0x40 MSTORE DUP1 SWAP4 SWAP3 SWAP2 SWAP1 DUP2 DUP2 MSTORE PUSH1 0x20 ADD DUP4 DUP4 DUP1 DUP3 DUP5 CALLDATACOPY PUSH1 0x0 SWAP3 ADD SWAP2 SWAP1 SWAP2 MSTORE POP POP PUSH1 0x1 DUP1 SLOAD SWAP1 SWAP3 POP PUSH2 0x1BC SWAP2 POP PUSH2 0xDDC JUMP JUMPDEST DUP1 PUSH1 0x1F ADD PUSH1 0x20 DUP1 SWAP2 DIV MUL PUSH1 0x20 ADD PUSH1 0x40 MLOAD SWAP1 DUP2 ADD PUSH1 0x40 MSTORE DUP1 SWAP3 SWAP2 SWAP1 DUP2 DUP2 MSTORE PUSH1 0x20 ADD DUP3 DUP1 SLOAD PUSH2 0x1E8 SWAP1 PUSH2 0xDDC JUMP JUMPDEST DUP1 ISZERO PUSH2 0x235 JUMPI DUP1 PUSH1 0x1F LT PUSH2 0x20A JUMPI PUSH2 0x100 DUP1 DUP4 SLOAD DIV MUL DUP4 MSTORE SWAP2 PUSH1 0x20 ADD SWAP2 PUSH2 0x235 JUMP JUMPDEST DUP3 ADD SWAP2 SWAP1 PUSH1 0x0 MSTORE PUSH1 0x20 PUSH1 0x0 KECCAK256 SWAP1 JUMPDEST DUP2 SLOAD DUP2 MSTORE SWAP1 PUSH1 0x1 ADD SWAP1 PUSH1 0x20 ADD DUP1 DUP4 GT PUSH2 0x218 JUMPI DUP3 SWAP1 SUB PUSH1 0x1F AND DUP3 ADD SWAP2 JUMPDEST POP POP POP POP POP PUSH2 0x2F9 JUMP JUMPDEST PUSH1 0x3 SLOAD PUSH1 0x40 MLOAD PUSH4 0xDE8F50A1 PUSH1 0xE0 SHL DUP2 MSTORE SWAP2 SWAP3 POP PUSH1 0x1 PUSH1 0x1 PUSH1 0xA0 SHL SUB AND SWAP1 PUSH4 0xDE8F50A1 SWAP1 PUSH2 0x278 SWAP1 DUP5 SWAP1 DUP11 SWAP1 DUP11 SWAP1 DUP11 SWAP1 DUP11 SWAP1 PUSH1 0x4 ADD PUSH2 0xE3F JUMP JUMPDEST PUSH1 0x20 PUSH1 0x40 MLOAD DUP1 DUP4 SUB DUP2 DUP7 GAS STATICCALL ISZERO DUP1 ISZERO PUSH2 0x295 JUMPI RETURNDATASIZE PUSH1 0x0 DUP1 RETURNDATACOPY RETURNDATASIZE PUSH1 0x0 REVERT JUMPDEST POP POP POP POP PUSH1 0x40 MLOAD RETURNDATASIZE PUSH1 0x1F NOT PUSH1 0x1F DUP3 ADD AND DUP3 ADD DUP1 PUSH1 0x40 MSTORE POP DUP2 ADD SWAP1 PUSH2 0x2B9 SWAP2 SWAP1 PUSH2 0xE7A JUMP JUMPDEST ISZERO ISZERO PUSH1 0x0 SUB PUSH2 0x2CC JUMPI PUSH1 0x0 SWAP2 POP POP PUSH2 0x2EF JUMP JUMPDEST PUSH2 0x2D6 DUP7 DUP7 PUSH2 0x6EF JUMP JUMPDEST ISZERO ISZERO PUSH1 0x0 SUB PUSH2 0x2E9 JUMPI PUSH1 0x0 SWAP2 POP POP PUSH2 0x2EF JUMP JUMPDEST PUSH1 0x1 SWAP2 POP POP JUMPDEST SWAP7 SWAP6 POP POP POP POP POP POP JUMP JUMPDEST PUSH1 0x60 PUSH1 0x0 DUP1 PUSH1 0x0 PUSH2 0x309 DUP7 PUSH2 0x759 JUMP JUMPDEST SWAP3 POP PUSH2 0x315 DUP7 DUP5 PUSH2 0x766 JUMP JUMPDEST SWAP3 POP PUSH2 0x321 DUP7 DUP5 PUSH2 0x766 JUMP JUMPDEST SWAP2 POP DUP6 PUSH1 0x1 PUSH1 0x1 PUSH1 0x50 SHL SUB DUP4 AND DUP2 MLOAD DUP2 LT PUSH2 0x33E JUMPI PUSH2 0x33E PUSH2 0xE9C JUMP JUMPDEST ADD PUSH1 0x20 ADD MLOAD PUSH1 0x1 PUSH1 0x1 PUSH1 0xF8 SHL SUB NOT AND PUSH1 0x5 PUSH1 0xFD SHL SUB PUSH2 0x364 JUMPI PUSH2 0x361 DUP7 DUP4 PUSH2 0x80B JUMP JUMPDEST SWAP2 POP JUMPDEST PUSH2 0x36E DUP7 DUP4 PUSH2 0x80B JUMP JUMPDEST SWAP2 POP PUSH2 0x37A DUP7 DUP4 PUSH2 0x766 JUMP JUMPDEST SWAP2 POP PUSH2 0x386 DUP7 DUP5 PUSH2 0x80B JUMP JUMPDEST SWAP1 POP PUSH2 0x392 DUP7 DUP3 PUSH2 0x80B JUMP JUMPDEST PUSH1 0x3 SLOAD SWAP1 SWAP2 POP PUSH1 0x1 PUSH1 0x1 PUSH1 0xA0 SHL SUB AND PUSH4 0xDE8F50A1 DUP7 PUSH2 0x3B1 DUP10 DUP8 PUSH2 0x829 JUMP JUMPDEST PUSH2 0x3BB DUP11 DUP7 PUSH2 0x864 JUMP JUMPDEST PUSH1 0x40 MLOAD DUP5 PUSH4 0xFFFFFFFF AND PUSH1 0xE0 SHL DUP2 MSTORE PUSH1 0x4 ADD PUSH2 0x3D9 SWAP4 SWAP3 SWAP2 SWAP1 PUSH2 0xEB2 JUMP JUMPDEST PUSH1 0x20 PUSH1 0x40 MLOAD DUP1 DUP4 SUB DUP2 DUP7 GAS STATICCALL ISZERO DUP1 ISZERO PUSH2 0x3F6 JUMPI RETURNDATASIZE PUSH1 0x0 DUP1 RETURNDATACOPY RETURNDATASIZE PUSH1 0x0 REVERT JUMPDEST POP POP POP POP PUSH1 0x40 MLOAD RETURNDATASIZE PUSH1 0x1F NOT PUSH1 0x1F DUP3 ADD AND DUP3 ADD DUP1 PUSH1 0x40 MSTORE POP DUP2 ADD SWAP1 PUSH2 0x41A SWAP2 SWAP1 PUSH2 0xE7A JUMP JUMPDEST PUSH2 0x47F JUMPI PUSH1 0x40 MLOAD PUSH3 0x461BCD PUSH1 0xE5 SHL DUP2 MSTORE PUSH1 0x20 PUSH1 0x4 DUP3 ADD MSTORE PUSH1 0x2B PUSH1 0x24 DUP3 ADD MSTORE PUSH32 0x4174746573746174696F6E56657269666965723A205369676E61747572652064 PUSH1 0x44 DUP3 ADD MSTORE PUSH11 0xDECAE6DCE840DAC2E8C6D PUSH1 0xAB SHL PUSH1 0x64 DUP3 ADD MSTORE PUSH1 0x84 ADD JUMPDEST PUSH1 0x40 MLOAD DUP1 SWAP2 SUB SWAP1 REVERT JUMPDEST PUSH2 0x489 DUP7 DUP5 PUSH2 0x766 JUMP JUMPDEST SWAP3 POP PUSH2 0x495 DUP7 DUP5 PUSH2 0x80B JUMP JUMPDEST SWAP3 POP PUSH2 0x4A1 DUP7 DUP5 PUSH2 0x80B JUMP JUMPDEST SWAP3 POP PUSH2 0x4AD DUP7 DUP5 PUSH2 0x80B JUMP JUMPDEST SWAP3 POP PUSH2 0x4B9 DUP7 DUP5 PUSH2 0x80B JUMP JUMPDEST SWAP3 POP PUSH2 0x4C5 DUP7 DUP5 PUSH2 0x766 JUMP JUMPDEST SWAP2 POP PUSH1 0x0 PUSH20 0x0 PUSH4 0x95385C6 PUSH2 0x4ED DUP10 DUP7 PUSH2 0x864 JUMP JUMPDEST PUSH1 0x40 MLOAD DUP3 PUSH4 0xFFFFFFFF AND PUSH1 0xE0 SHL DUP2 MSTORE PUSH1 0x4 ADD PUSH2 0x509 SWAP2 SWAP1 PUSH2 0xBDF JUMP JUMPDEST PUSH1 0x20 PUSH1 0x40 MLOAD DUP1 DUP4 SUB DUP2 DUP7 GAS DELEGATECALL ISZERO DUP1 ISZERO PUSH2 0x526 JUMPI RETURNDATASIZE PUSH1 0x0 DUP1 RETURNDATACOPY RETURNDATASIZE PUSH1 0x0 REVERT JUMPDEST POP POP POP POP PUSH1 0x40 MLOAD RETURNDATASIZE PUSH1 0x1F NOT PUSH1 0x1F DUP3 ADD AND DUP3 ADD DUP1 PUSH1 0x40 MSTORE POP DUP2 ADD SWAP1 PUSH2 0x54A SWAP2 SWAP1 PUSH2 0xEEB JUMP JUMPDEST SWAP1 POP TIMESTAMP DUP2 PUSH5 0xFFFFFFFFFF AND GT ISZERO PUSH2 0x5BC JUMPI PUSH1 0x40 MLOAD PUSH3 0x461BCD PUSH1 0xE5 SHL DUP2 MSTORE PUSH1 0x20 PUSH1 0x4 DUP3 ADD MSTORE PUSH1 0x30 PUSH1 0x24 DUP3 ADD MSTORE PUSH32 0x4174746573746174696F6E5665726966793A2043657274696669636174652069 PUSH1 0x44 DUP3 ADD MSTORE PUSH16 0x39903737BA103CB2BA103B30B634B217 PUSH1 0x81 SHL PUSH1 0x64 DUP3 ADD MSTORE PUSH1 0x84 ADD PUSH2 0x476 JUMP JUMPDEST PUSH2 0x5C6 DUP8 DUP5 PUSH2 0x80B JUMP JUMPDEST SWAP3 POP PUSH1 0x0 PUSH20 0x0 PUSH4 0x95385C6 PUSH2 0x5EE DUP11 DUP8 PUSH2 0x864 JUMP JUMPDEST PUSH1 0x40 MLOAD DUP3 PUSH4 0xFFFFFFFF AND PUSH1 0xE0 SHL DUP2 MSTORE PUSH1 0x4 ADD PUSH2 0x60A SWAP2 SWAP1 PUSH2 0xBDF JUMP JUMPDEST PUSH1 0x20 PUSH1 0x40 MLOAD DUP1 DUP4 SUB DUP2 DUP7 GAS DELEGATECALL ISZERO DUP1 ISZERO PUSH2 0x627 JUMPI RETURNDATASIZE PUSH1 0x0 DUP1 RETURNDATACOPY RETURNDATASIZE PUSH1 0x0 REVERT JUMPDEST POP POP POP POP PUSH1 0x40 MLOAD RETURNDATASIZE PUSH1 0x1F NOT PUSH1 0x1F DUP3 ADD AND DUP3 ADD DUP1 PUSH1 0x40 MSTORE POP DUP2 ADD SWAP1 PUSH2 0x64B SWAP2 SWAP1 PUSH2 0xEEB JUMP JUMPDEST SWAP1 POP TIMESTAMP DUP2 PUSH5 0xFFFFFFFFFF AND LT ISZERO PUSH2 0x6B4 JUMPI PUSH1 0x40 MLOAD PUSH3 0x461BCD PUSH1 0xE5 SHL DUP2 MSTORE PUSH1 0x20 PUSH1 0x4 DUP3 ADD MSTORE PUSH1 0x27 PUSH1 0x24 DUP3 ADD MSTORE PUSH32 0x4174746573746174696F6E5665726966793A2043657274696669636174652065 PUSH1 0x44 DUP3 ADD MSTORE PUSH7 0x3C3834B932B217 PUSH1 0xC9 SHL PUSH1 0x64 DUP3 ADD MSTORE PUSH1 0x84 ADD PUSH2 0x476 JUMP JUMPDEST PUSH2 0x6BE DUP9 DUP7 PUSH2 0x80B JUMP JUMPDEST SWAP5 POP PUSH2 0x6CA DUP9 DUP7 PUSH2 0x80B JUMP JUMPDEST SWAP5 POP PUSH2 0x6D6 DUP9 DUP7 PUSH2 0x829 JUMP JUMPDEST SWAP9 SWAP8 POP POP POP POP POP POP POP POP JUMP JUMPDEST PUSH1 0x2 DUP1 SLOAD PUSH2 0xF0 SWAP1 PUSH2 0xDDC JUMP JUMPDEST PUSH1 0x0 PUSH1 0x80 DUP3 LT ISZERO PUSH2 0x702 JUMPI POP PUSH1 0x0 PUSH2 0x753 JUMP JUMPDEST PUSH1 0x0 PUSH2 0x74B PUSH1 0x65 PUSH1 0x1C DUP7 DUP7 DUP1 DUP1 PUSH1 0x1F ADD PUSH1 0x20 DUP1 SWAP2 DIV MUL PUSH1 0x20 ADD PUSH1 0x40 MLOAD SWAP1 DUP2 ADD PUSH1 0x40 MSTORE DUP1 SWAP4 SWAP3 SWAP2 SWAP1 DUP2 DUP2 MSTORE PUSH1 0x20 ADD DUP4 DUP4 DUP1 DUP3 DUP5 CALLDATACOPY PUSH1 0x0 SWAP3 ADD SWAP2 SWAP1 SWAP2 MSTORE POP SWAP3 SWAP5 SWAP4 SWAP3 POP POP PUSH2 0x87D SWAP1 POP JUMP JUMPDEST PUSH1 0x0 SLOAD EQ SWAP2 POP POP JUMPDEST SWAP3 SWAP2 POP POP JUMP JUMPDEST PUSH1 0x0 PUSH2 0x753 DUP3 PUSH1 0x0 PUSH2 0x8BE JUMP JUMPDEST PUSH1 0x0 DUP3 PUSH1 0x1 PUSH1 0x1 PUSH1 0x50 SHL SUB DUP4 AND DUP2 MLOAD DUP2 LT PUSH2 0x783 JUMPI PUSH2 0x783 PUSH2 0xE9C JUMP JUMPDEST ADD PUSH1 0x20 ADD MLOAD PUSH1 0x1 PUSH1 0xFD SHL SWAP1 DUP2 AND EQ PUSH2 0x7E8 JUMPI PUSH1 0x40 MLOAD PUSH3 0x461BCD PUSH1 0xE5 SHL DUP2 MSTORE PUSH1 0x20 PUSH1 0x4 DUP3 ADD MSTORE PUSH1 0x22 PUSH1 0x24 DUP3 ADD MSTORE PUSH32 0x41736E316465636F64653A204E6F74206120636F6E7374727563746564207479 PUSH1 0x44 DUP3 ADD MSTORE PUSH2 0x7065 PUSH1 0xF0 SHL PUSH1 0x64 DUP3 ADD MSTORE PUSH1 0x84 ADD PUSH2 0x476 JUMP JUMPDEST PUSH2 0x804 DUP4 PUSH1 0x50 DUP5 SWAP1 SHR PUSH1 0x1 PUSH1 0x1 PUSH1 0x50 SHL SUB AND PUSH2 0x8BE JUMP JUMPDEST PUSH2 0x8BE JUMP JUMPDEST SWAP4 SWAP3 POP POP POP JUMP JUMPDEST PUSH1 0x0 PUSH2 0x804 DUP4 PUSH2 0x7FF PUSH1 0x1 PUSH1 0x1 PUSH1 0x50 SHL SUB PUSH1 0xA0 DUP7 SWAP1 SHR AND PUSH1 0x1 PUSH2 0xF1A JUMP JUMPDEST PUSH1 0x60 PUSH2 0x804 PUSH1 0x1 PUSH1 0x1 PUSH1 0x50 SHL SUB DUP4 AND DUP1 JUMPDEST PUSH2 0x852 PUSH1 0x1 PUSH1 0x1 PUSH1 0x50 SHL SUB PUSH1 0xA0 DUP8 SWAP1 SHR AND PUSH1 0x1 PUSH2 0xF1A JUMP JUMPDEST PUSH2 0x85C SWAP2 SWAP1 PUSH2 0xF32 JUMP JUMPDEST DUP6 SWAP2 SWAP1 PUSH2 0xA6E JUMP JUMPDEST PUSH1 0x60 PUSH2 0x804 PUSH1 0x1 PUSH1 0x1 PUSH1 0x50 SHL SUB PUSH1 0x50 DUP5 SWAP1 SHR AND DUP1 PUSH2 0x83A JUMP JUMPDEST PUSH1 0x0 PUSH1 0x20 DUP3 GT ISZERO PUSH2 0x88D JUMPI PUSH1 0x0 DUP1 REVERT JUMPDEST DUP4 MLOAD PUSH2 0x899 DUP4 DUP6 PUSH2 0xF1A JUMP JUMPDEST GT ISZERO PUSH2 0x8A4 JUMPI PUSH1 0x0 DUP1 REVERT JUMPDEST POP PUSH1 0x20 SWAP2 SWAP1 SWAP3 ADD DUP2 ADD MLOAD SWAP2 SWAP1 SUB PUSH2 0x100 EXP PUSH1 0x0 NOT ADD NOT AND SWAP1 JUMP JUMPDEST PUSH1 0x0 DUP1 DUP1 DUP1 DUP6 PUSH2 0x8CF DUP7 PUSH1 0x1 PUSH2 0xF1A JUMP JUMPDEST DUP2 MLOAD DUP2 LT PUSH2 0x8DF JUMPI PUSH2 0x8DF PUSH2 0xE9C JUMP JUMPDEST ADD PUSH1 0x20 ADD MLOAD PUSH1 0x1 PUSH1 0xFF SHL AND PUSH1 0x0 SUB PUSH2 0x94A JUMPI DUP6 PUSH2 0x8FD DUP7 PUSH1 0x1 PUSH2 0xF1A JUMP JUMPDEST DUP2 MLOAD DUP2 LT PUSH2 0x90D JUMPI PUSH2 0x90D PUSH2 0xE9C JUMP JUMPDEST ADD PUSH1 0x20 ADD MLOAD PUSH1 0xF8 SHR SWAP3 POP PUSH2 0x922 DUP6 PUSH1 0x2 PUSH2 0xF1A JUMP JUMPDEST SWAP2 POP PUSH1 0x1 PUSH2 0x939 DUP5 PUSH1 0x1 PUSH1 0x1 PUSH1 0x50 SHL SUB DUP6 AND PUSH2 0xF1A JUMP JUMPDEST PUSH2 0x943 SWAP2 SWAP1 PUSH2 0xF32 JUMP JUMPDEST SWAP1 POP PUSH2 0xA3E JUMP JUMPDEST PUSH1 0x0 DUP7 PUSH2 0x958 DUP8 PUSH1 0x1 PUSH2 0xF1A JUMP JUMPDEST DUP2 MLOAD DUP2 LT PUSH2 0x968 JUMPI PUSH2 0x968 PUSH2 0xE9C JUMP JUMPDEST PUSH1 0x20 SWAP2 ADD ADD MLOAD PUSH1 0xF8 SHR PUSH1 0x7F AND SWAP1 POP PUSH1 0x1 DUP2 SWAP1 SUB PUSH2 0x99E JUMPI PUSH2 0x994 PUSH2 0x98D DUP8 PUSH1 0x2 PUSH2 0xF1A JUMP JUMPDEST DUP9 SWAP1 PUSH2 0xAF0 JUMP JUMPDEST PUSH1 0xFF AND SWAP4 POP PUSH2 0xA00 JUMP JUMPDEST DUP1 PUSH1 0xFF AND PUSH1 0x2 SUB PUSH2 0x9C9 JUMPI PUSH2 0x9BE PUSH2 0x9B7 DUP8 PUSH1 0x2 PUSH2 0xF1A JUMP JUMPDEST DUP9 SWAP1 PUSH2 0xB14 JUMP JUMPDEST PUSH2 0xFFFF AND SWAP4 POP PUSH2 0xA00 JUMP JUMPDEST PUSH2 0x9D4 DUP2 PUSH1 0x20 PUSH2 0xF49 JUMP JUMPDEST PUSH2 0x9DF SWAP1 PUSH1 0x8 PUSH2 0xF6C JUMP JUMPDEST PUSH1 0xFF AND PUSH2 0x9FB PUSH2 0x9F0 DUP9 PUSH1 0x2 PUSH2 0xF1A JUMP JUMPDEST DUP10 SWAP1 PUSH1 0xFF DUP6 AND PUSH2 0x87D JUMP JUMPDEST SWAP1 SHR SWAP4 POP JUMPDEST PUSH1 0xFF DUP2 AND PUSH2 0xA0F DUP8 PUSH1 0x2 PUSH2 0xF1A JUMP JUMPDEST PUSH2 0xA19 SWAP2 SWAP1 PUSH2 0xF1A JUMP JUMPDEST SWAP3 POP PUSH1 0x1 PUSH2 0xA30 DUP6 PUSH1 0x1 PUSH1 0x1 PUSH1 0x50 SHL SUB DUP7 AND PUSH2 0xF1A JUMP JUMPDEST PUSH2 0xA3A SWAP2 SWAP1 PUSH2 0xF32 JUMP JUMPDEST SWAP2 POP POP JUMPDEST PUSH10 0xFFFFFFFFFFFFFFFFFFFF PUSH1 0xA0 SHL PUSH1 0xA0 DUP3 SWAP1 SHL AND PUSH10 0xFFFFFFFFFFFFFFFFFFFF PUSH1 0x50 SHL PUSH1 0x50 DUP5 SWAP1 SHL AND DUP7 OR OR PUSH2 0x2EF JUMP JUMPDEST DUP3 MLOAD PUSH1 0x60 SWAP1 PUSH2 0xA7D DUP4 DUP6 PUSH2 0xF1A JUMP JUMPDEST GT ISZERO PUSH2 0xA88 JUMPI PUSH1 0x0 DUP1 REVERT JUMPDEST PUSH1 0x0 DUP3 PUSH8 0xFFFFFFFFFFFFFFFF DUP2 GT ISZERO PUSH2 0xAA3 JUMPI PUSH2 0xAA3 PUSH2 0xCD5 JUMP JUMPDEST PUSH1 0x40 MLOAD SWAP1 DUP1 DUP3 MSTORE DUP1 PUSH1 0x1F ADD PUSH1 0x1F NOT AND PUSH1 0x20 ADD DUP3 ADD PUSH1 0x40 MSTORE DUP1 ISZERO PUSH2 0xACD JUMPI PUSH1 0x20 DUP3 ADD DUP2 DUP1 CALLDATASIZE DUP4 CALLDATACOPY ADD SWAP1 POP JUMPDEST POP SWAP1 POP PUSH1 0x20 DUP1 DUP3 ADD SWAP1 DUP7 DUP7 ADD ADD PUSH2 0xAE5 DUP3 DUP3 DUP8 PUSH2 0xB3C JUMP JUMPDEST POP SWAP1 SWAP6 SWAP5 POP POP POP POP POP JUMP JUMPDEST PUSH1 0x0 DUP3 DUP3 DUP2 MLOAD DUP2 LT PUSH2 0xB04 JUMPI PUSH2 0xB04 PUSH2 0xE9C JUMP JUMPDEST ADD PUSH1 0x20 ADD MLOAD PUSH1 0xF8 SHR SWAP1 POP SWAP3 SWAP2 POP POP JUMP JUMPDEST DUP2 MLOAD PUSH1 0x0 SWAP1 PUSH2 0xB24 DUP4 PUSH1 0x2 PUSH2 0xF1A JUMP JUMPDEST GT ISZERO PUSH2 0xB2F JUMPI PUSH1 0x0 DUP1 REVERT JUMPDEST POP ADD PUSH1 0x2 ADD MLOAD PUSH2 0xFFFF AND SWAP1 JUMP JUMPDEST PUSH1 0x20 DUP2 LT PUSH2 0xB74 JUMPI DUP2 MLOAD DUP4 MSTORE PUSH2 0xB53 PUSH1 0x20 DUP5 PUSH2 0xF1A JUMP JUMPDEST SWAP3 POP PUSH2 0xB60 PUSH1 0x20 DUP4 PUSH2 0xF1A JUMP JUMPDEST SWAP2 POP PUSH2 0xB6D PUSH1 0x20 DUP3 PUSH2 0xF32 JUMP JUMPDEST SWAP1 POP PUSH2 0xB3C JUMP JUMPDEST SWAP1 MLOAD DUP3 MLOAD PUSH1 0x20 SWAP3 SWAP1 SWAP3 SUB PUSH2 0x100 EXP PUSH1 0x0 NOT ADD DUP1 NOT SWAP1 SWAP2 AND SWAP2 AND OR SWAP1 MSTORE JUMP JUMPDEST PUSH1 0x0 DUP2 MLOAD DUP1 DUP5 MSTORE PUSH1 0x0 JUMPDEST DUP2 DUP2 LT ISZERO PUSH2 0xBB8 JUMPI PUSH1 0x20 DUP2 DUP6 ADD DUP2 ADD MLOAD DUP7 DUP4 ADD DUP3 ADD MSTORE ADD PUSH2 0xB9C JUMP JUMPDEST DUP2 DUP2 GT ISZERO PUSH2 0xBCA JUMPI PUSH1 0x0 PUSH1 0x20 DUP4 DUP8 ADD ADD MSTORE JUMPDEST POP PUSH1 0x1F ADD PUSH1 0x1F NOT AND SWAP3 SWAP1 SWAP3 ADD PUSH1 0x20 ADD SWAP3 SWAP2 POP POP JUMP JUMPDEST PUSH1 0x20 DUP2 MSTORE PUSH1 0x0 PUSH2 0x804 PUSH1 0x20 DUP4 ADD DUP5 PUSH2 0xB92 JUMP JUMPDEST PUSH1 0x0 DUP1 DUP4 PUSH1 0x1F DUP5 ADD SLT PUSH2 0xC04 JUMPI PUSH1 0x0 DUP1 REVERT JUMPDEST POP DUP2 CALLDATALOAD PUSH8 0xFFFFFFFFFFFFFFFF DUP2 GT ISZERO PUSH2 0xC1C JUMPI PUSH1 0x0 DUP1 REVERT JUMPDEST PUSH1 0x20 DUP4 ADD SWAP2 POP DUP4 PUSH1 0x20 DUP3 DUP6 ADD ADD GT ISZERO PUSH2 0xC34 JUMPI PUSH1 0x0 DUP1 REVERT JUMPDEST SWAP3 POP SWAP3 SWAP1 POP JUMP JUMPDEST PUSH1 0x0 DUP1 PUSH1 0x0 DUP1 PUSH1 0x0 DUP1 PUSH1 0x60 DUP8 DUP10 SUB SLT ISZERO PUSH2 0xC54 JUMPI PUSH1 0x0 DUP1 REVERT JUMPDEST DUP7 CALLDATALOAD PUSH8 0xFFFFFFFFFFFFFFFF DUP1 DUP3 GT ISZERO PUSH2 0xC6C JUMPI PUSH1 0x0 DUP1 REVERT JUMPDEST PUSH2 0xC78 DUP11 DUP4 DUP12 ADD PUSH2 0xBF2 JUMP JUMPDEST SWAP1 SWAP9 POP SWAP7 POP PUSH1 0x20 DUP10 ADD CALLDATALOAD SWAP2 POP DUP1 DUP3 GT ISZERO PUSH2 0xC91 JUMPI PUSH1 0x0 DUP1 REVERT JUMPDEST PUSH2 0xC9D DUP11 DUP4 DUP12 ADD PUSH2 0xBF2 JUMP JUMPDEST SWAP1 SWAP7 POP SWAP5 POP PUSH1 0x40 DUP10 ADD CALLDATALOAD SWAP2 POP DUP1 DUP3 GT ISZERO PUSH2 0xCB6 JUMPI PUSH1 0x0 DUP1 REVERT JUMPDEST POP PUSH2 0xCC3 DUP10 DUP3 DUP11 ADD PUSH2 0xBF2 JUMP JUMPDEST SWAP8 SWAP11 SWAP7 SWAP10 POP SWAP5 SWAP8 POP SWAP3 SWAP6 SWAP4 SWAP5 SWAP3 POP POP POP JUMP JUMPDEST PUSH4 0x4E487B71 PUSH1 0xE0 SHL PUSH1 0x0 MSTORE PUSH1 0x41 PUSH1 0x4 MSTORE PUSH1 0x24 PUSH1 0x0 REVERT JUMPDEST PUSH1 0x0 DUP3 PUSH1 0x1F DUP4 ADD SLT PUSH2 0xCFC JUMPI PUSH1 0x0 DUP1 REVERT JUMPDEST DUP2 CALLDATALOAD PUSH8 0xFFFFFFFFFFFFFFFF DUP1 DUP3 GT ISZERO PUSH2 0xD17 JUMPI PUSH2 0xD17 PUSH2 0xCD5 JUMP JUMPDEST PUSH1 0x40 MLOAD PUSH1 0x1F DUP4 ADD PUSH1 0x1F NOT SWAP1 DUP2 AND PUSH1 0x3F ADD AND DUP2 ADD SWAP1 DUP3 DUP3 GT DUP2 DUP4 LT OR ISZERO PUSH2 0xD3F JUMPI PUSH2 0xD3F PUSH2 0xCD5 JUMP JUMPDEST DUP2 PUSH1 0x40 MSTORE DUP4 DUP2 MSTORE DUP7 PUSH1 0x20 DUP6 DUP9 ADD ADD GT ISZERO PUSH2 0xD58 JUMPI PUSH1 0x0 DUP1 REVERT JUMPDEST DUP4 PUSH1 0x20 DUP8 ADD PUSH1 0x20 DUP4 ADD CALLDATACOPY PUSH1 0x0 PUSH1 0x20 DUP6 DUP4 ADD ADD MSTORE DUP1 SWAP5 POP POP POP POP POP SWAP3 SWAP2 POP POP JUMP JUMPDEST PUSH1 0x0 DUP1 PUSH1 0x40 DUP4 DUP6 SUB SLT ISZERO PUSH2 0xD8B JUMPI PUSH1 0x0 DUP1 REVERT JUMPDEST DUP3 CALLDATALOAD PUSH8 0xFFFFFFFFFFFFFFFF DUP1 DUP3 GT ISZERO PUSH2 0xDA3 JUMPI PUSH1 0x0 DUP1 REVERT JUMPDEST PUSH2 0xDAF DUP7 DUP4 DUP8 ADD PUSH2 0xCEB JUMP JUMPDEST SWAP4 POP PUSH1 0x20 DUP6 ADD CALLDATALOAD SWAP2 POP DUP1 DUP3 GT ISZERO PUSH2 0xDC5 JUMPI PUSH1 0x0 DUP1 REVERT JUMPDEST POP PUSH2 0xDD2 DUP6 DUP3 DUP7 ADD PUSH2 0xCEB JUMP JUMPDEST SWAP2 POP POP SWAP3 POP SWAP3 SWAP1 POP JUMP JUMPDEST PUSH1 0x1 DUP2 DUP2 SHR SWAP1 DUP3 AND DUP1 PUSH2 0xDF0 JUMPI PUSH1 0x7F DUP3 AND SWAP2 POP JUMPDEST PUSH1 0x20 DUP3 LT DUP2 SUB PUSH2 0xE10 JUMPI PUSH4 0x4E487B71 PUSH1 0xE0 SHL PUSH1 0x0 MSTORE PUSH1 0x22 PUSH1 0x4 MSTORE PUSH1 0x24 PUSH1 0x0 REVERT JUMPDEST POP SWAP2 SWAP1 POP JUMP JUMPDEST DUP2 DUP4 MSTORE DUP2 DUP2 PUSH1 0x20 DUP6 ADD CALLDATACOPY POP PUSH1 0x0 DUP3 DUP3 ADD PUSH1 0x20 SWAP1 DUP2 ADD SWAP2 SWAP1 SWAP2 MSTORE PUSH1 0x1F SWAP1 SWAP2 ADD PUSH1 0x1F NOT AND SWAP1 SWAP2 ADD ADD SWAP1 JUMP JUMPDEST PUSH1 0x60 DUP2 MSTORE PUSH1 0x0 PUSH2 0xE52 PUSH1 0x60 DUP4 ADD DUP9 PUSH2 0xB92 JUMP JUMPDEST DUP3 DUP2 SUB PUSH1 0x20 DUP5 ADD MSTORE PUSH2 0xE65 DUP2 DUP8 DUP10 PUSH2 0xE16 JUMP JUMPDEST SWAP1 POP DUP3 DUP2 SUB PUSH1 0x40 DUP5 ADD MSTORE PUSH2 0x6D6 DUP2 DUP6 DUP8 PUSH2 0xE16 JUMP JUMPDEST PUSH1 0x0 PUSH1 0x20 DUP3 DUP5 SUB SLT ISZERO PUSH2 0xE8C JUMPI PUSH1 0x0 DUP1 REVERT JUMPDEST DUP2 MLOAD DUP1 ISZERO ISZERO DUP2 EQ PUSH2 0x804 JUMPI PUSH1 0x0 DUP1 REVERT JUMPDEST PUSH4 0x4E487B71 PUSH1 0xE0 SHL PUSH1 0x0 MSTORE PUSH1 0x32 PUSH1 0x4 MSTORE PUSH1 0x24 PUSH1 0x0 REVERT JUMPDEST PUSH1 0x60 DUP2 MSTORE PUSH1 0x0 PUSH2 0xEC5 PUSH1 0x60 DUP4 ADD DUP7 PUSH2 0xB92 JUMP JUMPDEST DUP3 DUP2 SUB PUSH1 0x20 DUP5 ADD MSTORE PUSH2 0xED7 DUP2 DUP7 PUSH2 0xB92 JUMP JUMPDEST SWAP1 POP DUP3 DUP2 SUB PUSH1 0x40 DUP5 ADD MSTORE PUSH2 0x2EF DUP2 DUP6 PUSH2 0xB92 JUMP JUMPDEST PUSH1 0x0 PUSH1 0x20 DUP3 DUP5 SUB SLT ISZERO PUSH2 0xEFD JUMPI PUSH1 0x0 DUP1 REVERT JUMPDEST POP MLOAD SWAP2 SWAP1 POP JUMP JUMPDEST PUSH4 0x4E487B71 PUSH1 0xE0 SHL PUSH1 0x0 MSTORE PUSH1 0x11 PUSH1 0x4 MSTORE PUSH1 0x24 PUSH1 0x0 REVERT JUMPDEST PUSH1 0x0 DUP3 NOT DUP3 GT ISZERO PUSH2 0xF2D JUMPI PUSH2 0xF2D PUSH2 0xF04 JUMP JUMPDEST POP ADD SWAP1 JUMP JUMPDEST PUSH1 0x0 DUP3 DUP3 LT ISZERO PUSH2 0xF44 JUMPI PUSH2 0xF44 PUSH2 0xF04 JUMP JUMPDEST POP SUB SWAP1 JUMP JUMPDEST PUSH1 0x0 PUSH1 0xFF DUP3 AND PUSH1 0xFF DUP5 AND DUP1 DUP3 LT ISZERO PUSH2 0xF63 JUMPI PUSH2 0xF63 PUSH2 0xF04 JUMP JUMPDEST SWAP1 SUB SWAP4 SWAP3 POP POP POP JUMP JUMPDEST PUSH1 0x0 PUSH1 0xFF DUP3 AND PUSH1 0xFF DUP5 AND DUP2 PUSH1 0xFF DIV DUP2 GT DUP3 ISZERO ISZERO AND ISZERO PUSH2 0xF8D JUMPI PUSH2 0xF8D PUSH2 0xF04 JUMP JUMPDEST MUL SWAP4 SWAP3 POP POP POP JUMP INVALID LOG2 PUSH5 0x6970667358 0x22 SLT KECCAK256 ADD JUMPDEST PUSH26 0x16F2A09FBE5723BAB693A74231D86A6221EF87A200C822B0AE7 0xB2 ADDMOD DUP16 PUSH5 0x736F6C6343 STOP ADDMOD 0xF STOP CALLER "
		},
		"gasEstimates": {
			"creation": {
				"codeDepositCost": "808600",
				"executionCost": "infinite",
				"totalCost": "infinite"
			},
			"external": {
				"caCertPubKey()": "infinite",
				"rootCert()": "infinite",
				"sha256WithRSAEncryption()": "2359",
				"verifyAttestation(bytes,bytes,bytes)": "infinite",
				"verifyCert(bytes,bytes)": "infinite"
			},
			"internal": {
				"verifyAttBodyOk(bytes calldata)": "infinite"
			}
		},
		"methodIdentifiers": {
			"caCertPubKey()": "3553d6ee",
			"rootCert()": "7221e6fc",
			"sha256WithRSAEncryption()": "462b2653",
			"verifyAttestation(bytes,bytes,bytes)": "3e1c075a",
			"verifyCert(bytes,bytes)": "721d9bc4"
		}
	},
	"abi": [
		{
			"inputs": [
				{
					"internalType": "bytes",
					"name": "_caCertPubKey",
					"type": "bytes"
				},
				{
					"internalType": "bytes",
					"name": "_rootCert",
					"type": "bytes"
				},
				{
					"internalType": "contract Algorithm",
					"name": "_algo",
					"type": "address"
				}
			],
			"stateMutability": "nonpayable",
			"type": "constructor"
		},
		{
			"inputs": [],
			"name": "caCertPubKey",
			"outputs": [
				{
					"internalType": "bytes",
					"name": "",
					"type": "bytes"
				}
			],
			"stateMutability": "view",
			"type": "function"
		},
		{
			"inputs": [],
			"name": "rootCert",
			"outputs": [
				{
					"internalType": "bytes",
					"name": "",
					"type": "bytes"
				}
			],
			"stateMutability": "view",
			"type": "function"
		},
		{
			"inputs": [],
			"name": "sha256WithRSAEncryption",
			"outputs": [
				{
					"internalType": "contract Algorithm",
					"name": "",
					"type": "address"
				}
			],
			"stateMutability": "view",
			"type": "function"
		},
		{
			"inputs": [
				{
					"internalType": "bytes",
					"name": "attCert",
					"type": "bytes"
				},
				{
					"internalType": "bytes",
					"name": "attBody",
					"type": "bytes"
				},
				{
					"internalType": "bytes",
					"name": "attSig",
					"type": "bytes"
				}
			],
			"name": "verifyAttestation",
			"outputs": [
				{
					"internalType": "bool",
					"name": "",
					"type": "bool"
				}
			],
			"stateMutability": "view",
			"type": "function"
		},
		{
			"inputs": [
				{
					"internalType": "bytes",
					"name": "cert",
					"type": "bytes"
				},
				{
					"internalType": "bytes",
					"name": "pubKey",
					"type": "bytes"
				}
			],
			"name": "verifyCert",
			"outputs": [
				{
					"internalType": "bytes",
					"name": "certPubKey",
					"type": "bytes"
				}
			],
			"stateMutability": "view",
			"type": "function"
		}
	]
}