{
	"src/utils/RSAHSA256Algorithm.sol": {
		"RsaSha256Algorithm": {
			"abi": [
				{
					"inputs": [
						{
							"internalType": "bytes",
							"name": "key",
							"type": "bytes"
						}
					],
					"name": "extractKeyComponents",
					"outputs": [
						{
							"internalType": "bytes",
							"name": "",
							"type": "bytes"
						},
						{
							"internalType": "bytes",
							"name": "",
							"type": "bytes"
						}
					],
					"stateMutability": "pure",
					"type": "function"
				},
				{
					"inputs": [
						{
							"internalType": "bytes",
							"name": "key",
							"type": "bytes"
						},
						{
							"internalType": "bytes",
							"name": "data",
							"type": "bytes"
						},
						{
							"internalType": "bytes",
							"name": "sig",
							"type": "bytes"
						}
					],
					"name": "verify",
					"outputs": [
						{
							"internalType": "bool",
							"name": "",
							"type": "bool"
						}
					],
					"stateMutability": "view",
					"type": "function"
				}
			],
			"devdoc": {
				"kind": "dev",
				"methods": {
					"extractKeyComponents(bytes)": {
						"details": "Extracts modulus and exponent (respectively) from a DER-encoded RSA public key",
						"params": {
							"key": "A DER-encoded RSA public key"
						}
					}
				},
				"version": 1
			},
			"evm": {
				"assembly": "    /* \"src/utils/RSAHSA256Algorithm.sol\":194:1562  contract RsaSha256Algorithm is Algorithm {... */\n  mstore(0x40, 0x80)\n  callvalue\n  dup1\n  iszero\n  tag_1\n  jumpi\n  0x00\n  dup1\n  revert\ntag_1:\n  pop\n  dataSize(sub_0)\n  dup1\n  dataOffset(sub_0)\n  0x00\n  codecopy\n  0x00\n  return\nstop\n\nsub_0: assembly {\n        /* \"src/utils/RSAHSA256Algorithm.sol\":194:1562  contract RsaSha256Algorithm is Algorithm {... */\n      mstore(0x40, 0x80)\n      callvalue\n      dup1\n      iszero\n      tag_1\n      jumpi\n      0x00\n      dup1\n      revert\n    tag_1:\n      pop\n      jumpi(tag_2, lt(calldatasize, 0x04))\n      shr(0xe0, calldataload(0x00))\n      dup1\n      0xde8f50a1\n      eq\n      tag_3\n      jumpi\n      dup1\n      0xdf4e0bc3\n      eq\n      tag_4\n      jumpi\n    tag_2:\n      0x00\n      dup1\n      revert\n        /* \"src/utils/RSAHSA256Algorithm.sol\":326:687  function verify(bytes calldata key, bytes calldata data, bytes calldata sig)... */\n    tag_3:\n      tag_5\n      0x04\n      dup1\n      calldatasize\n      sub\n      dup2\n      add\n      swap1\n      tag_6\n      swap2\n      swap1\n      tag_7\n      jump\t// in\n    tag_6:\n      tag_8\n      jump\t// in\n    tag_5:\n      mload(0x40)\n      tag_9\n      swap2\n      swap1\n      tag_10\n      jump\t// in\n    tag_9:\n      mload(0x40)\n      dup1\n      swap2\n      sub\n      swap1\n      return\n        /* \"src/utils/RSAHSA256Algorithm.sol\":837:1560  function extractKeyComponents(bytes memory key)... */\n    tag_4:\n      tag_11\n      0x04\n      dup1\n      calldatasize\n      sub\n      dup2\n      add\n      swap1\n      tag_12\n      swap2\n      swap1\n      tag_13\n      jump\t// in\n    tag_12:\n      tag_14\n      jump\t// in\n    tag_11:\n      mload(0x40)\n      tag_15\n      swap3\n      swap2\n      swap1\n      tag_16\n      jump\t// in\n    tag_15:\n      mload(0x40)\n      dup1\n      swap2\n      sub\n      swap1\n      return\n        /* \"src/utils/RSAHSA256Algorithm.sol\":326:687  function verify(bytes calldata key, bytes calldata data, bytes calldata sig)... */\n    tag_8:\n        /* \"src/utils/RSAHSA256Algorithm.sol\":428:432  bool */\n      0x00\n        /* \"src/utils/RSAHSA256Algorithm.sol\":442:449  bool ok */\n      dup1\n        /* \"src/utils/RSAHSA256Algorithm.sol\":455:474  bytes memory result */\n      0x60\n        /* \"src/utils/RSAHSA256Algorithm.sol\":480:494  bytes memory m */\n      dup1\n        /* \"src/utils/RSAHSA256Algorithm.sol\":500:514  bytes memory e */\n      0x60\n        /* \"src/utils/RSAHSA256Algorithm.sol\":530:555  extractKeyComponents(key) */\n      tag_18\n        /* \"src/utils/RSAHSA256Algorithm.sol\":551:554  key */\n      dup12\n      dup12\n        /* \"src/utils/RSAHSA256Algorithm.sol\":530:555  extractKeyComponents(key) */\n      dup1\n      dup1\n      0x1f\n      add\n      0x20\n      dup1\n      swap2\n      div\n      mul\n      0x20\n      add\n      mload(0x40)\n      swap1\n      dup2\n      add\n      0x40\n      mstore\n      dup1\n      swap4\n      swap3\n      swap2\n      swap1\n      dup2\n      dup2\n      mstore\n      0x20\n      add\n      dup4\n      dup4\n      dup1\n      dup3\n      dup5\n      calldatacopy\n      0x00\n      dup2\n      dup5\n      add\n      mstore\n      not(0x1f)\n      0x1f\n      dup3\n      add\n      and\n      swap1\n      pop\n      dup1\n      dup4\n      add\n      swap3\n      pop\n      pop\n      pop\n      pop\n      pop\n      pop\n      pop\n        /* \"src/utils/RSAHSA256Algorithm.sol\":530:550  extractKeyComponents */\n      tag_14\n        /* \"src/utils/RSAHSA256Algorithm.sol\":530:555  extractKeyComponents(key) */\n      jump\t// in\n    tag_18:\n        /* \"src/utils/RSAHSA256Algorithm.sol\":521:555  (m, e) = extractKeyComponents(key) */\n      dup1\n      swap3\n      pop\n      dup2\n      swap4\n      pop\n      pop\n      pop\n        /* \"src/utils/RSAHSA256Algorithm.sol\":577:608  RSAVerify.rsarecover(m, e, sig) */\n      tag_19\n        /* \"src/utils/RSAHSA256Algorithm.sol\":598:599  m */\n      dup3\n        /* \"src/utils/RSAHSA256Algorithm.sol\":601:602  e */\n      dup3\n        /* \"src/utils/RSAHSA256Algorithm.sol\":604:607  sig */\n      dup10\n      dup10\n        /* \"src/utils/RSAHSA256Algorithm.sol\":577:608  RSAVerify.rsarecover(m, e, sig) */\n      dup1\n      dup1\n      0x1f\n      add\n      0x20\n      dup1\n      swap2\n      div\n      mul\n      0x20\n      add\n      mload(0x40)\n      swap1\n      dup2\n      add\n      0x40\n      mstore\n      dup1\n      swap4\n      swap3\n      swap2\n      swap1\n      dup2\n      dup2\n      mstore\n      0x20\n      add\n      dup4\n      dup4\n      dup1\n      dup3\n      dup5\n      calldatacopy\n      0x00\n      dup2\n      dup5\n      add\n      mstore\n      not(0x1f)\n      0x1f\n      dup3\n      add\n      and\n      swap1\n      pop\n      dup1\n      dup4\n      add\n      swap3\n      pop\n      pop\n      pop\n      pop\n      pop\n      pop\n      pop\n        /* \"src/utils/RSAHSA256Algorithm.sol\":577:597  RSAVerify.rsarecover */\n      tag_20\n        /* \"src/utils/RSAHSA256Algorithm.sol\":577:608  RSAVerify.rsarecover(m, e, sig) */\n      jump\t// in\n    tag_19:\n        /* \"src/utils/RSAHSA256Algorithm.sol\":562:608  (ok, result) = RSAVerify.rsarecover(m, e, sig) */\n      dup1\n      swap5\n      pop\n      dup2\n      swap6\n      pop\n      pop\n      pop\n        /* \"src/utils/RSAHSA256Algorithm.sol\":622:624  ok */\n      dup4\n        /* \"src/utils/RSAHSA256Algorithm.sol\":622:682  ok && sha256(data) == result.readBytes32(result.length - 32) */\n      dup1\n      iszero\n      tag_21\n      jumpi\n      pop\n        /* \"src/utils/RSAHSA256Algorithm.sol\":644:682  result.readBytes32(result.length - 32) */\n      tag_22\n        /* \"src/utils/RSAHSA256Algorithm.sol\":679:681  32 */\n      0x20\n        /* \"src/utils/RSAHSA256Algorithm.sol\":663:669  result */\n      dup5\n        /* \"src/utils/RSAHSA256Algorithm.sol\":663:676  result.length */\n      mload\n        /* \"src/utils/RSAHSA256Algorithm.sol\":663:681  result.length - 32 */\n      tag_23\n      swap2\n      swap1\n      tag_24\n      jump\t// in\n    tag_23:\n        /* \"src/utils/RSAHSA256Algorithm.sol\":644:650  result */\n      dup5\n        /* \"src/utils/RSAHSA256Algorithm.sol\":644:662  result.readBytes32 */\n      tag_25\n      swap1\n        /* \"src/utils/RSAHSA256Algorithm.sol\":644:682  result.readBytes32(result.length - 32) */\n      swap2\n      swap1\n      0xffffffff\n      and\n      jump\t// in\n    tag_22:\n        /* \"src/utils/RSAHSA256Algorithm.sol\":628:640  sha256(data) */\n      0x02\n        /* \"src/utils/RSAHSA256Algorithm.sol\":635:639  data */\n      dup11\n      dup11\n        /* \"src/utils/RSAHSA256Algorithm.sol\":628:640  sha256(data) */\n      mload(0x40)\n      tag_26\n      swap3\n      swap2\n      swap1\n      tag_27\n      jump\t// in\n    tag_26:\n      0x20\n      mload(0x40)\n      dup1\n      dup4\n      sub\n      dup2\n      dup6\n      gas\n      staticcall\n      iszero\n      dup1\n      iszero\n      tag_29\n      jumpi\n      returndatasize\n      0x00\n      dup1\n      returndatacopy\n      revert(0x00, returndatasize)\n    tag_29:\n      pop\n      pop\n      pop\n      mload(0x40)\n      returndatasize\n      not(0x1f)\n      0x1f\n      dup3\n      add\n      and\n      dup3\n      add\n      dup1\n      0x40\n      mstore\n      pop\n      dup2\n      add\n      swap1\n      tag_30\n      swap2\n      swap1\n      tag_31\n      jump\t// in\n    tag_30:\n        /* \"src/utils/RSAHSA256Algorithm.sol\":628:682  sha256(data) == result.readBytes32(result.length - 32) */\n      eq\n        /* \"src/utils/RSAHSA256Algorithm.sol\":622:682  ok && sha256(data) == result.readBytes32(result.length - 32) */\n    tag_21:\n        /* \"src/utils/RSAHSA256Algorithm.sol\":615:682  return ok && sha256(data) == result.readBytes32(result.length - 32) */\n      swap5\n      pop\n      pop\n      pop\n      pop\n      pop\n        /* \"src/utils/RSAHSA256Algorithm.sol\":326:687  function verify(bytes calldata key, bytes calldata data, bytes calldata sig)... */\n      swap7\n      swap6\n      pop\n      pop\n      pop\n      pop\n      pop\n      pop\n      jump\t// out\n        /* \"src/utils/RSAHSA256Algorithm.sol\":837:1560  function extractKeyComponents(bytes memory key)... */\n    tag_14:\n        /* \"src/utils/RSAHSA256Algorithm.sol\":908:920  bytes memory */\n      0x60\n        /* \"src/utils/RSAHSA256Algorithm.sol\":922:934  bytes memory */\n      dup1\n        /* \"src/utils/RSAHSA256Algorithm.sol\":944:955  bytes32 oid */\n      0x00\n        /* \"src/utils/RSAHSA256Algorithm.sol\":961:970  uint node */\n      dup1\n        /* \"src/utils/RSAHSA256Algorithm.sol\":976:996  bytes memory modulus */\n      0x60\n        /* \"src/utils/RSAHSA256Algorithm.sol\":1002:1023  bytes memory exponent */\n      dup1\n        /* \"src/utils/RSAHSA256Algorithm.sol\":1037:1047  key.root() */\n      tag_33\n        /* \"src/utils/RSAHSA256Algorithm.sol\":1037:1040  key */\n      dup8\n        /* \"src/utils/RSAHSA256Algorithm.sol\":1037:1045  key.root */\n      tag_34\n        /* \"src/utils/RSAHSA256Algorithm.sol\":1037:1047  key.root() */\n      jump\t// in\n    tag_33:\n        /* \"src/utils/RSAHSA256Algorithm.sol\":1030:1047  node = key.root() */\n      swap3\n      pop\n        /* \"src/utils/RSAHSA256Algorithm.sol\":1060:1082  key.firstChildOf(node) */\n      tag_35\n        /* \"src/utils/RSAHSA256Algorithm.sol\":1077:1081  node */\n      dup4\n        /* \"src/utils/RSAHSA256Algorithm.sol\":1060:1063  key */\n      dup9\n        /* \"src/utils/RSAHSA256Algorithm.sol\":1060:1076  key.firstChildOf */\n      tag_36\n      swap1\n        /* \"src/utils/RSAHSA256Algorithm.sol\":1060:1082  key.firstChildOf(node) */\n      swap2\n      swap1\n      0xffffffff\n      and\n      jump\t// in\n    tag_35:\n        /* \"src/utils/RSAHSA256Algorithm.sol\":1053:1082  node = key.firstChildOf(node) */\n      swap3\n      pop\n        /* \"src/utils/RSAHSA256Algorithm.sol\":1160:1195  key.bytesAt(key.firstChildOf(node)) */\n      tag_37\n        /* \"src/utils/RSAHSA256Algorithm.sol\":1172:1194  key.firstChildOf(node) */\n      tag_38\n        /* \"src/utils/RSAHSA256Algorithm.sol\":1189:1193  node */\n      dup5\n        /* \"src/utils/RSAHSA256Algorithm.sol\":1172:1175  key */\n      dup10\n        /* \"src/utils/RSAHSA256Algorithm.sol\":1172:1188  key.firstChildOf */\n      tag_36\n      swap1\n        /* \"src/utils/RSAHSA256Algorithm.sol\":1172:1194  key.firstChildOf(node) */\n      swap2\n      swap1\n      0xffffffff\n      and\n      jump\t// in\n    tag_38:\n        /* \"src/utils/RSAHSA256Algorithm.sol\":1160:1163  key */\n      dup9\n        /* \"src/utils/RSAHSA256Algorithm.sol\":1160:1171  key.bytesAt */\n      tag_39\n      swap1\n        /* \"src/utils/RSAHSA256Algorithm.sol\":1160:1195  key.bytesAt(key.firstChildOf(node)) */\n      swap2\n      swap1\n      0xffffffff\n      and\n      jump\t// in\n    tag_37:\n        /* \"src/utils/RSAHSA256Algorithm.sol\":1150:1196  keccak256(key.bytesAt(key.firstChildOf(node))) */\n      dup1\n      mload\n      swap1\n      0x20\n      add\n      keccak256\n        /* \"src/utils/RSAHSA256Algorithm.sol\":1144:1196  oid = keccak256(key.bytesAt(key.firstChildOf(node))) */\n      swap4\n      pop\n        /* \"src/utils/RSAHSA256Algorithm.sol\":1217:1283  0x3be606946d6f343b24d5ecdbd7e3370a5303ed54845f50f466a35f3bbeb46a45 */\n      0x3be606946d6f343b24d5ecdbd7e3370a5303ed54845f50f466a35f3bbeb46a45\n        /* \"src/utils/RSAHSA256Algorithm.sol\":1210:1283  oid == 0x3be606946d6f343b24d5ecdbd7e3370a5303ed54845f50f466a35f3bbeb46a45 */\n      0x00\n      shl\n        /* \"src/utils/RSAHSA256Algorithm.sol\":1210:1213  oid */\n      dup5\n        /* \"src/utils/RSAHSA256Algorithm.sol\":1210:1283  oid == 0x3be606946d6f343b24d5ecdbd7e3370a5303ed54845f50f466a35f3bbeb46a45 */\n      eq\n        /* \"src/utils/RSAHSA256Algorithm.sol\":1202:1299  require(oid == 0x3be606946d6f343b24d5ecdbd7e3370a5303ed54845f50f466a35f3bbeb46a45, \"Invalid key\") */\n      tag_40\n      jumpi\n      mload(0x40)\n      0x08c379a000000000000000000000000000000000000000000000000000000000\n      dup2\n      mstore\n      0x04\n      add\n      tag_41\n      swap1\n      tag_42\n      jump\t// in\n    tag_41:\n      mload(0x40)\n      dup1\n      swap2\n      sub\n      swap1\n      revert\n    tag_40:\n        /* \"src/utils/RSAHSA256Algorithm.sol\":1313:1336  key.nextSiblingOf(node) */\n      tag_43\n        /* \"src/utils/RSAHSA256Algorithm.sol\":1331:1335  node */\n      dup4\n        /* \"src/utils/RSAHSA256Algorithm.sol\":1313:1316  key */\n      dup9\n        /* \"src/utils/RSAHSA256Algorithm.sol\":1313:1330  key.nextSiblingOf */\n      tag_44\n      swap1\n        /* \"src/utils/RSAHSA256Algorithm.sol\":1313:1336  key.nextSiblingOf(node) */\n      swap2\n      swap1\n      0xffffffff\n      and\n      jump\t// in\n    tag_43:\n        /* \"src/utils/RSAHSA256Algorithm.sol\":1306:1336  node = key.nextSiblingOf(node) */\n      swap3\n      pop\n        /* \"src/utils/RSAHSA256Algorithm.sol\":1349:1376  key.rootOfBitStringAt(node) */\n      tag_45\n        /* \"src/utils/RSAHSA256Algorithm.sol\":1371:1375  node */\n      dup4\n        /* \"src/utils/RSAHSA256Algorithm.sol\":1349:1352  key */\n      dup9\n        /* \"src/utils/RSAHSA256Algorithm.sol\":1349:1370  key.rootOfBitStringAt */\n      tag_46\n      swap1\n        /* \"src/utils/RSAHSA256Algorithm.sol\":1349:1376  key.rootOfBitStringAt(node) */\n      swap2\n      swap1\n      0xffffffff\n      and\n      jump\t// in\n    tag_45:\n        /* \"src/utils/RSAHSA256Algorithm.sol\":1342:1376  node = key.rootOfBitStringAt(node) */\n      swap3\n      pop\n        /* \"src/utils/RSAHSA256Algorithm.sol\":1389:1411  key.firstChildOf(node) */\n      tag_47\n        /* \"src/utils/RSAHSA256Algorithm.sol\":1406:1410  node */\n      dup4\n        /* \"src/utils/RSAHSA256Algorithm.sol\":1389:1392  key */\n      dup9\n        /* \"src/utils/RSAHSA256Algorithm.sol\":1389:1405  key.firstChildOf */\n      tag_36\n      swap1\n        /* \"src/utils/RSAHSA256Algorithm.sol\":1389:1411  key.firstChildOf(node) */\n      swap2\n      swap1\n      0xffffffff\n      and\n      jump\t// in\n    tag_47:\n        /* \"src/utils/RSAHSA256Algorithm.sol\":1382:1411  node = key.firstChildOf(node) */\n      swap3\n      pop\n        /* \"src/utils/RSAHSA256Algorithm.sol\":1427:1448  key.uintBytesAt(node) */\n      tag_48\n        /* \"src/utils/RSAHSA256Algorithm.sol\":1443:1447  node */\n      dup4\n        /* \"src/utils/RSAHSA256Algorithm.sol\":1427:1430  key */\n      dup9\n        /* \"src/utils/RSAHSA256Algorithm.sol\":1427:1442  key.uintBytesAt */\n      tag_49\n      swap1\n        /* \"src/utils/RSAHSA256Algorithm.sol\":1427:1448  key.uintBytesAt(node) */\n      swap2\n      swap1\n      0xffffffff\n      and\n      jump\t// in\n    tag_48:\n        /* \"src/utils/RSAHSA256Algorithm.sol\":1417:1448  modulus = key.uintBytesAt(node) */\n      swap2\n      pop\n        /* \"src/utils/RSAHSA256Algorithm.sol\":1461:1484  key.nextSiblingOf(node) */\n      tag_50\n        /* \"src/utils/RSAHSA256Algorithm.sol\":1479:1483  node */\n      dup4\n        /* \"src/utils/RSAHSA256Algorithm.sol\":1461:1464  key */\n      dup9\n        /* \"src/utils/RSAHSA256Algorithm.sol\":1461:1478  key.nextSiblingOf */\n      tag_44\n      swap1\n        /* \"src/utils/RSAHSA256Algorithm.sol\":1461:1484  key.nextSiblingOf(node) */\n      swap2\n      swap1\n      0xffffffff\n      and\n      jump\t// in\n    tag_50:\n        /* \"src/utils/RSAHSA256Algorithm.sol\":1454:1484  node = key.nextSiblingOf(node) */\n      swap3\n      pop\n        /* \"src/utils/RSAHSA256Algorithm.sol\":1501:1522  key.uintBytesAt(node) */\n      tag_51\n        /* \"src/utils/RSAHSA256Algorithm.sol\":1517:1521  node */\n      dup4\n        /* \"src/utils/RSAHSA256Algorithm.sol\":1501:1504  key */\n      dup9\n        /* \"src/utils/RSAHSA256Algorithm.sol\":1501:1516  key.uintBytesAt */\n      tag_49\n      swap1\n        /* \"src/utils/RSAHSA256Algorithm.sol\":1501:1522  key.uintBytesAt(node) */\n      swap2\n      swap1\n      0xffffffff\n      and\n      jump\t// in\n    tag_51:\n        /* \"src/utils/RSAHSA256Algorithm.sol\":1490:1522  exponent = key.uintBytesAt(node) */\n      swap1\n      pop\n        /* \"src/utils/RSAHSA256Algorithm.sol\":1537:1544  modulus */\n      dup2\n        /* \"src/utils/RSAHSA256Algorithm.sol\":1546:1554  exponent */\n      dup2\n        /* \"src/utils/RSAHSA256Algorithm.sol\":1529:1555  return (modulus, exponent) */\n      swap6\n      pop\n      swap6\n      pop\n      pop\n      pop\n      pop\n      pop\n        /* \"src/utils/RSAHSA256Algorithm.sol\":837:1560  function extractKeyComponents(bytes memory key)... */\n      swap2\n      pop\n      swap2\n      jump\t// out\n        /* \"src/utils/RSAVerify.sol\":444:641  function rsarecover(... */\n    tag_20:\n        /* \"src/utils/RSAVerify.sol\":565:569  bool */\n      0x00\n        /* \"src/utils/RSAVerify.sol\":571:583  bytes memory */\n      0x60\n        /* \"src/utils/RSAVerify.sol\":602:634  ModexpPrecompile.modexp(S, E, N) */\n      tag_53\n        /* \"src/utils/RSAVerify.sol\":626:627  S */\n      dup4\n        /* \"src/utils/RSAVerify.sol\":629:630  E */\n      dup6\n        /* \"src/utils/RSAVerify.sol\":632:633  N */\n      dup8\n        /* \"src/utils/RSAVerify.sol\":602:625  ModexpPrecompile.modexp */\n      tag_54\n        /* \"src/utils/RSAVerify.sol\":602:634  ModexpPrecompile.modexp(S, E, N) */\n      jump\t// in\n    tag_53:\n        /* \"src/utils/RSAVerify.sol\":595:634  return ModexpPrecompile.modexp(S, E, N) */\n      swap2\n      pop\n      swap2\n      pop\n        /* \"src/utils/RSAVerify.sol\":444:641  function rsarecover(... */\n      swap4\n      pop\n      swap4\n      swap2\n      pop\n      pop\n      jump\t// out\n        /* \"src/utils/BytesUtils.sol\":7199:7444  function readBytes32(bytes memory self, uint256 idx)... */\n    tag_25:\n        /* \"src/utils/BytesUtils.sol\":7299:7310  bytes32 ret */\n      0x00\n        /* \"src/utils/BytesUtils.sol\":7346:7350  self */\n      dup3\n        /* \"src/utils/BytesUtils.sol\":7346:7357  self.length */\n      mload\n        /* \"src/utils/BytesUtils.sol\":7340:7342  32 */\n      0x20\n        /* \"src/utils/BytesUtils.sol\":7334:7337  idx */\n      dup4\n        /* \"src/utils/BytesUtils.sol\":7334:7342  idx + 32 */\n      tag_56\n      swap2\n      swap1\n      tag_57\n      jump\t// in\n    tag_56:\n        /* \"src/utils/BytesUtils.sol\":7334:7357  idx + 32 <= self.length */\n      gt\n      iszero\n        /* \"src/utils/BytesUtils.sol\":7326:7358  require(idx + 32 <= self.length) */\n      tag_58\n      jumpi\n      0x00\n      dup1\n      revert\n    tag_58:\n        /* \"src/utils/BytesUtils.sol\":7423:7426  idx */\n      dup2\n        /* \"src/utils/BytesUtils.sol\":7418:7420  32 */\n      0x20\n        /* \"src/utils/BytesUtils.sol\":7412:7416  self */\n      dup5\n        /* \"src/utils/BytesUtils.sol\":7408:7421  add(self, 32) */\n      add\n        /* \"src/utils/BytesUtils.sol\":7404:7427  add(add(self, 32), idx) */\n      add\n        /* \"src/utils/BytesUtils.sol\":7398:7428  mload(add(add(self, 32), idx)) */\n      mload\n        /* \"src/utils/BytesUtils.sol\":7391:7428  ret := mload(add(add(self, 32), idx)) */\n      swap1\n      pop\n        /* \"src/utils/BytesUtils.sol\":7199:7444  function readBytes32(bytes memory self, uint256 idx)... */\n      swap3\n      swap2\n      pop\n      pop\n      jump\t// out\n        /* \"src/utils/Asn1Decode.sol\":965:1065  function root(bytes memory der) internal pure returns (uint) {... */\n    tag_34:\n        /* \"src/utils/Asn1Decode.sol\":1020:1024  uint */\n      0x00\n        /* \"src/utils/Asn1Decode.sol\":1038:1060  readNodeLength(der, 0) */\n      tag_60\n        /* \"src/utils/Asn1Decode.sol\":1053:1056  der */\n      dup3\n        /* \"src/utils/Asn1Decode.sol\":1058:1059  0 */\n      0x00\n        /* \"src/utils/Asn1Decode.sol\":1038:1052  readNodeLength */\n      tag_61\n        /* \"src/utils/Asn1Decode.sol\":1038:1060  readNodeLength(der, 0) */\n      jump\t// in\n    tag_60:\n        /* \"src/utils/Asn1Decode.sol\":1031:1060  return readNodeLength(der, 0) */\n      swap1\n      pop\n        /* \"src/utils/Asn1Decode.sol\":965:1065  function root(bytes memory der) internal pure returns (uint) {... */\n      swap2\n      swap1\n      pop\n      jump\t// out\n        /* \"src/utils/Asn1Decode.sol\":2391:2598  function firstChildOf(bytes memory der, uint ptr) internal pure returns (uint) {... */\n    tag_36:\n        /* \"src/utils/Asn1Decode.sol\":2464:2468  uint */\n      0x00\n        /* \"src/utils/Asn1Decode.sol\":2508:2512  0x20 */\n      0x20\n        /* \"src/utils/Asn1Decode.sol\":2483:2512  der[ptr.ixs()] & 0x20 == 0x20 */\n      0xf8\n      shl\n        /* \"src/utils/Asn1Decode.sol\":2500:2504  0x20 */\n      0x20\n        /* \"src/utils/Asn1Decode.sol\":2483:2504  der[ptr.ixs()] & 0x20 */\n      0xf8\n      shl\n        /* \"src/utils/Asn1Decode.sol\":2483:2486  der */\n      dup5\n        /* \"src/utils/Asn1Decode.sol\":2487:2496  ptr.ixs() */\n      tag_63\n        /* \"src/utils/Asn1Decode.sol\":2487:2490  ptr */\n      dup6\n        /* \"src/utils/Asn1Decode.sol\":2487:2494  ptr.ixs */\n      tag_64\n        /* \"src/utils/Asn1Decode.sol\":2487:2496  ptr.ixs() */\n      jump\t// in\n    tag_63:\n        /* \"src/utils/Asn1Decode.sol\":2483:2497  der[ptr.ixs()] */\n      dup2\n      mload\n      dup2\n      lt\n      tag_65\n      jumpi\n      tag_66\n      tag_67\n      jump\t// in\n    tag_66:\n    tag_65:\n      0x20\n      add\n      add\n      mload\n      0xf8\n      shr\n      0xf8\n      shl\n        /* \"src/utils/Asn1Decode.sol\":2483:2504  der[ptr.ixs()] & 0x20 */\n      and\n        /* \"src/utils/Asn1Decode.sol\":2483:2512  der[ptr.ixs()] & 0x20 == 0x20 */\n      not(0xffffffffffffffffffffffffffffffffffffffffffffffffffffffffffffff)\n      and\n      eq\n        /* \"src/utils/Asn1Decode.sol\":2475:2551  require(der[ptr.ixs()] & 0x20 == 0x20, \"Asn1decode: Not a constructed type\") */\n      tag_68\n      jumpi\n      mload(0x40)\n      0x08c379a000000000000000000000000000000000000000000000000000000000\n      dup2\n      mstore\n      0x04\n      add\n      tag_69\n      swap1\n      tag_70\n      jump\t// in\n    tag_69:\n      mload(0x40)\n      dup1\n      swap2\n      sub\n      swap1\n      revert\n    tag_68:\n        /* \"src/utils/Asn1Decode.sol\":2563:2593  readNodeLength(der, ptr.ixf()) */\n      tag_71\n        /* \"src/utils/Asn1Decode.sol\":2578:2581  der */\n      dup4\n        /* \"src/utils/Asn1Decode.sol\":2583:2592  ptr.ixf() */\n      tag_72\n        /* \"src/utils/Asn1Decode.sol\":2583:2586  ptr */\n      dup5\n        /* \"src/utils/Asn1Decode.sol\":2583:2590  ptr.ixf */\n      tag_73\n        /* \"src/utils/Asn1Decode.sol\":2583:2592  ptr.ixf() */\n      jump\t// in\n    tag_72:\n        /* \"src/utils/Asn1Decode.sol\":2563:2577  readNodeLength */\n      tag_61\n        /* \"src/utils/Asn1Decode.sol\":2563:2593  readNodeLength(der, ptr.ixf()) */\n      jump\t// in\n    tag_71:\n        /* \"src/utils/Asn1Decode.sol\":2556:2593  return readNodeLength(der, ptr.ixf()) */\n      swap1\n      pop\n        /* \"src/utils/Asn1Decode.sol\":2391:2598  function firstChildOf(bytes memory der, uint ptr) internal pure returns (uint) {... */\n      swap3\n      swap2\n      pop\n      pop\n      jump\t// out\n        /* \"src/utils/Asn1Decode.sol\":3255:3404  function bytesAt(bytes memory der, uint ptr) internal pure returns (bytes memory) {... */\n    tag_39:\n        /* \"src/utils/Asn1Decode.sol\":3323:3335  bytes memory */\n      0x60\n        /* \"src/utils/Asn1Decode.sol\":3350:3399  der.substring(ptr.ixf(), ptr.ixl()+1 - ptr.ixf()) */\n      tag_75\n        /* \"src/utils/Asn1Decode.sol\":3364:3373  ptr.ixf() */\n      tag_76\n        /* \"src/utils/Asn1Decode.sol\":3364:3367  ptr */\n      dup4\n        /* \"src/utils/Asn1Decode.sol\":3364:3371  ptr.ixf */\n      tag_73\n        /* \"src/utils/Asn1Decode.sol\":3364:3373  ptr.ixf() */\n      jump\t// in\n    tag_76:\n        /* \"src/utils/Asn1Decode.sol\":3389:3398  ptr.ixf() */\n      tag_77\n        /* \"src/utils/Asn1Decode.sol\":3389:3392  ptr */\n      dup5\n        /* \"src/utils/Asn1Decode.sol\":3389:3396  ptr.ixf */\n      tag_73\n        /* \"src/utils/Asn1Decode.sol\":3389:3398  ptr.ixf() */\n      jump\t// in\n    tag_77:\n        /* \"src/utils/Asn1Decode.sol\":3385:3386  1 */\n      0x01\n        /* \"src/utils/Asn1Decode.sol\":3375:3384  ptr.ixl() */\n      tag_78\n        /* \"src/utils/Asn1Decode.sol\":3375:3378  ptr */\n      dup7\n        /* \"src/utils/Asn1Decode.sol\":3375:3382  ptr.ixl */\n      tag_79\n        /* \"src/utils/Asn1Decode.sol\":3375:3384  ptr.ixl() */\n      jump\t// in\n    tag_78:\n        /* \"src/utils/Asn1Decode.sol\":3375:3386  ptr.ixl()+1 */\n      tag_80\n      swap2\n      swap1\n      tag_57\n      jump\t// in\n    tag_80:\n        /* \"src/utils/Asn1Decode.sol\":3375:3398  ptr.ixl()+1 - ptr.ixf() */\n      tag_81\n      swap2\n      swap1\n      tag_24\n      jump\t// in\n    tag_81:\n        /* \"src/utils/Asn1Decode.sol\":3350:3353  der */\n      dup6\n        /* \"src/utils/Asn1Decode.sol\":3350:3363  der.substring */\n      tag_82\n      swap1\n        /* \"src/utils/Asn1Decode.sol\":3350:3399  der.substring(ptr.ixf(), ptr.ixl()+1 - ptr.ixf()) */\n      swap3\n      swap2\n      swap1\n      0xffffffff\n      and\n      jump\t// in\n    tag_75:\n        /* \"src/utils/Asn1Decode.sol\":3343:3399  return der.substring(ptr.ixf(), ptr.ixl()+1 - ptr.ixf()) */\n      swap1\n      pop\n        /* \"src/utils/Asn1Decode.sol\":3255:3404  function bytesAt(bytes memory der, uint ptr) internal pure returns (bytes memory) {... */\n      swap3\n      swap2\n      pop\n      pop\n      jump\t// out\n        /* \"src/utils/Asn1Decode.sol\":2040:2169  function nextSiblingOf(bytes memory der, uint ptr) internal pure returns (uint) {... */\n    tag_44:\n        /* \"src/utils/Asn1Decode.sol\":2114:2118  uint */\n      0x00\n        /* \"src/utils/Asn1Decode.sol\":2132:2164  readNodeLength(der, ptr.ixl()+1) */\n      tag_84\n        /* \"src/utils/Asn1Decode.sol\":2147:2150  der */\n      dup4\n        /* \"src/utils/Asn1Decode.sol\":2162:2163  1 */\n      0x01\n        /* \"src/utils/Asn1Decode.sol\":2152:2161  ptr.ixl() */\n      tag_85\n        /* \"src/utils/Asn1Decode.sol\":2152:2155  ptr */\n      dup6\n        /* \"src/utils/Asn1Decode.sol\":2152:2159  ptr.ixl */\n      tag_79\n        /* \"src/utils/Asn1Decode.sol\":2152:2161  ptr.ixl() */\n      jump\t// in\n    tag_85:\n        /* \"src/utils/Asn1Decode.sol\":2152:2163  ptr.ixl()+1 */\n      tag_86\n      swap2\n      swap1\n      tag_57\n      jump\t// in\n    tag_86:\n        /* \"src/utils/Asn1Decode.sol\":2132:2146  readNodeLength */\n      tag_61\n        /* \"src/utils/Asn1Decode.sol\":2132:2164  readNodeLength(der, ptr.ixl()+1) */\n      jump\t// in\n    tag_84:\n        /* \"src/utils/Asn1Decode.sol\":2125:2164  return readNodeLength(der, ptr.ixl()+1) */\n      swap1\n      pop\n        /* \"src/utils/Asn1Decode.sol\":2040:2169  function nextSiblingOf(bytes memory der, uint ptr) internal pure returns (uint) {... */\n      swap3\n      swap2\n      pop\n      pop\n      jump\t// out\n        /* \"src/utils/Asn1Decode.sol\":1254:1448  function rootOfBitStringAt(bytes memory der, uint ptr) internal pure returns (uint) {... */\n    tag_46:\n        /* \"src/utils/Asn1Decode.sol\":1332:1336  uint */\n      0x00\n        /* \"src/utils/Asn1Decode.sol\":1370:1374  0x03 */\n      0x03\n        /* \"src/utils/Asn1Decode.sol\":1352:1374  der[ptr.ixs()] == 0x03 */\n      0xf8\n      shl\n        /* \"src/utils/Asn1Decode.sol\":1352:1355  der */\n      dup4\n        /* \"src/utils/Asn1Decode.sol\":1356:1365  ptr.ixs() */\n      tag_88\n        /* \"src/utils/Asn1Decode.sol\":1356:1359  ptr */\n      dup5\n        /* \"src/utils/Asn1Decode.sol\":1356:1363  ptr.ixs */\n      tag_64\n        /* \"src/utils/Asn1Decode.sol\":1356:1365  ptr.ixs() */\n      jump\t// in\n    tag_88:\n        /* \"src/utils/Asn1Decode.sol\":1352:1366  der[ptr.ixs()] */\n      dup2\n      mload\n      dup2\n      lt\n      tag_89\n      jumpi\n      tag_90\n      tag_67\n      jump\t// in\n    tag_90:\n    tag_89:\n      0x20\n      add\n      add\n      mload\n      0xf8\n      shr\n      0xf8\n      shl\n        /* \"src/utils/Asn1Decode.sol\":1352:1374  der[ptr.ixs()] == 0x03 */\n      not(0xffffffffffffffffffffffffffffffffffffffffffffffffffffffffffffff)\n      and\n      eq\n        /* \"src/utils/Asn1Decode.sol\":1344:1398  require(der[ptr.ixs()] == 0x03, \"Not type BIT STRING\") */\n      tag_91\n      jumpi\n      mload(0x40)\n      0x08c379a000000000000000000000000000000000000000000000000000000000\n      dup2\n      mstore\n      0x04\n      add\n      tag_92\n      swap1\n      tag_93\n      jump\t// in\n    tag_92:\n      mload(0x40)\n      dup1\n      swap2\n      sub\n      swap1\n      revert\n    tag_91:\n        /* \"src/utils/Asn1Decode.sol\":1411:1443  readNodeLength(der, ptr.ixf()+1) */\n      tag_94\n        /* \"src/utils/Asn1Decode.sol\":1426:1429  der */\n      dup4\n        /* \"src/utils/Asn1Decode.sol\":1441:1442  1 */\n      0x01\n        /* \"src/utils/Asn1Decode.sol\":1431:1440  ptr.ixf() */\n      tag_95\n        /* \"src/utils/Asn1Decode.sol\":1431:1434  ptr */\n      dup6\n        /* \"src/utils/Asn1Decode.sol\":1431:1438  ptr.ixf */\n      tag_73\n        /* \"src/utils/Asn1Decode.sol\":1431:1440  ptr.ixf() */\n      jump\t// in\n    tag_95:\n        /* \"src/utils/Asn1Decode.sol\":1431:1442  ptr.ixf()+1 */\n      tag_96\n      swap2\n      swap1\n      tag_57\n      jump\t// in\n    tag_96:\n        /* \"src/utils/Asn1Decode.sol\":1411:1425  readNodeLength */\n      tag_61\n        /* \"src/utils/Asn1Decode.sol\":1411:1443  readNodeLength(der, ptr.ixf()+1) */\n      jump\t// in\n    tag_94:\n        /* \"src/utils/Asn1Decode.sol\":1404:1443  return readNodeLength(der, ptr.ixf()+1) */\n      swap1\n      pop\n        /* \"src/utils/Asn1Decode.sol\":1254:1448  function rootOfBitStringAt(bytes memory der, uint ptr) internal pure returns (uint) {... */\n      swap3\n      swap2\n      pop\n      pop\n      jump\t// out\n        /* \"src/utils/Asn1Decode.sol\":4890:5289  function uintBytesAt(bytes memory der, uint ptr) internal pure returns (bytes memory) {... */\n    tag_49:\n        /* \"src/utils/Asn1Decode.sol\":4962:4974  bytes memory */\n      0x60\n        /* \"src/utils/Asn1Decode.sol\":5008:5012  0x02 */\n      0x02\n        /* \"src/utils/Asn1Decode.sol\":4990:5012  der[ptr.ixs()] == 0x02 */\n      0xf8\n      shl\n        /* \"src/utils/Asn1Decode.sol\":4990:4993  der */\n      dup4\n        /* \"src/utils/Asn1Decode.sol\":4994:5003  ptr.ixs() */\n      tag_98\n        /* \"src/utils/Asn1Decode.sol\":4994:4997  ptr */\n      dup5\n        /* \"src/utils/Asn1Decode.sol\":4994:5001  ptr.ixs */\n      tag_64\n        /* \"src/utils/Asn1Decode.sol\":4994:5003  ptr.ixs() */\n      jump\t// in\n    tag_98:\n        /* \"src/utils/Asn1Decode.sol\":4990:5004  der[ptr.ixs()] */\n      dup2\n      mload\n      dup2\n      lt\n      tag_99\n      jumpi\n      tag_100\n      tag_67\n      jump\t// in\n    tag_100:\n    tag_99:\n      0x20\n      add\n      add\n      mload\n      0xf8\n      shr\n      0xf8\n      shl\n        /* \"src/utils/Asn1Decode.sol\":4990:5012  der[ptr.ixs()] == 0x02 */\n      not(0xffffffffffffffffffffffffffffffffffffffffffffffffffffffffffffff)\n      and\n      eq\n        /* \"src/utils/Asn1Decode.sol\":4982:5033  require(der[ptr.ixs()] == 0x02, \"Not type INTEGER\") */\n      tag_101\n      jumpi\n      mload(0x40)\n      0x08c379a000000000000000000000000000000000000000000000000000000000\n      dup2\n      mstore\n      0x04\n      add\n      tag_102\n      swap1\n      tag_103\n      jump\t// in\n    tag_102:\n      mload(0x40)\n      dup1\n      swap2\n      sub\n      swap1\n      revert\n    tag_101:\n        /* \"src/utils/Asn1Decode.sol\":5072:5073  0 */\n      0x00\n        /* \"src/utils/Asn1Decode.sol\":5047:5073  der[ptr.ixf()] & 0x80 == 0 */\n      0xf8\n      shl\n        /* \"src/utils/Asn1Decode.sol\":5064:5068  0x80 */\n      0x80\n        /* \"src/utils/Asn1Decode.sol\":5047:5068  der[ptr.ixf()] & 0x80 */\n      0xf8\n      shl\n        /* \"src/utils/Asn1Decode.sol\":5047:5050  der */\n      dup5\n        /* \"src/utils/Asn1Decode.sol\":5051:5060  ptr.ixf() */\n      tag_104\n        /* \"src/utils/Asn1Decode.sol\":5051:5054  ptr */\n      dup6\n        /* \"src/utils/Asn1Decode.sol\":5051:5058  ptr.ixf */\n      tag_73\n        /* \"src/utils/Asn1Decode.sol\":5051:5060  ptr.ixf() */\n      jump\t// in\n    tag_104:\n        /* \"src/utils/Asn1Decode.sol\":5047:5061  der[ptr.ixf()] */\n      dup2\n      mload\n      dup2\n      lt\n      tag_105\n      jumpi\n      tag_106\n      tag_67\n      jump\t// in\n    tag_106:\n    tag_105:\n      0x20\n      add\n      add\n      mload\n      0xf8\n      shr\n      0xf8\n      shl\n        /* \"src/utils/Asn1Decode.sol\":5047:5068  der[ptr.ixf()] & 0x80 */\n      and\n        /* \"src/utils/Asn1Decode.sol\":5047:5073  der[ptr.ixf()] & 0x80 == 0 */\n      not(0xffffffffffffffffffffffffffffffffffffffffffffffffffffffffffffff)\n      and\n      eq\n        /* \"src/utils/Asn1Decode.sol\":5039:5090  require(der[ptr.ixf()] & 0x80 == 0, \"Not positive\") */\n      tag_107\n      jumpi\n      mload(0x40)\n      0x08c379a000000000000000000000000000000000000000000000000000000000\n      dup2\n      mstore\n      0x04\n      add\n      tag_108\n      swap1\n      tag_109\n      jump\t// in\n    tag_108:\n      mload(0x40)\n      dup1\n      swap2\n      sub\n      swap1\n      revert\n    tag_107:\n        /* \"src/utils/Asn1Decode.sol\":5096:5112  uint valueLength */\n      0x00\n        /* \"src/utils/Asn1Decode.sol\":5129:5138  ptr.ixf() */\n      tag_110\n        /* \"src/utils/Asn1Decode.sol\":5129:5132  ptr */\n      dup4\n        /* \"src/utils/Asn1Decode.sol\":5129:5136  ptr.ixf */\n      tag_73\n        /* \"src/utils/Asn1Decode.sol\":5129:5138  ptr.ixf() */\n      jump\t// in\n    tag_110:\n        /* \"src/utils/Asn1Decode.sol\":5125:5126  1 */\n      0x01\n        /* \"src/utils/Asn1Decode.sol\":5115:5124  ptr.ixl() */\n      tag_111\n        /* \"src/utils/Asn1Decode.sol\":5115:5118  ptr */\n      dup6\n        /* \"src/utils/Asn1Decode.sol\":5115:5122  ptr.ixl */\n      tag_79\n        /* \"src/utils/Asn1Decode.sol\":5115:5124  ptr.ixl() */\n      jump\t// in\n    tag_111:\n        /* \"src/utils/Asn1Decode.sol\":5115:5126  ptr.ixl()+1 */\n      tag_112\n      swap2\n      swap1\n      tag_57\n      jump\t// in\n    tag_112:\n        /* \"src/utils/Asn1Decode.sol\":5115:5138  ptr.ixl()+1 - ptr.ixf() */\n      tag_113\n      swap2\n      swap1\n      tag_24\n      jump\t// in\n    tag_113:\n        /* \"src/utils/Asn1Decode.sol\":5096:5138  uint valueLength = ptr.ixl()+1 - ptr.ixf() */\n      swap1\n      pop\n        /* \"src/utils/Asn1Decode.sol\":5166:5167  0 */\n      0x00\n        /* \"src/utils/Asn1Decode.sol\":5148:5167  der[ptr.ixf()] == 0 */\n      0xf8\n      shl\n        /* \"src/utils/Asn1Decode.sol\":5148:5151  der */\n      dup5\n        /* \"src/utils/Asn1Decode.sol\":5152:5161  ptr.ixf() */\n      tag_114\n        /* \"src/utils/Asn1Decode.sol\":5152:5155  ptr */\n      dup6\n        /* \"src/utils/Asn1Decode.sol\":5152:5159  ptr.ixf */\n      tag_73\n        /* \"src/utils/Asn1Decode.sol\":5152:5161  ptr.ixf() */\n      jump\t// in\n    tag_114:\n        /* \"src/utils/Asn1Decode.sol\":5148:5162  der[ptr.ixf()] */\n      dup2\n      mload\n      dup2\n      lt\n      tag_115\n      jumpi\n      tag_116\n      tag_67\n      jump\t// in\n    tag_116:\n    tag_115:\n      0x20\n      add\n      add\n      mload\n      0xf8\n      shr\n      0xf8\n      shl\n        /* \"src/utils/Asn1Decode.sol\":5148:5167  der[ptr.ixf()] == 0 */\n      not(0xffffffffffffffffffffffffffffffffffffffffffffffffffffffffffffff)\n      and\n      sub\n        /* \"src/utils/Asn1Decode.sol\":5144:5284  if (der[ptr.ixf()] == 0)... */\n      tag_117\n      jumpi\n        /* \"src/utils/Asn1Decode.sol\":5182:5223  der.substring(ptr.ixf()+1, valueLength-1) */\n      tag_118\n        /* \"src/utils/Asn1Decode.sol\":5206:5207  1 */\n      0x01\n        /* \"src/utils/Asn1Decode.sol\":5196:5205  ptr.ixf() */\n      tag_119\n        /* \"src/utils/Asn1Decode.sol\":5196:5199  ptr */\n      dup6\n        /* \"src/utils/Asn1Decode.sol\":5196:5203  ptr.ixf */\n      tag_73\n        /* \"src/utils/Asn1Decode.sol\":5196:5205  ptr.ixf() */\n      jump\t// in\n    tag_119:\n        /* \"src/utils/Asn1Decode.sol\":5196:5207  ptr.ixf()+1 */\n      tag_120\n      swap2\n      swap1\n      tag_57\n      jump\t// in\n    tag_120:\n        /* \"src/utils/Asn1Decode.sol\":5221:5222  1 */\n      0x01\n        /* \"src/utils/Asn1Decode.sol\":5209:5220  valueLength */\n      dup4\n        /* \"src/utils/Asn1Decode.sol\":5209:5222  valueLength-1 */\n      tag_121\n      swap2\n      swap1\n      tag_24\n      jump\t// in\n    tag_121:\n        /* \"src/utils/Asn1Decode.sol\":5182:5185  der */\n      dup7\n        /* \"src/utils/Asn1Decode.sol\":5182:5195  der.substring */\n      tag_82\n      swap1\n        /* \"src/utils/Asn1Decode.sol\":5182:5223  der.substring(ptr.ixf()+1, valueLength-1) */\n      swap3\n      swap2\n      swap1\n      0xffffffff\n      and\n      jump\t// in\n    tag_118:\n        /* \"src/utils/Asn1Decode.sol\":5175:5223  return der.substring(ptr.ixf()+1, valueLength-1) */\n      swap2\n      pop\n      pop\n      jump(tag_97)\n        /* \"src/utils/Asn1Decode.sol\":5144:5284  if (der[ptr.ixf()] == 0)... */\n    tag_117:\n        /* \"src/utils/Asn1Decode.sol\":5247:5284  der.substring(ptr.ixf(), valueLength) */\n      tag_123\n        /* \"src/utils/Asn1Decode.sol\":5261:5270  ptr.ixf() */\n      tag_124\n        /* \"src/utils/Asn1Decode.sol\":5261:5264  ptr */\n      dup5\n        /* \"src/utils/Asn1Decode.sol\":5261:5268  ptr.ixf */\n      tag_73\n        /* \"src/utils/Asn1Decode.sol\":5261:5270  ptr.ixf() */\n      jump\t// in\n    tag_124:\n        /* \"src/utils/Asn1Decode.sol\":5272:5283  valueLength */\n      dup3\n        /* \"src/utils/Asn1Decode.sol\":5247:5250  der */\n      dup7\n        /* \"src/utils/Asn1Decode.sol\":5247:5260  der.substring */\n      tag_82\n      swap1\n        /* \"src/utils/Asn1Decode.sol\":5247:5284  der.substring(ptr.ixf(), valueLength) */\n      swap3\n      swap2\n      swap1\n      0xffffffff\n      and\n      jump\t// in\n    tag_123:\n        /* \"src/utils/Asn1Decode.sol\":5240:5284  return der.substring(ptr.ixf(), valueLength) */\n      swap2\n      pop\n      pop\n        /* \"src/utils/Asn1Decode.sol\":4890:5289  function uintBytesAt(bytes memory der, uint ptr) internal pure returns (bytes memory) {... */\n    tag_97:\n      swap3\n      swap2\n      pop\n      pop\n      jump\t// out\n        /* \"src/utils/ModexpPrecompile.sol\":201:895  function modexp(... */\n    tag_54:\n        /* \"src/utils/ModexpPrecompile.sol\":334:346  bool success */\n      0x00\n        /* \"src/utils/ModexpPrecompile.sol\":348:367  bytes memory output */\n      0x60\n        /* \"src/utils/ModexpPrecompile.sol\":379:397  bytes memory input */\n      0x00\n        /* \"src/utils/ModexpPrecompile.sol\":438:442  base */\n      dup6\n        /* \"src/utils/ModexpPrecompile.sol\":438:449  base.length */\n      mload\n        /* \"src/utils/ModexpPrecompile.sol\":472:480  exponent */\n      dup6\n        /* \"src/utils/ModexpPrecompile.sol\":472:487  exponent.length */\n      mload\n        /* \"src/utils/ModexpPrecompile.sol\":510:517  modulus */\n      dup6\n        /* \"src/utils/ModexpPrecompile.sol\":510:524  modulus.length */\n      mload\n        /* \"src/utils/ModexpPrecompile.sol\":539:543  base */\n      dup9\n        /* \"src/utils/ModexpPrecompile.sol\":557:565  exponent */\n      dup9\n        /* \"src/utils/ModexpPrecompile.sol\":579:586  modulus */\n      dup9\n        /* \"src/utils/ModexpPrecompile.sol\":400:596  abi.encodePacked(... */\n      add(0x20, mload(0x40))\n      tag_126\n      swap7\n      swap6\n      swap5\n      swap4\n      swap3\n      swap2\n      swap1\n      tag_127\n      jump\t// in\n    tag_126:\n      mload(0x40)\n      0x20\n      dup2\n      dup4\n      sub\n      sub\n      dup2\n      mstore\n      swap1\n      0x40\n      mstore\n        /* \"src/utils/ModexpPrecompile.sol\":379:596  bytes memory input = abi.encodePacked(... */\n      swap1\n      pop\n        /* \"src/utils/ModexpPrecompile.sol\":626:633  modulus */\n      dup4\n        /* \"src/utils/ModexpPrecompile.sol\":626:640  modulus.length */\n      mload\n        /* \"src/utils/ModexpPrecompile.sol\":616:641  new bytes(modulus.length) */\n      0xffffffffffffffff\n      dup2\n      gt\n      iszero\n      tag_128\n      jumpi\n      tag_129\n      tag_130\n      jump\t// in\n    tag_129:\n    tag_128:\n      mload(0x40)\n      swap1\n      dup1\n      dup3\n      mstore\n      dup1\n      0x1f\n      add\n      not(0x1f)\n      and\n      0x20\n      add\n      dup3\n      add\n      0x40\n      mstore\n      dup1\n      iszero\n      tag_131\n      jumpi\n      dup2\n      0x20\n      add\n      0x01\n      dup3\n      mul\n      dup1\n      calldatasize\n      dup4\n      calldatacopy\n      dup1\n      dup3\n      add\n      swap2\n      pop\n      pop\n      swap1\n      pop\n    tag_131:\n      pop\n        /* \"src/utils/ModexpPrecompile.sol\":607:641  output = new bytes(modulus.length) */\n      swap2\n      pop\n        /* \"src/utils/ModexpPrecompile.sol\":857:864  modulus */\n      dup4\n        /* \"src/utils/ModexpPrecompile.sol\":851:865  mload(modulus) */\n      mload\n        /* \"src/utils/ModexpPrecompile.sol\":830:832  32 */\n      0x20\n        /* \"src/utils/ModexpPrecompile.sol\":822:828  output */\n      dup4\n        /* \"src/utils/ModexpPrecompile.sol\":818:833  add(output, 32) */\n      add\n        /* \"src/utils/ModexpPrecompile.sol\":794:799  input */\n      dup3\n        /* \"src/utils/ModexpPrecompile.sol\":788:800  mload(input) */\n      mload\n        /* \"src/utils/ModexpPrecompile.sol\":767:769  32 */\n      0x20\n        /* \"src/utils/ModexpPrecompile.sol\":760:765  input */\n      dup5\n        /* \"src/utils/ModexpPrecompile.sol\":756:770  add(input, 32) */\n      add\n        /* \"src/utils/ModexpPrecompile.sol\":737:738  5 */\n      0x05\n        /* \"src/utils/ModexpPrecompile.sol\":714:719  gas() */\n      gas\n        /* \"src/utils/ModexpPrecompile.sol\":686:879  staticcall(... */\n      staticcall\n        /* \"src/utils/ModexpPrecompile.sol\":675:879  success := staticcall(... */\n      swap3\n      pop\n        /* \"src/utils/ModexpPrecompile.sol\":661:889  {... */\n      pop\n        /* \"src/utils/ModexpPrecompile.sol\":201:895  function modexp(... */\n      swap4\n      pop\n      swap4\n      swap2\n      pop\n      pop\n      jump\t// out\n        /* \"src/utils/Asn1Decode.sol\":6190:7040  function readNodeLength(bytes memory der, uint ix) private pure returns (uint) {... */\n    tag_61:\n        /* \"src/utils/Asn1Decode.sol\":6263:6267  uint */\n      0x00\n        /* \"src/utils/Asn1Decode.sol\":6275:6286  uint length */\n      dup1\n        /* \"src/utils/Asn1Decode.sol\":6292:6317  uint80 ixFirstContentByte */\n      0x00\n        /* \"src/utils/Asn1Decode.sol\":6323:6347  uint80 ixLastContentByte */\n      dup1\n        /* \"src/utils/Asn1Decode.sol\":6378:6379  0 */\n      0x00\n        /* \"src/utils/Asn1Decode.sol\":6356:6379  (der[ix+1] & 0x80) == 0 */\n      0xf8\n      shl\n        /* \"src/utils/Asn1Decode.sol\":6369:6373  0x80 */\n      0x80\n        /* \"src/utils/Asn1Decode.sol\":6357:6373  der[ix+1] & 0x80 */\n      0xf8\n      shl\n        /* \"src/utils/Asn1Decode.sol\":6357:6360  der */\n      dup8\n        /* \"src/utils/Asn1Decode.sol\":6364:6365  1 */\n      0x01\n        /* \"src/utils/Asn1Decode.sol\":6361:6363  ix */\n      dup9\n        /* \"src/utils/Asn1Decode.sol\":6361:6365  ix+1 */\n      tag_133\n      swap2\n      swap1\n      tag_57\n      jump\t// in\n    tag_133:\n        /* \"src/utils/Asn1Decode.sol\":6357:6366  der[ix+1] */\n      dup2\n      mload\n      dup2\n      lt\n      tag_134\n      jumpi\n      tag_135\n      tag_67\n      jump\t// in\n    tag_135:\n    tag_134:\n      0x20\n      add\n      add\n      mload\n      0xf8\n      shr\n      0xf8\n      shl\n        /* \"src/utils/Asn1Decode.sol\":6357:6373  der[ix+1] & 0x80 */\n      and\n        /* \"src/utils/Asn1Decode.sol\":6356:6379  (der[ix+1] & 0x80) == 0 */\n      not(0xffffffffffffffffffffffffffffffffffffffffffffffffffffffffffffff)\n      and\n      sub\n        /* \"src/utils/Asn1Decode.sol\":6352:6966  if ((der[ix+1] & 0x80) == 0) {... */\n      tag_136\n      jumpi\n        /* \"src/utils/Asn1Decode.sol\":6402:6405  der */\n      dup6\n        /* \"src/utils/Asn1Decode.sol\":6409:6410  1 */\n      0x01\n        /* \"src/utils/Asn1Decode.sol\":6406:6408  ix */\n      dup7\n        /* \"src/utils/Asn1Decode.sol\":6406:6410  ix+1 */\n      tag_137\n      swap2\n      swap1\n      tag_57\n      jump\t// in\n    tag_137:\n        /* \"src/utils/Asn1Decode.sol\":6402:6411  der[ix+1] */\n      dup2\n      mload\n      dup2\n      lt\n      tag_138\n      jumpi\n      tag_139\n      tag_67\n      jump\t// in\n    tag_139:\n    tag_138:\n      0x20\n      add\n      add\n      mload\n      0xf8\n      shr\n      0xf8\n      shl\n        /* \"src/utils/Asn1Decode.sol\":6396:6412  uint8(der[ix+1]) */\n      0xf8\n      shr\n        /* \"src/utils/Asn1Decode.sol\":6387:6412  length = uint8(der[ix+1]) */\n      0xff\n      and\n      swap3\n      pop\n        /* \"src/utils/Asn1Decode.sol\":6449:6450  2 */\n      0x02\n        /* \"src/utils/Asn1Decode.sol\":6446:6448  ix */\n      dup6\n        /* \"src/utils/Asn1Decode.sol\":6446:6450  ix+2 */\n      tag_140\n      swap2\n      swap1\n      tag_57\n      jump\t// in\n    tag_140:\n        /* \"src/utils/Asn1Decode.sol\":6418:6451  ixFirstContentByte = uint80(ix+2) */\n      swap2\n      pop\n        /* \"src/utils/Asn1Decode.sol\":6513:6514  1 */\n      0x01\n        /* \"src/utils/Asn1Decode.sol\":6505:6511  length */\n      dup4\n        /* \"src/utils/Asn1Decode.sol\":6484:6502  ixFirstContentByte */\n      dup4\n        /* \"src/utils/Asn1Decode.sol\":6484:6511  ixFirstContentByte + length */\n      0xffffffffffffffffffff\n      and\n      tag_141\n      swap2\n      swap1\n      tag_57\n      jump\t// in\n    tag_141:\n        /* \"src/utils/Asn1Decode.sol\":6484:6514  ixFirstContentByte + length -1 */\n      tag_142\n      swap2\n      swap1\n      tag_24\n      jump\t// in\n    tag_142:\n        /* \"src/utils/Asn1Decode.sol\":6457:6515  ixLastContentByte = uint80(ixFirstContentByte + length -1) */\n      swap1\n      pop\n        /* \"src/utils/Asn1Decode.sol\":6352:6966  if ((der[ix+1] & 0x80) == 0) {... */\n      jump(tag_143)\n    tag_136:\n        /* \"src/utils/Asn1Decode.sol\":6536:6559  uint8 lengthbytesLength */\n      0x00\n        /* \"src/utils/Asn1Decode.sol\":6580:6584  0x7F */\n      0x7f\n        /* \"src/utils/Asn1Decode.sol\":6568:6584  der[ix+1] & 0x7F */\n      0xf8\n      shl\n        /* \"src/utils/Asn1Decode.sol\":6568:6571  der */\n      dup8\n        /* \"src/utils/Asn1Decode.sol\":6575:6576  1 */\n      0x01\n        /* \"src/utils/Asn1Decode.sol\":6572:6574  ix */\n      dup9\n        /* \"src/utils/Asn1Decode.sol\":6572:6576  ix+1 */\n      tag_144\n      swap2\n      swap1\n      tag_57\n      jump\t// in\n    tag_144:\n        /* \"src/utils/Asn1Decode.sol\":6568:6577  der[ix+1] */\n      dup2\n      mload\n      dup2\n      lt\n      tag_145\n      jumpi\n      tag_146\n      tag_67\n      jump\t// in\n    tag_146:\n    tag_145:\n      0x20\n      add\n      add\n      mload\n      0xf8\n      shr\n      0xf8\n      shl\n        /* \"src/utils/Asn1Decode.sol\":6568:6584  der[ix+1] & 0x7F */\n      and\n        /* \"src/utils/Asn1Decode.sol\":6562:6585  uint8(der[ix+1] & 0x7F) */\n      0xf8\n      shr\n        /* \"src/utils/Asn1Decode.sol\":6536:6585  uint8 lengthbytesLength = uint8(der[ix+1] & 0x7F) */\n      swap1\n      pop\n        /* \"src/utils/Asn1Decode.sol\":6618:6619  1 */\n      0x01\n        /* \"src/utils/Asn1Decode.sol\":6597:6614  lengthbytesLength */\n      dup2\n        /* \"src/utils/Asn1Decode.sol\":6597:6619  lengthbytesLength == 1 */\n      0xff\n      and\n      sub\n        /* \"src/utils/Asn1Decode.sol\":6593:6838  if (lengthbytesLength == 1)... */\n      tag_147\n      jumpi\n        /* \"src/utils/Asn1Decode.sol\":6638:6657  der.readUint8(ix+2) */\n      tag_148\n        /* \"src/utils/Asn1Decode.sol\":6655:6656  2 */\n      0x02\n        /* \"src/utils/Asn1Decode.sol\":6652:6654  ix */\n      dup8\n        /* \"src/utils/Asn1Decode.sol\":6652:6656  ix+2 */\n      tag_149\n      swap2\n      swap1\n      tag_57\n      jump\t// in\n    tag_149:\n        /* \"src/utils/Asn1Decode.sol\":6638:6641  der */\n      dup9\n        /* \"src/utils/Asn1Decode.sol\":6638:6651  der.readUint8 */\n      tag_150\n      swap1\n        /* \"src/utils/Asn1Decode.sol\":6638:6657  der.readUint8(ix+2) */\n      swap2\n      swap1\n      0xffffffff\n      and\n      jump\t// in\n    tag_148:\n        /* \"src/utils/Asn1Decode.sol\":6629:6657  length = der.readUint8(ix+2) */\n      0xff\n      and\n      swap4\n      pop\n        /* \"src/utils/Asn1Decode.sol\":6593:6838  if (lengthbytesLength == 1)... */\n      jump(tag_151)\n    tag_147:\n        /* \"src/utils/Asn1Decode.sol\":6695:6696  2 */\n      0x02\n        /* \"src/utils/Asn1Decode.sol\":6674:6691  lengthbytesLength */\n      dup2\n        /* \"src/utils/Asn1Decode.sol\":6674:6696  lengthbytesLength == 2 */\n      0xff\n      and\n      sub\n        /* \"src/utils/Asn1Decode.sol\":6670:6838  if (lengthbytesLength == 2)... */\n      tag_152\n      jumpi\n        /* \"src/utils/Asn1Decode.sol\":6715:6735  der.readUint16(ix+2) */\n      tag_153\n        /* \"src/utils/Asn1Decode.sol\":6733:6734  2 */\n      0x02\n        /* \"src/utils/Asn1Decode.sol\":6730:6732  ix */\n      dup8\n        /* \"src/utils/Asn1Decode.sol\":6730:6734  ix+2 */\n      tag_154\n      swap2\n      swap1\n      tag_57\n      jump\t// in\n    tag_154:\n        /* \"src/utils/Asn1Decode.sol\":6715:6718  der */\n      dup9\n        /* \"src/utils/Asn1Decode.sol\":6715:6729  der.readUint16 */\n      tag_155\n      swap1\n        /* \"src/utils/Asn1Decode.sol\":6715:6735  der.readUint16(ix+2) */\n      swap2\n      swap1\n      0xffffffff\n      and\n      jump\t// in\n    tag_153:\n        /* \"src/utils/Asn1Decode.sol\":6706:6735  length = der.readUint16(ix+2) */\n      0xffff\n      and\n      swap4\n      pop\n        /* \"src/utils/Asn1Decode.sol\":6670:6838  if (lengthbytesLength == 2)... */\n      jump(tag_156)\n    tag_152:\n        /* \"src/utils/Asn1Decode.sol\":6836:6837  8 */\n      0x08\n        /* \"src/utils/Asn1Decode.sol\":6817:6834  lengthbytesLength */\n      dup2\n        /* \"src/utils/Asn1Decode.sol\":6814:6816  32 */\n      0x20\n        /* \"src/utils/Asn1Decode.sol\":6814:6834  32-lengthbytesLength */\n      tag_157\n      swap2\n      swap1\n      tag_158\n      jump\t// in\n    tag_157:\n        /* \"src/utils/Asn1Decode.sol\":6813:6837  (32-lengthbytesLength)*8 */\n      tag_159\n      swap2\n      swap1\n      tag_160\n      jump\t// in\n    tag_159:\n        /* \"src/utils/Asn1Decode.sol\":6770:6837  der.readBytesN(ix+2, lengthbytesLength) >> (32-lengthbytesLength)*8 */\n      0xff\n      and\n        /* \"src/utils/Asn1Decode.sol\":6770:6809  der.readBytesN(ix+2, lengthbytesLength) */\n      tag_161\n        /* \"src/utils/Asn1Decode.sol\":6788:6789  2 */\n      0x02\n        /* \"src/utils/Asn1Decode.sol\":6785:6787  ix */\n      dup9\n        /* \"src/utils/Asn1Decode.sol\":6785:6789  ix+2 */\n      tag_162\n      swap2\n      swap1\n      tag_57\n      jump\t// in\n    tag_162:\n        /* \"src/utils/Asn1Decode.sol\":6791:6808  lengthbytesLength */\n      dup4\n        /* \"src/utils/Asn1Decode.sol\":6770:6809  der.readBytesN(ix+2, lengthbytesLength) */\n      0xff\n      and\n        /* \"src/utils/Asn1Decode.sol\":6770:6773  der */\n      dup11\n        /* \"src/utils/Asn1Decode.sol\":6770:6784  der.readBytesN */\n      tag_163\n      swap1\n        /* \"src/utils/Asn1Decode.sol\":6770:6809  der.readBytesN(ix+2, lengthbytesLength) */\n      swap3\n      swap2\n      swap1\n      0xffffffff\n      and\n      jump\t// in\n    tag_161:\n        /* \"src/utils/Asn1Decode.sol\":6770:6837  der.readBytesN(ix+2, lengthbytesLength) >> (32-lengthbytesLength)*8 */\n      swap1\n      shr\n        /* \"src/utils/Asn1Decode.sol\":6765:6838  uint(der.readBytesN(ix+2, lengthbytesLength) >> (32-lengthbytesLength)*8) */\n      0x00\n      shr\n        /* \"src/utils/Asn1Decode.sol\":6756:6838  length = uint(der.readBytesN(ix+2, lengthbytesLength) >> (32-lengthbytesLength)*8) */\n      swap4\n      pop\n        /* \"src/utils/Asn1Decode.sol\":6670:6838  if (lengthbytesLength == 2)... */\n    tag_156:\n        /* \"src/utils/Asn1Decode.sol\":6593:6838  if (lengthbytesLength == 1)... */\n    tag_151:\n        /* \"src/utils/Asn1Decode.sol\":6877:6894  lengthbytesLength */\n      dup1\n        /* \"src/utils/Asn1Decode.sol\":6872:6894  ix+2+lengthbytesLength */\n      0xff\n      and\n        /* \"src/utils/Asn1Decode.sol\":6875:6876  2 */\n      0x02\n        /* \"src/utils/Asn1Decode.sol\":6872:6874  ix */\n      dup8\n        /* \"src/utils/Asn1Decode.sol\":6872:6876  ix+2 */\n      tag_164\n      swap2\n      swap1\n      tag_57\n      jump\t// in\n    tag_164:\n        /* \"src/utils/Asn1Decode.sol\":6872:6894  ix+2+lengthbytesLength */\n      tag_165\n      swap2\n      swap1\n      tag_57\n      jump\t// in\n    tag_165:\n        /* \"src/utils/Asn1Decode.sol\":6844:6895  ixFirstContentByte = uint80(ix+2+lengthbytesLength) */\n      swap3\n      pop\n        /* \"src/utils/Asn1Decode.sol\":6957:6958  1 */\n      0x01\n        /* \"src/utils/Asn1Decode.sol\":6949:6955  length */\n      dup5\n        /* \"src/utils/Asn1Decode.sol\":6928:6946  ixFirstContentByte */\n      dup5\n        /* \"src/utils/Asn1Decode.sol\":6928:6955  ixFirstContentByte + length */\n      0xffffffffffffffffffff\n      and\n      tag_166\n      swap2\n      swap1\n      tag_57\n      jump\t// in\n    tag_166:\n        /* \"src/utils/Asn1Decode.sol\":6928:6958  ixFirstContentByte + length -1 */\n      tag_167\n      swap2\n      swap1\n      tag_24\n      jump\t// in\n    tag_167:\n        /* \"src/utils/Asn1Decode.sol\":6901:6959  ixLastContentByte = uint80(ixFirstContentByte + length -1) */\n      swap2\n      pop\n        /* \"src/utils/Asn1Decode.sol\":6528:6966  {... */\n      pop\n        /* \"src/utils/Asn1Decode.sol\":6352:6966  if ((der[ix+1] & 0x80) == 0) {... */\n    tag_143:\n        /* \"src/utils/Asn1Decode.sol\":6978:7035  NodePtr.getPtr(ix, ixFirstContentByte, ixLastContentByte) */\n      tag_168\n        /* \"src/utils/Asn1Decode.sol\":6993:6995  ix */\n      dup6\n        /* \"src/utils/Asn1Decode.sol\":6997:7015  ixFirstContentByte */\n      dup4\n        /* \"src/utils/Asn1Decode.sol\":6978:7035  NodePtr.getPtr(ix, ixFirstContentByte, ixLastContentByte) */\n      0xffffffffffffffffffff\n      and\n        /* \"src/utils/Asn1Decode.sol\":7017:7034  ixLastContentByte */\n      dup4\n        /* \"src/utils/Asn1Decode.sol\":6978:7035  NodePtr.getPtr(ix, ixFirstContentByte, ixLastContentByte) */\n      0xffffffffffffffffffff\n      and\n        /* \"src/utils/Asn1Decode.sol\":6978:6992  NodePtr.getPtr */\n      tag_169\n        /* \"src/utils/Asn1Decode.sol\":6978:7035  NodePtr.getPtr(ix, ixFirstContentByte, ixLastContentByte) */\n      jump\t// in\n    tag_168:\n        /* \"src/utils/Asn1Decode.sol\":6971:7035  return NodePtr.getPtr(ix, ixFirstContentByte, ixLastContentByte) */\n      swap4\n      pop\n      pop\n      pop\n      pop\n        /* \"src/utils/Asn1Decode.sol\":6190:7040  function readNodeLength(bytes memory der, uint ix) private pure returns (uint) {... */\n      swap3\n      swap2\n      pop\n      pop\n      jump\t// out\n        /* \"src/utils/Asn1Decode.sol\":186:269  function ixs(uint self) internal pure returns (uint) {... */\n    tag_64:\n        /* \"src/utils/Asn1Decode.sol\":233:237  uint */\n      0x00\n        /* \"src/utils/Asn1Decode.sol\":259:263  self */\n      dup2\n        /* \"src/utils/Asn1Decode.sol\":245:264  return uint80(self) */\n      0xffffffffffffffffffff\n      and\n      swap1\n      pop\n        /* \"src/utils/Asn1Decode.sol\":186:269  function ixs(uint self) internal pure returns (uint) {... */\n      swap2\n      swap1\n      pop\n      jump\t// out\n        /* \"src/utils/Asn1Decode.sol\":309:396  function ixf(uint self) internal pure returns (uint) {... */\n    tag_73:\n        /* \"src/utils/Asn1Decode.sol\":356:360  uint */\n      0x00\n        /* \"src/utils/Asn1Decode.sol\":388:390  80 */\n      0x50\n        /* \"src/utils/Asn1Decode.sol\":382:386  self */\n      dup3\n        /* \"src/utils/Asn1Decode.sol\":382:390  self>>80 */\n      swap1\n      shr\n        /* \"src/utils/Asn1Decode.sol\":368:391  return uint80(self>>80) */\n      0xffffffffffffffffffff\n      and\n      swap1\n      pop\n        /* \"src/utils/Asn1Decode.sol\":309:396  function ixf(uint self) internal pure returns (uint) {... */\n      swap2\n      swap1\n      pop\n      jump\t// out\n        /* \"src/utils/Asn1Decode.sol\":435:523  function ixl(uint self) internal pure returns (uint) {... */\n    tag_79:\n        /* \"src/utils/Asn1Decode.sol\":482:486  uint */\n      0x00\n        /* \"src/utils/Asn1Decode.sol\":514:517  160 */\n      0xa0\n        /* \"src/utils/Asn1Decode.sol\":508:512  self */\n      dup3\n        /* \"src/utils/Asn1Decode.sol\":508:517  self>>160 */\n      swap1\n      shr\n        /* \"src/utils/Asn1Decode.sol\":494:518  return uint80(self>>160) */\n      0xffffffffffffffffffff\n      and\n      swap1\n      pop\n        /* \"src/utils/Asn1Decode.sol\":435:523  function ixl(uint self) internal pure returns (uint) {... */\n      swap2\n      swap1\n      pop\n      jump\t// out\n        /* \"src/utils/BytesUtils.sol\":9528:9964  function substring(... */\n    tag_82:\n        /* \"src/utils/BytesUtils.sol\":9648:9660  bytes memory */\n      0x60\n        /* \"src/utils/BytesUtils.sol\":9696:9700  self */\n      dup4\n        /* \"src/utils/BytesUtils.sol\":9696:9707  self.length */\n      mload\n        /* \"src/utils/BytesUtils.sol\":9689:9692  len */\n      dup3\n        /* \"src/utils/BytesUtils.sol\":9680:9686  offset */\n      dup5\n        /* \"src/utils/BytesUtils.sol\":9680:9692  offset + len */\n      tag_174\n      swap2\n      swap1\n      tag_57\n      jump\t// in\n    tag_174:\n        /* \"src/utils/BytesUtils.sol\":9680:9707  offset + len <= self.length */\n      gt\n      iszero\n        /* \"src/utils/BytesUtils.sol\":9672:9708  require(offset + len <= self.length) */\n      tag_175\n      jumpi\n      0x00\n      dup1\n      revert\n    tag_175:\n        /* \"src/utils/BytesUtils.sol\":9719:9735  bytes memory ret */\n      0x00\n        /* \"src/utils/BytesUtils.sol\":9748:9751  len */\n      dup3\n        /* \"src/utils/BytesUtils.sol\":9738:9752  new bytes(len) */\n      0xffffffffffffffff\n      dup2\n      gt\n      iszero\n      tag_176\n      jumpi\n      tag_177\n      tag_130\n      jump\t// in\n    tag_177:\n    tag_176:\n      mload(0x40)\n      swap1\n      dup1\n      dup3\n      mstore\n      dup1\n      0x1f\n      add\n      not(0x1f)\n      and\n      0x20\n      add\n      dup3\n      add\n      0x40\n      mstore\n      dup1\n      iszero\n      tag_178\n      jumpi\n      dup2\n      0x20\n      add\n      0x01\n      dup3\n      mul\n      dup1\n      calldatasize\n      dup4\n      calldatacopy\n      dup1\n      dup3\n      add\n      swap2\n      pop\n      pop\n      swap1\n      pop\n    tag_178:\n      pop\n        /* \"src/utils/BytesUtils.sol\":9719:9752  bytes memory ret = new bytes(len) */\n      swap1\n      pop\n        /* \"src/utils/BytesUtils.sol\":9762:9774  uint256 dest */\n      0x00\n        /* \"src/utils/BytesUtils.sol\":9784:9795  uint256 src */\n      dup1\n        /* \"src/utils/BytesUtils.sol\":9846:9848  32 */\n      0x20\n        /* \"src/utils/BytesUtils.sol\":9841:9844  ret */\n      dup4\n        /* \"src/utils/BytesUtils.sol\":9837:9849  add(ret, 32) */\n      add\n        /* \"src/utils/BytesUtils.sol\":9829:9849  dest := add(ret, 32) */\n      swap2\n      pop\n        /* \"src/utils/BytesUtils.sol\":9888:9894  offset */\n      dup6\n        /* \"src/utils/BytesUtils.sol\":9883:9885  32 */\n      0x20\n        /* \"src/utils/BytesUtils.sol\":9877:9881  self */\n      dup9\n        /* \"src/utils/BytesUtils.sol\":9873:9886  add(self, 32) */\n      add\n        /* \"src/utils/BytesUtils.sol\":9869:9895  add(add(self, 32), offset) */\n      add\n        /* \"src/utils/BytesUtils.sol\":9862:9895  src := add(add(self, 32), offset) */\n      swap1\n      pop\n        /* \"src/utils/BytesUtils.sol\":9914:9936  memcpy(dest, src, len) */\n      tag_179\n        /* \"src/utils/BytesUtils.sol\":9921:9925  dest */\n      dup3\n        /* \"src/utils/BytesUtils.sol\":9927:9930  src */\n      dup3\n        /* \"src/utils/BytesUtils.sol\":9932:9935  len */\n      dup8\n        /* \"src/utils/BytesUtils.sol\":9914:9920  memcpy */\n      tag_180\n        /* \"src/utils/BytesUtils.sol\":9914:9936  memcpy(dest, src, len) */\n      jump\t// in\n    tag_179:\n        /* \"src/utils/BytesUtils.sol\":9954:9957  ret */\n      dup3\n        /* \"src/utils/BytesUtils.sol\":9947:9957  return ret */\n      swap4\n      pop\n      pop\n      pop\n      pop\n        /* \"src/utils/BytesUtils.sol\":9528:9964  function substring(... */\n      swap4\n      swap3\n      pop\n      pop\n      pop\n      jump\t// out\n        /* \"src/utils/BytesUtils.sol\":5813:5966  function readUint8(bytes memory self, uint256 idx)... */\n    tag_150:\n        /* \"src/utils/BytesUtils.sol\":5911:5920  uint8 ret */\n      0x00\n        /* \"src/utils/BytesUtils.sol\":5949:5953  self */\n      dup3\n        /* \"src/utils/BytesUtils.sol\":5954:5957  idx */\n      dup3\n        /* \"src/utils/BytesUtils.sol\":5949:5958  self[idx] */\n      dup2\n      mload\n      dup2\n      lt\n      tag_182\n      jumpi\n      tag_183\n      tag_67\n      jump\t// in\n    tag_183:\n    tag_182:\n      0x20\n      add\n      add\n      mload\n      0xf8\n      shr\n      0xf8\n      shl\n        /* \"src/utils/BytesUtils.sol\":5943:5959  uint8(self[idx]) */\n      0xf8\n      shr\n        /* \"src/utils/BytesUtils.sol\":5936:5959  return uint8(self[idx]) */\n      swap1\n      pop\n        /* \"src/utils/BytesUtils.sol\":5813:5966  function readUint8(bytes memory self, uint256 idx)... */\n      swap3\n      swap2\n      pop\n      pop\n      jump\t// out\n        /* \"src/utils/BytesUtils.sol\":6215:6469  function readUint16(bytes memory self, uint256 idx)... */\n    tag_155:\n        /* \"src/utils/BytesUtils.sol\":6314:6324  uint16 ret */\n      0x00\n        /* \"src/utils/BytesUtils.sol\":6359:6363  self */\n      dup3\n        /* \"src/utils/BytesUtils.sol\":6359:6370  self.length */\n      mload\n        /* \"src/utils/BytesUtils.sol\":6354:6355  2 */\n      0x02\n        /* \"src/utils/BytesUtils.sol\":6348:6351  idx */\n      dup4\n        /* \"src/utils/BytesUtils.sol\":6348:6355  idx + 2 */\n      tag_185\n      swap2\n      swap1\n      tag_57\n      jump\t// in\n    tag_185:\n        /* \"src/utils/BytesUtils.sol\":6348:6370  idx + 2 <= self.length */\n      gt\n      iszero\n        /* \"src/utils/BytesUtils.sol\":6340:6371  require(idx + 2 <= self.length) */\n      tag_186\n      jumpi\n      0x00\n      dup1\n      revert\n    tag_186:\n        /* \"src/utils/BytesUtils.sol\":6446:6452  0xFFFF */\n      0xffff\n        /* \"src/utils/BytesUtils.sol\":6439:6442  idx */\n      dup3\n        /* \"src/utils/BytesUtils.sol\":6435:6436  2 */\n      0x02\n        /* \"src/utils/BytesUtils.sol\":6429:6433  self */\n      dup6\n        /* \"src/utils/BytesUtils.sol\":6425:6437  add(self, 2) */\n      add\n        /* \"src/utils/BytesUtils.sol\":6421:6443  add(add(self, 2), idx) */\n      add\n        /* \"src/utils/BytesUtils.sol\":6415:6444  mload(add(add(self, 2), idx)) */\n      mload\n        /* \"src/utils/BytesUtils.sol\":6411:6453  and(mload(add(add(self, 2), idx)), 0xFFFF) */\n      and\n        /* \"src/utils/BytesUtils.sol\":6404:6453  ret := and(mload(add(add(self, 2), idx)), 0xFFFF) */\n      swap1\n      pop\n        /* \"src/utils/BytesUtils.sol\":6215:6469  function readUint16(bytes memory self, uint256 idx)... */\n      swap3\n      swap2\n      pop\n      pop\n      jump\t// out\n        /* \"src/utils/BytesUtils.sol\":8293:8652  function readBytesN(... */\n    tag_163:\n        /* \"src/utils/BytesUtils.sol\":8411:8422  bytes32 ret */\n      0x00\n        /* \"src/utils/BytesUtils.sol\":8449:8451  32 */\n      0x20\n        /* \"src/utils/BytesUtils.sol\":8442:8445  len */\n      dup3\n        /* \"src/utils/BytesUtils.sol\":8442:8451  len <= 32 */\n      gt\n      iszero\n        /* \"src/utils/BytesUtils.sol\":8434:8452  require(len <= 32) */\n      tag_188\n      jumpi\n      0x00\n      dup1\n      revert\n    tag_188:\n        /* \"src/utils/BytesUtils.sol\":8483:8487  self */\n      dup4\n        /* \"src/utils/BytesUtils.sol\":8483:8494  self.length */\n      mload\n        /* \"src/utils/BytesUtils.sol\":8476:8479  len */\n      dup3\n        /* \"src/utils/BytesUtils.sol\":8470:8473  idx */\n      dup5\n        /* \"src/utils/BytesUtils.sol\":8470:8479  idx + len */\n      tag_189\n      swap2\n      swap1\n      tag_57\n      jump\t// in\n    tag_189:\n        /* \"src/utils/BytesUtils.sol\":8470:8494  idx + len <= self.length */\n      gt\n      iszero\n        /* \"src/utils/BytesUtils.sol\":8462:8495  require(idx + len <= self.length) */\n      tag_190\n      jumpi\n      0x00\n      dup1\n      revert\n    tag_190:\n        /* \"src/utils/BytesUtils.sol\":8572:8573  1 */\n      0x01\n        /* \"src/utils/BytesUtils.sol\":8565:8568  len */\n      dup3\n        /* \"src/utils/BytesUtils.sol\":8561:8563  32 */\n      0x20\n        /* \"src/utils/BytesUtils.sol\":8557:8569  sub(32, len) */\n      sub\n        /* \"src/utils/BytesUtils.sol\":8552:8555  256 */\n      0x0100\n        /* \"src/utils/BytesUtils.sol\":8548:8570  exp(256, sub(32, len)) */\n      exp\n        /* \"src/utils/BytesUtils.sol\":8544:8574  sub(exp(256, sub(32, len)), 1) */\n      sub\n        /* \"src/utils/BytesUtils.sol\":8540:8575  not(sub(exp(256, sub(32, len)), 1)) */\n      not\n        /* \"src/utils/BytesUtils.sol\":8631:8635  mask */\n      dup1\n        /* \"src/utils/BytesUtils.sol\":8624:8627  idx */\n      dup5\n        /* \"src/utils/BytesUtils.sol\":8619:8621  32 */\n      0x20\n        /* \"src/utils/BytesUtils.sol\":8613:8617  self */\n      dup8\n        /* \"src/utils/BytesUtils.sol\":8609:8622  add(self, 32) */\n      add\n        /* \"src/utils/BytesUtils.sol\":8605:8628  add(add(self, 32), idx) */\n      add\n        /* \"src/utils/BytesUtils.sol\":8599:8629  mload(add(add(self, 32), idx)) */\n      mload\n        /* \"src/utils/BytesUtils.sol\":8595:8636  and(mload(add(add(self, 32), idx)), mask) */\n      and\n        /* \"src/utils/BytesUtils.sol\":8588:8636  ret := and(mload(add(add(self, 32), idx)), mask) */\n      swap2\n      pop\n        /* \"src/utils/BytesUtils.sol\":8514:8646  {... */\n      pop\n        /* \"src/utils/BytesUtils.sol\":8293:8652  function readBytesN(... */\n      swap4\n      swap3\n      pop\n      pop\n      pop\n      jump\t// out\n        /* \"src/utils/Asn1Decode.sol\":561:706  function getPtr(uint _ixs, uint _ixf, uint _ixl) internal pure returns (uint) {... */\n    tag_169:\n        /* \"src/utils/Asn1Decode.sol\":633:637  uint */\n      0x00\n        /* \"src/utils/Asn1Decode.sol\":659:661  80 */\n      0x50\n        /* \"src/utils/Asn1Decode.sol\":653:657  _ixf */\n      dup4\n        /* \"src/utils/Asn1Decode.sol\":653:661  _ixf<<80 */\n      swap1\n      shl\n        /* \"src/utils/Asn1Decode.sol\":645:661  _ixs |= _ixf<<80 */\n      dup5\n      or\n      swap4\n      pop\n        /* \"src/utils/Asn1Decode.sol\":681:684  160 */\n      0xa0\n        /* \"src/utils/Asn1Decode.sol\":675:679  _ixl */\n      dup3\n        /* \"src/utils/Asn1Decode.sol\":675:684  _ixl<<160 */\n      swap1\n      shl\n        /* \"src/utils/Asn1Decode.sol\":667:684  _ixs |= _ixl<<160 */\n      dup5\n      or\n      swap4\n      pop\n        /* \"src/utils/Asn1Decode.sol\":697:701  _ixs */\n      dup4\n        /* \"src/utils/Asn1Decode.sol\":690:701  return _ixs */\n      swap1\n      pop\n        /* \"src/utils/Asn1Decode.sol\":561:706  function getPtr(uint _ixs, uint _ixf, uint _ixl) internal pure returns (uint) {... */\n      swap4\n      swap3\n      pop\n      pop\n      pop\n      jump\t// out\n        /* \"src/utils/BytesUtils.sol\":8658:9303  function memcpy(... */\n    tag_180:\n        /* \"src/utils/BytesUtils.sol\":8817:8982  for (; len >= 32; len -= 32) {... */\n    tag_193:\n        /* \"src/utils/BytesUtils.sol\":8831:8833  32 */\n      0x20\n        /* \"src/utils/BytesUtils.sol\":8824:8827  len */\n      dup2\n        /* \"src/utils/BytesUtils.sol\":8824:8833  len >= 32 */\n      lt\n        /* \"src/utils/BytesUtils.sol\":8817:8982  for (; len >= 32; len -= 32) {... */\n      tag_194\n      jumpi\n        /* \"src/utils/BytesUtils.sol\":8906:8909  src */\n      dup2\n        /* \"src/utils/BytesUtils.sol\":8900:8910  mload(src) */\n      mload\n        /* \"src/utils/BytesUtils.sol\":8894:8898  dest */\n      dup4\n        /* \"src/utils/BytesUtils.sol\":8887:8911  mstore(dest, mload(src)) */\n      mstore\n        /* \"src/utils/BytesUtils.sol\":8946:8948  32 */\n      0x20\n        /* \"src/utils/BytesUtils.sol\":8938:8948  dest += 32 */\n      dup4\n      tag_196\n      swap2\n      swap1\n      tag_57\n      jump\t// in\n    tag_196:\n      swap3\n      pop\n        /* \"src/utils/BytesUtils.sol\":8969:8971  32 */\n      0x20\n        /* \"src/utils/BytesUtils.sol\":8962:8971  src += 32 */\n      dup3\n      tag_197\n      swap2\n      swap1\n      tag_57\n      jump\t// in\n    tag_197:\n      swap2\n      pop\n        /* \"src/utils/BytesUtils.sol\":8842:8844  32 */\n      0x20\n        /* \"src/utils/BytesUtils.sol\":8835:8844  len -= 32 */\n      dup2\n      tag_198\n      swap2\n      swap1\n      tag_24\n      jump\t// in\n    tag_198:\n      swap1\n      pop\n        /* \"src/utils/BytesUtils.sol\":8817:8982  for (; len >= 32; len -= 32) {... */\n      jump(tag_193)\n    tag_194:\n        /* \"src/utils/BytesUtils.sol\":9048:9060  uint256 mask */\n      0x00\n        /* \"src/utils/BytesUtils.sol\":9083:9084  1 */\n      0x01\n        /* \"src/utils/BytesUtils.sol\":9075:9078  len */\n      dup3\n        /* \"src/utils/BytesUtils.sol\":9070:9072  32 */\n      0x20\n        /* \"src/utils/BytesUtils.sol\":9070:9078  32 - len */\n      sub\n        /* \"src/utils/BytesUtils.sol\":9064:9067  256 */\n      0x0100\n        /* \"src/utils/BytesUtils.sol\":9064:9079  256**(32 - len) */\n      exp\n        /* \"src/utils/BytesUtils.sol\":9063:9084  (256**(32 - len)) - 1 */\n      sub\n        /* \"src/utils/BytesUtils.sol\":9048:9084  uint256 mask = (256**(32 - len)) - 1 */\n      swap1\n      pop\n        /* \"src/utils/BytesUtils.sol\":9160:9164  mask */\n      dup1\n        /* \"src/utils/BytesUtils.sol\":9156:9165  not(mask) */\n      not\n        /* \"src/utils/BytesUtils.sol\":9150:9153  src */\n      dup4\n        /* \"src/utils/BytesUtils.sol\":9144:9154  mload(src) */\n      mload\n        /* \"src/utils/BytesUtils.sol\":9140:9166  and(mload(src), not(mask)) */\n      and\n        /* \"src/utils/BytesUtils.sol\":9216:9220  mask */\n      dup2\n        /* \"src/utils/BytesUtils.sol\":9209:9213  dest */\n      dup6\n        /* \"src/utils/BytesUtils.sol\":9203:9214  mload(dest) */\n      mload\n        /* \"src/utils/BytesUtils.sol\":9199:9221  and(mload(dest), mask) */\n      and\n        /* \"src/utils/BytesUtils.sol\":9264:9271  srcpart */\n      dup2\n        /* \"src/utils/BytesUtils.sol\":9254:9262  destpart */\n      dup2\n        /* \"src/utils/BytesUtils.sol\":9251:9272  or(destpart, srcpart) */\n      or\n        /* \"src/utils/BytesUtils.sol\":9245:9249  dest */\n      dup7\n        /* \"src/utils/BytesUtils.sol\":9238:9273  mstore(dest, or(destpart, srcpart)) */\n      mstore\n        /* \"src/utils/BytesUtils.sol\":9107:9287  {... */\n      pop\n      pop\n      pop\n        /* \"src/utils/BytesUtils.sol\":8658:9303  function memcpy(... */\n      pop\n      pop\n      pop\n      jump\t// out\n        /* \"#utility.yul\":7:82   */\n    tag_199:\n        /* \"#utility.yul\":40:46   */\n      0x00\n        /* \"#utility.yul\":73:75   */\n      0x40\n        /* \"#utility.yul\":67:76   */\n      mload\n        /* \"#utility.yul\":57:76   */\n      swap1\n      pop\n        /* \"#utility.yul\":7:82   */\n      swap1\n      jump\t// out\n        /* \"#utility.yul\":88:205   */\n    tag_200:\n        /* \"#utility.yul\":197:198   */\n      0x00\n        /* \"#utility.yul\":194:195   */\n      dup1\n        /* \"#utility.yul\":187:199   */\n      revert\n        /* \"#utility.yul\":211:328   */\n    tag_201:\n        /* \"#utility.yul\":320:321   */\n      0x00\n        /* \"#utility.yul\":317:318   */\n      dup1\n        /* \"#utility.yul\":310:322   */\n      revert\n        /* \"#utility.yul\":334:451   */\n    tag_202:\n        /* \"#utility.yul\":443:444   */\n      0x00\n        /* \"#utility.yul\":440:441   */\n      dup1\n        /* \"#utility.yul\":433:445   */\n      revert\n        /* \"#utility.yul\":457:574   */\n    tag_203:\n        /* \"#utility.yul\":566:567   */\n      0x00\n        /* \"#utility.yul\":563:564   */\n      dup1\n        /* \"#utility.yul\":556:568   */\n      revert\n        /* \"#utility.yul\":580:697   */\n    tag_204:\n        /* \"#utility.yul\":689:690   */\n      0x00\n        /* \"#utility.yul\":686:687   */\n      dup1\n        /* \"#utility.yul\":679:691   */\n      revert\n        /* \"#utility.yul\":716:1268   */\n    tag_205:\n        /* \"#utility.yul\":773:781   */\n      0x00\n        /* \"#utility.yul\":783:789   */\n      dup1\n        /* \"#utility.yul\":833:836   */\n      dup4\n        /* \"#utility.yul\":826:830   */\n      0x1f\n        /* \"#utility.yul\":818:824   */\n      dup5\n        /* \"#utility.yul\":814:831   */\n      add\n        /* \"#utility.yul\":810:837   */\n      slt\n        /* \"#utility.yul\":800:922   */\n      tag_250\n      jumpi\n        /* \"#utility.yul\":841:920   */\n      tag_251\n      tag_202\n      jump\t// in\n    tag_251:\n        /* \"#utility.yul\":800:922   */\n    tag_250:\n        /* \"#utility.yul\":954:960   */\n      dup3\n        /* \"#utility.yul\":941:961   */\n      calldataload\n        /* \"#utility.yul\":931:961   */\n      swap1\n      pop\n        /* \"#utility.yul\":984:1002   */\n      0xffffffffffffffff\n        /* \"#utility.yul\":976:982   */\n      dup2\n        /* \"#utility.yul\":973:1003   */\n      gt\n        /* \"#utility.yul\":970:1087   */\n      iszero\n      tag_252\n      jumpi\n        /* \"#utility.yul\":1006:1085   */\n      tag_253\n      tag_203\n      jump\t// in\n    tag_253:\n        /* \"#utility.yul\":970:1087   */\n    tag_252:\n        /* \"#utility.yul\":1120:1124   */\n      0x20\n        /* \"#utility.yul\":1112:1118   */\n      dup4\n        /* \"#utility.yul\":1108:1125   */\n      add\n        /* \"#utility.yul\":1096:1125   */\n      swap2\n      pop\n        /* \"#utility.yul\":1174:1177   */\n      dup4\n        /* \"#utility.yul\":1166:1170   */\n      0x01\n        /* \"#utility.yul\":1158:1164   */\n      dup3\n        /* \"#utility.yul\":1154:1171   */\n      mul\n        /* \"#utility.yul\":1144:1152   */\n      dup4\n        /* \"#utility.yul\":1140:1172   */\n      add\n        /* \"#utility.yul\":1137:1178   */\n      gt\n        /* \"#utility.yul\":1134:1262   */\n      iszero\n      tag_254\n      jumpi\n        /* \"#utility.yul\":1181:1260   */\n      tag_255\n      tag_204\n      jump\t// in\n    tag_255:\n        /* \"#utility.yul\":1134:1262   */\n    tag_254:\n        /* \"#utility.yul\":716:1268   */\n      swap3\n      pop\n      swap3\n      swap1\n      pop\n      jump\t// out\n        /* \"#utility.yul\":1274:2487   */\n    tag_7:\n        /* \"#utility.yul\":1384:1390   */\n      0x00\n        /* \"#utility.yul\":1392:1398   */\n      dup1\n        /* \"#utility.yul\":1400:1406   */\n      0x00\n        /* \"#utility.yul\":1408:1414   */\n      dup1\n        /* \"#utility.yul\":1416:1422   */\n      0x00\n        /* \"#utility.yul\":1424:1430   */\n      dup1\n        /* \"#utility.yul\":1473:1475   */\n      0x60\n        /* \"#utility.yul\":1461:1470   */\n      dup8\n        /* \"#utility.yul\":1452:1459   */\n      dup10\n        /* \"#utility.yul\":1448:1471   */\n      sub\n        /* \"#utility.yul\":1444:1476   */\n      slt\n        /* \"#utility.yul\":1441:1560   */\n      iszero\n      tag_257\n      jumpi\n        /* \"#utility.yul\":1479:1558   */\n      tag_258\n      tag_200\n      jump\t// in\n    tag_258:\n        /* \"#utility.yul\":1441:1560   */\n    tag_257:\n        /* \"#utility.yul\":1627:1628   */\n      0x00\n        /* \"#utility.yul\":1616:1625   */\n      dup8\n        /* \"#utility.yul\":1612:1629   */\n      add\n        /* \"#utility.yul\":1599:1630   */\n      calldataload\n        /* \"#utility.yul\":1657:1675   */\n      0xffffffffffffffff\n        /* \"#utility.yul\":1649:1655   */\n      dup2\n        /* \"#utility.yul\":1646:1676   */\n      gt\n        /* \"#utility.yul\":1643:1760   */\n      iszero\n      tag_259\n      jumpi\n        /* \"#utility.yul\":1679:1758   */\n      tag_260\n      tag_201\n      jump\t// in\n    tag_260:\n        /* \"#utility.yul\":1643:1760   */\n    tag_259:\n        /* \"#utility.yul\":1792:1856   */\n      tag_261\n        /* \"#utility.yul\":1848:1855   */\n      dup10\n        /* \"#utility.yul\":1839:1845   */\n      dup3\n        /* \"#utility.yul\":1828:1837   */\n      dup11\n        /* \"#utility.yul\":1824:1846   */\n      add\n        /* \"#utility.yul\":1792:1856   */\n      tag_205\n      jump\t// in\n    tag_261:\n        /* \"#utility.yul\":1774:1856   */\n      swap7\n      pop\n      swap7\n      pop\n        /* \"#utility.yul\":1570:1866   */\n      pop\n        /* \"#utility.yul\":1933:1935   */\n      0x20\n        /* \"#utility.yul\":1922:1931   */\n      dup8\n        /* \"#utility.yul\":1918:1936   */\n      add\n        /* \"#utility.yul\":1905:1937   */\n      calldataload\n        /* \"#utility.yul\":1964:1982   */\n      0xffffffffffffffff\n        /* \"#utility.yul\":1956:1962   */\n      dup2\n        /* \"#utility.yul\":1953:1983   */\n      gt\n        /* \"#utility.yul\":1950:2067   */\n      iszero\n      tag_262\n      jumpi\n        /* \"#utility.yul\":1986:2065   */\n      tag_263\n      tag_201\n      jump\t// in\n    tag_263:\n        /* \"#utility.yul\":1950:2067   */\n    tag_262:\n        /* \"#utility.yul\":2099:2163   */\n      tag_264\n        /* \"#utility.yul\":2155:2162   */\n      dup10\n        /* \"#utility.yul\":2146:2152   */\n      dup3\n        /* \"#utility.yul\":2135:2144   */\n      dup11\n        /* \"#utility.yul\":2131:2153   */\n      add\n        /* \"#utility.yul\":2099:2163   */\n      tag_205\n      jump\t// in\n    tag_264:\n        /* \"#utility.yul\":2081:2163   */\n      swap5\n      pop\n      swap5\n      pop\n        /* \"#utility.yul\":1876:2173   */\n      pop\n        /* \"#utility.yul\":2240:2242   */\n      0x40\n        /* \"#utility.yul\":2229:2238   */\n      dup8\n        /* \"#utility.yul\":2225:2243   */\n      add\n        /* \"#utility.yul\":2212:2244   */\n      calldataload\n        /* \"#utility.yul\":2271:2289   */\n      0xffffffffffffffff\n        /* \"#utility.yul\":2263:2269   */\n      dup2\n        /* \"#utility.yul\":2260:2290   */\n      gt\n        /* \"#utility.yul\":2257:2374   */\n      iszero\n      tag_265\n      jumpi\n        /* \"#utility.yul\":2293:2372   */\n      tag_266\n      tag_201\n      jump\t// in\n    tag_266:\n        /* \"#utility.yul\":2257:2374   */\n    tag_265:\n        /* \"#utility.yul\":2406:2470   */\n      tag_267\n        /* \"#utility.yul\":2462:2469   */\n      dup10\n        /* \"#utility.yul\":2453:2459   */\n      dup3\n        /* \"#utility.yul\":2442:2451   */\n      dup11\n        /* \"#utility.yul\":2438:2460   */\n      add\n        /* \"#utility.yul\":2406:2470   */\n      tag_205\n      jump\t// in\n    tag_267:\n        /* \"#utility.yul\":2388:2470   */\n      swap3\n      pop\n      swap3\n      pop\n        /* \"#utility.yul\":2183:2480   */\n      pop\n        /* \"#utility.yul\":1274:2487   */\n      swap3\n      swap6\n      pop\n      swap3\n      swap6\n      pop\n      swap3\n      swap6\n      jump\t// out\n        /* \"#utility.yul\":2493:2583   */\n    tag_206:\n        /* \"#utility.yul\":2527:2534   */\n      0x00\n        /* \"#utility.yul\":2570:2575   */\n      dup2\n        /* \"#utility.yul\":2563:2576   */\n      iszero\n        /* \"#utility.yul\":2556:2577   */\n      iszero\n        /* \"#utility.yul\":2545:2577   */\n      swap1\n      pop\n        /* \"#utility.yul\":2493:2583   */\n      swap2\n      swap1\n      pop\n      jump\t// out\n        /* \"#utility.yul\":2589:2698   */\n    tag_207:\n        /* \"#utility.yul\":2670:2691   */\n      tag_270\n        /* \"#utility.yul\":2685:2690   */\n      dup2\n        /* \"#utility.yul\":2670:2691   */\n      tag_206\n      jump\t// in\n    tag_270:\n        /* \"#utility.yul\":2665:2668   */\n      dup3\n        /* \"#utility.yul\":2658:2692   */\n      mstore\n        /* \"#utility.yul\":2589:2698   */\n      pop\n      pop\n      jump\t// out\n        /* \"#utility.yul\":2704:2914   */\n    tag_10:\n        /* \"#utility.yul\":2791:2795   */\n      0x00\n        /* \"#utility.yul\":2829:2831   */\n      0x20\n        /* \"#utility.yul\":2818:2827   */\n      dup3\n        /* \"#utility.yul\":2814:2832   */\n      add\n        /* \"#utility.yul\":2806:2832   */\n      swap1\n      pop\n        /* \"#utility.yul\":2842:2907   */\n      tag_272\n        /* \"#utility.yul\":2904:2905   */\n      0x00\n        /* \"#utility.yul\":2893:2902   */\n      dup4\n        /* \"#utility.yul\":2889:2906   */\n      add\n        /* \"#utility.yul\":2880:2886   */\n      dup5\n        /* \"#utility.yul\":2842:2907   */\n      tag_207\n      jump\t// in\n    tag_272:\n        /* \"#utility.yul\":2704:2914   */\n      swap3\n      swap2\n      pop\n      pop\n      jump\t// out\n        /* \"#utility.yul\":2920:3037   */\n    tag_208:\n        /* \"#utility.yul\":3029:3030   */\n      0x00\n        /* \"#utility.yul\":3026:3027   */\n      dup1\n        /* \"#utility.yul\":3019:3031   */\n      revert\n        /* \"#utility.yul\":3043:3145   */\n    tag_209:\n        /* \"#utility.yul\":3084:3090   */\n      0x00\n        /* \"#utility.yul\":3135:3137   */\n      0x1f\n        /* \"#utility.yul\":3131:3138   */\n      not\n        /* \"#utility.yul\":3126:3128   */\n      0x1f\n        /* \"#utility.yul\":3119:3124   */\n      dup4\n        /* \"#utility.yul\":3115:3129   */\n      add\n        /* \"#utility.yul\":3111:3139   */\n      and\n        /* \"#utility.yul\":3101:3139   */\n      swap1\n      pop\n        /* \"#utility.yul\":3043:3145   */\n      swap2\n      swap1\n      pop\n      jump\t// out\n        /* \"#utility.yul\":3151:3331   */\n    tag_130:\n        /* \"#utility.yul\":3199:3276   */\n      0x4e487b7100000000000000000000000000000000000000000000000000000000\n        /* \"#utility.yul\":3196:3197   */\n      0x00\n        /* \"#utility.yul\":3189:3277   */\n      mstore\n        /* \"#utility.yul\":3296:3300   */\n      0x41\n        /* \"#utility.yul\":3293:3294   */\n      0x04\n        /* \"#utility.yul\":3286:3301   */\n      mstore\n        /* \"#utility.yul\":3320:3324   */\n      0x24\n        /* \"#utility.yul\":3317:3318   */\n      0x00\n        /* \"#utility.yul\":3310:3325   */\n      revert\n        /* \"#utility.yul\":3337:3618   */\n    tag_210:\n        /* \"#utility.yul\":3420:3447   */\n      tag_277\n        /* \"#utility.yul\":3442:3446   */\n      dup3\n        /* \"#utility.yul\":3420:3447   */\n      tag_209\n      jump\t// in\n    tag_277:\n        /* \"#utility.yul\":3412:3418   */\n      dup2\n        /* \"#utility.yul\":3408:3448   */\n      add\n        /* \"#utility.yul\":3550:3556   */\n      dup2\n        /* \"#utility.yul\":3538:3548   */\n      dup2\n        /* \"#utility.yul\":3535:3557   */\n      lt\n        /* \"#utility.yul\":3514:3532   */\n      0xffffffffffffffff\n        /* \"#utility.yul\":3502:3512   */\n      dup3\n        /* \"#utility.yul\":3499:3533   */\n      gt\n        /* \"#utility.yul\":3496:3558   */\n      or\n        /* \"#utility.yul\":3493:3581   */\n      iszero\n      tag_278\n      jumpi\n        /* \"#utility.yul\":3561:3579   */\n      tag_279\n      tag_130\n      jump\t// in\n    tag_279:\n        /* \"#utility.yul\":3493:3581   */\n    tag_278:\n        /* \"#utility.yul\":3601:3611   */\n      dup1\n        /* \"#utility.yul\":3597:3599   */\n      0x40\n        /* \"#utility.yul\":3590:3612   */\n      mstore\n        /* \"#utility.yul\":3380:3618   */\n      pop\n        /* \"#utility.yul\":3337:3618   */\n      pop\n      pop\n      jump\t// out\n        /* \"#utility.yul\":3624:3753   */\n    tag_211:\n        /* \"#utility.yul\":3658:3664   */\n      0x00\n        /* \"#utility.yul\":3685:3705   */\n      tag_281\n      tag_199\n      jump\t// in\n    tag_281:\n        /* \"#utility.yul\":3675:3705   */\n      swap1\n      pop\n        /* \"#utility.yul\":3714:3747   */\n      tag_282\n        /* \"#utility.yul\":3742:3746   */\n      dup3\n        /* \"#utility.yul\":3734:3740   */\n      dup3\n        /* \"#utility.yul\":3714:3747   */\n      tag_210\n      jump\t// in\n    tag_282:\n        /* \"#utility.yul\":3624:3753   */\n      swap2\n      swap1\n      pop\n      jump\t// out\n        /* \"#utility.yul\":3759:4066   */\n    tag_212:\n        /* \"#utility.yul\":3820:3824   */\n      0x00\n        /* \"#utility.yul\":3910:3928   */\n      0xffffffffffffffff\n        /* \"#utility.yul\":3902:3908   */\n      dup3\n        /* \"#utility.yul\":3899:3929   */\n      gt\n        /* \"#utility.yul\":3896:3952   */\n      iszero\n      tag_284\n      jumpi\n        /* \"#utility.yul\":3932:3950   */\n      tag_285\n      tag_130\n      jump\t// in\n    tag_285:\n        /* \"#utility.yul\":3896:3952   */\n    tag_284:\n        /* \"#utility.yul\":3970:3999   */\n      tag_286\n        /* \"#utility.yul\":3992:3998   */\n      dup3\n        /* \"#utility.yul\":3970:3999   */\n      tag_209\n      jump\t// in\n    tag_286:\n        /* \"#utility.yul\":3962:3999   */\n      swap1\n      pop\n        /* \"#utility.yul\":4054:4058   */\n      0x20\n        /* \"#utility.yul\":4048:4052   */\n      dup2\n        /* \"#utility.yul\":4044:4059   */\n      add\n        /* \"#utility.yul\":4036:4059   */\n      swap1\n      pop\n        /* \"#utility.yul\":3759:4066   */\n      swap2\n      swap1\n      pop\n      jump\t// out\n        /* \"#utility.yul\":4072:4218   */\n    tag_213:\n        /* \"#utility.yul\":4169:4175   */\n      dup3\n        /* \"#utility.yul\":4164:4167   */\n      dup2\n        /* \"#utility.yul\":4159:4162   */\n      dup4\n        /* \"#utility.yul\":4146:4176   */\n      calldatacopy\n        /* \"#utility.yul\":4210:4211   */\n      0x00\n        /* \"#utility.yul\":4201:4207   */\n      dup4\n        /* \"#utility.yul\":4196:4199   */\n      dup4\n        /* \"#utility.yul\":4192:4208   */\n      add\n        /* \"#utility.yul\":4185:4212   */\n      mstore\n        /* \"#utility.yul\":4072:4218   */\n      pop\n      pop\n      pop\n      jump\t// out\n        /* \"#utility.yul\":4224:4647   */\n    tag_214:\n        /* \"#utility.yul\":4301:4306   */\n      0x00\n        /* \"#utility.yul\":4326:4391   */\n      tag_289\n        /* \"#utility.yul\":4342:4390   */\n      tag_290\n        /* \"#utility.yul\":4383:4389   */\n      dup5\n        /* \"#utility.yul\":4342:4390   */\n      tag_212\n      jump\t// in\n    tag_290:\n        /* \"#utility.yul\":4326:4391   */\n      tag_211\n      jump\t// in\n    tag_289:\n        /* \"#utility.yul\":4317:4391   */\n      swap1\n      pop\n        /* \"#utility.yul\":4414:4420   */\n      dup3\n        /* \"#utility.yul\":4407:4412   */\n      dup2\n        /* \"#utility.yul\":4400:4421   */\n      mstore\n        /* \"#utility.yul\":4452:4456   */\n      0x20\n        /* \"#utility.yul\":4445:4450   */\n      dup2\n        /* \"#utility.yul\":4441:4457   */\n      add\n        /* \"#utility.yul\":4490:4493   */\n      dup5\n        /* \"#utility.yul\":4481:4487   */\n      dup5\n        /* \"#utility.yul\":4476:4479   */\n      dup5\n        /* \"#utility.yul\":4472:4488   */\n      add\n        /* \"#utility.yul\":4469:4494   */\n      gt\n        /* \"#utility.yul\":4466:4578   */\n      iszero\n      tag_291\n      jumpi\n        /* \"#utility.yul\":4497:4576   */\n      tag_292\n      tag_208\n      jump\t// in\n    tag_292:\n        /* \"#utility.yul\":4466:4578   */\n    tag_291:\n        /* \"#utility.yul\":4587:4641   */\n      tag_293\n        /* \"#utility.yul\":4634:4640   */\n      dup5\n        /* \"#utility.yul\":4629:4632   */\n      dup3\n        /* \"#utility.yul\":4624:4627   */\n      dup6\n        /* \"#utility.yul\":4587:4641   */\n      tag_213\n      jump\t// in\n    tag_293:\n        /* \"#utility.yul\":4307:4647   */\n      pop\n        /* \"#utility.yul\":4224:4647   */\n      swap4\n      swap3\n      pop\n      pop\n      pop\n      jump\t// out\n        /* \"#utility.yul\":4666:5004   */\n    tag_215:\n        /* \"#utility.yul\":4721:4726   */\n      0x00\n        /* \"#utility.yul\":4770:4773   */\n      dup3\n        /* \"#utility.yul\":4763:4767   */\n      0x1f\n        /* \"#utility.yul\":4755:4761   */\n      dup4\n        /* \"#utility.yul\":4751:4768   */\n      add\n        /* \"#utility.yul\":4747:4774   */\n      slt\n        /* \"#utility.yul\":4737:4859   */\n      tag_295\n      jumpi\n        /* \"#utility.yul\":4778:4857   */\n      tag_296\n      tag_202\n      jump\t// in\n    tag_296:\n        /* \"#utility.yul\":4737:4859   */\n    tag_295:\n        /* \"#utility.yul\":4895:4901   */\n      dup2\n        /* \"#utility.yul\":4882:4902   */\n      calldataload\n        /* \"#utility.yul\":4920:4998   */\n      tag_297\n        /* \"#utility.yul\":4994:4997   */\n      dup5\n        /* \"#utility.yul\":4986:4992   */\n      dup3\n        /* \"#utility.yul\":4979:4983   */\n      0x20\n        /* \"#utility.yul\":4971:4977   */\n      dup7\n        /* \"#utility.yul\":4967:4984   */\n      add\n        /* \"#utility.yul\":4920:4998   */\n      tag_214\n      jump\t// in\n    tag_297:\n        /* \"#utility.yul\":4911:4998   */\n      swap2\n      pop\n        /* \"#utility.yul\":4727:5004   */\n      pop\n        /* \"#utility.yul\":4666:5004   */\n      swap3\n      swap2\n      pop\n      pop\n      jump\t// out\n        /* \"#utility.yul\":5010:5517   */\n    tag_13:\n        /* \"#utility.yul\":5078:5084   */\n      0x00\n        /* \"#utility.yul\":5127:5129   */\n      0x20\n        /* \"#utility.yul\":5115:5124   */\n      dup3\n        /* \"#utility.yul\":5106:5113   */\n      dup5\n        /* \"#utility.yul\":5102:5125   */\n      sub\n        /* \"#utility.yul\":5098:5130   */\n      slt\n        /* \"#utility.yul\":5095:5214   */\n      iszero\n      tag_299\n      jumpi\n        /* \"#utility.yul\":5133:5212   */\n      tag_300\n      tag_200\n      jump\t// in\n    tag_300:\n        /* \"#utility.yul\":5095:5214   */\n    tag_299:\n        /* \"#utility.yul\":5281:5282   */\n      0x00\n        /* \"#utility.yul\":5270:5279   */\n      dup3\n        /* \"#utility.yul\":5266:5283   */\n      add\n        /* \"#utility.yul\":5253:5284   */\n      calldataload\n        /* \"#utility.yul\":5311:5329   */\n      0xffffffffffffffff\n        /* \"#utility.yul\":5303:5309   */\n      dup2\n        /* \"#utility.yul\":5300:5330   */\n      gt\n        /* \"#utility.yul\":5297:5414   */\n      iszero\n      tag_301\n      jumpi\n        /* \"#utility.yul\":5333:5412   */\n      tag_302\n      tag_201\n      jump\t// in\n    tag_302:\n        /* \"#utility.yul\":5297:5414   */\n    tag_301:\n        /* \"#utility.yul\":5438:5500   */\n      tag_303\n        /* \"#utility.yul\":5492:5499   */\n      dup5\n        /* \"#utility.yul\":5483:5489   */\n      dup3\n        /* \"#utility.yul\":5472:5481   */\n      dup6\n        /* \"#utility.yul\":5468:5490   */\n      add\n        /* \"#utility.yul\":5438:5500   */\n      tag_215\n      jump\t// in\n    tag_303:\n        /* \"#utility.yul\":5428:5500   */\n      swap2\n      pop\n        /* \"#utility.yul\":5224:5510   */\n      pop\n        /* \"#utility.yul\":5010:5517   */\n      swap3\n      swap2\n      pop\n      pop\n      jump\t// out\n        /* \"#utility.yul\":5523:5621   */\n    tag_216:\n        /* \"#utility.yul\":5574:5580   */\n      0x00\n        /* \"#utility.yul\":5608:5613   */\n      dup2\n        /* \"#utility.yul\":5602:5614   */\n      mload\n        /* \"#utility.yul\":5592:5614   */\n      swap1\n      pop\n        /* \"#utility.yul\":5523:5621   */\n      swap2\n      swap1\n      pop\n      jump\t// out\n        /* \"#utility.yul\":5627:5795   */\n    tag_217:\n        /* \"#utility.yul\":5710:5721   */\n      0x00\n        /* \"#utility.yul\":5744:5750   */\n      dup3\n        /* \"#utility.yul\":5739:5742   */\n      dup3\n        /* \"#utility.yul\":5732:5751   */\n      mstore\n        /* \"#utility.yul\":5784:5788   */\n      0x20\n        /* \"#utility.yul\":5779:5782   */\n      dup3\n        /* \"#utility.yul\":5775:5789   */\n      add\n        /* \"#utility.yul\":5760:5789   */\n      swap1\n      pop\n        /* \"#utility.yul\":5627:5795   */\n      swap3\n      swap2\n      pop\n      pop\n      jump\t// out\n        /* \"#utility.yul\":5801:6047   */\n    tag_218:\n        /* \"#utility.yul\":5882:5883   */\n      0x00\n        /* \"#utility.yul\":5892:6005   */\n    tag_307:\n        /* \"#utility.yul\":5906:5912   */\n      dup4\n        /* \"#utility.yul\":5903:5904   */\n      dup2\n        /* \"#utility.yul\":5900:5913   */\n      lt\n        /* \"#utility.yul\":5892:6005   */\n      iszero\n      tag_309\n      jumpi\n        /* \"#utility.yul\":5991:5992   */\n      dup1\n        /* \"#utility.yul\":5986:5989   */\n      dup3\n        /* \"#utility.yul\":5982:5993   */\n      add\n        /* \"#utility.yul\":5976:5994   */\n      mload\n        /* \"#utility.yul\":5972:5973   */\n      dup2\n        /* \"#utility.yul\":5967:5970   */\n      dup5\n        /* \"#utility.yul\":5963:5974   */\n      add\n        /* \"#utility.yul\":5956:5995   */\n      mstore\n        /* \"#utility.yul\":5928:5930   */\n      0x20\n        /* \"#utility.yul\":5925:5926   */\n      dup2\n        /* \"#utility.yul\":5921:5931   */\n      add\n        /* \"#utility.yul\":5916:5931   */\n      swap1\n      pop\n        /* \"#utility.yul\":5892:6005   */\n      jump(tag_307)\n    tag_309:\n        /* \"#utility.yul\":6039:6040   */\n      0x00\n        /* \"#utility.yul\":6030:6036   */\n      dup5\n        /* \"#utility.yul\":6025:6028   */\n      dup5\n        /* \"#utility.yul\":6021:6037   */\n      add\n        /* \"#utility.yul\":6014:6041   */\n      mstore\n        /* \"#utility.yul\":5863:6047   */\n      pop\n        /* \"#utility.yul\":5801:6047   */\n      pop\n      pop\n      pop\n      jump\t// out\n        /* \"#utility.yul\":6053:6426   */\n    tag_219:\n        /* \"#utility.yul\":6139:6142   */\n      0x00\n        /* \"#utility.yul\":6167:6205   */\n      tag_311\n        /* \"#utility.yul\":6199:6204   */\n      dup3\n        /* \"#utility.yul\":6167:6205   */\n      tag_216\n      jump\t// in\n    tag_311:\n        /* \"#utility.yul\":6221:6291   */\n      tag_312\n        /* \"#utility.yul\":6284:6290   */\n      dup2\n        /* \"#utility.yul\":6279:6282   */\n      dup6\n        /* \"#utility.yul\":6221:6291   */\n      tag_217\n      jump\t// in\n    tag_312:\n        /* \"#utility.yul\":6214:6291   */\n      swap4\n      pop\n        /* \"#utility.yul\":6300:6365   */\n      tag_313\n        /* \"#utility.yul\":6358:6364   */\n      dup2\n        /* \"#utility.yul\":6353:6356   */\n      dup6\n        /* \"#utility.yul\":6346:6350   */\n      0x20\n        /* \"#utility.yul\":6339:6344   */\n      dup7\n        /* \"#utility.yul\":6335:6351   */\n      add\n        /* \"#utility.yul\":6300:6365   */\n      tag_218\n      jump\t// in\n    tag_313:\n        /* \"#utility.yul\":6390:6419   */\n      tag_314\n        /* \"#utility.yul\":6412:6418   */\n      dup2\n        /* \"#utility.yul\":6390:6419   */\n      tag_209\n      jump\t// in\n    tag_314:\n        /* \"#utility.yul\":6385:6388   */\n      dup5\n        /* \"#utility.yul\":6381:6420   */\n      add\n        /* \"#utility.yul\":6374:6420   */\n      swap2\n      pop\n        /* \"#utility.yul\":6143:6426   */\n      pop\n        /* \"#utility.yul\":6053:6426   */\n      swap3\n      swap2\n      pop\n      pop\n      jump\t// out\n        /* \"#utility.yul\":6432:6938   */\n    tag_16:\n        /* \"#utility.yul\":6589:6593   */\n      0x00\n        /* \"#utility.yul\":6627:6629   */\n      0x40\n        /* \"#utility.yul\":6616:6625   */\n      dup3\n        /* \"#utility.yul\":6612:6630   */\n      add\n        /* \"#utility.yul\":6604:6630   */\n      swap1\n      pop\n        /* \"#utility.yul\":6676:6685   */\n      dup2\n        /* \"#utility.yul\":6670:6674   */\n      dup2\n        /* \"#utility.yul\":6666:6686   */\n      sub\n        /* \"#utility.yul\":6662:6663   */\n      0x00\n        /* \"#utility.yul\":6651:6660   */\n      dup4\n        /* \"#utility.yul\":6647:6664   */\n      add\n        /* \"#utility.yul\":6640:6687   */\n      mstore\n        /* \"#utility.yul\":6704:6780   */\n      tag_316\n        /* \"#utility.yul\":6775:6779   */\n      dup2\n        /* \"#utility.yul\":6766:6772   */\n      dup6\n        /* \"#utility.yul\":6704:6780   */\n      tag_219\n      jump\t// in\n    tag_316:\n        /* \"#utility.yul\":6696:6780   */\n      swap1\n      pop\n        /* \"#utility.yul\":6827:6836   */\n      dup2\n        /* \"#utility.yul\":6821:6825   */\n      dup2\n        /* \"#utility.yul\":6817:6837   */\n      sub\n        /* \"#utility.yul\":6812:6814   */\n      0x20\n        /* \"#utility.yul\":6801:6810   */\n      dup4\n        /* \"#utility.yul\":6797:6815   */\n      add\n        /* \"#utility.yul\":6790:6838   */\n      mstore\n        /* \"#utility.yul\":6855:6931   */\n      tag_317\n        /* \"#utility.yul\":6926:6930   */\n      dup2\n        /* \"#utility.yul\":6917:6923   */\n      dup5\n        /* \"#utility.yul\":6855:6931   */\n      tag_219\n      jump\t// in\n    tag_317:\n        /* \"#utility.yul\":6847:6931   */\n      swap1\n      pop\n        /* \"#utility.yul\":6432:6938   */\n      swap4\n      swap3\n      pop\n      pop\n      pop\n      jump\t// out\n        /* \"#utility.yul\":6944:7021   */\n    tag_220:\n        /* \"#utility.yul\":6981:6988   */\n      0x00\n        /* \"#utility.yul\":7010:7015   */\n      dup2\n        /* \"#utility.yul\":6999:7015   */\n      swap1\n      pop\n        /* \"#utility.yul\":6944:7021   */\n      swap2\n      swap1\n      pop\n      jump\t// out\n        /* \"#utility.yul\":7027:7207   */\n    tag_221:\n        /* \"#utility.yul\":7075:7152   */\n      0x4e487b7100000000000000000000000000000000000000000000000000000000\n        /* \"#utility.yul\":7072:7073   */\n      0x00\n        /* \"#utility.yul\":7065:7153   */\n      mstore\n        /* \"#utility.yul\":7172:7176   */\n      0x11\n        /* \"#utility.yul\":7169:7170   */\n      0x04\n        /* \"#utility.yul\":7162:7177   */\n      mstore\n        /* \"#utility.yul\":7196:7200   */\n      0x24\n        /* \"#utility.yul\":7193:7194   */\n      0x00\n        /* \"#utility.yul\":7186:7201   */\n      revert\n        /* \"#utility.yul\":7213:7407   */\n    tag_24:\n        /* \"#utility.yul\":7253:7257   */\n      0x00\n        /* \"#utility.yul\":7273:7293   */\n      tag_321\n        /* \"#utility.yul\":7291:7292   */\n      dup3\n        /* \"#utility.yul\":7273:7293   */\n      tag_220\n      jump\t// in\n    tag_321:\n        /* \"#utility.yul\":7268:7293   */\n      swap2\n      pop\n        /* \"#utility.yul\":7307:7327   */\n      tag_322\n        /* \"#utility.yul\":7325:7326   */\n      dup4\n        /* \"#utility.yul\":7307:7327   */\n      tag_220\n      jump\t// in\n    tag_322:\n        /* \"#utility.yul\":7302:7327   */\n      swap3\n      pop\n        /* \"#utility.yul\":7351:7352   */\n      dup3\n        /* \"#utility.yul\":7348:7349   */\n      dup3\n        /* \"#utility.yul\":7344:7353   */\n      sub\n        /* \"#utility.yul\":7336:7353   */\n      swap1\n      pop\n        /* \"#utility.yul\":7375:7376   */\n      dup2\n        /* \"#utility.yul\":7369:7373   */\n      dup2\n        /* \"#utility.yul\":7366:7377   */\n      gt\n        /* \"#utility.yul\":7363:7400   */\n      iszero\n      tag_323\n      jumpi\n        /* \"#utility.yul\":7380:7398   */\n      tag_324\n      tag_221\n      jump\t// in\n    tag_324:\n        /* \"#utility.yul\":7363:7400   */\n    tag_323:\n        /* \"#utility.yul\":7213:7407   */\n      swap3\n      swap2\n      pop\n      pop\n      jump\t// out\n        /* \"#utility.yul\":7413:7560   */\n    tag_222:\n        /* \"#utility.yul\":7514:7525   */\n      0x00\n        /* \"#utility.yul\":7551:7554   */\n      dup2\n        /* \"#utility.yul\":7536:7554   */\n      swap1\n      pop\n        /* \"#utility.yul\":7413:7560   */\n      swap3\n      swap2\n      pop\n      pop\n      jump\t// out\n        /* \"#utility.yul\":7588:7915   */\n    tag_223:\n        /* \"#utility.yul\":7702:7705   */\n      0x00\n        /* \"#utility.yul\":7723:7811   */\n      tag_327\n        /* \"#utility.yul\":7804:7810   */\n      dup4\n        /* \"#utility.yul\":7799:7802   */\n      dup6\n        /* \"#utility.yul\":7723:7811   */\n      tag_222\n      jump\t// in\n    tag_327:\n        /* \"#utility.yul\":7716:7811   */\n      swap4\n      pop\n        /* \"#utility.yul\":7821:7877   */\n      tag_328\n        /* \"#utility.yul\":7870:7876   */\n      dup4\n        /* \"#utility.yul\":7865:7868   */\n      dup6\n        /* \"#utility.yul\":7858:7863   */\n      dup5\n        /* \"#utility.yul\":7821:7877   */\n      tag_213\n      jump\t// in\n    tag_328:\n        /* \"#utility.yul\":7902:7908   */\n      dup3\n        /* \"#utility.yul\":7897:7900   */\n      dup5\n        /* \"#utility.yul\":7893:7909   */\n      add\n        /* \"#utility.yul\":7886:7909   */\n      swap1\n      pop\n        /* \"#utility.yul\":7588:7915   */\n      swap4\n      swap3\n      pop\n      pop\n      pop\n      jump\t// out\n        /* \"#utility.yul\":7921:8212   */\n    tag_27:\n        /* \"#utility.yul\":8061:8064   */\n      0x00\n        /* \"#utility.yul\":8083:8186   */\n      tag_330\n        /* \"#utility.yul\":8182:8185   */\n      dup3\n        /* \"#utility.yul\":8173:8179   */\n      dup5\n        /* \"#utility.yul\":8165:8171   */\n      dup7\n        /* \"#utility.yul\":8083:8186   */\n      tag_223\n      jump\t// in\n    tag_330:\n        /* \"#utility.yul\":8076:8186   */\n      swap2\n      pop\n        /* \"#utility.yul\":8203:8206   */\n      dup2\n        /* \"#utility.yul\":8196:8206   */\n      swap1\n      pop\n        /* \"#utility.yul\":7921:8212   */\n      swap4\n      swap3\n      pop\n      pop\n      pop\n      jump\t// out\n        /* \"#utility.yul\":8218:8295   */\n    tag_224:\n        /* \"#utility.yul\":8255:8262   */\n      0x00\n        /* \"#utility.yul\":8284:8289   */\n      dup2\n        /* \"#utility.yul\":8273:8289   */\n      swap1\n      pop\n        /* \"#utility.yul\":8218:8295   */\n      swap2\n      swap1\n      pop\n      jump\t// out\n        /* \"#utility.yul\":8301:8423   */\n    tag_225:\n        /* \"#utility.yul\":8374:8398   */\n      tag_333\n        /* \"#utility.yul\":8392:8397   */\n      dup2\n        /* \"#utility.yul\":8374:8398   */\n      tag_224\n      jump\t// in\n    tag_333:\n        /* \"#utility.yul\":8367:8372   */\n      dup2\n        /* \"#utility.yul\":8364:8399   */\n      eq\n        /* \"#utility.yul\":8354:8417   */\n      tag_334\n      jumpi\n        /* \"#utility.yul\":8413:8414   */\n      0x00\n        /* \"#utility.yul\":8410:8411   */\n      dup1\n        /* \"#utility.yul\":8403:8415   */\n      revert\n        /* \"#utility.yul\":8354:8417   */\n    tag_334:\n        /* \"#utility.yul\":8301:8423   */\n      pop\n      jump\t// out\n        /* \"#utility.yul\":8429:8572   */\n    tag_226:\n        /* \"#utility.yul\":8486:8491   */\n      0x00\n        /* \"#utility.yul\":8517:8523   */\n      dup2\n        /* \"#utility.yul\":8511:8524   */\n      mload\n        /* \"#utility.yul\":8502:8524   */\n      swap1\n      pop\n        /* \"#utility.yul\":8533:8566   */\n      tag_336\n        /* \"#utility.yul\":8560:8565   */\n      dup2\n        /* \"#utility.yul\":8533:8566   */\n      tag_225\n      jump\t// in\n    tag_336:\n        /* \"#utility.yul\":8429:8572   */\n      swap3\n      swap2\n      pop\n      pop\n      jump\t// out\n        /* \"#utility.yul\":8578:8929   */\n    tag_31:\n        /* \"#utility.yul\":8648:8654   */\n      0x00\n        /* \"#utility.yul\":8697:8699   */\n      0x20\n        /* \"#utility.yul\":8685:8694   */\n      dup3\n        /* \"#utility.yul\":8676:8683   */\n      dup5\n        /* \"#utility.yul\":8672:8695   */\n      sub\n        /* \"#utility.yul\":8668:8700   */\n      slt\n        /* \"#utility.yul\":8665:8784   */\n      iszero\n      tag_338\n      jumpi\n        /* \"#utility.yul\":8703:8782   */\n      tag_339\n      tag_200\n      jump\t// in\n    tag_339:\n        /* \"#utility.yul\":8665:8784   */\n    tag_338:\n        /* \"#utility.yul\":8823:8824   */\n      0x00\n        /* \"#utility.yul\":8848:8912   */\n      tag_340\n        /* \"#utility.yul\":8904:8911   */\n      dup5\n        /* \"#utility.yul\":8895:8901   */\n      dup3\n        /* \"#utility.yul\":8884:8893   */\n      dup6\n        /* \"#utility.yul\":8880:8902   */\n      add\n        /* \"#utility.yul\":8848:8912   */\n      tag_226\n      jump\t// in\n    tag_340:\n        /* \"#utility.yul\":8838:8912   */\n      swap2\n      pop\n        /* \"#utility.yul\":8794:8922   */\n      pop\n        /* \"#utility.yul\":8578:8929   */\n      swap3\n      swap2\n      pop\n      pop\n      jump\t// out\n        /* \"#utility.yul\":8935:9104   */\n    tag_227:\n        /* \"#utility.yul\":9019:9030   */\n      0x00\n        /* \"#utility.yul\":9053:9059   */\n      dup3\n        /* \"#utility.yul\":9048:9051   */\n      dup3\n        /* \"#utility.yul\":9041:9060   */\n      mstore\n        /* \"#utility.yul\":9093:9097   */\n      0x20\n        /* \"#utility.yul\":9088:9091   */\n      dup3\n        /* \"#utility.yul\":9084:9098   */\n      add\n        /* \"#utility.yul\":9069:9098   */\n      swap1\n      pop\n        /* \"#utility.yul\":8935:9104   */\n      swap3\n      swap2\n      pop\n      pop\n      jump\t// out\n        /* \"#utility.yul\":9110:9271   */\n    tag_228:\n        /* \"#utility.yul\":9250:9263   */\n      0x496e76616c6964206b6579000000000000000000000000000000000000000000\n        /* \"#utility.yul\":9246:9247   */\n      0x00\n        /* \"#utility.yul\":9238:9244   */\n      dup3\n        /* \"#utility.yul\":9234:9248   */\n      add\n        /* \"#utility.yul\":9227:9264   */\n      mstore\n        /* \"#utility.yul\":9110:9271   */\n      pop\n      jump\t// out\n        /* \"#utility.yul\":9277:9643   */\n    tag_229:\n        /* \"#utility.yul\":9419:9422   */\n      0x00\n        /* \"#utility.yul\":9440:9507   */\n      tag_344\n        /* \"#utility.yul\":9504:9506   */\n      0x0b\n        /* \"#utility.yul\":9499:9502   */\n      dup4\n        /* \"#utility.yul\":9440:9507   */\n      tag_227\n      jump\t// in\n    tag_344:\n        /* \"#utility.yul\":9433:9507   */\n      swap2\n      pop\n        /* \"#utility.yul\":9516:9609   */\n      tag_345\n        /* \"#utility.yul\":9605:9608   */\n      dup3\n        /* \"#utility.yul\":9516:9609   */\n      tag_228\n      jump\t// in\n    tag_345:\n        /* \"#utility.yul\":9634:9636   */\n      0x20\n        /* \"#utility.yul\":9629:9632   */\n      dup3\n        /* \"#utility.yul\":9625:9637   */\n      add\n        /* \"#utility.yul\":9618:9637   */\n      swap1\n      pop\n        /* \"#utility.yul\":9277:9643   */\n      swap2\n      swap1\n      pop\n      jump\t// out\n        /* \"#utility.yul\":9649:10068   */\n    tag_42:\n        /* \"#utility.yul\":9815:9819   */\n      0x00\n        /* \"#utility.yul\":9853:9855   */\n      0x20\n        /* \"#utility.yul\":9842:9851   */\n      dup3\n        /* \"#utility.yul\":9838:9856   */\n      add\n        /* \"#utility.yul\":9830:9856   */\n      swap1\n      pop\n        /* \"#utility.yul\":9902:9911   */\n      dup2\n        /* \"#utility.yul\":9896:9900   */\n      dup2\n        /* \"#utility.yul\":9892:9912   */\n      sub\n        /* \"#utility.yul\":9888:9889   */\n      0x00\n        /* \"#utility.yul\":9877:9886   */\n      dup4\n        /* \"#utility.yul\":9873:9890   */\n      add\n        /* \"#utility.yul\":9866:9913   */\n      mstore\n        /* \"#utility.yul\":9930:10061   */\n      tag_347\n        /* \"#utility.yul\":10056:10060   */\n      dup2\n        /* \"#utility.yul\":9930:10061   */\n      tag_229\n      jump\t// in\n    tag_347:\n        /* \"#utility.yul\":9922:10061   */\n      swap1\n      pop\n        /* \"#utility.yul\":9649:10068   */\n      swap2\n      swap1\n      pop\n      jump\t// out\n        /* \"#utility.yul\":10074:10265   */\n    tag_57:\n        /* \"#utility.yul\":10114:10117   */\n      0x00\n        /* \"#utility.yul\":10133:10153   */\n      tag_349\n        /* \"#utility.yul\":10151:10152   */\n      dup3\n        /* \"#utility.yul\":10133:10153   */\n      tag_220\n      jump\t// in\n    tag_349:\n        /* \"#utility.yul\":10128:10153   */\n      swap2\n      pop\n        /* \"#utility.yul\":10167:10187   */\n      tag_350\n        /* \"#utility.yul\":10185:10186   */\n      dup4\n        /* \"#utility.yul\":10167:10187   */\n      tag_220\n      jump\t// in\n    tag_350:\n        /* \"#utility.yul\":10162:10187   */\n      swap3\n      pop\n        /* \"#utility.yul\":10210:10211   */\n      dup3\n        /* \"#utility.yul\":10207:10208   */\n      dup3\n        /* \"#utility.yul\":10203:10212   */\n      add\n        /* \"#utility.yul\":10196:10212   */\n      swap1\n      pop\n        /* \"#utility.yul\":10231:10234   */\n      dup1\n        /* \"#utility.yul\":10228:10229   */\n      dup3\n        /* \"#utility.yul\":10225:10235   */\n      gt\n        /* \"#utility.yul\":10222:10258   */\n      iszero\n      tag_351\n      jumpi\n        /* \"#utility.yul\":10238:10256   */\n      tag_352\n      tag_221\n      jump\t// in\n    tag_352:\n        /* \"#utility.yul\":10222:10258   */\n    tag_351:\n        /* \"#utility.yul\":10074:10265   */\n      swap3\n      swap2\n      pop\n      pop\n      jump\t// out\n        /* \"#utility.yul\":10271:10451   */\n    tag_67:\n        /* \"#utility.yul\":10319:10396   */\n      0x4e487b7100000000000000000000000000000000000000000000000000000000\n        /* \"#utility.yul\":10316:10317   */\n      0x00\n        /* \"#utility.yul\":10309:10397   */\n      mstore\n        /* \"#utility.yul\":10416:10420   */\n      0x32\n        /* \"#utility.yul\":10413:10414   */\n      0x04\n        /* \"#utility.yul\":10406:10421   */\n      mstore\n        /* \"#utility.yul\":10440:10444   */\n      0x24\n        /* \"#utility.yul\":10437:10438   */\n      0x00\n        /* \"#utility.yul\":10430:10445   */\n      revert\n        /* \"#utility.yul\":10457:10678   */\n    tag_230:\n        /* \"#utility.yul\":10597:10631   */\n      0x41736e316465636f64653a204e6f74206120636f6e7374727563746564207479\n        /* \"#utility.yul\":10593:10594   */\n      0x00\n        /* \"#utility.yul\":10585:10591   */\n      dup3\n        /* \"#utility.yul\":10581:10595   */\n      add\n        /* \"#utility.yul\":10574:10632   */\n      mstore\n        /* \"#utility.yul\":10666:10670   */\n      0x7065000000000000000000000000000000000000000000000000000000000000\n        /* \"#utility.yul\":10661:10663   */\n      0x20\n        /* \"#utility.yul\":10653:10659   */\n      dup3\n        /* \"#utility.yul\":10649:10664   */\n      add\n        /* \"#utility.yul\":10642:10671   */\n      mstore\n        /* \"#utility.yul\":10457:10678   */\n      pop\n      jump\t// out\n        /* \"#utility.yul\":10684:11050   */\n    tag_231:\n        /* \"#utility.yul\":10826:10829   */\n      0x00\n        /* \"#utility.yul\":10847:10914   */\n      tag_356\n        /* \"#utility.yul\":10911:10913   */\n      0x22\n        /* \"#utility.yul\":10906:10909   */\n      dup4\n        /* \"#utility.yul\":10847:10914   */\n      tag_227\n      jump\t// in\n    tag_356:\n        /* \"#utility.yul\":10840:10914   */\n      swap2\n      pop\n        /* \"#utility.yul\":10923:11016   */\n      tag_357\n        /* \"#utility.yul\":11012:11015   */\n      dup3\n        /* \"#utility.yul\":10923:11016   */\n      tag_230\n      jump\t// in\n    tag_357:\n        /* \"#utility.yul\":11041:11043   */\n      0x40\n        /* \"#utility.yul\":11036:11039   */\n      dup3\n        /* \"#utility.yul\":11032:11044   */\n      add\n        /* \"#utility.yul\":11025:11044   */\n      swap1\n      pop\n        /* \"#utility.yul\":10684:11050   */\n      swap2\n      swap1\n      pop\n      jump\t// out\n        /* \"#utility.yul\":11056:11475   */\n    tag_70:\n        /* \"#utility.yul\":11222:11226   */\n      0x00\n        /* \"#utility.yul\":11260:11262   */\n      0x20\n        /* \"#utility.yul\":11249:11258   */\n      dup3\n        /* \"#utility.yul\":11245:11263   */\n      add\n        /* \"#utility.yul\":11237:11263   */\n      swap1\n      pop\n        /* \"#utility.yul\":11309:11318   */\n      dup2\n        /* \"#utility.yul\":11303:11307   */\n      dup2\n        /* \"#utility.yul\":11299:11319   */\n      sub\n        /* \"#utility.yul\":11295:11296   */\n      0x00\n        /* \"#utility.yul\":11284:11293   */\n      dup4\n        /* \"#utility.yul\":11280:11297   */\n      add\n        /* \"#utility.yul\":11273:11320   */\n      mstore\n        /* \"#utility.yul\":11337:11468   */\n      tag_359\n        /* \"#utility.yul\":11463:11467   */\n      dup2\n        /* \"#utility.yul\":11337:11468   */\n      tag_231\n      jump\t// in\n    tag_359:\n        /* \"#utility.yul\":11329:11468   */\n      swap1\n      pop\n        /* \"#utility.yul\":11056:11475   */\n      swap2\n      swap1\n      pop\n      jump\t// out\n        /* \"#utility.yul\":11481:11650   */\n    tag_232:\n        /* \"#utility.yul\":11621:11642   */\n      0x4e6f7420747970652042495420535452494e4700000000000000000000000000\n        /* \"#utility.yul\":11617:11618   */\n      0x00\n        /* \"#utility.yul\":11609:11615   */\n      dup3\n        /* \"#utility.yul\":11605:11619   */\n      add\n        /* \"#utility.yul\":11598:11643   */\n      mstore\n        /* \"#utility.yul\":11481:11650   */\n      pop\n      jump\t// out\n        /* \"#utility.yul\":11656:12022   */\n    tag_233:\n        /* \"#utility.yul\":11798:11801   */\n      0x00\n        /* \"#utility.yul\":11819:11886   */\n      tag_362\n        /* \"#utility.yul\":11883:11885   */\n      0x13\n        /* \"#utility.yul\":11878:11881   */\n      dup4\n        /* \"#utility.yul\":11819:11886   */\n      tag_227\n      jump\t// in\n    tag_362:\n        /* \"#utility.yul\":11812:11886   */\n      swap2\n      pop\n        /* \"#utility.yul\":11895:11988   */\n      tag_363\n        /* \"#utility.yul\":11984:11987   */\n      dup3\n        /* \"#utility.yul\":11895:11988   */\n      tag_232\n      jump\t// in\n    tag_363:\n        /* \"#utility.yul\":12013:12015   */\n      0x20\n        /* \"#utility.yul\":12008:12011   */\n      dup3\n        /* \"#utility.yul\":12004:12016   */\n      add\n        /* \"#utility.yul\":11997:12016   */\n      swap1\n      pop\n        /* \"#utility.yul\":11656:12022   */\n      swap2\n      swap1\n      pop\n      jump\t// out\n        /* \"#utility.yul\":12028:12447   */\n    tag_93:\n        /* \"#utility.yul\":12194:12198   */\n      0x00\n        /* \"#utility.yul\":12232:12234   */\n      0x20\n        /* \"#utility.yul\":12221:12230   */\n      dup3\n        /* \"#utility.yul\":12217:12235   */\n      add\n        /* \"#utility.yul\":12209:12235   */\n      swap1\n      pop\n        /* \"#utility.yul\":12281:12290   */\n      dup2\n        /* \"#utility.yul\":12275:12279   */\n      dup2\n        /* \"#utility.yul\":12271:12291   */\n      sub\n        /* \"#utility.yul\":12267:12268   */\n      0x00\n        /* \"#utility.yul\":12256:12265   */\n      dup4\n        /* \"#utility.yul\":12252:12269   */\n      add\n        /* \"#utility.yul\":12245:12292   */\n      mstore\n        /* \"#utility.yul\":12309:12440   */\n      tag_365\n        /* \"#utility.yul\":12435:12439   */\n      dup2\n        /* \"#utility.yul\":12309:12440   */\n      tag_233\n      jump\t// in\n    tag_365:\n        /* \"#utility.yul\":12301:12440   */\n      swap1\n      pop\n        /* \"#utility.yul\":12028:12447   */\n      swap2\n      swap1\n      pop\n      jump\t// out\n        /* \"#utility.yul\":12453:12619   */\n    tag_234:\n        /* \"#utility.yul\":12593:12611   */\n      0x4e6f74207479706520494e544547455200000000000000000000000000000000\n        /* \"#utility.yul\":12589:12590   */\n      0x00\n        /* \"#utility.yul\":12581:12587   */\n      dup3\n        /* \"#utility.yul\":12577:12591   */\n      add\n        /* \"#utility.yul\":12570:12612   */\n      mstore\n        /* \"#utility.yul\":12453:12619   */\n      pop\n      jump\t// out\n        /* \"#utility.yul\":12625:12991   */\n    tag_235:\n        /* \"#utility.yul\":12767:12770   */\n      0x00\n        /* \"#utility.yul\":12788:12855   */\n      tag_368\n        /* \"#utility.yul\":12852:12854   */\n      0x10\n        /* \"#utility.yul\":12847:12850   */\n      dup4\n        /* \"#utility.yul\":12788:12855   */\n      tag_227\n      jump\t// in\n    tag_368:\n        /* \"#utility.yul\":12781:12855   */\n      swap2\n      pop\n        /* \"#utility.yul\":12864:12957   */\n      tag_369\n        /* \"#utility.yul\":12953:12956   */\n      dup3\n        /* \"#utility.yul\":12864:12957   */\n      tag_234\n      jump\t// in\n    tag_369:\n        /* \"#utility.yul\":12982:12984   */\n      0x20\n        /* \"#utility.yul\":12977:12980   */\n      dup3\n        /* \"#utility.yul\":12973:12985   */\n      add\n        /* \"#utility.yul\":12966:12985   */\n      swap1\n      pop\n        /* \"#utility.yul\":12625:12991   */\n      swap2\n      swap1\n      pop\n      jump\t// out\n        /* \"#utility.yul\":12997:13416   */\n    tag_103:\n        /* \"#utility.yul\":13163:13167   */\n      0x00\n        /* \"#utility.yul\":13201:13203   */\n      0x20\n        /* \"#utility.yul\":13190:13199   */\n      dup3\n        /* \"#utility.yul\":13186:13204   */\n      add\n        /* \"#utility.yul\":13178:13204   */\n      swap1\n      pop\n        /* \"#utility.yul\":13250:13259   */\n      dup2\n        /* \"#utility.yul\":13244:13248   */\n      dup2\n        /* \"#utility.yul\":13240:13260   */\n      sub\n        /* \"#utility.yul\":13236:13237   */\n      0x00\n        /* \"#utility.yul\":13225:13234   */\n      dup4\n        /* \"#utility.yul\":13221:13238   */\n      add\n        /* \"#utility.yul\":13214:13261   */\n      mstore\n        /* \"#utility.yul\":13278:13409   */\n      tag_371\n        /* \"#utility.yul\":13404:13408   */\n      dup2\n        /* \"#utility.yul\":13278:13409   */\n      tag_235\n      jump\t// in\n    tag_371:\n        /* \"#utility.yul\":13270:13409   */\n      swap1\n      pop\n        /* \"#utility.yul\":12997:13416   */\n      swap2\n      swap1\n      pop\n      jump\t// out\n        /* \"#utility.yul\":13422:13584   */\n    tag_236:\n        /* \"#utility.yul\":13562:13576   */\n      0x4e6f7420706f7369746976650000000000000000000000000000000000000000\n        /* \"#utility.yul\":13558:13559   */\n      0x00\n        /* \"#utility.yul\":13550:13556   */\n      dup3\n        /* \"#utility.yul\":13546:13560   */\n      add\n        /* \"#utility.yul\":13539:13577   */\n      mstore\n        /* \"#utility.yul\":13422:13584   */\n      pop\n      jump\t// out\n        /* \"#utility.yul\":13590:13956   */\n    tag_237:\n        /* \"#utility.yul\":13732:13735   */\n      0x00\n        /* \"#utility.yul\":13753:13820   */\n      tag_374\n        /* \"#utility.yul\":13817:13819   */\n      0x0c\n        /* \"#utility.yul\":13812:13815   */\n      dup4\n        /* \"#utility.yul\":13753:13820   */\n      tag_227\n      jump\t// in\n    tag_374:\n        /* \"#utility.yul\":13746:13820   */\n      swap2\n      pop\n        /* \"#utility.yul\":13829:13922   */\n      tag_375\n        /* \"#utility.yul\":13918:13921   */\n      dup3\n        /* \"#utility.yul\":13829:13922   */\n      tag_236\n      jump\t// in\n    tag_375:\n        /* \"#utility.yul\":13947:13949   */\n      0x20\n        /* \"#utility.yul\":13942:13945   */\n      dup3\n        /* \"#utility.yul\":13938:13950   */\n      add\n        /* \"#utility.yul\":13931:13950   */\n      swap1\n      pop\n        /* \"#utility.yul\":13590:13956   */\n      swap2\n      swap1\n      pop\n      jump\t// out\n        /* \"#utility.yul\":13962:14381   */\n    tag_109:\n        /* \"#utility.yul\":14128:14132   */\n      0x00\n        /* \"#utility.yul\":14166:14168   */\n      0x20\n        /* \"#utility.yul\":14155:14164   */\n      dup3\n        /* \"#utility.yul\":14151:14169   */\n      add\n        /* \"#utility.yul\":14143:14169   */\n      swap1\n      pop\n        /* \"#utility.yul\":14215:14224   */\n      dup2\n        /* \"#utility.yul\":14209:14213   */\n      dup2\n        /* \"#utility.yul\":14205:14225   */\n      sub\n        /* \"#utility.yul\":14201:14202   */\n      0x00\n        /* \"#utility.yul\":14190:14199   */\n      dup4\n        /* \"#utility.yul\":14186:14203   */\n      add\n        /* \"#utility.yul\":14179:14226   */\n      mstore\n        /* \"#utility.yul\":14243:14374   */\n      tag_377\n        /* \"#utility.yul\":14369:14373   */\n      dup2\n        /* \"#utility.yul\":14243:14374   */\n      tag_237\n      jump\t// in\n    tag_377:\n        /* \"#utility.yul\":14235:14374   */\n      swap1\n      pop\n        /* \"#utility.yul\":13962:14381   */\n      swap2\n      swap1\n      pop\n      jump\t// out\n        /* \"#utility.yul\":14387:14466   */\n    tag_238:\n        /* \"#utility.yul\":14426:14433   */\n      0x00\n        /* \"#utility.yul\":14455:14460   */\n      dup2\n        /* \"#utility.yul\":14444:14460   */\n      swap1\n      pop\n        /* \"#utility.yul\":14387:14466   */\n      swap2\n      swap1\n      pop\n      jump\t// out\n        /* \"#utility.yul\":14472:14629   */\n    tag_239:\n        /* \"#utility.yul\":14577:14622   */\n      tag_380\n        /* \"#utility.yul\":14597:14621   */\n      tag_381\n        /* \"#utility.yul\":14615:14620   */\n      dup3\n        /* \"#utility.yul\":14597:14621   */\n      tag_220\n      jump\t// in\n    tag_381:\n        /* \"#utility.yul\":14577:14622   */\n      tag_238\n      jump\t// in\n    tag_380:\n        /* \"#utility.yul\":14572:14575   */\n      dup3\n        /* \"#utility.yul\":14565:14623   */\n      mstore\n        /* \"#utility.yul\":14472:14629   */\n      pop\n      pop\n      jump\t// out\n        /* \"#utility.yul\":14635:15021   */\n    tag_240:\n        /* \"#utility.yul\":14739:14742   */\n      0x00\n        /* \"#utility.yul\":14767:14805   */\n      tag_383\n        /* \"#utility.yul\":14799:14804   */\n      dup3\n        /* \"#utility.yul\":14767:14805   */\n      tag_216\n      jump\t// in\n    tag_383:\n        /* \"#utility.yul\":14821:14909   */\n      tag_384\n        /* \"#utility.yul\":14902:14908   */\n      dup2\n        /* \"#utility.yul\":14897:14900   */\n      dup6\n        /* \"#utility.yul\":14821:14909   */\n      tag_222\n      jump\t// in\n    tag_384:\n        /* \"#utility.yul\":14814:14909   */\n      swap4\n      pop\n        /* \"#utility.yul\":14918:14983   */\n      tag_385\n        /* \"#utility.yul\":14976:14982   */\n      dup2\n        /* \"#utility.yul\":14971:14974   */\n      dup6\n        /* \"#utility.yul\":14964:14968   */\n      0x20\n        /* \"#utility.yul\":14957:14962   */\n      dup7\n        /* \"#utility.yul\":14953:14969   */\n      add\n        /* \"#utility.yul\":14918:14983   */\n      tag_218\n      jump\t// in\n    tag_385:\n        /* \"#utility.yul\":15008:15014   */\n      dup1\n        /* \"#utility.yul\":15003:15006   */\n      dup5\n        /* \"#utility.yul\":14999:15015   */\n      add\n        /* \"#utility.yul\":14992:15015   */\n      swap2\n      pop\n        /* \"#utility.yul\":14743:15021   */\n      pop\n        /* \"#utility.yul\":14635:15021   */\n      swap3\n      swap2\n      pop\n      pop\n      jump\t// out\n        /* \"#utility.yul\":15027:16033   */\n    tag_127:\n        /* \"#utility.yul\":15333:15336   */\n      0x00\n        /* \"#utility.yul\":15348:15423   */\n      tag_387\n        /* \"#utility.yul\":15419:15422   */\n      dup3\n        /* \"#utility.yul\":15410:15416   */\n      dup10\n        /* \"#utility.yul\":15348:15423   */\n      tag_239\n      jump\t// in\n    tag_387:\n        /* \"#utility.yul\":15448:15450   */\n      0x20\n        /* \"#utility.yul\":15443:15446   */\n      dup3\n        /* \"#utility.yul\":15439:15451   */\n      add\n        /* \"#utility.yul\":15432:15451   */\n      swap2\n      pop\n        /* \"#utility.yul\":15461:15536   */\n      tag_388\n        /* \"#utility.yul\":15532:15535   */\n      dup3\n        /* \"#utility.yul\":15523:15529   */\n      dup9\n        /* \"#utility.yul\":15461:15536   */\n      tag_239\n      jump\t// in\n    tag_388:\n        /* \"#utility.yul\":15561:15563   */\n      0x20\n        /* \"#utility.yul\":15556:15559   */\n      dup3\n        /* \"#utility.yul\":15552:15564   */\n      add\n        /* \"#utility.yul\":15545:15564   */\n      swap2\n      pop\n        /* \"#utility.yul\":15574:15649   */\n      tag_389\n        /* \"#utility.yul\":15645:15648   */\n      dup3\n        /* \"#utility.yul\":15636:15642   */\n      dup8\n        /* \"#utility.yul\":15574:15649   */\n      tag_239\n      jump\t// in\n    tag_389:\n        /* \"#utility.yul\":15674:15676   */\n      0x20\n        /* \"#utility.yul\":15669:15672   */\n      dup3\n        /* \"#utility.yul\":15665:15677   */\n      add\n        /* \"#utility.yul\":15658:15677   */\n      swap2\n      pop\n        /* \"#utility.yul\":15694:15787   */\n      tag_390\n        /* \"#utility.yul\":15783:15786   */\n      dup3\n        /* \"#utility.yul\":15774:15780   */\n      dup7\n        /* \"#utility.yul\":15694:15787   */\n      tag_240\n      jump\t// in\n    tag_390:\n        /* \"#utility.yul\":15687:15787   */\n      swap2\n      pop\n        /* \"#utility.yul\":15804:15897   */\n      tag_391\n        /* \"#utility.yul\":15893:15896   */\n      dup3\n        /* \"#utility.yul\":15884:15890   */\n      dup6\n        /* \"#utility.yul\":15804:15897   */\n      tag_240\n      jump\t// in\n    tag_391:\n        /* \"#utility.yul\":15797:15897   */\n      swap2\n      pop\n        /* \"#utility.yul\":15914:16007   */\n      tag_392\n        /* \"#utility.yul\":16003:16006   */\n      dup3\n        /* \"#utility.yul\":15994:16000   */\n      dup5\n        /* \"#utility.yul\":15914:16007   */\n      tag_240\n      jump\t// in\n    tag_392:\n        /* \"#utility.yul\":15907:16007   */\n      swap2\n      pop\n        /* \"#utility.yul\":16024:16027   */\n      dup2\n        /* \"#utility.yul\":16017:16027   */\n      swap1\n      pop\n        /* \"#utility.yul\":15027:16033   */\n      swap8\n      swap7\n      pop\n      pop\n      pop\n      pop\n      pop\n      pop\n      pop\n      jump\t// out\n        /* \"#utility.yul\":16039:16125   */\n    tag_241:\n        /* \"#utility.yul\":16074:16081   */\n      0x00\n        /* \"#utility.yul\":16114:16118   */\n      0xff\n        /* \"#utility.yul\":16107:16112   */\n      dup3\n        /* \"#utility.yul\":16103:16119   */\n      and\n        /* \"#utility.yul\":16092:16119   */\n      swap1\n      pop\n        /* \"#utility.yul\":16039:16125   */\n      swap2\n      swap1\n      pop\n      jump\t// out\n        /* \"#utility.yul\":16131:16322   */\n    tag_158:\n        /* \"#utility.yul\":16169:16173   */\n      0x00\n        /* \"#utility.yul\":16189:16207   */\n      tag_395\n        /* \"#utility.yul\":16205:16206   */\n      dup3\n        /* \"#utility.yul\":16189:16207   */\n      tag_241\n      jump\t// in\n    tag_395:\n        /* \"#utility.yul\":16184:16207   */\n      swap2\n      pop\n        /* \"#utility.yul\":16221:16239   */\n      tag_396\n        /* \"#utility.yul\":16237:16238   */\n      dup4\n        /* \"#utility.yul\":16221:16239   */\n      tag_241\n      jump\t// in\n    tag_396:\n        /* \"#utility.yul\":16216:16239   */\n      swap3\n      pop\n        /* \"#utility.yul\":16263:16264   */\n      dup3\n        /* \"#utility.yul\":16260:16261   */\n      dup3\n        /* \"#utility.yul\":16256:16265   */\n      sub\n        /* \"#utility.yul\":16248:16265   */\n      swap1\n      pop\n        /* \"#utility.yul\":16287:16291   */\n      0xff\n        /* \"#utility.yul\":16281:16285   */\n      dup2\n        /* \"#utility.yul\":16278:16292   */\n      gt\n        /* \"#utility.yul\":16275:16315   */\n      iszero\n      tag_397\n      jumpi\n        /* \"#utility.yul\":16295:16313   */\n      tag_398\n      tag_221\n      jump\t// in\n    tag_398:\n        /* \"#utility.yul\":16275:16315   */\n    tag_397:\n        /* \"#utility.yul\":16131:16322   */\n      swap3\n      swap2\n      pop\n      pop\n      jump\t// out\n        /* \"#utility.yul\":16328:16599   */\n    tag_160:\n        /* \"#utility.yul\":16366:16373   */\n      0x00\n        /* \"#utility.yul\":16389:16407   */\n      tag_400\n        /* \"#utility.yul\":16405:16406   */\n      dup3\n        /* \"#utility.yul\":16389:16407   */\n      tag_241\n      jump\t// in\n    tag_400:\n        /* \"#utility.yul\":16384:16407   */\n      swap2\n      pop\n        /* \"#utility.yul\":16421:16439   */\n      tag_401\n        /* \"#utility.yul\":16437:16438   */\n      dup4\n        /* \"#utility.yul\":16421:16439   */\n      tag_241\n      jump\t// in\n    tag_401:\n        /* \"#utility.yul\":16416:16439   */\n      swap3\n      pop\n        /* \"#utility.yul\":16474:16475   */\n      dup3\n        /* \"#utility.yul\":16471:16472   */\n      dup3\n        /* \"#utility.yul\":16467:16476   */\n      mul\n        /* \"#utility.yul\":16496:16524   */\n      tag_402\n        /* \"#utility.yul\":16512:16523   */\n      dup2\n        /* \"#utility.yul\":16496:16524   */\n      tag_241\n      jump\t// in\n    tag_402:\n        /* \"#utility.yul\":16485:16524   */\n      swap2\n      pop\n        /* \"#utility.yul\":16556:16567   */\n      dup1\n        /* \"#utility.yul\":16547:16554   */\n      dup3\n        /* \"#utility.yul\":16544:16568   */\n      eq\n        /* \"#utility.yul\":16534:16592   */\n      tag_403\n      jumpi\n        /* \"#utility.yul\":16572:16590   */\n      tag_404\n      tag_221\n      jump\t// in\n    tag_404:\n        /* \"#utility.yul\":16534:16592   */\n    tag_403:\n        /* \"#utility.yul\":16374:16599   */\n      pop\n        /* \"#utility.yul\":16328:16599   */\n      swap3\n      swap2\n      pop\n      pop\n      jump\t// out\n\n    auxdata: 0xa264697066735822122015a487a5ae49a0b36092975ed9b033425d8883b521ed68294a0f5c6b2947e0af64736f6c63430008160033\n}\n",
				"bytecode": {
					"linkReferences": {},
					"object": "608060405234801561000f575f80fd5b506114938061001d5f395ff3fe608060405234801561000f575f80fd5b5060043610610034575f3560e01c8063de8f50a114610038578063df4e0bc314610068575b5f80fd5b610052600480360381019061004d9190610c72565b610099565b60405161005f9190610d3c565b60405180910390f35b610082600480360381019061007d9190610e8d565b6101d4565b604051610090929190610f4e565b60405180910390f35b5f8060608060606100ec8b8b8080601f0160208091040260200160405190810160405280939291908181526020018383808284375f81840152601f19601f820116905080830192505050505050506101d4565b8092508193505050610142828289898080601f0160208091040260200160405190810160405280939291908181526020018383808284375f81840152601f19601f8201169050808301925050505050505061031b565b80945081955050508380156101c45750610172602084516101639190610fb9565b8461033590919063ffffffff16565b60028a8a60405161018492919061101a565b602060405180830381855afa15801561019f573d5f803e3d5ffd5b5050506040513d601f19601f820116820180604052508101906101c29190611065565b145b9450505050509695505050505050565b6060805f806060806101e58761035e565b92506101fa838861037090919063ffffffff16565b9250610221610212848961037090919063ffffffff16565b8861041e90919063ffffffff16565b8051906020012093507f3be606946d6f343b24d5ecdbd7e3370a5303ed54845f50f466a35f3bbeb46a455f1b841461028e576040517f08c379a0000000000000000000000000000000000000000000000000000000008152600401610285906110ea565b60405180910390fd5b6102a1838861046c90919063ffffffff16565b92506102b6838861049390919063ffffffff16565b92506102cb838861037090919063ffffffff16565b92506102e0838861054790919063ffffffff16565b91506102f5838861046c90919063ffffffff16565b925061030a838861054790919063ffffffff16565b905081819550955050505050915091565b5f6060610329838587610748565b91509150935093915050565b5f82516020836103459190611108565b111561034f575f80fd5b81602084010151905092915050565b5f610369825f6107e6565b9050919050565b5f602060f81b602060f81b8461038585610a0b565b815181106103965761039561113b565b5b602001015160f81c60f81b167effffffffffffffffffffffffffffffffffffffffffffffffffffffffffffff191614610404576040517f08c379a00000000000000000000000000000000000000000000000000000000081526004016103fb906111d8565b60405180910390fd5b6104168361041184610a20565b6107e6565b905092915050565b606061046461042c83610a20565b61043584610a20565b600161044086610a39565b61044a9190611108565b6104549190610fb9565b85610a529092919063ffffffff16565b905092915050565b5f61048b83600161047c85610a39565b6104869190611108565b6107e6565b905092915050565b5f600360f81b836104a384610a0b565b815181106104b4576104b361113b565b5b602001015160f81c60f81b7effffffffffffffffffffffffffffffffffffffffffffffffffffffffffffff191614610521576040517f08c379a000000000000000000000000000000000000000000000000000000000815260040161051890611240565b60405180910390fd5b61053f83600161053085610a20565b61053a9190611108565b6107e6565b905092915050565b6060600260f81b8361055884610a0b565b815181106105695761056861113b565b5b602001015160f81c60f81b7effffffffffffffffffffffffffffffffffffffffffffffffffffffffffffff1916146105d6576040517f08c379a00000000000000000000000000000000000000000000000000000000081526004016105cd906112a8565b60405180910390fd5b5f60f81b608060f81b846105e985610a20565b815181106105fa576105f961113b565b5b602001015160f81c60f81b167effffffffffffffffffffffffffffffffffffffffffffffffffffffffffffff191614610668576040517f08c379a000000000000000000000000000000000000000000000000000000000815260040161065f90611310565b60405180910390fd5b5f61067283610a20565b600161067d85610a39565b6106879190611108565b6106919190610fb9565b90505f60f81b846106a185610a20565b815181106106b2576106b161113b565b5b602001015160f81c60f81b7effffffffffffffffffffffffffffffffffffffffffffffffffffffffffffff1916036107215761071960016106f285610a20565b6106fc9190611108565b6001836107099190610fb9565b86610a529092919063ffffffff16565b915050610742565b61073e61072d84610a20565b8286610a529092919063ffffffff16565b9150505b92915050565b5f60605f85518551855188888860405160200161076a9695949392919061137e565b6040516020818303038152906040529050835167ffffffffffffffff81111561079657610795610d69565b5b6040519080825280601f01601f1916602001820160405280156107c85781602001600182028036833780820191505090505b50915083516020830182516020840160055afa925050935093915050565b5f805f805f60f81b608060f81b876001886108019190611108565b815181106108125761081161113b565b5b602001015160f81c60f81b167effffffffffffffffffffffffffffffffffffffffffffffffffffffffffffff1916036108b157856001866108539190611108565b815181106108645761086361113b565b5b602001015160f81c60f81b60f81c60ff1692506002856108849190611108565b91506001838369ffffffffffffffffffff166108a09190611108565b6108aa9190610fb9565b90506109dd565b5f607f60f81b876001886108c59190611108565b815181106108d6576108d561113b565b5b602001015160f81c60f81b1660f81c905060018160ff160361091b576109116002876109029190611108565b88610ae490919063ffffffff16565b60ff169350610998565b60028160ff1603610950576109456002876109369190611108565b88610b0e90919063ffffffff16565b61ffff169350610997565b600881602061095f91906113ed565b6109699190611421565b60ff1661099060028861097c9190611108565b8360ff168a610b3b9092919063ffffffff16565b901c5f1c93505b5b8060ff166002876109a99190611108565b6109b39190611108565b92506001848469ffffffffffffffffffff166109cf9190611108565b6109d99190610fb9565b9150505b610a00858369ffffffffffffffffffff168369ffffffffffffffffffff16610b80565b935050505092915050565b5f8169ffffffffffffffffffff169050919050565b5f605082901c69ffffffffffffffffffff169050919050565b5f60a082901c69ffffffffffffffffffff169050919050565b606083518284610a629190611108565b1115610a6c575f80fd5b5f8267ffffffffffffffff811115610a8757610a86610d69565b5b6040519080825280601f01601f191660200182016040528015610ab95781602001600182028036833780820191505090505b5090505f806020830191508560208801019050610ad7828287610b9d565b8293505050509392505050565b5f828281518110610af857610af761113b565b5b602001015160f81c60f81b60f81c905092915050565b5f8251600283610b1e9190611108565b1115610b28575f80fd5b61ffff8260028501015116905092915050565b5f6020821115610b49575f80fd5b83518284610b579190611108565b1115610b61575f80fd5b6001826020036101000a03198084602087010151169150509392505050565b5f605083901b8417935060a082901b841793508390509392505050565b5b60208110610bdc5781518352602083610bb79190611108565b9250602082610bc69190611108565b9150602081610bd59190610fb9565b9050610b9e565b5f6001826020036101000a0390508019835116818551168181178652505050505050565b5f604051905090565b5f80fd5b5f80fd5b5f80fd5b5f80fd5b5f80fd5b5f8083601f840112610c3257610c31610c11565b5b8235905067ffffffffffffffff811115610c4f57610c4e610c15565b5b602083019150836001820283011115610c6b57610c6a610c19565b5b9250929050565b5f805f805f8060608789031215610c8c57610c8b610c09565b5b5f87013567ffffffffffffffff811115610ca957610ca8610c0d565b5b610cb589828a01610c1d565b9650965050602087013567ffffffffffffffff811115610cd857610cd7610c0d565b5b610ce489828a01610c1d565b9450945050604087013567ffffffffffffffff811115610d0757610d06610c0d565b5b610d1389828a01610c1d565b92509250509295509295509295565b5f8115159050919050565b610d3681610d22565b82525050565b5f602082019050610d4f5f830184610d2d565b92915050565b5f80fd5b5f601f19601f8301169050919050565b7f4e487b71000000000000000000000000000000000000000000000000000000005f52604160045260245ffd5b610d9f82610d59565b810181811067ffffffffffffffff82111715610dbe57610dbd610d69565b5b80604052505050565b5f610dd0610c00565b9050610ddc8282610d96565b919050565b5f67ffffffffffffffff821115610dfb57610dfa610d69565b5b610e0482610d59565b9050602081019050919050565b828183375f83830152505050565b5f610e31610e2c84610de1565b610dc7565b905082815260208101848484011115610e4d57610e4c610d55565b5b610e58848285610e11565b509392505050565b5f82601f830112610e7457610e73610c11565b5b8135610e84848260208601610e1f565b91505092915050565b5f60208284031215610ea257610ea1610c09565b5b5f82013567ffffffffffffffff811115610ebf57610ebe610c0d565b5b610ecb84828501610e60565b91505092915050565b5f81519050919050565b5f82825260208201905092915050565b5f5b83811015610f0b578082015181840152602081019050610ef0565b5f8484015250505050565b5f610f2082610ed4565b610f2a8185610ede565b9350610f3a818560208601610eee565b610f4381610d59565b840191505092915050565b5f6040820190508181035f830152610f668185610f16565b90508181036020830152610f7a8184610f16565b90509392505050565b5f819050919050565b7f4e487b71000000000000000000000000000000000000000000000000000000005f52601160045260245ffd5b5f610fc382610f83565b9150610fce83610f83565b9250828203905081811115610fe657610fe5610f8c565b5b92915050565b5f81905092915050565b5f6110018385610fec565b935061100e838584610e11565b82840190509392505050565b5f611026828486610ff6565b91508190509392505050565b5f819050919050565b61104481611032565b811461104e575f80fd5b50565b5f8151905061105f8161103b565b92915050565b5f6020828403121561107a57611079610c09565b5b5f61108784828501611051565b91505092915050565b5f82825260208201905092915050565b7f496e76616c6964206b65790000000000000000000000000000000000000000005f82015250565b5f6110d4600b83611090565b91506110df826110a0565b602082019050919050565b5f6020820190508181035f830152611101816110c8565b9050919050565b5f61111282610f83565b915061111d83610f83565b925082820190508082111561113557611134610f8c565b5b92915050565b7f4e487b71000000000000000000000000000000000000000000000000000000005f52603260045260245ffd5b7f41736e316465636f64653a204e6f74206120636f6e73747275637465642074795f8201527f7065000000000000000000000000000000000000000000000000000000000000602082015250565b5f6111c2602283611090565b91506111cd82611168565b604082019050919050565b5f6020820190508181035f8301526111ef816111b6565b9050919050565b7f4e6f7420747970652042495420535452494e47000000000000000000000000005f82015250565b5f61122a601383611090565b9150611235826111f6565b602082019050919050565b5f6020820190508181035f8301526112578161121e565b9050919050565b7f4e6f74207479706520494e5445474552000000000000000000000000000000005f82015250565b5f611292601083611090565b915061129d8261125e565b602082019050919050565b5f6020820190508181035f8301526112bf81611286565b9050919050565b7f4e6f7420706f73697469766500000000000000000000000000000000000000005f82015250565b5f6112fa600c83611090565b9150611305826112c6565b602082019050919050565b5f6020820190508181035f830152611327816112ee565b9050919050565b5f819050919050565b61134861134382610f83565b61132e565b82525050565b5f61135882610ed4565b6113628185610fec565b9350611372818560208601610eee565b80840191505092915050565b5f6113898289611337565b6020820191506113998288611337565b6020820191506113a98287611337565b6020820191506113b9828661134e565b91506113c5828561134e565b91506113d1828461134e565b9150819050979650505050505050565b5f60ff82169050919050565b5f6113f7826113e1565b9150611402836113e1565b9250828203905060ff81111561141b5761141a610f8c565b5b92915050565b5f61142b826113e1565b9150611436836113e1565b9250828202611444816113e1565b915080821461145657611455610f8c565b5b509291505056fea264697066735822122015a487a5ae49a0b36092975ed9b033425d8883b521ed68294a0f5c6b2947e0af64736f6c63430008160033",
					"opcodes": "PUSH1 0x80 PUSH1 0x40 MSTORE CALLVALUE DUP1 ISZERO PUSH2 0xF JUMPI PUSH0 DUP1 REVERT JUMPDEST POP PUSH2 0x1493 DUP1 PUSH2 0x1D PUSH0 CODECOPY PUSH0 RETURN INVALID PUSH1 0x80 PUSH1 0x40 MSTORE CALLVALUE DUP1 ISZERO PUSH2 0xF JUMPI PUSH0 DUP1 REVERT JUMPDEST POP PUSH1 0x4 CALLDATASIZE LT PUSH2 0x34 JUMPI PUSH0 CALLDATALOAD PUSH1 0xE0 SHR DUP1 PUSH4 0xDE8F50A1 EQ PUSH2 0x38 JUMPI DUP1 PUSH4 0xDF4E0BC3 EQ PUSH2 0x68 JUMPI JUMPDEST PUSH0 DUP1 REVERT JUMPDEST PUSH2 0x52 PUSH1 0x4 DUP1 CALLDATASIZE SUB DUP2 ADD SWAP1 PUSH2 0x4D SWAP2 SWAP1 PUSH2 0xC72 JUMP JUMPDEST PUSH2 0x99 JUMP JUMPDEST PUSH1 0x40 MLOAD PUSH2 0x5F SWAP2 SWAP1 PUSH2 0xD3C JUMP JUMPDEST PUSH1 0x40 MLOAD DUP1 SWAP2 SUB SWAP1 RETURN JUMPDEST PUSH2 0x82 PUSH1 0x4 DUP1 CALLDATASIZE SUB DUP2 ADD SWAP1 PUSH2 0x7D SWAP2 SWAP1 PUSH2 0xE8D JUMP JUMPDEST PUSH2 0x1D4 JUMP JUMPDEST PUSH1 0x40 MLOAD PUSH2 0x90 SWAP3 SWAP2 SWAP1 PUSH2 0xF4E JUMP JUMPDEST PUSH1 0x40 MLOAD DUP1 SWAP2 SUB SWAP1 RETURN JUMPDEST PUSH0 DUP1 PUSH1 0x60 DUP1 PUSH1 0x60 PUSH2 0xEC DUP12 DUP12 DUP1 DUP1 PUSH1 0x1F ADD PUSH1 0x20 DUP1 SWAP2 DIV MUL PUSH1 0x20 ADD PUSH1 0x40 MLOAD SWAP1 DUP2 ADD PUSH1 0x40 MSTORE DUP1 SWAP4 SWAP3 SWAP2 SWAP1 DUP2 DUP2 MSTORE PUSH1 0x20 ADD DUP4 DUP4 DUP1 DUP3 DUP5 CALLDATACOPY PUSH0 DUP2 DUP5 ADD MSTORE PUSH1 0x1F NOT PUSH1 0x1F DUP3 ADD AND SWAP1 POP DUP1 DUP4 ADD SWAP3 POP POP POP POP POP POP POP PUSH2 0x1D4 JUMP JUMPDEST DUP1 SWAP3 POP DUP2 SWAP4 POP POP POP PUSH2 0x142 DUP3 DUP3 DUP10 DUP10 DUP1 DUP1 PUSH1 0x1F ADD PUSH1 0x20 DUP1 SWAP2 DIV MUL PUSH1 0x20 ADD PUSH1 0x40 MLOAD SWAP1 DUP2 ADD PUSH1 0x40 MSTORE DUP1 SWAP4 SWAP3 SWAP2 SWAP1 DUP2 DUP2 MSTORE PUSH1 0x20 ADD DUP4 DUP4 DUP1 DUP3 DUP5 CALLDATACOPY PUSH0 DUP2 DUP5 ADD MSTORE PUSH1 0x1F NOT PUSH1 0x1F DUP3 ADD AND SWAP1 POP DUP1 DUP4 ADD SWAP3 POP POP POP POP POP POP POP PUSH2 0x31B JUMP JUMPDEST DUP1 SWAP5 POP DUP2 SWAP6 POP POP POP DUP4 DUP1 ISZERO PUSH2 0x1C4 JUMPI POP PUSH2 0x172 PUSH1 0x20 DUP5 MLOAD PUSH2 0x163 SWAP2 SWAP1 PUSH2 0xFB9 JUMP JUMPDEST DUP5 PUSH2 0x335 SWAP1 SWAP2 SWAP1 PUSH4 0xFFFFFFFF AND JUMP JUMPDEST PUSH1 0x2 DUP11 DUP11 PUSH1 0x40 MLOAD PUSH2 0x184 SWAP3 SWAP2 SWAP1 PUSH2 0x101A JUMP JUMPDEST PUSH1 0x20 PUSH1 0x40 MLOAD DUP1 DUP4 SUB DUP2 DUP6 GAS STATICCALL ISZERO DUP1 ISZERO PUSH2 0x19F JUMPI RETURNDATASIZE PUSH0 DUP1 RETURNDATACOPY RETURNDATASIZE PUSH0 REVERT JUMPDEST POP POP POP PUSH1 0x40 MLOAD RETURNDATASIZE PUSH1 0x1F NOT PUSH1 0x1F DUP3 ADD AND DUP3 ADD DUP1 PUSH1 0x40 MSTORE POP DUP2 ADD SWAP1 PUSH2 0x1C2 SWAP2 SWAP1 PUSH2 0x1065 JUMP JUMPDEST EQ JUMPDEST SWAP5 POP POP POP POP POP SWAP7 SWAP6 POP POP POP POP POP POP JUMP JUMPDEST PUSH1 0x60 DUP1 PUSH0 DUP1 PUSH1 0x60 DUP1 PUSH2 0x1E5 DUP8 PUSH2 0x35E JUMP JUMPDEST SWAP3 POP PUSH2 0x1FA DUP4 DUP9 PUSH2 0x370 SWAP1 SWAP2 SWAP1 PUSH4 0xFFFFFFFF AND JUMP JUMPDEST SWAP3 POP PUSH2 0x221 PUSH2 0x212 DUP5 DUP10 PUSH2 0x370 SWAP1 SWAP2 SWAP1 PUSH4 0xFFFFFFFF AND JUMP JUMPDEST DUP9 PUSH2 0x41E SWAP1 SWAP2 SWAP1 PUSH4 0xFFFFFFFF AND JUMP JUMPDEST DUP1 MLOAD SWAP1 PUSH1 0x20 ADD KECCAK256 SWAP4 POP PUSH32 0x3BE606946D6F343B24D5ECDBD7E3370A5303ED54845F50F466A35F3BBEB46A45 PUSH0 SHL DUP5 EQ PUSH2 0x28E JUMPI PUSH1 0x40 MLOAD PUSH32 0x8C379A000000000000000000000000000000000000000000000000000000000 DUP2 MSTORE PUSH1 0x4 ADD PUSH2 0x285 SWAP1 PUSH2 0x10EA JUMP JUMPDEST PUSH1 0x40 MLOAD DUP1 SWAP2 SUB SWAP1 REVERT JUMPDEST PUSH2 0x2A1 DUP4 DUP9 PUSH2 0x46C SWAP1 SWAP2 SWAP1 PUSH4 0xFFFFFFFF AND JUMP JUMPDEST SWAP3 POP PUSH2 0x2B6 DUP4 DUP9 PUSH2 0x493 SWAP1 SWAP2 SWAP1 PUSH4 0xFFFFFFFF AND JUMP JUMPDEST SWAP3 POP PUSH2 0x2CB DUP4 DUP9 PUSH2 0x370 SWAP1 SWAP2 SWAP1 PUSH4 0xFFFFFFFF AND JUMP JUMPDEST SWAP3 POP PUSH2 0x2E0 DUP4 DUP9 PUSH2 0x547 SWAP1 SWAP2 SWAP1 PUSH4 0xFFFFFFFF AND JUMP JUMPDEST SWAP2 POP PUSH2 0x2F5 DUP4 DUP9 PUSH2 0x46C SWAP1 SWAP2 SWAP1 PUSH4 0xFFFFFFFF AND JUMP JUMPDEST SWAP3 POP PUSH2 0x30A DUP4 DUP9 PUSH2 0x547 SWAP1 SWAP2 SWAP1 PUSH4 0xFFFFFFFF AND JUMP JUMPDEST SWAP1 POP DUP2 DUP2 SWAP6 POP SWAP6 POP POP POP POP POP SWAP2 POP SWAP2 JUMP JUMPDEST PUSH0 PUSH1 0x60 PUSH2 0x329 DUP4 DUP6 DUP8 PUSH2 0x748 JUMP JUMPDEST SWAP2 POP SWAP2 POP SWAP4 POP SWAP4 SWAP2 POP POP JUMP JUMPDEST PUSH0 DUP3 MLOAD PUSH1 0x20 DUP4 PUSH2 0x345 SWAP2 SWAP1 PUSH2 0x1108 JUMP JUMPDEST GT ISZERO PUSH2 0x34F JUMPI PUSH0 DUP1 REVERT JUMPDEST DUP2 PUSH1 0x20 DUP5 ADD ADD MLOAD SWAP1 POP SWAP3 SWAP2 POP POP JUMP JUMPDEST PUSH0 PUSH2 0x369 DUP3 PUSH0 PUSH2 0x7E6 JUMP JUMPDEST SWAP1 POP SWAP2 SWAP1 POP JUMP JUMPDEST PUSH0 PUSH1 0x20 PUSH1 0xF8 SHL PUSH1 0x20 PUSH1 0xF8 SHL DUP5 PUSH2 0x385 DUP6 PUSH2 0xA0B JUMP JUMPDEST DUP2 MLOAD DUP2 LT PUSH2 0x396 JUMPI PUSH2 0x395 PUSH2 0x113B JUMP JUMPDEST JUMPDEST PUSH1 0x20 ADD ADD MLOAD PUSH1 0xF8 SHR PUSH1 0xF8 SHL AND PUSH31 0xFFFFFFFFFFFFFFFFFFFFFFFFFFFFFFFFFFFFFFFFFFFFFFFFFFFFFFFFFFFFFF NOT AND EQ PUSH2 0x404 JUMPI PUSH1 0x40 MLOAD PUSH32 0x8C379A000000000000000000000000000000000000000000000000000000000 DUP2 MSTORE PUSH1 0x4 ADD PUSH2 0x3FB SWAP1 PUSH2 0x11D8 JUMP JUMPDEST PUSH1 0x40 MLOAD DUP1 SWAP2 SUB SWAP1 REVERT JUMPDEST PUSH2 0x416 DUP4 PUSH2 0x411 DUP5 PUSH2 0xA20 JUMP JUMPDEST PUSH2 0x7E6 JUMP JUMPDEST SWAP1 POP SWAP3 SWAP2 POP POP JUMP JUMPDEST PUSH1 0x60 PUSH2 0x464 PUSH2 0x42C DUP4 PUSH2 0xA20 JUMP JUMPDEST PUSH2 0x435 DUP5 PUSH2 0xA20 JUMP JUMPDEST PUSH1 0x1 PUSH2 0x440 DUP7 PUSH2 0xA39 JUMP JUMPDEST PUSH2 0x44A SWAP2 SWAP1 PUSH2 0x1108 JUMP JUMPDEST PUSH2 0x454 SWAP2 SWAP1 PUSH2 0xFB9 JUMP JUMPDEST DUP6 PUSH2 0xA52 SWAP1 SWAP3 SWAP2 SWAP1 PUSH4 0xFFFFFFFF AND JUMP JUMPDEST SWAP1 POP SWAP3 SWAP2 POP POP JUMP JUMPDEST PUSH0 PUSH2 0x48B DUP4 PUSH1 0x1 PUSH2 0x47C DUP6 PUSH2 0xA39 JUMP JUMPDEST PUSH2 0x486 SWAP2 SWAP1 PUSH2 0x1108 JUMP JUMPDEST PUSH2 0x7E6 JUMP JUMPDEST SWAP1 POP SWAP3 SWAP2 POP POP JUMP JUMPDEST PUSH0 PUSH1 0x3 PUSH1 0xF8 SHL DUP4 PUSH2 0x4A3 DUP5 PUSH2 0xA0B JUMP JUMPDEST DUP2 MLOAD DUP2 LT PUSH2 0x4B4 JUMPI PUSH2 0x4B3 PUSH2 0x113B JUMP JUMPDEST JUMPDEST PUSH1 0x20 ADD ADD MLOAD PUSH1 0xF8 SHR PUSH1 0xF8 SHL PUSH31 0xFFFFFFFFFFFFFFFFFFFFFFFFFFFFFFFFFFFFFFFFFFFFFFFFFFFFFFFFFFFFFF NOT AND EQ PUSH2 0x521 JUMPI PUSH1 0x40 MLOAD PUSH32 0x8C379A000000000000000000000000000000000000000000000000000000000 DUP2 MSTORE PUSH1 0x4 ADD PUSH2 0x518 SWAP1 PUSH2 0x1240 JUMP JUMPDEST PUSH1 0x40 MLOAD DUP1 SWAP2 SUB SWAP1 REVERT JUMPDEST PUSH2 0x53F DUP4 PUSH1 0x1 PUSH2 0x530 DUP6 PUSH2 0xA20 JUMP JUMPDEST PUSH2 0x53A SWAP2 SWAP1 PUSH2 0x1108 JUMP JUMPDEST PUSH2 0x7E6 JUMP JUMPDEST SWAP1 POP SWAP3 SWAP2 POP POP JUMP JUMPDEST PUSH1 0x60 PUSH1 0x2 PUSH1 0xF8 SHL DUP4 PUSH2 0x558 DUP5 PUSH2 0xA0B JUMP JUMPDEST DUP2 MLOAD DUP2 LT PUSH2 0x569 JUMPI PUSH2 0x568 PUSH2 0x113B JUMP JUMPDEST JUMPDEST PUSH1 0x20 ADD ADD MLOAD PUSH1 0xF8 SHR PUSH1 0xF8 SHL PUSH31 0xFFFFFFFFFFFFFFFFFFFFFFFFFFFFFFFFFFFFFFFFFFFFFFFFFFFFFFFFFFFFFF NOT AND EQ PUSH2 0x5D6 JUMPI PUSH1 0x40 MLOAD PUSH32 0x8C379A000000000000000000000000000000000000000000000000000000000 DUP2 MSTORE PUSH1 0x4 ADD PUSH2 0x5CD SWAP1 PUSH2 0x12A8 JUMP JUMPDEST PUSH1 0x40 MLOAD DUP1 SWAP2 SUB SWAP1 REVERT JUMPDEST PUSH0 PUSH1 0xF8 SHL PUSH1 0x80 PUSH1 0xF8 SHL DUP5 PUSH2 0x5E9 DUP6 PUSH2 0xA20 JUMP JUMPDEST DUP2 MLOAD DUP2 LT PUSH2 0x5FA JUMPI PUSH2 0x5F9 PUSH2 0x113B JUMP JUMPDEST JUMPDEST PUSH1 0x20 ADD ADD MLOAD PUSH1 0xF8 SHR PUSH1 0xF8 SHL AND PUSH31 0xFFFFFFFFFFFFFFFFFFFFFFFFFFFFFFFFFFFFFFFFFFFFFFFFFFFFFFFFFFFFFF NOT AND EQ PUSH2 0x668 JUMPI PUSH1 0x40 MLOAD PUSH32 0x8C379A000000000000000000000000000000000000000000000000000000000 DUP2 MSTORE PUSH1 0x4 ADD PUSH2 0x65F SWAP1 PUSH2 0x1310 JUMP JUMPDEST PUSH1 0x40 MLOAD DUP1 SWAP2 SUB SWAP1 REVERT JUMPDEST PUSH0 PUSH2 0x672 DUP4 PUSH2 0xA20 JUMP JUMPDEST PUSH1 0x1 PUSH2 0x67D DUP6 PUSH2 0xA39 JUMP JUMPDEST PUSH2 0x687 SWAP2 SWAP1 PUSH2 0x1108 JUMP JUMPDEST PUSH2 0x691 SWAP2 SWAP1 PUSH2 0xFB9 JUMP JUMPDEST SWAP1 POP PUSH0 PUSH1 0xF8 SHL DUP5 PUSH2 0x6A1 DUP6 PUSH2 0xA20 JUMP JUMPDEST DUP2 MLOAD DUP2 LT PUSH2 0x6B2 JUMPI PUSH2 0x6B1 PUSH2 0x113B JUMP JUMPDEST JUMPDEST PUSH1 0x20 ADD ADD MLOAD PUSH1 0xF8 SHR PUSH1 0xF8 SHL PUSH31 0xFFFFFFFFFFFFFFFFFFFFFFFFFFFFFFFFFFFFFFFFFFFFFFFFFFFFFFFFFFFFFF NOT AND SUB PUSH2 0x721 JUMPI PUSH2 0x719 PUSH1 0x1 PUSH2 0x6F2 DUP6 PUSH2 0xA20 JUMP JUMPDEST PUSH2 0x6FC SWAP2 SWAP1 PUSH2 0x1108 JUMP JUMPDEST PUSH1 0x1 DUP4 PUSH2 0x709 SWAP2 SWAP1 PUSH2 0xFB9 JUMP JUMPDEST DUP7 PUSH2 0xA52 SWAP1 SWAP3 SWAP2 SWAP1 PUSH4 0xFFFFFFFF AND JUMP JUMPDEST SWAP2 POP POP PUSH2 0x742 JUMP JUMPDEST PUSH2 0x73E PUSH2 0x72D DUP5 PUSH2 0xA20 JUMP JUMPDEST DUP3 DUP7 PUSH2 0xA52 SWAP1 SWAP3 SWAP2 SWAP1 PUSH4 0xFFFFFFFF AND JUMP JUMPDEST SWAP2 POP POP JUMPDEST SWAP3 SWAP2 POP POP JUMP JUMPDEST PUSH0 PUSH1 0x60 PUSH0 DUP6 MLOAD DUP6 MLOAD DUP6 MLOAD DUP9 DUP9 DUP9 PUSH1 0x40 MLOAD PUSH1 0x20 ADD PUSH2 0x76A SWAP7 SWAP6 SWAP5 SWAP4 SWAP3 SWAP2 SWAP1 PUSH2 0x137E JUMP JUMPDEST PUSH1 0x40 MLOAD PUSH1 0x20 DUP2 DUP4 SUB SUB DUP2 MSTORE SWAP1 PUSH1 0x40 MSTORE SWAP1 POP DUP4 MLOAD PUSH8 0xFFFFFFFFFFFFFFFF DUP2 GT ISZERO PUSH2 0x796 JUMPI PUSH2 0x795 PUSH2 0xD69 JUMP JUMPDEST JUMPDEST PUSH1 0x40 MLOAD SWAP1 DUP1 DUP3 MSTORE DUP1 PUSH1 0x1F ADD PUSH1 0x1F NOT AND PUSH1 0x20 ADD DUP3 ADD PUSH1 0x40 MSTORE DUP1 ISZERO PUSH2 0x7C8 JUMPI DUP2 PUSH1 0x20 ADD PUSH1 0x1 DUP3 MUL DUP1 CALLDATASIZE DUP4 CALLDATACOPY DUP1 DUP3 ADD SWAP2 POP POP SWAP1 POP JUMPDEST POP SWAP2 POP DUP4 MLOAD PUSH1 0x20 DUP4 ADD DUP3 MLOAD PUSH1 0x20 DUP5 ADD PUSH1 0x5 GAS STATICCALL SWAP3 POP POP SWAP4 POP SWAP4 SWAP2 POP POP JUMP JUMPDEST PUSH0 DUP1 PUSH0 DUP1 PUSH0 PUSH1 0xF8 SHL PUSH1 0x80 PUSH1 0xF8 SHL DUP8 PUSH1 0x1 DUP9 PUSH2 0x801 SWAP2 SWAP1 PUSH2 0x1108 JUMP JUMPDEST DUP2 MLOAD DUP2 LT PUSH2 0x812 JUMPI PUSH2 0x811 PUSH2 0x113B JUMP JUMPDEST JUMPDEST PUSH1 0x20 ADD ADD MLOAD PUSH1 0xF8 SHR PUSH1 0xF8 SHL AND PUSH31 0xFFFFFFFFFFFFFFFFFFFFFFFFFFFFFFFFFFFFFFFFFFFFFFFFFFFFFFFFFFFFFF NOT AND SUB PUSH2 0x8B1 JUMPI DUP6 PUSH1 0x1 DUP7 PUSH2 0x853 SWAP2 SWAP1 PUSH2 0x1108 JUMP JUMPDEST DUP2 MLOAD DUP2 LT PUSH2 0x864 JUMPI PUSH2 0x863 PUSH2 0x113B JUMP JUMPDEST JUMPDEST PUSH1 0x20 ADD ADD MLOAD PUSH1 0xF8 SHR PUSH1 0xF8 SHL PUSH1 0xF8 SHR PUSH1 0xFF AND SWAP3 POP PUSH1 0x2 DUP6 PUSH2 0x884 SWAP2 SWAP1 PUSH2 0x1108 JUMP JUMPDEST SWAP2 POP PUSH1 0x1 DUP4 DUP4 PUSH10 0xFFFFFFFFFFFFFFFFFFFF AND PUSH2 0x8A0 SWAP2 SWAP1 PUSH2 0x1108 JUMP JUMPDEST PUSH2 0x8AA SWAP2 SWAP1 PUSH2 0xFB9 JUMP JUMPDEST SWAP1 POP PUSH2 0x9DD JUMP JUMPDEST PUSH0 PUSH1 0x7F PUSH1 0xF8 SHL DUP8 PUSH1 0x1 DUP9 PUSH2 0x8C5 SWAP2 SWAP1 PUSH2 0x1108 JUMP JUMPDEST DUP2 MLOAD DUP2 LT PUSH2 0x8D6 JUMPI PUSH2 0x8D5 PUSH2 0x113B JUMP JUMPDEST JUMPDEST PUSH1 0x20 ADD ADD MLOAD PUSH1 0xF8 SHR PUSH1 0xF8 SHL AND PUSH1 0xF8 SHR SWAP1 POP PUSH1 0x1 DUP2 PUSH1 0xFF AND SUB PUSH2 0x91B JUMPI PUSH2 0x911 PUSH1 0x2 DUP8 PUSH2 0x902 SWAP2 SWAP1 PUSH2 0x1108 JUMP JUMPDEST DUP9 PUSH2 0xAE4 SWAP1 SWAP2 SWAP1 PUSH4 0xFFFFFFFF AND JUMP JUMPDEST PUSH1 0xFF AND SWAP4 POP PUSH2 0x998 JUMP JUMPDEST PUSH1 0x2 DUP2 PUSH1 0xFF AND SUB PUSH2 0x950 JUMPI PUSH2 0x945 PUSH1 0x2 DUP8 PUSH2 0x936 SWAP2 SWAP1 PUSH2 0x1108 JUMP JUMPDEST DUP9 PUSH2 0xB0E SWAP1 SWAP2 SWAP1 PUSH4 0xFFFFFFFF AND JUMP JUMPDEST PUSH2 0xFFFF AND SWAP4 POP PUSH2 0x997 JUMP JUMPDEST PUSH1 0x8 DUP2 PUSH1 0x20 PUSH2 0x95F SWAP2 SWAP1 PUSH2 0x13ED JUMP JUMPDEST PUSH2 0x969 SWAP2 SWAP1 PUSH2 0x1421 JUMP JUMPDEST PUSH1 0xFF AND PUSH2 0x990 PUSH1 0x2 DUP9 PUSH2 0x97C SWAP2 SWAP1 PUSH2 0x1108 JUMP JUMPDEST DUP4 PUSH1 0xFF AND DUP11 PUSH2 0xB3B SWAP1 SWAP3 SWAP2 SWAP1 PUSH4 0xFFFFFFFF AND JUMP JUMPDEST SWAP1 SHR PUSH0 SHR SWAP4 POP JUMPDEST JUMPDEST DUP1 PUSH1 0xFF AND PUSH1 0x2 DUP8 PUSH2 0x9A9 SWAP2 SWAP1 PUSH2 0x1108 JUMP JUMPDEST PUSH2 0x9B3 SWAP2 SWAP1 PUSH2 0x1108 JUMP JUMPDEST SWAP3 POP PUSH1 0x1 DUP5 DUP5 PUSH10 0xFFFFFFFFFFFFFFFFFFFF AND PUSH2 0x9CF SWAP2 SWAP1 PUSH2 0x1108 JUMP JUMPDEST PUSH2 0x9D9 SWAP2 SWAP1 PUSH2 0xFB9 JUMP JUMPDEST SWAP2 POP POP JUMPDEST PUSH2 0xA00 DUP6 DUP4 PUSH10 0xFFFFFFFFFFFFFFFFFFFF AND DUP4 PUSH10 0xFFFFFFFFFFFFFFFFFFFF AND PUSH2 0xB80 JUMP JUMPDEST SWAP4 POP POP POP POP SWAP3 SWAP2 POP POP JUMP JUMPDEST PUSH0 DUP2 PUSH10 0xFFFFFFFFFFFFFFFFFFFF AND SWAP1 POP SWAP2 SWAP1 POP JUMP JUMPDEST PUSH0 PUSH1 0x50 DUP3 SWAP1 SHR PUSH10 0xFFFFFFFFFFFFFFFFFFFF AND SWAP1 POP SWAP2 SWAP1 POP JUMP JUMPDEST PUSH0 PUSH1 0xA0 DUP3 SWAP1 SHR PUSH10 0xFFFFFFFFFFFFFFFFFFFF AND SWAP1 POP SWAP2 SWAP1 POP JUMP JUMPDEST PUSH1 0x60 DUP4 MLOAD DUP3 DUP5 PUSH2 0xA62 SWAP2 SWAP1 PUSH2 0x1108 JUMP JUMPDEST GT ISZERO PUSH2 0xA6C JUMPI PUSH0 DUP1 REVERT JUMPDEST PUSH0 DUP3 PUSH8 0xFFFFFFFFFFFFFFFF DUP2 GT ISZERO PUSH2 0xA87 JUMPI PUSH2 0xA86 PUSH2 0xD69 JUMP JUMPDEST JUMPDEST PUSH1 0x40 MLOAD SWAP1 DUP1 DUP3 MSTORE DUP1 PUSH1 0x1F ADD PUSH1 0x1F NOT AND PUSH1 0x20 ADD DUP3 ADD PUSH1 0x40 MSTORE DUP1 ISZERO PUSH2 0xAB9 JUMPI DUP2 PUSH1 0x20 ADD PUSH1 0x1 DUP3 MUL DUP1 CALLDATASIZE DUP4 CALLDATACOPY DUP1 DUP3 ADD SWAP2 POP POP SWAP1 POP JUMPDEST POP SWAP1 POP PUSH0 DUP1 PUSH1 0x20 DUP4 ADD SWAP2 POP DUP6 PUSH1 0x20 DUP9 ADD ADD SWAP1 POP PUSH2 0xAD7 DUP3 DUP3 DUP8 PUSH2 0xB9D JUMP JUMPDEST DUP3 SWAP4 POP POP POP POP SWAP4 SWAP3 POP POP POP JUMP JUMPDEST PUSH0 DUP3 DUP3 DUP2 MLOAD DUP2 LT PUSH2 0xAF8 JUMPI PUSH2 0xAF7 PUSH2 0x113B JUMP JUMPDEST JUMPDEST PUSH1 0x20 ADD ADD MLOAD PUSH1 0xF8 SHR PUSH1 0xF8 SHL PUSH1 0xF8 SHR SWAP1 POP SWAP3 SWAP2 POP POP JUMP JUMPDEST PUSH0 DUP3 MLOAD PUSH1 0x2 DUP4 PUSH2 0xB1E SWAP2 SWAP1 PUSH2 0x1108 JUMP JUMPDEST GT ISZERO PUSH2 0xB28 JUMPI PUSH0 DUP1 REVERT JUMPDEST PUSH2 0xFFFF DUP3 PUSH1 0x2 DUP6 ADD ADD MLOAD AND SWAP1 POP SWAP3 SWAP2 POP POP JUMP JUMPDEST PUSH0 PUSH1 0x20 DUP3 GT ISZERO PUSH2 0xB49 JUMPI PUSH0 DUP1 REVERT JUMPDEST DUP4 MLOAD DUP3 DUP5 PUSH2 0xB57 SWAP2 SWAP1 PUSH2 0x1108 JUMP JUMPDEST GT ISZERO PUSH2 0xB61 JUMPI PUSH0 DUP1 REVERT JUMPDEST PUSH1 0x1 DUP3 PUSH1 0x20 SUB PUSH2 0x100 EXP SUB NOT DUP1 DUP5 PUSH1 0x20 DUP8 ADD ADD MLOAD AND SWAP2 POP POP SWAP4 SWAP3 POP POP POP JUMP JUMPDEST PUSH0 PUSH1 0x50 DUP4 SWAP1 SHL DUP5 OR SWAP4 POP PUSH1 0xA0 DUP3 SWAP1 SHL DUP5 OR SWAP4 POP DUP4 SWAP1 POP SWAP4 SWAP3 POP POP POP JUMP JUMPDEST JUMPDEST PUSH1 0x20 DUP2 LT PUSH2 0xBDC JUMPI DUP2 MLOAD DUP4 MSTORE PUSH1 0x20 DUP4 PUSH2 0xBB7 SWAP2 SWAP1 PUSH2 0x1108 JUMP JUMPDEST SWAP3 POP PUSH1 0x20 DUP3 PUSH2 0xBC6 SWAP2 SWAP1 PUSH2 0x1108 JUMP JUMPDEST SWAP2 POP PUSH1 0x20 DUP2 PUSH2 0xBD5 SWAP2 SWAP1 PUSH2 0xFB9 JUMP JUMPDEST SWAP1 POP PUSH2 0xB9E JUMP JUMPDEST PUSH0 PUSH1 0x1 DUP3 PUSH1 0x20 SUB PUSH2 0x100 EXP SUB SWAP1 POP DUP1 NOT DUP4 MLOAD AND DUP2 DUP6 MLOAD AND DUP2 DUP2 OR DUP7 MSTORE POP POP POP POP POP POP JUMP JUMPDEST PUSH0 PUSH1 0x40 MLOAD SWAP1 POP SWAP1 JUMP JUMPDEST PUSH0 DUP1 REVERT JUMPDEST PUSH0 DUP1 REVERT JUMPDEST PUSH0 DUP1 REVERT JUMPDEST PUSH0 DUP1 REVERT JUMPDEST PUSH0 DUP1 REVERT JUMPDEST PUSH0 DUP1 DUP4 PUSH1 0x1F DUP5 ADD SLT PUSH2 0xC32 JUMPI PUSH2 0xC31 PUSH2 0xC11 JUMP JUMPDEST JUMPDEST DUP3 CALLDATALOAD SWAP1 POP PUSH8 0xFFFFFFFFFFFFFFFF DUP2 GT ISZERO PUSH2 0xC4F JUMPI PUSH2 0xC4E PUSH2 0xC15 JUMP JUMPDEST JUMPDEST PUSH1 0x20 DUP4 ADD SWAP2 POP DUP4 PUSH1 0x1 DUP3 MUL DUP4 ADD GT ISZERO PUSH2 0xC6B JUMPI PUSH2 0xC6A PUSH2 0xC19 JUMP JUMPDEST JUMPDEST SWAP3 POP SWAP3 SWAP1 POP JUMP JUMPDEST PUSH0 DUP1 PUSH0 DUP1 PUSH0 DUP1 PUSH1 0x60 DUP8 DUP10 SUB SLT ISZERO PUSH2 0xC8C JUMPI PUSH2 0xC8B PUSH2 0xC09 JUMP JUMPDEST JUMPDEST PUSH0 DUP8 ADD CALLDATALOAD PUSH8 0xFFFFFFFFFFFFFFFF DUP2 GT ISZERO PUSH2 0xCA9 JUMPI PUSH2 0xCA8 PUSH2 0xC0D JUMP JUMPDEST JUMPDEST PUSH2 0xCB5 DUP10 DUP3 DUP11 ADD PUSH2 0xC1D JUMP JUMPDEST SWAP7 POP SWAP7 POP POP PUSH1 0x20 DUP8 ADD CALLDATALOAD PUSH8 0xFFFFFFFFFFFFFFFF DUP2 GT ISZERO PUSH2 0xCD8 JUMPI PUSH2 0xCD7 PUSH2 0xC0D JUMP JUMPDEST JUMPDEST PUSH2 0xCE4 DUP10 DUP3 DUP11 ADD PUSH2 0xC1D JUMP JUMPDEST SWAP5 POP SWAP5 POP POP PUSH1 0x40 DUP8 ADD CALLDATALOAD PUSH8 0xFFFFFFFFFFFFFFFF DUP2 GT ISZERO PUSH2 0xD07 JUMPI PUSH2 0xD06 PUSH2 0xC0D JUMP JUMPDEST JUMPDEST PUSH2 0xD13 DUP10 DUP3 DUP11 ADD PUSH2 0xC1D JUMP JUMPDEST SWAP3 POP SWAP3 POP POP SWAP3 SWAP6 POP SWAP3 SWAP6 POP SWAP3 SWAP6 JUMP JUMPDEST PUSH0 DUP2 ISZERO ISZERO SWAP1 POP SWAP2 SWAP1 POP JUMP JUMPDEST PUSH2 0xD36 DUP2 PUSH2 0xD22 JUMP JUMPDEST DUP3 MSTORE POP POP JUMP JUMPDEST PUSH0 PUSH1 0x20 DUP3 ADD SWAP1 POP PUSH2 0xD4F PUSH0 DUP4 ADD DUP5 PUSH2 0xD2D JUMP JUMPDEST SWAP3 SWAP2 POP POP JUMP JUMPDEST PUSH0 DUP1 REVERT JUMPDEST PUSH0 PUSH1 0x1F NOT PUSH1 0x1F DUP4 ADD AND SWAP1 POP SWAP2 SWAP1 POP JUMP JUMPDEST PUSH32 0x4E487B7100000000000000000000000000000000000000000000000000000000 PUSH0 MSTORE PUSH1 0x41 PUSH1 0x4 MSTORE PUSH1 0x24 PUSH0 REVERT JUMPDEST PUSH2 0xD9F DUP3 PUSH2 0xD59 JUMP JUMPDEST DUP2 ADD DUP2 DUP2 LT PUSH8 0xFFFFFFFFFFFFFFFF DUP3 GT OR ISZERO PUSH2 0xDBE JUMPI PUSH2 0xDBD PUSH2 0xD69 JUMP JUMPDEST JUMPDEST DUP1 PUSH1 0x40 MSTORE POP POP POP JUMP JUMPDEST PUSH0 PUSH2 0xDD0 PUSH2 0xC00 JUMP JUMPDEST SWAP1 POP PUSH2 0xDDC DUP3 DUP3 PUSH2 0xD96 JUMP JUMPDEST SWAP2 SWAP1 POP JUMP JUMPDEST PUSH0 PUSH8 0xFFFFFFFFFFFFFFFF DUP3 GT ISZERO PUSH2 0xDFB JUMPI PUSH2 0xDFA PUSH2 0xD69 JUMP JUMPDEST JUMPDEST PUSH2 0xE04 DUP3 PUSH2 0xD59 JUMP JUMPDEST SWAP1 POP PUSH1 0x20 DUP2 ADD SWAP1 POP SWAP2 SWAP1 POP JUMP JUMPDEST DUP3 DUP2 DUP4 CALLDATACOPY PUSH0 DUP4 DUP4 ADD MSTORE POP POP POP JUMP JUMPDEST PUSH0 PUSH2 0xE31 PUSH2 0xE2C DUP5 PUSH2 0xDE1 JUMP JUMPDEST PUSH2 0xDC7 JUMP JUMPDEST SWAP1 POP DUP3 DUP2 MSTORE PUSH1 0x20 DUP2 ADD DUP5 DUP5 DUP5 ADD GT ISZERO PUSH2 0xE4D JUMPI PUSH2 0xE4C PUSH2 0xD55 JUMP JUMPDEST JUMPDEST PUSH2 0xE58 DUP5 DUP3 DUP6 PUSH2 0xE11 JUMP JUMPDEST POP SWAP4 SWAP3 POP POP POP JUMP JUMPDEST PUSH0 DUP3 PUSH1 0x1F DUP4 ADD SLT PUSH2 0xE74 JUMPI PUSH2 0xE73 PUSH2 0xC11 JUMP JUMPDEST JUMPDEST DUP2 CALLDATALOAD PUSH2 0xE84 DUP5 DUP3 PUSH1 0x20 DUP7 ADD PUSH2 0xE1F JUMP JUMPDEST SWAP2 POP POP SWAP3 SWAP2 POP POP JUMP JUMPDEST PUSH0 PUSH1 0x20 DUP3 DUP5 SUB SLT ISZERO PUSH2 0xEA2 JUMPI PUSH2 0xEA1 PUSH2 0xC09 JUMP JUMPDEST JUMPDEST PUSH0 DUP3 ADD CALLDATALOAD PUSH8 0xFFFFFFFFFFFFFFFF DUP2 GT ISZERO PUSH2 0xEBF JUMPI PUSH2 0xEBE PUSH2 0xC0D JUMP JUMPDEST JUMPDEST PUSH2 0xECB DUP5 DUP3 DUP6 ADD PUSH2 0xE60 JUMP JUMPDEST SWAP2 POP POP SWAP3 SWAP2 POP POP JUMP JUMPDEST PUSH0 DUP2 MLOAD SWAP1 POP SWAP2 SWAP1 POP JUMP JUMPDEST PUSH0 DUP3 DUP3 MSTORE PUSH1 0x20 DUP3 ADD SWAP1 POP SWAP3 SWAP2 POP POP JUMP JUMPDEST PUSH0 JUMPDEST DUP4 DUP2 LT ISZERO PUSH2 0xF0B JUMPI DUP1 DUP3 ADD MLOAD DUP2 DUP5 ADD MSTORE PUSH1 0x20 DUP2 ADD SWAP1 POP PUSH2 0xEF0 JUMP JUMPDEST PUSH0 DUP5 DUP5 ADD MSTORE POP POP POP POP JUMP JUMPDEST PUSH0 PUSH2 0xF20 DUP3 PUSH2 0xED4 JUMP JUMPDEST PUSH2 0xF2A DUP2 DUP6 PUSH2 0xEDE JUMP JUMPDEST SWAP4 POP PUSH2 0xF3A DUP2 DUP6 PUSH1 0x20 DUP7 ADD PUSH2 0xEEE JUMP JUMPDEST PUSH2 0xF43 DUP2 PUSH2 0xD59 JUMP JUMPDEST DUP5 ADD SWAP2 POP POP SWAP3 SWAP2 POP POP JUMP JUMPDEST PUSH0 PUSH1 0x40 DUP3 ADD SWAP1 POP DUP2 DUP2 SUB PUSH0 DUP4 ADD MSTORE PUSH2 0xF66 DUP2 DUP6 PUSH2 0xF16 JUMP JUMPDEST SWAP1 POP DUP2 DUP2 SUB PUSH1 0x20 DUP4 ADD MSTORE PUSH2 0xF7A DUP2 DUP5 PUSH2 0xF16 JUMP JUMPDEST SWAP1 POP SWAP4 SWAP3 POP POP POP JUMP JUMPDEST PUSH0 DUP2 SWAP1 POP SWAP2 SWAP1 POP JUMP JUMPDEST PUSH32 0x4E487B7100000000000000000000000000000000000000000000000000000000 PUSH0 MSTORE PUSH1 0x11 PUSH1 0x4 MSTORE PUSH1 0x24 PUSH0 REVERT JUMPDEST PUSH0 PUSH2 0xFC3 DUP3 PUSH2 0xF83 JUMP JUMPDEST SWAP2 POP PUSH2 0xFCE DUP4 PUSH2 0xF83 JUMP JUMPDEST SWAP3 POP DUP3 DUP3 SUB SWAP1 POP DUP2 DUP2 GT ISZERO PUSH2 0xFE6 JUMPI PUSH2 0xFE5 PUSH2 0xF8C JUMP JUMPDEST JUMPDEST SWAP3 SWAP2 POP POP JUMP JUMPDEST PUSH0 DUP2 SWAP1 POP SWAP3 SWAP2 POP POP JUMP JUMPDEST PUSH0 PUSH2 0x1001 DUP4 DUP6 PUSH2 0xFEC JUMP JUMPDEST SWAP4 POP PUSH2 0x100E DUP4 DUP6 DUP5 PUSH2 0xE11 JUMP JUMPDEST DUP3 DUP5 ADD SWAP1 POP SWAP4 SWAP3 POP POP POP JUMP JUMPDEST PUSH0 PUSH2 0x1026 DUP3 DUP5 DUP7 PUSH2 0xFF6 JUMP JUMPDEST SWAP2 POP DUP2 SWAP1 POP SWAP4 SWAP3 POP POP POP JUMP JUMPDEST PUSH0 DUP2 SWAP1 POP SWAP2 SWAP1 POP JUMP JUMPDEST PUSH2 0x1044 DUP2 PUSH2 0x1032 JUMP JUMPDEST DUP2 EQ PUSH2 0x104E JUMPI PUSH0 DUP1 REVERT JUMPDEST POP JUMP JUMPDEST PUSH0 DUP2 MLOAD SWAP1 POP PUSH2 0x105F DUP2 PUSH2 0x103B JUMP JUMPDEST SWAP3 SWAP2 POP POP JUMP JUMPDEST PUSH0 PUSH1 0x20 DUP3 DUP5 SUB SLT ISZERO PUSH2 0x107A JUMPI PUSH2 0x1079 PUSH2 0xC09 JUMP JUMPDEST JUMPDEST PUSH0 PUSH2 0x1087 DUP5 DUP3 DUP6 ADD PUSH2 0x1051 JUMP JUMPDEST SWAP2 POP POP SWAP3 SWAP2 POP POP JUMP JUMPDEST PUSH0 DUP3 DUP3 MSTORE PUSH1 0x20 DUP3 ADD SWAP1 POP SWAP3 SWAP2 POP POP JUMP JUMPDEST PUSH32 0x496E76616C6964206B6579000000000000000000000000000000000000000000 PUSH0 DUP3 ADD MSTORE POP JUMP JUMPDEST PUSH0 PUSH2 0x10D4 PUSH1 0xB DUP4 PUSH2 0x1090 JUMP JUMPDEST SWAP2 POP PUSH2 0x10DF DUP3 PUSH2 0x10A0 JUMP JUMPDEST PUSH1 0x20 DUP3 ADD SWAP1 POP SWAP2 SWAP1 POP JUMP JUMPDEST PUSH0 PUSH1 0x20 DUP3 ADD SWAP1 POP DUP2 DUP2 SUB PUSH0 DUP4 ADD MSTORE PUSH2 0x1101 DUP2 PUSH2 0x10C8 JUMP JUMPDEST SWAP1 POP SWAP2 SWAP1 POP JUMP JUMPDEST PUSH0 PUSH2 0x1112 DUP3 PUSH2 0xF83 JUMP JUMPDEST SWAP2 POP PUSH2 0x111D DUP4 PUSH2 0xF83 JUMP JUMPDEST SWAP3 POP DUP3 DUP3 ADD SWAP1 POP DUP1 DUP3 GT ISZERO PUSH2 0x1135 JUMPI PUSH2 0x1134 PUSH2 0xF8C JUMP JUMPDEST JUMPDEST SWAP3 SWAP2 POP POP JUMP JUMPDEST PUSH32 0x4E487B7100000000000000000000000000000000000000000000000000000000 PUSH0 MSTORE PUSH1 0x32 PUSH1 0x4 MSTORE PUSH1 0x24 PUSH0 REVERT JUMPDEST PUSH32 0x41736E316465636F64653A204E6F74206120636F6E7374727563746564207479 PUSH0 DUP3 ADD MSTORE PUSH32 0x7065000000000000000000000000000000000000000000000000000000000000 PUSH1 0x20 DUP3 ADD MSTORE POP JUMP JUMPDEST PUSH0 PUSH2 0x11C2 PUSH1 0x22 DUP4 PUSH2 0x1090 JUMP JUMPDEST SWAP2 POP PUSH2 0x11CD DUP3 PUSH2 0x1168 JUMP JUMPDEST PUSH1 0x40 DUP3 ADD SWAP1 POP SWAP2 SWAP1 POP JUMP JUMPDEST PUSH0 PUSH1 0x20 DUP3 ADD SWAP1 POP DUP2 DUP2 SUB PUSH0 DUP4 ADD MSTORE PUSH2 0x11EF DUP2 PUSH2 0x11B6 JUMP JUMPDEST SWAP1 POP SWAP2 SWAP1 POP JUMP JUMPDEST PUSH32 0x4E6F7420747970652042495420535452494E4700000000000000000000000000 PUSH0 DUP3 ADD MSTORE POP JUMP JUMPDEST PUSH0 PUSH2 0x122A PUSH1 0x13 DUP4 PUSH2 0x1090 JUMP JUMPDEST SWAP2 POP PUSH2 0x1235 DUP3 PUSH2 0x11F6 JUMP JUMPDEST PUSH1 0x20 DUP3 ADD SWAP1 POP SWAP2 SWAP1 POP JUMP JUMPDEST PUSH0 PUSH1 0x20 DUP3 ADD SWAP1 POP DUP2 DUP2 SUB PUSH0 DUP4 ADD MSTORE PUSH2 0x1257 DUP2 PUSH2 0x121E JUMP JUMPDEST SWAP1 POP SWAP2 SWAP1 POP JUMP JUMPDEST PUSH32 0x4E6F74207479706520494E544547455200000000000000000000000000000000 PUSH0 DUP3 ADD MSTORE POP JUMP JUMPDEST PUSH0 PUSH2 0x1292 PUSH1 0x10 DUP4 PUSH2 0x1090 JUMP JUMPDEST SWAP2 POP PUSH2 0x129D DUP3 PUSH2 0x125E JUMP JUMPDEST PUSH1 0x20 DUP3 ADD SWAP1 POP SWAP2 SWAP1 POP JUMP JUMPDEST PUSH0 PUSH1 0x20 DUP3 ADD SWAP1 POP DUP2 DUP2 SUB PUSH0 DUP4 ADD MSTORE PUSH2 0x12BF DUP2 PUSH2 0x1286 JUMP JUMPDEST SWAP1 POP SWAP2 SWAP1 POP JUMP JUMPDEST PUSH32 0x4E6F7420706F7369746976650000000000000000000000000000000000000000 PUSH0 DUP3 ADD MSTORE POP JUMP JUMPDEST PUSH0 PUSH2 0x12FA PUSH1 0xC DUP4 PUSH2 0x1090 JUMP JUMPDEST SWAP2 POP PUSH2 0x1305 DUP3 PUSH2 0x12C6 JUMP JUMPDEST PUSH1 0x20 DUP3 ADD SWAP1 POP SWAP2 SWAP1 POP JUMP JUMPDEST PUSH0 PUSH1 0x20 DUP3 ADD SWAP1 POP DUP2 DUP2 SUB PUSH0 DUP4 ADD MSTORE PUSH2 0x1327 DUP2 PUSH2 0x12EE JUMP JUMPDEST SWAP1 POP SWAP2 SWAP1 POP JUMP JUMPDEST PUSH0 DUP2 SWAP1 POP SWAP2 SWAP1 POP JUMP JUMPDEST PUSH2 0x1348 PUSH2 0x1343 DUP3 PUSH2 0xF83 JUMP JUMPDEST PUSH2 0x132E JUMP JUMPDEST DUP3 MSTORE POP POP JUMP JUMPDEST PUSH0 PUSH2 0x1358 DUP3 PUSH2 0xED4 JUMP JUMPDEST PUSH2 0x1362 DUP2 DUP6 PUSH2 0xFEC JUMP JUMPDEST SWAP4 POP PUSH2 0x1372 DUP2 DUP6 PUSH1 0x20 DUP7 ADD PUSH2 0xEEE JUMP JUMPDEST DUP1 DUP5 ADD SWAP2 POP POP SWAP3 SWAP2 POP POP JUMP JUMPDEST PUSH0 PUSH2 0x1389 DUP3 DUP10 PUSH2 0x1337 JUMP JUMPDEST PUSH1 0x20 DUP3 ADD SWAP2 POP PUSH2 0x1399 DUP3 DUP9 PUSH2 0x1337 JUMP JUMPDEST PUSH1 0x20 DUP3 ADD SWAP2 POP PUSH2 0x13A9 DUP3 DUP8 PUSH2 0x1337 JUMP JUMPDEST PUSH1 0x20 DUP3 ADD SWAP2 POP PUSH2 0x13B9 DUP3 DUP7 PUSH2 0x134E JUMP JUMPDEST SWAP2 POP PUSH2 0x13C5 DUP3 DUP6 PUSH2 0x134E JUMP JUMPDEST SWAP2 POP PUSH2 0x13D1 DUP3 DUP5 PUSH2 0x134E JUMP JUMPDEST SWAP2 POP DUP2 SWAP1 POP SWAP8 SWAP7 POP POP POP POP POP POP POP JUMP JUMPDEST PUSH0 PUSH1 0xFF DUP3 AND SWAP1 POP SWAP2 SWAP1 POP JUMP JUMPDEST PUSH0 PUSH2 0x13F7 DUP3 PUSH2 0x13E1 JUMP JUMPDEST SWAP2 POP PUSH2 0x1402 DUP4 PUSH2 0x13E1 JUMP JUMPDEST SWAP3 POP DUP3 DUP3 SUB SWAP1 POP PUSH1 0xFF DUP2 GT ISZERO PUSH2 0x141B JUMPI PUSH2 0x141A PUSH2 0xF8C JUMP JUMPDEST JUMPDEST SWAP3 SWAP2 POP POP JUMP JUMPDEST PUSH0 PUSH2 0x142B DUP3 PUSH2 0x13E1 JUMP JUMPDEST SWAP2 POP PUSH2 0x1436 DUP4 PUSH2 0x13E1 JUMP JUMPDEST SWAP3 POP DUP3 DUP3 MUL PUSH2 0x1444 DUP2 PUSH2 0x13E1 JUMP JUMPDEST SWAP2 POP DUP1 DUP3 EQ PUSH2 0x1456 JUMPI PUSH2 0x1455 PUSH2 0xF8C JUMP JUMPDEST JUMPDEST POP SWAP3 SWAP2 POP POP JUMP INVALID LOG2 PUSH5 0x6970667358 0x22 SLT KECCAK256 ISZERO LOG4 DUP8 0xA5 0xAE 0x49 LOG0 0xB3 PUSH1 0x92 SWAP8 0x5E 0xD9 0xB0 CALLER TIMESTAMP 0x5D DUP9 DUP4 0xB5 0x21 0xED PUSH9 0x294A0F5C6B2947E0AF PUSH5 0x736F6C6343 STOP ADDMOD AND STOP CALLER "
				},
				"gasEstimates": {
					"creation": {
						"codeDepositCost": "1053400",
						"executionCost": "1092",
						"totalCost": "1054492"
					},
					"external": {
						"extractKeyComponents(bytes)": "infinite",
						"verify(bytes,bytes,bytes)": "infinite"
					}
				},
				"methodIdentifiers": {
					"extractKeyComponents(bytes)": "df4e0bc3",
					"verify(bytes,bytes,bytes)": "de8f50a1"
				}
			},
			"storageLayout": {
				"storage": [],
				"types": null
			},
			"userdoc": {
				"kind": "user",
				"methods": {},
				"version": 1
			}
		}
	}
}