{
	"src/utils/RSAHSA256Algorithm.sol": {
		"RsaSha256Algorithm": {
			"abi": [
				{
					"inputs": [
						{
							"internalType": "bytes",
							"name": "key",
							"type": "bytes"
						}
					],
					"name": "extractKeyComponents",
					"outputs": [
						{
							"internalType": "bytes",
							"name": "",
							"type": "bytes"
						},
						{
							"internalType": "bytes",
							"name": "",
							"type": "bytes"
						}
					],
					"stateMutability": "pure",
					"type": "function"
				},
				{
					"inputs": [
						{
							"internalType": "bytes",
							"name": "key",
							"type": "bytes"
						},
						{
							"internalType": "bytes",
							"name": "data",
							"type": "bytes"
						},
						{
							"internalType": "bytes",
							"name": "sig",
							"type": "bytes"
						}
					],
					"name": "verify",
					"outputs": [
						{
							"internalType": "bool",
							"name": "",
							"type": "bool"
						}
					],
					"stateMutability": "view",
					"type": "function"
				}
			],
			"devdoc": {
				"kind": "dev",
				"methods": {
					"extractKeyComponents(bytes)": {
						"details": "Extracts modulus and exponent (respectively) from a DER-encoded RSA public key",
						"params": {
							"key": "A DER-encoded RSA public key"
						}
					}
				},
				"version": 1
			},
			"evm": {
				"assembly": "    /* \"src/utils/RSAHSA256Algorithm.sol\":194:1562  contract RsaSha256Algorithm is Algorithm {... */\n  mstore(0x40, 0x80)\n  callvalue\n  dup1\n  iszero\n  tag_1\n  jumpi\n  0x00\n  dup1\n  revert\ntag_1:\n  pop\n  dataSize(sub_0)\n  dup1\n  dataOffset(sub_0)\n  0x00\n  codecopy\n  0x00\n  return\nstop\n\nsub_0: assembly {\n        /* \"src/utils/RSAHSA256Algorithm.sol\":194:1562  contract RsaSha256Algorithm is Algorithm {... */\n      mstore(0x40, 0x80)\n      callvalue\n      dup1\n      iszero\n      tag_1\n      jumpi\n      0x00\n      dup1\n      revert\n    tag_1:\n      pop\n      jumpi(tag_2, lt(calldatasize, 0x04))\n      shr(0xe0, calldataload(0x00))\n      dup1\n      0xde8f50a1\n      eq\n      tag_3\n      jumpi\n      dup1\n      0xdf4e0bc3\n      eq\n      tag_4\n      jumpi\n    tag_2:\n      0x00\n      dup1\n      revert\n        /* \"src/utils/RSAHSA256Algorithm.sol\":326:687  function verify(bytes calldata key, bytes calldata data, bytes calldata sig)... */\n    tag_3:\n      tag_5\n      tag_6\n      calldatasize\n      0x04\n      tag_7\n      jump\t// in\n    tag_6:\n      tag_8\n      jump\t// in\n    tag_5:\n      mload(0x40)\n        /* \"#utility.yul\":1540:1554   */\n      swap1\n      iszero\n        /* \"#utility.yul\":1533:1555   */\n      iszero\n        /* \"#utility.yul\":1515:1556   */\n      dup2\n      mstore\n        /* \"#utility.yul\":1503:1505   */\n      0x20\n        /* \"#utility.yul\":1488:1506   */\n      add\n        /* \"src/utils/RSAHSA256Algorithm.sol\":326:687  function verify(bytes calldata key, bytes calldata data, bytes calldata sig)... */\n    tag_9:\n      mload(0x40)\n      dup1\n      swap2\n      sub\n      swap1\n      return\n        /* \"src/utils/RSAHSA256Algorithm.sol\":837:1560  function extractKeyComponents(bytes memory key)... */\n    tag_4:\n      tag_11\n      tag_12\n      calldatasize\n      0x04\n      tag_13\n      jump\t// in\n    tag_12:\n      tag_14\n      jump\t// in\n    tag_11:\n      mload(0x40)\n      tag_9\n      swap3\n      swap2\n      swap1\n      tag_16\n      jump\t// in\n        /* \"src/utils/RSAHSA256Algorithm.sol\":326:687  function verify(bytes calldata key, bytes calldata data, bytes calldata sig)... */\n    tag_8:\n        /* \"src/utils/RSAHSA256Algorithm.sol\":428:432  bool */\n      0x00\n        /* \"src/utils/RSAHSA256Algorithm.sol\":442:449  bool ok */\n      dup1\n        /* \"src/utils/RSAHSA256Algorithm.sol\":455:474  bytes memory result */\n      0x60\n        /* \"src/utils/RSAHSA256Algorithm.sol\":480:494  bytes memory m */\n      dup1\n        /* \"src/utils/RSAHSA256Algorithm.sol\":500:514  bytes memory e */\n      0x60\n        /* \"src/utils/RSAHSA256Algorithm.sol\":530:555  extractKeyComponents(key) */\n      tag_18\n        /* \"src/utils/RSAHSA256Algorithm.sol\":551:554  key */\n      dup12\n      dup12\n        /* \"src/utils/RSAHSA256Algorithm.sol\":530:555  extractKeyComponents(key) */\n      dup1\n      dup1\n      0x1f\n      add\n      0x20\n      dup1\n      swap2\n      div\n      mul\n      0x20\n      add\n      mload(0x40)\n      swap1\n      dup2\n      add\n      0x40\n      mstore\n      dup1\n      swap4\n      swap3\n      swap2\n      swap1\n      dup2\n      dup2\n      mstore\n      0x20\n      add\n      dup4\n      dup4\n      dup1\n      dup3\n      dup5\n      calldatacopy\n      0x00\n      swap3\n      add\n      swap2\n      swap1\n      swap2\n      mstore\n      pop\n        /* \"src/utils/RSAHSA256Algorithm.sol\":530:550  extractKeyComponents */\n      tag_14\n      swap3\n      pop\n      pop\n      pop\n        /* \"src/utils/RSAHSA256Algorithm.sol\":530:555  extractKeyComponents(key) */\n      jump\t// in\n    tag_18:\n        /* \"src/utils/RSAHSA256Algorithm.sol\":521:555  (m, e) = extractKeyComponents(key) */\n      dup1\n      swap3\n      pop\n      dup2\n      swap4\n      pop\n      pop\n      pop\n        /* \"src/utils/RSAHSA256Algorithm.sol\":577:608  RSAVerify.rsarecover(m, e, sig) */\n      tag_19\n        /* \"src/utils/RSAHSA256Algorithm.sol\":598:599  m */\n      dup3\n        /* \"src/utils/RSAHSA256Algorithm.sol\":601:602  e */\n      dup3\n        /* \"src/utils/RSAHSA256Algorithm.sol\":604:607  sig */\n      dup10\n      dup10\n        /* \"src/utils/RSAHSA256Algorithm.sol\":577:608  RSAVerify.rsarecover(m, e, sig) */\n      dup1\n      dup1\n      0x1f\n      add\n      0x20\n      dup1\n      swap2\n      div\n      mul\n      0x20\n      add\n      mload(0x40)\n      swap1\n      dup2\n      add\n      0x40\n      mstore\n      dup1\n      swap4\n      swap3\n      swap2\n      swap1\n      dup2\n      dup2\n      mstore\n      0x20\n      add\n      dup4\n      dup4\n      dup1\n      dup3\n      dup5\n      calldatacopy\n      0x00\n      swap3\n      add\n      swap2\n      swap1\n      swap2\n      mstore\n      pop\n        /* \"src/utils/RSAHSA256Algorithm.sol\":577:597  RSAVerify.rsarecover */\n      tag_20\n      swap3\n      pop\n      pop\n      pop\n        /* \"src/utils/RSAHSA256Algorithm.sol\":577:608  RSAVerify.rsarecover(m, e, sig) */\n      jump\t// in\n    tag_19:\n        /* \"src/utils/RSAHSA256Algorithm.sol\":562:608  (ok, result) = RSAVerify.rsarecover(m, e, sig) */\n      swap1\n      swap5\n      pop\n      swap3\n      pop\n      dup4\n        /* \"src/utils/RSAHSA256Algorithm.sol\":622:682  ok && sha256(data) == result.readBytes32(result.length - 32) */\n      dup1\n      iszero\n      tag_21\n      jumpi\n      pop\n        /* \"src/utils/RSAHSA256Algorithm.sol\":644:682  result.readBytes32(result.length - 32) */\n      tag_22\n        /* \"src/utils/RSAHSA256Algorithm.sol\":679:681  32 */\n      0x20\n        /* \"src/utils/RSAHSA256Algorithm.sol\":663:669  result */\n      dup5\n        /* \"src/utils/RSAHSA256Algorithm.sol\":663:676  result.length */\n      mload\n        /* \"src/utils/RSAHSA256Algorithm.sol\":663:681  result.length - 32 */\n      tag_23\n      swap2\n      swap1\n      tag_24\n      jump\t// in\n    tag_23:\n        /* \"src/utils/RSAHSA256Algorithm.sol\":644:650  result */\n      dup5\n      swap1\n        /* \"src/utils/RSAHSA256Algorithm.sol\":644:662  result.readBytes32 */\n      tag_25\n        /* \"src/utils/RSAHSA256Algorithm.sol\":644:682  result.readBytes32(result.length - 32) */\n      jump\t// in\n    tag_22:\n        /* \"src/utils/RSAHSA256Algorithm.sol\":628:640  sha256(data) */\n      0x02\n        /* \"src/utils/RSAHSA256Algorithm.sol\":635:639  data */\n      dup11\n      dup11\n        /* \"src/utils/RSAHSA256Algorithm.sol\":628:640  sha256(data) */\n      mload(0x40)\n      tag_26\n      swap3\n      swap2\n      swap1\n      tag_27\n      jump\t// in\n    tag_26:\n      0x20\n      mload(0x40)\n      dup1\n      dup4\n      sub\n      dup2\n      dup6\n      gas\n      staticcall\n      iszero\n      dup1\n      iszero\n      tag_29\n      jumpi\n      returndatasize\n      0x00\n      dup1\n      returndatacopy\n      revert(0x00, returndatasize)\n    tag_29:\n      pop\n      pop\n      pop\n      mload(0x40)\n      returndatasize\n      not(0x1f)\n      0x1f\n      dup3\n      add\n      and\n      dup3\n      add\n      dup1\n      0x40\n      mstore\n      pop\n      dup2\n      add\n      swap1\n      tag_30\n      swap2\n      swap1\n      tag_31\n      jump\t// in\n    tag_30:\n        /* \"src/utils/RSAHSA256Algorithm.sol\":628:682  sha256(data) == result.readBytes32(result.length - 32) */\n      eq\n        /* \"src/utils/RSAHSA256Algorithm.sol\":622:682  ok && sha256(data) == result.readBytes32(result.length - 32) */\n    tag_21:\n        /* \"src/utils/RSAHSA256Algorithm.sol\":615:682  return ok && sha256(data) == result.readBytes32(result.length - 32) */\n      swap12\n        /* \"src/utils/RSAHSA256Algorithm.sol\":326:687  function verify(bytes calldata key, bytes calldata data, bytes calldata sig)... */\n      swap11\n      pop\n      pop\n      pop\n      pop\n      pop\n      pop\n      pop\n      pop\n      pop\n      pop\n      pop\n      jump\t// out\n        /* \"src/utils/RSAHSA256Algorithm.sol\":837:1560  function extractKeyComponents(bytes memory key)... */\n    tag_14:\n        /* \"src/utils/RSAHSA256Algorithm.sol\":908:920  bytes memory */\n      0x60\n        /* \"src/utils/RSAHSA256Algorithm.sol\":922:934  bytes memory */\n      dup1\n        /* \"src/utils/RSAHSA256Algorithm.sol\":944:955  bytes32 oid */\n      0x00\n        /* \"src/utils/RSAHSA256Algorithm.sol\":961:970  uint node */\n      dup1\n        /* \"src/utils/RSAHSA256Algorithm.sol\":976:996  bytes memory modulus */\n      0x60\n        /* \"src/utils/RSAHSA256Algorithm.sol\":1002:1023  bytes memory exponent */\n      dup1\n        /* \"src/utils/RSAHSA256Algorithm.sol\":1037:1047  key.root() */\n      tag_33\n        /* \"src/utils/RSAHSA256Algorithm.sol\":1037:1040  key */\n      dup8\n        /* \"src/utils/RSAHSA256Algorithm.sol\":1037:1045  key.root */\n      tag_34\n        /* \"src/utils/RSAHSA256Algorithm.sol\":1037:1047  key.root() */\n      jump\t// in\n    tag_33:\n        /* \"src/utils/RSAHSA256Algorithm.sol\":1030:1047  node = key.root() */\n      swap3\n      pop\n        /* \"src/utils/RSAHSA256Algorithm.sol\":1060:1082  key.firstChildOf(node) */\n      tag_35\n        /* \"src/utils/RSAHSA256Algorithm.sol\":1060:1063  key */\n      dup8\n        /* \"src/utils/RSAHSA256Algorithm.sol\":1030:1047  node = key.root() */\n      dup5\n        /* \"src/utils/RSAHSA256Algorithm.sol\":1060:1076  key.firstChildOf */\n      tag_36\n        /* \"src/utils/RSAHSA256Algorithm.sol\":1060:1082  key.firstChildOf(node) */\n      jump\t// in\n    tag_35:\n        /* \"src/utils/RSAHSA256Algorithm.sol\":1053:1082  node = key.firstChildOf(node) */\n      swap3\n      pop\n        /* \"src/utils/RSAHSA256Algorithm.sol\":1160:1195  key.bytesAt(key.firstChildOf(node)) */\n      tag_37\n        /* \"src/utils/RSAHSA256Algorithm.sol\":1172:1194  key.firstChildOf(node) */\n      tag_38\n        /* \"src/utils/RSAHSA256Algorithm.sol\":1172:1175  key */\n      dup9\n        /* \"src/utils/RSAHSA256Algorithm.sol\":1053:1082  node = key.firstChildOf(node) */\n      dup6\n        /* \"src/utils/RSAHSA256Algorithm.sol\":1172:1188  key.firstChildOf */\n      tag_36\n        /* \"src/utils/RSAHSA256Algorithm.sol\":1172:1194  key.firstChildOf(node) */\n      jump\t// in\n    tag_38:\n        /* \"src/utils/RSAHSA256Algorithm.sol\":1160:1163  key */\n      dup9\n      swap1\n        /* \"src/utils/RSAHSA256Algorithm.sol\":1160:1171  key.bytesAt */\n      tag_39\n        /* \"src/utils/RSAHSA256Algorithm.sol\":1160:1195  key.bytesAt(key.firstChildOf(node)) */\n      jump\t// in\n    tag_37:\n        /* \"src/utils/RSAHSA256Algorithm.sol\":1150:1196  keccak256(key.bytesAt(key.firstChildOf(node))) */\n      dup1\n      mload\n      0x20\n      swap1\n      swap2\n      add\n      keccak256\n      swap4\n      pop\n        /* \"src/utils/RSAHSA256Algorithm.sol\":1217:1283  0x3be606946d6f343b24d5ecdbd7e3370a5303ed54845f50f466a35f3bbeb46a45 */\n      0x3be606946d6f343b24d5ecdbd7e3370a5303ed54845f50f466a35f3bbeb46a45\n        /* \"src/utils/RSAHSA256Algorithm.sol\":1210:1283  oid == 0x3be606946d6f343b24d5ecdbd7e3370a5303ed54845f50f466a35f3bbeb46a45 */\n      dup5\n      eq\n        /* \"src/utils/RSAHSA256Algorithm.sol\":1202:1299  require(oid == 0x3be606946d6f343b24d5ecdbd7e3370a5303ed54845f50f466a35f3bbeb46a45, \"Invalid key\") */\n      tag_40\n      jumpi\n      mload(0x40)\n      shl(0xe5, 0x461bcd)\n      dup2\n      mstore\n        /* \"#utility.yul\":4461:4463   */\n      0x20\n        /* \"src/utils/RSAHSA256Algorithm.sol\":1202:1299  require(oid == 0x3be606946d6f343b24d5ecdbd7e3370a5303ed54845f50f466a35f3bbeb46a45, \"Invalid key\") */\n      0x04\n      dup3\n      add\n        /* \"#utility.yul\":4443:4464   */\n      mstore\n        /* \"#utility.yul\":4500:4502   */\n      0x0b\n        /* \"#utility.yul\":4480:4498   */\n      0x24\n      dup3\n      add\n        /* \"#utility.yul\":4473:4503   */\n      mstore\n      shl(0xa8, 0x496e76616c6964206b6579)\n        /* \"#utility.yul\":4519:4537   */\n      0x44\n      dup3\n      add\n        /* \"#utility.yul\":4512:4553   */\n      mstore\n        /* \"#utility.yul\":4570:4588   */\n      0x64\n      add\n        /* \"src/utils/RSAHSA256Algorithm.sol\":1202:1299  require(oid == 0x3be606946d6f343b24d5ecdbd7e3370a5303ed54845f50f466a35f3bbeb46a45, \"Invalid key\") */\n    tag_41:\n      mload(0x40)\n      dup1\n      swap2\n      sub\n      swap1\n      revert\n    tag_40:\n        /* \"src/utils/RSAHSA256Algorithm.sol\":1313:1336  key.nextSiblingOf(node) */\n      tag_43\n        /* \"src/utils/RSAHSA256Algorithm.sol\":1313:1316  key */\n      dup8\n        /* \"src/utils/RSAHSA256Algorithm.sol\":1331:1335  node */\n      dup5\n        /* \"src/utils/RSAHSA256Algorithm.sol\":1313:1330  key.nextSiblingOf */\n      tag_44\n        /* \"src/utils/RSAHSA256Algorithm.sol\":1313:1336  key.nextSiblingOf(node) */\n      jump\t// in\n    tag_43:\n        /* \"src/utils/RSAHSA256Algorithm.sol\":1306:1336  node = key.nextSiblingOf(node) */\n      swap3\n      pop\n        /* \"src/utils/RSAHSA256Algorithm.sol\":1349:1376  key.rootOfBitStringAt(node) */\n      tag_45\n        /* \"src/utils/RSAHSA256Algorithm.sol\":1349:1352  key */\n      dup8\n        /* \"src/utils/RSAHSA256Algorithm.sol\":1306:1336  node = key.nextSiblingOf(node) */\n      dup5\n        /* \"src/utils/RSAHSA256Algorithm.sol\":1349:1370  key.rootOfBitStringAt */\n      tag_46\n        /* \"src/utils/RSAHSA256Algorithm.sol\":1349:1376  key.rootOfBitStringAt(node) */\n      jump\t// in\n    tag_45:\n        /* \"src/utils/RSAHSA256Algorithm.sol\":1342:1376  node = key.rootOfBitStringAt(node) */\n      swap3\n      pop\n        /* \"src/utils/RSAHSA256Algorithm.sol\":1389:1411  key.firstChildOf(node) */\n      tag_47\n        /* \"src/utils/RSAHSA256Algorithm.sol\":1389:1392  key */\n      dup8\n        /* \"src/utils/RSAHSA256Algorithm.sol\":1342:1376  node = key.rootOfBitStringAt(node) */\n      dup5\n        /* \"src/utils/RSAHSA256Algorithm.sol\":1389:1405  key.firstChildOf */\n      tag_36\n        /* \"src/utils/RSAHSA256Algorithm.sol\":1389:1411  key.firstChildOf(node) */\n      jump\t// in\n    tag_47:\n        /* \"src/utils/RSAHSA256Algorithm.sol\":1382:1411  node = key.firstChildOf(node) */\n      swap3\n      pop\n        /* \"src/utils/RSAHSA256Algorithm.sol\":1427:1448  key.uintBytesAt(node) */\n      tag_48\n        /* \"src/utils/RSAHSA256Algorithm.sol\":1427:1430  key */\n      dup8\n        /* \"src/utils/RSAHSA256Algorithm.sol\":1382:1411  node = key.firstChildOf(node) */\n      dup5\n        /* \"src/utils/RSAHSA256Algorithm.sol\":1427:1442  key.uintBytesAt */\n      tag_49\n        /* \"src/utils/RSAHSA256Algorithm.sol\":1427:1448  key.uintBytesAt(node) */\n      jump\t// in\n    tag_48:\n        /* \"src/utils/RSAHSA256Algorithm.sol\":1417:1448  modulus = key.uintBytesAt(node) */\n      swap2\n      pop\n        /* \"src/utils/RSAHSA256Algorithm.sol\":1461:1484  key.nextSiblingOf(node) */\n      tag_50\n        /* \"src/utils/RSAHSA256Algorithm.sol\":1461:1464  key */\n      dup8\n        /* \"src/utils/RSAHSA256Algorithm.sol\":1479:1483  node */\n      dup5\n        /* \"src/utils/RSAHSA256Algorithm.sol\":1461:1478  key.nextSiblingOf */\n      tag_44\n        /* \"src/utils/RSAHSA256Algorithm.sol\":1461:1484  key.nextSiblingOf(node) */\n      jump\t// in\n    tag_50:\n        /* \"src/utils/RSAHSA256Algorithm.sol\":1454:1484  node = key.nextSiblingOf(node) */\n      swap3\n      pop\n        /* \"src/utils/RSAHSA256Algorithm.sol\":1501:1522  key.uintBytesAt(node) */\n      tag_51\n        /* \"src/utils/RSAHSA256Algorithm.sol\":1501:1504  key */\n      dup8\n        /* \"src/utils/RSAHSA256Algorithm.sol\":1454:1484  node = key.nextSiblingOf(node) */\n      dup5\n        /* \"src/utils/RSAHSA256Algorithm.sol\":1501:1516  key.uintBytesAt */\n      tag_49\n        /* \"src/utils/RSAHSA256Algorithm.sol\":1501:1522  key.uintBytesAt(node) */\n      jump\t// in\n    tag_51:\n        /* \"src/utils/RSAHSA256Algorithm.sol\":1537:1544  modulus */\n      swap2\n      swap8\n        /* \"src/utils/RSAHSA256Algorithm.sol\":1490:1522  exponent = key.uintBytesAt(node) */\n      swap2\n      swap7\n      pop\n        /* \"src/utils/RSAHSA256Algorithm.sol\":837:1560  function extractKeyComponents(bytes memory key)... */\n      swap1\n      swap5\n      pop\n      pop\n      pop\n      pop\n      pop\n      jump\t// out\n        /* \"src/utils/RSAVerify.sol\":444:641  function rsarecover(... */\n    tag_20:\n        /* \"src/utils/RSAVerify.sol\":565:569  bool */\n      0x00\n        /* \"src/utils/RSAVerify.sol\":571:583  bytes memory */\n      0x60\n        /* \"src/utils/RSAVerify.sol\":602:634  ModexpPrecompile.modexp(S, E, N) */\n      tag_53\n        /* \"src/utils/RSAVerify.sol\":626:627  S */\n      dup4\n        /* \"src/utils/RSAVerify.sol\":629:630  E */\n      dup6\n        /* \"src/utils/RSAVerify.sol\":632:633  N */\n      dup8\n        /* \"src/utils/RSAVerify.sol\":602:625  ModexpPrecompile.modexp */\n      tag_54\n        /* \"src/utils/RSAVerify.sol\":602:634  ModexpPrecompile.modexp(S, E, N) */\n      jump\t// in\n    tag_53:\n        /* \"src/utils/RSAVerify.sol\":595:634  return ModexpPrecompile.modexp(S, E, N) */\n      swap2\n      pop\n      swap2\n      pop\n        /* \"src/utils/RSAVerify.sol\":444:641  function rsarecover(... */\n      swap4\n      pop\n      swap4\n      swap2\n      pop\n      pop\n      jump\t// out\n        /* \"src/utils/BytesUtils.sol\":7199:7444  function readBytes32(bytes memory self, uint256 idx)... */\n    tag_25:\n        /* \"src/utils/BytesUtils.sol\":7346:7357  self.length */\n      dup2\n      mload\n        /* \"src/utils/BytesUtils.sol\":7299:7310  bytes32 ret */\n      0x00\n      swap1\n        /* \"src/utils/BytesUtils.sol\":7334:7342  idx + 32 */\n      tag_56\n        /* \"src/utils/BytesUtils.sol\":7334:7337  idx */\n      dup4\n        /* \"src/utils/BytesUtils.sol\":7340:7342  32 */\n      0x20\n        /* \"src/utils/BytesUtils.sol\":7334:7342  idx + 32 */\n      tag_57\n      jump\t// in\n    tag_56:\n        /* \"src/utils/BytesUtils.sol\":7334:7357  idx + 32 <= self.length */\n      gt\n      iszero\n        /* \"src/utils/BytesUtils.sol\":7326:7358  require(idx + 32 <= self.length) */\n      tag_58\n      jumpi\n      0x00\n      dup1\n      revert\n    tag_58:\n      pop\n        /* \"src/utils/BytesUtils.sol\":7404:7427  add(add(self, 32), idx) */\n      add\n        /* \"src/utils/BytesUtils.sol\":7418:7420  32 */\n      0x20\n        /* \"src/utils/BytesUtils.sol\":7404:7427  add(add(self, 32), idx) */\n      add\n        /* \"src/utils/BytesUtils.sol\":7398:7428  mload(add(add(self, 32), idx)) */\n      mload\n      swap1\n        /* \"src/utils/BytesUtils.sol\":7199:7444  function readBytes32(bytes memory self, uint256 idx)... */\n      jump\t// out\n        /* \"src/utils/Asn1Decode.sol\":965:1065  function root(bytes memory der) internal pure returns (uint) {... */\n    tag_34:\n        /* \"src/utils/Asn1Decode.sol\":1020:1024  uint */\n      0x00\n        /* \"src/utils/Asn1Decode.sol\":1038:1060  readNodeLength(der, 0) */\n      tag_60\n        /* \"src/utils/Asn1Decode.sol\":1053:1056  der */\n      dup3\n        /* \"src/utils/Asn1Decode.sol\":1058:1059  0 */\n      0x00\n        /* \"src/utils/Asn1Decode.sol\":1038:1052  readNodeLength */\n      tag_61\n        /* \"src/utils/Asn1Decode.sol\":1038:1060  readNodeLength(der, 0) */\n      jump\t// in\n    tag_60:\n        /* \"src/utils/Asn1Decode.sol\":1031:1060  return readNodeLength(der, 0) */\n      swap3\n        /* \"src/utils/Asn1Decode.sol\":965:1065  function root(bytes memory der) internal pure returns (uint) {... */\n      swap2\n      pop\n      pop\n      jump\t// out\n        /* \"src/utils/Asn1Decode.sol\":2391:2598  function firstChildOf(bytes memory der, uint ptr) internal pure returns (uint) {... */\n    tag_36:\n        /* \"src/utils/Asn1Decode.sol\":2464:2468  uint */\n      0x00\n        /* \"src/utils/Asn1Decode.sol\":2483:2486  der */\n      dup3\n      sub(shl(0x50, 0x01), 0x01)\n        /* \"src/utils/Asn1Decode.sol\":245:264  return uint80(self) */\n      dup4\n      and\n        /* \"src/utils/Asn1Decode.sol\":2483:2497  der[ptr.ixs()] */\n      dup2\n      mload\n      dup2\n      lt\n      tag_66\n      jumpi\n      tag_66\n      tag_67\n      jump\t// in\n    tag_66:\n      add\n      0x20\n      add\n      mload\n      shl(0xfd, 0x01)\n        /* \"src/utils/Asn1Decode.sol\":2483:2504  der[ptr.ixs()] & 0x20 */\n      swap1\n      dup2\n      and\n        /* \"src/utils/Asn1Decode.sol\":2483:2512  der[ptr.ixs()] & 0x20 == 0x20 */\n      eq\n        /* \"src/utils/Asn1Decode.sol\":2475:2551  require(der[ptr.ixs()] & 0x20 == 0x20, \"Asn1decode: Not a constructed type\") */\n      tag_68\n      jumpi\n      mload(0x40)\n      shl(0xe5, 0x461bcd)\n      dup2\n      mstore\n        /* \"#utility.yul\":5066:5068   */\n      0x20\n        /* \"src/utils/Asn1Decode.sol\":2475:2551  require(der[ptr.ixs()] & 0x20 == 0x20, \"Asn1decode: Not a constructed type\") */\n      0x04\n      dup3\n      add\n        /* \"#utility.yul\":5048:5069   */\n      mstore\n        /* \"#utility.yul\":5105:5107   */\n      0x22\n        /* \"#utility.yul\":5085:5103   */\n      0x24\n      dup3\n      add\n        /* \"#utility.yul\":5078:5108   */\n      mstore\n        /* \"#utility.yul\":5144:5178   */\n      0x41736e316465636f64653a204e6f74206120636f6e7374727563746564207479\n        /* \"#utility.yul\":5124:5142   */\n      0x44\n      dup3\n      add\n        /* \"#utility.yul\":5117:5179   */\n      mstore\n      shl(0xf0, 0x7065)\n        /* \"#utility.yul\":5195:5213   */\n      0x64\n      dup3\n      add\n        /* \"#utility.yul\":5188:5220   */\n      mstore\n        /* \"#utility.yul\":5237:5256   */\n      0x84\n      add\n        /* \"src/utils/Asn1Decode.sol\":2475:2551  require(der[ptr.ixs()] & 0x20 == 0x20, \"Asn1decode: Not a constructed type\") */\n      tag_41\n        /* \"#utility.yul\":4864:5262   */\n      jump\n        /* \"src/utils/Asn1Decode.sol\":2475:2551  require(der[ptr.ixs()] & 0x20 == 0x20, \"Asn1decode: Not a constructed type\") */\n    tag_68:\n        /* \"src/utils/Asn1Decode.sol\":2563:2593  readNodeLength(der, ptr.ixf()) */\n      tag_71\n        /* \"src/utils/Asn1Decode.sol\":2578:2581  der */\n      dup4\n        /* \"src/utils/Asn1Decode.sol\":388:390  80 */\n      0x50\n        /* \"src/utils/Asn1Decode.sol\":382:390  self>>80 */\n      dup5\n      swap1\n      shr\n      sub(shl(0x50, 0x01), 0x01)\n        /* \"src/utils/Asn1Decode.sol\":368:391  return uint80(self>>80) */\n      and\n        /* \"src/utils/Asn1Decode.sol\":2563:2577  readNodeLength */\n      tag_61\n        /* \"src/utils/Asn1Decode.sol\":2563:2593  readNodeLength(der, ptr.ixf()) */\n      jump\t// in\n        /* \"src/utils/Asn1Decode.sol\":2583:2592  ptr.ixf() */\n    tag_72:\n        /* \"src/utils/Asn1Decode.sol\":2563:2577  readNodeLength */\n      tag_61\n        /* \"src/utils/Asn1Decode.sol\":2563:2593  readNodeLength(der, ptr.ixf()) */\n      jump\t// in\n    tag_71:\n        /* \"src/utils/Asn1Decode.sol\":2556:2593  return readNodeLength(der, ptr.ixf()) */\n      swap4\n        /* \"src/utils/Asn1Decode.sol\":2391:2598  function firstChildOf(bytes memory der, uint ptr) internal pure returns (uint) {... */\n      swap3\n      pop\n      pop\n      pop\n      jump\t// out\n        /* \"src/utils/Asn1Decode.sol\":3255:3404  function bytesAt(bytes memory der, uint ptr) internal pure returns (bytes memory) {... */\n    tag_39:\n        /* \"src/utils/Asn1Decode.sol\":3323:3335  bytes memory */\n      0x60\n        /* \"src/utils/Asn1Decode.sol\":3350:3399  der.substring(ptr.ixf(), ptr.ixl()+1 - ptr.ixf()) */\n      tag_71\n      sub(shl(0x50, 0x01), 0x01)\n        /* \"src/utils/Asn1Decode.sol\":388:390  80 */\n      0x50\n        /* \"src/utils/Asn1Decode.sol\":382:390  self>>80 */\n      dup5\n      swap1\n      shr\n        /* \"src/utils/Asn1Decode.sol\":368:391  return uint80(self>>80) */\n      dup2\n      and\n      swap1\n      dup2\n      swap1\n        /* \"src/utils/Asn1Decode.sol\":3375:3386  ptr.ixl()+1 */\n      tag_80\n      swap1\n        /* \"src/utils/Asn1Decode.sol\":514:517  160 */\n      0xa0\n        /* \"src/utils/Asn1Decode.sol\":508:517  self>>160 */\n      dup8\n      swap1\n      shr\n        /* \"src/utils/Asn1Decode.sol\":494:518  return uint80(self>>160) */\n      and\n        /* \"src/utils/Asn1Decode.sol\":3385:3386  1 */\n      0x01\n        /* \"src/utils/Asn1Decode.sol\":3375:3386  ptr.ixl()+1 */\n      tag_57\n      jump\t// in\n    tag_80:\n        /* \"src/utils/Asn1Decode.sol\":3375:3398  ptr.ixl()+1 - ptr.ixf() */\n      tag_81\n      swap2\n      swap1\n      tag_24\n      jump\t// in\n    tag_81:\n        /* \"src/utils/Asn1Decode.sol\":3350:3353  der */\n      dup6\n      swap2\n        /* \"src/utils/Asn1Decode.sol\":3350:3399  der.substring(ptr.ixf(), ptr.ixl()+1 - ptr.ixf()) */\n      swap1\n        /* \"src/utils/Asn1Decode.sol\":3350:3363  der.substring */\n      tag_82\n        /* \"src/utils/Asn1Decode.sol\":3350:3399  der.substring(ptr.ixf(), ptr.ixl()+1 - ptr.ixf()) */\n      jump\t// in\n        /* \"src/utils/Asn1Decode.sol\":2040:2169  function nextSiblingOf(bytes memory der, uint ptr) internal pure returns (uint) {... */\n    tag_44:\n        /* \"src/utils/Asn1Decode.sol\":2114:2118  uint */\n      0x00\n        /* \"src/utils/Asn1Decode.sol\":2132:2164  readNodeLength(der, ptr.ixl()+1) */\n      tag_71\n        /* \"src/utils/Asn1Decode.sol\":2147:2150  der */\n      dup4\n        /* \"src/utils/Asn1Decode.sol\":514:517  160 */\n      0xa0\n        /* \"src/utils/Asn1Decode.sol\":508:517  self>>160 */\n      dup5\n      swap1\n      shr\n      sub(shl(0x50, 0x01), 0x01)\n        /* \"src/utils/Asn1Decode.sol\":494:518  return uint80(self>>160) */\n      and\n        /* \"src/utils/Asn1Decode.sol\":2152:2161  ptr.ixl() */\n    tag_85:\n        /* \"src/utils/Asn1Decode.sol\":2152:2163  ptr.ixl()+1 */\n      tag_72\n      swap1\n        /* \"src/utils/Asn1Decode.sol\":2162:2163  1 */\n      0x01\n        /* \"src/utils/Asn1Decode.sol\":2152:2163  ptr.ixl()+1 */\n      tag_57\n      jump\t// in\n        /* \"src/utils/Asn1Decode.sol\":1254:1448  function rootOfBitStringAt(bytes memory der, uint ptr) internal pure returns (uint) {... */\n    tag_46:\n        /* \"src/utils/Asn1Decode.sol\":1332:1336  uint */\n      0x00\n        /* \"src/utils/Asn1Decode.sol\":1352:1355  der */\n      dup3\n      sub(shl(0x50, 0x01), 0x01)\n        /* \"src/utils/Asn1Decode.sol\":245:264  return uint80(self) */\n      dup4\n      and\n        /* \"src/utils/Asn1Decode.sol\":1352:1366  der[ptr.ixs()] */\n      dup2\n      mload\n      dup2\n      lt\n      tag_90\n      jumpi\n      tag_90\n      tag_67\n      jump\t// in\n    tag_90:\n      0x20\n      swap2\n      add\n      add\n      mload\n      not(sub(shl(0xf8, 0x01), 0x01))\n      and\n      shl(0xf8, 0x03)\n        /* \"src/utils/Asn1Decode.sol\":1352:1374  der[ptr.ixs()] == 0x03 */\n      eq\n        /* \"src/utils/Asn1Decode.sol\":1344:1398  require(der[ptr.ixs()] == 0x03, \"Not type BIT STRING\") */\n      tag_91\n      jumpi\n      mload(0x40)\n      shl(0xe5, 0x461bcd)\n      dup2\n      mstore\n        /* \"#utility.yul\":5469:5471   */\n      0x20\n        /* \"src/utils/Asn1Decode.sol\":1344:1398  require(der[ptr.ixs()] == 0x03, \"Not type BIT STRING\") */\n      0x04\n      dup3\n      add\n        /* \"#utility.yul\":5451:5472   */\n      mstore\n        /* \"#utility.yul\":5508:5510   */\n      0x13\n        /* \"#utility.yul\":5488:5506   */\n      0x24\n      dup3\n      add\n        /* \"#utility.yul\":5481:5511   */\n      mstore\n      shl(0x68, 0x4e6f7420747970652042495420535452494e47)\n        /* \"#utility.yul\":5527:5545   */\n      0x44\n      dup3\n      add\n        /* \"#utility.yul\":5520:5569   */\n      mstore\n        /* \"#utility.yul\":5586:5604   */\n      0x64\n      add\n        /* \"src/utils/Asn1Decode.sol\":1344:1398  require(der[ptr.ixs()] == 0x03, \"Not type BIT STRING\") */\n      tag_41\n        /* \"#utility.yul\":5267:5610   */\n      jump\n        /* \"src/utils/Asn1Decode.sol\":1344:1398  require(der[ptr.ixs()] == 0x03, \"Not type BIT STRING\") */\n    tag_91:\n        /* \"src/utils/Asn1Decode.sol\":1411:1443  readNodeLength(der, ptr.ixf()+1) */\n      tag_71\n        /* \"src/utils/Asn1Decode.sol\":1426:1429  der */\n      dup4\n        /* \"src/utils/Asn1Decode.sol\":388:390  80 */\n      0x50\n        /* \"src/utils/Asn1Decode.sol\":382:390  self>>80 */\n      dup5\n      swap1\n      shr\n      sub(shl(0x50, 0x01), 0x01)\n        /* \"src/utils/Asn1Decode.sol\":368:391  return uint80(self>>80) */\n      and\n        /* \"src/utils/Asn1Decode.sol\":1431:1440  ptr.ixf() */\n      tag_85\n        /* \"src/utils/Asn1Decode.sol\":309:396  function ixf(uint self) internal pure returns (uint) {... */\n      jump\n        /* \"src/utils/Asn1Decode.sol\":4890:5289  function uintBytesAt(bytes memory der, uint ptr) internal pure returns (bytes memory) {... */\n    tag_49:\n        /* \"src/utils/Asn1Decode.sol\":4962:4974  bytes memory */\n      0x60\n        /* \"src/utils/Asn1Decode.sol\":4990:4993  der */\n      dup3\n      sub(shl(0x50, 0x01), 0x01)\n        /* \"src/utils/Asn1Decode.sol\":245:264  return uint80(self) */\n      dup4\n      and\n        /* \"src/utils/Asn1Decode.sol\":4990:5004  der[ptr.ixs()] */\n      dup2\n      mload\n      dup2\n      lt\n      tag_100\n      jumpi\n      tag_100\n      tag_67\n      jump\t// in\n    tag_100:\n      0x20\n      swap2\n      add\n      add\n      mload\n      not(sub(shl(0xf8, 0x01), 0x01))\n      and\n      shl(0xf9, 0x01)\n        /* \"src/utils/Asn1Decode.sol\":4990:5012  der[ptr.ixs()] == 0x02 */\n      eq\n        /* \"src/utils/Asn1Decode.sol\":4982:5033  require(der[ptr.ixs()] == 0x02, \"Not type INTEGER\") */\n      tag_101\n      jumpi\n      mload(0x40)\n      shl(0xe5, 0x461bcd)\n      dup2\n      mstore\n        /* \"#utility.yul\":5817:5819   */\n      0x20\n        /* \"src/utils/Asn1Decode.sol\":4982:5033  require(der[ptr.ixs()] == 0x02, \"Not type INTEGER\") */\n      0x04\n      dup3\n      add\n        /* \"#utility.yul\":5799:5820   */\n      mstore\n        /* \"#utility.yul\":5856:5858   */\n      0x10\n        /* \"#utility.yul\":5836:5854   */\n      0x24\n      dup3\n      add\n        /* \"#utility.yul\":5829:5859   */\n      mstore\n      shl(0x81, 0x2737ba103a3cb8329024a72a22a3a2a9)\n        /* \"#utility.yul\":5875:5893   */\n      0x44\n      dup3\n      add\n        /* \"#utility.yul\":5868:5914   */\n      mstore\n        /* \"#utility.yul\":5931:5949   */\n      0x64\n      add\n        /* \"src/utils/Asn1Decode.sol\":4982:5033  require(der[ptr.ixs()] == 0x02, \"Not type INTEGER\") */\n      tag_41\n        /* \"#utility.yul\":5615:5955   */\n      jump\n        /* \"src/utils/Asn1Decode.sol\":4982:5033  require(der[ptr.ixs()] == 0x02, \"Not type INTEGER\") */\n    tag_101:\n        /* \"src/utils/Asn1Decode.sol\":5047:5050  der */\n      dup3\n        /* \"src/utils/Asn1Decode.sol\":388:390  80 */\n      0x50\n        /* \"src/utils/Asn1Decode.sol\":382:390  self>>80 */\n      dup4\n      swap1\n      shr\n      sub(shl(0x50, 0x01), 0x01)\n        /* \"src/utils/Asn1Decode.sol\":368:391  return uint80(self>>80) */\n      and\n        /* \"src/utils/Asn1Decode.sol\":5047:5061  der[ptr.ixf()] */\n      dup2\n      mload\n      dup2\n      lt\n      tag_106\n      jumpi\n      tag_106\n      tag_67\n      jump\t// in\n    tag_106:\n      add\n      0x20\n      add\n      mload\n      shl(0xff, 0x01)\n        /* \"src/utils/Asn1Decode.sol\":5047:5068  der[ptr.ixf()] & 0x80 */\n      and\n        /* \"src/utils/Asn1Decode.sol\":5047:5073  der[ptr.ixf()] & 0x80 == 0 */\n      iszero\n        /* \"src/utils/Asn1Decode.sol\":5039:5090  require(der[ptr.ixf()] & 0x80 == 0, \"Not positive\") */\n      tag_107\n      jumpi\n      mload(0x40)\n      shl(0xe5, 0x461bcd)\n      dup2\n      mstore\n        /* \"#utility.yul\":6162:6164   */\n      0x20\n        /* \"src/utils/Asn1Decode.sol\":5039:5090  require(der[ptr.ixf()] & 0x80 == 0, \"Not positive\") */\n      0x04\n      dup3\n      add\n        /* \"#utility.yul\":6144:6165   */\n      mstore\n        /* \"#utility.yul\":6201:6203   */\n      0x0c\n        /* \"#utility.yul\":6181:6199   */\n      0x24\n      dup3\n      add\n        /* \"#utility.yul\":6174:6204   */\n      mstore\n      shl(0xa0, 0x4e6f7420706f736974697665)\n        /* \"#utility.yul\":6220:6238   */\n      0x44\n      dup3\n      add\n        /* \"#utility.yul\":6213:6255   */\n      mstore\n        /* \"#utility.yul\":6272:6290   */\n      0x64\n      add\n        /* \"src/utils/Asn1Decode.sol\":5039:5090  require(der[ptr.ixf()] & 0x80 == 0, \"Not positive\") */\n      tag_41\n        /* \"#utility.yul\":5960:6296   */\n      jump\n        /* \"src/utils/Asn1Decode.sol\":5039:5090  require(der[ptr.ixf()] & 0x80 == 0, \"Not positive\") */\n    tag_107:\n        /* \"src/utils/Asn1Decode.sol\":5096:5112  uint valueLength */\n      0x00\n        /* \"src/utils/Asn1Decode.sol\":388:390  80 */\n      0x50\n        /* \"src/utils/Asn1Decode.sol\":382:390  self>>80 */\n      dup4\n      swap1\n      shr\n      sub(shl(0x50, 0x01), 0x01)\n        /* \"src/utils/Asn1Decode.sol\":368:391  return uint80(self>>80) */\n      and\n        /* \"src/utils/Asn1Decode.sol\":514:517  160 */\n      0xa0\n        /* \"src/utils/Asn1Decode.sol\":508:517  self>>160 */\n      dup5\n      swap1\n      shr\n      sub(shl(0x50, 0x01), 0x01)\n        /* \"src/utils/Asn1Decode.sol\":494:518  return uint80(self>>160) */\n      and\n        /* \"src/utils/Asn1Decode.sol\":5115:5126  ptr.ixl()+1 */\n      tag_112\n      swap1\n        /* \"src/utils/Asn1Decode.sol\":5125:5126  1 */\n      0x01\n        /* \"src/utils/Asn1Decode.sol\":5115:5126  ptr.ixl()+1 */\n      tag_57\n      jump\t// in\n    tag_112:\n        /* \"src/utils/Asn1Decode.sol\":5115:5138  ptr.ixl()+1 - ptr.ixf() */\n      tag_113\n      swap2\n      swap1\n      tag_24\n      jump\t// in\n    tag_113:\n        /* \"src/utils/Asn1Decode.sol\":5096:5138  uint valueLength = ptr.ixl()+1 - ptr.ixf() */\n      swap1\n      pop\n        /* \"src/utils/Asn1Decode.sol\":5148:5151  der */\n      dup4\n        /* \"src/utils/Asn1Decode.sol\":388:390  80 */\n      0x50\n        /* \"src/utils/Asn1Decode.sol\":382:390  self>>80 */\n      dup5\n      swap1\n      shr\n      sub(shl(0x50, 0x01), 0x01)\n        /* \"src/utils/Asn1Decode.sol\":368:391  return uint80(self>>80) */\n      and\n        /* \"src/utils/Asn1Decode.sol\":5148:5162  der[ptr.ixf()] */\n      dup2\n      mload\n      dup2\n      lt\n      tag_116\n      jumpi\n      tag_116\n      tag_67\n      jump\t// in\n    tag_116:\n      add\n      0x20\n      add\n      mload\n      not(sub(shl(0xf8, 0x01), 0x01))\n      and\n        /* \"src/utils/Asn1Decode.sol\":5166:5167  0 */\n      0x00\n        /* \"src/utils/Asn1Decode.sol\":5148:5167  der[ptr.ixf()] == 0 */\n      sub\n        /* \"src/utils/Asn1Decode.sol\":5144:5284  if (der[ptr.ixf()] == 0)... */\n      tag_117\n      jumpi\n        /* \"src/utils/Asn1Decode.sol\":5182:5223  der.substring(ptr.ixf()+1, valueLength-1) */\n      tag_118\n        /* \"src/utils/Asn1Decode.sol\":5196:5207  ptr.ixf()+1 */\n      tag_120\n      sub(shl(0x50, 0x01), 0x01)\n        /* \"src/utils/Asn1Decode.sol\":388:390  80 */\n      0x50\n        /* \"src/utils/Asn1Decode.sol\":382:390  self>>80 */\n      dup7\n      swap1\n      shr\n        /* \"src/utils/Asn1Decode.sol\":368:391  return uint80(self>>80) */\n      and\n        /* \"src/utils/Asn1Decode.sol\":5206:5207  1 */\n      0x01\n        /* \"src/utils/Asn1Decode.sol\":5196:5207  ptr.ixf()+1 */\n      tag_57\n      jump\t// in\n    tag_120:\n        /* \"src/utils/Asn1Decode.sol\":5209:5222  valueLength-1 */\n      tag_121\n        /* \"src/utils/Asn1Decode.sol\":5221:5222  1 */\n      0x01\n        /* \"src/utils/Asn1Decode.sol\":5209:5220  valueLength */\n      dup5\n        /* \"src/utils/Asn1Decode.sol\":5209:5222  valueLength-1 */\n      tag_24\n      jump\t// in\n    tag_121:\n        /* \"src/utils/Asn1Decode.sol\":5182:5185  der */\n      dup7\n      swap2\n        /* \"src/utils/Asn1Decode.sol\":5182:5223  der.substring(ptr.ixf()+1, valueLength-1) */\n      swap1\n        /* \"src/utils/Asn1Decode.sol\":5182:5195  der.substring */\n      tag_82\n        /* \"src/utils/Asn1Decode.sol\":5182:5223  der.substring(ptr.ixf()+1, valueLength-1) */\n      jump\t// in\n    tag_118:\n        /* \"src/utils/Asn1Decode.sol\":5175:5223  return der.substring(ptr.ixf()+1, valueLength-1) */\n      swap2\n      pop\n      pop\n      jump(tag_60)\n        /* \"src/utils/Asn1Decode.sol\":5144:5284  if (der[ptr.ixf()] == 0)... */\n    tag_117:\n        /* \"src/utils/Asn1Decode.sol\":5247:5284  der.substring(ptr.ixf(), valueLength) */\n      tag_118\n        /* \"src/utils/Asn1Decode.sol\":5247:5250  der */\n      dup5\n      sub(shl(0x50, 0x01), 0x01)\n        /* \"src/utils/Asn1Decode.sol\":388:390  80 */\n      0x50\n        /* \"src/utils/Asn1Decode.sol\":382:390  self>>80 */\n      dup7\n      swap1\n      shr\n        /* \"src/utils/Asn1Decode.sol\":368:391  return uint80(self>>80) */\n      and\n        /* \"src/utils/Asn1Decode.sol\":5272:5283  valueLength */\n      dup4\n        /* \"src/utils/Asn1Decode.sol\":5247:5260  der.substring */\n      tag_82\n        /* \"src/utils/Asn1Decode.sol\":5247:5284  der.substring(ptr.ixf(), valueLength) */\n      jump\t// in\n        /* \"src/utils/ModexpPrecompile.sol\":201:895  function modexp(... */\n    tag_54:\n        /* \"src/utils/ModexpPrecompile.sol\":334:346  bool success */\n      0x00\n        /* \"src/utils/ModexpPrecompile.sol\":348:367  bytes memory output */\n      0x60\n        /* \"src/utils/ModexpPrecompile.sol\":379:397  bytes memory input */\n      0x00\n        /* \"src/utils/ModexpPrecompile.sol\":438:442  base */\n      dup6\n        /* \"src/utils/ModexpPrecompile.sol\":438:449  base.length */\n      mload\n        /* \"src/utils/ModexpPrecompile.sol\":472:480  exponent */\n      dup6\n        /* \"src/utils/ModexpPrecompile.sol\":472:487  exponent.length */\n      mload\n        /* \"src/utils/ModexpPrecompile.sol\":510:517  modulus */\n      dup6\n        /* \"src/utils/ModexpPrecompile.sol\":510:524  modulus.length */\n      mload\n        /* \"src/utils/ModexpPrecompile.sol\":539:543  base */\n      dup9\n        /* \"src/utils/ModexpPrecompile.sol\":557:565  exponent */\n      dup9\n        /* \"src/utils/ModexpPrecompile.sol\":579:586  modulus */\n      dup9\n        /* \"src/utils/ModexpPrecompile.sol\":400:596  abi.encodePacked(... */\n      add(0x20, mload(0x40))\n      tag_126\n      swap7\n      swap6\n      swap5\n      swap4\n      swap3\n      swap2\n      swap1\n      tag_127\n      jump\t// in\n    tag_126:\n      mload(0x40)\n      0x20\n      dup2\n      dup4\n      sub\n      sub\n      dup2\n      mstore\n      swap1\n      0x40\n      mstore\n        /* \"src/utils/ModexpPrecompile.sol\":379:596  bytes memory input = abi.encodePacked(... */\n      swap1\n      pop\n        /* \"src/utils/ModexpPrecompile.sol\":626:633  modulus */\n      dup4\n        /* \"src/utils/ModexpPrecompile.sol\":626:640  modulus.length */\n      mload\n        /* \"src/utils/ModexpPrecompile.sol\":616:641  new bytes(modulus.length) */\n      0xffffffffffffffff\n      dup2\n      gt\n      iszero\n      tag_129\n      jumpi\n      tag_129\n      tag_130\n      jump\t// in\n    tag_129:\n      mload(0x40)\n      swap1\n      dup1\n      dup3\n      mstore\n      dup1\n      0x1f\n      add\n      not(0x1f)\n      and\n      0x20\n      add\n      dup3\n      add\n      0x40\n      mstore\n      dup1\n      iszero\n      tag_131\n      jumpi\n      0x20\n      dup3\n      add\n      dup2\n      dup1\n      calldatasize\n      dup4\n      calldatacopy\n      add\n      swap1\n      pop\n    tag_131:\n      pop\n        /* \"src/utils/ModexpPrecompile.sol\":607:641  output = new bytes(modulus.length) */\n      swap2\n      pop\n        /* \"src/utils/ModexpPrecompile.sol\":857:864  modulus */\n      dup4\n        /* \"src/utils/ModexpPrecompile.sol\":851:865  mload(modulus) */\n      mload\n        /* \"src/utils/ModexpPrecompile.sol\":830:832  32 */\n      0x20\n        /* \"src/utils/ModexpPrecompile.sol\":822:828  output */\n      dup4\n        /* \"src/utils/ModexpPrecompile.sol\":818:833  add(output, 32) */\n      add\n        /* \"src/utils/ModexpPrecompile.sol\":794:799  input */\n      dup3\n        /* \"src/utils/ModexpPrecompile.sol\":788:800  mload(input) */\n      mload\n        /* \"src/utils/ModexpPrecompile.sol\":767:769  32 */\n      0x20\n        /* \"src/utils/ModexpPrecompile.sol\":760:765  input */\n      dup5\n        /* \"src/utils/ModexpPrecompile.sol\":756:770  add(input, 32) */\n      add\n        /* \"src/utils/ModexpPrecompile.sol\":737:738  5 */\n      0x05\n        /* \"src/utils/ModexpPrecompile.sol\":714:719  gas() */\n      gas\n        /* \"src/utils/ModexpPrecompile.sol\":686:879  staticcall(... */\n      staticcall\n        /* \"src/utils/ModexpPrecompile.sol\":675:879  success := staticcall(... */\n      swap3\n      pop\n        /* \"src/utils/ModexpPrecompile.sol\":661:889  {... */\n      pop\n        /* \"src/utils/ModexpPrecompile.sol\":201:895  function modexp(... */\n      swap4\n      pop\n      swap4\n      swap2\n      pop\n      pop\n      jump\t// out\n        /* \"src/utils/Asn1Decode.sol\":6190:7040  function readNodeLength(bytes memory der, uint ix) private pure returns (uint) {... */\n    tag_61:\n        /* \"src/utils/Asn1Decode.sol\":6263:6267  uint */\n      0x00\n      dup1\n      dup1\n      dup1\n        /* \"src/utils/Asn1Decode.sol\":6357:6360  der */\n      dup6\n        /* \"src/utils/Asn1Decode.sol\":6361:6365  ix+1 */\n      tag_133\n        /* \"src/utils/Asn1Decode.sol\":6361:6363  ix */\n      dup7\n        /* \"src/utils/Asn1Decode.sol\":6364:6365  1 */\n      0x01\n        /* \"src/utils/Asn1Decode.sol\":6361:6365  ix+1 */\n      tag_57\n      jump\t// in\n    tag_133:\n        /* \"src/utils/Asn1Decode.sol\":6357:6366  der[ix+1] */\n      dup2\n      mload\n      dup2\n      lt\n      tag_135\n      jumpi\n      tag_135\n      tag_67\n      jump\t// in\n    tag_135:\n      add\n      0x20\n      add\n      mload\n      shl(0xff, 0x01)\n        /* \"src/utils/Asn1Decode.sol\":6357:6373  der[ix+1] & 0x80 */\n      and\n        /* \"src/utils/Asn1Decode.sol\":6378:6379  0 */\n      0x00\n        /* \"src/utils/Asn1Decode.sol\":6356:6379  (der[ix+1] & 0x80) == 0 */\n      sub\n        /* \"src/utils/Asn1Decode.sol\":6352:6966  if ((der[ix+1] & 0x80) == 0) {... */\n      tag_136\n      jumpi\n        /* \"src/utils/Asn1Decode.sol\":6402:6405  der */\n      dup6\n        /* \"src/utils/Asn1Decode.sol\":6406:6410  ix+1 */\n      tag_137\n        /* \"src/utils/Asn1Decode.sol\":6406:6408  ix */\n      dup7\n        /* \"src/utils/Asn1Decode.sol\":6409:6410  1 */\n      0x01\n        /* \"src/utils/Asn1Decode.sol\":6406:6410  ix+1 */\n      tag_57\n      jump\t// in\n    tag_137:\n        /* \"src/utils/Asn1Decode.sol\":6402:6411  der[ix+1] */\n      dup2\n      mload\n      dup2\n      lt\n      tag_139\n      jumpi\n      tag_139\n      tag_67\n      jump\t// in\n    tag_139:\n      add\n      0x20\n      add\n      mload\n      0xf8\n      shr\n      swap3\n      pop\n        /* \"src/utils/Asn1Decode.sol\":6446:6450  ix+2 */\n      tag_140\n        /* \"src/utils/Asn1Decode.sol\":6446:6448  ix */\n      dup6\n        /* \"src/utils/Asn1Decode.sol\":6449:6450  2 */\n      0x02\n        /* \"src/utils/Asn1Decode.sol\":6446:6450  ix+2 */\n      tag_57\n      jump\t// in\n    tag_140:\n        /* \"src/utils/Asn1Decode.sol\":6418:6451  ixFirstContentByte = uint80(ix+2) */\n      swap2\n      pop\n        /* \"src/utils/Asn1Decode.sol\":6513:6514  1 */\n      0x01\n        /* \"src/utils/Asn1Decode.sol\":6484:6511  ixFirstContentByte + length */\n      tag_141\n        /* \"src/utils/Asn1Decode.sol\":6505:6511  length */\n      dup5\n      sub(shl(0x50, 0x01), 0x01)\n        /* \"src/utils/Asn1Decode.sol\":6484:6511  ixFirstContentByte + length */\n      dup6\n      and\n      tag_57\n      jump\t// in\n    tag_141:\n        /* \"src/utils/Asn1Decode.sol\":6484:6514  ixFirstContentByte + length -1 */\n      tag_142\n      swap2\n      swap1\n      tag_24\n      jump\t// in\n    tag_142:\n        /* \"src/utils/Asn1Decode.sol\":6457:6515  ixLastContentByte = uint80(ixFirstContentByte + length -1) */\n      swap1\n      pop\n        /* \"src/utils/Asn1Decode.sol\":6352:6966  if ((der[ix+1] & 0x80) == 0) {... */\n      jump(tag_143)\n    tag_136:\n        /* \"src/utils/Asn1Decode.sol\":6536:6559  uint8 lengthbytesLength */\n      0x00\n        /* \"src/utils/Asn1Decode.sol\":6568:6571  der */\n      dup7\n        /* \"src/utils/Asn1Decode.sol\":6572:6576  ix+1 */\n      tag_144\n        /* \"src/utils/Asn1Decode.sol\":6572:6574  ix */\n      dup8\n        /* \"src/utils/Asn1Decode.sol\":6575:6576  1 */\n      0x01\n        /* \"src/utils/Asn1Decode.sol\":6572:6576  ix+1 */\n      tag_57\n      jump\t// in\n    tag_144:\n        /* \"src/utils/Asn1Decode.sol\":6568:6577  der[ix+1] */\n      dup2\n      mload\n      dup2\n      lt\n      tag_146\n      jumpi\n      tag_146\n      tag_67\n      jump\t// in\n    tag_146:\n      0x20\n      swap2\n      add\n      add\n      mload\n      0xf8\n      shr\n        /* \"src/utils/Asn1Decode.sol\":6580:6584  0x7F */\n      0x7f\n        /* \"src/utils/Asn1Decode.sol\":6562:6585  uint8(der[ix+1] & 0x7F) */\n      and\n      swap1\n      pop\n        /* \"src/utils/Asn1Decode.sol\":6618:6619  1 */\n      0x01\n        /* \"src/utils/Asn1Decode.sol\":6597:6619  lengthbytesLength == 1 */\n      dup2\n      swap1\n      sub\n        /* \"src/utils/Asn1Decode.sol\":6593:6838  if (lengthbytesLength == 1)... */\n      tag_147\n      jumpi\n        /* \"src/utils/Asn1Decode.sol\":6638:6657  der.readUint8(ix+2) */\n      tag_148\n        /* \"src/utils/Asn1Decode.sol\":6652:6656  ix+2 */\n      tag_149\n        /* \"src/utils/Asn1Decode.sol\":6652:6654  ix */\n      dup8\n        /* \"src/utils/Asn1Decode.sol\":6655:6656  2 */\n      0x02\n        /* \"src/utils/Asn1Decode.sol\":6652:6656  ix+2 */\n      tag_57\n      jump\t// in\n    tag_149:\n        /* \"src/utils/Asn1Decode.sol\":6638:6641  der */\n      dup9\n      swap1\n        /* \"src/utils/Asn1Decode.sol\":6638:6651  der.readUint8 */\n      tag_150\n        /* \"src/utils/Asn1Decode.sol\":6638:6657  der.readUint8(ix+2) */\n      jump\t// in\n    tag_148:\n        /* \"src/utils/Asn1Decode.sol\":6629:6657  length = der.readUint8(ix+2) */\n      0xff\n      and\n      swap4\n      pop\n        /* \"src/utils/Asn1Decode.sol\":6593:6838  if (lengthbytesLength == 1)... */\n      jump(tag_156)\n    tag_147:\n        /* \"src/utils/Asn1Decode.sol\":6674:6691  lengthbytesLength */\n      dup1\n        /* \"src/utils/Asn1Decode.sol\":6674:6696  lengthbytesLength == 2 */\n      0xff\n      and\n        /* \"src/utils/Asn1Decode.sol\":6695:6696  2 */\n      0x02\n        /* \"src/utils/Asn1Decode.sol\":6674:6696  lengthbytesLength == 2 */\n      sub\n        /* \"src/utils/Asn1Decode.sol\":6670:6838  if (lengthbytesLength == 2)... */\n      tag_152\n      jumpi\n        /* \"src/utils/Asn1Decode.sol\":6715:6735  der.readUint16(ix+2) */\n      tag_153\n        /* \"src/utils/Asn1Decode.sol\":6730:6734  ix+2 */\n      tag_154\n        /* \"src/utils/Asn1Decode.sol\":6730:6732  ix */\n      dup8\n        /* \"src/utils/Asn1Decode.sol\":6733:6734  2 */\n      0x02\n        /* \"src/utils/Asn1Decode.sol\":6730:6734  ix+2 */\n      tag_57\n      jump\t// in\n    tag_154:\n        /* \"src/utils/Asn1Decode.sol\":6715:6718  der */\n      dup9\n      swap1\n        /* \"src/utils/Asn1Decode.sol\":6715:6729  der.readUint16 */\n      tag_155\n        /* \"src/utils/Asn1Decode.sol\":6715:6735  der.readUint16(ix+2) */\n      jump\t// in\n    tag_153:\n        /* \"src/utils/Asn1Decode.sol\":6706:6735  length = der.readUint16(ix+2) */\n      0xffff\n      and\n      swap4\n      pop\n        /* \"src/utils/Asn1Decode.sol\":6670:6838  if (lengthbytesLength == 2)... */\n      jump(tag_156)\n    tag_152:\n        /* \"src/utils/Asn1Decode.sol\":6814:6834  32-lengthbytesLength */\n      tag_157\n        /* \"src/utils/Asn1Decode.sol\":6817:6834  lengthbytesLength */\n      dup2\n        /* \"src/utils/Asn1Decode.sol\":6814:6816  32 */\n      0x20\n        /* \"src/utils/Asn1Decode.sol\":6814:6834  32-lengthbytesLength */\n      tag_158\n      jump\t// in\n    tag_157:\n        /* \"src/utils/Asn1Decode.sol\":6813:6837  (32-lengthbytesLength)*8 */\n      tag_159\n      swap1\n        /* \"src/utils/Asn1Decode.sol\":6836:6837  8 */\n      0x08\n        /* \"src/utils/Asn1Decode.sol\":6813:6837  (32-lengthbytesLength)*8 */\n      tag_160\n      jump\t// in\n    tag_159:\n        /* \"src/utils/Asn1Decode.sol\":6770:6837  der.readBytesN(ix+2, lengthbytesLength) >> (32-lengthbytesLength)*8 */\n      0xff\n      and\n        /* \"src/utils/Asn1Decode.sol\":6770:6809  der.readBytesN(ix+2, lengthbytesLength) */\n      tag_161\n        /* \"src/utils/Asn1Decode.sol\":6785:6789  ix+2 */\n      tag_162\n        /* \"src/utils/Asn1Decode.sol\":6785:6787  ix */\n      dup9\n        /* \"src/utils/Asn1Decode.sol\":6788:6789  2 */\n      0x02\n        /* \"src/utils/Asn1Decode.sol\":6785:6789  ix+2 */\n      tag_57\n      jump\t// in\n    tag_162:\n        /* \"src/utils/Asn1Decode.sol\":6770:6773  der */\n      dup10\n      swap1\n        /* \"src/utils/Asn1Decode.sol\":6770:6809  der.readBytesN(ix+2, lengthbytesLength) */\n      0xff\n      dup6\n      and\n        /* \"src/utils/Asn1Decode.sol\":6770:6784  der.readBytesN */\n      tag_163\n        /* \"src/utils/Asn1Decode.sol\":6770:6809  der.readBytesN(ix+2, lengthbytesLength) */\n      jump\t// in\n    tag_161:\n        /* \"src/utils/Asn1Decode.sol\":6770:6837  der.readBytesN(ix+2, lengthbytesLength) >> (32-lengthbytesLength)*8 */\n      swap1\n      shr\n      swap4\n      pop\n        /* \"src/utils/Asn1Decode.sol\":6670:6838  if (lengthbytesLength == 2)... */\n    tag_156:\n        /* \"src/utils/Asn1Decode.sol\":6872:6894  ix+2+lengthbytesLength */\n      0xff\n      dup2\n      and\n        /* \"src/utils/Asn1Decode.sol\":6872:6876  ix+2 */\n      tag_164\n        /* \"src/utils/Asn1Decode.sol\":6872:6874  ix */\n      dup8\n        /* \"src/utils/Asn1Decode.sol\":6875:6876  2 */\n      0x02\n        /* \"src/utils/Asn1Decode.sol\":6872:6876  ix+2 */\n      tag_57\n      jump\t// in\n    tag_164:\n        /* \"src/utils/Asn1Decode.sol\":6872:6894  ix+2+lengthbytesLength */\n      tag_165\n      swap2\n      swap1\n      tag_57\n      jump\t// in\n    tag_165:\n        /* \"src/utils/Asn1Decode.sol\":6844:6895  ixFirstContentByte = uint80(ix+2+lengthbytesLength) */\n      swap3\n      pop\n        /* \"src/utils/Asn1Decode.sol\":6957:6958  1 */\n      0x01\n        /* \"src/utils/Asn1Decode.sol\":6928:6955  ixFirstContentByte + length */\n      tag_166\n        /* \"src/utils/Asn1Decode.sol\":6949:6955  length */\n      dup6\n      sub(shl(0x50, 0x01), 0x01)\n        /* \"src/utils/Asn1Decode.sol\":6928:6955  ixFirstContentByte + length */\n      dup7\n      and\n      tag_57\n      jump\t// in\n    tag_166:\n        /* \"src/utils/Asn1Decode.sol\":6928:6958  ixFirstContentByte + length -1 */\n      tag_167\n      swap2\n      swap1\n      tag_24\n      jump\t// in\n    tag_167:\n        /* \"src/utils/Asn1Decode.sol\":6901:6959  ixLastContentByte = uint80(ixFirstContentByte + length -1) */\n      swap2\n      pop\n        /* \"src/utils/Asn1Decode.sol\":6528:6966  {... */\n      pop\n        /* \"src/utils/Asn1Decode.sol\":6352:6966  if ((der[ix+1] & 0x80) == 0) {... */\n    tag_143:\n      shl(0xa0, 0xffffffffffffffffffff)\n        /* \"src/utils/Asn1Decode.sol\":681:684  160 */\n      0xa0\n        /* \"src/utils/Asn1Decode.sol\":675:684  _ixl<<160 */\n      dup3\n      swap1\n      shl\n      and\n      shl(0x50, 0xffffffffffffffffffff)\n        /* \"src/utils/Asn1Decode.sol\":659:661  80 */\n      0x50\n        /* \"src/utils/Asn1Decode.sol\":653:661  _ixf<<80 */\n      dup5\n      swap1\n      shl\n      and\n        /* \"src/utils/Asn1Decode.sol\":645:661  _ixs |= _ixf<<80 */\n      dup7\n      or\n        /* \"src/utils/Asn1Decode.sol\":667:684  _ixs |= _ixl<<160 */\n      or\n        /* \"src/utils/Asn1Decode.sol\":6971:7035  return NodePtr.getPtr(ix, ixFirstContentByte, ixLastContentByte) */\n      swap7\n        /* \"src/utils/Asn1Decode.sol\":6190:7040  function readNodeLength(bytes memory der, uint ix) private pure returns (uint) {... */\n      swap6\n      pop\n      pop\n      pop\n      pop\n      pop\n      pop\n      jump\t// out\n        /* \"src/utils/BytesUtils.sol\":9528:9964  function substring(... */\n    tag_82:\n        /* \"src/utils/BytesUtils.sol\":9696:9707  self.length */\n      dup3\n      mload\n        /* \"src/utils/BytesUtils.sol\":9648:9660  bytes memory */\n      0x60\n      swap1\n        /* \"src/utils/BytesUtils.sol\":9680:9692  offset + len */\n      tag_174\n        /* \"src/utils/BytesUtils.sol\":9689:9692  len */\n      dup4\n        /* \"src/utils/BytesUtils.sol\":9680:9686  offset */\n      dup6\n        /* \"src/utils/BytesUtils.sol\":9680:9692  offset + len */\n      tag_57\n      jump\t// in\n    tag_174:\n        /* \"src/utils/BytesUtils.sol\":9680:9707  offset + len <= self.length */\n      gt\n      iszero\n        /* \"src/utils/BytesUtils.sol\":9672:9708  require(offset + len <= self.length) */\n      tag_175\n      jumpi\n      0x00\n      dup1\n      revert\n    tag_175:\n        /* \"src/utils/BytesUtils.sol\":9719:9735  bytes memory ret */\n      0x00\n        /* \"src/utils/BytesUtils.sol\":9748:9751  len */\n      dup3\n        /* \"src/utils/BytesUtils.sol\":9738:9752  new bytes(len) */\n      0xffffffffffffffff\n      dup2\n      gt\n      iszero\n      tag_177\n      jumpi\n      tag_177\n      tag_130\n      jump\t// in\n    tag_177:\n      mload(0x40)\n      swap1\n      dup1\n      dup3\n      mstore\n      dup1\n      0x1f\n      add\n      not(0x1f)\n      and\n      0x20\n      add\n      dup3\n      add\n      0x40\n      mstore\n      dup1\n      iszero\n      tag_178\n      jumpi\n      0x20\n      dup3\n      add\n      dup2\n      dup1\n      calldatasize\n      dup4\n      calldatacopy\n      add\n      swap1\n      pop\n    tag_178:\n      pop\n        /* \"src/utils/BytesUtils.sol\":9719:9752  bytes memory ret = new bytes(len) */\n      swap1\n      pop\n        /* \"src/utils/BytesUtils.sol\":9846:9848  32 */\n      0x20\n        /* \"src/utils/BytesUtils.sol\":9837:9849  add(ret, 32) */\n      dup1\n      dup3\n      add\n      swap1\n        /* \"src/utils/BytesUtils.sol\":9869:9895  add(add(self, 32), offset) */\n      dup7\n      dup7\n      add\n      add\n        /* \"src/utils/BytesUtils.sol\":9914:9936  memcpy(dest, src, len) */\n      tag_179\n        /* \"src/utils/BytesUtils.sol\":9837:9849  add(ret, 32) */\n      dup3\n        /* \"src/utils/BytesUtils.sol\":9869:9895  add(add(self, 32), offset) */\n      dup3\n        /* \"src/utils/BytesUtils.sol\":9932:9935  len */\n      dup8\n        /* \"src/utils/BytesUtils.sol\":9914:9920  memcpy */\n      tag_180\n        /* \"src/utils/BytesUtils.sol\":9914:9936  memcpy(dest, src, len) */\n      jump\t// in\n    tag_179:\n      pop\n        /* \"src/utils/BytesUtils.sol\":9954:9957  ret */\n      swap1\n      swap6\n        /* \"src/utils/BytesUtils.sol\":9528:9964  function substring(... */\n      swap5\n      pop\n      pop\n      pop\n      pop\n      pop\n      jump\t// out\n        /* \"src/utils/BytesUtils.sol\":5813:5966  function readUint8(bytes memory self, uint256 idx)... */\n    tag_150:\n        /* \"src/utils/BytesUtils.sol\":5911:5920  uint8 ret */\n      0x00\n        /* \"src/utils/BytesUtils.sol\":5949:5953  self */\n      dup3\n        /* \"src/utils/BytesUtils.sol\":5954:5957  idx */\n      dup3\n        /* \"src/utils/BytesUtils.sol\":5949:5958  self[idx] */\n      dup2\n      mload\n      dup2\n      lt\n      tag_183\n      jumpi\n      tag_183\n      tag_67\n      jump\t// in\n    tag_183:\n      add\n      0x20\n      add\n      mload\n      0xf8\n      shr\n      swap1\n      pop\n        /* \"src/utils/BytesUtils.sol\":5813:5966  function readUint8(bytes memory self, uint256 idx)... */\n      swap3\n      swap2\n      pop\n      pop\n      jump\t// out\n        /* \"src/utils/BytesUtils.sol\":6215:6469  function readUint16(bytes memory self, uint256 idx)... */\n    tag_155:\n        /* \"src/utils/BytesUtils.sol\":6359:6370  self.length */\n      dup2\n      mload\n        /* \"src/utils/BytesUtils.sol\":6314:6324  uint16 ret */\n      0x00\n      swap1\n        /* \"src/utils/BytesUtils.sol\":6348:6355  idx + 2 */\n      tag_185\n        /* \"src/utils/BytesUtils.sol\":6348:6351  idx */\n      dup4\n        /* \"src/utils/BytesUtils.sol\":6354:6355  2 */\n      0x02\n        /* \"src/utils/BytesUtils.sol\":6348:6355  idx + 2 */\n      tag_57\n      jump\t// in\n    tag_185:\n        /* \"src/utils/BytesUtils.sol\":6348:6370  idx + 2 <= self.length */\n      gt\n      iszero\n        /* \"src/utils/BytesUtils.sol\":6340:6371  require(idx + 2 <= self.length) */\n      tag_186\n      jumpi\n      0x00\n      dup1\n      revert\n    tag_186:\n      pop\n        /* \"src/utils/BytesUtils.sol\":6421:6443  add(add(self, 2), idx) */\n      add\n        /* \"src/utils/BytesUtils.sol\":6435:6436  2 */\n      0x02\n        /* \"src/utils/BytesUtils.sol\":6421:6443  add(add(self, 2), idx) */\n      add\n        /* \"src/utils/BytesUtils.sol\":6415:6444  mload(add(add(self, 2), idx)) */\n      mload\n        /* \"src/utils/BytesUtils.sol\":6446:6452  0xFFFF */\n      0xffff\n        /* \"src/utils/BytesUtils.sol\":6411:6453  and(mload(add(add(self, 2), idx)), 0xFFFF) */\n      and\n      swap1\n        /* \"src/utils/BytesUtils.sol\":6215:6469  function readUint16(bytes memory self, uint256 idx)... */\n      jump\t// out\n        /* \"src/utils/BytesUtils.sol\":8293:8652  function readBytesN(... */\n    tag_163:\n        /* \"src/utils/BytesUtils.sol\":8411:8422  bytes32 ret */\n      0x00\n        /* \"src/utils/BytesUtils.sol\":8449:8451  32 */\n      0x20\n        /* \"src/utils/BytesUtils.sol\":8442:8445  len */\n      dup3\n        /* \"src/utils/BytesUtils.sol\":8442:8451  len <= 32 */\n      gt\n      iszero\n        /* \"src/utils/BytesUtils.sol\":8434:8452  require(len <= 32) */\n      tag_188\n      jumpi\n      0x00\n      dup1\n      revert\n    tag_188:\n        /* \"src/utils/BytesUtils.sol\":8483:8494  self.length */\n      dup4\n      mload\n        /* \"src/utils/BytesUtils.sol\":8470:8479  idx + len */\n      tag_189\n        /* \"src/utils/BytesUtils.sol\":8476:8479  len */\n      dup4\n        /* \"src/utils/BytesUtils.sol\":8470:8473  idx */\n      dup6\n        /* \"src/utils/BytesUtils.sol\":8470:8479  idx + len */\n      tag_57\n      jump\t// in\n    tag_189:\n        /* \"src/utils/BytesUtils.sol\":8470:8494  idx + len <= self.length */\n      gt\n      iszero\n        /* \"src/utils/BytesUtils.sol\":8462:8495  require(idx + len <= self.length) */\n      tag_190\n      jumpi\n      0x00\n      dup1\n      revert\n    tag_190:\n      pop\n        /* \"src/utils/BytesUtils.sol\":8561:8563  32 */\n      0x20\n        /* \"src/utils/BytesUtils.sol\":8605:8628  add(add(self, 32), idx) */\n      swap2\n      swap1\n      swap3\n      add\n      dup2\n      add\n        /* \"src/utils/BytesUtils.sol\":8599:8629  mload(add(add(self, 32), idx)) */\n      mload\n        /* \"src/utils/BytesUtils.sol\":8557:8569  sub(32, len) */\n      swap2\n      swap1\n      sub\n        /* \"src/utils/BytesUtils.sol\":8552:8555  256 */\n      0x0100\n        /* \"src/utils/BytesUtils.sol\":8548:8570  exp(256, sub(32, len)) */\n      exp\n      not(0x00)\n        /* \"src/utils/BytesUtils.sol\":8544:8574  sub(exp(256, sub(32, len)), 1) */\n      add\n        /* \"src/utils/BytesUtils.sol\":8540:8575  not(sub(exp(256, sub(32, len)), 1)) */\n      not\n        /* \"src/utils/BytesUtils.sol\":8595:8636  and(mload(add(add(self, 32), idx)), mask) */\n      and\n      swap1\n        /* \"src/utils/BytesUtils.sol\":8293:8652  function readBytesN(... */\n      jump\t// out\n        /* \"src/utils/BytesUtils.sol\":8658:9303  function memcpy(... */\n    tag_180:\n        /* \"src/utils/BytesUtils.sol\":8831:8833  32 */\n      0x20\n        /* \"src/utils/BytesUtils.sol\":8824:8827  len */\n      dup2\n        /* \"src/utils/BytesUtils.sol\":8824:8833  len >= 32 */\n      lt\n        /* \"src/utils/BytesUtils.sol\":8817:8982  for (; len >= 32; len -= 32) {... */\n      tag_194\n      jumpi\n        /* \"src/utils/BytesUtils.sol\":8900:8910  mload(src) */\n      dup2\n      mload\n        /* \"src/utils/BytesUtils.sol\":8887:8911  mstore(dest, mload(src)) */\n      dup4\n      mstore\n        /* \"src/utils/BytesUtils.sol\":8938:8948  dest += 32 */\n      tag_196\n        /* \"src/utils/BytesUtils.sol\":8946:8948  32 */\n      0x20\n        /* \"src/utils/BytesUtils.sol\":8894:8898  dest */\n      dup5\n        /* \"src/utils/BytesUtils.sol\":8938:8948  dest += 32 */\n      tag_57\n      jump\t// in\n    tag_196:\n      swap3\n      pop\n        /* \"src/utils/BytesUtils.sol\":8962:8971  src += 32 */\n      tag_197\n        /* \"src/utils/BytesUtils.sol\":8969:8971  32 */\n      0x20\n        /* \"src/utils/BytesUtils.sol\":8962:8971  src += 32 */\n      dup4\n      tag_57\n      jump\t// in\n    tag_197:\n      swap2\n      pop\n        /* \"src/utils/BytesUtils.sol\":8835:8844  len -= 32 */\n      tag_198\n        /* \"src/utils/BytesUtils.sol\":8842:8844  32 */\n      0x20\n        /* \"src/utils/BytesUtils.sol\":8835:8844  len -= 32 */\n      dup3\n      tag_24\n      jump\t// in\n    tag_198:\n      swap1\n      pop\n        /* \"src/utils/BytesUtils.sol\":8817:8982  for (; len >= 32; len -= 32) {... */\n      jump(tag_180)\n    tag_194:\n        /* \"src/utils/BytesUtils.sol\":9144:9154  mload(src) */\n      swap1\n      mload\n        /* \"src/utils/BytesUtils.sol\":9203:9214  mload(dest) */\n      dup3\n      mload\n        /* \"src/utils/BytesUtils.sol\":9070:9072  32 */\n      0x20\n        /* \"src/utils/BytesUtils.sol\":9070:9078  32 - len */\n      swap3\n      swap1\n      swap3\n      sub\n        /* \"src/utils/BytesUtils.sol\":9064:9067  256 */\n      0x0100\n        /* \"src/utils/BytesUtils.sol\":9064:9079  256**(32 - len) */\n      exp\n      not(0x00)\n        /* \"src/utils/BytesUtils.sol\":9063:9084  (256**(32 - len)) - 1 */\n      add\n        /* \"src/utils/BytesUtils.sol\":9156:9165  not(mask) */\n      dup1\n      not\n        /* \"src/utils/BytesUtils.sol\":9140:9166  and(mload(src), not(mask)) */\n      swap1\n      swap2\n      and\n        /* \"src/utils/BytesUtils.sol\":9199:9221  and(mload(dest), mask) */\n      swap2\n      and\n        /* \"src/utils/BytesUtils.sol\":9251:9272  or(destpart, srcpart) */\n      or\n        /* \"src/utils/BytesUtils.sol\":9238:9273  mstore(dest, or(destpart, srcpart)) */\n      swap1\n      mstore\n        /* \"src/utils/BytesUtils.sol\":8658:9303  function memcpy(... */\n      jump\t// out\n        /* \"#utility.yul\":14:361   */\n    tag_199:\n        /* \"#utility.yul\":65:73   */\n      0x00\n        /* \"#utility.yul\":75:81   */\n      dup1\n        /* \"#utility.yul\":129:132   */\n      dup4\n        /* \"#utility.yul\":122:126   */\n      0x1f\n        /* \"#utility.yul\":114:120   */\n      dup5\n        /* \"#utility.yul\":110:127   */\n      add\n        /* \"#utility.yul\":106:133   */\n      slt\n        /* \"#utility.yul\":96:151   */\n      tag_205\n      jumpi\n        /* \"#utility.yul\":147:148   */\n      0x00\n        /* \"#utility.yul\":144:145   */\n      dup1\n        /* \"#utility.yul\":137:149   */\n      revert\n        /* \"#utility.yul\":96:151   */\n    tag_205:\n      pop\n        /* \"#utility.yul\":170:190   */\n      dup2\n      calldataload\n        /* \"#utility.yul\":213:231   */\n      0xffffffffffffffff\n        /* \"#utility.yul\":202:232   */\n      dup2\n      gt\n        /* \"#utility.yul\":199:249   */\n      iszero\n      tag_206\n      jumpi\n        /* \"#utility.yul\":245:246   */\n      0x00\n        /* \"#utility.yul\":242:243   */\n      dup1\n        /* \"#utility.yul\":235:247   */\n      revert\n        /* \"#utility.yul\":199:249   */\n    tag_206:\n        /* \"#utility.yul\":282:286   */\n      0x20\n        /* \"#utility.yul\":274:280   */\n      dup4\n        /* \"#utility.yul\":270:287   */\n      add\n        /* \"#utility.yul\":258:287   */\n      swap2\n      pop\n        /* \"#utility.yul\":334:337   */\n      dup4\n        /* \"#utility.yul\":327:331   */\n      0x20\n        /* \"#utility.yul\":318:324   */\n      dup3\n        /* \"#utility.yul\":310:316   */\n      dup6\n        /* \"#utility.yul\":306:325   */\n      add\n        /* \"#utility.yul\":302:332   */\n      add\n        /* \"#utility.yul\":299:338   */\n      gt\n        /* \"#utility.yul\":296:355   */\n      iszero\n      tag_207\n      jumpi\n        /* \"#utility.yul\":351:352   */\n      0x00\n        /* \"#utility.yul\":348:349   */\n      dup1\n        /* \"#utility.yul\":341:353   */\n      revert\n        /* \"#utility.yul\":296:355   */\n    tag_207:\n        /* \"#utility.yul\":14:361   */\n      swap3\n      pop\n      swap3\n      swap1\n      pop\n      jump\t// out\n        /* \"#utility.yul\":366:1370   */\n    tag_7:\n        /* \"#utility.yul\":476:482   */\n      0x00\n        /* \"#utility.yul\":484:490   */\n      dup1\n        /* \"#utility.yul\":492:498   */\n      0x00\n        /* \"#utility.yul\":500:506   */\n      dup1\n        /* \"#utility.yul\":508:514   */\n      0x00\n        /* \"#utility.yul\":516:522   */\n      dup1\n        /* \"#utility.yul\":569:571   */\n      0x60\n        /* \"#utility.yul\":557:566   */\n      dup8\n        /* \"#utility.yul\":548:555   */\n      dup10\n        /* \"#utility.yul\":544:567   */\n      sub\n        /* \"#utility.yul\":540:572   */\n      slt\n        /* \"#utility.yul\":537:589   */\n      iszero\n      tag_209\n      jumpi\n        /* \"#utility.yul\":585:586   */\n      0x00\n        /* \"#utility.yul\":582:583   */\n      dup1\n        /* \"#utility.yul\":575:587   */\n      revert\n        /* \"#utility.yul\":537:589   */\n    tag_209:\n        /* \"#utility.yul\":625:634   */\n      dup7\n        /* \"#utility.yul\":612:635   */\n      calldataload\n        /* \"#utility.yul\":654:672   */\n      0xffffffffffffffff\n        /* \"#utility.yul\":695:697   */\n      dup1\n        /* \"#utility.yul\":687:693   */\n      dup3\n        /* \"#utility.yul\":684:698   */\n      gt\n        /* \"#utility.yul\":681:715   */\n      iszero\n      tag_210\n      jumpi\n        /* \"#utility.yul\":711:712   */\n      0x00\n        /* \"#utility.yul\":708:709   */\n      dup1\n        /* \"#utility.yul\":701:713   */\n      revert\n        /* \"#utility.yul\":681:715   */\n    tag_210:\n        /* \"#utility.yul\":750:808   */\n      tag_211\n        /* \"#utility.yul\":800:807   */\n      dup11\n        /* \"#utility.yul\":791:797   */\n      dup4\n        /* \"#utility.yul\":780:789   */\n      dup12\n        /* \"#utility.yul\":776:798   */\n      add\n        /* \"#utility.yul\":750:808   */\n      tag_199\n      jump\t// in\n    tag_211:\n        /* \"#utility.yul\":827:835   */\n      swap1\n      swap9\n      pop\n        /* \"#utility.yul\":724:808   */\n      swap7\n      pop\n        /* \"#utility.yul\":915:917   */\n      0x20\n        /* \"#utility.yul\":900:918   */\n      dup10\n      add\n        /* \"#utility.yul\":887:919   */\n      calldataload\n      swap2\n      pop\n        /* \"#utility.yul\":931:947   */\n      dup1\n      dup3\n      gt\n        /* \"#utility.yul\":928:964   */\n      iszero\n      tag_212\n      jumpi\n        /* \"#utility.yul\":960:961   */\n      0x00\n        /* \"#utility.yul\":957:958   */\n      dup1\n        /* \"#utility.yul\":950:962   */\n      revert\n        /* \"#utility.yul\":928:964   */\n    tag_212:\n        /* \"#utility.yul\":999:1059   */\n      tag_213\n        /* \"#utility.yul\":1051:1058   */\n      dup11\n        /* \"#utility.yul\":1040:1048   */\n      dup4\n        /* \"#utility.yul\":1029:1038   */\n      dup12\n        /* \"#utility.yul\":1025:1049   */\n      add\n        /* \"#utility.yul\":999:1059   */\n      tag_199\n      jump\t// in\n    tag_213:\n        /* \"#utility.yul\":1078:1086   */\n      swap1\n      swap7\n      pop\n        /* \"#utility.yul\":973:1059   */\n      swap5\n      pop\n        /* \"#utility.yul\":1166:1168   */\n      0x40\n        /* \"#utility.yul\":1151:1169   */\n      dup10\n      add\n        /* \"#utility.yul\":1138:1170   */\n      calldataload\n      swap2\n      pop\n        /* \"#utility.yul\":1182:1198   */\n      dup1\n      dup3\n      gt\n        /* \"#utility.yul\":1179:1215   */\n      iszero\n      tag_214\n      jumpi\n        /* \"#utility.yul\":1211:1212   */\n      0x00\n        /* \"#utility.yul\":1208:1209   */\n      dup1\n        /* \"#utility.yul\":1201:1213   */\n      revert\n        /* \"#utility.yul\":1179:1215   */\n    tag_214:\n      pop\n        /* \"#utility.yul\":1250:1310   */\n      tag_215\n        /* \"#utility.yul\":1302:1309   */\n      dup10\n        /* \"#utility.yul\":1291:1299   */\n      dup3\n        /* \"#utility.yul\":1280:1289   */\n      dup11\n        /* \"#utility.yul\":1276:1300   */\n      add\n        /* \"#utility.yul\":1250:1310   */\n      tag_199\n      jump\t// in\n    tag_215:\n        /* \"#utility.yul\":366:1370   */\n      swap8\n      swap11\n      swap7\n      swap10\n      pop\n      swap5\n      swap8\n      pop\n      swap3\n      swap6\n        /* \"#utility.yul\":1329:1337   */\n      swap4\n      swap5\n        /* \"#utility.yul\":366:1370   */\n      swap3\n      pop\n      pop\n      pop\n      jump\t// out\n        /* \"#utility.yul\":1567:1694   */\n    tag_130:\n        /* \"#utility.yul\":1628:1638   */\n      0x4e487b71\n        /* \"#utility.yul\":1623:1626   */\n      0xe0\n        /* \"#utility.yul\":1619:1639   */\n      shl\n        /* \"#utility.yul\":1616:1617   */\n      0x00\n        /* \"#utility.yul\":1609:1640   */\n      mstore\n        /* \"#utility.yul\":1659:1663   */\n      0x41\n        /* \"#utility.yul\":1656:1657   */\n      0x04\n        /* \"#utility.yul\":1649:1664   */\n      mstore\n        /* \"#utility.yul\":1683:1687   */\n      0x24\n        /* \"#utility.yul\":1680:1681   */\n      0x00\n        /* \"#utility.yul\":1673:1688   */\n      revert\n        /* \"#utility.yul\":1699:2620   */\n    tag_13:\n        /* \"#utility.yul\":1767:1773   */\n      0x00\n        /* \"#utility.yul\":1820:1822   */\n      0x20\n        /* \"#utility.yul\":1808:1817   */\n      dup3\n        /* \"#utility.yul\":1799:1806   */\n      dup5\n        /* \"#utility.yul\":1795:1818   */\n      sub\n        /* \"#utility.yul\":1791:1823   */\n      slt\n        /* \"#utility.yul\":1788:1840   */\n      iszero\n      tag_219\n      jumpi\n        /* \"#utility.yul\":1836:1837   */\n      0x00\n        /* \"#utility.yul\":1833:1834   */\n      dup1\n        /* \"#utility.yul\":1826:1838   */\n      revert\n        /* \"#utility.yul\":1788:1840   */\n    tag_219:\n        /* \"#utility.yul\":1876:1885   */\n      dup2\n        /* \"#utility.yul\":1863:1886   */\n      calldataload\n        /* \"#utility.yul\":1905:1923   */\n      0xffffffffffffffff\n        /* \"#utility.yul\":1946:1948   */\n      dup1\n        /* \"#utility.yul\":1938:1944   */\n      dup3\n        /* \"#utility.yul\":1935:1949   */\n      gt\n        /* \"#utility.yul\":1932:1966   */\n      iszero\n      tag_220\n      jumpi\n        /* \"#utility.yul\":1962:1963   */\n      0x00\n        /* \"#utility.yul\":1959:1960   */\n      dup1\n        /* \"#utility.yul\":1952:1964   */\n      revert\n        /* \"#utility.yul\":1932:1966   */\n    tag_220:\n        /* \"#utility.yul\":2000:2006   */\n      dup2\n        /* \"#utility.yul\":1989:1998   */\n      dup5\n        /* \"#utility.yul\":1985:2007   */\n      add\n        /* \"#utility.yul\":1975:2007   */\n      swap2\n      pop\n        /* \"#utility.yul\":2045:2052   */\n      dup5\n        /* \"#utility.yul\":2038:2042   */\n      0x1f\n        /* \"#utility.yul\":2034:2036   */\n      dup4\n        /* \"#utility.yul\":2030:2043   */\n      add\n        /* \"#utility.yul\":2026:2053   */\n      slt\n        /* \"#utility.yul\":2016:2071   */\n      tag_221\n      jumpi\n        /* \"#utility.yul\":2067:2068   */\n      0x00\n        /* \"#utility.yul\":2064:2065   */\n      dup1\n        /* \"#utility.yul\":2057:2069   */\n      revert\n        /* \"#utility.yul\":2016:2071   */\n    tag_221:\n        /* \"#utility.yul\":2103:2105   */\n      dup2\n        /* \"#utility.yul\":2090:2106   */\n      calldataload\n        /* \"#utility.yul\":2125:2127   */\n      dup2\n        /* \"#utility.yul\":2121:2123   */\n      dup2\n        /* \"#utility.yul\":2118:2128   */\n      gt\n        /* \"#utility.yul\":2115:2151   */\n      iszero\n      tag_223\n      jumpi\n        /* \"#utility.yul\":2131:2149   */\n      tag_223\n      tag_130\n      jump\t// in\n    tag_223:\n        /* \"#utility.yul\":2206:2208   */\n      0x40\n        /* \"#utility.yul\":2200:2209   */\n      mload\n        /* \"#utility.yul\":2174:2176   */\n      0x1f\n        /* \"#utility.yul\":2260:2273   */\n      dup3\n      add\n      not(0x1f)\n        /* \"#utility.yul\":2256:2278   */\n      swap1\n      dup2\n      and\n        /* \"#utility.yul\":2280:2282   */\n      0x3f\n        /* \"#utility.yul\":2252:2283   */\n      add\n        /* \"#utility.yul\":2248:2288   */\n      and\n        /* \"#utility.yul\":2236:2289   */\n      dup2\n      add\n      swap1\n        /* \"#utility.yul\":2304:2322   */\n      dup4\n      dup3\n      gt\n        /* \"#utility.yul\":2324:2346   */\n      dup2\n      dup4\n      lt\n        /* \"#utility.yul\":2301:2347   */\n      or\n        /* \"#utility.yul\":2298:2370   */\n      iszero\n      tag_225\n      jumpi\n        /* \"#utility.yul\":2350:2368   */\n      tag_225\n      tag_130\n      jump\t// in\n    tag_225:\n        /* \"#utility.yul\":2390:2400   */\n      dup2\n        /* \"#utility.yul\":2386:2388   */\n      0x40\n        /* \"#utility.yul\":2379:2401   */\n      mstore\n        /* \"#utility.yul\":2425:2427   */\n      dup3\n        /* \"#utility.yul\":2417:2423   */\n      dup2\n        /* \"#utility.yul\":2410:2428   */\n      mstore\n        /* \"#utility.yul\":2465:2472   */\n      dup8\n        /* \"#utility.yul\":2460:2462   */\n      0x20\n        /* \"#utility.yul\":2455:2457   */\n      dup5\n        /* \"#utility.yul\":2451:2453   */\n      dup8\n        /* \"#utility.yul\":2447:2458   */\n      add\n        /* \"#utility.yul\":2443:2463   */\n      add\n        /* \"#utility.yul\":2440:2473   */\n      gt\n        /* \"#utility.yul\":2437:2490   */\n      iszero\n      tag_226\n      jumpi\n        /* \"#utility.yul\":2486:2487   */\n      0x00\n        /* \"#utility.yul\":2483:2484   */\n      dup1\n        /* \"#utility.yul\":2476:2488   */\n      revert\n        /* \"#utility.yul\":2437:2490   */\n    tag_226:\n        /* \"#utility.yul\":2542:2544   */\n      dup3\n        /* \"#utility.yul\":2537:2539   */\n      0x20\n        /* \"#utility.yul\":2533:2535   */\n      dup7\n        /* \"#utility.yul\":2529:2540   */\n      add\n        /* \"#utility.yul\":2524:2526   */\n      0x20\n        /* \"#utility.yul\":2516:2522   */\n      dup4\n        /* \"#utility.yul\":2512:2527   */\n      add\n        /* \"#utility.yul\":2499:2545   */\n      calldatacopy\n        /* \"#utility.yul\":2587:2588   */\n      0x00\n        /* \"#utility.yul\":2565:2580   */\n      swap3\n      dup2\n      add\n        /* \"#utility.yul\":2582:2584   */\n      0x20\n        /* \"#utility.yul\":2561:2585   */\n      add\n        /* \"#utility.yul\":2554:2589   */\n      swap3\n      swap1\n      swap3\n      mstore\n      pop\n        /* \"#utility.yul\":2569:2575   */\n      swap6\n        /* \"#utility.yul\":1699:2620   */\n      swap5\n      pop\n      pop\n      pop\n      pop\n      pop\n      jump\t// out\n        /* \"#utility.yul\":2625:2883   */\n    tag_200:\n        /* \"#utility.yul\":2697:2698   */\n      0x00\n        /* \"#utility.yul\":2707:2820   */\n    tag_228:\n        /* \"#utility.yul\":2721:2727   */\n      dup4\n        /* \"#utility.yul\":2718:2719   */\n      dup2\n        /* \"#utility.yul\":2715:2728   */\n      lt\n        /* \"#utility.yul\":2707:2820   */\n      iszero\n      tag_230\n      jumpi\n        /* \"#utility.yul\":2797:2808   */\n      dup2\n      dup2\n      add\n        /* \"#utility.yul\":2791:2809   */\n      mload\n        /* \"#utility.yul\":2778:2789   */\n      dup4\n      dup3\n      add\n        /* \"#utility.yul\":2771:2810   */\n      mstore\n        /* \"#utility.yul\":2743:2745   */\n      0x20\n        /* \"#utility.yul\":2736:2746   */\n      add\n        /* \"#utility.yul\":2707:2820   */\n      jump(tag_228)\n    tag_230:\n        /* \"#utility.yul\":2838:2844   */\n      dup4\n        /* \"#utility.yul\":2835:2836   */\n      dup2\n        /* \"#utility.yul\":2832:2845   */\n      gt\n        /* \"#utility.yul\":2829:2877   */\n      iszero\n      tag_231\n      jumpi\n        /* \"#utility.yul\":2873:2874   */\n      0x00\n        /* \"#utility.yul\":2864:2870   */\n      dup5\n        /* \"#utility.yul\":2859:2862   */\n      dup5\n        /* \"#utility.yul\":2855:2871   */\n      add\n        /* \"#utility.yul\":2848:2875   */\n      mstore\n        /* \"#utility.yul\":2829:2877   */\n    tag_231:\n      pop\n        /* \"#utility.yul\":2625:2883   */\n      pop\n      pop\n      pop\n      jump\t// out\n        /* \"#utility.yul\":2888:3145   */\n    tag_201:\n        /* \"#utility.yul\":2929:2932   */\n      0x00\n        /* \"#utility.yul\":2967:2972   */\n      dup2\n        /* \"#utility.yul\":2961:2973   */\n      mload\n        /* \"#utility.yul\":2994:3000   */\n      dup1\n        /* \"#utility.yul\":2989:2992   */\n      dup5\n        /* \"#utility.yul\":2982:3001   */\n      mstore\n        /* \"#utility.yul\":3010:3073   */\n      tag_233\n        /* \"#utility.yul\":3066:3072   */\n      dup2\n        /* \"#utility.yul\":3059:3063   */\n      0x20\n        /* \"#utility.yul\":3054:3057   */\n      dup7\n        /* \"#utility.yul\":3050:3064   */\n      add\n        /* \"#utility.yul\":3043:3047   */\n      0x20\n        /* \"#utility.yul\":3036:3041   */\n      dup7\n        /* \"#utility.yul\":3032:3048   */\n      add\n        /* \"#utility.yul\":3010:3073   */\n      tag_200\n      jump\t// in\n    tag_233:\n        /* \"#utility.yul\":3127:3129   */\n      0x1f\n        /* \"#utility.yul\":3106:3121   */\n      add\n      not(0x1f)\n        /* \"#utility.yul\":3102:3131   */\n      and\n        /* \"#utility.yul\":3093:3132   */\n      swap3\n      swap1\n      swap3\n      add\n        /* \"#utility.yul\":3134:3138   */\n      0x20\n        /* \"#utility.yul\":3089:3139   */\n      add\n      swap3\n        /* \"#utility.yul\":2888:3145   */\n      swap2\n      pop\n      pop\n      jump\t// out\n        /* \"#utility.yul\":3150:3527   */\n    tag_16:\n        /* \"#utility.yul\":3343:3345   */\n      0x40\n        /* \"#utility.yul\":3332:3341   */\n      dup2\n        /* \"#utility.yul\":3325:3346   */\n      mstore\n        /* \"#utility.yul\":3306:3310   */\n      0x00\n        /* \"#utility.yul\":3369:3413   */\n      tag_235\n        /* \"#utility.yul\":3409:3411   */\n      0x40\n        /* \"#utility.yul\":3398:3407   */\n      dup4\n        /* \"#utility.yul\":3394:3412   */\n      add\n        /* \"#utility.yul\":3386:3392   */\n      dup6\n        /* \"#utility.yul\":3369:3413   */\n      tag_201\n      jump\t// in\n    tag_235:\n        /* \"#utility.yul\":3461:3470   */\n      dup3\n        /* \"#utility.yul\":3453:3459   */\n      dup2\n        /* \"#utility.yul\":3449:3471   */\n      sub\n        /* \"#utility.yul\":3444:3446   */\n      0x20\n        /* \"#utility.yul\":3433:3442   */\n      dup5\n        /* \"#utility.yul\":3429:3447   */\n      add\n        /* \"#utility.yul\":3422:3472   */\n      mstore\n        /* \"#utility.yul\":3489:3521   */\n      tag_236\n        /* \"#utility.yul\":3514:3520   */\n      dup2\n        /* \"#utility.yul\":3506:3512   */\n      dup6\n        /* \"#utility.yul\":3489:3521   */\n      tag_201\n      jump\t// in\n    tag_236:\n        /* \"#utility.yul\":3481:3521   */\n      swap6\n        /* \"#utility.yul\":3150:3527   */\n      swap5\n      pop\n      pop\n      pop\n      pop\n      pop\n      jump\t// out\n        /* \"#utility.yul\":3532:3659   */\n    tag_202:\n        /* \"#utility.yul\":3593:3603   */\n      0x4e487b71\n        /* \"#utility.yul\":3588:3591   */\n      0xe0\n        /* \"#utility.yul\":3584:3604   */\n      shl\n        /* \"#utility.yul\":3581:3582   */\n      0x00\n        /* \"#utility.yul\":3574:3605   */\n      mstore\n        /* \"#utility.yul\":3624:3628   */\n      0x11\n        /* \"#utility.yul\":3621:3622   */\n      0x04\n        /* \"#utility.yul\":3614:3629   */\n      mstore\n        /* \"#utility.yul\":3648:3652   */\n      0x24\n        /* \"#utility.yul\":3645:3646   */\n      0x00\n        /* \"#utility.yul\":3638:3653   */\n      revert\n        /* \"#utility.yul\":3664:3789   */\n    tag_24:\n        /* \"#utility.yul\":3704:3708   */\n      0x00\n        /* \"#utility.yul\":3732:3733   */\n      dup3\n        /* \"#utility.yul\":3729:3730   */\n      dup3\n        /* \"#utility.yul\":3726:3734   */\n      lt\n        /* \"#utility.yul\":3723:3757   */\n      iszero\n      tag_240\n      jumpi\n        /* \"#utility.yul\":3737:3755   */\n      tag_240\n      tag_202\n      jump\t// in\n    tag_240:\n      pop\n        /* \"#utility.yul\":3774:3783   */\n      sub\n      swap1\n        /* \"#utility.yul\":3664:3789   */\n      jump\t// out\n        /* \"#utility.yul\":3794:4065   */\n    tag_27:\n        /* \"#utility.yul\":3977:3983   */\n      dup2\n        /* \"#utility.yul\":3969:3975   */\n      dup4\n        /* \"#utility.yul\":3964:3967   */\n      dup3\n        /* \"#utility.yul\":3951:3984   */\n      calldatacopy\n        /* \"#utility.yul\":3933:3936   */\n      0x00\n        /* \"#utility.yul\":4003:4019   */\n      swap2\n      add\n        /* \"#utility.yul\":4028:4041   */\n      swap1\n      dup2\n      mstore\n        /* \"#utility.yul\":4003:4019   */\n      swap2\n        /* \"#utility.yul\":3794:4065   */\n      swap1\n      pop\n      jump\t// out\n        /* \"#utility.yul\":4070:4254   */\n    tag_31:\n        /* \"#utility.yul\":4140:4146   */\n      0x00\n        /* \"#utility.yul\":4193:4195   */\n      0x20\n        /* \"#utility.yul\":4181:4190   */\n      dup3\n        /* \"#utility.yul\":4172:4179   */\n      dup5\n        /* \"#utility.yul\":4168:4191   */\n      sub\n        /* \"#utility.yul\":4164:4196   */\n      slt\n        /* \"#utility.yul\":4161:4213   */\n      iszero\n      tag_243\n      jumpi\n        /* \"#utility.yul\":4209:4210   */\n      0x00\n        /* \"#utility.yul\":4206:4207   */\n      dup1\n        /* \"#utility.yul\":4199:4211   */\n      revert\n        /* \"#utility.yul\":4161:4213   */\n    tag_243:\n      pop\n        /* \"#utility.yul\":4232:4248   */\n      mload\n      swap2\n        /* \"#utility.yul\":4070:4254   */\n      swap1\n      pop\n      jump\t// out\n        /* \"#utility.yul\":4599:4727   */\n    tag_57:\n        /* \"#utility.yul\":4639:4642   */\n      0x00\n        /* \"#utility.yul\":4670:4671   */\n      dup3\n        /* \"#utility.yul\":4666:4672   */\n      not\n        /* \"#utility.yul\":4663:4664   */\n      dup3\n        /* \"#utility.yul\":4660:4673   */\n      gt\n        /* \"#utility.yul\":4657:4696   */\n      iszero\n      tag_247\n      jumpi\n        /* \"#utility.yul\":4676:4694   */\n      tag_247\n      tag_202\n      jump\t// in\n    tag_247:\n      pop\n        /* \"#utility.yul\":4712:4721   */\n      add\n      swap1\n        /* \"#utility.yul\":4599:4727   */\n      jump\t// out\n        /* \"#utility.yul\":4732:4859   */\n    tag_67:\n        /* \"#utility.yul\":4793:4803   */\n      0x4e487b71\n        /* \"#utility.yul\":4788:4791   */\n      0xe0\n        /* \"#utility.yul\":4784:4804   */\n      shl\n        /* \"#utility.yul\":4781:4782   */\n      0x00\n        /* \"#utility.yul\":4774:4805   */\n      mstore\n        /* \"#utility.yul\":4824:4828   */\n      0x32\n        /* \"#utility.yul\":4821:4822   */\n      0x04\n        /* \"#utility.yul\":4814:4829   */\n      mstore\n        /* \"#utility.yul\":4848:4852   */\n      0x24\n        /* \"#utility.yul\":4845:4846   */\n      0x00\n        /* \"#utility.yul\":4838:4853   */\n      revert\n        /* \"#utility.yul\":6301:7157   */\n    tag_127:\n        /* \"#utility.yul\":6636:6642   */\n      dup7\n        /* \"#utility.yul\":6631:6634   */\n      dup2\n        /* \"#utility.yul\":6624:6643   */\n      mstore\n        /* \"#utility.yul\":6673:6679   */\n      dup6\n        /* \"#utility.yul\":6668:6670   */\n      0x20\n        /* \"#utility.yul\":6663:6666   */\n      dup3\n        /* \"#utility.yul\":6659:6671   */\n      add\n        /* \"#utility.yul\":6652:6680   */\n      mstore\n        /* \"#utility.yul\":6710:6716   */\n      dup5\n        /* \"#utility.yul\":6705:6707   */\n      0x40\n        /* \"#utility.yul\":6700:6703   */\n      dup3\n        /* \"#utility.yul\":6696:6708   */\n      add\n        /* \"#utility.yul\":6689:6717   */\n      mstore\n        /* \"#utility.yul\":6606:6609   */\n      0x00\n        /* \"#utility.yul\":6746:6752   */\n      dup5\n        /* \"#utility.yul\":6740:6753   */\n      mload\n        /* \"#utility.yul\":6762:6822   */\n      tag_254\n        /* \"#utility.yul\":6815:6821   */\n      dup2\n        /* \"#utility.yul\":6810:6812   */\n      0x60\n        /* \"#utility.yul\":6805:6808   */\n      dup6\n        /* \"#utility.yul\":6801:6813   */\n      add\n        /* \"#utility.yul\":6796:6798   */\n      0x20\n        /* \"#utility.yul\":6788:6794   */\n      dup10\n        /* \"#utility.yul\":6784:6799   */\n      add\n        /* \"#utility.yul\":6762:6822   */\n      tag_200\n      jump\t// in\n    tag_254:\n        /* \"#utility.yul\":6882:6895   */\n      dup5\n      mload\n        /* \"#utility.yul\":6841:6857   */\n      swap1\n      dup4\n      add\n      swap1\n        /* \"#utility.yul\":6904:6965   */\n      tag_255\n        /* \"#utility.yul\":6882:6895   */\n      dup2\n        /* \"#utility.yul\":6951:6953   */\n      0x60\n        /* \"#utility.yul\":6943:6954   */\n      dup5\n      add\n        /* \"#utility.yul\":6938:6940   */\n      0x20\n        /* \"#utility.yul\":6926:6941   */\n      dup10\n      add\n        /* \"#utility.yul\":6904:6965   */\n      tag_200\n      jump\t// in\n    tag_255:\n        /* \"#utility.yul\":7026:7039   */\n      dup5\n      mload\n        /* \"#utility.yul\":6984:7001   */\n      swap2\n      add\n      swap1\n        /* \"#utility.yul\":7048:7109   */\n      tag_256\n        /* \"#utility.yul\":7026:7039   */\n      dup2\n        /* \"#utility.yul\":7095:7097   */\n      0x60\n        /* \"#utility.yul\":7087:7098   */\n      dup5\n      add\n        /* \"#utility.yul\":7082:7084   */\n      0x20\n        /* \"#utility.yul\":7070:7085   */\n      dup9\n      add\n        /* \"#utility.yul\":7048:7109   */\n      tag_200\n      jump\t// in\n    tag_256:\n        /* \"#utility.yul\":7129:7146   */\n      add\n        /* \"#utility.yul\":7148:7150   */\n      0x60\n        /* \"#utility.yul\":7125:7151   */\n      add\n      swap9\n        /* \"#utility.yul\":6301:7157   */\n      swap8\n      pop\n      pop\n      pop\n      pop\n      pop\n      pop\n      pop\n      pop\n      jump\t// out\n        /* \"#utility.yul\":7162:7357   */\n    tag_158:\n        /* \"#utility.yul\":7200:7204   */\n      0x00\n        /* \"#utility.yul\":7237:7241   */\n      0xff\n        /* \"#utility.yul\":7234:7235   */\n      dup3\n        /* \"#utility.yul\":7230:7242   */\n      and\n        /* \"#utility.yul\":7269:7273   */\n      0xff\n        /* \"#utility.yul\":7266:7267   */\n      dup5\n        /* \"#utility.yul\":7262:7274   */\n      and\n        /* \"#utility.yul\":7294:7297   */\n      dup1\n        /* \"#utility.yul\":7289:7292   */\n      dup3\n        /* \"#utility.yul\":7286:7298   */\n      lt\n        /* \"#utility.yul\":7283:7321   */\n      iszero\n      tag_259\n      jumpi\n        /* \"#utility.yul\":7301:7319   */\n      tag_259\n      tag_202\n      jump\t// in\n    tag_259:\n        /* \"#utility.yul\":7338:7351   */\n      swap1\n      sub\n      swap4\n        /* \"#utility.yul\":7162:7357   */\n      swap3\n      pop\n      pop\n      pop\n      jump\t// out\n        /* \"#utility.yul\":7362:7600   */\n    tag_160:\n        /* \"#utility.yul\":7400:7407   */\n      0x00\n        /* \"#utility.yul\":7440:7444   */\n      0xff\n        /* \"#utility.yul\":7437:7438   */\n      dup3\n        /* \"#utility.yul\":7433:7445   */\n      and\n        /* \"#utility.yul\":7472:7476   */\n      0xff\n        /* \"#utility.yul\":7469:7470   */\n      dup5\n        /* \"#utility.yul\":7465:7477   */\n      and\n        /* \"#utility.yul\":7532:7535   */\n      dup2\n        /* \"#utility.yul\":7526:7530   */\n      0xff\n        /* \"#utility.yul\":7522:7536   */\n      div\n        /* \"#utility.yul\":7517:7520   */\n      dup2\n        /* \"#utility.yul\":7514:7537   */\n      gt\n        /* \"#utility.yul\":7507:7510   */\n      dup3\n        /* \"#utility.yul\":7500:7511   */\n      iszero\n        /* \"#utility.yul\":7493:7512   */\n      iszero\n        /* \"#utility.yul\":7489:7538   */\n      and\n        /* \"#utility.yul\":7486:7561   */\n      iszero\n      tag_262\n      jumpi\n        /* \"#utility.yul\":7541:7559   */\n      tag_262\n      tag_202\n      jump\t// in\n    tag_262:\n        /* \"#utility.yul\":7581:7594   */\n      mul\n      swap4\n        /* \"#utility.yul\":7362:7600   */\n      swap3\n      pop\n      pop\n      pop\n      jump\t// out\n\n    auxdata: 0xa2646970667358221220c6eea358879ce673b2ecd53d199265f4b0cd66aa7b8506de68f8d87e5317dda964736f6c634300080f0033\n}\n",
				"bytecode": {
					"linkReferences": {},
					"object": "608060405234801561001057600080fd5b50610d49806100206000396000f3fe608060405234801561001057600080fd5b50600436106100365760003560e01c8063de8f50a11461003b578063df4e0bc314610063575b600080fd5b61004e6100493660046109f7565b610084565b60405190151581526020015b60405180910390f35b610076610071366004610aa7565b61019c565b60405161005a929190610bb4565b60008060608060606100cb8b8b8080601f01602080910402602001604051908101604052809392919081815260200183838082843760009201919091525061019c92505050565b8092508193505050610114828289898080601f01602080910402602001604051908101604052809392919081815260200183838082843760009201919091525061029092505050565b909450925083801561018d5750610139602084516101329190610bf8565b84906102ab565b60028a8a60405161014b929190610c0f565b602060405180830381855afa158015610168573d6000803e3d6000fd5b5050506040513d601f19601f8201168201806040525081019061018b9190610c1f565b145b9b9a5050505050505050505050565b6060806000806060806101ae876102cf565b92506101ba87846102e2565b92506101d06101c988856102e2565b8890610387565b805160209091012093507f3be606946d6f343b24d5ecdbd7e3370a5303ed54845f50f466a35f3bbeb46a45841461023c5760405162461bcd60e51b815260206004820152600b60248201526a496e76616c6964206b657960a81b60448201526064015b60405180910390fd5b61024687846103c1565b925061025287846103e1565b925061025e87846102e2565b925061026a878461046d565b915061027687846103c1565b9250610282878461046d565b919791965090945050505050565b6000606061029f8385876105fd565b91509150935093915050565b81516000906102bb836020610c38565b11156102c657600080fd5b50016020015190565b60006102dc826000610694565b92915050565b6000826001600160501b038316815181106102ff576102ff610c50565b0160200151600160fd1b908116146103645760405162461bcd60e51b815260206004820152602260248201527f41736e316465636f64653a204e6f74206120636f6e7374727563746564207479604482015261706560f01b6064820152608401610233565b61038083605084901c6001600160501b0316610694565b610694565b9392505050565b60606103806001600160501b03605084901c81169081906103af9060a087901c166001610c38565b6103b99190610bf8565b859190610849565b60006103808360a084901c6001600160501b03165b61037b906001610c38565b6000826001600160501b038316815181106103fe576103fe610c50565b6020910101516001600160f81b031916600360f81b146104565760405162461bcd60e51b81526020600482015260136024820152724e6f7420747970652042495420535452494e4760681b6044820152606401610233565b61038083605084901c6001600160501b03166103d6565b6060826001600160501b0383168151811061048a5761048a610c50565b6020910101516001600160f81b031916600160f91b146104df5760405162461bcd60e51b815260206004820152601060248201526f2737ba103a3cb8329024a72a22a3a2a960811b6044820152606401610233565b82605083901c6001600160501b0316815181106104fe576104fe610c50565b0160200151600160ff1b16156105455760405162461bcd60e51b815260206004820152600c60248201526b4e6f7420706f73697469766560a01b6044820152606401610233565b6000605083901c6001600160501b031660a084901c6001600160501b031661056e906001610c38565b6105789190610bf8565b905083605084901c6001600160501b03168151811061059957610599610c50565b01602001516001600160f81b0319166000036105e5576105dd6105ca6001600160501b03605086901c166001610c38565b6105d5600184610bf8565b869190610849565b9150506102dc565b6105dd846001600160501b03605086901c1683610849565b60006060600085518551855188888860405160200161062196959493929190610c66565b6040516020818303038152906040529050835167ffffffffffffffff81111561064c5761064c610a91565b6040519080825280601f01601f191660200182016040528015610676576020820181803683370190505b50915083516020830182516020840160055afa925050935093915050565b6000808080856106a5866001610c38565b815181106106b5576106b5610c50565b0160200151600160ff1b1660000361072057856106d3866001610c38565b815181106106e3576106e3610c50565b016020015160f81c92506106f8856002610c38565b9150600161070f846001600160501b038516610c38565b6107199190610bf8565b9050610814565b60008661072e876001610c38565b8151811061073e5761073e610c50565b60209101015160f81c607f16905060018190036107745761076a610763876002610c38565b88906108cb565b60ff1693506107d6565b8060ff1660020361079f5761079461078d876002610c38565b88906108ef565b61ffff1693506107d6565b6107aa816020610cc7565b6107b5906008610cea565b60ff166107d16107c6886002610c38565b899060ff8516610917565b901c93505b60ff81166107e5876002610c38565b6107ef9190610c38565b92506001610806856001600160501b038616610c38565b6108109190610bf8565b9150505b69ffffffffffffffffffff60a01b60a082901b1669ffffffffffffffffffff60501b605084901b168617179695505050505050565b82516060906108588385610c38565b111561086357600080fd5b60008267ffffffffffffffff81111561087e5761087e610a91565b6040519080825280601f01601f1916602001820160405280156108a8576020820181803683370190505b509050602080820190868601016108c0828287610958565b509095945050505050565b60008282815181106108df576108df610c50565b016020015160f81c905092915050565b81516000906108ff836002610c38565b111561090a57600080fd5b50016002015161ffff1690565b6000602082111561092757600080fd5b83516109338385610c38565b111561093e57600080fd5b506020919092018101519190036101000a60001901191690565b60208110610990578151835261096f602084610c38565b925061097c602083610c38565b9150610989602082610bf8565b9050610958565b905182516020929092036101000a6000190180199091169116179052565b60008083601f8401126109c057600080fd5b50813567ffffffffffffffff8111156109d857600080fd5b6020830191508360208285010111156109f057600080fd5b9250929050565b60008060008060008060608789031215610a1057600080fd5b863567ffffffffffffffff80821115610a2857600080fd5b610a348a838b016109ae565b90985096506020890135915080821115610a4d57600080fd5b610a598a838b016109ae565b90965094506040890135915080821115610a7257600080fd5b50610a7f89828a016109ae565b979a9699509497509295939492505050565b634e487b7160e01b600052604160045260246000fd5b600060208284031215610ab957600080fd5b813567ffffffffffffffff80821115610ad157600080fd5b818401915084601f830112610ae557600080fd5b813581811115610af757610af7610a91565b604051601f8201601f19908116603f01168101908382118183101715610b1f57610b1f610a91565b81604052828152876020848701011115610b3857600080fd5b826020860160208301376000928101602001929092525095945050505050565b60005b83811015610b73578181015183820152602001610b5b565b83811115610b82576000848401525b50505050565b60008151808452610ba0816020860160208601610b58565b601f01601f19169290920160200192915050565b604081526000610bc76040830185610b88565b8281036020840152610bd98185610b88565b95945050505050565b634e487b7160e01b600052601160045260246000fd5b600082821015610c0a57610c0a610be2565b500390565b8183823760009101908152919050565b600060208284031215610c3157600080fd5b5051919050565b60008219821115610c4b57610c4b610be2565b500190565b634e487b7160e01b600052603260045260246000fd5b86815285602082015284604082015260008451610c8a816060850160208901610b58565b845190830190610ca1816060840160208901610b58565b8451910190610cb7816060840160208801610b58565b0160600198975050505050505050565b600060ff821660ff841680821015610ce157610ce1610be2565b90039392505050565b600060ff821660ff84168160ff0481118215151615610d0b57610d0b610be2565b02939250505056fea2646970667358221220c6eea358879ce673b2ecd53d199265f4b0cd66aa7b8506de68f8d87e5317dda964736f6c634300080f0033",
					"opcodes": "PUSH1 0x80 PUSH1 0x40 MSTORE CALLVALUE DUP1 ISZERO PUSH2 0x10 JUMPI PUSH1 0x0 DUP1 REVERT JUMPDEST POP PUSH2 0xD49 DUP1 PUSH2 0x20 PUSH1 0x0 CODECOPY PUSH1 0x0 RETURN INVALID PUSH1 0x80 PUSH1 0x40 MSTORE CALLVALUE DUP1 ISZERO PUSH2 0x10 JUMPI PUSH1 0x0 DUP1 REVERT JUMPDEST POP PUSH1 0x4 CALLDATASIZE LT PUSH2 0x36 JUMPI PUSH1 0x0 CALLDATALOAD PUSH1 0xE0 SHR DUP1 PUSH4 0xDE8F50A1 EQ PUSH2 0x3B JUMPI DUP1 PUSH4 0xDF4E0BC3 EQ PUSH2 0x63 JUMPI JUMPDEST PUSH1 0x0 DUP1 REVERT JUMPDEST PUSH2 0x4E PUSH2 0x49 CALLDATASIZE PUSH1 0x4 PUSH2 0x9F7 JUMP JUMPDEST PUSH2 0x84 JUMP JUMPDEST PUSH1 0x40 MLOAD SWAP1 ISZERO ISZERO DUP2 MSTORE PUSH1 0x20 ADD JUMPDEST PUSH1 0x40 MLOAD DUP1 SWAP2 SUB SWAP1 RETURN JUMPDEST PUSH2 0x76 PUSH2 0x71 CALLDATASIZE PUSH1 0x4 PUSH2 0xAA7 JUMP JUMPDEST PUSH2 0x19C JUMP JUMPDEST PUSH1 0x40 MLOAD PUSH2 0x5A SWAP3 SWAP2 SWAP1 PUSH2 0xBB4 JUMP JUMPDEST PUSH1 0x0 DUP1 PUSH1 0x60 DUP1 PUSH1 0x60 PUSH2 0xCB DUP12 DUP12 DUP1 DUP1 PUSH1 0x1F ADD PUSH1 0x20 DUP1 SWAP2 DIV MUL PUSH1 0x20 ADD PUSH1 0x40 MLOAD SWAP1 DUP2 ADD PUSH1 0x40 MSTORE DUP1 SWAP4 SWAP3 SWAP2 SWAP1 DUP2 DUP2 MSTORE PUSH1 0x20 ADD DUP4 DUP4 DUP1 DUP3 DUP5 CALLDATACOPY PUSH1 0x0 SWAP3 ADD SWAP2 SWAP1 SWAP2 MSTORE POP PUSH2 0x19C SWAP3 POP POP POP JUMP JUMPDEST DUP1 SWAP3 POP DUP2 SWAP4 POP POP POP PUSH2 0x114 DUP3 DUP3 DUP10 DUP10 DUP1 DUP1 PUSH1 0x1F ADD PUSH1 0x20 DUP1 SWAP2 DIV MUL PUSH1 0x20 ADD PUSH1 0x40 MLOAD SWAP1 DUP2 ADD PUSH1 0x40 MSTORE DUP1 SWAP4 SWAP3 SWAP2 SWAP1 DUP2 DUP2 MSTORE PUSH1 0x20 ADD DUP4 DUP4 DUP1 DUP3 DUP5 CALLDATACOPY PUSH1 0x0 SWAP3 ADD SWAP2 SWAP1 SWAP2 MSTORE POP PUSH2 0x290 SWAP3 POP POP POP JUMP JUMPDEST SWAP1 SWAP5 POP SWAP3 POP DUP4 DUP1 ISZERO PUSH2 0x18D JUMPI POP PUSH2 0x139 PUSH1 0x20 DUP5 MLOAD PUSH2 0x132 SWAP2 SWAP1 PUSH2 0xBF8 JUMP JUMPDEST DUP5 SWAP1 PUSH2 0x2AB JUMP JUMPDEST PUSH1 0x2 DUP11 DUP11 PUSH1 0x40 MLOAD PUSH2 0x14B SWAP3 SWAP2 SWAP1 PUSH2 0xC0F JUMP JUMPDEST PUSH1 0x20 PUSH1 0x40 MLOAD DUP1 DUP4 SUB DUP2 DUP6 GAS STATICCALL ISZERO DUP1 ISZERO PUSH2 0x168 JUMPI RETURNDATASIZE PUSH1 0x0 DUP1 RETURNDATACOPY RETURNDATASIZE PUSH1 0x0 REVERT JUMPDEST POP POP POP PUSH1 0x40 MLOAD RETURNDATASIZE PUSH1 0x1F NOT PUSH1 0x1F DUP3 ADD AND DUP3 ADD DUP1 PUSH1 0x40 MSTORE POP DUP2 ADD SWAP1 PUSH2 0x18B SWAP2 SWAP1 PUSH2 0xC1F JUMP JUMPDEST EQ JUMPDEST SWAP12 SWAP11 POP POP POP POP POP POP POP POP POP POP POP JUMP JUMPDEST PUSH1 0x60 DUP1 PUSH1 0x0 DUP1 PUSH1 0x60 DUP1 PUSH2 0x1AE DUP8 PUSH2 0x2CF JUMP JUMPDEST SWAP3 POP PUSH2 0x1BA DUP8 DUP5 PUSH2 0x2E2 JUMP JUMPDEST SWAP3 POP PUSH2 0x1D0 PUSH2 0x1C9 DUP9 DUP6 PUSH2 0x2E2 JUMP JUMPDEST DUP9 SWAP1 PUSH2 0x387 JUMP JUMPDEST DUP1 MLOAD PUSH1 0x20 SWAP1 SWAP2 ADD KECCAK256 SWAP4 POP PUSH32 0x3BE606946D6F343B24D5ECDBD7E3370A5303ED54845F50F466A35F3BBEB46A45 DUP5 EQ PUSH2 0x23C JUMPI PUSH1 0x40 MLOAD PUSH3 0x461BCD PUSH1 0xE5 SHL DUP2 MSTORE PUSH1 0x20 PUSH1 0x4 DUP3 ADD MSTORE PUSH1 0xB PUSH1 0x24 DUP3 ADD MSTORE PUSH11 0x496E76616C6964206B6579 PUSH1 0xA8 SHL PUSH1 0x44 DUP3 ADD MSTORE PUSH1 0x64 ADD JUMPDEST PUSH1 0x40 MLOAD DUP1 SWAP2 SUB SWAP1 REVERT JUMPDEST PUSH2 0x246 DUP8 DUP5 PUSH2 0x3C1 JUMP JUMPDEST SWAP3 POP PUSH2 0x252 DUP8 DUP5 PUSH2 0x3E1 JUMP JUMPDEST SWAP3 POP PUSH2 0x25E DUP8 DUP5 PUSH2 0x2E2 JUMP JUMPDEST SWAP3 POP PUSH2 0x26A DUP8 DUP5 PUSH2 0x46D JUMP JUMPDEST SWAP2 POP PUSH2 0x276 DUP8 DUP5 PUSH2 0x3C1 JUMP JUMPDEST SWAP3 POP PUSH2 0x282 DUP8 DUP5 PUSH2 0x46D JUMP JUMPDEST SWAP2 SWAP8 SWAP2 SWAP7 POP SWAP1 SWAP5 POP POP POP POP POP JUMP JUMPDEST PUSH1 0x0 PUSH1 0x60 PUSH2 0x29F DUP4 DUP6 DUP8 PUSH2 0x5FD JUMP JUMPDEST SWAP2 POP SWAP2 POP SWAP4 POP SWAP4 SWAP2 POP POP JUMP JUMPDEST DUP2 MLOAD PUSH1 0x0 SWAP1 PUSH2 0x2BB DUP4 PUSH1 0x20 PUSH2 0xC38 JUMP JUMPDEST GT ISZERO PUSH2 0x2C6 JUMPI PUSH1 0x0 DUP1 REVERT JUMPDEST POP ADD PUSH1 0x20 ADD MLOAD SWAP1 JUMP JUMPDEST PUSH1 0x0 PUSH2 0x2DC DUP3 PUSH1 0x0 PUSH2 0x694 JUMP JUMPDEST SWAP3 SWAP2 POP POP JUMP JUMPDEST PUSH1 0x0 DUP3 PUSH1 0x1 PUSH1 0x1 PUSH1 0x50 SHL SUB DUP4 AND DUP2 MLOAD DUP2 LT PUSH2 0x2FF JUMPI PUSH2 0x2FF PUSH2 0xC50 JUMP JUMPDEST ADD PUSH1 0x20 ADD MLOAD PUSH1 0x1 PUSH1 0xFD SHL SWAP1 DUP2 AND EQ PUSH2 0x364 JUMPI PUSH1 0x40 MLOAD PUSH3 0x461BCD PUSH1 0xE5 SHL DUP2 MSTORE PUSH1 0x20 PUSH1 0x4 DUP3 ADD MSTORE PUSH1 0x22 PUSH1 0x24 DUP3 ADD MSTORE PUSH32 0x41736E316465636F64653A204E6F74206120636F6E7374727563746564207479 PUSH1 0x44 DUP3 ADD MSTORE PUSH2 0x7065 PUSH1 0xF0 SHL PUSH1 0x64 DUP3 ADD MSTORE PUSH1 0x84 ADD PUSH2 0x233 JUMP JUMPDEST PUSH2 0x380 DUP4 PUSH1 0x50 DUP5 SWAP1 SHR PUSH1 0x1 PUSH1 0x1 PUSH1 0x50 SHL SUB AND PUSH2 0x694 JUMP JUMPDEST PUSH2 0x694 JUMP JUMPDEST SWAP4 SWAP3 POP POP POP JUMP JUMPDEST PUSH1 0x60 PUSH2 0x380 PUSH1 0x1 PUSH1 0x1 PUSH1 0x50 SHL SUB PUSH1 0x50 DUP5 SWAP1 SHR DUP2 AND SWAP1 DUP2 SWAP1 PUSH2 0x3AF SWAP1 PUSH1 0xA0 DUP8 SWAP1 SHR AND PUSH1 0x1 PUSH2 0xC38 JUMP JUMPDEST PUSH2 0x3B9 SWAP2 SWAP1 PUSH2 0xBF8 JUMP JUMPDEST DUP6 SWAP2 SWAP1 PUSH2 0x849 JUMP JUMPDEST PUSH1 0x0 PUSH2 0x380 DUP4 PUSH1 0xA0 DUP5 SWAP1 SHR PUSH1 0x1 PUSH1 0x1 PUSH1 0x50 SHL SUB AND JUMPDEST PUSH2 0x37B SWAP1 PUSH1 0x1 PUSH2 0xC38 JUMP JUMPDEST PUSH1 0x0 DUP3 PUSH1 0x1 PUSH1 0x1 PUSH1 0x50 SHL SUB DUP4 AND DUP2 MLOAD DUP2 LT PUSH2 0x3FE JUMPI PUSH2 0x3FE PUSH2 0xC50 JUMP JUMPDEST PUSH1 0x20 SWAP2 ADD ADD MLOAD PUSH1 0x1 PUSH1 0x1 PUSH1 0xF8 SHL SUB NOT AND PUSH1 0x3 PUSH1 0xF8 SHL EQ PUSH2 0x456 JUMPI PUSH1 0x40 MLOAD PUSH3 0x461BCD PUSH1 0xE5 SHL DUP2 MSTORE PUSH1 0x20 PUSH1 0x4 DUP3 ADD MSTORE PUSH1 0x13 PUSH1 0x24 DUP3 ADD MSTORE PUSH19 0x4E6F7420747970652042495420535452494E47 PUSH1 0x68 SHL PUSH1 0x44 DUP3 ADD MSTORE PUSH1 0x64 ADD PUSH2 0x233 JUMP JUMPDEST PUSH2 0x380 DUP4 PUSH1 0x50 DUP5 SWAP1 SHR PUSH1 0x1 PUSH1 0x1 PUSH1 0x50 SHL SUB AND PUSH2 0x3D6 JUMP JUMPDEST PUSH1 0x60 DUP3 PUSH1 0x1 PUSH1 0x1 PUSH1 0x50 SHL SUB DUP4 AND DUP2 MLOAD DUP2 LT PUSH2 0x48A JUMPI PUSH2 0x48A PUSH2 0xC50 JUMP JUMPDEST PUSH1 0x20 SWAP2 ADD ADD MLOAD PUSH1 0x1 PUSH1 0x1 PUSH1 0xF8 SHL SUB NOT AND PUSH1 0x1 PUSH1 0xF9 SHL EQ PUSH2 0x4DF JUMPI PUSH1 0x40 MLOAD PUSH3 0x461BCD PUSH1 0xE5 SHL DUP2 MSTORE PUSH1 0x20 PUSH1 0x4 DUP3 ADD MSTORE PUSH1 0x10 PUSH1 0x24 DUP3 ADD MSTORE PUSH16 0x2737BA103A3CB8329024A72A22A3A2A9 PUSH1 0x81 SHL PUSH1 0x44 DUP3 ADD MSTORE PUSH1 0x64 ADD PUSH2 0x233 JUMP JUMPDEST DUP3 PUSH1 0x50 DUP4 SWAP1 SHR PUSH1 0x1 PUSH1 0x1 PUSH1 0x50 SHL SUB AND DUP2 MLOAD DUP2 LT PUSH2 0x4FE JUMPI PUSH2 0x4FE PUSH2 0xC50 JUMP JUMPDEST ADD PUSH1 0x20 ADD MLOAD PUSH1 0x1 PUSH1 0xFF SHL AND ISZERO PUSH2 0x545 JUMPI PUSH1 0x40 MLOAD PUSH3 0x461BCD PUSH1 0xE5 SHL DUP2 MSTORE PUSH1 0x20 PUSH1 0x4 DUP3 ADD MSTORE PUSH1 0xC PUSH1 0x24 DUP3 ADD MSTORE PUSH12 0x4E6F7420706F736974697665 PUSH1 0xA0 SHL PUSH1 0x44 DUP3 ADD MSTORE PUSH1 0x64 ADD PUSH2 0x233 JUMP JUMPDEST PUSH1 0x0 PUSH1 0x50 DUP4 SWAP1 SHR PUSH1 0x1 PUSH1 0x1 PUSH1 0x50 SHL SUB AND PUSH1 0xA0 DUP5 SWAP1 SHR PUSH1 0x1 PUSH1 0x1 PUSH1 0x50 SHL SUB AND PUSH2 0x56E SWAP1 PUSH1 0x1 PUSH2 0xC38 JUMP JUMPDEST PUSH2 0x578 SWAP2 SWAP1 PUSH2 0xBF8 JUMP JUMPDEST SWAP1 POP DUP4 PUSH1 0x50 DUP5 SWAP1 SHR PUSH1 0x1 PUSH1 0x1 PUSH1 0x50 SHL SUB AND DUP2 MLOAD DUP2 LT PUSH2 0x599 JUMPI PUSH2 0x599 PUSH2 0xC50 JUMP JUMPDEST ADD PUSH1 0x20 ADD MLOAD PUSH1 0x1 PUSH1 0x1 PUSH1 0xF8 SHL SUB NOT AND PUSH1 0x0 SUB PUSH2 0x5E5 JUMPI PUSH2 0x5DD PUSH2 0x5CA PUSH1 0x1 PUSH1 0x1 PUSH1 0x50 SHL SUB PUSH1 0x50 DUP7 SWAP1 SHR AND PUSH1 0x1 PUSH2 0xC38 JUMP JUMPDEST PUSH2 0x5D5 PUSH1 0x1 DUP5 PUSH2 0xBF8 JUMP JUMPDEST DUP7 SWAP2 SWAP1 PUSH2 0x849 JUMP JUMPDEST SWAP2 POP POP PUSH2 0x2DC JUMP JUMPDEST PUSH2 0x5DD DUP5 PUSH1 0x1 PUSH1 0x1 PUSH1 0x50 SHL SUB PUSH1 0x50 DUP7 SWAP1 SHR AND DUP4 PUSH2 0x849 JUMP JUMPDEST PUSH1 0x0 PUSH1 0x60 PUSH1 0x0 DUP6 MLOAD DUP6 MLOAD DUP6 MLOAD DUP9 DUP9 DUP9 PUSH1 0x40 MLOAD PUSH1 0x20 ADD PUSH2 0x621 SWAP7 SWAP6 SWAP5 SWAP4 SWAP3 SWAP2 SWAP1 PUSH2 0xC66 JUMP JUMPDEST PUSH1 0x40 MLOAD PUSH1 0x20 DUP2 DUP4 SUB SUB DUP2 MSTORE SWAP1 PUSH1 0x40 MSTORE SWAP1 POP DUP4 MLOAD PUSH8 0xFFFFFFFFFFFFFFFF DUP2 GT ISZERO PUSH2 0x64C JUMPI PUSH2 0x64C PUSH2 0xA91 JUMP JUMPDEST PUSH1 0x40 MLOAD SWAP1 DUP1 DUP3 MSTORE DUP1 PUSH1 0x1F ADD PUSH1 0x1F NOT AND PUSH1 0x20 ADD DUP3 ADD PUSH1 0x40 MSTORE DUP1 ISZERO PUSH2 0x676 JUMPI PUSH1 0x20 DUP3 ADD DUP2 DUP1 CALLDATASIZE DUP4 CALLDATACOPY ADD SWAP1 POP JUMPDEST POP SWAP2 POP DUP4 MLOAD PUSH1 0x20 DUP4 ADD DUP3 MLOAD PUSH1 0x20 DUP5 ADD PUSH1 0x5 GAS STATICCALL SWAP3 POP POP SWAP4 POP SWAP4 SWAP2 POP POP JUMP JUMPDEST PUSH1 0x0 DUP1 DUP1 DUP1 DUP6 PUSH2 0x6A5 DUP7 PUSH1 0x1 PUSH2 0xC38 JUMP JUMPDEST DUP2 MLOAD DUP2 LT PUSH2 0x6B5 JUMPI PUSH2 0x6B5 PUSH2 0xC50 JUMP JUMPDEST ADD PUSH1 0x20 ADD MLOAD PUSH1 0x1 PUSH1 0xFF SHL AND PUSH1 0x0 SUB PUSH2 0x720 JUMPI DUP6 PUSH2 0x6D3 DUP7 PUSH1 0x1 PUSH2 0xC38 JUMP JUMPDEST DUP2 MLOAD DUP2 LT PUSH2 0x6E3 JUMPI PUSH2 0x6E3 PUSH2 0xC50 JUMP JUMPDEST ADD PUSH1 0x20 ADD MLOAD PUSH1 0xF8 SHR SWAP3 POP PUSH2 0x6F8 DUP6 PUSH1 0x2 PUSH2 0xC38 JUMP JUMPDEST SWAP2 POP PUSH1 0x1 PUSH2 0x70F DUP5 PUSH1 0x1 PUSH1 0x1 PUSH1 0x50 SHL SUB DUP6 AND PUSH2 0xC38 JUMP JUMPDEST PUSH2 0x719 SWAP2 SWAP1 PUSH2 0xBF8 JUMP JUMPDEST SWAP1 POP PUSH2 0x814 JUMP JUMPDEST PUSH1 0x0 DUP7 PUSH2 0x72E DUP8 PUSH1 0x1 PUSH2 0xC38 JUMP JUMPDEST DUP2 MLOAD DUP2 LT PUSH2 0x73E JUMPI PUSH2 0x73E PUSH2 0xC50 JUMP JUMPDEST PUSH1 0x20 SWAP2 ADD ADD MLOAD PUSH1 0xF8 SHR PUSH1 0x7F AND SWAP1 POP PUSH1 0x1 DUP2 SWAP1 SUB PUSH2 0x774 JUMPI PUSH2 0x76A PUSH2 0x763 DUP8 PUSH1 0x2 PUSH2 0xC38 JUMP JUMPDEST DUP9 SWAP1 PUSH2 0x8CB JUMP JUMPDEST PUSH1 0xFF AND SWAP4 POP PUSH2 0x7D6 JUMP JUMPDEST DUP1 PUSH1 0xFF AND PUSH1 0x2 SUB PUSH2 0x79F JUMPI PUSH2 0x794 PUSH2 0x78D DUP8 PUSH1 0x2 PUSH2 0xC38 JUMP JUMPDEST DUP9 SWAP1 PUSH2 0x8EF JUMP JUMPDEST PUSH2 0xFFFF AND SWAP4 POP PUSH2 0x7D6 JUMP JUMPDEST PUSH2 0x7AA DUP2 PUSH1 0x20 PUSH2 0xCC7 JUMP JUMPDEST PUSH2 0x7B5 SWAP1 PUSH1 0x8 PUSH2 0xCEA JUMP JUMPDEST PUSH1 0xFF AND PUSH2 0x7D1 PUSH2 0x7C6 DUP9 PUSH1 0x2 PUSH2 0xC38 JUMP JUMPDEST DUP10 SWAP1 PUSH1 0xFF DUP6 AND PUSH2 0x917 JUMP JUMPDEST SWAP1 SHR SWAP4 POP JUMPDEST PUSH1 0xFF DUP2 AND PUSH2 0x7E5 DUP8 PUSH1 0x2 PUSH2 0xC38 JUMP JUMPDEST PUSH2 0x7EF SWAP2 SWAP1 PUSH2 0xC38 JUMP JUMPDEST SWAP3 POP PUSH1 0x1 PUSH2 0x806 DUP6 PUSH1 0x1 PUSH1 0x1 PUSH1 0x50 SHL SUB DUP7 AND PUSH2 0xC38 JUMP JUMPDEST PUSH2 0x810 SWAP2 SWAP1 PUSH2 0xBF8 JUMP JUMPDEST SWAP2 POP POP JUMPDEST PUSH10 0xFFFFFFFFFFFFFFFFFFFF PUSH1 0xA0 SHL PUSH1 0xA0 DUP3 SWAP1 SHL AND PUSH10 0xFFFFFFFFFFFFFFFFFFFF PUSH1 0x50 SHL PUSH1 0x50 DUP5 SWAP1 SHL AND DUP7 OR OR SWAP7 SWAP6 POP POP POP POP POP POP JUMP JUMPDEST DUP3 MLOAD PUSH1 0x60 SWAP1 PUSH2 0x858 DUP4 DUP6 PUSH2 0xC38 JUMP JUMPDEST GT ISZERO PUSH2 0x863 JUMPI PUSH1 0x0 DUP1 REVERT JUMPDEST PUSH1 0x0 DUP3 PUSH8 0xFFFFFFFFFFFFFFFF DUP2 GT ISZERO PUSH2 0x87E JUMPI PUSH2 0x87E PUSH2 0xA91 JUMP JUMPDEST PUSH1 0x40 MLOAD SWAP1 DUP1 DUP3 MSTORE DUP1 PUSH1 0x1F ADD PUSH1 0x1F NOT AND PUSH1 0x20 ADD DUP3 ADD PUSH1 0x40 MSTORE DUP1 ISZERO PUSH2 0x8A8 JUMPI PUSH1 0x20 DUP3 ADD DUP2 DUP1 CALLDATASIZE DUP4 CALLDATACOPY ADD SWAP1 POP JUMPDEST POP SWAP1 POP PUSH1 0x20 DUP1 DUP3 ADD SWAP1 DUP7 DUP7 ADD ADD PUSH2 0x8C0 DUP3 DUP3 DUP8 PUSH2 0x958 JUMP JUMPDEST POP SWAP1 SWAP6 SWAP5 POP POP POP POP POP JUMP JUMPDEST PUSH1 0x0 DUP3 DUP3 DUP2 MLOAD DUP2 LT PUSH2 0x8DF JUMPI PUSH2 0x8DF PUSH2 0xC50 JUMP JUMPDEST ADD PUSH1 0x20 ADD MLOAD PUSH1 0xF8 SHR SWAP1 POP SWAP3 SWAP2 POP POP JUMP JUMPDEST DUP2 MLOAD PUSH1 0x0 SWAP1 PUSH2 0x8FF DUP4 PUSH1 0x2 PUSH2 0xC38 JUMP JUMPDEST GT ISZERO PUSH2 0x90A JUMPI PUSH1 0x0 DUP1 REVERT JUMPDEST POP ADD PUSH1 0x2 ADD MLOAD PUSH2 0xFFFF AND SWAP1 JUMP JUMPDEST PUSH1 0x0 PUSH1 0x20 DUP3 GT ISZERO PUSH2 0x927 JUMPI PUSH1 0x0 DUP1 REVERT JUMPDEST DUP4 MLOAD PUSH2 0x933 DUP4 DUP6 PUSH2 0xC38 JUMP JUMPDEST GT ISZERO PUSH2 0x93E JUMPI PUSH1 0x0 DUP1 REVERT JUMPDEST POP PUSH1 0x20 SWAP2 SWAP1 SWAP3 ADD DUP2 ADD MLOAD SWAP2 SWAP1 SUB PUSH2 0x100 EXP PUSH1 0x0 NOT ADD NOT AND SWAP1 JUMP JUMPDEST PUSH1 0x20 DUP2 LT PUSH2 0x990 JUMPI DUP2 MLOAD DUP4 MSTORE PUSH2 0x96F PUSH1 0x20 DUP5 PUSH2 0xC38 JUMP JUMPDEST SWAP3 POP PUSH2 0x97C PUSH1 0x20 DUP4 PUSH2 0xC38 JUMP JUMPDEST SWAP2 POP PUSH2 0x989 PUSH1 0x20 DUP3 PUSH2 0xBF8 JUMP JUMPDEST SWAP1 POP PUSH2 0x958 JUMP JUMPDEST SWAP1 MLOAD DUP3 MLOAD PUSH1 0x20 SWAP3 SWAP1 SWAP3 SUB PUSH2 0x100 EXP PUSH1 0x0 NOT ADD DUP1 NOT SWAP1 SWAP2 AND SWAP2 AND OR SWAP1 MSTORE JUMP JUMPDEST PUSH1 0x0 DUP1 DUP4 PUSH1 0x1F DUP5 ADD SLT PUSH2 0x9C0 JUMPI PUSH1 0x0 DUP1 REVERT JUMPDEST POP DUP2 CALLDATALOAD PUSH8 0xFFFFFFFFFFFFFFFF DUP2 GT ISZERO PUSH2 0x9D8 JUMPI PUSH1 0x0 DUP1 REVERT JUMPDEST PUSH1 0x20 DUP4 ADD SWAP2 POP DUP4 PUSH1 0x20 DUP3 DUP6 ADD ADD GT ISZERO PUSH2 0x9F0 JUMPI PUSH1 0x0 DUP1 REVERT JUMPDEST SWAP3 POP SWAP3 SWAP1 POP JUMP JUMPDEST PUSH1 0x0 DUP1 PUSH1 0x0 DUP1 PUSH1 0x0 DUP1 PUSH1 0x60 DUP8 DUP10 SUB SLT ISZERO PUSH2 0xA10 JUMPI PUSH1 0x0 DUP1 REVERT JUMPDEST DUP7 CALLDATALOAD PUSH8 0xFFFFFFFFFFFFFFFF DUP1 DUP3 GT ISZERO PUSH2 0xA28 JUMPI PUSH1 0x0 DUP1 REVERT JUMPDEST PUSH2 0xA34 DUP11 DUP4 DUP12 ADD PUSH2 0x9AE JUMP JUMPDEST SWAP1 SWAP9 POP SWAP7 POP PUSH1 0x20 DUP10 ADD CALLDATALOAD SWAP2 POP DUP1 DUP3 GT ISZERO PUSH2 0xA4D JUMPI PUSH1 0x0 DUP1 REVERT JUMPDEST PUSH2 0xA59 DUP11 DUP4 DUP12 ADD PUSH2 0x9AE JUMP JUMPDEST SWAP1 SWAP7 POP SWAP5 POP PUSH1 0x40 DUP10 ADD CALLDATALOAD SWAP2 POP DUP1 DUP3 GT ISZERO PUSH2 0xA72 JUMPI PUSH1 0x0 DUP1 REVERT JUMPDEST POP PUSH2 0xA7F DUP10 DUP3 DUP11 ADD PUSH2 0x9AE JUMP JUMPDEST SWAP8 SWAP11 SWAP7 SWAP10 POP SWAP5 SWAP8 POP SWAP3 SWAP6 SWAP4 SWAP5 SWAP3 POP POP POP JUMP JUMPDEST PUSH4 0x4E487B71 PUSH1 0xE0 SHL PUSH1 0x0 MSTORE PUSH1 0x41 PUSH1 0x4 MSTORE PUSH1 0x24 PUSH1 0x0 REVERT JUMPDEST PUSH1 0x0 PUSH1 0x20 DUP3 DUP5 SUB SLT ISZERO PUSH2 0xAB9 JUMPI PUSH1 0x0 DUP1 REVERT JUMPDEST DUP2 CALLDATALOAD PUSH8 0xFFFFFFFFFFFFFFFF DUP1 DUP3 GT ISZERO PUSH2 0xAD1 JUMPI PUSH1 0x0 DUP1 REVERT JUMPDEST DUP2 DUP5 ADD SWAP2 POP DUP5 PUSH1 0x1F DUP4 ADD SLT PUSH2 0xAE5 JUMPI PUSH1 0x0 DUP1 REVERT JUMPDEST DUP2 CALLDATALOAD DUP2 DUP2 GT ISZERO PUSH2 0xAF7 JUMPI PUSH2 0xAF7 PUSH2 0xA91 JUMP JUMPDEST PUSH1 0x40 MLOAD PUSH1 0x1F DUP3 ADD PUSH1 0x1F NOT SWAP1 DUP2 AND PUSH1 0x3F ADD AND DUP2 ADD SWAP1 DUP4 DUP3 GT DUP2 DUP4 LT OR ISZERO PUSH2 0xB1F JUMPI PUSH2 0xB1F PUSH2 0xA91 JUMP JUMPDEST DUP2 PUSH1 0x40 MSTORE DUP3 DUP2 MSTORE DUP8 PUSH1 0x20 DUP5 DUP8 ADD ADD GT ISZERO PUSH2 0xB38 JUMPI PUSH1 0x0 DUP1 REVERT JUMPDEST DUP3 PUSH1 0x20 DUP7 ADD PUSH1 0x20 DUP4 ADD CALLDATACOPY PUSH1 0x0 SWAP3 DUP2 ADD PUSH1 0x20 ADD SWAP3 SWAP1 SWAP3 MSTORE POP SWAP6 SWAP5 POP POP POP POP POP JUMP JUMPDEST PUSH1 0x0 JUMPDEST DUP4 DUP2 LT ISZERO PUSH2 0xB73 JUMPI DUP2 DUP2 ADD MLOAD DUP4 DUP3 ADD MSTORE PUSH1 0x20 ADD PUSH2 0xB5B JUMP JUMPDEST DUP4 DUP2 GT ISZERO PUSH2 0xB82 JUMPI PUSH1 0x0 DUP5 DUP5 ADD MSTORE JUMPDEST POP POP POP POP JUMP JUMPDEST PUSH1 0x0 DUP2 MLOAD DUP1 DUP5 MSTORE PUSH2 0xBA0 DUP2 PUSH1 0x20 DUP7 ADD PUSH1 0x20 DUP7 ADD PUSH2 0xB58 JUMP JUMPDEST PUSH1 0x1F ADD PUSH1 0x1F NOT AND SWAP3 SWAP1 SWAP3 ADD PUSH1 0x20 ADD SWAP3 SWAP2 POP POP JUMP JUMPDEST PUSH1 0x40 DUP2 MSTORE PUSH1 0x0 PUSH2 0xBC7 PUSH1 0x40 DUP4 ADD DUP6 PUSH2 0xB88 JUMP JUMPDEST DUP3 DUP2 SUB PUSH1 0x20 DUP5 ADD MSTORE PUSH2 0xBD9 DUP2 DUP6 PUSH2 0xB88 JUMP JUMPDEST SWAP6 SWAP5 POP POP POP POP POP JUMP JUMPDEST PUSH4 0x4E487B71 PUSH1 0xE0 SHL PUSH1 0x0 MSTORE PUSH1 0x11 PUSH1 0x4 MSTORE PUSH1 0x24 PUSH1 0x0 REVERT JUMPDEST PUSH1 0x0 DUP3 DUP3 LT ISZERO PUSH2 0xC0A JUMPI PUSH2 0xC0A PUSH2 0xBE2 JUMP JUMPDEST POP SUB SWAP1 JUMP JUMPDEST DUP2 DUP4 DUP3 CALLDATACOPY PUSH1 0x0 SWAP2 ADD SWAP1 DUP2 MSTORE SWAP2 SWAP1 POP JUMP JUMPDEST PUSH1 0x0 PUSH1 0x20 DUP3 DUP5 SUB SLT ISZERO PUSH2 0xC31 JUMPI PUSH1 0x0 DUP1 REVERT JUMPDEST POP MLOAD SWAP2 SWAP1 POP JUMP JUMPDEST PUSH1 0x0 DUP3 NOT DUP3 GT ISZERO PUSH2 0xC4B JUMPI PUSH2 0xC4B PUSH2 0xBE2 JUMP JUMPDEST POP ADD SWAP1 JUMP JUMPDEST PUSH4 0x4E487B71 PUSH1 0xE0 SHL PUSH1 0x0 MSTORE PUSH1 0x32 PUSH1 0x4 MSTORE PUSH1 0x24 PUSH1 0x0 REVERT JUMPDEST DUP7 DUP2 MSTORE DUP6 PUSH1 0x20 DUP3 ADD MSTORE DUP5 PUSH1 0x40 DUP3 ADD MSTORE PUSH1 0x0 DUP5 MLOAD PUSH2 0xC8A DUP2 PUSH1 0x60 DUP6 ADD PUSH1 0x20 DUP10 ADD PUSH2 0xB58 JUMP JUMPDEST DUP5 MLOAD SWAP1 DUP4 ADD SWAP1 PUSH2 0xCA1 DUP2 PUSH1 0x60 DUP5 ADD PUSH1 0x20 DUP10 ADD PUSH2 0xB58 JUMP JUMPDEST DUP5 MLOAD SWAP2 ADD SWAP1 PUSH2 0xCB7 DUP2 PUSH1 0x60 DUP5 ADD PUSH1 0x20 DUP9 ADD PUSH2 0xB58 JUMP JUMPDEST ADD PUSH1 0x60 ADD SWAP9 SWAP8 POP POP POP POP POP POP POP POP JUMP JUMPDEST PUSH1 0x0 PUSH1 0xFF DUP3 AND PUSH1 0xFF DUP5 AND DUP1 DUP3 LT ISZERO PUSH2 0xCE1 JUMPI PUSH2 0xCE1 PUSH2 0xBE2 JUMP JUMPDEST SWAP1 SUB SWAP4 SWAP3 POP POP POP JUMP JUMPDEST PUSH1 0x0 PUSH1 0xFF DUP3 AND PUSH1 0xFF DUP5 AND DUP2 PUSH1 0xFF DIV DUP2 GT DUP3 ISZERO ISZERO AND ISZERO PUSH2 0xD0B JUMPI PUSH2 0xD0B PUSH2 0xBE2 JUMP JUMPDEST MUL SWAP4 SWAP3 POP POP POP JUMP INVALID LOG2 PUSH5 0x6970667358 0x22 SLT KECCAK256 0xC6 0xEE LOG3 PC DUP8 SWAP13 0xE6 PUSH20 0xB2ECD53D199265F4B0CD66AA7B8506DE68F8D87E MSTORE8 OR 0xDD 0xA9 PUSH5 0x736F6C6343 STOP ADDMOD 0xF STOP CALLER "
				},
				"gasEstimates": {
					"creation": {
						"codeDepositCost": "680200",
						"executionCost": "715",
						"totalCost": "680915"
					},
					"external": {
						"extractKeyComponents(bytes)": "infinite",
						"verify(bytes,bytes,bytes)": "infinite"
					}
				},
				"methodIdentifiers": {
					"extractKeyComponents(bytes)": "df4e0bc3",
					"verify(bytes,bytes,bytes)": "de8f50a1"
				}
			},
			"storageLayout": {
				"storage": [],
				"types": null
			},
			"userdoc": {
				"kind": "user",
				"methods": {},
				"version": 1
			}
		}
	}
}